:020000040800F2
:1000000030D2002035DF0208F1DD0208F3DD0208FE
:10001000F5DD0208F7DD0208F9DD02080000000046
:10002000000000000000000000000000FBDD0208EE
:10003000FDDD020800000000FFDD020801DE02080D
:1000400019E102081DE1020821E1020825E1020888
:1000500029E102082DE1020831E1020835E1020838
:1000600039E102083DE1020841E1020805DE02082B
:1000700045E1020849E102084DE1020851E10208A8
:1000800055E1020859E102085DE1020861E1020858
:1000900065E1020869E102086DE1020871E1020808
:1000A00075E1020879E102087DE1020881E10208B8
:1000B00085E1020889E102088DE1020891E1020868
:1000C00095E1020899E102089DE10208A1E1020818
:1000D000A5E10208A9E10208ADE10208B1E10208C8
:1000E000B5E10208B9E10208BDE10208C1E1020878
:1000F000C5E10208C9E10208CDE1020800000000E4
:10010000D1E10208D5E10208D9E10208DDE10208E7
:10011000E1E10208E5E10208E9E10208EDE1020897
:10012000F1E10208F5E10208F9E10208FDE1020847
:1001300001E2020805E2020809E202080DE20208F3
:1001400011E2020815E2020819E202081DE20208A3
:1001500021E2020825E2020801F0010829E2020872
:100160002DE2020831E202080BDE020835E2020845
:1001700039E202083DE20208000000000000000031
:1001800041E2020845E2020849E202084DE20208A3
:1001900051E2020859E202080000000000000000DD
:1001A000000000000000000055E202085DE20208C5
:1001B00061E2020865E2020869E20208000000004C
:1001C0007F997F14CD2F0A7F1CABBEFFB281628C5A
:1001D0006DCA13148144B4641602A622E67FAE7F72
:1001E000297F92B17FC594F25BE4D6817F7F7F4601
:1001F0008181812B813A7F81D6937F262ACE81A06F
:10020000817F21E4A1EA41CA7FC926E4EB0781325C
:100210008B81C8F92705E988F32252813DEA86AE31
:10022000817F0B8160816381FFE37F817F4A7F89CA
:10023000D9A27F81947F757F00000000000000003C
:1002400000000000000000000000000000000000AE
:10025000000000000000000000000000000000009E
:10026000000000000000000000000000000000008E
:10027000000000000000000000000000000000007E
:10028000000000000000000000000000000000006E
:10029000000000000000000000000000000000005E
:1002A000000000000000000000000000000000004E
:1002B000000000000000000000000000000000003E
:1002C000000000000000000000000000000000002E
:1002D00000000000000000007E766F1018FAB3D70F
:1002E000C62C13E5C3F901213A4305F195BB2C91C6
:1002F000C95AB93E10BE812A0033CD0234A9D97A39
:100300007F33523BA92D12DFBAA1C60340D4D828AF
:10031000F1E7BA0A2718CAF82DDDD7C20730F62A46
:100320006251C50EFBD4140D26002924D319E813FD
:1003300032125F30C4811FEDFF3BF9AD36870A29C9
:1003400056E3F739082841B7F313C70B3006E4C961
:1003500036FE0E44D148E2E21020F9EE0CF9C3BD9E
:100360001CF62008A10CCAB312F8C52719CCF7DB7C
:10037000BDAB33EB812BA5B2E115F8A439E6A2DAC7
:10038000402F31EBDDCE2EDCEAD4D0FF53B50DC8C3
:100390002FD08126E42C08D820B7374BE11600E691
:1003A000DDD27842810A2922BED2861110646848C3
:1003B000EDE4F908E6BB62C82A7FF6C64DD805848D
:1003C00019D9F53123CDDF15CF0BD7BC45EDCDCDF8
:1003D000E02AE0F4382F0D03F09EEA00BC1127C993
:1003E000B50015081A03769B3C2744F27FA31DE64F
:1003F0003CF1DD1B74DB20AF47FCCD163435811E8C
:10040000B1EF3AD404F799D4F9191FD5EFC40531E7
:10041000FCF90E21C4C46435F0CC0846ED1B1FC99D
:1004200012DFAB34BFFB110A947FB3CBDAE0CA51C1
:100430004D0B55DA23EDCE151CD9BEEDC93CD9F1D3
:1004400021BD3C5081D3B1D41C04C817C284B40F61
:10045000CDF5E8D3F2FD2D0520F6F4E507260EE5EF
:10046000EE142D0CD3454C0E43077F1BD50EE4EF45
:1004700051161608E6F6F203DA05191AC1F30C0054
:100480000DE0E51CD6EB0AEE3033F4F527FF041F30
:10049000F8E2AFE13FF5E8077F1DF6F3029BEA22A1
:1004A0001CD61D19F81743F4FE32CD063536EAF78F
:1004B000E60ECAA90420F3D2F207C21BD43B0410F3
:1004C0003C57D8FA81DF0111ED4818914691087721
:1004D00027E706ECBFCDA3C160C637ABD152F8BA4F
:1004E000FD1E2EDF19FDEBFF1BF9420126ED18D191
:1004F00031260CFEE1F903E010F9DDF3390CCFD021
:10050000D181FB21C10A35EF413DDA4A0E20E5FDDC
:100510003EC9ECC1B1F10D6621852773DBF7CAA096
:10052000937F22F1619B910D93E302B7A2A5DF2B8C
:10053000D7073B1A0235DDEB1CEF1FFC1BF2BB0398
:10054000D9EE2BD9DE10F81AF510082EF3B529E0F4
:100550001DF732D0FD1481E615F40CFED7C04E7E97
:10056000FFD9F2001759DFD319152AFF081FF0042D
:10057000E79CDBD7FD53BF652AF47FF69138E0C9CD
:1005800011C4F1D849FC81E6CBAFEB3900E5054A4F
:100590000AFC704B0F21E0EA76F215FC2349DBF8E8
:1005A00072D8ED0309E846DFA8EF3556BBE1EDCF81
:1005B0007DD3CACAC78153FB6AFCC94ABE45E4D68B
:1005C000913CCAF80715D2C23CE944FA1833D12C41
:1005D000251AE355FF441708CFECF8D92963BD81EC
:1005E00020DCE70A3612F5ECC807ECB9C4B1DA1919
:1005F000D9C4421DFED14617BFC90D363F4A2E1A37
:10060000C20DF6144E7F87C9C74AEA18D45BD1D70A
:10061000DAEB06DEB01F05470F370AB65B18015E3E
:10062000EDBDE9DFE2E311CF31E8CB0FCF81172930
:100630002F1DBFE452EAD21EE71BDC34FB0E07E796
:100640001E06F116FAD013EDD0E44445F9EFCA388E
:100650005925CDBDE1F7813EE4AE2DC0C512200A7B
:10066000FB02F2AFFB0B03CFCAAEDE1BA8EC3EFFD2
:10067000FCE60A2CD7888DACD3A5D8CFD8010315BA
:10068000E0E925CA1E34FC4A7FCDD60D06EEF3E71D
:100690000F12ED9AEDEE18573230233D51C0740819
:1006A000BDD4EF2E28C91350834CC8C8370CE6D6EA
:1006B000CC22DF3EBB81AACD42E51CC52248C42026
:1006C0000DEDFEFA0E01F8ED0112E4EDEFEFEC1482
:1006D00041DAFDEA2FFA2634F02B15ECE6D17FAC97
:1006E000EB40AE19472B0ADD310BA831D7BEFFF71F
:1006F0000AD118C0D4CB2ABA08E90D32927F3C281F
:1007000019AE3BE147370F3FE0BEE71AED2A0A0C6E
:10071000951F3DE3DFEA1CDD48D7E6E6FDFF7FD00D
:10072000C623EDE73250EFDE1705B59CEFED085319
:10073000E52EF6521941ED79CA61CF12747E5D51F2
:10074000F6C84EFF0EF01004E0368741863DFE02EB
:1007500030010AF010D2D840EBEA818B63DBCDC7C1
:100760000CB7E1DCD241F444EE200BF7A29834241C
:100770007FDE573ADA561E4447B65829B44AC9555F
:10078000280328F619B722C9F3EEE3F105C1CF819A
:10079000D8F0D817E1931A0DF59223DC0714E2087C
:1007A00006E436310A2AF03339F3F93BFD0204E25C
:1007B0007FDB69D41FC66D5BFCC8A9512BF1820B8E
:1007C0001828A7DF3719B1ED360513541E0CBC628B
:1007D000F139A5633929C9578F3A5B0A994FB6D9C0
:1007E000F133157F221816A9AFFCD015F731F7F5B4
:1007F000024541FABFF954297CFA1CDAD32253BFCF
:1008000008FDA2E9E30BE67FBDD5300C1E48AD1014
:10081000EE30509B47DA5063361804DAF813FE09BD
:10082000142BD804FDCEA5F04A4412942B17E3CD27
:100830007F2E1ABD38BB01DAE604F8E0E80FD119C3
:10084000DBE10DD233EDD51FCFF82ED82527282791
:100850003BFFEEF9D2EC00162AE3EADD26188143CD
:10086000AEDD66D7D91EE8EE1D292642F228090E14
:100870000C0C3D19220B0BE60100AF3311D963E2DA
:1008800089AF151FF85BF0970AE6DA4B094E7FF047
:100890003AF1EEDB0B1DFD18E0F1CAE54327C82550
:1008A0000CD52519D2F70BDBCEFE53C13DFA24DC63
:1008B0007F090EC4E6CC0F26FD8B3829241D16C5F2
:1008C000F11828EBEBF088DDEB07320031C0DA12CB
:1008D000D655C6181CCEFCE8D905DD8C5729813EBB
:1008E000E828B372E62DEA2C22E1EF30CEF8045C62
:1008F00007180C1CE8D627FDCFCCECE3F402C9178F
:1009000038E7F2EF3B1C12F5490B5E35C0727FB73A
:10091000C94104E21E38A9BB05154E3A19C2F7E7D2
:1009200076E84CDED1C917DEDDB3058165849D48CC
:10093000E8C7B442EBD32EE8F4FDB63F15432F26AB
:1009400018EB441EF1ABC0E7E3839D017DFCBCFCCA
:10095000C9815E35D135411247DC460E1342E6F3BC
:100960003B02FB1303E1D6ED1FAEEC97FFF9EDE977
:10097000D74C7F0340C5112149E8F218EBBFC0DD19
:10098000E4A60101F9D55B43E50393CFF7F01B27FC
:10099000170C81C8E2DCD7B05C21B020D9BEFB3097
:1009A000F7BAF9578827F3C3F73CBE4CEE053E8EE5
:1009B0004215FF9F1F3920EB111F23C7E6071E08B2
:1009C0000708C97F04133132C8EC3EFADB0A0AF18A
:1009D0000F0C06BA39FFB90EB7EE01D201FC503E3A
:1009E0009FE1E6E60D9234AF8FF6247F06BB00E46C
:1009F000E30E674ECF58CA0C60C83EC2666E0363F2
:100A0000F843EB1710122303EC2736DD08B263AD71
:100A1000D678CB6B357F5FCAFAF0264D1ADEAD2E45
:100A20000B17060636E0E212EC363B0C5130AF27CE
:100A3000F3D8078103CEAB2A22AEE4CED80F151926
:100A4000B635A03FFFDCBE1425C3E50E0141F80218
:100A5000441243ECF9C17ADB093A0DB301B7C82956
:100A6000E8D6CD7FF2D237E129DD396DD6F30B3FE1
:100A700042A0170EC31DFB024539FCCB0C2901EE29
:100A80000BCF1FC8053FD9F8D63DEB325EDB0A0419
:100A9000CBE5E717FCD3E0DC3FC7A326072846F0E9
:100AA000E3F12D567FCA0F1D15F93EE6E3171D0D24
:100AB000EBCC075347E02EF7AD2338C325EDC97FB4
:100AC0003CD1DC3019CB2305FD4B471FD2F401008C
:100AD0002BE70B7F929DE203EEE70DF5D9BCCD0924
:100AE000E4EEF5111AD0FDFD23280522D53338296F
:100AF000DE1DEAE60D22BEE320EDD19339C3DF28E7
:100B00007F02F4043DECEBE4EB16F600DBC5F20BE0
:100B10002221B81F0CF01FFA1BF1FBC716D62F05B8
:100B2000BF5E3B09152723F71DE7A7BED67FE52A41
:100B3000F9C42C20BE4AE864A31C1716FC9930ACFB
:100B400031A47D088F3120F0EE3DD0586605FE8C33
:100B50002F060C0739C73A11AAE837C437CBCEF0B5
:100B60001122E61A8A7FFB20F615F030BDD0CCF0BA
:100B7000D2303BD90A1AE1021CECCACD25E3EBF8CE
:100B80001A07CC23050F17DD126122D9F7F7AAFF48
:100B90004050E71125D27F91F50FEC1AE7F615CBFF
:100BA0001534FAD2E30A04C20318F343D901EEE67E
:100BB000EAFDDEED2B27FA5FFA4ADCFF7FD3AAF5C8
:100BC0000FEF7FB308DFCDF235FA3FCBF1E4B0E7AA
:100BD000BF2AF45DD4F7D8111554F7C116F6D5EC39
:100BE000F7D4C40BDC723F227318C7E2062AE24333
:100BF0003030F50DCA18DD30CB38D8E33407112575
:100C0000EB39DFDD3AD58A72CE30851D5E813887BB
:100C100035E52318EBDEE37F2BFD33EEA9D954181D
:100C200034B12B12EBC5300D213CCA33B237DC3660
:100C30000B59FC01031E00F469007F36E60C111B02
:100C4000E1D130E83B02AAECD7EEFC0B29DFCDD492
:100C50004F0DF81FE9040921E804D1DA3FD602F765
:100C60007F48510827415555B339444BFA14CA639C
:100C7000960635E95E1711F63A1AEDCE0CA7C710A5
:100C8000F5181A01E6C229636442D921140367C426
:100C9000CCE9DB3A17F60B0EE92CD1E40526E2FE8F
:100CA000E7F7F1811AEC9F74B40BA41354B23D31F1
:100CB00047DC7F1CE0A2A097B0E1FE4A05E0EAC84D
:100CC00007D143010232644054F2FAAF5016FF20BC
:100CD000DF44EA2BF6AACA260152C8F6F4B9062464
:100CE0006A92A0BADFFCBF3BE328A261A4D7D5C2B9
:100CF000171A122930515FBE120C1A600CD081B73E
:100D0000E092F5F1DB457FF5C5097D34F416023C30
:100D1000F2B827D6DC163EF6433A0C5218D23A65A2
:100D2000BE23C938ECD08D3EE4E5EDFD02F7B0E717
:100D300006D3D913171A40FF22BEEA1AF13BFFE08F
:100D4000D2FBC5110ACEEECAFCF945C08141E71FAE
:100D50002DDB8836AE2B3D7A87815D18686EF89F53
:100D6000CBB4207C00E930E016EDF5200619E6074B
:100D7000BE2805182B21DD053806EE042EE7EBCB47
:100D8000A9081AF509247FD3F93CD5CA012FDB0A3B
:100D90004B191E373C1E40B8C9E136022D97D3E5EA
:100DA00013254C26E0AED0F6D80BCF1AFC1110E973
:100DB000C8FE569D55231D1A3DDD815BC04112D8EA
:100DC000F108FC13D8FB074301C760CE18BD040F20
:100DD0003C4604FEDB2DCF0B814C1B27C5E5FCC632
:100DE000F315B6F610232837173214ECE11F2DCB7C
:100DF00012C73C0D99E040F1D4842417CF62EEC8AD
:100E0000AD0EE128F03AAB404CC2F997070621F449
:100E10001E7FA703C3F2EBFD7FB9CA18E7050100E7
:100E2000550913FBB4FD1B2F08F830FE69EF22D8DB
:100E3000F00AF8FB9DC79ED7E000F4122B064CBBCE
:100E40005D5CC7EA11E7EB33EB20D2581EB714D52F
:100E5000DA09418158BA0E2C081D917094BDC3F176
:100E600029FAF9F8B6082922109B7E39F7FED1132A
:100E7000819007E8A9EE46161654BEDA402551C304
:100E800036F101F2F53FD31C91B5DB4B1523CB4A6C
:100E900048D6E4E2FFFDD91927D7BDFF4DF48635CA
:100EA00007C1F10DDAE418F54504FDE1194EF27FB2
:100EB000ED18D70CFD540CD1F1F2CDF62CDF1D1638
:100EC0002276FF95B3D212F014D1EE5BFFAE0B1D6C
:100ED000CD7FF1C7D51C4420D6F2E6DBEB0EC999D5
:100EE0005F0BEBEEC61DD9105440F19F05E2E934CB
:100EF000197827A9F7E7C7F2FC16F733DD8133CE5F
:100F000024406A0EE806B7FBD6FCF0B4D7BFD80E73
:100F10000DC5E6DD3708BFF63D0D1AEAEFEBF02D03
:100F2000D6EDF4CDFFF6C7F64B56F3A38133FBA7FE
:100F3000E4A8C12BB1DF4F7423CBDD61412874934A
:100F40006F4C1E20DFE37FE801ED49F9D620FD5606
:100F5000E34C1C14283ADD1B7F23FAF83E2B2A337E
:100F6000F41B663206D1F711DF29CAE045B42D46DD
:100F7000F5E5E51747C4381514EDF4DDF33F270810
:100F8000E002F72EE51DE6FBF8C3D2DB3D2D08F5A8
:100F90007FA5C92BEC5087ACC1F1E61F05C176884F
:100FA0002A2BCA111508D3D01995E6AFF3CA067FCC
:100FB000EAF60E1B21E6C84BDEF9E6FA13E73FFB23
:100FC000CAE4F11AD31204272CFAEE1FEF0E5314C1
:100FD0005FFC91BE54E8588A54713E6C17C92D4984
:100FE000E237BBD8AFA5DAF4DE0812D5D80B0A1D5C
:100FF0007F36D40709B9F4DF402DBCC6EED76C5D4F
:10100000BAF12F814C021815F3BFE41D867E2987A3
:10101000878C1E0C69F35503CA8C3013A1AB06DE16
:1010200002BFEAF5D41D12F37F51599E9DF140DBBA
:1010300065EB1DF641A7DDE6AD940E4AD9F6F2E167
:10104000F5E33931E926E5AEB9B58154A7CD08BA43
:101050002DCAFA3009E5E1CF96E62FA8588294C34D
:101060005DDB190A28431E8E96B9D74A26A10E7554
:10107000C8BA6B06DEBA9EE8CABFA4BED734C15F49
:10108000E00ED9FAD2BAD3EDCFE7EB1B4ADCC42C81
:1010900042E045811B3250C9212BF015F1DFCE21F2
:1010A000E161D6DA08FE121440191B3FE2FAEB1791
:1010B0001CCC901FF13316B6404C71CC81ECE13260
:1010C000E626C4197F011DC32532CDEFE39CE90359
:1010D000C1EFC6EBD30DB8064BDFD618F89ED1F999
:1010E0003EFF83E03F0928EEEAF934813FF4D9114D
:1010F000B913DFB427FEED405E162582E9E1CF305B
:10110000F49FA4163614D9C6CFFBDBDC0935F7F8FB
:10111000F0DD4B480609790CEC3F1E168DEA222EB5
:10112000814DB424242CE14C27D44BDF3B177B1199
:10113000E8F8CA0FE00D24D21E3F1DF913CD2EF89A
:10114000141B28FEF21617F546F33DE638ADE01500
:101150002EA58119494200D32FF3CEF612D20C23CB
:10116000E9FA7FE50667734E0811E94A58E795ECFE
:1011700028A5A017CE2A412A0DF03CEA283912E012
:1011800014CD12DEB553FA3F1EEEA40CD5A3F381A5
:101190000D0ED4B1E7F3F9CE03E4FF17DD10EDFC3B
:1011A000DD3C10CAF4F2EF14D725CD31EEB5114273
:1011B00013F40F0BC681F57EA7E2D553BDD8200FDF
:1011C0002A28156DF70FFAB5372321FBCFEEF4016E
:1011D000F72B271DE4D21E41253117F6E209FD1336
:1011E0004281A9AC4D1ED271EB0E33072E8AD52059
:1011F0006740133524FF4AEBC53210D0001291C16D
:1012000023092FB0FFC32210CB187E790C3F20FE9C
:10121000C9532B8CE8EE2BF90F5C444C071828A916
:10122000B096B25DE1DE7FA1DEDC2E11001CF9E399
:1012300010EEE12602D234F50C55EFEA140FFC1B38
:10124000FF11C5DA46D9FDCCE28E07F38116410BBA
:10125000D5A8462C90DAE4CF32DC27E6C2B8D2B863
:10126000E681F008FD5A5C6635D9D0B37921532365
:101270003C3E2E18F0E4F5FA7F2CA80124022AD077
:10128000F5D0CCFF171E4F123B67E10E11FDE7A80A
:10129000F71E2832ED2CD647EED2F91F52345E3AB3
:1012A00056E5C4F4DEF62FFB81C63149543BEF31DD
:1012B00025EA1511374004EAF41127265FEC7DA6D4
:1012C00022DBF8DF28E70FD5291F4A1CED0D170395
:1012D000E1F321ACCED09B02284CB7173ECB2A9B22
:1012E000A870F700CA5FAC7F4E74F83468CBCBDED1
:1012F000CA28CDE5D8250121EBC7CDC0204AF73259
:101300003515EB181ED104F047122E0311FF24B837
:101310001BFDBFD07F18DCF203E881520A3E141493
:101320009FC0BEF074FDF8900A15ADFFC379574910
:10133000A1C22AC844F010D197F3FCD710C29F3342
:10134000D9CF439763C9CCC63D592EA48211DBFF88
:10135000579DDF1A3FB2ED37F60401E504FE9E2AE1
:101360001EEC03D73A587FFF49C53F39E8EB2B0500
:1013700019FB2D3942DA62DA7FEDBDB2F4F444D2C2
:101380001CF10D051FD20A9AC3A811D1C4EFB82FC2
:10139000E9BFD2FEEE13C008E9A319C73E01DE5D26
:1013A000669B432A53FEFD013F0F1510CA027FD8EA
:1013B000CF4CAA0DF9BA2FFAF7C5CDCAE31A5122BC
:1013C0007F6605EC199B6A08C1CEE9A44ED90925B0
:1013D000D5D70332D4D2CDFB5CD149B6023A159BA6
:1013E000372BC6C9E65006C5FFDECC5BAAF1ED7F00
:1013F0001A4CD54CDE780EE9BFE92BE11637FDCC4F
:1014000016DB16E4A41F22F64DEF8166FFE702F318
:101410001498C2C049E4FDE2BA64D09A0868E02C8E
:101420003726DDF7F3CB04E42C0929CFD32A23F5A3
:101430001C2AC64783F6BB40F2E41F8117E3055719
:10144000C94D62D20FFD301945E0EFE0A5281FDF3E
:1014500051B5FD10D5C2CEDCE35112E1400D1E1096
:101460003438324DE7EBF4C4D5E61D20E10A4BB227
:1014700011D0FBF8C568222E3EC3A97FCFE4FC2122
:101480000BF027DE1C2D221C4219EC5A17120CBC43
:1014900017FCDE18E9FB490F37E5B1057FB618B731
:1014A000FEC01DB2316EFBF6144D3ED02115790DF4
:1014B000DA7C2D18D4EFE4B98D198142B01ACA3202
:1014C0002FCA27CEF208F70E3AE02F0D1CC9FA2CCE
:1014D0002DFEAEDA1ED1F3BFD63725DC1CEE632F0E
:1014E000CA0BBBE2123D481C5E0B0616C9281EF84B
:1014F0003A4824E07FB98C53612BFDC8D0EAA13073
:101500000EE3F47FEF3D29161023C4F2DA3BDC37FB
:10151000EFBEBAF123D6598D2FF93CC0B9433C3EFA
:10152000CFD6D7CBD0E1F6791640F632FDB4A24B38
:10153000DF1E6AA029D9186817A8F896E9E40422E2
:10154000D90CD10130CFFC7FD0C6C059B6DAB94E24
:101550000124AA33C10EEFB47EBF1D59DF06D4C7E4
:10156000D57F3D07A3EC1744A10570350256471EF1
:1015700022130EBA51DC2B10DCDE75A63B2FCF15E3
:101580000EEFC92334FDCD2D48B16C3A5B1E7D6949
:101590002D732DB5266381EB1BF408E1F524FF3292
:1015A000D02F6FB03513B04E8E235815EF00F105D4
:1015B000C1D7814900E6EFCD000F0FCADA57DE062A
:1015C000F281FBBF1301B0CB2A12ECCEFFE9E3415D
:1015D00057BB143B10EBE508FBFD15EF0B10FB169A
:1015E000F0000BF004094402E6FB14DB0ECA4400D1
:1015F000C137F39EBCC0C102F232D660C87FCD585D
:10160000110D1C0D1F1E5F2FF19DC935FD0A1828F5
:1016100034D57F54AB19F2122237E9F105B6B0F791
:10162000D50203F4B7FA152F260524AC191BFA16B8
:1016300006B0FC20D30425F63AED0827AF1D374845
:1016400012EDF25644002AA51D062B1A019D7FC5F6
:10165000380DD5CDC9E0C322D1CD0FD1DD2CF93263
:10166000FDBE9F34FCE07F2E190002F6E797402D67
:10167000D6FC0AE03BEB2B0EF4C72D36E92218F618
:10168000C60C0E021DF61ADE102EBA065A2222D001
:10169000F8262F0CEED125121CFD1453F07FF521F6
:1016A000361427C6F027FEE42BD4EF13EC271F26B1
:1016B000F4F82BD2E2F0D1B2DBB1082F8113A911DB
:1016C0002D17FC9A0AAA29A6E51BF31BD4D9CBF83F
:1016D000FBFF180802271113EF070000B3010000F9
:1016E00017020000CE0A0000E70300003FE4FFFFFE
:1016F000D3E9FFFFD3EFFFFFDCF5FFFF541100003C
:10170000FC1300006B02000015F4FFFF390B000012
:1017100099EBFFFF3AFBFFFF4DE9FFFF78E6FFFF84
:1017200057E8FFFF35FAFFFF52E3FFFFEDF8FFFF39
:101730006F090000AD0B0000B3EBFFFF48F4FFFFA3
:10174000DF040000A4DBFFFF3D030000C7F8FFFF3C
:1017500068EAFFFFE7030000EB0E000006F5FFFF5D
:101760001BF7FFFFB6FAFFFF23FCFFFF5305000046
:1017700088ECFFFFEDE7FFFFC0F1FFFF30FDFFFF4B
:101780000D0400000606000029F3FFFF2CEDFFFF0B
:10179000A6090000BFF6FFFF02FCFFFF7701000073
:1017A000E8F7FFFF0E0E0000ADFFFFFF40F2FFFF66
:1017B000BCE4FFFF2E0B00007CFEFFFFE5F9FFFFFE
:1017C000AE3F0000E2F4FFFF99F9FFFFEAFCFFFFE4
:1017D000B509000060160000F7F8FFFFA203000043
:1017E000CB010000F8F1FFFF6FF6FFFF97FDFFFF51
:1017F000C2F6FFFF7DF2FFFFE716000037EFFFFFA5
:10180000E0D3FFFF7714000029CFFFFF91FEFFFF19
:1018100027FBFFFF6DE6FFFF2B0B0000E7F4FFFF48
:101820005FFEFFFFBA19000064E9FFFF17F7FFFF33
:10183000CCD1FFFF9AFAFFFFDA0800006F0D00001D
:10184000F9E3FFFF43FCFFFF18F4FFFF6AEDFFFF22
:1018500090F9FFFFEEE9FFFF6EE9FFFF231600009E
:1018600003F9FFFFB30D0000CAECFFFF9FFCFFFF71
:1018700024E8FFFF93EBFFFFC3F5FFFFD7FFFFFF58
:10188000570B000080000000F2EDFFFFCF050000C5
:1018900091FCFFFFCBFEFFFFFAF2FFFF160F0000E7
:1018A0004CFEFFFFCB160000FC1D000063F8FFFF9D
:1018B00088E6FFFFC8FAFFFFF907000084FFFFFF7B
:1018C0008AEDFFFF190700007AEDFFFFD7E6FFFF63
:1018D000A1F8FFFF3FE0FFFF06C96ECA536CB717C0
:1018E000F1ED0D4FD05E0C7F127FD77F7F7F21B04F
:1018F000F41C818107814B160681DE7F81E87F81A0
:101900007FD8A3FCB0D5477FD690257F1000E10C8F
:10191000607F7F0B18F5812D413881487FBF810E94
:1019200053D66701C5930F81EDE632282807C37FA0
:1019300046BC8A7F81BE81595C7F8D2BC40EBE81DF
:101940007F81817F7F817F71817F7F16D7269D7107
:10195000328B81E97F1DE95FE93CB781332B41017F
:1019600041810B192B76FF2CD444662260E8C8C550
:101970001749CBAA03A57FC91B8F2D7CBE386A8768
:10198000E367947FCA815272280D1731B8F3BA32D7
:101990004F7269ED7FAAC4447FD7D2DFDF55957FB0
:1019A0007E7C303BA5AAC8B562D04303F881B271F2
:1019B000E3028147C048C8E10957844B441FBFD6A2
:1019C00072FCBB5F1CAB08FF9E095DFF86D2B87C32
:1019D0000095FF7F37D1D025D50BBCA8E7C07F7F0E
:1019E0007F36D97F7F7F53E3A1D77FD841B1DDFC1C
:1019F000010AF6C023F52D040C96E2450A4DFDEED2
:101A0000A87FA442EFBE390D347342DF81BD28FCAC
:101A10007F1CF1CD5481DC142C3808819B58E618CA
:101A20002D7FC7DFA90B9E407FA046ADC6972E57DE
:101A30001E0FE40CD0F5AD81F41798E152313AA0B5
:101A40006350CCE8F234E181A0C46033D7B0F02D0C
:101A50008A011765A7C54437B2811258F15217772A
:101A60005578114935077FC781AE28DB1BC91E7128
:101A7000C7ED30E74707F747B3889C4D2BFF3B5432
:101A8000DE0C2A484836AFE8CC727FAAB49139E020
:101A900068DFAA274EB3F78D6458F286BE7F09B57A
:101AA000D8509B81814C81357C9CD7B5AB15720594
:101AB0005F33E09CF781E412B9C0A0817F5D7FD6DF
:101AC000AF3CD796F954C7B7D4D45AF529B87F1C80
:101AD000814E282AA1B2616781847F4A7F7F1515D4
:101AE000E9417FFCBBE867BAE3ADE51522E37F7F00
:101AF0008181E99D7F2BF77F819081C33B812E7A85
:101B000048CE7F347F1A81BE817F56C005817F8198
:101B10001DE48D7F45DD3381627FE1F22B3735A1F6
:101B2000817881A6CD7FC4191B81818181477F99EE
:101B30007F7F079B2FA40E0C81EA818BAB7F5CAE6D
:101B4000B81419ABF45B308C17B2F3817F814881F4
:101B5000DA7F641829817F7F000000000000000008
:101B60000000000000000000000000000000000075
:101B70000000000000000000000000000000000065
:101B80000000000000000000000000000000000055
:101B90000000000000000000000000000000000045
:101BA0000000000000000000000000000000000035
:101BB0000000000000000000000000000000000025
:101BC0000000000000000000000000000000000015
:101BD0000000000000000000000000000000000005
:101BE00000000000000000000000000000000000F5
:101BF00000000000000000000000000000000000E5
:101C000000000000000000000000000000000000D4
:101C100000000000000000000000000000000000C4
:101C200000000000000000000000000000000000B4
:101C300000000000000000000000000000000000A4
:101C40000000000000000000000000000000000094
:101C50000000000000000000000000000000000084
:101C60000000000000000000000000000000000074
:101C70000000000000000000000000000000000064
:101C80000000000000000000000000000000000054
:101C90000000000000000000000000000000000044
:101CA0000000000000000000000000000000000034
:101CB0000000000000000000000000000000000024
:101CC0000000000000000000000000000000000014
:101CD0000000000000000000000000000000000004
:101CE00000000000000000000000000000000000F4
:101CF00000000000000000000000000000000000E4
:101D000000000000000000000000000000000000D3
:101D100000000000000000000000000000000000C3
:101D200000000000000000000000000000000000B3
:101D300000000000000000000000000000000000A3
:101D40000000000000000000000000000000000093
:101D50000000000000000000D510D4F02E0EB1CB22
:101D6000F413342E030B27FF2737030EEBEFE52385
:101D7000F528032CE3E0FE42114C1001E52AFFF4A4
:101D8000C405F2AC2E1B210E24B7158C475250EB24
:101D9000A837E5282AF8491C43C9BE47FD59002841
:101DA0001B04130307EE32CCE50EEB7F01390B2346
:101DB00023F91E4C09E10BFEF22F190829DB351D12
:101DC0000A8EFC3C0233D1FEB80850EAD92FD61255
:101DD00071CBD229D4F29A144B71421532FEDBFC3E
:101DE00012D7FCCA00E20BD31143F3DC192BF9081C
:101DF0000B98040AE8200AEC1DF521380CC67F2058
:101E00005341F8F2E3C60B3D56F716E8E4CDF11D59
:101E10001CE3D9BB09D83ADA08F743F948BC214199
:101E20000CB705220911005602341430D933E1EA07
:101E3000F6E4F6E8F60234E2E42A1DEB1A06CCCA10
:101E400000ADF9062F2F041A2BE5D905DEFAF900AB
:101E5000C9B525DAA704F2E2ECCBD71640B62A03BF
:101E6000FFD8CB3A171BCC141A05FDF2FE13C43B66
:101E70003C25F9CDD4D2B5D4335D9A933103F2C564
:101E8000F1F1252726221DDCE1180912FEEB32E8CC
:101E9000341E2810BB0F15F1CDCD06630115F0E5FA
:101EA00013CAC7DFDF32541004640D031A03FBADFD
:101EB000F9E9C0ED0514203BFF17E11CB981D843B7
:101EC0002207FA42E5EB0415F11523F3DF2FFEEBB1
:101ED00005F211D03E42D5D81BD1161639D7EFFEE8
:101EE000152B550C0F32E6023911E5E10F30E500F4
:101EF000002E132FE9EDCE00C33CFDD902D7137796
:101F0000F3D5F1F8A521AC18F7C4FBC9DE00011028
:101F1000D92C0E1C211D06F1FBB1F17F0E40FA39C0
:101F2000C4FE210133001BE1184D4040182534C880
:101F300035CD0A054204454BFE0DD706C20E310FC2
:101F400006B6C348130503EA01FA0F1A1134CD3D52
:101F5000221D1100051B0F090E21E3FD1F1CC5B634
:101F600013F623FD2914C2E7E6DE9A1A98F3E5C0BA
:101F7000D30D500EC802FC011E5120CF15AE342BDC
:101F8000FB13EB99F8FB0A1C121604FA7F2728CFE3
:101F9000F046310C02265ADACE266409E2F5C51B5A
:101FA00036040AFC1F08E3FCB81EDF77F6DEE612F3
:101FB000DEE4C5569FBF53ECED4BF7DE36B90602A3
:101FC00029EA591E5C56C994D2091E404CF3F8F612
:101FD00078FADA5108E2FA2D31F1F322EBE71B1718
:101FE00040EA07E942E8DFF6CB27750FB9D7D0E919
:101FF000DDC4CB07320D34F0A6102227F516DEE43F
:10200000E726E161EE057B57C8A6B2F62048EAED67
:10201000B5F0BD17C8DB54B730FBFED80B28EAE497
:1020200081DD08599D98B94506B3A01904E9110A44
:10203000DFB6CBFFE610CAD0D4114DD743E51EE47E
:102040000C3F23F300C93730E02F045846BFF1217D
:10205000394EA5E7B6D3660E0218DFBBEAAF0E44D1
:10206000FCF418E6EDEDE6175F0794181930EC3C28
:10207000EF24EC41E30CDAD8E620F7E9E837FB1966
:10208000D6E3EA14CD43F111E4FB2EB6FA353CF960
:10209000FEFCE6FDD505BFE6DAD6207FF830BF1F8F
:1020A000CF0FD7103B001E00EB633CE2E80CEDDCE9
:1020B0000106F2F03A0C307A14B338D6BAB7EC3BDA
:1020C0002F0EEA6115F9E8FEDBF010D3A61FC0025F
:1020D0001FFEDC1C130BFF2F08FA19E0374A20CC37
:1020E0000710DCBBEDFDAC1AD013DDFBDAF5D40232
:1020F000F4063AEBB8F0080742161EF11ADF41CB9E
:10210000EBFCF3B210F7D5FC02F619C151051B40E8
:10211000F5FAF116DE7E56C8FEFF11DE0A10F4E86D
:1021200022E6E600BE322F0BA21A1449E2DE19277E
:10213000A5D4D8FAC8EF7601E30C14D2F7F2091847
:10214000BCDE7F4D361CF501C30D102D3ADC3FE19E
:10215000250CE6F21ECBF511B3EC551B1AEDAE299A
:102160004E3BFF01D628EA3A595B8C17D52E2B0738
:102170000136DE47B4BFCADFE6D34521E965DC3D61
:102180000DD29D2F16ECAA1E6CEF02DAE24414BFAA
:10219000C2F1FDCFEA17EF1AE4AD4F461D3503E259
:1021A000DDE61E2FFCEC2B2124673BDA35BE0EAAA0
:1021B0006E10E8DEFD0C054E230C210D97C3433550
:1021C000F63244C6691DDEC21B7FFC36FB69BB15B7
:1021D00052C109CDB701EB0C0A0A050DF7091F170B
:1021E000A9DAE004DCCBA24D2CE9B90306C33E0614
:1021F00049DC296C0541CB3506D71329CF3EB9DD23
:10220000DF1CFA1C1ED6F5ED30700CCAD452E10763
:1022100008D3DA19103E34F53170E0D41921D940D1
:1022200081EE06E748E2304E1BAD0F1CEF0311F7BD
:1022300082D4E429BC180C0BCEFE2AFDE71DDDEF8D
:10224000471E36DFF3D9E80FE7F8092EE2E108224E
:10225000411BFB88D8D306023CDDD5F12AE909D71A
:10226000BFF905F9040EE89BF0FDD74608F2EF032D
:1022700017A5F041D9F0241503DC19DD1A38F87FD1
:10228000AC9404DDE2F146AF01E4F1E73FF7C6F4B8
:1022900011EE19F5E43EF5EA0FF9F42BE0E81EDA49
:1022A000192C39DA0B17D6F11416E60C0DADF48C97
:1022B000E8C5ECECFBCAFC1BAA1BEEC6EB25F9DA61
:1022C000D6DACEA3053C03C2C53EA90DE72CC4FB5C
:1022D000E9F4040907FF1ACFFE7F10FCFE021EC9B5
:1022E000E027E9F9D52C2803FD2C0AC70D1F04EBC4
:1022F00019BD0901F6E018B4F03106FB37F63A00D3
:102300002607012CDAE00DFA40CE05E2EAEC22477E
:10231000FAF029C9F901E151FD20EABE19F7352F7C
:10232000FF03FA1BF02C3714F8300CF9F43E17F7C2
:10233000FCB627EDF5E7E2E8E8E827DB01F301D397
:10234000DFFDF9C4FC2B39EC0014EDD0EF16FA1CBC
:1023500023FE1EE0CEFAFD14191BEF0D81DA325C6C
:1023600044FFFBE748E43E33B824D603F1EEE1FB3B
:10237000E3B9DCFE21C707046AD01315B116342671
:10238000BCEB10D4F9D22C28B0F4D6F86EA2EA9D9A
:1023900002CCF6441ED7E21B5AEFC5EAFEC93D74D3
:1023A0000F0E30B5ADC1FD3AECC0D321E62A04359D
:1023B000586DD73A36D90720E0D7B953D7E4B50BD3
:1023C000EF2C00B38D06E60F67470E18D4DEF51923
:1023D0000441E6F037FA03903000C0FA06E9F51739
:1023E0000214D63A1DBCE3270E4B1B1B06E32CF34D
:1023F000471CCD46012413E5F8CBE77FC902DBBDBE
:10240000AA0F02BAD2F9EFFBE7DC5F060E5B2C0ADB
:102410001319E406F860FF24EB142B03054430196C
:102420003413F6D3EC19E7CCA562F729230D3A183B
:10243000C2354BFE1BFEEE29F1F54F084EA8A8E36E
:10244000231ED13421E9D93D413BEF5128CACA08A6
:102450003ED0E6F20EC4F4E5CD261F2ECCDC95E589
:102460002E1604D22C003BCD40FDD0D3BC074A36FB
:10247000130E293E1D32F6EF29DFEE2DFF15F4E293
:1024800098164EFD01200A71F8F62A40001540A961
:10249000C6F603E4EE29D6C2E4F443F2CB0EDEFF27
:1024A000483118C97F4708E7EBE9211B11DA30767C
:1024B000CBFE55E5288E3C4319F6DFEE31E508E604
:1024C00022E73CF7186600CB42E1C4091AFDCA2A8C
:1024D0000B18E91FD1F7C906F4D7D533F72ADFE087
:1024E0003310E212231601FC3CBFE0191AE3BB2FA4
:1024F000CD1435DC2A3BD83CCF46DDCB2CF632BFA1
:10250000D9DBDCEC3C2EC5180E1835E85A1F2A1111
:102510001023D2CBF51E23CFD8D2EF1F0943EDDC19
:102520002C24FF0EDD3C0A20AF42CE1908EF0B3001
:10253000F31D0330FA391AE0011FF8F2E7CD120556
:10254000BAB01B46E1D298DCE1E331D836E5D82FAA
:102550007F83E03FF5151016175A1B3A36113AC320
:10256000EB3BDFAD92DB3AF2BA0104AD0E1B1DD995
:10257000DFC91E06D1D8029ED84C57F566D4350D5A
:10258000242A16F31FCBE10A04D70BED3AD4D93F26
:102590000E220AC80925151EBCD6C8D743EF013C38
:1025A000FDBBF748001CFD40EF0938DE1C55A01BA1
:1025B0007FFFE70AEEB7FED13B25C2FF260B15FAD7
:1025C00021CBF92B301E480E113EACB168016FB81B
:1025D00005C1FD1987292DD523030119C3DDFFE4AA
:1025E000C2C7ED170CE8E526D1EBFEFBBCFE2117B8
:1025F0002FE0FA12E2FE4D4D232260CAE3B422D846
:10260000DC25DDF92E09F31604E8E6DA462AF60C95
:102610000383C739D8746DCB30570DDA28E2F4C97B
:10262000D930E0CCB656EE24D92F0572C9C715248F
:10263000C503FE01AB2A0FF00EAD40CF44AEFA63E6
:10264000D4FC7F115701F81DCB33E62BF2A4ECA488
:102650003F22DFFC1BDC210E3AEBD5A1EC0340DB73
:10266000A69FF2A1DA0FF00FFE1901EE4B1AECBA99
:102670003AE1EDD52123E012111C0CEEF6FD03F03A
:10268000D3DCACCFDFDCD1DB3E570E082E1210D9E5
:1026900002F681E54E264CF7392501E4B7F615CD53
:1026A0009997DBE72AC3BB2BAAD1BF0FEB4E33F3BD
:1026B000213EDA31FF1222F3EC0B0B3005B028F18A
:1026C00026E6DF1BFE9BE3FCBD1CE90CB4B2FA1A44
:1026D00012F93CB73307E4D21ACC89C0840BDAB8BC
:1026E00012CE9DA7F843FD5BFBFE0546F01C2C17A0
:1026F0005CD8FCF6F4F5D70616FB3D2E0F43F949DE
:102700009EAC020AD4EC37E0E62CF4EA22D5D4E3FE
:102710000838001BF9220817F23BCA2A9FDBECFDA0
:10272000EEF957D3D081D1B30CFC9BEE11D9FAB797
:1027300010DFFFF4F216FE6EEE0A085FD1F7BFFE5F
:10274000D8FFD4CAC4D306F4253ED07F00FFE1F8F9
:102750000EE6EF124718B4D52D1C01520018D1F324
:10276000A049EEF7D30353B7E414E0EEC427EB29F6
:10277000E31D57EB9C1520C317F4F33028FEB1DBA3
:102780000CEB561DF504C72EF005141D08E10C00D6
:10279000F992EEE0ECDD2E1CBAE018F418FBF9011A
:1027A00009DA4E340B122015F9F7FE1C0DF7170944
:1027B0001A17050B8111FAE45EB509C719D7D7239B
:1027C000C8E61A1D3D043D081AFEB1EFF8E82ED305
:1027D0001BE2ED10F115222B21F10CE09F1FDAEA2C
:1027E00006B3E3F20FFDD00EE4CCBE0815271B1D87
:1027F000F1DFF5E42508CE04EAC6F4F5D4EC1F06B3
:10280000F7FD1AF702BE448F11A64248550FE83D66
:10281000C80BF309FCE5E7D7DE2F03BEBEF253E396
:10282000CBFB81EC2C3849352219DA21F426159995
:1028300030EB19E1C522C83F3BF123173AD8B7CE98
:10284000F10919CB05ED92B5E0125201BF9C330995
:10285000ED13DF21CDDD2ACC0F08221FFD0BD61191
:1028600092AEECE6DFBB0CB707F9C5C8F4EF0AADD2
:102870001135EF190B1506D91123098136CB110635
:1028800005263EB1F0EEBDF4F32E172C221CCCF73A
:10289000C7E7220AD62F160AF8F34DD4DEAF2CEE86
:1028A000153FD6361815352CC4E404FA15C3B12BE0
:1028B0001517CE15B6F7220306B715FCFEC9091881
:1028C0002A2352DB4E1D15FEC70CD1FF0AFC11C096
:1028D00029E5C913F601103A061D2DE717EDD104BD
:1028E00012362BF7FAC8E404650502CEF303FFDDC8
:1028F0000EF502FAEDE8EE0ED046D9F1190ADE091E
:1029000021020AE8F7070B2F0829ABF6DF2A12FF8E
:10291000DDE70FDCFCF9210A0C0E377F1806F3FB0C
:102920000AA643DEE4C8E9D2CF2FDBD53FCCFA229A
:1029300003100EEA35F8F81A26DB2AD4B0DDF8ECDD
:10294000D30814E114143627D411C427151404ED48
:10295000224E122016FFE7FEF42F0A3FD6EBC1E508
:10296000D4DBEDC0DAD0E0EC06FA04DAD7EFC71317
:102970004EC5E61BF6F201D340FFF838FA0627EF02
:102980002F0220C2DDE4CE384FFDD0EF0915F12E25
:1029900048BBEB813CFFFD00FBD82D0748E2121D30
:1029A000DAE61F54F5F51FF6E01F362FE6F6040DA4
:1029B000E6033DE31620F79F00D3E8105A091EF7FF
:1029C000D5E9E50CE2F1BFD6CFC8DD17D3FBCED4F5
:1029D000D2D701F121FCE0B50A21413114DEF7DF45
:1029E000A626F121DAFB96B7063462CDD302DCE9E4
:1029F0001023FF0BECEE4DCA2DFAEEA0DDB71F142D
:102A00001A1CD4EAE8E8FC286EC00CE5BC173407B1
:102A10000D16C38FE8C269DF8A08233032DC2A0D25
:102A2000D0DC475D030833FAFF7F244E29DE101106
:102A3000C93AFEE0EBFC32BADEFECEF7330264D1D7
:102A4000B0E4F8140CE4F837F8E6FDD318CF1E18FC
:102A5000080EF1E7014DB2E513DFECBDC951FDF3FE
:102A600005243CFD0C0ACA0A05035C2F7FD4C7303D
:102A7000EAF2DB824830BE370D34FEA5431B45FC2D
:102A8000F8E3F814F840D8F3162CF5F91CF550E3E8
:102A9000A8260FF12A1098CD32EFA7ADEE3539EA0E
:102AA0006D00E2033AFEC640D00FE0DF1CEA63FE91
:102AB0002942EBE1D2CFA5D4D9E369CCF428B7D031
:102AC000F218831820DE14F3E55338CC19AA28FC39
:102AD0001A1450341D0C193A1EB544BCDCF9F22E00
:102AE000EC3F0D2DE22010F5A91623EAFE1EEB1F88
:102AF0001F26042DDFD4EFE6C8031F6638C9ABE6F6
:102B0000633EF431B931CF53F7DEFAC9D746D2E983
:102B1000DB1A3D19DDFB3443FDC210380B2DDFF30A
:102B20001F29FB330EE807BE1DFB2DC92FCAE8C7BE
:102B30000328009147DF13D4360C4AECC5F6FBD5C9
:102B4000D448437F51CAB7ECCD4FFB18116FA81E74
:102B50000903E9D9C6D902313D330A02F3F1500A1B
:102B6000CBD2D2C7FABC02FF2ED207FD3419E999A5
:102B70004B05E6F4EF0136BCEEF1DFDD1DFC1BC8B2
:102B800041391F3808EDECBAF831ED49D0FAA2FE10
:102B9000F4C020FEA6F910381219C8EBE9F128C7D5
:102BA00025D6E802F426C7082CD1FFEE091AD9ACC5
:102BB000F7F0E1E9AA350EFD1F2A3DE10C1BE829DB
:102BC000F12704F515C21FE717D607E5D11101C695
:102BD000C47F4EF505701401D5C9DE28B3EED64882
:102BE0009C430DFBEEF048D81C6918A9155A2E130A
:102BF0000421F108FCAA280DB025C10053EFDCF335
:102C0000EF23D80A01E3A13AE5F305AC082337FD29
:102C1000163A29E724B732C9FCF4D9BC7F1D9FCAF4
:102C2000D40639CC470F609403B87EEC0648E21412
:102C3000EF1C03D103D73FE45DF52FD3D3DDE5755A
:102C40009D0046442AF0E42814F02017461B010E8C
:102C5000E9CD0A401963F711170FCCE4F1F33B06F5
:102C60000FE11D0AFD091E09F1DBD838F61CD4D688
:102C7000FEF901F825BD04E718F2BB2205D7D30001
:102C8000C5E3420E43FA1B19D5D8217FDF1BFC0296
:102C9000F9EB382318C8C903D5C9E3F106F60D09C5
:102CA0001422DE352912ED20FDBA06E2CAF7F1D56D
:102CB00041FB22062005AFF6EEED31282821D51C78
:102CC00008F227F8D7E41D4814E72FF6CA0812A720
:102CD000EC321102DF171E2D1D10D0E2C12315CCDE
:102CE0001AE9CDF64CD3F8D7D1D6E9F833BFF3BA09
:102CF000EA1DF8DAFAB2E7F6190ED1A15FD3F5E5CD
:102D000024F819392901DE4DC62355153BF7ADFAD4
:102D100025EDFB002F1D13BEDBE81A10EFC6C6170A
:102D2000FC321307056CC5528138CD06ECFE0C242D
:102D3000250CDB3AFBD25B142FD4B629BAC2262469
:102D4000CDE5235B562EE1F91ED9C5D3F41C17FD42
:102D50001803001BF10AEF0F47550A07F11FDDCFDB
:102D6000DF0881B2E813F3090F1D0EF7FA1F9DF972
:102D700020D3BBF3CAE8F4B208DD170EE2F7F43053
:102D8000270B4AE4F6F134DA28EF06FDE400E62CDE
:102D9000F0EC179702FCF135032BF3FB35BB130066
:102DA00018FAF747F8EF16ED0508FDF6E707EBEE22
:102DB000B9EC1107F546210FE312093AEE07BB0BF8
:102DC0001A02F7ECE1CEF623ED04FD03C7F701D2BA
:102DD000240BF13BD4FFE1CCF0DE0FE7B72BC50F9E
:102DE00089BD05C5D4F6F9F5EC641296065B922808
:102DF000FA68516F1E06C43B0018183C2CEB25CC1A
:102E0000DB313E07F4E3A3D4DA23E82910D2BDDE98
:102E1000F55BE1DE3EDC6731FB2143F1E5F8820141
:102E2000C4A3F9FF57DDACF5ACDE2FF91A1E260955
:102E3000EA0CC5360E1D200E622545F8FFD1F0378D
:102E4000A4EEF80DBE1EB02CFB202CF632D322EEE1
:102E5000DFEAF904167FEA00577FAB3D052A1A1016
:102E6000CE1AFF02A61011EFFDDC0FE40BDD0D29D9
:102E70001B71E405F916E319E71EFFB25A0FFF13A1
:102E800015C0E218BED8D81C13F6C8F715C3051331
:102E9000FF112503FD0D5614D8CBCBE747F3D4081B
:102EA0003FE71AF201E1E5265CD8BDE53649F4EECC
:102EB000FCB91C41EAE5E2F44429FD07FE32F8C4FE
:102EC000EE1DE97FF235FC3FF514BC23212B2820B1
:102ED000BDDFD414FD59E7ECF1F790382B15D65B24
:102EE000FB34E52F2585D93CBECD7146F0AF44CCEF
:102EF000E65453463F3AFF35BEDF02E6C136EAE408
:102F00003EE6EE6B4BE536B5362D81DDD60FB2E6EB
:102F10001BF2DF9BA7CD34FC0C38153E3913AC4AAD
:102F20009DC078B7C7F707F9C7DB142CDA41D9166B
:102F3000FDB22E30560F5C923749C5EAC84F21D4F6
:102F40001924B307BA2B193D3BDD991DF2D114DECC
:102F5000D8542816D9F74A234EF5310D09F3F52533
:102F6000C2DD27F3A0A8B2E6F61DE20713CEFE9855
:102F7000B742E2F606D4F2081A23DF18F1F123D0A3
:102F80001B3A3BFA1D24352AF84B155E0942D2F84C
:102F90002F9AFE0742F6C676DB9BFAFC2CB0475B05
:102FA00002D404C2024DB543BA27E41DE230D8284A
:102FB000E9290A48DA22C40609FD28FDECC51551A5
:102FC0005FDFDB3B4D2C162B03CFE5CE4105329462
:102FD000E1CAE72BC97FACC327D8EAD9E833F8CADE
:102FE000E4A05AF642DCFD10F1F2E02329B942F2E6
:102FF000E6544DE61C5103F941E05E24B1052A096F
:10300000952323FF3DEA1E9DF4BDE64D622E031776
:1030100065D4E421E32901EABED21917D0E46DEBAF
:10302000D4D6B13709F8136638EFC4F5F50107A80F
:1030300035F00EE4CD5CF024B8F11334553522811F
:1030400045F7C2CDBDC73B0F323EDA43D00B124627
:10305000FFFE58FBDBA7C9DF5E2EB1FAC5C7EA1138
:1030600040FFF309E342A501D8F9153955BCF93100
:10307000ABE21EDB260F22EFFFB7181CDD4E2EC180
:10308000A9300E11C9F53448E4D2F71404F0DCCBB2
:10309000DD1902EDE856ECBEB8D28D0ECA59E0F744
:1030A0000B13D70E4DE3B17F0A5007FA48C7D45629
:1030B00019CAFC28CE0BDAFFF0F92AFB042D1AAD51
:1030C000402919BBC0291BB331200BF7BBA2F0323A
:1030D00011E8831F0A4B24F521D7EAE329DDD42721
:1030E00050FA051229180BE0D8FEC867A1E7EE1ABE
:1030F000E7271430D7BA19131B2C18B12CFBFCE7A7
:103100001FECD3A151FBDFED092BF6017F31FFE36B
:1031100058FAF1E9CB411ACF2B1345E44F9BFDF749
:10312000F2F7CFE3D2041AFAE0BFFBE5E3B8DD26FD
:10313000F9CFBF2CFCED2BD9B90AF60CFFBF420C1E
:10314000B5FB2C3F1524C71FEFD2F1312F0933BE39
:103150004EB8DC382DF1E47C04AEF84AFC0B413F5C
:10316000FB2919352C979C06B32A28FBF6E02A0E7A
:1031700014D599209DB13931FFD3F4560EC9E9D742
:103180000E5DEA07E6152F33F404F5AFE0EED40741
:10319000C01FC31435FA620949F034FE0312E93442
:1031A000C4F1E1480519B424FCD27F38381619253A
:1031B000DDA3FD3EAEE720FD0F0107FD2AC747292D
:1031C000F2255017212C2509E6CE5C3F3DBD1D0B95
:1031D000063FA4CFDD0707CAB22ED71E09DFD5F8F8
:1031E0000BF721313F2801333CCC0E211DED244E3D
:1031F000D9F7360F1B37812DF247DBB24AEC1103AA
:10320000C493C2D7F867ECDD08170EDC08653214EA
:10321000EC2812BEEC14F5CFCDFE02590838DC2B99
:10322000ED24EB04071921AC0725F72AE0D03D3443
:10323000100D1706E7241B22E9FAFFDE30BFF071FC
:10324000A5F50326DC0FC5EFE32825503900E93F3B
:1032500052B3DEF61711D4FB1B20DD3BCBE5FA227F
:10326000E2592CF20FEE3C810CE320D91BCFFB1E60
:10327000DED9CFE6D3E8E39EFA041F2AE3EBD1BE02
:10328000B4B2E16BB6FEECC91AD29FB7D0F26D07AB
:10329000BCC60CD304111E0CDA0650E4BE062B2A61
:1032A0000DCDE80C1029FAC9EA4218C3FFCD18BCAD
:1032B000F016EEB618BA4AFADBB3C1EA37FBFFF5EF
:1032C00035DAF917273CC996E005FBC8191C24AE6E
:1032D00006ECE2D8B8FFECE5EF251B232CE908F15A
:1032E000BAF63BF80B0B1FB32134F6F2E02C0E6D4F
:1032F0001AE93967C9D7D8F3EDEBF4DD7AABEDD332
:1033000010FFEEF0FE17D1CEF0C9E5B2F5DF0C32BA
:1033100000F80CDD05EF28F209CC1C230AD7FAEBE4
:1033200027294214163FF6ECEA367FCA2313E43A03
:10333000E6E7055A31CA51213224EACCD91BFD23D4
:10334000BBDEE22A210409DCFE49CFD92DDEF3C41D
:10335000E9E199300737FE58152C3509E3F731229A
:10336000D0113BC09608FADCB67ADCCC2528F5D221
:1033700013DDD7F4F7BE20B914180A0EC7FD320AC0
:10338000574060FDB3B5EA4C7CC0FD0DD7E910FC99
:10339000E7E1CCE805D0077FBF000F0708B14EF882
:1033A000C4E0F7DA2ADFE51BF1060FAEE4FD02CC3C
:1033B0003DFE07C218FEEAE0FFC93F022AE0DC003A
:1033C0002BDCCF33ECEB08FB02021DCBD5166B06D2
:1033D000B622F931BB0513F5F9E9AC0FFFF802A0ED
:1033E0005A23C6401D4AF90D16E2B6FEDEF9E64341
:1033F000890F3209F214B218E65C5AE81D48E3F46A
:103400008CD594FB3A6DF6DF05F926CC401B09CC30
:10341000C120E3AA884A50ED12E705400F09C5DF35
:1034200025F3200427B7F4F9D10B19E5EAAF2109F8
:10343000472C0903B7282E60B0391EBDADE4AACCD5
:103440009C115C2DD529CF1ACAD00008ED36AC01ED
:103450007F8B1ADE0AF2E718DF13A1E1F3C6C3F986
:10346000230619283132EA2B0293DA3423E619D1E4
:10347000C4DED6DB25EF1F0FF52A03F4191FB8ECC5
:10348000CA0BF509EC01DADCE709E82547F735F462
:103490003F101E181EFCE82AF31EEBC9DFF02FBFF9
:1034A0000A0BB6C646260B35EFAD02FA9BD5E0AD4A
:1034B0009D2346FD7F0AE4ECE5F6053240F0FCF37F
:1034C000B6E5E8DBDD2CE3C0EEE74C00F201DE0FF1
:1034D000D5105B2AEBEA5CA54E220B32E7F2FBE546
:1034E000ECCAEF0601ABE62BCA09BE091225D5AC22
:1034F000FAF0DDE1DFD71605F305190308E327C469
:10350000F3F6D0D2E3E2150C1033F120380418F7AB
:103510000900CC0615773B2113280FE729F5080B86
:1035200018F2E324F414B827E504262CE716220049
:10353000E8D4BB1781103018FAC0F1FD26C9120972
:10354000EBE72E2D01BEE6E8C20EC1EFF80507ED50
:1035500035FFB8F1E4C41822404817BFE2DF32F06B
:1035600016FC0E55D6D3C9F81E01D81E3AEF5CF6EC
:10357000E7E6D11E8FE92A031CD9C4FA4178171A4D
:10358000312EBF4717FF921F42F301DC2EFED5B04C
:10359000F4B4071E3AF9193440DEC9DA0831102FA5
:1035A000DBF6EAFA361A211E54F30D45EB584A723F
:1035B000E650C2D1ECA4FB3BDBF1871A812756EA27
:1035C000E8D9FC1B1D42BDC76FACD3DE04EEF42D61
:1035D0009BD5FE14CD2C14C522239DC31B3D170D76
:1035E000192DD8112B17A5240DDBE20D11C5D429F7
:1035F000542050D4BF36174B134A0CF3EBFCEFD8D2
:10360000C4BC5CFE357FE404DD3DFA1414F29C3D3D
:10361000F6F51DDEF83DEEE3BD412E0FBD35CBA323
:103620003510EAC400090D07234AE1C62BCDD13677
:103630002CE0F0FFFEE019FDEFFE20F9F7F5D823AE
:10364000BD37EF0CF6F6BA22B61515141CCE0DD107
:103650003B44E1466CFA0704BFFF0B03F3F498B454
:10366000C7DFDBE6DBAD1FA4CFF8D6E7C90EF7B4A2
:10367000BD7ED828F03F1EEB0BF21FC9FBFF4BD3DA
:10368000D5381013451A18D9C3051B45E60833D0A1
:103690000381D6FCBF2EF31E0E1E28012A01243101
:1036A00027D421EE35790009EB19E5EE26DEC51E9B
:1036B00018F20938031E2319DCDBFAF334B3E948A6
:1036C000F434E81E597509E514E0E7185E1004E7C4
:1036D000FF22AC14C31511C029533FA8256933FF3D
:1036E00016CADDCB00B8F13DB6F7C5CD3CC2B41863
:1036F00015CBFDF381F5FEE04FE51F411B45FD0CA9
:10370000CB45270FD1244509D258B5093DCFC23347
:10371000050CF02B5D46F61F160B2A07C1011B1185
:10372000BDF5E631BFDE350CDD02DFD72BFEFF37FE
:1037300005F9BBCCB60210D80287F1211912CBB91A
:103740005822CE49FBDBF2030B01172D00B3E00832
:1037500015BF144446EA3BE746FCDAD745CE3FFCAA
:1037600032EBC8FEE80BCF33FB05B9FDE5EFBC2516
:1037700037CFFFDFA9F501F444F5CB38D0EB113694
:10378000FCE110ECE2F81DFBFE3FE222FCC6C9485A
:10379000B1F53CEEF1250D62F2EF1B03FBBF10EC1F
:1037A00023D40C16EEE014EBFAE70502D9FF011A58
:1037B000C6D8F1CB2D1A28F9E4EDFD560B0581EAA8
:1037C0001C191CEF03CCF1F22D441147D838BB2053
:1037D000EA095EE41C02CD1CFCC3CAE0E3B822E0A7
:1037E0002EECE7F20CFDEC35E5D5CA182BBA1FAF6D
:1037F000F8D5EE58E023B43864C70BF3C827DFD7F9
:10380000F935E203362112B1C931F12400F8EAC3D7
:10381000EBF6B81A191A5A310C28DC15CCF819F63F
:10382000C0EA06E400C0C1E3F1D7DDDF5A1ECEF3E3
:103830007122DEF672B134DFE2EC0F40CEBA1CB278
:103840000C08DCE3CF2014177FEDDB0144CCD55905
:10385000FF1CEFD65443F7C3FDF6C9F4FAF9E02C88
:10386000C9110FD6F115F0E3E3DE0B4014E5EECFFE
:103870003FDF3758FB7FA23201B71F0FF3FF02D79C
:10388000F637F0F51D2536C3E507E03B1D2E05F3A1
:10389000CCDCDAFDF934433EECE429FADCC0ED1F60
:1038A0000DB3DECD0E2FFD3FFADEF6EA1A3F16ED20
:1038B00007E2FC0526F94009FE300426121920FD16
:1038C000110C00CCF6F9FC285027D6CFF9F511C120
:1038D000092BE5D30C1CFEFCEFC4F23FF835D5B242
:1038E000DB3F13BBF2E012FB15BD34CA0B1625D427
:1038F000060EDA25E234DF18231352B52B0F181603
:10390000E5C51410405734CA970F1619EAF525ED8E
:10391000E9F3BC44EB17C5B730DBBF101D0508F158
:10392000CDF1F9F6F2BF4DDCC0141BC624FF16FF23
:1039300038FE130403AADF4535E87FE501FFDBFE0F
:10394000E8DACBE408D51A02F31A041CF9BFDDE863
:103950001AECC7143615C7DED4275C034DF3D0AC80
:10396000CEF4A7F20D01FB11E82901FA1628F2DFC7
:1039700028B7D50B102D09F842BF24B8C88A1C4CB3
:1039800029F029EFE9E720F26A2801F72F14F70759
:103990005709FB9C18FB1EEF810725ED53EA24D342
:1039A00009F1E8411A0B303D40F3E8FBFD47DAD757
:1039B000FFB40406FB180FF2D02FD423F2320BE928
:1039C000DB0E0EBDEB02FBF1F2010E08F027E2FA6E
:1039D00022E1E209BE0CF2DC3EDB0EAD11FA3BD86F
:1039E000C9C0EFCBD6E5F304CCEED8392520F6A537
:1039F000C973100DEBF3F15338E95FA2461451FC83
:103A0000EF100FD8CD17029EFA0F15463D0020414A
:103A10000F1B2F2841142E1C370BFBC8EED06D0A4C
:103A2000F40CD5E8FA50052E3CDCB135812BE19A37
:103A3000CDAF17F9C0044EFD07C1C65EFD10C40E20
:103A4000C9BDB8FEDE1B031CFB280A0C0F0D060CBB
:103A500035F63E6D3E11EF2EDBDDDE51040DDCF45C
:103A6000B6FE3422D1FE24E51ABC06090419C8E7C3
:103A700009E20AEA1518F215E228E5C65DDED0E390
:103A80002B179431F12FE0DEC8CD32F50EDEFB1896
:103A900024270DF90FD6DFE8B4DE19B9000039FD8F
:103AA00014E8D3FDD2C2FF60E1F639D70514811FB7
:103AB000011DB64CE5D7CFF30DFEDFF7F9DADCEAEE
:103AC000DEF5BF2426B3FE1F5C0F0DCD23D503ED1D
:103AD00026FC26E3E728ECDC3AD8BDD014FC95B5EB
:103AE000250FEF4A712A0F340E2904DFA3FA58F08C
:103AF000010B645B1CA6A0DDD800EF700709B7E8D6
:103B00008616E6EF2558BF39291D32E1CE690EA68B
:103B1000F40C02E13CFFF6E9E401F4101B2601433A
:103B20005A07DACCDDF323559A040713D8F650640C
:103B3000103120B91CD23DBDF5214900DD15FD3FF6
:103B400081352DD32EE1ABF4C30DFAE53CD7D23647
:103B500040B3D6BC270FC0D9400385B3DE2747CF7B
:103B6000ED81DD95EC25BD1AD520FF112819E1B4B2
:103B700004C6F5FCFAF7EB315C277BD6164D0957E6
:103B8000AEDDF1D2C7F65BF7F71308F55E27EEEE70
:103B9000342CE20B051FFD30E720D3E5BDDC3DF4FE
:103BA000E8C33EAAFDECE501D9EEC04EE8071C9340
:103BB000E7D607F724D6FA42B8DE107DC306E00E3A
:103BC000EDBBAAA2F1A6C50BDF33F74FF720D60B4A
:103BD0000AFAF53152DA00B74106065907E9E4F965
:103BE00043450FE6370B0581AD18F1F81FFA414543
:103BF000F1CD2BCCD70AC109CE094D1338F226B628
:103C000008CBD21517E2401F13C623CF340FDCDFD9
:103C100013EB140C11E2F6C93CF5C7DFF9F80736CF
:103C20002D1B4DF2D721FD1801DA5220F203C56198
:103C300049B7EE19FF1755EB132BC8FA381FFDEAE9
:103C4000ECF70ADEEE4BF2E401FA080D4BE10B0F44
:103C5000BCDAA005EC0A5BF11312DDBEF435158168
:103C600012FE1407DCEBF4D5E625FE0A4EFF3218EF
:103C7000D31900EDF11ECBDDCF070B13100CF607A7
:103C8000E1EFB0C5EC04EBFB0FE617B950EB330BDB
:103C90002C2409FA15602CDFF3FBA124EA40C4357B
:103CA000F70FF110EFEA101FD10F190C1B7216312C
:103CB000FDCAE82C27D8E9041A19E9D5100B12D946
:103CC000E9FF0E41D10908EA0AF80DF1E3FAF753CA
:103CD00034BF090EF6022A112BCF10BF09EFECE218
:103CE000C8CFEEEACE93E60E160522E108C5D0D67F
:103CF0000C17F2E6F72A1AE8E0D70CFF1A05D6DF10
:103D0000F415E2E002D60B2319F608052B7F22E317
:103D1000C2AA05048505400F012315EEF0EE01FB54
:103D2000CCEAEB2AF3E0DA2CCAFBCCEB15C7F51191
:103D3000CF030001032F27E2FBB0491F16ECEFE48D
:103D4000DC1052C60F15FB2AB340EB3D15FF0211E4
:103D50000500ECCDEBDC1DD30CF708ED05131317B4
:103D6000FFF0FF0AF6E0F8FA1D0508001A02C2018A
:103D7000C72308FDCFE21AFD39F3EB141CFDCCFC80
:103D80000D3E0817F0E942F1F20710180B370B133C
:103D9000CE04F3FB03F20DE1FAFF0A0F13D910DE94
:103DA000FAFC06F61F0700E0250A14030CEFDCED11
:103DB0000E1CF0F6F3EF17143FD87F24CDCD0FF093
:103DC000DE2A002805FCFC570D0AF803E716FAEE78
:103DD000F4D413F61F29120C0018EBE144D9022B7E
:103DE000ED8F52BCC4F5E1DD2AD105F6A34A41238B
:103DF0002916C0EC0C0487381893DF0BFF652FCA17
:103E0000E8C9E25F1F0857BEC50816D3E813FAAF2A
:103E100033EA922C320638E2EBC6FDE0AAE41EB784
:103E2000DEBE32AC2B81CBDC101AA11115E7C5E246
:103E30002DE1F2762EE3184A18383138B5FD250BFE
:103E40001A33DAEA0915AA0D231D98DB1FF9B9EE1A
:103E50000527D9CD1206C1E163401F1031E1FEC92B
:103E6000F3E6CA40D23AF6043285E623001CFFFC92
:103E7000F4BE1733AA53C1E6E2000D0B01119E7F79
:103E800034F6F0FEFF6646F554A0EA170C20E5393B
:103E90008B2045E3DFE8E91DC2BF023F17DBFFAC23
:103EA00021C0B4F901DA1C5A0E66E21AF90136E8AB
:103EB0002AC801D47029D8F7FE49C8BBFB0AFE13F3
:103EC000FEE116DFD9DA49C8FB490AFAAE1A020B3D
:103ED000EE00F8C4E5E81723DF7FE44915E99A44CA
:103EE0003C0E1E313CEE1A06FC131449DBE2D50BE6
:103EF00011E33AB3EEFF27E31BEAFD21DED31D8C6D
:103F00002C1714FA36124A69214DB7CED2FF12F59A
:103F100049EA000912F4DB3529E1DCF94C0D511CAA
:103F2000102123E4CDB5F83F36CCEAEC520EB74A67
:103F30001803B3E60D21E7B85E1C9ECDE795FFE1BF
:103F400002FAE731F6DDE13DF6EDF9CD0CF830E1AE
:103F5000AC14F98E9AEF43D6F21D131AA20BEE029F
:103F6000EED00A2B1C81EF0AEBE515F03016FECCE3
:103F7000CC0C20410FE7FEFD1EF9F40CDD068BDEB4
:103F8000F607E6292EEFE01EDCF0FF2FF843D3DC26
:103F9000E6E0C706EEFA2313E8E81DF921E01E2A41
:103FA00004E12705D834C5D5CBDFF40248F1FE1B68
:103FB000FA4DF0EC470323FD2FE36A2BBBB31AF94C
:103FC000FD1638E31BE4E42148F11CFE0D00E51B5F
:103FD000D208F6BEF13BF4DDB70615E615E9360169
:103FE000F7D93B009C39E9252008FFFDC970F2DBB9
:103FF0001DDF04EE3723222CE94E10D823F25201A4
:104000000B175618D6D1EE2744F5DFBBFBCC06C8FC
:1040100019250D281906C6F7C9F70CBEF40506FFC9
:10402000C110F7F1F1DB0A47222CE3DCF27FD6C99D
:1040300019CFC1ECDB241EFD2205BC1F4BF0073E4F
:104040003BF6CF0AAC0E3CF6D5E9A9CDC12221C181
:104050002D3EE35A88350326D525213AF2FC07EB9D
:104060002D1CDFCFDAF8F7C6DA245ADCED09FB2382
:10407000490C03D638C501309EF74ED8EE30070FF5
:1040800012C619EE20D0A77FA305162432D314FA46
:10409000415FBB403C192E2ADAC2010FE7DEE4F192
:1040A000BEF3E0E91E472D2DDC2455E721B6D20EE4
:1040B000FBE2D5FAF4D3C906FBE09C610A04F33AAB
:1040C000EEA802AE2115D5E5FB2E093351EA0DD13C
:1040D000D0E6AA28F30FF6F4CD9746E338EF1FE2B7
:1040E000B7E86FF11221A52E43EA020D55C10FDD8D
:1040F0000120AABD1D65F22C0840BFFE2BB1D6FDE4
:104100000FF20751364FDADEE64469DDABCCA3CCC3
:104110000CF1E72151F647CDF1F9DB17B2EAE9AF2F
:10412000E2DAD9ED68BB217A040245F5A2DFE7F3B4
:10413000F0F71FD30CCDA181E415393CE2E00A2C45
:104140000EE509B3C3E0FD301E151531E603EB6043
:10415000D9F52DC40618F8A3BDF1DEF0CE16133C38
:104160000639210BE133DF07184C40001C051E11F6
:104170000B26DAE428D626FE0A51DE0A30E9FB2FA8
:104180000534FD2EFE0CE415280AB2E625EA30DCE3
:104190001A57D6C933BA2ADB1825E10426D481FE82
:1041A000FFBB25C054F04BC1D3E515E10506C95B43
:1041B000061AFDCF16D701E64F330F2AE2DE0E2D89
:1041C000A036343BFB250E6AF7FDECF43F39B8E42A
:1041D00015FC214A2410EB420A30D0E848412CCB90
:1041E000CBE10615CF5527A2C2FDE5C2F2461BA0C2
:1041F000121AEE04DDD518F92309FF2A0114EB2762
:10420000196A184CE7F0BAFD1CEA0337CDB8E73A53
:10421000A1411626DDB40026ADD3B00EF53BE48AED
:104220000DE0E036040828CE2CEB33DE28D59FCBFA
:104230005207E790DA0E1E160F0CF9F3DBC514498E
:10424000CE7F050E2EA734310EAB1BB1C105E2DACD
:10425000CF1249B13B0A712704DC1BE4F8323FF36B
:10426000EF0E26D8E94C0D1AFB3143607F1DDB2E83
:10427000251DC9103632EAD0C0172A0032011DFEB2
:10428000E81FE829D4D9D0D8E7F1D7D6F2FBF3D587
:10429000EF2C13DB1002C01031078FCDCE38B81BC6
:1042A000BBBCCD2745D9D12CCFB5FECEFE1DF41E0B
:1042B0002910F327BBA6E9134249F7F21839E60D96
:1042C0003809EF34F3CBFD209B1C0FB2C0CF273C45
:1042D000DB08C11326472C29A0EC0AB623A3D15032
:1042E000B237EA1EC636F35ABEB91600E2F413D44A
:1042F000C9FC3F2AB4449CB63513C31531A95DC52A
:1043000065FBF17F631715071E0E9F2ACB06E14957
:1043100033000516BEED37F030BA053721B105DBA5
:10432000E1E2F2C6F2FCC616162311241C19EA2695
:10433000F05509FF433652A6471155C0B3FEF0D8D9
:10434000E2ED34301832C11C3B2BAFD3FC1CD3241C
:1043500018093DB1AA7B29F23A4BD20E0605F51594
:1043600004141640F77FD3CB3E141DF123DF084819
:10437000ECA4C5FFECD41ED00CF366B5B541CC5B04
:10438000F8C2C0E1D1EBE4335D2AFFEFCB6F01232C
:104390004D2B1AF513CBC1E1AF5106F139F5110DD3
:1043A000F628401B470C30AF0EDDD1D5F95D48BB78
:1043B0001D9B21CF1997F3F2E8122A0E17F4FBFC8C
:1043C000CDC3D4E0B9B3A70925BFEA07FBF7A8E935
:1043D000F5D8033513141201FD40FC0CF4FAFD1E50
:1043E000EA071000FE04BBD303F0ADE91A7F223ABE
:1043F000F0361E31D708063F021604E226EC29E209
:10440000F0FDBDC04DDC2BC2F9FD30231D17321B62
:10441000CEF3E2E6EF0C03FAFA1AEBCC2E0AE7260B
:10442000F81139F3694F0AD30616F0EF2031180A54
:10443000BBF7A735041B0E2AC31AFCF5D6E53ADDF7
:10444000C2F5EFF1F1C5FBC3EC3119EE0CAFFCFF87
:104450000DC1DB0C3831DE20E9C9A3FBF3EE1E6A87
:1044600095B85EEB3DE4D31B0332E5D3324424CB55
:10447000FF581DF73BF9EE00FFD008F3590E07DE99
:10448000CCAFC1594D3ACCE8B43217EF54CBFF0F43
:1044900000DAE240FBCD24BFEEF6BCE0E56409DDC6
:1044A00037DF3F8B08D2AE3D412654F426B5AEAF80
:1044B00076651578DC81B6E0EE37F6D9FE0F02B4EA
:1044C000E8EF20CB0B12B9DEE00E25EA32A32F294C
:1044D000C6231FEDBEFD3AEFF4E6140681C699052A
:1044E000AB40F51203D6D91D046B0AF9E42A666CB9
:1044F000EAED1D23ECE80218D3EBBB00F1D9AAD6F4
:104500000910FBC416EBDEDEE12234D0C0313ED30D
:10451000D5E6B03007EF3EC4263DCEFC4D39C8107D
:1045200001C81A260FB800EA423A1B2A074390F442
:10453000D7F6E4BCEDCE010778DF73B1D0ACBB3069
:10454000073046F614FB0BD43C023FFE20CBF10AA9
:1045500009EB2DF23111CBBCF8C7E4AAFDC4022847
:10456000A6022337F7E40151B405D813FF0B38C96D
:10457000271DFDBEF6EED70453B2E1E1B5DBCEFF59
:10458000AB44E1DD0AD000EBE8C60CE0C0DE210C54
:10459000FDE5AEFFD2E416AC23041FFABE132318C8
:1045A000CD2DE737FFF1260E0426F2D8E0D34CA23A
:1045B00006FC314DB5FA07E1292067E903CFE3E5B1
:1045C0001C05F60105B921D307ED3D2A81E4FB5B0B
:1045D000091CE1ED10FAA62D6CE394D8B52B3ABD79
:1045E000E4E0C0DD183FB657F8DFEA1D1AEFC0EC73
:1045F0002A81D9208AE30E244D2F3807DF27E04F88
:10460000DF21F303B0023DBC0035D4F859070AF9A5
:104610000930401901FF19392D541F0DBEB43CCC8F
:104620000EB1FD2FF8F6E713ECA8B938D9E2FBDCA0
:10463000DDAF2A093CEE184E03F9E44C121F9DE44D
:1046400000BCB7B3F5D8B601F157B36CD0FB30F36B
:10465000DE0602F70AE6BF000EF831E5E9C99C2F35
:10466000FA29EA06B9FCF83146E91B0CD2054AF0F2
:1046700034064CF53CF5D6F623079D50EABA98353A
:1046800027DF3FFE2DEA1EE8DB1EEBEFFC513E90DC
:104690004710E51B013D262F14261BD3E1E920FC22
:1046A000B4FFC91EE008212BE3F118F93AFED796B2
:1046B000931D30DF3E23E60D4FE87FBFD7C21CE1DC
:1046C0001C62F6CC07DAB9ECFAC311C01F1703DA83
:1046D0003E2A5FFFFBCCC9A418F30CE508A612DA4A
:1046E000E2CF29F9BA161414AA0FC69BFD7FCE8912
:1046F00047EB19E71724FBDC0907F4A329222EEE68
:10470000630C0C38AFD2E21DFCEC022DDED1B805F3
:10471000FBAAF200DB42F155F10801F70690CB4C01
:10472000E7BF363F430C00FC1303F905FA0999C2B1
:1047300036E8BB520611310D19D4DFDD052D37DE09
:104740002319C9E116F943BD19B41101B61F37E5A4
:10475000E534F102E025CFF72E2F06D314F133FB19
:10476000372B25FB651EDAA6DECF1C2F2CAEBF7FB4
:10477000F9F22622B4290BDBFAF2072D28461F1581
:10478000E3430109D62205FBFCF7D9222EDDF52AE9
:10479000050137EA0E23D12906C321D92531DCEDE5
:1047A00006FD1E1B116FC5FA134139152FF8154769
:1047B00012C76A0A27D9190810EFCEFBFD0D03C6F0
:1047C0002C06B1DAA55CDDE615FADDDF3D05CBDBB5
:1047D000E79C1135E03742E32E1D07DD0D0101EEA8
:1047E000FEF181CC1720E4DEF4EC2AF111E5DC1AAD
:1047F0006CB8C410CAF8EDED2706EE10B8C6D6FBAB
:104800000CCA4BF3CB1ED408F509C7ED27D3FC2FF8
:10481000DFE1F0E9122BF03DFE30F00D00ED380E37
:10482000ED0C0F23E4D83709140A2B2A0A0510FFD0
:10483000C9F807C02032E2C401AC165D090FF118B7
:10484000F5ED02D2CFAE222105E6AA28DE2C11CF4B
:10485000E4FE2DD727E2CECE121BECDA03C4F825F6
:104860003B02D85D0F2FCDE0FD3603DCEF1DF519BF
:10487000F24BFADC07FD22F4BF48C6C73AFAE7ED6F
:10488000FDDDDF1920D0D5FFCFBEE20A0CD0EEC48B
:10489000163D2DED9D1413FEAEC0E72EE6340F0538
:1048A000FF12BD4E1FEC43CEDE05081BE50C0022B7
:1048B0000715FCEF16D512471AFF0212F1D90D1C8D
:1048C000C2EADD20CA31BC28EC1AD9EF0258812592
:1048D00019E90708FD1E4C31E011402618C02DA033
:1048E000961AD3B3B1F013E0E01AF6DEF342D29E8B
:1048F00008DFF7FC13EB14F30D1035EC280049101A
:104900007D502C3D0CDC941C0B1FF91641E8C707A9
:10491000D0E3FC3321FBE600FED5E11F26BA403888
:10492000EFE0E3131D1B38FFE1C6EC060A2ECB1B9C
:104930003B03E032C0A6C9FC1AF5DC2F3B3E221136
:104940001DFADF1C342418D90CBCC9A507223681F6
:10495000D1E5F641E6064F06272012F2E9FE0215E0
:104960000BCF4814F9E5DC03E521EF36CE01EECE9E
:1049700022D60105B0AD339B2406D008D0E327230F
:104980002E1A3A01ABE839017F2CEB25E9FADB2737
:10499000E8BAE1930322EE1BF4EB03F70BDA27E30B
:1049A000FCD1ECE901FEE12826E834F1E42BF7E93B
:1049B0003AEBCCEEE270F9AA2DC90ADFF80BDF253D
:1049C00038EC0E0802C4F04418EDD911D662ECDAC6
:1049D000FD2A0914FE16C8F2183E483312D7C3C187
:1049E000180EFF0FC22AF8BD07211CF9E5E8D6E72B
:1049F00031D2FF03B5062DA2232233B903BCFF4AEF
:104A000061F42826C910F42D56DDFFEEDFFCED39E8
:104A1000F5F81081E01EF916AFFD13077FFD434145
:104A200030020D5E340531531A4DEB08D345CFE704
:104A3000E212E5CFDA3EFBBAF5C3E7F83E002111FA
:104A4000AFC8110A00524128FCD8C1B7C51737B208
:104A5000F0D807D5BD23E3F0C70AFE01C416B2F0B3
:104A60003BBF020E07AA0CF4F710D8BB28034FE592
:104A7000B7CC194C46E30F1B50AFE02041B918D01A
:104A80000A81C6E74ED4D456BDB1281E0CF91FF9D1
:104A90004F00F9FE3CE4CAEC34D931A0F42B973A2C
:104AA0000F3AC6031C3BA73639D9560BD5E0EF5E4B
:104AB000CD5C271E351D57C2E1241325CB3252F899
:104AC000189960A3F289A2BC2ADC3F8DF28442CB04
:104AD000BC0C06F6E4DB07F6E120C6C9CD1D28AD07
:104AE000385F04FAD2FC2A33FA461F5DFFCF262B2B
:104AF00033EE1BD3CAE0C0E71E261712BD061626EA
:104B00002611AECEE0D5E306F4C7388102F738119E
:104B1000F52DD607DAF6F9E524FC07FFDB53DF367F
:104B20008D160B1BD3D5E8FBDFDEAA5F147CF302E6
:104B3000CBF5380EC65B031D315C19C70BE008339B
:104B400013EE0EECD015BAF50711F73526CFCAF5DE
:104B50004119E70FDDF4C8EEDA2D02C20CE1043191
:104B60002AA30FEA4228E6C39901E1313706E4356A
:104B7000E3EEC5ED07F8292AE6F7CAFD38021AE682
:104B8000F328F80CF308F2B2D6C3406222B8F73C1F
:104B90002641261133E3EE150CFBC6EAA8301D0AA8
:104BA0000435BE36450C4E0634E1F2C9C202F3D3D9
:104BB000343201DE40EABC25F617E124600EFDFB2D
:104BC00015FCFAF6D817E6BB56053FC20DBBB2116D
:104BD000EA02544316E67F0B1D0D05E2FDEDDBE412
:104BE000369DE80B434F14DCF1D5376AFAC1E6B9BC
:104BF000AA26F35BA436C995ACE9E809D8B6E02843
:104C000005E6253FE8482B1608D18E0DBED2D426E6
:104C100038D016F3DDD3DE1F0289CCD51D210AFF63
:104C2000143DF7FF300A0AF3491205D30800B6CF46
:104C300054A6E74C3E1042332BFF81490D199230A8
:104C40005010CDE2FBEF62650C14DEB0E64CD69658
:104C500019442CE2CE5123BD2CD2DD08FAF5FDB368
:104C60001A2FACF6B516EE2B2DF4D9E7F158080043
:104C700029D9C23A0D0E17DA110146F222EFB560BA
:104C8000FEB5F5B4A7F0ECDE0004CF9B5007E201BF
:104C9000F4FDAA67EEE23432EAD8EE2102DB02F438
:104CA000E2B52EE9188C00A8DAEBEA33C708EFCC9E
:104CB0000CEF3BDB10E61E7F14E50B2FE620BB0A52
:104CC0001FE6DFADEAB90AF22552FD3C4F34A72BAF
:104CD00035F04A0366E7F48E0B15DE0B160F170846
:104CE00028FB0FEAFC03D8F800D319142E391AF167
:104CF000F3307AAFFBF919FDF453D3AA46C346F259
:104D0000E222D61E3F2AC20843E50D2624F616F3FA
:104D1000C3F6FAEC135A1EFBBD2CF2E8C121232B7B
:104D20001503C0B12432DF4788480EEBCA00186271
:104D300048C4EC1FBBC9C21725102DF510EE0FCDCE
:104D4000EF8107027801A904D0C1DFFCE1B9551356
:104D500031FDE51D00171013A400DDFF0DDCF5206B
:104D6000D0C3471757EB4CEF8100C510362F0A16FA
:104D7000C02AFA4FABE8D92DDADDA50F08CD2111F5
:104D8000D7AC131A4C2CDA1AB7FB0723E2DE17EB69
:104D90001BFD2226270801D4B819CB15C413D8212E
:104DA00022203D3C5C2230373D1D45EAF45301F2A0
:104DB000661BAA4EE0176F4ECCEE1212DC30F102E9
:104DC00018D8CEB026FCA3B660B31DECF2EC38FCCC
:104DD000C3B6A03CF51B2C37ED142A04E4FADA081C
:104DE00010E50443DAD11706F20BE2C8071122E4FA
:104DF0000E0FF822F0FA0F09D6FDE0D7E01D32FBC6
:104E00000F123A0523C926EFF1190EEED2FB10F06E
:104E1000FD252C0034FAF1FA810816C3E404D3EE20
:104E2000D9E641C70A24C4EEB229CEFD44E9CDD566
:104E30001A0C0022D5E4152E0A16340A17DD1C4878
:104E4000152BD4F216FC9D0DD9ECF40147FC23EB95
:104E50000D3FBF244602110332F6EBD0F6C806140C
:104E60009EC2DD04F8BBDC3B71D80BC626ED81B0D9
:104E7000EF211C2925392A07FCF3B50A1BCEFDE3D7
:104E80000D93076EE50A42B0071DC9401F6F124619
:104E90000FC2350051F603ED19FD33F2C09EFBCF72
:104EA000DAA1CF43CEE51E0E02FAF2C2E8251EB902
:104EB00097D328BBEC4C181CFCD9261EE4ED0ED869
:104EC000F1FB1B3221CFEA53B3FFDD03AF50FE0FDE
:104ED0001A2B22C4F40F9CDCEA1117DCD6B6910819
:104EE000E0F9210436091CD6120A810A0B0D8F0B3A
:104EF000FA5CED45E60D9EB8DE3CD0072AE9D836CF
:104F0000C39FDC980E5FE51C050311CE1C1CF3FD4E
:104F100009351BEEFCCB0525F909E548F930D70624
:104F20001ADFB0EC150D48B0E71C5A0C1E2C2605F4
:104F30003528E129410B00701E3FCFDBCBCA5F79DA
:104F4000F89E22290750ECF81DEC0AD9CA03E0C2EA
:104F500036C6FD21BA2F34F0EC15D6E5E8F041163F
:104F60003038372325F945EF18134B191C001BE483
:104F7000CC1AC303FDE74CEE9F413E9FEF34B10DC9
:104F80001440CA36CCADE9E2DAD9D8C606292CEAF3
:104F9000F21BE3E9F7EAF9FF32081BBFFDBF163742
:104FA0000CE6D3F3F6FD3092C0E100C2D3C2B048A4
:104FB0002AEA389002AE81C479F51AC2E12F3AED9F
:104FC000F5F2DA722C1C1137D5171017F267F9ECCD
:104FD00070F57F094E2B2C4ED7C315063F13220DBB
:104FE000D9111C14DA4600ECC3D6F7163A25FEFB9D
:104FF000430C2C2F2B64CB0BB91149FB40F0931AB7
:10500000FEB3D0DF1929FC1A13A1E159EDDC281CED
:1050100011FB0739251EFB21CCEF09089CB026A502
:1050200045EEB3E11D2E157FF02EFE0EA333FC22BC
:10503000F5BBD117080ACC8A0629E8E50E5D44D1F4
:10504000ECF9EE28A6FFFDEF2DF8D73CEBC711E1F8
:10505000E2C2F725F3F83951002A11361525362119
:105060001A381D2338C2200147D50C42DDF75AF407
:10507000D9BBD1E4080DF7FBE8E0F20AE3003610F3
:105080001F230F031C15D416151CB8FAD2F51C1ECD
:10509000E9CE09F9E702EAC9C3D6B246ED04575191
:1050A000F00F63FC1307F407F63106FF74DD3B09CC
:1050B0001AFDB91AE9F13A0DAC1313F0080602B261
:1050C0002904ECF503DD62197FFAD3F4B61C281D20
:1050D000E748B6B42F0FC34112F2A813F927FEB95F
:1050E0001917BBEA330BF9030E00F33CE1EE28413C
:1050F00025C81410F6F2D1DBDEF72FFF212AD635B2
:105100009B81D2E915622FCBD03638E41D06C22030
:105110000512FEF6DCF6E3C514E5C13B09F1F1BE6C
:10512000151806E90CDFE2A2F5F0DD06FDBFF5EE8D
:10513000330E18B9F4100D2BE43E0B07B4FCB7DEA8
:105140009849FCD7F3E20C37DE34DB36EFE5DCF2CE
:10515000FFD2E6FC7B26F61CF406EE23CEF651EFDA
:10516000C8E051E9B1DFD67FEA20D8E91E45F5FE57
:10517000F41411FE05391ED5FB021B1AE314FDFBC6
:105180001BFBCDEA191304BDFF28CA12381B97ADCB
:105190001B5C92E7600054E9D50CDDD8D6B6BDFCA7
:1051A000BBF3D2FF09FD9329F91E16E026F910D8AA
:1051B0001507EE4CC5D7FA02052F1AD518DF120ACB
:1051C0003728A5E327F91158F835DAEC00C9DE11C4
:1051D0001EFDCE311B3DEEDD162F15BCC605231C72
:1051E000C8DBFCE3F91F0412E6E6CFEB2E27C9EB80
:1051F0007F1EC51012129DF2332A3B171403E20AD8
:10520000D921F119090810D1F2010D1913249CFBC1
:10521000173317021EEE0626C128C8D106F2C0FBBE
:10522000ECDF04E422B3F42BD0080FE62BFEFE19CA
:1052300001E61E1CC5B73104210B1607F7EDF2D9A4
:105240001122D7DC10FFEE4E0D22F12F0023E50BCB
:105250002919DC38E92CFFD94533E5FC00FA26FE94
:1052600002FC0D1E2C34071D00D40D36321A01230A
:10527000D1C39CDE0914FDC0F716D8D7E5F2D726B6
:10528000EFDE001FF133EA340FB0F73BC217D0381E
:10529000D6EE7FACD7D6EB53DAB7DFD60B31E7CFFC
:1052A0005C2C01CCFE2803FBD163D80CEAF4D7B305
:1052B00010991EF5F2F8CB51E607EAD108FDD12B83
:1052C000200BCBCE512F0509E3FB0E0D1CD9E4F1C9
:1052D000F4211B1BDF3F20DBD6E9258E182925F999
:1052E0000D3408F7FEE6087040082420EBD411DBEB
:1052F0002108DAD1EE000B32E10FE720F82CF5F9A6
:10530000EE171A20E3DBE906080B991219E8FAD424
:105310001C15CCE30FDC17080504263C0CCEC3F8A3
:1053200003CACDE9ED8B4EE2D0E097A7DBDED00FCC
:10533000E0256DDA05BCF4047F042FFCE209FFF1DF
:10534000C002D837EA0C0950E910D90400431EE620
:10535000462D63F92A071607ECE31BA816FF041B6A
:10536000CCD5AE4210A0E053232BCC20240713371A
:105370002712EB2408F920F5E2DF2324E6ADC1BCB7
:10538000E90A14C012E0032E06F529DEE33CDCE155
:1053900022839C1D09637FA7EA393E09FD390FF27C
:1053A000A0000A03C813FB2EBCFD0A0F73E7E52714
:1053B000E1D71002B7204B36E4FC5FD0F5A51826E4
:1053C000FB0967CD18F60D3DB02BEF622FD52BF5FD
:1053D0002323EDEFE61E320507610F70E522C7605B
:1053E0005B15F6D8FF263330E9EE123A3CE13AC5B8
:1053F000E8DF0FE0EC2B5AD0BA41DAE8A6FCFBEC70
:10540000F51E363FACF15ACD74ED4A37CFCB0C6B5D
:10541000208147920404B455C20132D20EF043DE1B
:105420007615FC1EFB02D82715E54BC040DEC9A14E
:10543000F8D8FFDC9B11CE9B2EACA926C4E20A69EA
:1054400006F1048ED5A7244F0EF71EAC09FD239C50
:10545000DFDF36DBD4D6B9E100631F101BF125F383
:1054600004061BC0A8FE13FDE417FE953C5EE6CBC8
:1054700016FF0DEF1ADE02CFF6F6BCC822DD46F9A4
:105480007F3332FAF9D2131B4027DA00F40DDFDC48
:10549000F5B80CFAFE03F359B2DE1BB010D4303766
:1054A0000DB10800130D02661506FDEAFB3E03026E
:1054B0001CEAF1140E062D141AF50D0933F04B0DEC
:1054C0002DEC06061FE034262EE8A4F1C52144D7B2
:1054D000FA0D060AC0F41214E7F00C39D40A10F9D8
:1054E0000FDE3705F8CCF9BDBE0729DE312E0C0ED4
:1054F000EA19FEE2363AF52EC5190FE829F2CEFA7E
:1055000023DCDF0F070CEF1FD2E61D15CFDC1020C8
:1055100017DF1C092120EE1515E4DBC4D5C5408139
:10552000F3D7B4E5E82D41153BF1FFB50F2DE7FDAD
:105530000EAA0FB254C6C6142EED17C5F22AE90200
:10554000FEF9FB21F8E1DEC8FCEA17D9D108A2F187
:10555000E1ED4A22F8021C386A1EDBD113B8F9E6E5
:10556000DDCBE91FDCEC8134C1F8EE2A35E9D7D474
:1055700022E614FCC447ED0F31E5D710E817F94EC9
:10558000E306F90AE3062EC4F3063402F8571215AF
:105590000AE2231CD62C2EFF2A3FF611E627CBD099
:1055A000FDFCE312F7B813450DF60B161624DCAC20
:1055B000C5CBD506FC4601C6CA1A4602CCEBCEFEC8
:1055C0000D0F06CDCCC012DE2D35281DD30310F9EA
:1055D000E13819C9E4F7F1FFF2D8C5DE0235E4C7B6
:1055E0002029104C0C29DD220DCDFED0D206052C31
:1055F000BA4D10EDCE15EF29FA6122C037011548DA
:10560000C18DE2BFF971D90CDEF1D5D43FE3383357
:10561000FA191A16C1472B24CCB93262F345F40BA0
:1056200052EBE5FFFFE37FF8C043343E0FD528F08F
:105630001FE8D11627686818E008CE1FEB0924562A
:10564000B7F50400F22248F3E14B163006F9DE3AD2
:1056500029C5062B09FC240FEF340617D9D3C2EC59
:10566000F1C318FE06ECF50FDDE4EFBF23F916FFDA
:10567000D01AF4292A0FE91722C5D916FBFACEE869
:10568000EC01FD2D2DF7FF0BF9F9F1312A3C01E575
:10569000EFEDCA000DF02A101D0A36E2F6E11F15E3
:1056A000D7022CF5E715E50AFB04F73212130403C1
:1056B000E02BF21419F40CF6FD077F15DEDE1CFB5F
:1056C000DB1325F01C29D518EDDB2BE40FEE02F6D9
:1056D0000009F8C2ECF7EEC9F9EAF92314260F29FC
:1056E000DA13D6C92B81CE5302FF0FE51C07F30A4C
:1056F000EA512718F3F816EAFE00F7DBEBFDB7E5F1
:105700001FF1EF11012904FDD825ECF0D9DC21E5CA
:10571000DFDFB501FD1D551BEFFB12361887DEF4E8
:105720009BD91326D3F8C4C5BEED11CDFBF31445A8
:10573000F3FAD4ED47E6DCE0E305062BFDFD2EF29F
:1057400016C528F906F4E6FDCF39280734EB071D06
:1057500024FA27CE293EF818E81FF30FC7F1B9CD78
:1057600011C0FA0538F2F6D50403DC110016F3FD7A
:10577000DB3224081E1CE205C73B08B309DA070622
:10578000DFF40BF8181AD5F90216073B045BDDD8D5
:10579000FA1DD403C44B3EF627FC113C03D1110F74
:1057A00003FDFF0A0D31F3DEC014E84503E3FB0BF4
:1057B000D620E8148BDD1619B3061BE90081D82E1C
:1057C000F22F512B2933F00906CA280823EDD5FE04
:1057D0004F39F3031D3CF4E81A0381F0FBD1E002DA
:1057E000E20BE3F41B1E1CA8D8EA2835F0E10A2DD1
:1057F000DE0D4DD8190BFD0631073D02064D3ACF9F
:10580000BFD8EBFEE707EB0A20D7FD1A26ED0827E5
:1058100005AE1CC30424F00DB11DC7ED0F262FBF2C
:105820001FEE09E9621CE6541918051209D7C8C809
:10583000DAADE7361ED72DF8BC08EF1925E110FBCD
:1058400012E7DDD8D9F91FC411FFC927C6F607171B
:10585000CFFAD722C73A0CC3C9813617E1D7393FEF
:10586000A9F25E6FDCC10B44EC1B14F3F1F82D14AC
:105870004816D26233E40100E5F6E1AACAB91CCDAC
:1058800015BDC1FDAEC807D7EBF9E3B6E000F216CF
:105890007E0FB91D42FCC98BD9EE1633E240EEEE05
:1058A000B447D3C74AF00EFA21E8D3A8FB2609E390
:1058B0001ABEBF0DB9141630301043C0EE003DE2E1
:1058C00003E8082ECB0B21F306FE0ECBC5B0E8573C
:1058D000F34DFC372EF3552BBEC7F9FCE0AA180098
:1058E0003C731CEB03031D650EEC254FF8BE77A23D
:1058F000DFD024CB710A45E7FBD81A2881FBDF10E3
:105900002E433E3C219030EC32DEE3B014EEC3B9BE
:105910000630B8BAE9D0ECB70C4AF415E80FCF223C
:1059200027049EDAE7D527E4B3240EEABB9FAC2B0D
:10593000031F48D44E98F3A5022017EADF10F403A2
:10594000002BEF05112F3349F1FDD11BB323261B8B
:10595000540F2500FCFA3D16F2E51BB335E1144463
:10596000FA532FB020F0E8F741382BEAEC1BAAD607
:10597000BF2EF8F59ADF13C5D327A7E9EB5AF41C1D
:105980002D460C43D9D91A34F0420BF32F1837F5B2
:105990004044DDD9D2051A1424EDED73DF02E2FC98
:1059A000E0250BE717E608D73307080652B6A82309
:1059B0000D1B66CD17D323222D00CCD781CFCE4E21
:1059C0001920D84B56363EFFF90BE530D875CBB8C9
:1059D0000A27092F43311E3008B827F631E5F4D5E0
:1059E000E60BDFCF26CEE7EDE6E4E300FDC5EBD620
:1059F000240EAE07AFCF1DE90BEF170E15FE2809D9
:105A0000FC2BD8C1D6E7E5F8101B0DDEF11E200CEB
:105A1000D4E2F403F13B36E3F9404909321FEED2F8
:105A20000F1BD5200BEBF510F1FE23F707F4F9342B
:105A3000BFD51534E5EF4826111509FEFEC9033818
:105A4000DA0212EF7F263FE1E3362E212EF73603EE
:105A5000F206CD31FAF219F8F6B1E8E827FE18DFC0
:105A6000280E10091C45A0E809A081F50614F4FFD2
:105A70008CF50D20A4380BFBF6DCCF0BF52AD710E4
:105A80000418F3C63C1B3ADA10D1DF0045F10D04CF
:105A9000A60A1DF314280FCDF1E22911FA0B044FC9
:105AA000EDEF20BB1016221BB5140745DEDB2DBF22
:105AB000ACDD1F2EF32804EBC75AC4492D03FB1F8E
:105AC000F4D4C7FEE337DDB2C904B7E315B0BBECCD
:105AD000E804F500E2FF21FDFE06DCBFBB1922ED64
