:020000040800F2
:10000000782F022031AA010835A6010837A6010879
:1000100039A601083BA601083DA601080000000022
:100020000000000000000000000000003FA60108E2
:1000300041A601080000000043A6010845A60108EA
:10004000F1B00108F5B00108F9B00108FDB00108F0
:1000500001B1010805B1010809B101080DB101089C
:1000600011B1010815B1010819B1010849A601082B
:100070001DB1010821B1010825B1010829B101080C
:100080002DB1010831B1010835B1010839B10108BC
:100090003DB1010841B1010845B1010849B101086C
:1000A0004DB1010851B1010855B1010859B101081C
:1000B0005DB1010861B1010865B1010869B10108CC
:1000C0006DB1010871B1010875B1010879B101087C
:1000D0007DB1010881B1010885B10108ABE90008D3
:1000E00089B101088DB1010891B1010895B10108EC
:1000F00099B101089DB10108A1B1010800000000FB
:10010000A5B10108A9B10108ADB10108B1B101085B
:10011000B5B10108B9B10108BDB10108C1B101080B
:10012000C5B10108C9B10108CDB10108D1B10108BB
:10013000D5B10108D9B10108DDB10108E1B101086B
:10014000E5B10108E9B10108EDB10108F1B101081B
:10015000F5B10108F9B10108FDB1010801B20108CA
:1001600005B2010809B201084FA601080DB2010845
:1001700011B2010815B201080000000000000000E3
:1001800019B201081DB2010821B2010825B2010807
:1001900029B2010831B2010800000000000000008F
:1001A00000000000000000002DB2010835B2010877
:1001B00039B201083DB2010841B201080000000057
:1001C00026A347228566FF815703A357F2D60D1554
:1001D00001291DECFB469F1B2FA801C7E17FA0FE54
:1001E0002AA4EB7808D6119B0546CD2D102FF1E0FF
:1001F0003AD61D1BF1F5B0A0B4DDB0BB0C01DC0A92
:10020000B0F2F5CB1617160BF409192C0C0B7F174F
:10021000255527ECDB9AB35B1CF8321A24A2B8816F
:1002200030FD0435DF1CA2FB26FA2D1ADE2F11B992
:100230001923A6E4191D46BCCECCDB81D7CB0F1FFA
:10024000210F4DBAC2A7B8E449D4A5B2B6C5F80982
:100250004D6A2F15DB3AC5A78D3A56EA7F3A0BFD5A
:10026000ED0E45D9EE54CFCE1BCA2131C7FBFBC0E2
:100270003629C4211CB8255C81474F87F11AFDDA65
:10028000B8284981FEF3121F0B11EEDDA0DFB81272
:10029000EF2FE339D4CC2CBB6E300000923000003D
:1002A00070840000134A000011C40000A62D010054
:1002B000703B0000D85B0100B6FBB36C7F282A2C92
:1002C000A58F06F94E2CE57F4298B9E2F5104BE771
:1002D0007F46FFE5EEFD11FFFDFF7FD2D8D8193430
:1002E00021C2327FB8C739311781181132AE51019E
:1002F0002F99810D22B84B2931E6F28126B7C13CF6
:10030000D6FBFFFFDDFEFFFF23F7FFFFBF08000066
:100310008DFFFFFF750D000084140000B21800006F
:100320007FEA3CD9560212FDFA1EBC8147B87DD443
:100330005C7FF9EBCDFE38FF11CA62347F10E49D7B
:10034000E12260F946FD7481F50C0F271E7FF90D3F
:10035000FB06F07F2AF91F06F9F92081EF10EE184D
:1003600000D2B31629F8E981E37F0D19401D65F02D
:1003700016ECE7D7F281F7E581E0F5F7F5EF61DA02
:100380001DE7217FE6CA334BE0237F111048232C61
:1003900091C457249BD881B9F615F3DED2F17FF5CD
:1003A000D8F8FFFFD609000073FCFFFF460C0000E1
:1003B0005E160000ED0100002EF5FFFFDA0E0000D2
:1003C000C920000070FFFFFF411E0000570F000012
:1003D000B4F1FFFF23FFFFFF2B140000B9FEFFFF66
:1003E000F6E913323F06687F13130AC5B894D5BEE9
:1003F000810901FFFDF281BA13BECBE37F5C0E429F
:100400003B00ADE281C609B4F41215121581241324
:1004100051921E4015CBEE30265A71167F6215C1DF
:10042000A7C5B081C6FCD8F4DF9274AAD35E8A7FD8
:1004300046E10D212B7F64457214D27FC005C3476E
:100440000ED00EE3DFF3D081DAD9BECF0C261B75B8
:100450007F3B796203171BFD717F1B545E14D388A9
:10046000C7CC819FDDA9AD84ACFB81E91AD90735E2
:1004700072F9FFFFC72C000053270000B6000000F0
:100480006A1B0000BF020000A1010000192B000040
:10049000930E0000ADE6FFFFD1FEFFFF46360000E1
:1004A000B3E5FFFF75F1FFFFB5280000772C0000D2
:1004B000D2BD3F661E2E32730D8121E7221607DB67
:1004C000D708118CEDEB0D357F0DF223E5B82DFB30
:1004D00092086AE31C194CE944812B0716DC03439C
:1004E000FBF0F7DF3F7FEC1809DD6D4C06FD2D10AA
:1004F0003ED881F0F426E5CE30560F7628E014AED3
:10050000F9039C54E7E137C50519047FC106FC3A9D
:100510000A1B15CCD3FF189117E4062CEE7FF72E9B
:1005200042B2F4F87F22192648340CF8F750D5E38C
:10053000E90CCD5CF3C28167D1EEDCE70C04CA099B
:10054000F8B71343F10D7FA402FE211807BBEE0A92
:1005500022E20AC1F4252A10F0010B38C97F21D408
:10056000EAD4092FEB19F2D77FAD140D2229F2E658
:10057000B932560FF51310D51CEB067FE0E1DE34DF
:1005800021D9E27F2F39F4CC1B2B33F92BFCB9EAAC
:10059000FD103481F6080D2324340A20E3F8022BE1
:1005A000F0D2CAC169B5DA811577DB790BF0AF27D4
:1005B00002F264071E0C190606810B69F919A514CD
:1005C00065F9F57FB1D6116FEB08EA25954117283B
:1005D000573619EC7FF71535E823FB15EE50CAA8FE
:1005E00041F618F57F10FAE76A30082D229AFDA02F
:1005F00007FB02FE0109C5F37F0EFA022017F40B78
:100600001EDFEDFC2A2FC519E2F037D57F0435E750
:100610000D0BF8186AF8D4CFEFECF47D0EC5DA7F35
:10062000FDE482BBEA06F7F6FD7F062BD5CFEDDFB2
:10063000CEE729FA011E2BF20BF4041FB27F00DA79
:1006400017FFAFF72A0407F508CEF97FE50D003054
:10065000620EF44CEC1E4A6547D90518007F3679C6
:100660004CA1D9F29E45057FE4724428F4C63FF4BC
:10067000DDFDCFE90C044F123FEA01F87F0C2B0F90
:100680002F241F4520F928FEED81F910FA3AA6E73C
:10069000010A0305FE7FEE0FEF006DFEF4FA0CFB7E
:1006A000C8F9411BE00C0F37D54919BE736E438161
:1006B00013F6FFFF663A000028EDFFFF11EDFFFF84
:1006C000221400008A0F00004BFDFFFF69DBFFFFD3
:1006D000AC2A0000C9050000ADF5FFFF7EFFFFFF5B
:1006E000A0DBFFFFF3FEFFFF76F7FFFFC50D000065
:1006F00003E6FFFF3AFCFFFF6DE5FFFF11FBFFFF85
:10070000A60D00003C1800005E0100001A16000053
:10071000D0E7FFFF8D150000C6A7FFFF45210000B1
:1007200092F7FFFFCFEFFFFFBE010000C9E5FFFF1B
:100730000048EC087F5698001A817C17350EE1546A
:10074000B4EA07812227A2E24AFEC0F42FE3D17F58
:1007500054D7175A07A71B109EF64981CF72C3FAC8
:100760007FA4B517E4D30636CBF27FB00024ED4466
:10077000071812B1DAEB81DA9190AB307F3416377B
:10078000E8F93EF9087FFDEB73080737C69E7F5EE8
:10079000F3A6D4E2912B0B816E08A938DA3720D169
:1007A0007F1EE2E5FCD6564681D244DBCDF61CD650
:1007B00003B67FF931D80AD12D1BFC7F54E227F212
:1007C000BA9BDF7F55B3CA62FFB7737FC52124F0A0
:1007D000BBB6E881CFF36F540FFC157FD9DD5DB94F
:1007E000D2FC0CFB51B0E78C7F1E18BBF7E44A1615
:1007F000277F0B0D19DDEFEACCDBB87FDD98265A99
:100800009ECDC9867FB8CF6BFD9117E881ED31E9A8
:100810000ADBB27FEEB260FAEF04DE150CD1457F41
:10082000F026F4F87F1ACE356B03B1E4F863F8BB19
:100830007FCFAF3AD05C7FDD63A499CEC2110ADDD1
:100840001AA381E0F993015708E0537F2CEC001DB7
:100850004AF0FFFF5AFBFFFFEB0D00004FEEFFFFDA
:100860005A190000A208000058FDFFFFD20B00003B
:1008700093FFFFFF21F9FFFFD4FEFFFF9606000064
:10088000CA0000000308000085FAFFFFD8F2FFFF4E
:1008900055FFFFFFE0FFFFFFA1FEFFFFB2FCFFFFE0
:1008A0006703000043F0FFFFB60E000039000000B0
:1008B000E911000065000000BBF6FFFF25FEFFFF09
:1008C00076FEFFFFA2FFFFFFEA1C000077EEFFFFAE
:1008D000D2010DF704F421CA11EBE4027F1B0A0CCC
:1008E0000213370CF8EB3C01E9FBBAED01FFE5E040
:1008F00013F3FC17D5D7FFD57FE21AFAF8BE15D748
:10090000130A67030D0E2115D1F918BCFABADD0AD6
:100910002C31FA03DF132FE70C32141415E724DA15
:10092000550A25FE2CF6000EEE1A06EFF64A811542
:10093000FDEDB8F948D2F63F668302CE1F2D17FAB7
:10094000077FD0130287E0E7E62BF8E5DD4EF9E5F7
:10095000E0EC2247A808DFEC03D8E6F51406F87FA0
:10096000EEE9FC06FE6607182F0C0D0311F1F9E104
:100970006324E51B27FDDF03FC900504EC7FF41DD9
:1009800039C01D050545351936FFBCD6C129391CAE
:10099000E025D53B982E27A4D16F00E554F20FE651
:1009A00052111A313CE6030D96433BF3BB05811906
:1009B0002E14FDEC15FB2EE42FF4F13A0623E8FF8C
:1009C000FFF7077FFD3A091DDB1029E20E23F5F63C
:1009D00048DD3E4DED121945F2E357179B0FE2D863
:1009E000DB29F8BA06251A00E7FF0C651FE4811D14
:1009F000FC03CF51030DFCF7F617E1EC7F0BEC1174
:100A000020EA0DFFF9ECAF252E10E1A40013FFE35F
:100A1000229C3A691D38D0BFE93B0681FDF919B91E
:100A20001721BDD5CA37C8B536ECDD0EEAE0EB2597
:100A300072CDE6D43BFDC913290641E44F8117AFBF
:100A4000DE2C0F38A7C22EF4EA1FFBC1DEF2CB0B5F
:100A50001E3800D9E2A5F2EBB8F6EB09FEFCEDE793
:100A6000FD7FC940F4E4E1E231365AEBF9E61DFAC4
:100A70002DF703F11B3AF216E05118DDE00EE40FFA
:100A800027FAEE2AEDFE1E4B0F55E5E27F1F1E11E1
:100A90000201FB6618CC7F1E1AC55B0DAE3419F23D
:100AA000EB07E6F6E805BCE6020F73B0D3055CA5DC
:100AB00039DD03F1FAFCFFCCEEF0F6FE2FD5100382
:100AC0007FE9DD11EDE9BB1E0E221600F52704D9E2
:100AD000FA2903E005E8F6BEF8D517C3ED17100BA9
:100AE000A30F7FE3134F1225EDE3E3910E5EF51C98
:100AF0000B45EA2A1BFEF6FEB4E317F5F00B51FE98
:100B0000E5EFC8007F15ED05FFFF1A2BD3EDB7FD0C
:100B1000FFA8DBE11651E8043A40EE22ECD6DB1EDA
:100B2000123912BAF0F381CDF48EFCE729EA882954
:100B30000316FDFDDBDDCCFFE302DDCCEA1E015D2B
:100B4000ABCE46010925C77F4FF9251AEB66681120
:100B5000422AFCF31A45981017DCCFE4ADB41C2CE4
:100B6000EDE2B632336311DDF6CA0205DF7F2B6199
:100B700014F259A4C37DD203CBF0181881F81323C3
:100B80004221CF2AFAFD8D02C11031FAEF2F00DA8F
:100B90002318F7C3D10BFEEDFA3A0904E5D407D7C1
:100BA0000F7F001824D61AECDDDF762DE9FE0D113B
:100BB000E0D4253F035C67CDBBE8096EDC0AE7267D
:100BC000CE81E20BB846D2D308BF04CC45EB3584C6
:100BD00056840FEE2DDD8B20DF95D9B917640121E6
:100BE000FA7FB3D2A13AD5CE2CEDDE19D7DD32D1C2
:100BF000C321C6F481F3081206F5D6E9E51B0C45BE
:100C0000023118FC2702E9F9D80621DE152106F683
:100C1000C8E32924DBE200CCDA1903F07F1CE15A97
:100C2000FDE99519EC3646D23A52968504BCD13A84
:100C3000DCE57608D4B22BBB03492BFCF25BF91C34
:100C40002211EEFAE30A0C62E45BEA7FEE0AD2E4D8
:100C5000DB4CF80009266019F9D5151EFE22EACDF5
:100C6000EC20FD7F18DBE4D409E4F8EF05170DB59F
:100C7000E8EB2301EB697F26F1F9F13D3506043AF3
:100C8000DDC4E508F5D72872AC0FC6FE020714B61E
:100C900031E2152007F41D0808066DEBEC072AD693
:100CA00035E2FDEEE0F3C9F3ADD2F003E8E681F6FC
:100CB000CFD30BCDF0B13F13D74DFC5C10E7D4FC84
:100CC000F9D8DBF6F5FCFAE2221AFBE47F03EFBF6A
:100CD000FAEBFFFF910D00003C1800000509000031
:100CE0007D0E0000E905000033FDFFFF35F7FFFF33
:100CF000AF0C0000E8100000D20D0000A40D0000B1
:100D0000F6080000C0F7FFFFFBFEFFFFB203000084
:100D1000A80F0000C41C00008A1F000091FBFFFF09
:100D200001080000F6190000DAF7FFFF9E07000037
:100D300087050000EA1300001A0F000028F8FFFFE3
:100D40004AFEFFFFFAF4FFFF77130000B10B00002B
:100D50002C5B43587F423D4C1DFAB5E6B881CBB4BD
:100D6000BEE94AAFB77FD3B038EFC1ADB41EB21DF4
:100D700061F75D7F526E3BECED01A981C0D7C5E400
:100D8000B481CBD9C4F4517F2F66742A150D10DEBF
:100D9000BFD0B281C5FCAAE400A7AAB381D0D8C550
:100DA000FD8481D20A1525535E2D347341647F5032
:100DB000575218BE3840813241D8FA0C4B28EB7F8D
:100DC00064F4434F22B681CB938AD1D3EF0CEBB3BB
:100DD000A9C381E0E5E7F6E9BCB3D88481D4AFB913
:100DE000B2C8F9BE8198F9C7C8E0C2E0B081CCC5ED
:100DF000B8ECC2B4ECB581C4BEC1DFB9C409D381BB
:100E0000AEEFD7B9C3FA4DFF6D7F4A762E07D19961
:100E1000A49081D8B4B7B40F29813964E63C3E2A46
:100E200041202D7C7FFD6054361EE4547935457F8A
:100E300067567F277B5E0412EAD3D897B28281E39C
:100E4000B7D11F4B631A777F18353911ECCABCBE76
:100E500081B9F9CBD5194B37367F42332D0950660E
:100E600017707F023C1DF3B581D0D7AFD814FBF0CB
:100E700074000000652400009E0400003704000098
:100E80003E09000050220000B8010000B824000014
:100E9000052B0000CA00000054E3FFFF75FEFFFFB2
:100EA00072F8FFFFB0270000951A00001E2800000E
:100EB000A62400000234000059270000E41F0000AF
:100EC0004CEFFFFF44270000BDFAFFFF59EDFFFF85
:100ED00046F7FFFF68FBFFFFE237000062FFFFFFFE
:100EE000181F00004905000087040000A518000035
:100EF0000B0DEFEB72117F04BD25DD05180ECFB190
:100F0000D8C9010202F6F201B121EC0FE6BA181AB3
:100F10003418E0EBFDD0C87F1D4414D5106DCDD240
:100F2000EB0CFDF2957CF252F8079599B32F1D6CEE
:100F3000503EDE2CCCE761140759AE0CEE78CED9CA
:100F4000D5C414C7A3DD28D71E6781F5811BE7161A
:100F5000C7EAB43170510E46214C05B1B2051C16DA
:100F60000F2BF0EDEA1AC5CDBB7FDFE9268409C758
:100F70001917F081258FE10ABCF30B8D97044A7C89
:100F8000FA3F1D48B9632AEA341B6AF4F5C5051A0D
:100F9000EDFE43ECE0B0C81C3821F9CDFAF01C1985
:100FA0000A701BE6D738E8CC1D222481E5FCDB392A
:100FB000130AF90DDDA913003D1F19D1139B18B7B2
:100FC00009E5C7220C7F08EA0AA0408B16E820E852
:100FD000C3A406FC15147FF830EFECFDD2171FC434
:100FE00004F8F31A2EEE01F1FC0F2C0A0BE21C2E72
:100FF00023D62032F0E8EABA6C02B40D14D808FE09
:10100000E96666D34EC250220F0612FFCC6981DC1E
:10101000EDE4E7071D091EE79CF95D23FAC9F60A0E
:10102000F91FD03DCA15E1EA0AC7061CFDD47FF7B7
:101030007FE20BF00905FFFBF117F81F18120DD620
:10104000121316F705FEFBE5FDDFCC00F5131EFCC1
:101050003E2CE82AFDE238E48A39BD19F1E1FBD7DC
:10106000D1D307CF35EA2522D6D5813F1A1BACCF85
:10107000556773F1AF0FE90722DC00EA4B3695ADF7
:1010800001867F911E32B16CC260901A09F0C118BE
:1010900064B5003737EA08DB7F1707D5FB11C39922
:1010A000B133CDD9F26DEAEEF9E41C9EEEF725E0FE
:1010B000BAFD22DCC32848B8003E8C313B1307C17F
:1010C000F0CE06EB1CB3F6F03C9B2ED6CF7F56CA73
:1010D000EEDD4BCF2F00FE3608F7C100AC0FECC899
:1010E000060600D824FCBE2502CC0CE12F257FF893
:1010F00015561206323F0E1ACB1ED5CE5B55E2FDB9
:101100002C19FCBFD2EF371B81223267DAFBD5D313
:101110003AF31505EA07E5E4070108001405F5E2CE
:10112000267F06EDE8FE111E22230435211003F36D
:101130000C03F8EB35391BEDCB0AD61B7FE8E12A0F
:10114000FD0DD807FC0E7B44FCD3462CF5010DCFDA
:101150000C0DDACE05FABE4E17421AA2DC7F1CF146
:10116000F9360516CB0DD20C3C4408F35C080D454E
:10117000EE1C07E53C0F58380C1AB1E213E9E2DC2B
:1011800013D79115E7F61EAF8E182E7FD41CEEED07
:10119000CF25FFFF2F12000A31221823E9D3300D8B
:1011A00039C7370D2A080FE9ED4C42C0A37C814BAB
:1011B0007A03073100E2078B1EE3EE0E2381FFB7AF
:1011C0003ECBF8EF0811501E4EAED226D34AAAF4F9
:1011D00001DC90CD0D14D701CC0058AAA3F86530DE
:1011E000FE2E810BBEE5FA4FC3AABC885DE6FB0D5F
:1011F000271EE8D7C30B28DFDF16ECEB1DE80AD863
:101200000820811E1FC56CD71DBC30DDFFE8DD2620
:1012100023EEE1502237D641DB34E53BFCFA0407EC
:1012200030DABA1ED9BBA8D5D83AF00EA17F11E6A4
:1012300017BAD6F1E1B67F2E1D682EC7E30F2FA98E
:1012400013F50F2A0726ABB5DC111EE32587D71D42
:101250006D220BD8CEDB14222413DC11F5F920818A
:101260000B18250E05E516D9FCF4E9F3F50DE2FDA2
:1012700043F3F80768E49407CB70A714CBAB09815C
:1012800020E5E9DFBEA5F4BFF9CC065316461415D8
:1012900013CBE3F61FB80E014429E3EC0305DACBC8
:1012A000AEFAFBFC20060CBC7F1D16E41ED754537F
:1012B000C13E22F50B02F3F21CE9C3F72467D4DB2D
:1012C000F9B3E10BE200FD3600F90312D87F30DA02
:1012D0002CFCE9F6BAC6F34AD418D0C6A512B4D786
:1012E000B5F241FF935FFEB5E293933E7F1B47CE7D
:1012F0000EEA06104B400213B6230C27670AE0F0F3
:10130000E5E233DB010018EE385E13757F1DB4345F
:1013100030FAD6FC81C454FB1EA9EE269FB90C29D5
:10132000D4F064FA201CDCEBFDA6B764E4FDC6BC77
:1013300011302D221A0DF9CE16E70135411A41DA86
:101340006C0105DFF7E42C38F7E3224CD07FF0E3A3
:10135000E83B2303022423D339D809360C98FD1F18
:10136000571A2D14CD03FD3804C1811DC106E49820
:101370007FF1F6CCF52B550E0E06E7EDDDFF13DA07
:10138000C8E6D3FE0E1FE9F3F017D4FDCB201BFDFA
:10139000CD5A23D4A8A5813455B50DD21611EB0032
:1013A0007BFB39B5CE1E063226CAFCA427FBB91A30
:1013B0000798002BED12BED2E2F297FBD0EC0708A3
:1013C000D26EC6FDB4EE0512112B04FED0EA1781D1
:1013D000DC0827FA10E506038804F42BE2B3153283
:1013E000ECEE3659F23DE5043581EA214EECFAFA8D
:1013F000D73E02DB0BF237FBFA4B02EA12F926105A
:1014000010811805FD1E0D08F4051FCCE3E3C4216F
:10141000D7047C0BCE0327161731F91DE401F40025
:1014200008FADF0F1081CA222232E2D51B016C2795
:1014300017D31237E70FE5A8FBEBBC157F0AF6FCC4
:10144000F103F0FD10FA22D61BD924F11BCE0802BD
:101450001D0811E4E67F33FFD719EAF6F8150C13DF
:1014600049D8F940EB1CF732E6A1DEC0D731E3E3FF
:10147000CEEE0D1DD3EEEDD9DCC646593A11E81477
:1014800039E41E4E8CA7F1F87FC5E348E8C77F65B5
:101490001C45C116EF20F5F4D0ED237F4EECE8EFAC
:1014A0002DC3CA080F192702E6C2D3E308E001F7EB
:1014B000C13DD30BD6F20824FD3600FF0BCB0DF750
:1014C0004CFCD5EDF7E9F22DA311DF7FDC1CC391B5
:1014D00055ECF11BDB81E4C8C10DC63A157CAF2584
:1014E000A9AD170C18ED1002A005A1DBB729483AE9
:1014F0001BFFC6E039D77FD5D3E9113E0F17D1E5E1
:1015000012EF210E10032DF7FFF8E6763503F405F0
:101510007FF61D09AF4553E60A49EFDEF30115AC2E
:10152000F9F4F3EA18CB1B0C01E5DBC901EE07F572
:101530007FE8F617060121E40C6BBFDD0AC43FA16A
:10154000EBD6ACFE12044BD2F4ADCFE20D65100227
:1015500004FD0C634656C325DCEE24256F5FA4C54D
:101560006D041307FFEF2423FCAF7FC438BB07F8DB
:1015700055C1EF35327F31FF2C12F0EFC80D1D8AB7
:10158000F2FB28B49EE4132841E186E2D325E0DB98
:10159000FAC46533C5D06B81011AF41421118FC6CA
:1015A000BBBC13706E1B18DDCFE7FF04D79CCFC503
:1015B00037835EF7FB9CC6B50AAEFBD45C21FD48C1
:1015C000387F51EAC812A4F1FED67191FCECCD45EA
:1015D000222DFBF6FEEBE8862BAE2CEC059319D101
:1015E000B7E5AE0D0A2F2F070A812091FF01EEE625
:1015F00011F2A24520F1BECB1875E6F145EEEDE4FF
:1016000082A233B4E01739ECBDFD12B2CD408C7F1D
:10161000ED1107F61ACDF9E4BCE0F13BC9A71EB9FC
:10162000AAF211B02FD5DE160B16F17FF407D916EA
:10163000148188B6FD6D691D3AF7CA14B2EBFCFF40
:10164000DEF299E794CC42A60419324AE72A2C2EFE
:10165000F3BBE634D8FE51A6FDFDAD308DE5F2B604
:101660009BAFD7FB48E9D381F142DD3BDE3133D577
:10167000E8FEDAD9ACD08144F2E240CBA33E02F4DA
:10168000365FF0B5E723AF0B66F858DF180B263846
:101690001CF0FDF1BAB02F0CFDF73F1C2610811F86
:1016A000A9D9FCDE19E20A603414E204DC00E61277
:1016B000F7DD38C71CFF03B8E92330EE3757FB3D91
:1016C000ECD724021484142E405C81282715FFEAED
:1016D000F1473BEF1402B303F5DA330649DAF0C2FF
:1016E0003523DFEC0AD8FB31F881CA33164074F297
:1016F000543E0000CF030000A024000070FFFFFF55
:1017000013D4FFFFEA1700005A30000046F7FFFF2E
:101710005D080000DC240000E6050000392B000015
:10172000622000007C3400007C2900003A020000A6
:10173000E2E5FFFF89D8FFFF6BF6FFFFB0CBFFFFAD
:1017400084100000BFEDFFFF854200001A46000034
:10175000411B0000DE07000044080000D212000018
:101760003D270000BA0A000081FCFFFF683000003E
:10177000A2C9FFFF3F3A000030D2FFFF86380000C9
:10178000BB1A0000741A0000DD480000CA1F0000E8
:10179000AC100000480B00003C1100002E170000A8
:1017A000E5F3FFFF93140000CF240000583600003B
:1017B00056F4FFFF081600005022000008EBFFFF60
:1017C000982C0000502B00004CE6FFFFF64F000065
:1017D00034350000D71C0000AC0C00003C6B00004E
:1017E000C8FAFFFFC31E0000A4F1FFFFE0FEFFFFE9
:1017F000B25DCDE77FBFF4070197F7E25E7E0C7F15
:1018000068901286EE55EEAB05138196146CF7695D
:101810006AAA447F8C81AD046B353570091352D8A8
:1018200081145EBDD24BDD5A7FAA1622AED28254FD
:10183000F2867F4A5C4826F5B35F32D67F0AFB53B7
:10184000F10AA10184E07F982B52B3CE302B7FC0E8
:1018500039C20C11DBCD5A7F1E51FA06F92D102B1F
:101860007F092877BE38FED07EF8813405B3CBA53A
:10187000BA0F7F2FFAF6D1F02CE6B87F37F4BD11FE
:10188000DBC4DB03322F137F094942B6695AEF7F6D
:101890002C503E79E13AF9B281A0FA0FA62F0292BC
:1018A000491A810FA07F48942B66DCC3F296267FED
:1018B000C764193BF4EF360E48A08109B4D6573AF5
:1018C000AFEB248125DFC1E96B9ACAD57F8BC82C89
:1018D000CE3B8E0FF3AC7F882269562751497F405B
:1018E000F6C8CECB81A7157CA3D72D97DBB8B0C5A2
:1018F000C1AD819ECCC493DD062009237F050A1962
:10190000167912027F67F6FDF5D43D0D8D7F078AAB
:1019100013F1CB7FDAC612A9E79481C0375CC6DB2E
:1019200011D9F07500B764CC90DF8111A3E77F1661
:101930000E47FBDF1C81F981FC4CBD6A1E9A679142
:10194000E27FEB0426F2FE1716387F3313560C297C
:10195000F08152189A0B1F3BD2E1F1EBDAEDED81E9
:10196000CABC6DB7BB7FB1A223FEC685B21F742867
:101970003A7F28FC66387B7F32F2031B071BC66167
:101980007FC11B140CE9EFE6A581C6B4C4074C1651
:10199000DA7F20B4F1B3C9083B2E2E7F0121320932
:1019A0007FE8E15D40BC9C02ED9A66179AE37F05F3
:1019B0008FD753650DDA1981CBA5141803DA690A9C
:1019C000AA58098110390E0C760BA881C9C28C81E6
:1019D00013CAE017EA089E81A4F8CD0D9DB2C8B6DF
:1019E000A4B5BE187FD6196E7FE4D30F1418E8296A
:1019F000147C7F54C3D4C7CEC3D8B7E4A1ABEC8169
:101A00003F5241374DA555518128EEAB6BE4D77F4E
:101A1000C2B534E7E2CBB0F1E9E296247F16EDEAF5
:101A2000FEDCEC02E3BB7FCEE47FC83A36F0AAE4EA
:101A30001AFFFFFFEFF2FFFF180D0000D0EEFFFFCF
:101A400059FEFFFF5CFCFFFFBBFEFFFF96EAFFFFB6
:101A5000D4F3FFFF3506000065FDFFFFB8F4FFFF7C
:101A6000D2E5FFFF37FFFFFF48030000F7FBFFFF52
:101A70003AFDFFFFE8E5FFFF8E030000010D0000C7
:101A80001EF9FFFFCAF6FFFFC60A0000B9100000EA
:101A900083FFFFFF78F8FFFF28F1FFFF041000002D
:101AA000C02D00007301000084E9FFFFF003000077
:101AB00041FFFFFF820D0000FC0F0000FDFAFFFF59
:101AC0000B03000067FAFFFFFEE6FFFF25FEFFFFA6
:101AD000481B0000B5FFFFFF69FBFFFF62E8FFFF47
:101AE000CAEDFFFF0B1F0000BCFAFFFF11F2FFFF62
:101AF000120000005A01000024FFFFFF24FFFFFF37
:101B000002030000F40E0000581000007BFEFFFFEF
:101B100071F7FFFF87FCFFFF0C0D00000AFAFFFFC3
:101B20002EFDFFFF730200003D000000620A00006E
:101B30000A48044406F5DC9A193743E8231A17AD1E
:101B400031FADE0498F5DB1902F714DFFBDCF11A39
:101B5000E4F1D6364CD228E1040419DED710453919
:101B6000C8D4DF08EE2CE5107F051FE903E914E96E
:101B70001FD959FE050D315BCB10E4E1EC06133F94
:101B8000D81A3C160A2D11F21C055034AB36D83049
:101B90002F64DAC5252F267B3C183E157FB6F5FD50
:101BA0002457FBFFDC45EA64E18915047042F12B00
:101BB0006AE40A7FE7DB5C70CBB02151C9D961646C
:101BC000CA92B6F40DBFC5BDCBEDE8C184092FF3B1
:101BD000F966B21630BB16E74DFCD626D41DCEEA08
:101BE000040CB90D1C6F174EE07E6D04B945CDB9DC
:101BF0003114D249CFFA07EFCE622322D7FEF5D8AF
:101C0000EAEE1307081DD0E925271FED080B0CF697
:101C100016F818D214DAFADFDE08E8BEF90006C2B8
:101C20001DCD13A4DD28287F11F8CCED2B0B11124C
:101C3000DB01EA421B0C1561F3DB7C2CC5E8DF0FEE
:101C4000A8F56A4BD723D3C160A71142239B7FD944
:101C50007A2808340B14DACF20F4B508E8080C4CC5
:101C60002F2638EC23F24BE122F9B6BBEB2FE2F43E
:101C70000DF8A75311C0190F2FE4321A5143291838
:101C800005D4AFB9DF5F2716AF1733AEF250ED249E
:101C9000E9D9B2A7140F13BBE63243B4BD26E10164
:101CA0007F0A32CB74F943C08450281BF9F2221604
:101CB000DC40FC68FFD9EEC9C8BE220D0C2C8D0992
:101CC0000204CC0D7FE513C90A143C06E438C0C7F2
:101CD000E0071700C5E7F2FF0CE106573C08F93DA5
:101CE000E03143DE1F1F2691032729CD35CD0AE0C1
:101CF0000EC0FADD15EC0CE1E8F226100B1B0ED637
:101D0000F7E61403E71EDCDFFE1852FBDBE4F21BF0
:101D1000F4EAFFE6EE01FB23CB1809CECEE713C1B0
:101D2000150631AD7FE647FBE9FBBDD4CEE6DFEA21
:101D300052060BB01FC62BABC3D42B001D1016DAF6
:101D4000C0F31EE00E11FA35FEF8BE1F39D0EA22AC
:101D50000BE1145F7AC7ED5023D7197FF5D7CA5529
:101D6000F51B20DD46E94F3614B0DAE5300C0E6283
:101D70002EF72642E4322AED0826F82BFA27F9241A
:101D8000BA4181E904FAFDCA15D21C131705A42A29
:101D90000A14FA36E908F62911EE11203FF008E19D
:101DA0001A2FC0081A1F20F0E2C4AAEF0ACEE432AC
:101DB000CB8500C8E238061EFF0A06E2DF7FFC186A
:101DC000A4E70F13F31C38001C14D2F59616000577
:101DD00045EE40001A152BE4D21E19F8DCD605FF9B
:101DE000EDF0196C23D5F3FF01FCF603E8D335259C
:101DF000E9404A20DDD913372B222D1A153BF7FF76
:101E0000EEDE5BF53606D02326DB0111E22CCE296F
:101E10001210F3E201F2DD403AF30DB17FF2E35824
:101E20004518122B13F7FB1A31F80EE8ECFF02FFEE
:101E300013C527C71331250DBF1C2B34FF18F27FA4
:101E400016BA14FD4CA5D0F12F0805E80C160C1C91
:101E50000A2B15E4F5ECD6FFF11616415FDDBE4CFA
:101E60000AF61508F9FA19DD26D92903F03CBCCD8C
:101E7000F446FA0F2A00F6ECD2FAF9EBB80810167D
:101E8000DEC67F05FCFE20EC1F0713F1FA2FE1DC14
:101E9000DA0B2AE620FB0815D81FA6F2FCDE04EABE
:101EA000F2FDE3CFF9F5F5DDE2DB22F9132F1A1984
:101EB0001AFE0B0619F8FA21FBD3D604D5AEF2169A
:101EC000EC81232219563DE30BF09FED17D4E94630
:101ED000E4DD2DD2E3D6FD340BF7A9FB0624E03771
:101EE0000DFC3A0A1F141C1CD6111B282306DC0704
:101EF000FD930BC9D0191538FDCEA9C8E0D1EA046D
:101F00009D04E21AD35734FBE90B2ACEE31900AB48
:101F1000FE05FDBABAF1042514A34C2021FDF422DC
:101F20002354C3203113D1FD3B100004F908F27F84
:101F30002ECC2BD1C11333FC02D979583DD3D2CA50
:101F400045D53730BAD1E1F22A061AD8EC0D8141D5
:101F500045E013F12AD9E012DC0F50CEDFE132E484
:101F600059F92BC537CE0211FF0152B5EEC2FD1152
:101F700057F61CDEF2FBFDD9E1DD2844009944212F
:101F8000F1E56707E9F8D0231805A2440681FE377A
:101F9000CD462AFF1EE9E4CCED54BCFBA7DBC01FF5
:101FA000EA2B22CF221B16DFEF1C53FE4237F439F7
:101FB00036D501E240EBE50BDFEB341CFD0124EEEE
:101FC00043CF1AEE09F6BA200E09BB1EBEEA051869
:101FD0001461DF02E6F1FDCDEE3E0727B804E7F914
:101FE000E52C11047FEAF1E3F435002D091EFADD3A
:101FF00001FA1A050ECEBEFB3566CDBA165E1B1D64
:10200000FA051EECBC550748BBFCE8072AF9CB0FC4
:1020100043F014814722D9DF16FBE4FEDC23F2BE35
:1020200027D3E82806D5F13026F8E17715D02CE83B
:1020300013E532D8033A2BF5EFB7DDFEFCFD0ECFEA
:1020400043F6237D253EE2341678EE1D0A00133652
:102050002FF53BB314DE23F32C36D381F1FC0706B6
:1020600006DA0CE7CB2B14BB1B2328B34BF8C45167
:1020700015E3D614010A35BC22F0F50DC12A0FF480
:10208000C7CB1653E30702E304EDF3D9171BEBF5B7
:10209000F3F73E7FFF0AFC3C0B0A26DAE7CD28D097
:1020A00012ECE8F5130D1C2204F1E8D306D816E76C
:1020B00009F84919F50FFDED0C24EC3AEF17F5E39B
:1020C0001D0ABB1F32C2FBEDE8C702FC5221B4154A
:1020D000F6EB27680DF50B5417DF77816B081CCEE4
:1020E00000D9E4FAED18CC3BBA03289B300EE2EAA3
:1020F0001627AD2C23BD1FFD47012A2C3E106D571E
:102100001B3E5F20B79D06D9E52D22F4CD7FC40983
:10211000EBCD4E07F1CB720621EC5BEFF8D1CE5739
:10212000A1E60811461720F9CDE211249BB83B36F1
:10213000BEB822260978420E1303F90BE6D7EA0847
:10214000B4E04401C2041DD91EF2072CF81143E388
:102150003819EDAAC8FF19AA4514CB2DDEF47FFA71
:102160003EF4D5E8EB1EFFDED807F342B6E306E106
:1021700019FC10D2B97FD1CD4B2F1211EB2CE131CC
:102180001201E1344E021A2C1830D2EB140C211E2D
:1021900000D2C83D0B23D4190E1C100EED014232A3
:1021A000091ADF23E103B5FE001C00476ECF44038C
:1021B00006AF34F0177FCFFABFEB1F0CEA42E731CE
:1021C000B6C0E20FE222E1D917D846FFDB03E811DF
:1021D000F80DFBE81611F30A0B28E50503162E5D32
:1021E00056EB2FEB0B0910D20A07DF2402F6FBC3D4
:1021F000E46902EBE90E6290BCB4E9C0CD1D3B3846
:1022000024B97FDEF71516B600F5F55DC90C50F759
:10221000F6F4F95EB8039E1ABFE65955F7D8D815FB
:10222000C102135D1F323F486C9C27201A3E2C6868
:1022300011F36357010DF92633F109378AD341FFB2
:10224000FCEB81EA99FCFACE10DDF40CB6CCDF078A
:10225000122A3B2134F91604CC05BC00AF02A8D7E2
:102260008BE000B3C913F20425D140FFA402CEFADB
:102270001E9A36DE3BF7D0EAA69C81EBD7132BEEF5
:10228000D6D719E9FAC836ECD2C9A000FAF13E1047
:10229000F6262DEEC4C86B1B570819B70A0D19FC9A
:1022A000DCE62D3DF3661E39D5E9FF0CE9391B2527
:1022B00042D5F3D200311704D60A03DF21A6EFFC82
:1022C0003BB43D21BED4EB2113F4F9BDD6C4F120BB
:1022D0004040ECEFE0049C14434581BAF6BD14E4A1
:1022E0004311C9CE32F0310EEA5D2F2FDB0EDBE455
:1022F000DB05DEE3F4137FAEC85CF9F94916231A57
:102300005AFD07FCC6F0F910012C0CCCE40D3ADBA9
:1023100044DCEDE2FCE3041A2EDDF3C4221AE91CCE
:10232000E508150C6D1D0013AAFB58EEDEFD061B1B
:10233000343CE8DE580DA805C0CACB04CFC5023135
:102340008EF120C02DB7FDFBB0F95AB61A7F02B648
:102350008A0D2CEDD52224D0460E9F43F0510CD689
:10236000D11C2ECA26EBFDF6F1FEAF2F3111B82499
:10237000FFE00D0BEBF90205FDFC1E24B1C9F508C9
:10238000561E0BFEE5BB24F9D6DC13E738BB06026C
:1023900019054B7F14FA5059143219F5F7F336C06A
:1023A0002139092B41FBD0FFFCFCF7CA531320074E
:1023B000257F092CF72BEEF9060C41DFF048F8FEDB
:1023C0005A27C2F6ECFFEF250E1909DDBC0FF727DF
:1023D00024250E2117CC4DE0EDDA360410D8F02379
:1023E000211E234EF8FB1C03332D0223F51212ECA1
:1023F000CA2BCF3F7DD4030D1FAC1A1AB2A9CCE271
:1024000035361DC1B7A273CBCD1F48619BE7F84895
:10241000453F66571B817EBA56EFFE07AF2934E26F
:10242000E8CFF5EFCD13CF3489CA2DD8F83CF4DAD4
:10243000350AF5FD2B0CF8D6DF0450C82C2704E92B
:1024400050161DEDB6E70D3F3402BBCDCF16D13D82
:102450004942EB0A1D1381D720FD18CB0811E20079
:10246000FC6B050822FC0AE4D00514D3DEF0E1E49D
:10247000FFDD5E028160E4EF244640C9397F2E4FC4
:10248000AEFE1C4FE234B3EA37FD31FBE0B9DD5E4E
:10249000442106F464F2060845FEEBB5FAF4D420B4
:1024A0000360FD15FFD39457E45CD52AD91F650559
:1024B000FAFF03F6E7240D1138F7404BE2F2606EA5
:1024C000FA2C03040BF13C0EF7187F1FEEAEFF2C25
:1024D0000B3ED166F801E00141EF39D75724E9E31B
:1024E00040F2F7EC23CD0F211E16DB09D8EF19F5CA
:1024F000D8161C17BB0CEAFA3503E6D62D0D0CFADC
:102500005410FE3F0221DD0EFA25CC3B2181191328
:102510000BDE3E200A19EC3303F6CB2710DE20C277
:1025200027D3C9DFDA2A48E2CDD6B91918B4DD0DB0
:10253000F4280BF12504CBFBF715E2E900EFF618C0
:10254000F90801F0F5F000F1F9FEEE297FF71BED37
:10255000FF0D0A1301160CECF7E9110C01FBD12059
:10256000EEEA0118E9F6F6E4FFD0E91CF3D2EEFD3D
:10257000F0F0E807DFDDF526D6FBE2E9BA13202705
:10258000CAE6D337F8B0EAEA17E5ECEC1AF3E0CA8A
:10259000DEFF13F7EDE17FF2F4D54304DFE6FA073F
:1025A000AEE0BEFBF3F600FBF7F8EEE3E0E432E862
:1025B00002EB1EDA06211FE8E2FDF226EAC0CEC5D4
:1025C000D2F0C6F126DEEB340D0611D10319C41C7E
:1025D0000F06F8E31938F13C2F31D0E128CEEFF1A6
:1025E000577F0BCF29B1DDDCEB2AE01B590AE7F25C
:1025F0000D0DDD69F5D556D7419AEA02DBCA1FA356
:102600000B0921DEB4417FCEDF0909FA1222CD1178
:1026100008DF12FCEFBDEB44F5F14FC23E3EB0E5E2
:102620003FC5581ADB30E91313333FB8DC3412EFDF
:10263000F37DA94281C62F13E11B0426F3FD4D0053
:10264000C1FA1FE2DBE2D224B112E92C5816EE02E5
:10265000F1C7D3F5A4E30D0F15EA47901753EB72BA
:1026600045DBF50512A8271C56F01022F70F2FBEE8
:10267000466311DBE71D21B494B24CF0E4005155E0
:102680000CC7C4D7E0A507F256F2AD5216C6D21B4E
:102690006819F614EEB8EAD61E21F7AB0EE3EE0D7C
:1026A000A4B89B320E5A05FF7FF9D5FE0FF6EF6AEC
:1026B000F6C1E2E9B4E2EC001CF7CC267F3C2BD457
:1026C000031FE210E8FAD35D08F9A826F3C4F1FD70
:1026D000F1CCE134CE49ADC508DE1814871904ECFD
:1026E00000E728F515DA080E534E0409F8A20EE8A3
:1026F000EC2ACFE9E5EBEBFFFDD6E70264DEF6B6A8
:10270000D5B854A1EF433B3CEC0849F0122D4AD711
:10271000101CDED5CA3BBD2D183781346ADEE1F1CD
:102720001114221D5EF5CFFB98B30EE66510B2EBD7
:1027300018DBF8DC0F0BF405F7D41BF3CA0DFFE22E
:1027400002DF354016F2E91B141FEFECF844FD0FD1
:102750001B1D270102F17FE51718ECE1C2F62BE7FC
:10276000FD02E502EBEECAFED84D26FB16E0E40EB4
:10277000D8EA0B0412EB0318D011EC174025F9CE60
:102780001CCF7FACF83A52E414BA0F1012BD2706E2
:10279000EBDB66FCD8FCBAFDC9ECE6F01AFFEB797E
:1027A00019FE62F2ECE7F725E435C0E61CF01AB931
:1027B0005A6ADEAADBF8E9F0E5C27A29FD017FF06A
:1027C000F0C8F3E30FE4E813F3F14B48F89807FE81
:1027D00022F828E73615A1CCF53C1D15DBC9592F89
:1027E000E01B6BC14F1E212829FEFE0CF1D1011FF9
:1027F000DC2EFDBB282615124A43A6320D1C2912D9
:102800000C2ECEFBF5BDBC0BBD22DFFA3515FF3714
:1028100004F1655AC06660F74C27BDBF035A0EDE4F
:10282000F5F2E9CDA32C13E5812E2103F0C9082D83
:10283000CA45F4FEF801EEFF5A01540E01EDD633FD
:102840004C7F7EE7C32E453FF5EB47160CA94ADCCB
:102850001328BA3AD7F6123154EEC9C2A52BF73570
:10286000FBEBEDAFD10D122FA707F04A3BECD59053
:10287000ECD8F6542F04212A399AFDF9C9E0BEBBE1
:10288000111011DC173222E9C9D6FF3AC64919F0F6
:10289000E905F5EFC3FE7F12190AF8EC3C24E8D7EE
:1028A00015DDD9F129ECDEFBDA23F7C9B715FAF803
:1028B0002DEF9F32001DE51EF821F7E9CDFC04D570
:1028C000130FF4247F1DF424033DDF08024DFAF5B5
:1028D000EFFED7F141E1123CBEFC080BFCE0FE47E5
:1028E000BF02F01AD8F420E51FE7E8077CF1F5C72E
:1028F0004D0FD0C7BD3A436FDD1F9FBEDE29ED41AE
:10290000EFF616397309EC1A37EFC8A7FEA926F7B8
:10291000E1F9F50881F0B2191305E8E92ED3F9EBD6
:102920005019CFB502E34DF630DAAC1DE5D4162BC5
:1029300002B3DE0F4D3F243A3D23E3D473FDEEFD99
:102940007F44FE5E1210A166DD04FB0915255107C8
:102950002CE9B350D20CEDF6040138EDA83924A3CC
:10296000E8D9C235FBF7C81304F9380BE9F7210A97
:10297000200234BE424CE12CC2EA5CFE4831141EF7
:102980005E86E9140DE881391C7FE7E8D4EC9F20CE
:102990001CEC9E0145518A52CF0C45DAABD3B55998
:1029A000013B6A254DDFC7D11E51EB0E3D44DDD9F9
:1029B000670B290439EDE63BACC1E75046C5362C20
:1029C0000595BA12C0B3E7EB09033DEE2C8912332B
:1029D00011FCFD144AC4F42A8157E56AB4A1D53E1E
:1029E000C409B20206C008C92EE4E222F32246223C
:1029F0001CB102091318F9D2120609181F24010587
:102A0000DA08F64D0A0A441114FCB8DAF0FB343245
:102A10002E08F47FE2F4492EED26FE551AF01AF343
:102A2000082AF5039DD12A221BE4C70EF9E4DC1F16
:102A30007F030000E3C6FFFF030E000098140000B0
:102A4000CEF7FFFF7D02000053F6FFFF15280000C0
:102A5000D2C0FFFFC6F2FFFFF709000036DCFFFF20
:102A600069010000CE0800005DFEFFFF9304000036
:102A7000A905000038CFFFFFFFF6FFFF3EEFFFFF85
:102A8000FCD7FFFF920B000000EFFFFFE7DAFFFF2C
:102A90002F000000BE00000065FEFFFF09D9FFFF08
:102AA0006555000086220000BA1600007CF4FFFF86
:102AB000140F0000F40100009BC7FFFFEB2600008D
:102AC00028FDFFFF34F4FFFF26D3FFFF68FBFFFF65
:102AD00047F5FFFFA1240000E60E000044020000BD
:102AE000682900007AD7FFFFA52500008E070000A7
:102AF00008FCFFFF9C04000035FEFFFF66F1FFFFAE
:102B00009EF5FFFFA9270000C1F5FFFF5426000036
:102B10009BF9FFFFDA030000C408000047FFFFFF36
:102B2000E87F78B43963B3E005BB8AD381DE178BC5
:102B3000DF457305C0796D12207F4FF5393E587F10
:102B40005B515A1BF08115903A52935E07EEEB04ED
:102B500003385581CA09F71F814724B82FEEC600F4
:102B6000B981EFB5CFEB93BB657F434B71220E2448
:102B70002534232F5E7F3A557A26E8DDD788B6B410
:102B8000C58181536742487F35091A06A33A7FAF52
:102B9000E75F019C12A7819EB78ED79E84E3277BB7
:102BA0007F275B56F5F91E533A02727F573E6D7BC5
:102BB00021F3C5B49481978EAD2E5D36527F4429A2
:102BC0004930387B375F7F202B1304F12C37507E40
:102BD00047607F4348683F667F3A1414F62B4E32B5
:102BE000457F4028402F8FDE32B8497FEF676D4226
:102BF0001CED7F6EF51F3F15FA181315687F183FFF
:102C00004BC281ACB182A5EFDF0B2B4318677F4924
:102C10005E5B2A18743E5B7F442D3C1A0E44479835
:102C2000CE2FCC81B0677F011718ACE1E7B3332614
:102C3000814E5E8D2F3EFCE1F2077F722C716F2E6C
:102C400036220A637F163B5E108106159B1BFFB27E
:102C500027022C515381A6052A00EEA5A30381D992
:102C6000368CE401637F43394C23FA0515D2C5B88D
:102C7000F6AA8A16CD817FF7E1CC34F5F8C29065CB
:102C800059F6717FE446430E597F6A3F7B6D375991
:102C90001C9CB3D8A181E6B593DCE481A78F85C4E1
:102CA000B5D2F3EA112F3C7F52667D1DDCFF0A98F6
:102CB0009903BF81F438573C627F3738371237EFBA
:102CC00081582B850A539ED781E156EF1861EBE3BB
:102CD000B381B2AC91B6C8CCF917E381456E11CA85
:102CE000FDE55A11815FBB9E2BB8C1567F3E576EE2
:102CF000402616F67F520928A3CB99E0EA2A5555BB
:102D00009D247F829B0E0F445A427F726A6F1A1A6B
:102D1000786F357F6E0A13FFC798C3FD0918677F68
:102D20002D2B4427367F3F1E371A0F64683E7F5D88
:102D3000473A0D819FD327DCC151593A39FAFFFF39
:102D4000D82600004EFEFFFF03ECFFFFBFFDFFFF94
:102D5000C5000000C70200002728000062FDFFFF39
:102D6000B9DCFFFF0D29000073EAFFFF8DFAFFFFBA
:102D7000A03F0000B0DBFFFFC4D7FFFF1835000005
:102D80000E00000075FDFFFFA4F4FFFFBAF7FFFF80
:102D900012F4FFFFCB00000005E7FFFFE8F1FFFFA3
:102DA00052390000FDF4FFFF63EDFFFFA0130000A8
:102DB00075F8FFFFDBFCFFFF30F3FFFFD1FCFFFFE7
:102DC000EE100000E0FAFFFFB62700002CF5FFFF31
:102DD000DE280000E7F7FFFF45E6FFFF7CD8FFFF96
:102DE000D64700003245000058EFFFFFCB2200001D
:102DF00089FFFFFF390000007AFEFFFF043D00005D
:102E000085F6FFFF64050000C3EBFFFF44010000EF
:102E100059F9FFFFBBF0FFFF67F0FFFFC805000097
:102E200080F0FFFFC6EBFFFF28040000C5283A0F23
:102E3000E7FD234CF6F5174324F320A7B61FD0E790
:102E4000D0DF8CFB95311307A2FF0ED683F7BAAD06
:102E500004E00EBDA9402A7FFB75D8FD6C060D0568
:102E60001B05BDC60F06933EF5007F9FD4190D6864
:102E7000045E7DD1232047474863F12281A2EEF60C
:102E8000CF2B18F837676B31361BEB2505E6C503EA
:102E9000E634C9D14E5504E959050C62C8EF094F13
:102EA000C3CC2FDBF48C490CFF0625EBDD6C186CD2
:102EB000D2CEE704E9BAA9DB48D6103AD435002CC3
:102EC0004922243C260AC019030520F5C414814276
:102ED000ACE920F9F8F5D7A0210D26C6D4FE0BFCED
:102EE000CAF2D8E625F706FF62E4E616B4CDEC1E7A
:102EF000E72110C9B8FBE99F21D6307F35F4E8D827
:102F00000AECDBEDFB14F805E7FC30A92ADCA91B71
:102F10003AFB09DAEF220BE502085AC0EFBF2EC8D0
:102F2000F60402AAA3A01D50038716698E45FFBAB6
:102F3000C0B4E85834C31AB21BCB09C92FE8FE1B32
:102F400063BA08E93EBCFCFEB92B9602FFF4C50F3C
:102F5000DBD11D772A7F21436A00085AEAFE1CD77D
:102F6000F5B2B07FEFB2DA37E21D3ACE0FA7093DD6
:102F700012C80ED6FEEC2F48570A32101C990C0FBF
:102F8000D707F0E6EE0D1825AC1A3F24272040BBEA
:102F9000E2E2B1F4F3D5ED2744E8F32502E6F0EBE5
:102FA000BE21B114EFFFDFFE3938C9F9C0F3FC00D0
:102FB000FB31EE24B981F5C3FBE009E31AB922F233
:102FC000ED011DB3D0E2C3EFE92B19B530960E2FFA
:102FD000D2E92ED4FEE115F29ACCD9C3E525F1FF52
:102FE000ACD023F4B32D0107FA8199DF3BF40F1025
:102FF000A210F32E46A1031F53D20EFD1FEB010DAD
:10300000DBF320DBEBC0D8135F1D30E87F08000145
:103010003CE701ED2E0BDEE8E8C701DEB3EEF89CDD
:103020003A6EAAD218C9DDFDA9F820014DFBFDE6D4
:10303000FAFB18DC07E7A2C42F071BFAA2F9CC227F
:1030400016914CF3FFDDD2DA2FD4120E1DCAB50350
:103050006825E0454DEC214D1AC7FB1114FBDC3C03
:103060004BED0516C72824BACF111AE1011F27011D
:1030700041871905A97FF724ECFF0DCA0EBCE9535F
:103080009EF5B8EC17120A411BFADFB554C71015AC
:10309000201724EB11FF18CAFC1D220CF713E75B65
:1030A000FF71E419C20EFBF916C50BDAE4D80EFB6A
:1030B000D62D30ED0B0E11F05FF9EDD63D7F29E5F1
:1030C000C9BC32A8DF27F024ED572B2858202D0645
:1030D000073FBD1DBBF1FFEE0E260F10030C153789
:1030E00038EE1F1C76210629C210F7FB6A521EFF1C
:1030F0001AEE1568D97FB01B0EDFED0FEB0CFF2029
:1031000005FD13E110C403F4163500AFAD4824CC1F
:1031100008EB81FBF7DFD8D5C7DAFA0DF226024DAE
:10312000FD1600230229F4E016CF4C2FE1D9081830
:10313000F6D14D411D491A2DA517100CF1D5DDE929
:1031400073DD0BF51AAE462BC03922DE17E01CC129
:10315000EA81220938FD1E1DE301DB141ACD0C168D
:10316000F62FFA08EED809D313292615BF3CF30E23
:103170005CFF2CD6FD17DF31F60007C3F7F71846C2
:10318000F9DDDBCFCB05E8D0E10AAB03E6EBBB947E
:103190000D27EFCDF344F000DA5608E5DFF9B2E190
:1031A000C1D2D313C3E5DD0BE3366F3824F87FB10A
:1031B000F0E8BDD609DC227F1FEC091800FB70E89F
:1031C0002E10D42F054E1CD539C83A27C85318EAFB
:1031D000750DEC03D20FCA050F1EF0EA5D7FCF49D3
:1031E000E3EE0DF414FE0D92DF22E4EC38EBD5167D
:1031F00003FC1000A3E4DFD2EC09C9AFC0E209CBA5
:103200007F3B0CDB3FBAF100EED719E32257152FB5
:10321000400CDD6D34EBF9E1600FC109850E01CB87
:10322000E3D51B009C4FDA190E8E1E4C04E4029568
:103230003C9DCE32FFC83C0712EB3AE0DB5F052530
:103240000E61F502CC2AC6031CFF169435DE02E798
:1032500015E94581242502EAF8100AD110DB580C43
:10326000BC90E2DA07FC3B1618000AD93309D920D2
:103270001A12F819D9196AF80204EE0C1ECB123B87
:1032800003E11309E403191609E60A03F7F2FFE262
:10329000EE05FD07EE0C08DEFDED3E630E467F09F0
:1032A0005FE79DC80C011ACE560B17ED09E61AC14F
:1032B000D7ADBCDDC449F4E1E2FAEE13283DF95282
:1032C000AF0C09E12E04C8EE8141E0CB282E220A82
:1032D00070F50092F9F5BF1C24E826B0EEB3483C27
:1032E0002CF623E40B4706FD1FEAEB42C20BC0B4E9
:1032F00011E20F052612300D16A41317CFDCF1FDD5
:10330000440A14460ED044BE367FBC34EFDF1E1193
:10331000E011DD5603DEF232C5F50902E8FFEC49A3
:103320001502F00F06F54A012EF4F709BDE90EACBF
:10333000F6E2C95FD9F0D4FBDBF8F31ADD430600EF
:10334000E7FA257FB0DCBC081707DFED00E5131AAC
:1033500001E3160911420A29191BFAE7FFB01DF112
:10336000F73EFE92102AFD6C0A3504AD23D6C451F7
:10337000A4F50A81DA15F5F1D6AAF070C81BE2C1EE
:103380000E29F802FFF9F51805B30EE047FA1A0204
:103390001843D5D805F001020EB5D3FDE5B4F72AE0
:1033A000BB0ED4395418E22E429AF61420E7E522D7
:1033B000249D32C479A9E381CA2B3824BC42081D5C
:1033C00008F91E10E1A891A01FFEB329133CF67462
:1033D000E1FA07E3D5332AD6DE14984BFD08183AF4
:1033E000E3E4EBF9E874CE12E2DEEF11F2CBE10B8D
:1033F00032FE0C2A4B072EE62CF303007FD0E01F91
:103400002820BCE3D10046551000D841F3FCFBE76F
:10341000F6D42FB5EAB30EC3D832FBA42625D5C601
:103420000CED36CD35352F12511CDEF7E6180A03A8
:10343000E57FE2C5FFDF07F4C5EAD200D5FEEF0461
:10344000BF16CB04E5AD7F57231816BA16CED21C93
:10345000251134F40ADA1CAAD392F90BF66303F7A8
:1034600001FF09D7FD3ED0D917EC21D08FA6220E3F
:103470000E0E00D70DF6E8DADC0720CB160E0B5047
:10348000EE14D911E7FCF71907E709E5E81CF00588
:103490002FFDDA12D7E50BEDD22B0900ED0EF20568
:1034A000D9120B02253C18197FFE0AEAE72C2DEDF4
:1034B0000AFCF424F0EB1015F0E41D1D10DD2AECDD
:1034C0001023F13D120525311D00FEEF19F2D40F36
:1034D000E4D5123F0DF90F593BEC1C3DF2E5F61116
:1034E000E61005D9E4EB34DA237BFCC835162C074B
:1034F000077F1C1E24251F1621249E042CFD061563
:10350000E854BD4400EB102FC420A4D2185B4D1525
:10351000FC813DB5C4F8F2F6B3E22A19E5DBF7FB0E
:103520002EB7D1D2E81333F8E0DA0252D41E245C6D
:10353000C71EE439B2D47F612A09F0A00728C0F77A
:103540000F2DDECDD923047BFA31B64A3F21D602B6
:10355000E9192351F3E7EEDD0FD8F7DEABD7D63DFF
:1035600001E1F206FCFBF2F1F4F2E6BB70CD461B82
:10357000D3D2F1E0DBDE1AE719ECE17FEAE7F12CC8
:1035800005E9E9112F20D03A0A335644D53E0CEE16
:1035900028F6EA03E5E7F40DE2DC0733EE28E0194C
:1035A000CC0754EEE745E44AE7273BD3D40121ECAE
:1035B00027302934F2D4210308293811E0674AD38F
:1035C0000CC706ED52F6E9054EF520C6810DF01147
:1035D000DC23C61A370FF7F92B2603F9EF15F3E4AE
:1035E000FBFF04EEC2141829013B3E26F6F6D81E56
:1035F000EF002006F1C22FAA28EC0DD50D333F496C
:103600003291BD3B2CA2DD5C3C2940E9DD0829C696
:1036100081CF37C09D041513A003E7F92FEE17578C
:103620002391A15C5EF55CECE7551D0C113D580D36
:10363000D9341D122FF0051A0C7FCB01AB07038E76
:103640003F10E2C9EDE9DDD6112CF04DCCEFED6D68
:103650002AFDF5D2D314D9341735E2C013EF2DFE6D
:10366000F7E8FA4AEFE5CE15F5FAE9040FF9902AE2
:1036700021C9124AD70F042E28C7A45EFEE4207F7A
:103680000F010FE50D0713B4C4BB331BAA0BF303E3
:10369000DEFBD9E523DAFDE20FC7D538810BA73968
:1036A00034CEFDB90B98D8E50EE424B4DE2229F21D
:1036B00025E212FC25F2110E5BA2DD4F1C12023135
:1036C00008C618F32355DFC4E9A77DFF1D6A01036F
:1036D00001E9FD11001810EEF8CD61A8E80D393CA4
:1036E00097283C5F56B27F2C41279AA0C40C1BDC64
:1036F0000CE2E2B3F6E32C19003EED3D0831F72D64
:10370000B50991F86228B71B2408F4E9D93ACE7CB0
:10371000A89CE9D9FE0CEBCD043A02CBDBA7E2135F
:103720001CF7FAE1DBB459E8D8CBFCE608DACF683D
:103730007FC2237EC5CA162029F0E5220951ECD2AA
:1037400062C620F42600FE01443AD437391C1FCC4F
:10375000CFBAFC0C2427B8081D01C73F3D1303DC7A
:10376000EC49C8DB0EF4F31B2C8136BDE425EA4599
:10377000B71F1A401BA50A47F747C39A243BF0FC22
:103780001B184C0CD31EDADBE01ABBD90FDC060A7F
:1037900020F21281772ACEFCB715D9E5E8CFFECF0B
:1037A000F94AFDFCF463010DDBDAFA56C5FBFA0DAC
:1037B0002105F3381306460746ECCA002CEFF7B094
:1037C0000B13F35EF3EE5411F12B0F8D2AEAD52A79
:1037D000C6024FE4DB64BE43D538D0C0D181F4507B
:1037E000D1208E2AE2AFED4BF5D10BD73731F9F866
:1037F000FDD70849E012ACFCE6FAC55D170DEF07EE
:1038000043E348197F07254F03FB2C05F9422F0F8F
:10381000161718E501DA0AFE0E6612E50DF6C6FE69
:10382000FC1E07BD033B13ECFA20FC42E81EC80651
:103830001AE0FCF20AFB000D40AF20F507DC06DEC3
:103840000821CD5C130ED6F019EF211A2A4109BDCB
:10385000A9AEF6E106EDE90C47F2EAD619DC197FCC
:10386000C1E22E1324FBF3516B0BE7071FD10F07A7
:103870004122DBF521020EDA1201C6120BF20A37E1
:10388000FB354E1698F6FE2AF31AEB06BFED17F439
:103890001FF72AE91E9EF18F56F97102E5F11F38D4
:1038A0000A9FF881F015A4E4CAFCFE2EBA1DFDE7BC
:1038B000F7D8E11D2CF9A2F3D7C9C5BA001E13A48D
:1038C000C2D762E72BFBE7B5E8C57B5A0DEF8FFD4A
:1038D0002A69B9CF5327C7551BB7BDC8E77F1A2B35
:1038E0007D14F9F63AEB4CC9FFCEE911FBE7442D04
:1038F0007FE62BC27F0CFB582FDEBD3135FEF9A1D0
:10390000102FBDD1F7F5C55BB61E5EB993BD56D578
:103910002CDC3C53DD75C97100E7FCF0E9D2129252
:103920000BFD0B0C34F41665CEFD42E6DF130DF0F3
:10393000AA0DB43A20D3191EFCCDFDC318DB27ED28
:103940004052E1327FE8E8B753E03B07A955EAE887
:1039500030F1F2E8DE1906E6DE180A1FE11711DE83
:10396000C60314CBFBEE3109A018F0EBE1E81FA26F
:1039700008E00FDE7D31B109E02CF121EC351BE5CB
:10398000F49AF518B7267FB0E803D00C34B4E5C339
:103990000BFAFCD47DE2F812ECB6D513ADFE5EE373
:1039A00013DBD7CE085449D03D1D08DA00FBFD3AA1
:1039B00017D5E5E0F308480E0EFC24F91E21DC08BB
:1039C00005B71EF6DA17E1030C191FD90FE011F441
:1039D000CBD60C06ED08101EE2F3FC7FFECDEEB355
:1039E0000BEEEE02E62ADEA52A0E0C4F09E8D3C93B
:1039F000CB6F3128D3DC17BA4209E6FF1DB513F6A9
:103A0000DB17051CD8FC1BFE31C1FDC5FCAFEE1F4A
:103A1000DF02F60C8733FD2400ECED02D5EC81BC0F
:103A2000F2F3D3670AF80102FD021D140CEDF4EB6A
:103A3000EDF3EF350710D8C816E2D1E20608FE060E
:103A4000E011F71FE9FC050914F520E5F3FAF5F09C
:103A50000C0DE8E0FED87F42000916110198F82C01
:103A60004215082913FB0168380D08E9DE31AD6005
:103A7000F3D0BBFAFF2405E009DAF902DFD1F5F350
:103A8000D7BCDDECB47FCD3C0930EA144F0DD9DB57
:103A9000C03B3B19AF342B46551D545503ECE89EF3
:103AA000FA1E102B9E5DEFB7D1EFA6FEED22CEF9E8
:103AB000331D1B2D01CD0D16060BFD4881C5F525C7
:103AC0009BECD136AE0A35FB1C2403AFF42E26B591
:103AD0000DBC433249F424D30DF404092CE307034D
:103AE000131E0BEFD22B7FE1B9C6F61BE308E715D7
:103AF00020FAEB2ADFE71EE610E106D61FE0DC2302
:103B000005311613D62602CB1BDCEF983542DA1EA0
:103B1000240E0A06FE000BBE20F3E82F22EF75CC20
:103B2000060DD7E0F9D43C07EED73A0EC4D4DAFD3F
:103B3000411C0E2511DC17F7DD05F402E80301EB4B
:103B4000270210C51FF4F17FF61FC9EA2DF42DC915
:103B5000CECAE3FCEB640B350516BFE9DBA2DE90B1
:103B60000C7245DBB4892AB652DF0AF91CD1272B27
:103B7000140BE74B9D25BEAF65DA0BFECAF31F554C
:103B8000067F50CE0AE0AE1BD2EF713D1010EE2D35
:103B9000B3F8C27E291429CEC1D5F4D9BA22312175
:103BA0007F76568A6DE424E38BCD01C70BBBE1AA77
:103BB0000B000D43C2E9D6DC6A59040FFA6D8A3A4C
:103BC000E6C565001BF2290DF731F00025160FCA76
:103BD000291AF54539DCFA17DC7B1F202F39057FC0
:103BE0002135ECF518A1E6EBF812FBEBE4F2262206
:103BF000FAE00EE845F2E9432C253C11EDF121D61F
:103C0000F6482F1816162BE053ABC524FDB51E92AF
:103C100081477C03F5F2E2E536FE320E12BE34F740
:103C2000AD0E180E140DFDD22DF8DBD00A74E90785
:103C3000F700EB67E435DFFCF43B3804D1CE101B12
:103C40000F1621D80412EB1A26EF1B03953D59D20B
:103C5000BFB50F19BCE3E925FACBE1EEAD101B3778
:103C6000ECC7CD96EDD7F1C4FD7FC734EDFE5ED92C
:103C7000D51DE631232A7329D3D9B00120FC48CBC6
:103C8000FDE40ED013FE36DCBC3503D304318311C2
:103C9000C1FBE2EF0FCA81C820CA048FFB100207E4
:103CA0000219D9E632ABD42FD6D4991F2FDB680185
:103CB000F6050910FED9E1BB04D41C4B0FFAFFE74F
:103CC000D89CB01B291245D1DC0D1CFEEB366DF0E3
:103CD000FE3504F07F36E51268FE0D961C49D323AD
:103CE000C117360EE9DD31D5D43CA8D5020DCCF98B
:103CF0001CAB3E0B1217212C126E1043F80EDC1079
:103D0000FB0AFE1D0A69D233AF13EC1FFA18E9153E
:103D1000EF0BE8F625E5F2FDBF09F37FFB1FD0FEB0
:103D2000D52FCEFDCE0947F2ACF929CE1812FD7F72
:103D30000909F3DFE3D6295EFC4FDDC5002EE83C20
:103D4000BFC13C1B0223F620EF9C06E392240251E4
:103D5000F0FFE8E5FC472D3FDE52E0F9301314EEAA
:103D600008041B292C773A36ECD12616EBFC18FBFD
:103D7000E5FBEEEFF708F6F7FFFD0D09041800F775
:103D8000F2EB091EEE0B07EAF916E6FAF2E101F58D
:103D900081E0EE0CE8F40FE5E810F4E1130706FC0F
:103DA000020816FDCE6CF5F3F8A6271CE4A330F646
:103DB000E84FC1A813EB64070E812C1B2130AECB5A
:103DC00018CEDD16F3060D11D03CE1152EF8666B0A
:103DD000B7D4BB020A190045DBFB30045C1AD3439D
:103DE00081150430F8EAFA3FF0F9F2C60228782E7D
:103DF0002CC125F1E39CEBE44708F2FD39F6383598
:103E0000FCF2D71BF3F22B080614002EF31F6FD31E
:103E10000A3312E220EFDE37E9F010E26F1FED0CFB
:103E2000E24720C0EFDBB95B130EF8E5D9EB33CEE8
:103E3000D9ED053DECC9B71627B7B1F73105FC3C04
:103E40007FE2DAF6C706FEEF260BFBEDDF062EA0BB
:103E5000350F6CD9075FD6FBB20240F638F63AFF51
:103E6000AB0EED03F101B816E0164122F8E6B502FB
:103E7000EEF886D430C620E2CF0226ED7FE5E511CC
:103E8000F0EBEDD74DB2DFD6C91C200CD9EF1942AB
:103E900024E319EB05222F31321F1DCEBF16E6E3B6
:103EA00003DB10D5C8147FE70F1BCE822E2209C476
:103EB00029383BEE3F072AE13E0604E5D319E4C961
:103EC0000A00E51CF113051BE4DB070CE2C8132F05
:103ED00008320C18081C06BA320C13DD100200B0B0
:103EE00021F6DFEFDE7FE4F6DEECD915BEA636164E
:103EF000FF1015C6DAE906BC05DFB2DD363110D891
:103F0000F6FB084256BF86F09AD5751E9EC4B20DC8
:103F1000DDABFDFA8146253B2618B609131FB444D4
:103F2000BDD3F1AC25F86F36EB424A19445DD9EBAD
:103F30002719DCD01A7D87FE242B36D04DDDEF2CDF
:103F4000A52FD1FF06E89227E1FDF10E291C40FDC7
:103F50001BBDEEF6100FF6D61B05D5CC2201ECD218
:103F60007FE9F31932D8631DFCF902075633023496
:103F7000272AEA0748E0EFE116F705DDFBC2CAFC95
:103F8000FA9EC3F91001C7F21D1EE3D6DE1FF0E44E
:103F9000F93B10273CDE055FCA38F3D9F88E4AC0DA
:103FA0000E0F0081B740FD10EFE7FB2C0D1AF00F4C
:103FB000421A282A16013034A2FB5742FDEE09E1CD
:103FC000C7E8900219D50DEEE0E32D0E3ADE03F2BC
:103FD0001EEAF1A9DF1A06EEEDB8D5382EF82A2030
:103FE000FBD0052C1617E60D0706D1EFB800141309
:103FF000FA12FEDEEFC43A7FDE49F1DCD1D881D679
:104000000BE206E17BB5E81D45F4CBFA333AF9390A
:10401000BCC8C3FD66BE134A41151F6CF5BD2E0911
:1040200006DCD1AE39DFE002EF7D122AF3321EEE5C
:10403000DDDBD93D36EF31D12336BD02F31EDFD0B3
:10404000BBE14E18E208449100DB2B59D8D8F71396
:10405000C07F9D4FFCF8C404EE11ED0B1B3CEDB48A
:10406000290D2B02C70FF9E32DFAD8DEF152A5A7CF
:10407000F8EEEB0222112DF62FDA194FAFE7F7DA3F
:104080001127F5A3D9A64FAA21812B06088ED93571
:104090002370EB45C82634BF7B100AF7126E34CD6F
:1040A0001A0F0106F63024901E2B37B0FA71B4FCBB
:1040B0000417F5D0D1EA165A9B4E2C790A12180B28
:1040C0007FAAE921D8DCCFF6F0F32E30FA46D211E0
:1040D0005011FCC90D9CFFDFDC394961D91BE42874
:1040E000481E1C960EF3D011DAF0B5D312D681FB20
:1040F000E8F4DE483AC00EBBC9EBC7E50D0D04215C
:104100002B1E1FD1EB93C6E3E24FF2C81ECCFE0973
:104110004D1B0737182C42084DE813FAF8F103132A
:10412000DB50B6F54017D2E32DFE2EDCFCD923F58B
:10413000EE25D7150D06F530059CE5341E7FE7F713
:10414000D6F144EB0506071BF8EE2BFAF5DAF5ED90
:10415000F8B5D225181DF53B0A0EE63ACF9E15D9C3
:104160000E0936D62842B307D8E705EB28CFDB3057
:104170004D0FBBC2D31B0E07FEF0E0FCF7FAE83D83
:1041800012BDD1F281F119F3F2B711EC031732EB42
:10419000D50D791E222224CD1206DD04E5F417EC9C
:1041A00001411817E647F2F118F8F00C3026D22F2B
:1041B000FBF9ED260C7FBE1F10E4C219EA1FE731A0
:1041C000B4C105D9EBF5E018021D322322D736EE33
:1041D0002E1BF8EC20ED10CA1444D809190FBCD1DD
:1041E000F1F0FF6E0D1C6CDD0FF83BDA0903FEE306
:1041F000C1EF7BF3EAD9FAF25318E6D97F0DE9F261
:104200001950F7880B07E5B9E30ACB072025079477
:10421000DEED43A420BFDF0EDFFDFBF42DEEFC0539
:10422000A30C04BC25AE078E0B6922E9BFBF18EFB3
:104230003357B8F20C4FF71F70DEF78E08F90BAD4D
:10424000DC4AE23124FEBD2602F1FEA7D2213981EB
:104250001115FB1D2827DE15E82A10D981B4CFBA25
:10426000D11C0FCECEA5382125EBC63C2016DEF1A1
:10427000FDEFD30E1BE3001B56DFEA37F7F53437AB
:10428000BBD501EFCBFDEFBF2413322DE869AFFEA4
:1042900009EDBE021AC2F8A6EFF3E9F2BB98FAD212
:1042A000FD29F2C4EB521E7FD326E118014CDE58E3
:1042B00023E90EE4A9E535CD1BC7033512E7EFED81
:1042C000D40A0E5A5AB6C8E1300ACA29D41E37FF9A
:1042D0001AF9EF0DD8DCF30113F0FBF3F24C08C729
:1042E000F0DB2E0D22FD0DEE2B1A0B0FADFEE709B4
:1042F000EEEB06F91FFB1DD8440A1ADAE42332DD7F
:104300002E7FD9C4E6FAFEFEDB0FFAF43BEB00DFAA
:10431000CD1FBC7FF82616F3E2B6071DD6C1052EC9
:10432000C2DEDE0710B9DDF3CB56ED3ACB00FBC69B
:10433000280FC512F3B621F53907FB121C02F91D2F
:104340002A3E021DB816F3DA1611C6B6D0D60C0FE7
:10435000D4E71E16812611C12E4327F02331DDBA82
:10436000FBDC3C44FE14E84D3DD5E6E6E826A70C10
:1043700026EAE6BC4D020AD4EF2A96FC2140FFF65D
:10438000EF0EFDE3EBD51B24C940252215122CB9F5
:10439000D1F502F80EAEBC092FC71011EEBE16689B
:1043A0007B240DEA00F30BB4E75700F7E5541BEC50
:1043B000E5E2EB7F02BA06322904981E772B00CC87
:1043C00007FE3A74DDEF0813BF1EE707BFF4C7F21C
:1043D000F639E054D08E8129DDEEC901CC940AFB78
:1043E0003EB0EDD0322F39B0BD5818DAF5F108AF34
:1043F000F85411DBDA1ED6322504FAE1DE14F0128D
:10440000290EF9BDF36B0102FE070705243315F8E9
:104410000681FE1AE5EAAF13EFF7F7FD21EF08F783
:10442000020DFADB2B1C473603DD092F19D8F9D30F
:1044300008EFF1E6D208E80720E413CD5CB4BB47EF
:104440002AE710818C6227B5CECBD20565DF490AF9
:1044500006B0372EAAFAF6D213C810015E11FEA4D8
:10446000282AEB05F2313BF51420CCF1061F10DEB3
:10447000FCC7E01CF3DBF7EBFF02063F3D0CEB7FD4
:10448000DF4026331EB8021204FB0CF12FD018F2C5
:10449000CF1A0659FDF7F421681E2ADBD851F4FB28
:1044A0009F2717E59C45E44AEF021008ECECB1FFAA
:1044B00000F31AF32C08E20DFCC4F2E8C70D40C566
:1044C000100354FD0D04EB5B630FE7E44A312DEC60
:1044D00071FB02127F17F004F3EDFC00E625239533
:1044E00049E0E4F2D14404C6F509E72B0CF3FA1FC6
:1044F000CDE3E3BF2409DBEE1DF4C4EA2AE2F609AA
:104500007FDD101E050CF5E31315CCECEDF4FB2A52
:10451000E6EB14D109782F05FDBC0620E1FC181349
:10452000C5A62D062EE7326C2FD1F5C6D881E95DE0
:1045300030BB4620221D1D3510A3F1D3E8322DCA11
:10454000F125E6E10312F3F548B833D6DB2B244717
:104550009C27D330F33014E2F5EE29DDBDF2BE2105
:1045600034D4D4001BF323C939E9184DF5FED2D356
:10457000D904C8EADE2ECB11BA080B7F09CB16F39B
:10458000E60B254431C40DE5F9EF1DA5EE7FC41BF4
:1045900026EC28EFECF8F02C3E0576EBBF21CCEFB3
:1045A000BDD1E12CAAEF10F50D3979EA3CAAEA2D2C
:1045B000C54D178F6E9F942A2D6C10558DEAF656B7
:1045C00018180537282D18B33407330C58EDFA2383
:1045D000F4AF815D10C593E9F11CE5DD4DE61A29C4
:1045E0000CA5010DD3B60D17BE56E4E85F4BC9E02C
:1045F0002FE449D103112CBA11D5FC23BBE71A0AC9
:10460000CE00C9E8E5D921FBA4E22B7F31EBD85DD0
:10461000DFF8CB12F00A1E1A11E4E3EF2CF4ED9C44
:104620000022F3EBBE531F05F81C0CCFDCA9E417E6
:10463000ECCC03FFADE2CFDEEEBBCC2CBD1FD0C176
:104640007FD84FE9E2DCF46C09E303D972C142FF81
:10465000040558D12D1CFB02BEB4E4B93F1304CAB3
:10466000E17F4FE5EBDBBFE02020C2047D4D370842
:10467000ACE2F9C0D41000CF47D52B8C4C35012AC1
:104680009DE70DA60B38059032CE60CEB7E7F44219
:1046900035E302DB1C12DA0625B0DC08CB21F1433E
:1046A000D0F92CEC1BC7F7E3F60EFBFC6F21F3ED02
:1046B0002AC302FA2C1A81040C0023FC1120FBA649
:1046C000CC1966100A07D6F91A16C7D2EDE7E5D459
:1046D0002DC5E506F7E4DABAC1E303DCE70D250CE6
:1046E0001AC9FF27CBFC2C09991A40504A06E71338
:1046F0003344A5C3F56230010710EAD80F00810AE0
:104700000A32B807D6E8F140E90EF302A2F6CABDB4
:10471000F0411B42D53BD7247F17B82D0FC0D5D110
:10472000F9A7256DD3451D204D95F943EA090BF6F0
:1047300039CB2EF7EF432C0F25CBE83AF8D9DAC066
:10474000222B00007CA7FFFF68460000841A0000AF
:104750009D3C0000AC040000B5320000864F000014
:10476000F33B0000D40B00006DDFFFFF15BEFFFF21
:10477000C5290000B4130000B02A0000C5EDFFFFFA
:104780003210000072030000531C0000CF3B0000F9
:10479000E00E00006B1200006F140000612F00009B
:1047A00070DBFFFF8D110000871D0000A7F3FFFFE6
:1047B00073C7FFFF21310000C61E0000D4E4FFFFD5
:1047C000C2F6FFFFF82B0000D1D1FFFF7F140000DD
:1047D00059310000C30600001DFEFFFFA23B000090
:1047E0008FF9FFFFBD1300004DDAFFFF70FBFFFFE5
:1047F0003B4000002BEFFFFF98E8FFFFC6140000CE
:10480000772900004D120000AD69000054F9FFFF48
:10481000EB260000E5170000CF210000180A000079
:10482000EAFBFFFF1D4A000087B2FFFF10210000D6
:104830003F740000333D00001FEAFFFF4EE1FFFF21
:10484000490A0000451800006002000075EFFFFFF4
:104850000B530000AF2400008AEDFFFFAC3D0000C9
:1048600077000000A4090000C1FEFFFFB41900009A
:10487000D6140000AA3400001C0F0000D0E6FFFF91
:10488000B61100000AECFFFF10310000ABE2FFFFA1
:1048900046100000512400004F240000AA0D000023
:1048A000081400000522000094190000DAFBFFFF45
:1048B000BA2D000094100000AC5C0000FB0B00005F
:1048C000971800001E0A000081FBFFFFDD100000AA
:1048D0003C8900000D11000054330000552A0000EF
:1048E000594200008B5800002C15000089E681CD4C
:1048F00003F8A984C4947F41BE4472E8FE46591C63
:10490000B547FBD0FD810607A8A8C681E990C0CCB9
:104910000E117F09EA4FDEEB0ED19C937F0C172A14
:1049200076160FDCCC7FFA9A2FBCD21D3516ADED72
:104930001AAB9981646BC9561EB8BD81BB81C28F09
:1049400025EC961424CA7FF909FDF2080A0BF3F04E
:10495000303014DE037FDBCDF7C543BCD831B3EA7A
:104960007FAFD9810D62059BBBCD81B9CE2DBCAA8D
:1049700028E1EE7F747ECFE708BF90DEECAE272AF9
:10498000BFCB2A7FD60D0A3F26CD416BF37FF3FCC8
:10499000EF0CEFE5C58181194F48F57F0D29764968
:1049A000C7F67FFEF4011FCECF1400121EF40E7F57
:1049B0001D4DD8226DF2EB22CF81B572067137CB37
:1049C000D17F9FEE796DD7E9A10C81CC7ED6CFE85F
:1049D000157F37FF55E46CD032AC81D969E44FA123
:1049E000203681D552440BFFEAD172DDCF2B0081F6
:1049F000C4C181B1C4CCED4450E9F53FEDCBF2E93F
:104A000081D1AD9803EE8432EC81C803C3D98ED531
:104A100081AFC70DF8FC5A067F7826796C0A0241EF
:104A2000C2084DC7CB6B7F5906BD437F1FEF13FAFA
:104A3000EDA1C1B6788CA27FF1E2FC0D7F2EE53EA0
:104A40002FD581A6BE69C301735F0E7F00EBE8F32B
:104A5000F550019AFDFBED25F6097FFD17ECD4F228
:104A6000B4097FD1F5507FAA17D3151FBC2ED9EFFB
:104A700081C2081C0DB86136CDD3D1F2C99981B479
:104A800086C229DF9FCE93677F5D7FDAB03CD7D6A1
:104A9000FAFFFD09EE54D2818C334D28C4E6BBB732
:104AA000D8BF81E2D0BC97B081FCD50C6925C1C0CC
:104AB000B5A8D2812B64267F1AC700FB2EEA072AED
:104AC000A0E607006D1935FC7F2AD7C47F029566E2
:104AD000A2C4D17F21CF6C0CC916FCAF21CFA30299
:104AE00081AFCF0C338C6442CAAC8171FE08DF27E2
:104AF000FAF629AF810A124E40D80C05DA7F4181BF
:104B00009DB92656172C18288155E92548C729C96B
:104B1000E530814559C30139909F27B7EB47B77EF0
:104B200081DA62D9E061C1B2ED627FD931D0CD7F47
:104B30000FF91C1B0FCB05C2CCDCB181BDB851B342
:104B4000C57FDAEB54D1EFC7CF01B67FBB0CDAC813
:104B5000A1EC2F7FFAF851D19BE37FEA404FBBAA2B
:104B60009BDA7F145E201EF5CCE60EAA8107181D85
:104B7000FF54354FFF2B0304EF7F1A05262E01A8A3
:104B800019F20981CF5CA93933E55A0EE97F17C1C3
:104B9000E2B181A4EDC1CFE8EA2654027F20BFAB89
:104BA000C0120607D0DEFF1E577F9BB5CA81A5DE67
:104BB0008EB7C5169BDBE681171C0E49EBD1CD15D0
:104BC0005CD37F65E70B8E267F13DBB6359BE5183C
:104BD000B2B67FE5D0F72245F3C8B75FB5DC7B817D
:104BE000FDC681F4CAADDA94877F633C60C1BB47E0
:104BF000E514B0B785357FE4DC22CA2649FCFC8188
:104C00004716CB30E539DDD97FF4B8EF378FE74B66
:104C10000519177BFA81813D92EE79B9E02BC18BA2
:104C200081B134DDDB6E52277F5842D489ED6A4C66
:104C30006DC9437FDDE2FC1DB698F081F4733AB391
:104C400035F5D681A46CC90A5A85D2CF89F2A281E2
:104C500084C3DD2EF9DA7F5B0BE8EF0CCF071E7FF4
:104C6000311CC1EC6D1A3A3B18813BCDE7E7DF22DE
:104C70009C8DE7AFE67F35EBC9113EB34345C68156
:104C8000DBE7E49BD239007FF0C123EEF1F37F062E
:104C90005B21EE0C81ECCC4B54F6E2F5E3BCD7186B
:104CA000815D3BC41C19BA0BEFF32BC381E8FE00F6
:104CB000A41C0000C9EBFFFF2BFFFFFFC41F000077
:104CC000FDFBFFFFB2FEFFFF730000007412000047
:104CD00017FEFFFFEC1C000092FAFFFFCDFCFFFF68
:104CE0009BFEFFFF7C0800001B17000080FEFFFFFB
:104CF000A90000001CF5FFFF40FFFFFF0FE2FFFFD0
:104D0000CD000000A0EAFFFF390700007DFAFFFF99
:104D10004C00000064F0FFFF9200000010FDFFFF58
:104D2000550C00002B150000CF0E0000DCF9FFFF32
:104D30004C180000F0D4FFFFFBF3FFFF72EDFFFF04
:104D400060FFFFFF7DF5FFFF51FCFFFF5BFBFFFFF7
:104D500071F9FFFF22FCFFFF88F5FFFF9E060000B0
:104D60007528000058F5FFFF31FFFFFF0209000022
:104D7000D72600009E0F0000321000005FF1FFFFF9
:104D800098F2FFFFD10300008EFEFFFF86FAFFFFBF
:104D9000CCFDFFFF920D00003EEFFFFF3CFCFFFF4C
:104DA0008A00000047FFFFFF28010000A5FFFFFF6A
:104DB00051F8FFFF25280000E1FAFFFF1E00000068
:104DC000E2010000B1FDFFFFD2F7FFFF63FDFFFF2F
:104DD000DDFAFFFFDD05000032F2FFFF02410000B7
:104DE000E003000075F7FFFFE3330000910F0000C0
:104DF00084FDFFFF5FFFFFFFC4FEFFFF77FBFFFFA8
:104E0000092C000035F8FFFF75020000F7FEFFFFD8
:104E10003CFDFFFF24FEFFFFA5020000CD010000C6
:104E200086F5FFFFCFFFFFFF3EFEFFFF6E0900008C
:104E3000F71B00008BF9FFFF34F3FFFFA301000015
:104E4000FDFDFFFF2FFEFFFFA0FEFFFF8EF3FFFF24
:104E50007E02000019000000B8F8FFFFFCF43FE6F6
:104E6000CA970B381AEA96F4B624271FEC1C00DB0D
:104E7000DBFA42562831B6D8E91F0B0600C0EF5DB9
:104E800012F623FB2E46ED91DD40080833C5150CC4
:104E9000B5E013FF0239185154043ADEAE37EEFB89
:104EA0000E5DECBB371B18091E13DCF1C5D71702CA
:104EB000CA0939D406140811BE3E34FB071FFDBFD2
:104EC000097FCB5ECE05FDFD2C211EA93C06163BBD
:104ED000EF001ACF2F2837EF0F00ECD63147D92E2D
:104EE0001A21FF172DD8FC1BCE00F3EF30CD24CBB9
:104EF0001DFE10003231C41934261407011B00FDB9
:104F0000FC0CD3D8CA2307CD0599E831F424451DFC
:104F1000128162E0422CFB4416D3F4C7E01AF8ABCE
:104F2000F7E117D61B0212EE0915C108D2EFCA35F8
:104F3000BE01D65218250013EB44FEE4C310ED0960
:104F4000DFC212BA00EBFA3401FDDA85142AC9D1A6
:104F5000EF04E8EE0D123B082EBBC2F619B40B327B
:104F6000EAF2DFEBDE39E4282200FAC3F07619C852
:104F700081F12EEEFAF8D3E5FC4546F6366EE91ED1
:104F8000F1E6B50AC1C1024CE1FFFE07FA180618A6
:104F90001AD373ECF70E0909545FDDB4FE1CF94611
:104FA0002D0812A9021E0FC4112F06D828E2E7000F
:104FB000D7EBED08F21025F0080110020618242D99
:104FC0000FFAE7EAF89DD7F31AF4EFD2F503EEFBF8
:104FD00030E6321900211FCC1DE8E0F311B6F2CB08
:104FE000FCED1E1A099AF4335200C121DC51D3A6FC
:104FF000ECFE2D0401E4C22040DEDA3A0BE842F078
:10500000110A0D22527FE0FF0B95F12BD6740A0E88
:10501000152CF9811CFB291F2312002FFEF2084BCF
:10502000AEF1C00822ECFBFB1486D2D415C93621A0
:10503000AFB7200B9FB9E34589E9F1FFA41C4A00F3
:10504000ED04C85B4CF139A5E5D5A73B50C3CAD8E0
:10505000177FB6C852918EE04318440801D2F63E3D
:105060004F6223F0EEF627E9ECDD323E07C30F5A1C
:105070001B4E0328D6F718ED24240F2BF9D734EA5A
:10508000FC092A2BFC00E3FC41DC1CEF0DF3D301EF
:105090002804FE330AF336003037D73B33EB672D55
:1050A00005071B5C1C3EE90410A0013834E6DFB0A4
:1050B00016DD22DDEC1CD9DFEDDA1A21100F18DB2A
:1050C000E04322D8260B1744FED7FB052CDA1DE659
:1050D00015DC012EE72681051A0CC8EF0B02E4024D
:1050E0002B50CB1A1EF511DCF3EB83184621063D3D
:1050F0000004FED11512FEB3F919E3F90F03183AB3
:10510000F5E4FEC61929BDE7172D96280FFDCCE55D
:10511000F9A498EC33013506BDDFDDCD0F04AD1BDE
:10512000FECFD90F1FDDE4E5E97FF4E8DDFD0428BB
:10513000FA2AB54AE6FDF8F4E3BD3F14C4F8FACA0A
:105140000A03FA174809C6C9FE5FFFE5013DE2FC04
:105150003DECFAEAE4E1211BFA312200B41AE3B093
:105160001201EABC32D6C9E000F3F8DADBFEE90B43
:10517000EC81ADFAF14F101245F70101F1F7DD02B4
:10518000FFF20BF4EE10E253F1EB220BFBE330E6FF
:10519000BFB7F161D433F80743F9EE0AEB30C90029
:1051A0000DF92EF523FDCAAE07110A54D7F9193FA0
:1051B000E51126FDFEA23240C23030E612B8DDEB2A
:1051C000CE49674F34F700131BC63705EDF5CC0BFE
:1051D00026E2F9FEDAA7A8B32CBE20C7C2E92A440A
:1051E000C81E2F02D7AFEBF474E90EFF1B53CE4855
:1051F000322B39FB812F42171DEE01D4C8DFED0998
:1052000041BCA6F20F330C21E3161C1B4CFA1DE720
:1052100015C7DE361F49EB1FFDDCD3F61B780026D1
:105220002DF307C619F0F3F1211E0914211DDF1219
:10523000CE00E6F4F6E3D92EC2E392E83203F90297
:10524000021A46000413F61EC2F30724313511F882
:10525000142D322AF81400E0C8093638FF210B7FDC
:10526000FDF4163A000DE0E528C21D140A1043E1D2
:10527000EEEDF809121C1FF7410E040AEE20D814B7
:10528000D7F3F007FD05F21BB2FEEAD32FF900D7E2
:105290000E220A104AFADBFF27FA0149004EECFE03
:1052A000F917EB2A3F0B123F0502F430B9E1C9ECC4
:1052B000FA05380107EB7F0ECA3313F407D6E9EB82
:1052C0003F0122F313453BF9F7E6F92C14FA2BD9E9
:1052D000ED0F0E0F04FA3528B9D8DEDCF310D843F1
:1052E000E2270CE6F2FCFF11F823D505FC3108F6A5
:1052F0000804010B022DE5E2FE2134D4FFFDFFD3AB
:10530000020F557F290AEF000C031709EB6A01E130
:1053100044F30912FCC3CBD1D12815E8DDDDBBFC79
:1053200025BDFDC7E2F91B0FEC18152D01E3BEF2F8
:1053300006323933E0E23DD518383B43ACDFF0DECE
:10534000C8272DFF17CD0DFD103A251B2949292A05
:105350005A11EB3F01F115041611E2EB147DBAFE70
:10536000271C0ED32BAF1E10EFD539CE0637E648DB
:10537000CCA7001BE4940708150ED7F5089D37004D
:10538000F7A8E5C802F8DEFD1FFAFDC82B1226E9D2
:105390003E39D809EEE8F5FFD104BC1D09F4090C2B
:1053A0002A27CC071D06F5D9E5DAF0D9F6C17FD357
:1053B000C5F3FDDB77A5FAD7DFB0F4FCA7C2FC008C
:1053C000D1D11CA90123F4F105CCFE5B19FEAE4638
:1053D000273624ECFFFCD0B41F2AD1282E00D6D9C2
:1053E000870FF8EF229F11DBC4DAFEF515FAA91931
:1053F000D2E55907FAD4DE86F027F1BF04F9D6E9E1
:10540000D4F000DF5309F8BBD91BB7129A58BE037A
:10541000F1D5093E140F2AE9F4E97F0514FA42C5D3
:10542000B1030611FCEF3EFBFCE2EB2C3A37DBFF4D
:10543000DCDA01C4AB00CBF42039D8F4FC10F7F16E
:10544000E629E5143216F8FE0010E006F903C3035E
:10545000CDFFDEEF2BFF2E132CCF082103E9CB0F5E
:1054600020C60E24FF1D18EBC4DC08D513FF240949
:1054700013050514D8D8F924FAE121DD18FE61D509
:105480000208021108FA06F7DDFF81FCF5F5F8AE17
:1054900015F7C8E4BF0734F1EB14FDEB0CE0FEEAAE
:1054A000FDF8FCF5FC210CE5CD422F04FFED40DCBE
:1054B00010F6DB000A1315001EEDBB2906F73F406E
:1054C00001DF3E17001DF17F02012114FE210FF1C3
:1054D000FF5F1C3B29BB2EFD00F319FDDC3E51088C
:1054E000DC4B2815080D0C39E8041EDBCE040ABF7E
:1054F000255DAC43E8E44EF931FC04F00A1EF3F8F4
:1055000048DCF20ADBFF3F43284648007FD6EED84E
:10551000FA1DF173F8F255062F32B33D60F200DD4B
:10552000E58F1BC5E66309FD4012350004F19EE2DC
:10553000FEBEEAEED5D62D58ACD30A1E051D44C5D5
:105540001CD27301F1689F104D2723FACDA0973E1E
:10555000DA370CD82B21BBC04E90EFEBF01F5D1C4F
:10556000484F6922462C3338ABA51727BF902A1D18
:1055700003FED5032A2C0417FEEA37C1E7D909F93F
:10558000310AECD53513100AF40081DC230B062612
:10559000E52FC9C714DE02031562F819FC1C1015AB
:1055A00024E41710171A1E1CB3D4D1FDD2FEFFDD60
:1055B000F80ACE02DAC8232915F833CBD7E1AD00BB
:1055C0001CE3D3E7C5CEF13EDF0F0ACBDB083B5C23
:1055D0001F55FCF92331F101CDD04DFF182E04F4F5
:1055E000D6FC870603DCFFE636164AD90B1BD64DE0
:1055F000E26C02130060601DB2C2F523CF1EEF0CF7
:105600000E0B04D1F3EF43CBC912C30AED1DC9033E
:105610000BF1DE2BE62419CE4300DFDDD9F55A0568
:1056200005F3E145470A1EE47FD2760108C52C62E6
:10563000192C0C13D400BC601FFF25D523DEF2B457
:10564000BD0CF04CBBF3F246C5E355F8FE16362010
:105650002CB5F4EE2EC161C80ED2163113BEF30084
:10566000D9A74227EEFB7C4754EA4C1C012DD9EB0D
:10567000110A4AD72EF1AFE5EBD6FD012A446C366C
:10568000E96AC2A502FEECDE105421D31D1BDEDA4E
:10569000F3D250DE7F43C6C23BB426F00710CC0FD6
:1056A0001001F5C0BC16E50446D94FE92A07E854B5
:1056B000E304E517AF63D702E8097FF7FB4713F56B
:1056C0003E25DB420C073715E7F900426225173605
:1056D00024E316DA64F412FCEBC5FCC8331122187B
:1056E000ED42F12E0817FBFDE7D747FF041E5EFFD2
:1056F000F228E77808F3E7FF2323CC06FCD13ADF52
:10570000D855F83C41D22D06DD0C36F146FCD9D4F3
:10571000FEF70611FF3A1DD41F152F12F8F9385F56
:10572000F743057BDF06FF5912177F32C001E047C0
:10573000F2E7DC0A1800515A2A303DF12592024C5A
:10574000DAE40313BFDAD30A13F6BAA2DC24C51FC6
:10575000F7E940B7F9C119E2E826001235AB3FE698
:1057600045119DE313FBFFFA6A1E0EBE2729CA2BC3
:10577000789E34F24AD7F004EE091EB3060BD934F2
:10578000EEE7E5B84A34DC0102D71CF3EBFFE7E9AA
:10579000F8DC7FFF66E0EB4C2523D704FA22B5E85E
:1057A00000C525A8FA23EFD4D6B32038E7080708A8
:1057B0000087E3090BFC1BEA29B026E9EFA100EA08
:1057C000D32B0421F3FD0AF7EB0BF613F13C2DD29A
:1057D000D30A3303FE4725DA1B0ED4DA13FFF8E4AD
:1057E000B1C620EAE5BF0BD0EEFA18EACF30222B83
:1057F000101BF900D31A18FDF328ACFE1ABE29F6C7
:10580000C637ECE3F0A60D3BF5FBDE00680CACFD03
:105810001DA2C126EDF3D31C0044001936F6ECD7C7
:10582000E9DF1B031E81B24BB33210C3F6162F2BD8
:105830000011970BD908E7D626089EDE1B44E132FB
:10584000FDADEA10D04F47F2F5D3343B31F8AB3E13
:10585000599A1E10E23DC0F0ABE63EDDE70132177B
:10586000B6F4FCFCE7F71FD4D9D11FCB2C04DB091D
:10587000EE0ADF551D2D00081FF6E1F0D6E7B5B49E
:10588000EF012C04D3CDDDD454E03DE229DD020646
:10589000F7562718F3CBFEE9CED00400EDF7F869F0
:1058A0004606E1D0B46B9D24F6CFB32781EFDDFB34
:1058B00042DD40C2DF2233F112D40CFF0D141CE292
:1058C00040FB3DFF132CDE22FEE63370EF14000C8C
:1058D000B4E50AF527200A3B0B07EBCBDF162C4279
:1058E0003500123BA7EF3E06C8E4B82C0DEE0410BD
:1058F000ADE6E3E1D4DCE0D3D2C6133CF0C1E2B1C3
:105900000BD90ADCD57FFFEA4AFEB601F70836B5A7
:105910000E0A35F6BC03D34B330DFCE3FDC91A0563
:10592000F4DBF614191F2A18FEFB01EE24E2F4F151
:105930003226F4F904F000FE1A0415FFCBF1E73328
:1059400013FAFFE30E211CF9130DEAE60018FDFF20
:105950000D2DFE080F3BEFD423FBFD09371A0D2850
:1059600014E8190BF101D8E9EAC00BE00B07FB1DA5
:10597000E0FF120DDAFEE106DB17E70513F901FC83
:10598000DE017F0217E636E02FF40A03E91D1FD877
:105990001CFC251FEAEFEE1600F91410F81AFF2779
:1059A0001EEFF709FF0FFD42EE12F3D2CBC1A2307A
:1059B000D623FB7F2B26320012CC48051BB7F7E419
:1059C000DB1AF1920A06EA30DE0BCD44634CE3D3D6
:1059D0000E5043EE40091459C7E31FE400D0E1EB39
:1059E000780D39F61421E22321CBDC026737AC2194
:1059F000002F3B0000D2E801EF3B3CBDAF0FE22D92
:105A0000FACF1A0EECEA8B5C7EF6E712CFFE3BFF74
:105A1000D405334830FB21D00DE48E2B68250101DD
:105A2000D6EF009886D4F8301EA72E05D936C0FAD6
:105A30000E2D3C0D02DDE205AD02D6F484F8E2CA7B
:105A40002EE7C125DEF1BA012E1D34C7E6C4C43EDF
:105A50000A060F13E9CD750037153922251E19C026
:105A60007FDF0632B435E10FDE0CDF4DFE25141664
:105A7000EFE0B0E202D51EEC131A02FA03F2813F06
:105A8000ED1DCD0CF0C8271C2AF2E4FC25002C04E7
:105A90002BFE23411F04FBF91F17F5E60BED391907
:105AA0001604E3E812020B48CAE5E0F93008C633F1
:105AB000F6F900E212D70D1938120A34F507E7E6B5
:105AC000D6E7FE9BEAACAD0917D230CBC208BB0EBD
:105AD00063DC17480CF20C2AC5F410F7FBF4ECF762
