:020000040800F2
:100000000000032079140008F1120008F312000820
:10001000F5120008F7120008F9120008C9140008C8
:10002000000000000000000000000000FB120008BB
:10003000FD12000800000000FF1200080113000874
:10004000C9140008C9140008C9140008C91400081C
:10005000C9140008C9140008C9140008C91400080C
:10006000C9140008C9140008C9140008C9140008FC
:10007000C9140008C9140008C9140008C9140008EC
:10008000C9140008C9140008C9140008C9140008DC
:10009000C9140008C9140008C9140008C9140008CC
:1000A000C9140008C9140008C9140008C9140008BC
:1000B000C9140008C9140008C9140008C9140008AC
:1000C000C9140008C9140008C9140008C91400089C
:1000D000C9140008C9140008C9140008C91400088C
:1000E000C9140008C9140008C9140008C91400087C
:1000F000C9140008C9140008C9140008C91400086C
:1001000000000000C9140008C91400080000000025
:1001100000000000C9140008C9140008C914000830
:10012000C9140008C9140008C9140008C91400083B
:10013000C91400087D40000800000000C914000830
:10014000C9140008C9140008A5400008C914000813
:10015000C9140008C9140008C9140008C91400080B
:10016000C9140008C9140008C914000800000000E0
:10017000C914000800000000C914000800000000B5
:10018000C9140008C9140008C9140008C9140008DB
:10019000000000000000000000000000000000005F
:1001A000C9140008C9140008C914000800000000A0
:1001B000C9140008C9140008C9140008C9140008AB
:1001C000C9140008C9140008C9140008C91400089B
:1001D000C9140008C9140008000000000000000055
:1001E000000000000000000000000000C91400082A
:1001F0000000000000000000C9140008000000001A
:10020000C9140008C9140008000000000000000024
:1002100000000000000000000000000000000000DE
:10022000000000000000000000000000C9140008E9
:04023000C9140008E5
:1002400010B5054C237833B9044B13B10448AFF310
:1002500000800123237010BD481900200000000019
:1002600018E6000808B5034B1BB103490348AFF378
:10027000008008BD000000004C19002018E60008AE
:1002800010F8012B11F8013B012A28BF9A42F7D040
:10029000D01A7047034613F8012B002AFBD1181A15
:1002A0000138704781F0004102E000BF83F0004355
:1002B00030B54FEA41044FEA430594EA050F08BF01
:1002C00090EA020F1FBF54EA000C55EA020C7FEAC5
:1002D000645C7FEA655C00F0E2804FEA5454D4EB42
:1002E0005555B8BF6D420CDD2C4480EA020281EA0C
:1002F000030382EA000083EA010180EA020281EA44
:100300000303362D88BF30BD11F0004F4FEA013195
:100310004FF4801C4CEA113102D0404261EB4101A4
:1003200013F0004F4FEA03334CEA133302D052422A
:1003300063EB430394EA050F00F0A780A4F10104E6
:10034000D5F1200E0DDB02FA0EFC22FA05F2801820
:1003500041F1000103FA0EF2801843FA05F3594106
:100360000EE0A5F120050EF1200E012A03FA0EFC85
:1003700028BF4CF0020C43FA05F3C01851EBE371AF
:1003800001F0004507D54FF0000EDCF1000C7EEBCC
:1003900000006EEB0101B1F5801F1BD3B1F5001F0A
:1003A0000CD349085FEA30004FEA3C0C04F1010429
:1003B0004FEA445212F5800F80F09A80BCF1004F52
:1003C00008BF5FEA500C50F1000041EB045141EAD4
:1003D000050130BD5FEA4C0C404141EB0101013C9D
:1003E00028BFB1F5801FE9D291F0000F04BF01468C
:1003F0000020B1FA81F308BF2033A3F10B03B3F15E
:1004000020020CDA0C3208DD02F1140CC2F10C02ED
:1004100001FA0CF021FA02F10CE002F11402D8BF4B
:10042000C2F1200C01FA02F120FA0CFCDCBF41EA17
:100430000C019040E41AA2BF01EB0451294330BDE6
:100440006FEA04041F3C1CDA0C340EDC04F11404C3
:10045000C4F1200220FA04F001FA02F340EA03009A
:1004600021FA04F345EA030130BDC4F10C04C4F1E0
:10047000200220FA02F001FA04F340EA03002946C0
:1004800030BD21FA04F0294630BD94F0000F83F40A
:10049000801306BF81F480110134013D4EE77FEAED
:1004A000645C18BF7FEA655C29D094EA050F08BF39
:1004B00090EA020F05D054EA000C04BF194610461A
:1004C00030BD91EA030F1EBF0021002030BD5FEA5E
:1004D000545C05D14000494128BF41F0004130BD86
:1004E00014F580043CBF01F5801130BD01F00045DA
:1004F00045F0FE4141F470014FF0000030BD7FEA4D
:10050000645C1ABF194610467FEA655C1CBF0B4647
:10051000024650EA013406BF52EA033591EA030F5E
:1005200041F4002130BD00BF90F0000F04BF002156
:10053000704730B54FF4806404F132044FF0000589
:100540004FF0000150E700BF90F0000F04BF002102
:10055000704730B54FF4806404F1320410F0004568
:1005600048BF40424FF000013EE700BF42004FEA63
:10057000E2014FEA31014FEA02701FBF12F07F43E0
:1005800093F07F4F81F06051704732F07F4208BF97
:10059000704793F07F4F04BF41F40021704730B59E
:1005A0004FF4607401F0004521F000411CE700BFEA
:1005B00050EA010208BF704730B54FF000050AE06D
:1005C00050EA010208BF704730B511F0004502D56E
:1005D000404261EB41014FF4806404F132045FEA70
:1005E000915C3FF4D8AE4FF003025FEADC0C18BF19
:1005F00003325FEADC0C18BF033202EBDC02C2F10B
:10060000200300FA03FC20FA02F001FA03FE40EA9C
:100610000E0021FA02F11444BDE600BF70B54FF0A0
:10062000FF0C4CF4E06C1CEA11541DBF1CEA13557E
:1006300094EA0C0F95EA0C0F00F0DEF82C4481EAE6
:10064000030621EA4C5123EA4C5350EA013518BF06
:1006500052EA033541F4801143F4801338D0A0FBF3
:1006600002CE4FF00005E1FB02E506F00042E0FBA0
:1006700003E54FF00006E1FB03569CF0000F18BFA6
:100680004EF0010EA4F1FF04B6F5007F64F540744E
:1006900004D25FEA4E0E6D4146EB060642EAC621E1
:1006A00041EA55514FEAC52040EA5E504FEACE2E4E
:1006B000B4F1FD0C88BFBCF5E06F1ED8BEF1004F51
:1006C00008BF5FEA500E50F1000041EB045170BDCD
:1006D00006F0004646EA010140EA020081EA030111
:1006E000B4EB5C04C2BFD4EB0C0541EA045170BD0D
:1006F00041F480114FF0000E013C00F3AB8014F187
:10070000360FDEBF002001F0004170BDC4F10004CF
:10071000203C35DA0C341BDC04F11404C4F1200550
:1007200000FA05F320FA04F001FA05F240EA0200AB
:1007300001F0004221F0004110EBD37021FA04F6E1
:1007400042EB06015EEA430E08BF20EAD37070BD9B
:10075000C4F10C04C4F1200500FA04F320FA05F0FA
:1007600001FA04F240EA020001F0004110EBD370FC
:1007700041F100015EEA430E08BF20EAD37070BD6C
:10078000C4F1200500FA05F24EEA020E20FA04F345
:1007900001FA05F243EA020321FA04F001F00041F4
:1007A00021FA04F220EA020000EBD3705EEA430E65
:1007B00008BF20EAD37070BD94F0000F0FD101F094
:1007C0000046400041EB010111F4801F08BF013CCD
:1007D000F7D041EA060195F0000F18BF704703F00B
:1007E0000046520043EB030313F4801F08BF013D92
:1007F000F7D043EA0603704794EA0C0F0CEA13554E
:1008000018BF95EA0C0F0CD050EA410618BF52EA07
:100810004306D1D181EA030101F000414FF000000D
:1008200070BD50EA410606BF1046194652EA43061B
:1008300019D094EA0C0F02D150EA013613D195EA8F
:100840000C0F05D152EA03361CBF104619460AD1D7
:1008500081EA030101F0004141F0FE4141F47001E1
:100860004FF0000070BD41F0FE4141F4780170BDD1
:1008700070B54FF0FF0C4CF4E06C1CEA11541DBF36
:100880001CEA135594EA0C0F95EA0C0F00F0A7F838
:10089000A4EB050481EA030E52EA03354FEA013165
:1008A00000F088804FEA03334FF0805545EA131378
:1008B00043EA12634FEA022245EA111545EA106540
:1008C0004FEA00260EF000419D4208BF964244F1D7
:1008D000FD0404F5407402D25B084FEA3202B61AF6
:1008E00065EB03055B084FEA32024FF480104FF4CA
:1008F000002CB6EB020E75EB030E22BFB61A75463E
:1009000040EA0C005B084FEA3202B6EB020E75EBD0
:10091000030E22BFB61A754640EA5C005B084FEA38
:100920003202B6EB020E75EB030E22BFB61A754605
:1009300040EA9C005B084FEA3202B6EB020E75EB10
:10094000030E22BFB61A754640EADC0055EA060ED1
:1009500018D04FEA051545EA16754FEA06164FEA14
:10096000C30343EA52734FEAC2025FEA1C1CC0D1C0
:1009700011F4801F0BD141EA00014FF000004FF04D
:10098000004CB6E711F4801F04BF01430020B4F10E
:10099000FD0C88BFBCF5E06F3FF6AFAEB5EB030CC6
:1009A00004BFB6EB020C5FEA500C50F1000041EBC3
:1009B000045170BD0EF0004E4EEA113114EB5C0490
:1009C000C2BFD4EB0C0541EA045170BD41F4801163
:1009D0004FF0000E013C90E645EA060E8DE60CEA6B
:1009E000135594EA0C0F08BF95EA0C0F3FF43BAF88
:1009F00094EA0C0F0AD150EA01347FF434AF95EA3F
:100A00000C0F7FF425AF104619462CE795EA0C0F22
:100A100006D152EA03353FF4FDAE1046194622E7EF
:100A200050EA410618BF52EA43067FF4C5AE50EAC9
:100A300041047FF40DAF52EA43057FF4EBAE12E7B9
:100A40004FF0FF3C06E000BF4FF0010C02E000BF9A
:100A50004FF0010C4DF804CD4FEA410C7FEA6C5C7D
:100A60004FEA430C18BF7FEA6C5C1BD001B050EA20
:100A7000410C0CBF52EA430C91EA030F02BF90EA0B
:100A8000020F0020704710F1000F91EA030F58BFCA
:100A9000994208BF90422CBFD8176FEAE37040F02C
:100AA000010070474FEA410C7FEA6C5C02D150EACA
:100AB000013C07D14FEA430C7FEA6C5CD6D152EA85
:100AC000033CD3D05DF8040B704700BF844610464A
:100AD00062468C461946634600E000BF01B5FFF749
:100AE000B7FF002848BF10F1000F01BD4DF808ED19
:100AF000FFF7F4FF0CBF012000205DF808FB00BFEA
:100B00004DF808EDFFF7EAFF34BF012000205DF843
:100B100008FB00BF4DF808EDFFF7E0FF94BF012090
:100B200000205DF808FB00BF4DF808EDFFF7CEFF91
:100B300094BF012000205DF808FB00BF4DF808EDD0
:100B4000FFF7C4FF34BF012000205DF808FB00BFA1
:100B50004FEA410C7FEA6C5C02D150EA013C0AD1B9
:100B60004FEA430C7FEA6C5C02D152EA033C02D1AB
:100B70004FF0000070474FF0010070474FEA41020C
:100B800012F5001215D211D56FF47873B3EB6252DF
:100B900012D94FEAC12343F0004343EA505311F006
:100BA000004F23FA02F018BF404270474FF0000098
:100BB000704750EA013005D111F0004008BF6FF0D6
:100BC000004070474FF00000704700BF53B94AB96A
:100BD000002908BF00281CBF4FF0FF314FF0FF3045
:100BE00000F0E4B9ADF1080C6DE904CE00F03AF87C
:100BF000DDF804E0DDE9022304B0704707EE900A57
:100C0000F5EEC07AF1EE10FA01D400F00BB8F1EE77
:100C1000677A08B517EE900A00F004F8404261EBDD
:100C2000410108BDD0B5FFF7A1FC00220B4B0646E1
:100C30000F46FFF7F3FC00F0BBF90446FFF774FC26
:100C40000022074BFFF7EAFC02460B4630463946C6
:100C5000FFF72CFB00F0ACF92146D0BD0000F03DC1
:100C60000000F0412DE9F04F099D884604468E466C
:100C7000002B4AD18A4217465FD9B2FA82F64EB1AA
:100C8000C6F1200301FA06FEB740B44020FA03F390
:100C900043EA0E0E4FEA17481FFA87FC230CBEFBEF
:100CA000F8F108FB11EE01FB0CF243EA0E439A4205
:100CB00007D9FB1801F1FF3002D29A4200F25481A9
:100CC00001469B1AA2B2B3FBF8F008FB103300FBFD
:100CD0000CFC42EA034294450BD9BA1800F1FF33E9
:100CE0002CBF01240024944502D9002C00F03F8140
:100CF000184640EA0140A2EB0C0200211DB1F2406F
:100D00000023C5E90023BDE8F08F8B4205D90DB162
:100D1000C5E9000100210846F5E7B3FA83F100298F
:100D20004ED14345C0F01281824240F20F81084605
:100D3000002DE8D0C5E9004EE5E7002A00F0AC80C0
:100D4000B2FA82F6002E40F0BB808B1A4FEA124EA8
:100D5000BCB20121020C80B2B3FBFEFC0EFB1C33C3
:100D600042EA034304FB0CF29A420ED9FB180CF141
:100D7000FF382CBF4FF001094FF000099A4203D908
:100D8000B9F1000F00F0EC80C4469B1AB3FBFEF8EB
:100D90000EFB183304FB08F440EA034294420BD9DB
:100DA000BA1808F1FF332CBF01200020944202D969
:100DB000002800F0D1809846121B48EA0C409DE7BD
:100DC000C1F120068B4008FA01F400FA01F922FA79
:100DD00006F728FA06F88A401F4320FA06F3380C73
:100DE00023431FFA87FC1C0CB8FBF0FE00FB1E8897
:100DF00044EA08440EFB0CF8A0450ED93C190EF14C
:100E0000FF3A2CBF4FF0010B4FF0000BA04503D968
:100E1000BBF1000F00F0B880D646A4EB08041FFA1F
:100E200083F8B4FBF0F300FB134403FB0CFC48EA2B
:100E30000444A4450ED93C1903F1FF302CBF4FF0F8
:100E400001084FF00008A44503D9B8F1000F00F0E5
:100E50009F80034643EA0E40A4EB0C04A0FB02EC87
:100E600064457346E04602D307D1F14505D2BEEB97
:100E700002036CEB070C0138E0465DB1B9EB0302ED
:100E800064EB080404FA06F622FA01F3CC401E4390
:100E9000C5E90064002136E7B1FBF2FC010C144601
:100EA00080B2964641EA08412026904640EA014336
:100EB0001046B1FBF2F1A3EB080341EA0C414BE70A
:100EC000B740C6F1200301FA06F221FA03F84FEA0F
:100ED000174E20FA03F3BCB2B0401343020C190CB6
:100EE00080B2B8FBFEF90EFB198841EA084109FB04
:100EF00004F8884551D9791809F1FF3C2CBF4FF00F
:100F0000010A4FF0000A884502D9BAF1000F31D02A
:100F1000A1EB0801B1FBFEF909FB04F80EFB191166
:100F20009BB243EA0143434535D2FB1809F1FF3137
:100F30002CBF4FF0010A4FF0000A4345BBD2BAF173
:100F4000000FB8D1A9F102013B44B4E7841A68EB61
:100F5000030201209646EBE63A44A8F102082BE78B
:100F6000ACF1020C3B4410E702393B44A9E63A4499
:100F70000238BEE6A7EB0808A9F1020C4144B1FB18
:100F8000FEF909FB04F8C9E7AEF1020E3C4444E760
:100F9000023B3C445EE749468DE7A1EB0801CC46A5
:100FA000B1FBFEF909FB04F8B8E700BF704700BFCA
:100FB0004A0011D212F5001211D20DD56FF47873D8
:100FC000B3EB62520ED44FEAC12343F0004343EA2D
:100FD000505323FA02F070474FF00000704750EA78
:100FE000013002D14FF0FF3070474FF000007047E2
:100FF00000B595B03822002106A80BF0BBFA0021FD
:10100000182268460BF0B6FA0021012001F0FEFB21
:1010100008B172B6FEE700F009FD08B172B6FEE74E
:10102000012000F0DFFC08B172B6FEE7124A136837
:1010300023F00F0343F002031360202306930123E0
:101040001090CDE90E3006A800F062FD08B172B62E
:10105000FEE71F235022CDE90030702302900221C9
:101060006846CDE90332059300F066FF08B172B619
:10107000FEE715B05DF804FB002002407FB500F0EC
:1010800071FAFFF7B5FF1422002101A80BF072FAE4
:10109000414B4FF48071D3F88C20404842F001025C
:1010A000C3F88C20D3F88C30002203F001030093A6
:1010B000009B00F057FC4FF480700123CDE9010341
:1010C0000023364801A9CDE9033300F085FB00F089
:1010D0005FFC08B172B6FEE700F04AFC08B172B6D8
:1010E000FEE700F075FC08B172B6FEE70C254FF480
:1010F00016532B4C2B49C4E90200C4E90550C4E93E
:1011000008002061A06260662046C4E9001302F076
:10111000B6F9014608B172B6FEE7204602F0CBFAF6
:10112000014608B172B6FEE7204602F0E4FA08B1C3
:1011300072B6FEE7204602F0A3FA08B172B6FEE7E7
:101140004FF46123184C194AC4E90200C4E90405AC
:10115000C4E90600C4E90800A0622046C4E90023EF
:1011600002F08DF9014608B172B6FEE7204602F0A2
:10117000A2FA014608B172B6FEE7204602F0BBFAB9
:1011800008B172B6FEE7084802F07AFA08B172B602
:10119000FEE702F02BFDFEE7000C034000000242D8
:1011A000F819002000240440641900200038014090
:1011B00072B6FEE7074B82B0D3F8942042F00402E7
:1011C000C3F89420D3F8943003F004030193019BF7
:1011D00002B07047000C0340142210B50446A8B0BA
:1011E00000210DEB02000BF0C5F9782200210AA8BE
:1011F0000BF0C0F923683A4A934238D14FF4000308
:101200000AA80A9300F08CFF08B1FFF7D1FF354B15
:101210000C21D3F8A820002442F04002C3F8A820F3
:10122000D3F8A820304802F040020192019AD3F886
:101230008C2042F00102C3F88C20D3F88C30CDE929
:10124000074403F001030293029B0223CDE9051337
:10125000082305A9099300F0BFFA4220224621463F
:1012600000F0D2F9422000F0FFF928B010BD1F4A6B
:101270009342FAD101230AA80A9300F051FF08B162
:10128000FFF796FF174B0024D3F8A420164842F42A
:101290008042C3F8A420D3F8A42005A902F4804218
:1012A0000392039AD3F88C2042F00102C3F88C20F9
:1012B000D3F88C304FF4C06203F001030493049B15
:1012C0000223CDE905230723CDE90744099300F064
:1012D00083FA3D202246214600F096F93D20C2E7E0
:1012E00000240440000C034000000242003801408A
:1012F000FEE7FEE7FEE7FEE7FEE770477047704750
:1013000000F04CB90120704708B50BF0FDF9162329
:1013100003604FF0FF3008BD08B50BF0F5F9162358
:101320000360FEE770B50D4614460E46731B9C42E3
:1013300001DC204670BDAFF3008006F8010BF5E735
:1013400070B50D4614460E46731B9C4201DC2046C8
:1013500070BD16F8010BAFF30080F5E74FF0FF30DA
:1013600070474FF4005300204B60704701207047D6
:10137000002070470B4A0346116810B509B90A49A5
:101380001160106809490A4C0344091B8B4206D9B5
:101390000BF0BAF90C2303604FF0FF3010BD13605F
:1013A000FCE700BF8C1A002020A0002000000320D2
:1013B00000080000104A82B0D2F8883043F470036D
:1013C000C2F888300D4B1A6822F004021A601A68BD
:1013D00042F001021A60D3F8942803F5006342F04A
:1013E0000402C3F89420D3F8943003F0040301936B
:1013F000019B02B0704700BF00ED00E00004034015
:101400006FF48871164AD36903F00C03194111F087
:10141000010F14491FD003BB9368180214D5124A58
:10142000124832EA230228BF0246C3F341730A601E
:101430000A6822FA03F30A4A0D48126A02F00F0200
:10144000825CD3400B607047084B0B60D2F81431BC
:10145000C3F30133ECE7074BEDE74FF0FF33EAE767
:10146000000C03400000002000D8B80500366E01D3
:1014700058E600080024F400DFF834D0FFF79AFFA4
:10148000002103E00B4B5B58435004310A480B4BDF
:1014900042189A42F6D30A4A02E0002342F8043B7B
:1014A000084B9A42F9D30BF035F9FFF7E7FDFEE759
:1014B00000000320C85C010800000020481900203B
:1014C0004819002020A00020FEE7000038B5214B7D
:1014D00005461A780AB9012038BD4FF0E023186993
:1014E00010F0040016D04FF47A73B3FBF2F21A4BEB
:1014F0001868B0FBF2F000F0C5F804460028EAD105
:10150000024629464FF0FF3000F07EF8134B20468C
:101510001D60E1E7124BD3F8003103F44003B3F54B
:10152000800F07D0B3F5000F0DD0002BE3D14FF49F
:10153000FA53DAE74FF47A73B3FBF2F24FF4FA435B
:10154000B3FBF2F0D7E74FF47A73B3FBF2F24FF448
:101550000043F5E704000020000000200800002000
:10156000000C03400C4A10B51368032043F4807349
:10157000136000F037F8FFF743FF042000F092F803
:101580000F20FFF7A3FF044618B9FFF713FE20460C
:1015900010BD0124FBE700BF00200240034A044BBA
:1015A00011681B780B441360704700BF901A00202D
:1015B00004000020014B1868704700BF901A0020FB
:1015C00038B50446FFF7F6FF0546631C1EBF044B03
:1015D0001B78E418FFF7EEFF431BA342FAD338BD94
:1015E0000400002007490302CA6803F4E06322F400
:1015F000E0621204120C134343F0BF6343F4003360
:10160000CB60704700ED00E0154B30B5DC68C4F3EB
:101610000224C4F10703251D042B28BF0423062D33
:101620004FF0FF3594BF0024033C05FA03F321EA91
:101630000303A54022EA0502A340002843EA02036F
:10164000ACBF00F16040074A4FEA0313DBB2ABBF07
:1016500000F5614000F00F0080F80033135430BDF6
:1016600000ED00E014ED00E0002807DB0123410954
:10167000034A00F01F00834042F82130704700BF4A
:1016800000E100E00138B0F1807F3FBF4FF0E02380
:1016900058610020986137BF1A69012042F00302A7
:1016A0001A617047042818D8DFE800F00A182617D6
:1016B00003004FF0E022136943F004031361704705
:1016C0004FF0E022136923F004031361114AD2F8AA
:1016D000003123F44003C2F8003170474FF0E0229C
:1016E000136923F0040313610A4AD2F8003123F48A
:1016F000400343F48003EEE74FF0E022136923F048
:1017000004031361034AD2F8003123F4400343F485
:101710000003E0E7000C034038B50446FFF74AFF3A
:10172000054644B194F85430022B06D02023A3651B
:10173000002384F84C30012038BD2268536943F0FF
:1017400004035361052384F8543023681A69900414
:1017500019D55A69216D42F002025A61042284F8B7
:1017600054204FF4FE42DA600122090648BF616F3F
:1017700084F854204FF0000042BF0A7300229A649C
:1017800084F84C00D8E7FFF715FF401B0528DCD98B
:10179000A36D43F01003A365032384F85430236D35
:1017A0001D06C5D50122636F1A73C1E728B190F8F1
:1017B0005430022B03D0202383650120704704237B
:1017C000026880F854305369002043F4005343F01A
:1017D00004035361704700002DE9F04F00234FF0E0
:1017E0000F0A5E4C0A6832FA03F501D1BDE8F08FAA
:1017F000012505FA03F919EA020200F0A180032786
:101800004E684FEA430806F0030507FA08FE6F1E0C
:10181000012F6FEA0E0ED1F808C031D8876807EAA9
:101820000E0BCF6807FA08F747EA0B07876047688F
:1018300027EA0909C6F300179F4047EA09074760EE
:10184000C7680CFA08FC07EA0E074CEA0707022DE6
:10185000C7601AD14FEAD30C00EB8C0C03F00709D8
:10186000DCF820704FEA89090AFA09FB27EA0B0B1A
:101870000F6907FA09F747EA0B07CCF8207004E074
:10188000032DDDD1BCF1010FDAD1076805FA08F5A7
:1018900007EA0E073D4316F4403F056050D023F0A1
:1018A000030707F1804707F5483703F0030C3D6E47
:1018B0004FEACC0C0AFA0CFE25EA0E0E284DA8427F
:1018C00040D005F58065A8423ED005F58065A84268
:1018D0003CD005F58065A8423AD005F58065A84260
:1018E00038D005F50065A84236D005F58065A842D8
:1018F00014BF1025072505FA0CF545EA0E053D66CF
:10190000D743D4F8805016F4803F0CBF3D401543B8
:10191000C4F88050D4F8845016F4003F0CBF3D400A
:101920001543C4F88450256816F4801F0CBF3D4051
:10193000154325606568B60254BF3D401543656098
:1019400001334FE70025D6E70125D4E70225D2E78A
:101950000325D0E70425CEE70625CCE70020034089
:10196000000002420AB18161704781627047000045
:101970000146064A106810F0010009BF13680120F3
:1019800023F004030B4308BF1360704700040340B7
:10199000002006220D4B9860DA601A6822F00102DE
:1019A0001A6004221A601A6822F440321A601A6817
:1019B00042F440221A601A6822F440221A604FF45E
:1019C00000721A625A629A62DA6270470004034037
:1019D000034A0020136843F001031360704700BFFF
:1019E0000004034032210E4AD36823F0030303436B
:1019F000D3600C4B00041B684B430B49B3FBF1F362
:101A00000133D16830EA010104D00BB903207047DB
:101A1000013BF6E7002B0CBF03200020704700BFFE
:101A2000000803400000002040420F0038B50B4C76
:101A3000E36843F48073E360FFF7BCFD0546E368A9
:101A4000DB0101D5002038BDFFF7B4FD401B0128A4
:101A5000F5D9E368DA01F2D40320F4E70008034083
:101A60003222114B1B685343104AB3FBF2F3104A66
:101A70000133916850B921F002019160D16B880760
:101A80000ED50BB903207047013BF7E741F0020187
:101A90009160D16B890703D4002BF3D0013BF8E7A9
:101AA000002BEFD0002070470000002040420F00C4
:101AB00000080340024A136803431360704700BFE5
:101AC000000803404FF488730D4AD16901F00C01FE
:101AD000CB40D80712D49368190209D509480A4A9D
:101AE00030EA230028BF1046C3F34173D840704743
:101AF000D2F814310448C3F30133F7E703487047C1
:101B0000000C034000D8B80500366E010024F40034
:101B10002DE9F743044620B39E4D0368EE69DF07C5
:101B200006F00C0618D423689D075ED42368D806F7
:101B300000F194802368590700F1B58023681907E4
:101B400000F12C8123689A0600F1728123685B06FC
:101B500000F1B78100201BE0082E436803D1002B61
:101B6000E1D1012014E063B3B3F5803F13D12B68BA
:101B700043F480332B60FFF71DFD0546854F3B681E
:101B80009803D0D4FFF716FD401B6428F7D9032033
:101B900003B0BDE8F083B3F5A02F04D12B6843F464
:101BA00080232B60E3E7B3F5A81F2B6802D143F431
:101BB000A013F6E723F480332B602B6823F4A013E3
:101BC000D8E72B6823F480332B602B6823F4A01311
:101BD0002B60FFF7EFFC07462B689903A3D5FFF7AF
:101BE000E9FCC01B6428F7D9D1E7042EA3680AD109
:101BF000002BB6D0674AE168136923F4F81343EA6F
:101C00000143136192E7634DBBB12B6843F400635A
:101C10002B60FFF7CFFC07462B689A0407D52B698A
:101C2000E26823F4F81343EA02432B617EE7FFF7EF
:101C3000C1FCC01B0228EFD9A9E72B6823F400637D
:101C40002B60FFF7B7FC07462B689B047FF56EAF50
:101C5000FFF7B0FCC01B0228F6D998E723694D4D69
:101C600083B12B6843F480432B60FFF7A3FC074646
:101C70002B681A043FF55EAFFFF79CFCC01B0228DF
:101C8000F6D984E72B6823F480432B60FFF792FC9E
:101C900007462B681B047FF54DAFFFF78BFCC01B7D
:101CA0000228F6D973E73B4BD3F8942055073CD470
:101CB0004FF00108D3F8942042F00402C3F89420B6
:101CC000D3F8943003F004030193019B324A314D61
:101CD000936A43F0010393626369002B3FD0D5F808
:101CE000102141F2883922F080021343C5F81031E7
:101CF000FFF760FC0746D5F81031980718D56369DF
:101D000041F288391906234D24D5D5F810311A052A
:101D100014D5B8F1000F3FF411AF1E4AD2F8943039
:101D200023F00403C2F8943008E74FF00008CDE731
:101D3000FFF740FCC01B4845DDD928E7FFF73AFC18
:101D4000C01B4845E1D922E7FFF734FCC01B4845DA
:101D50003FF61DAFD5F810311B05F5D4D9E7D5F8FE
:101D6000103141F2883923F08103C5F81031D5F8DC
:101D7000103123F00403C5F81031FFF71BFC0746B0
:101D8000D5F810319807C4D5FFF714FCC01B48459F
:101D9000F6D9FCE6000C034000080340624FA3693B
:101DA000D7F8145193B3E26905F004039A420FD0B7
:101DB000AB070DD525F00305C7F81451FFF7FAFB63
:101DC0008046D7F81431980719D40120FFF7F8FBA3
:101DD000E36925F004051D43534F45F00105C7F89D
:101DE0001451FFF7E7FB0546D7F8143199073FF583
:101DF000A9AEFFF7DFFB401B1428F5D9C7E6FFF7B4
:101E0000D9FBA0EB08001428DBD9C0E625F00105BA
:101E1000C7F81451FFF7CEFB0546D7F814319A07DF
:101E20007FF590AEFFF7C6FB401B1428F5D9AEE650
:101E3000256AE5B9002E3FF494AE3B4A136823F0BF
:101E400001031360FFF7B6FB0646374F3B6803F00C
:101E50000403AB423FF47AAEFFF7ACFB801B0228D1
:101E6000F4D93B6803F00403AB42EFD08FE62E4D6C
:101E70002B6803F00503012B3FF473AED4E909315D
:101E8000AA680B4322F06042134343F40003AB60A3
:101E900096B9FFF717FE2B6A244A03F00F03D35CB1
:101EA000D840234B1860234B1868FFF70FFB00281E
:101EB0007FF457AE0425C5E72B6843F001032B6080
:101EC000F8E7194AE56A1368BDB923F008031360FF
:101ED000FFF770FB0446144E336803F01003AB4267
:101EE0003FF438AEFFF766FB001B0228F4D93368D5
:101EF00003F01003AB42EFD049E603F01803082BC0
:101F00003FF42FAED4E90C109368014323F0E05363
:101F100043EAD10343F4000393601368102543F0B0
:101F200008031360D4E700BF000C034058E6000824
:101F300000000020080000202DE9F0410D46044675
:101F400010B90120BDE8F081414A136803F00F0386
:101F50008B4219D32368DF0721D422683D4B12F04E
:101F600002011B6A44D1560741BFE16823F07003A8
:101F70000B430121100741D5216923F4E06343EAB3
:101F8000011334490B623BE0136823F00F030B434A
:101F90001360136803F00F038B42D2D1DAE7616854
:101FA0002C4A022913681BD113F4003FC9D0D3690E
:101FB00041F2883823F003030B43D361FFF7FAFAA9
:101FC0000646244FFB69626803F00C03B3EB820FF3
:101FD000C3D0FFF7EFFA801B4045F3D90320B1E7E8
:101FE000012902D113F4005FE0E713F0040FDDE7ED
:101FF000A16823F00F030B430121B4E70029C0D1EE
:10200000D30642BF6269134B5A62114A136803F048
:102010000F03AB4210D8FFF755FDBDE8F0410D4B63
:102020000D4A1B6A03F00F03D35CD8400B4B1860BA
:102030000B4B1868FFF74ABA136823F00F032B43C2
:102040001360136803F00F03AB427FF47AAFE2E74B
:1020500000200240000C034058E600080000002069
:102060000800002008B5FFF72DFD054B054A1B6A47
:1020700003F00F03D35CD840034B186008BD00BFCA
:10208000000C034058E600080000002008B5FFF7E8
:10209000E9FF044B044A1B6AC3F30213D35CD84024
:1020A00008BD00BF000C034050E6000808B5FFF76C
:1020B000D9FF044B044A1B6AC3F30223D35CD84004
:1020C00008BD00BF000C034050E6000808B5FFF74C
:1020D000C9FF044B044A5B6AC3F30213D35CD840C4
:1020E00008BD00BF000C034050E60008094B9A6889
:1020F000110209D512F0805FC2F38163064A0748D6
:1021000018BF1046D8407047D3F814310248C3F3C3
:102110000123F7E7000C034000366E0100D8B80534
:102120000368F7B5DF0708D599494468D1F800215D
:1021300022F001022243C1F800219E0708D59449EC
:102140008468D1F8002122F004022243C1F8002162
:102150005D0708D58E49C468D1F8002122F010022D
:102160002243C1F800211C0708D589490469D1F828
:10217000002122F040022243C1F80021D90608D5EF
:1021800083494469D1F8002122F480722243C1F8C6
:1021900000219A0608D57E498469D1F8002122F4ED
:1021A00080622243C1F800215F0608D57849C469DE
:1021B000D1F8002122F480522243C1F800211E06EA
:1021C00008D57349046AD1F8002122F480422243E1
:1021D000C1F80021DD0508D56D49446AD1F8002118
:1021E00022F480322243C1F800219C0508D56849B9
:1021F000846AD1F8002122F440222243C1F8002150
:10220000590508D56249C46AD1F8002122F4801228
:102210002243C1F800211A0508D55D49046BD1F8A5
:10222000002122F440022243C1F80021DF0408D536
:102230005749446BD1F8002122F080722243C1F843
:1022400000219E0408D55249846BD1F8002122F068
:1022500040622243C1F800215D0408D54C49C46B9B
:10226000D1F8002122F080522243C1F800211C0441
:1022700008D54749046CD1F8002122F0604222437E
:10228000C1F80021D90308D54149446CD1F8042193
:1022900022F003022243C1F804219A0308D53C49E5
:1022A000846CD1F8042122F008022243C1F80421F1
:1022B0005F0308D53649C46CD1F8042122F06002CE
:1022C0002243C1F804211E0308D53149046DD1F819
:1022D000042122F400622243C1F80421DD0210D55A
:1022E0002B49446DD1F8042122F440322243C1F835
:1022F0000421D1F80421846D22F470422243C1F8F4
:1023000004219C0208D52249C46DD1F8042122F48D
:1023100000222243C1F80421590208D51C49046E49
:10232000D1F8042122F480122243C1F804211A02B8
:1023300008D51749446ED1F8082122F00302224340
:10234000C1F80821DF0108D51149846ED1F80821B0
:1023500022F040022243C1F808219E0108D50C4911
:10236000C46ED1F8082122F440722243C1F808213A
:102370005D0108D50649046FD1F8082122F44062B6
:102380002243C1F80821002B04DB002003B0F0BD7C
:10239000000C03402C4A406FD2F81031D2F81011D3
:1023A00001F440718842F0D0D2F89440640734D4EC
:1023B0000126D2F8944044F00404C2F89440D2F8C4
:1023C000942002F004020192019A204CA26A42F089
:1023D0000102A26261B11C4AD2F8101141F48031AD
:1023E000C2F81011D2F8101121F48031C2F8101186
:1023F00023F4034310B1034343F40043124CD907C1
:10240000C4F810310BD4002EBFD00F4AD2F894304C
:1024100023F00403C2F89430B7E70026D5E7FFF7AE
:10242000C9F841F288370546D4F810319B07EAD441
:10243000FFF7C0F8401BB842F6D9D4F810319A071C
:10244000F2D40320A2E700BF000C034000080340C1
:10245000B0F5005F10B500F0338142D8402800F09D
:10246000E18015D808280BD8002800F00D8101382C
:1024700007280BD8DFE800F0A7B00ABA0A0A0AC09A
:10248000102800F0BF80202800F0C6800020FBE06C
:10249000B0F5806F00F0E98011D8B0F5807F00F0D2
:1024A000C780B0F5007F00F0C9808028EED1B14B25
:1024B000D3F8003113F4804F00F08A80A8E0B0F523
:1024C000006F00F0D880B0F5805FDFD1A94BD3F862
:1024D000003113F0807F40F09B80BDE81040FFF793
:1024E000F1BAB0F5001F00F04D8139D8B0F5802F5A
:1024F00000F0198116D8B0F5803F00F0FA80B0F5F1
:10250000003F00F00A81B0F5804FBFD14FF400507A
:10251000FFF79EFF974BD3F80031DC0040F1B48009
:102520004008B1E0B0F5002F00F00A81B0F5801F3F
:10253000ACD1904CD4F8043113F4403340F008810E
:10254000FFF790FDD4F8043113F4704306D0B3F5CF
:10255000004F32BF0123C3F302330233D84093E06C
:10256000B0F1007F00F0318110D8B0F5000F00F01D
:102570001281B0F1807F00F02281B0F5800F85D10B
:102580007C4BD3F8043113F4801FA4E7B0F1806FC3
:1025900000F02981B0F1004F7FF478AF754BD3F88C
:1025A000102102F44072B2F5807F00F0F180B2F5A4
:1025B000007F4CD0B2F5407F7FF468AF1B686E4857
:1025C00013F4003F86E06B4BD3F80021D2074AD4C6
:1025D000BDE81040FFF76ABD664BD3F8002112F04A
:1025E000040F40D1BDE81040FFF750BD614BD3F858
:1025F000002112F0100FF4E75E4BD3F8002112F027
:10260000400FEEE75B4BD3F8003113F4807FE9D045
:10261000BDE81040FFF76ABD564BD3F8003113F404
:10262000806FF4E7534BD3F8003113F4805FEEE78B
:10263000504BD3F8003113F4803FE8E74D4BD3F80B
:10264000002112F44022CDD0B2F5802F07D1D3F86B
:10265000140110F0020017D0D3F8143129E0B2F5BC
:10266000002F40F095801B68A2E0424BD3F8003168
:1026700013F4801F20E73F4AD2F8003113F44003DF
:1026800003D1FFF7EFFCC00810BDB3F5000F05D173
:10269000D2F81001C0F34000C003F5E7B3F5800F96
:1026A0007FF4F4AED2F8140110F00200ECD0D2F8AE
:1026B000143113F0040F14BFFA204FF4FA40E3E78B
:1026C0002C4AD2F8003113F0406306D113682B482E
:1026D00013F4004F08BF0020D6E7B3F1806F97D006
:1026E000B3F1006F7FF4F9AE136813F4003F244890
:1026F000F0E7204BD3F8043113F0030303D1BDE816
:102700001040FFF7AFBC012B7BD0022B4FF4802091
:102710003FF47EAFB0F5001FE7E6164BD3F8043167
:1027200013F0080F73E7134AD2F8043113F0600373
:102730003FF46EAF202B64D0402B7FF4A7AED3E7DD
:102740000C4BD3F8042111053FF562AF1B68BEE7BF
:10275000B3F5803F06D12368094813F4003F08BF52
:102760000020EFE6B3F5003F02D1FFF7BFFCE9E63A
:102770000020E7E6000C034020A10700006CDC020B
:102780000024F400204BD3F8042112033FF55FAF7F
:10279000D3F810017EE71C4AD2F8083113F0030386
:1027A00003D1BDE81040FFF791BC012B03D11368A2
:1027B00013F4005F9BE7022B3FF46AAF28E7124B4C
:1027C000D3F808315B06ECD522E70F4BD3F808218C
:1027D00012F440723FF41CAFB2F5807F3FF437AF84
:1027E000B2F5007F3DE7084BD3F8082112F44062B0
:1027F0003FF40EAFB2F5806F3FF429AFB2F5006F32
:102800002FE74BF680303FE7000C03400D4A0128CC
:1028100013680BD15B070FD5936A23F4704323F041
:1028200003030B431843906200207047022804D131
:1028300013F4005FF0D1012070470328ECD113F4AA
:10284000003FF7E7000C034010B5026852E8003F74
:1028500023F4907342E8003102680029F5D10F4C4F
:1028600002F1080353E8003F234002F1080C4CE852
:1028700000310029F4D1C36E012B07D152E8003F8B
:1028800023F0100342E800310029F7D12023C0F8DB
:102890008C300023C366436710BD00BFFEFFFFEF0F
:1028A00070477047704708B50023C06DA0F85E30D0
:1028B000FFF7F8FF08BD70472DE9F04140F60F061D
:1028C00003680446D9691A6831429D6810D18E06A2
:1028D00040F1978002F0200605F080573E4300F05B
:1028E0009080436F002B00F08580BDE8F0411847D1
:1028F000A74EA8482E401040304300F08280CF07FA
:1029000009D5D00507D501201862D4F8900040F011
:102910000100C4F890008F0709D5E80707D5022009
:102920001862D4F8900040F00400C4F890004F07FB
:1029300009D5E80707D504201862D4F8900040F0C4
:102940000200C4F890000F070BD502F020003043BE
:1029500007D008201862D4F8900040F00800C4F8AE
:1029600090000E050AD5500108D54FF4006018629A
:10297000D4F8903043F02003C4F89030D4F890306D
:10298000002B37D0890609D502F0200205F08055CA
:102990002A4303D0636F0BB1204698472668D4F8CA
:1029A0009020B36802F0280203F0400353EA0205C6
:1029B000204621D0FFF748FFB3685B0617D5226891
:1029C00002F1080353E8003F23F04003083242E8D5
:1029D00000310029F3D1D4F8800040B16E4BC366BA
:1029E000FEF7E4FE30B1D4F88000C36E7DE72046E8
:1029F000FFF758FFBDE8F081FFF754FFC4F890508F
:102A0000F8E7E06E012840F08D80CF0640F18A8023
:102A1000D60640F1878010221A629968B4F85C20CB
:102A20004D0651D5D4F880000168896C89B200291F
:102A300042D0914240D2026DA4F85E10812A2FD07C
:102A400053E8002F22F4807243E800210029F7D1D7
:102A500003F1080252E8002F22F0010203F10800FE
:102A600040E800210029F3D103F1080252E8002FC9
:102A700022F0400203F1080040E800210029F3D1D0
:102A80002022C4F88C20E16653E8002F22F01002C7
:102A900043E800210029F7D1D4F88000FEF73CFE7E
:102AA00002232367B4F85E30B4F85C10C91A89B207
:102AB0002046FFF700FF9DE791429BD1036D812BDC
:102AC00098D102232367F3E7B4F85E10B4F85E00F0
:102AD00089B280B200288DD0521A91B2002989D0D3
:102AE00053E8002F22F4907243E800200028F7D129
:102AF0002A4D03F1080252E8002F2A4003F108068C
:102B000046E800200028F4D120226067C4F88C2019
:102B1000E06653E8002F22F0100243E8002000286E
:102B2000F7D1CEE708060BD502F0800005F40005CA
:102B3000284305D0A36F002B3FF45CAF2046D4E6BA
:102B40004F0611D556060FD553E8002F22F040024C
:102B500043E800210029F7D120232046C4F888301B
:102B6000A167FFF79DFE45E70D0206D5500004D58D
:102B70002046BDE8F04100F082BDCB017FF53AAFC1
:102B8000002ABFF637AF2046BDE8F04100F076BD21
:102B90000100001020010004A7280008FEFFFFEF3D
:102BA000D0F88C2008B5222AB0F86010036855D1FF
:102BB0005B6A826D0B401370836D01338365B0F8DF
:102BC0005E30013B9BB2A0F85E30B0F85E309BB245
:102BD000002B42D1026852E8003F23F4907342E890
:102BE000003103680029F5D103F1080252E8002FF3
:102BF00022F0010203F1080C4CE800210029F3D176
:102C00002022C0F88C20184A41679342016705D101
:102C1000C26E012A0ED0FFF744FE1EE05A68110270
:102C2000F6D553E8002F22F0806243E80021002906
:102C3000F7D1EDE70022C26653E8002F22F0100220
:102C400043E800210029F7D1DA69B0F85C10D20618
:102C500044BF10221A62FFF72EFE08BD9A6942F0A7
:102C600008029A61F9E700BF00240440D0F88C20E4
:102C700008B5222AB0F86010036852D15A6A114090
:102C8000826D22F8021B8265B0F85E20013A92B292
:102C9000A0F85E20B0F85E2092B2002A40D153E83E
:102CA000002F22F4907243E800210029F7D103F1AC
:102CB000080252E8002F22F0010203F1080C4CE850
:102CC00000210029F3D12022C0F88C20174A416747
:102CD0009342016705D1C26E012A0ED0FFF7E1FDD4
:102CE0001EE05A681102F6D553E8002F22F08062E8
:102CF00043E800210029F7D1EDE70022C26653E83E
:102D0000002F22F0100243E800210029F7D1DA69F0
:102D1000B0F85C10D20644BF10221A62FFF7CBFD58
:102D200008BD9A6942F008029A61F9E7002404405C
:102D300003682DE9F047DD69D3F800809E68D0F87C
:102D40008C200446222AB0F8607040F0B680B0F8BB
:102D50006830002B00F08C804FF000094FF0040A1F
:102D600006F00106AB0640F183802368A26D5B6A22
:102D70003B401370A36D0133A365B4F85E30013B93
:102D80009BB2A4F85E302368DD6968072AD0E907A2
:102D90000AD518F4807F07D001221A62D4F8902057
:102DA00042F00102C4F89020AA0708D53EB10222E1
:102DB0001A62D4F8902042F00402C4F89020680708
:102DC00008D53EB1C3F820A0D4F8903043F00203F8
:102DD000C4F89030D4F8903023B12046FFF762FD5C
:102DE000C4F89090B4F85E309BB2002BBAD1226840
:102DF00052E8003F23F4807342E800312368002941
:102E0000F5D1304803F1080252E8002F024003F1E7
:102E1000080545E800210029F4D12022C4F88C20BF
:102E2000294A6167934221670AD05A68110207D57F
:102E300053E8002F22F0806243E800210029F7D1F7
:102E4000E26E012A35D10022E26653E8002F22F01B
:102E5000100243E800210029F7D1DA692046D206A2
:102E600048BF1022B4F85C1048BF1A62FFF723FD78
:102E7000B4F85E309BB2D3B1B4F868209A4216D948
:102E8000226802F1080353E8003F23F08053083220
:102E900042E8003122680029F2D10C4B636752E806
:102EA000003F43F0200342E800310029F7D1BDE89C
:102EB000F0872046FFF7F5FCDAE79A6942F008024E
:102EC0009A61F4E7FEFFFFEF00240440A12B000805
:102ED00003682DE9F047DD69D3F800809E68D0F8DB
:102EE0008C200446222AB0F8607040F0B480B0F81C
:102EF0006830002B00F08A804FF000094FF0040A80
:102F000006F00106AB0640F181802368A26D596A84
:102F1000394022F8021BA265B4F85E20013A92B251
:102F2000A4F85E20DD6968072AD0E9070AD518F4FD
:102F3000807F07D001221A62D4F8902042F001026B
:102F4000C4F89020AA0708D53EB102221A62D4F82C
:102F5000902042F00402C4F89020680708D53EB1E2
:102F6000C3F820A0D4F8903043F00203C4F89030A6
:102F7000D4F8903023B12046FFF794FCC4F8909029
:102F8000B4F85E309BB2002BBCD1226852E8003FFF
:102F900023F4807342E8003123680029F5D13048DA
:102FA00003F1080252E8002F024003F1080545E84A
:102FB00000210029F4D12022C4F88C20294A61671D
:102FC000934221670AD05A68110207D553E8002FAF
:102FD00022F0806243E800210029F7D1E26E012A45
:102FE00035D10022E26653E8002F22F0100243E8B8
:102FF00000210029F7D1DA692046D20648BF102205
:10300000B4F85C1048BF1A62FFF755FCB4F85E30A4
:103010009BB2D3B1B4F868209A4216D9226802F163
:10302000080353E8003F23F08053083242E80031A0
:1030300022680029F2D10C4B636752E8003F43F04D
:10304000200342E800310029F7D1BDE8F08720468F
:10305000FFF727FCDAE79A6942F008029A61F4E781
:10306000FEFFFFEF002404406D2C000838B5044635
:103070000368C169826800691D6802436069024390
:1030800053480A43284002431A605A68E068514D89
:1030900022F440520243AB42A0695A601CBF226A2C
:1030A00010439A6822F06E4222F4306202439A6022
:1030B000DA6A606A22F00F020243DA62464A9342F9
:1030C00042D0A2F57042934261D002F580629342F1
:1030D0005FD002F5806293425DD0AB425DD14FF488
:1030E0000000FFF7B5F968B3616A3C4A656832F8D9
:1030F000112005EB4501B0FBF2F3994207D90120FD
:103100004FF00113A3660023C4E91D3338BDB3EBB0
:10311000053FF4D800231946FDF758FD090241EA9E
:1031200010616B080002C0182A464FF0000341F1FD
:103130000001FDF74BFD2A4BA0F540729A42DED804
:103140002368D8600020DBE70120B1F5004F26D1CD
:10315000FFF77EF90028F5D0616A204B626833F8EA
:103160001130B0FBF3F0530803EB4003B3FBF2F371
:103170004FF6EF72A3F110019142C0D823F00F0275
:10318000216892B2C3F342031343CB60DAE7022013
:10319000DBE70420D9E70820D7E70020D5E7FFF7D1
:1031A00057F90028CED0616A0C4B626833F81130B1
:1031B000B0FBF3F303EB5203B3FBF2F34FF6EF7202
:1031C000A3F1100191429AD82268D360BAE700BFF8
:1031D000F369FFCF002404400038014068E600088E
:1031E000FFFC0F00836A10B51A0706D50168846BCF
:1031F0004A6822F4004222434A60DC0706D501688F
:10320000C46A4A6822F4003222434A60990706D50C
:103210000168046B4A6822F4803222434A605A07EC
:1032200006D50168446B4A6822F4802222434A6032
:10323000DC0606D50168C46B8A6822F480522243FA
:103240008A60990606D50168046C8A6822F40052E7
:1032500022438A605A0610D50168446C4A68B4F566
:10326000801F22F4801242EA04024A6005D14A68B3
:10327000846C22F4C00222434A601B0606D5026811
:10328000C16C536823F400230B43536010BD2DE938
:10329000F84304460D4617469846DDF8209022680C
:1032A000D36935EA03030CBF01230023BB4201D0DD
:1032B000002022E0B9F1FF3FF2D0FEF77BF9A0EB4E
:1032C0000800484529D8B9F1000F26D021680B68BD
:1032D0005A07E4D5802DE2D0402DE0D0CE6916F01B
:1032E00008060CD0082520460D62FFF7ADFA002332
:1032F0000120C4F8905084F88430BDE8F883CB698D
:103300001B05CCD54FF4006320460B62FFF79CFAF7
:10331000202384F88460C4F890300320EDE72DE981
:10332000F7439846D0F888300446202B0E461746BF
:1033300046D1002946D0002A44D021230025C0F8D8
:103340009050C0F88830FEF735F9A3688146B3F590
:10335000805FA4F85470A4F8567003D123690BB9A8
:1033600035461E46B4F856204B4692B2CDF8008042
:1033700042B940212046FFF78AFF202348B9C4F80C
:10338000883009E0002280212046FFF780FF30B11D
:1033900020230320C4F8883003B0BDE8F0832268FE
:1033A0005EB935F8023BC3F308039362B4F85620C4
:1033B000013A92B2A4F85620D4E716F8013BF4E79C
:1033C0000220E9E70120E7E773B500260446C0F8CC
:1033D0009060FEF7EFF8236805461B681A071CD5B6
:1033E0006FF07E43324600934FF4001103462046AF
:1033F000FFF74DFF88B1226852E8003F23F08003B9
:1034000042E800310029F6D12023C4F88830032097
:10341000002384F8843002B070BD23681B685B070A
:1034200024D56FF07E43002200934FF480012B4699
:103430002046FFF72CFFC8B1226852E8003F23F472
:10344000907342E8003122680029F5D102F10803A7
:1034500053E8003F23F0010302F1080040E8003187
:103460000029F3D12023C4F88C30D0E7202300209A
:10347000C4F88830C4F88C30E0662067C8E710B51F
:10348000044650B3D0F888301BB980F88430FDF77B
:10349000A3FE24232268C4F88830136823F00103B4
:1034A0001360A36A13B12046FFF79CFE2046FFF786
:1034B000DDFD012811D023682046BDE810405A6880
:1034C00022F490425A609A6822F02A029A601A689E
:1034D00042F001021A60FFF777BF012010BD000023
:1034E000002330B581658168A0F85C20B1F5805F6C
:1034F000A0F85E20436731D10369002B40F2FF132F
:1035000018BFFF23A0F860300023C0F890302223BA
:10351000C0F88C30016801F1080353E8003F43F024
:103520000103083141E800340368002CF2D1456EF4
:103530008468B5F1005F016935D1B0F868509542F3
:1035400031D8B4F5805F29D1C1B1264A426753E82A
:10355000002F42F4807243E8002121E029B9036979
:10356000002B0CBFFF237F23CCE7B1F1805FC9D1D3
:103570000369002B0CBF7F233F23C3E71A4A42672E
:1035800003F1080252E8002F42F0805203F10800D4
:1035900040E800210029F3D1002030BD114A4267E4
:1035A0000029D4D1ECE7B4F5805F16D151B10F4AB0
:1035B000426753E8002F42F4907243E8002100294B
:1035C000F7D1E9E70A4A426753E8002F42F02002A8
:1035D00043E800210029F7D1DEE7044A42670029C9
:1035E000F2D0E6E7312D0008D12E0008A12B00080B
:1035F0006D2C0008D0F88C3030B4202B15D1B9B127
:10360000B2B100230468C3660A4B9C420AD06368C7
:103610001B0207D554E8003F43F0806344E80035BF
:10362000002DF7D130BCFFF75BBF022030BC7047E4
:103630000120FBE700240440436E30B52BB9012381
:10364000A0F86A30A0F8683030BD0368094D9A6868
:103650009968094C490F6B5C615CDB00B3FBF1F3CB
:10366000C2F34262A0F86A30AB5CA25CDB00B3FB41
:10367000F2F3E7E788E6000880E600087047704745
:1036800090F88430012B14D024230268C0F88830CD
:103690001168136821F0005123F001031360002327
:1036A00043661160202280F88430C0F888201846D4
:1036B00070470220704770B590F884300446012BA3
:1036C00017D024230568C0F888302E682B6823F0B3
:1036D00001032B60AB6823F060431943A960FFF737
:1036E000ABFF20232E60C0F88830002084F88400CF
:1036F00070BD0220FCE770B590F884300446012BC1
:1037000017D024230568C0F888302E682B6823F072
:1037100001032B60AB6823F060631943A960FFF7D6
:103720008BFF20232E60C0F88830002084F88400AE
:1037300070BD0220FCE7000007B505230022CDE99B
:1037400000320123024A00F0C3FF03B05DF804FB1E
:103750000C00002010B90248024B036000F0D0BEFC
:103760000C0000200001C0A110B90248024B036008
:1037700000F03CBF0C0000200001C0A12DE9F04189
:1037800006460F4600F0E6FF0446002800F03981A7
:10379000DFF84C833A460121404600F0DBFD054648
:1037A000002800F030819E4A136843F08043136084
:1037B000D8F80030C2E902339A4A116841F08041DA
:1037C000116003F52061C2E90211974A116841F0C6
:1037D0008041116003F53061C2E90211934A11681A
:1037E00041F08041116003F55461C2E90211904A31
:1037F000116841F08041116003F56461C2E9021172
:103800008C4A116841F08041116003F5F251C2E920
:103810000211894A116841F08041116003F5FA51A3
:10382000C2E90211854A116841F08041116003F537
:103830000651C2E90211824A116841F080411160CB
:1038400003F50A51C2E902117E4A116841F0804134
:10385000116003F54A51C2E902117B4A116841F037
:103860008041116003F54E51C2E90211774A116897
:1038700041F08041116003F55751C2E90211744AC9
:10388000116841F08041116003F55B51C2E90211FA
:10389000704A116841F08041116003F58D4140315B
:1038A000C2E902116C4A116841F08041116003F5D0
:1038B0008F414031C2E90211684A116841F08041EC
:1038C000116003F59441C2E90211654A116841F0A3
:1038D0008041116003F59641C2E90211614A116805
:1038E00041F08041116003F5B641C2E902115E4A20
:1038F000116841F08041116003F5B841C2E902113D
:103900005A4A03F5BE431168C2E9023341F08041CF
:103910001160DFF8D0813A460121404600F06AFD8F
:103920000746002875D0D8F80030514A03F23451C8
:10393000C2E902114F4A03F5E461C2E902114E499E
:1039400003F5FA52C1E902224C4903F59D40C1E951
:1039500002224B49C1E902004A494B48C1E90233FE
:103960004A49C1E902224A4903F51F52C1E902222C
:103970004849C1E902224849C1E9023303F5086117
:10398000C0E902114548C0E902334548C0E90222B6
:103990004448C0E902224448C0E902334348C0E930
:1039A00002114348C0E902334248C0E902224248BA
:1039B000C0E902224148C0E902334148C0E902118E
:1039C0004049C1E902334049C1E902223F4A03F1BB
:1039D0004001C2E902333E4AC2E902113D4A03F105
:1039E000C001C2E902113C4A03F1CC01C2E9021153
:1039F0003A4AC2E90233304600F044FF38400540FD
:103A0000E8B2BDE8F08112223021204600F072FDBC
:103A10007FE713223021204600F06CFDEBE700BF6A
:103A200004160020F4150020E4150020D415002011
:103A3000C4150020B4150020A41500209415002002
:103A400084150020741500206415002054150020F2
:103A500044150020341500202415002014150020E2
:103A600004150020F4140020E4140020D4140020D5
:103A700014170020C414002004170020F41600209E
:103A8000B4140020E4160020B4160020A414002072
:103A9000D4160020C41600209414002084140020A2
:103AA000A416002094160020741400208416002010
:103AB00064140020741600206416002054140020A2
:103AC0005416002044140020441600203416002010
:103AD0003414002024160020241400201416002082
:103AE000B81B0020BC1B00202DE9F04389468FB095
:103AF000002106469046FFF71FFE10F0FF07044620
:103B000007D1684600F03CF8A0B9306800F0E6FC48
:103B1000044620460FB0BDE8F083294659F8252019
:103B200003A800F009FC0135ADB2BDF80E30AB4280
:103B3000F3D802E0B9F1000F0FD1B8F1000F1BD19B
:103B400069463068FFF71AFE20B9306800F0C6FCFD
:103B50000446C7B267F30704DBE73D46E5E72946BD
:103B600058F8252001A800F0E7FB0135ADB2BDF8FB
:103B70000630AB42F3D8E3E70025F8E700F0AEBE2D
:103B800030B5034685B070B16A46084C02AD94E882
:103B9000030082E80300D4E9020185E80300294616
:103BA000184600F079FC05B030BD00BF40E60008C3
:103BB000252838B503460B4C0B4806D10025236851
:103BC000C55400F0CFFA256038BD2268835440F216
:103BD000034322689A428EBF40F2044323680133B4
:103BE0002360F1E7B81D0020BC1D002008B500F0DF
:103BF00037FB00F053FB00F087FA054800F0C4FAE9
:103C00000122044B04481A70BDE8084000F0BCBA19
:103C100030540108C01B00203E54010838B50D4641
:103C2000044600F059FA2946134800F0ADFA00F0B6
:103C300093FAC5B900F091FA104800F0A5FA2146B0
:103C40000F4800F0A1FA00F015FB00F085FA74B9F6
:103C500000F083FA00F00EFB0A4800F095FABDE888
:103C6000384000F0AFBA00F047FA013DE1E700F05C
:103C700043FA013CEBE700BF485401085C540108DB
:103C80006C5401087F540108411E002010B511F842
:103C9000013F0BB1002800DA10BDA3F13002D4B20D
:103CA000092C03D8134603EB0010F0E7A3F16102DF
:103CB000052A01D8573BF6E7A3F14102052A01D8AE
:103CC000373BF0E74FF0FF30E6E700002DE9F74320
:103CD0004549FCF7D5FA002840F08480434908F0B4
:103CE0005DFC054630B9424800F04EFA002003B0B2
:103CF000BDE8F0833F49FCF7C3FA0446E0B93B490D
:103D000008F04CFC08B93C48EEE707F0DDFC3B4B03
:103D10000146186008B93A48E6E73A4BB0F5F57F36
:103D20001C6005D94FF4F572374800F02DFADDE735
:103D3000364800F029FAD9E728463549FCF7A0FAB9
:103D4000044600BB334E2D4D334F2A6804F0070361
:103D5000944203D3002BC9D03048C5E713B9384685
:103D600000F012FA16F8011B2D48013400F00CFA8D
:103D7000630702D02B689C4203D1284800F004FA64
:103D8000E3E72848FAE740F20441284600F0E6F964
:103D900010F00103044601D02348A5E72E468DF814
:103DA0000630164B174FD3F80080DFF86890731B6E
:103DB0009C429BD9337801A88DF8043073788DF834
:103DC0000530FFF761FF002802DA184801A9B0E7C3
:103DD0003B68023609F80300013343453B60E6D1F6
:103DE000134881E7012082E78E5401089D5A01089B
:103DF00091540108BA540108BF540108C81B00209F
:103E0000EF540108C41B002018550108475501084C
:103E100060550108CC1B002066550108B655010805
:103E2000705501086E550108755501089C5501082B
:103E3000B955010838B536490446FCF721FA48B9A6
:103E40003449354800F0A0F93449354800F09CF970
:103E5000002038BD20463349FCF712FA28BB2D4913
:103E6000314800F091F9314800F08EF9304800F007
:103E70008BF9304800F088F92F4800F085F92F4879
:103E800000F082F92E4800F07FF92E4800F07CF90E
:103E90002D4800F079F92D4800F076F92C4800F013
:103EA00073F92C4800F070F9D2E72046FFF70EFFB7
:103EB0000028CDD020462849FCF7E2F90546E0B9B4
:103EC000264908F06BFB80B107F0FEFB041E01DC05
:103ED0002348E7E72846214908F060FB58B107F07E
:103EE000F3FB011E03DA1F48DCE70A210124204608
:103EF000FFF794FEACE70A21F9E720461A49FCF7E0
:103F0000BFF910B900F05EF9A2E70120A1E700BFF8
:103F1000C7550108CF550108F2550108035601089D
:103F200009560108185601081D560108B655010822
:103F3000225601084A560108785601089E56010883
:103F4000D0560108075701083D5701085957010885
:103F500089570108D0570108FF5701089D5A0108E9
:103F6000055801082B5801084E580108144B10B58C
:103F70001B781BB3134908F011FB13490446FCF7E7
:103F80007FF948B9114A1249124800F0FDF8BDE81E
:103F90001040114800F0F8B820461049FCF770F9BD
:103FA00010B900F067F9F2E72046FFF743FF002859
:103FB000EDD021460A4800F0E7F8E8E710BD00BF61
:103FC000C01B00209D5A0108565801085B58010883
:103FD0006E580108725801083E54010883580108C0
:103FE0008D58010807EE900A07EE101AF8EEE77AEE
:103FF000B8EEC77A77EEC77A27EE800A70470000DE
:1040000010B5094C002209492046FFF76DFD00213B
:104010002068FFF79FFB064B002118602068FFF720
:10402000A3FB044B186010BDCC2100207C1700209E
:10403000C8210020C4210020054B064A1B681268D5
:10404000586051601946044B1868FFF797BD00BFD0
:10405000C8210020C4210020CC210020064AD2F82B
:10406000FC3043F08073C2F8FC30A2F55D42136867
:1040700043F001031360704700ED00E038B5074DD1
:10408000074C2846FEF718FC214628460122FFF778
:10409000B1FA2078BDE83840FFF78ABD64190020E6
:1040A000D07800200148FEF707BC00BFF8190020B7
:1040B000014608B501220448FFF79CFA18B1BDE893
:1040C0000840FDF775B808BD641900200148FFF7E6
:1040D000EFBF00BFD07800204FF4F5730449054AC4
:1040E00011F8010B013B02F8010BF9D1704700BF39
:1040F000CC1B0020E89C002001490248FFF79CBF30
:10410000DC9C0020E89C002007B5FFF7DFFFFFF7ED
:1041100077FF0220FDF7A4FC08B1FDF749F84FF442
:104120000070FDF7C7FC0B4BD3F88C2022F08042C7
:10413000C3F88C20D3F88C2042F00102C3F88C2005
:10414000D3F88C3003F001030193019B03B05DF8B9
:1041500004FB00BF000C03407047704708F012BA20
:1041600008F00DBB10B50378044653B1014640F288
:1041700004420448FFF7F4FF0248FFF7F7FE00236C
:10418000237010BDD19800200FB407B504AB53F8CD
:10419000042B4FF400510948019308F0C3F94FF084
:1041A000FF3382B205490648FFF7B9F808B1FCF7BA
:1041B000FFFF03B05DF804EB04B07047D178002036
:1041C000641900202DE9F0432DED028B1E4B1F4892
:1041D0001B6887B09A681D695268002452681C4E9B
:1041E0005168126891F9007092ED008AFFF7CCFFD8
:1041F000DFF86480DFF86490A54207D11548FFF727
:10420000C3FF07B0BDEC028BBDE8F083394616F959
:10421000010BB0EE480AFFF7E5FE10EE100AFCF7BE
:10422000A5F94246CDE900010A2103A808F0D2F819
:1042300003A8FFF7A9FF6B1EA34202D94846FFF768
:10424000A3FF0134D8E700BFC4210020A75801080C
:10425000DC9C0020B5550108B3580108B958010885
:10426000034B1A68136843F020031360704700BFC4
:10427000641900206020064B064A5968B1FBF0F132
:10428000106801441160002203485A60FFF77CBFA8
:10429000001000E0D89C0020BB58010808B5FFF7CB
:1042A000DDFE0022044B05481A60FFF76DFFBDE8F4
:1042B0000840FFF7DFBF00BFD89C0020CA580108A4
:1042C00060B330B40368164D23F07E43846923F451
:1042D0000003AB4262681BD0037D4169A3F1010377
:1042E000B3FA83F35B09B3EB112FC1F317200BDA99
:1042F000012B02D1022807D0022354F823100133E6
:10430000984201FB02F2F3D130BC22EAE27070471E
:104310000029E1D01F3222F01F02DDE7704700BF05
:10432000C000040038B1436823B14088003818BF8A
:10433000012070471846704758B1436843B1408820
:1043400038B1C1EBC10103EB810301205A60704712
:1043500018467047F2B1F8B50646C8B10C46B9B177
:104360001546234B12689A420BD06D6885B12F68B1
:104370009F4211D0A1F10100B0FA80F035604009F0
:10438000F8BD281DFFF7CEFF10B1EB889C421BD073
:104390000020F8BD0020704729460023043804E0BF
:1043A00001339C4240F8042F05D051F8042FBA4243
:1043B000F6D19C42ECD1013455F824000C4BC01AC4
:1043C000B0FA80F04009F8BD0022301F114604E029
:1043D00001318C4240F8043F05D0AB6813445B6860
:1043E0001C32002BF4D1601AB0FA80F04009F8BDFD
:1043F000DECAFAA1FAB1F8B50646D0B10C46C1B191
:104400001546244B12689A420BD02D6A8DB12F6845
:104410009F4212D0A1F10100B0FA80F0356040094E
:10442000F8BD05F10C00FFF77DFF10B1EB899C4250
:104430001BD00020F8BD0020704729460023043817
:1044400004E001339C4240F8042F05D051F8042FBA
:10445000BA42F6D19C42ECD1013455F824000D4B00
:10446000C01AB0FA80F04009F8BD0022301F114692
:1044700004E001318C4240F8043F05D02B6913441D
:104480005B681C32002BF4D1601AB0FA80F040094E
:10449000F8BD00BFDECAFAA1034698B1A9B1BAB10E
:1044A0004FF0010C00B50C4803F10C0E43F8040B5F
:1044B00003C983E8030092E803008EE80300604626
:1044C0005DF804FB8446604670478C466046704742
:1044D00094466046704700BFDECAFAA1044B0268EA
:1044E000934302D10C3000F017BC41F2100070472A
:1044F0000001C0A110B10C3000F014BC704700BF27
:10450000394B0268934363D12DE9F04F038E054682
:104510000C4685B0002B4ED0476B002F4BD04FF090
:10452000000BBA465E46CDE9020116E00122019970
:104530007A50A1694FF001024C68AB6000232A75E4
:1045400028606869C5E9033468F31F20C5E90509D7
:10455000C5F804C001360BF11C0BBAF80030F200AC
:10456000B342019236D9DAF80430002B32D053F836
:1045700026407CB3DAF80830A269D3E90157A36872
:104580001068C3F31728D4F80C9005F07DFEA169DC
:1045900007EBC603D1F808C05D44002BCAD0002148
:1045A00047F836102168596011B149880029BDD1FA
:1045B0000023A169BEE700261822112105F10C0095
:1045C00000F0B0FB304604B1268005B0BDE8F08FA6
:1045D00000207047B6B2DDE90254002EEBD0DAF8C5
:1045E00008305868EFE700BF0001C0A1374B0268F0
:1045F000934369D12DE9F04F038E0546012B0C46FC
:1046000085B04BD94FF0000B476B5E46D846BA4693
:10461000CDE9020116E0012201997A50A9694FF013
:1046200001024D68227520606069C4E9023869F3AF
:104630001F20C4E90450009BC4F804C0A3610136E4
:104640000BF11C0BBAF80C30F200B342019232D9D4
:10465000DAF810307BB353F8265065B3DAF814302B
:10466000AA69D3E90147AB681068C3F31729EB685F
:104670005C44009305F008FEA96907EBC603D1F876
:1046800008C0002BCBD047F836802968596011B19B
:1046900049880029BFD10023A969C0E70026182254
:1046A000112105F10C0000F03DFB304604B12680DD
:1046B00005B0BDE8F08FB6B2DDE90254002EEDD0B2
:1046C000DAF814305868F1E7002070470001C0A103
:1046D0002DE9F04383B09DF828809DF82C9020B3FD
:1046E000026016461F46044600F014FB70B93025E0
:1046F0000023236010244A464146384605F064FEF4
:10470000B06045EA042003B0BDE8F08300224146D2
:10471000384605F059FE002205460521012005F026
:1047200053FE854208D00125E2E710252C4645EAD4
:10473000042003B0BDE8F083054B01A8019300F00D
:10474000FDFA10B100242546D5E70225D0E700BFC9
:10475000038404842DE9F843484A0B460168044663
:1047600001EA02008A433BD1002B78D0444A1D68FD
:1047700095420AD1D3E90325D3E9016381423DD0B3
:10478000032320462361BDE8F8831D460121184616
:10479000D3F80480FFF794FD05F11C0706460121BC
:1047A0003846D5F82090FFF78BFD002E0ABF314622
:1047B00001213546B0B1B9F1000F57D04FF0010ECD
:1047C000B8F1000F11D02D4B22689A42D8D1638CDA
:1047D0008B421BD21222162104F10C0000F0A2FA27
:1047E0000020D0E707468646EAE7002EEBD01222EB
:1047F000102104F10C0000F095FAF1E7C4E9086318
:10480000E5622046A26200F0C1FAB9E7E1B1AC4628
:104810004FF48036BCE80F00656A0FC59CE80700BE
:1048200085E80700638D2662734511D3BEF1000F42
:1048300007D03E46E56A0FCE0FC596E8070085E82B
:1048400007004FEA0E42DCE7638D21627345EDD22B
:104850001322162104F10C0000F064FAC0E71122C3
:10486000102104F10C0000F05DFAB9E713221021C9
:1048700004F10C0000F056FAB2E700BF0001C0A13D
:10488000DECAFAA138B5144B026802EA0301934369
:104890000CD1036904469B0703D58A4208D0012046
:1048A00038BD102211210C3000F03CFA002038BD38
:1048B00000F07CFA236C002BF1D0A56B002DEED01C
:1048C00029460020626C98472B69AB42E7D0002B49
:1048D000E5D01D46236CF3E70001C0A12DE9F04FA0
:1048E000B74B9046026885B0934340F02D81038E0C
:1048F0000746002B00F01C8100260369D0F8349095
:1049000003F00303032B866140F02881002900F0A7
:104910001581B9F1000F00F01181B9F80030002BBA
:1049200000F00C810C468B69CDE90208D3F800B089
:10493000D9F80430002B71D053F82650002D6DD0DB
:10494000D9F80830D3F800A033011AEB0618019308
:1049500000F0B881AB69012120465F68FFF7B0FC29
:104960008742C0F00281E868A169C268CB689A42B8
:1049700040F0FB8082688B689A4240F0F680426883
:104980004B689A4240F0F180AB69D3E9000105F031
:104990000BFD03462846019305F01CFD019B834255
:1049A000C0F0E380AB69186805F06EFC23685840DE
:1049B00030F07E4340F090816368002B00F08281EC
:1049C000A3691B68002B00F07F819B45284638BFF8
:1049D0009B4605F0FFFCC8F80800A36932011B687C
:1049E000013600FB03F3C8F80C3061681C340B443B
:1049F000C8F804104AF80230A86903689A0000F168
:104A0000A780D0E902329B1A19448160AB69D8F8BB
:104A10000420DA60B9F80030B34289D8DDE90278C1
:104A20003B8EB8F1000F00F0B580012B40F2A5805D
:104A3000D7F83490B9F80C30002B00F09E80454632
:104A40000026D9F81030002B00F0A38053F8264040
:104A5000002C00F09E80D9F81430D3F800A0330168
:104A60001AEB0618019300F03F81A36901215B68EE
:104A700028460193FFF724FC019B83427DD3E06825
:104A8000A969C268CB689A4277D182688B689A42DA
:104A900073D142684B689A426FD1A369D3E9000190
:104AA00005F082FC03462046019305F093FC019B30
:104AB000834262D3A369186805F0E6FB2B68434084
:104AC00033F07E4340F017816B68002B00F00C81BF
:104AD000AB691B68002B00F015819B45204638BF51
:104AE0009B4605F077FC0346C8F80800AA691C3508
:104AF000126802FB03F3C8F80C3055F8181C320199
:104B00000B44C8F804104AF80230A0690136036863
:104B10009B0039D4D0E902329B1A19448160A36901
:104B2000D8F80420DA60B9F80C309E4289D330E01E
:104B30000269836102F00302032A0FD117221221B6
:104B400007F10C0000F0EEF8002005B0BDE8F08F92
:104B5000B9F800309E42FFF4EBAE5FE7302211213E
:104B600007F10C0000F0DEF8EEE7029F1822122198
:104B700007F10C0000F0D6F8E6E71822132107F140
:104B80000C0000F0CFF8DFE7B9F80C309E42FFF4DC
:104B900058AF3B8E1FFA8BFBA7F818B0002B00F024
:104BA0008B80012B7E6B00F08A8006F10C08788BDD
:104BB0008345CAD94546BB464FF00008B6B92EE03A
:104BC0000001C0A1DF68C91B08449860936962684E
:104BD000DA6059F80A20D4E901310B44934228BF26
:104BE000E36808F1010828BFD31A636033884FEAED
:104BF000081A434513D973688BB153F8282072B152
:104C0000B1689369D1F800901F6809EB0814BF00E0
:104C100060689968D6D5A26803F0B2F8D9E758461B
:104C200000F0E0F80024ADB939E059F80A30114439
:104C3000994224BFD8F80C10591AC8F80410826998
:104C4000D2E90237DB1B194491608369D8F804204C
:104C5000DA6001342B88A34221D96B68FBB153F889
:104C60002400E0B1AA688369D2F800901F6809EBBC
:104C70000418BF004FEA041AD8E90112D5D5986884
:104C800003F07EF8D8E9013159F80A200B44934229
:104C900024BFD8F80C30D31AC8F80430D9E7BBF8D1
:104CA0001A00BBF81830013080B28342ABF81A000A
:104CB00082D805B0BDE8F08F1E46984677E74FF0E2
:104CC000000874E7029F39E7029F2122122107F1B1
:104CD0000C0000F027F837E7029F1922122107F194
:104CE0000C0000F01FF82FE71722132107F10C002A
:104CF00000F018F828E71922132107F10C0000F042
:104D000011F821E72122132107F10C0000F00AF825
:104D10001AE700BF012070470346002200681A60AE
:104D2000704700BF0346007808B100207047197033
:104D30001968012062F31F2119607047124B82B07D
:104D4000019318B10378032B02D0002002B0704702
:104D50009DF80420934204D0012080F0010002B0AD
:104D6000704742789DF8053001309A42F4D110F82E
:104D7000012F9DF806309A42EED142789DF8073017
:104D80009A42E9D10020E8E703840484836B01465A
:104D90004BB100201A46D9601B690130934203D001
:104DA000002BF7D170471846704700BF38B5846BA9
:104DB000ACB163680025DB0704D5236A13B1204634
:104DC000984701352369A34207D033B11C46636875
:104DD000DB07F2D42369A342F7D1284638BD254624
:104DE000284638BD2DE9F041856BD0F84080044657
:104DF000C563B8F1000F2BD035B329460120626C92
:104E0000C047E66B06B300273146626C0220C047FC
:104E1000E56B28466B6998472E69B5420AD0032096
:104E2000626CE16BC0470137E663002EECD1384677
:104E3000BDE8F081626CE16B0320C04700230137BD
:104E4000E3633846BDE8F08100273846BDE8F081CD
:104E5000002DF9D047466B69284698472B462D69A7
:104E60009D4204D0E5630137002DF4D1DFE7002334
:104E70000137E363DBE700BF8369198809B94B6831
:104E8000FFDE2DE9F04F2DED028B5C68A3B0626868
:104E900002B11268012900F0C580236903B11B68C3
:104EA000022900F0B680E569002D00F0B980268B5C
:104EB000D5F80080012E40F2B8806D68032900F01B
:104EC000B980A16A446A002900F0B18004B14B683E
:104ED0000C68A969D6688968DF682091B188D4F820
:104EE00018C01591B988C46B1691F968D8F80CE010
:104EF0001791B96815681891D6E9021B1991018DAF
:104F00001A91818D1B9121881C91A1881D91DEF839
:104F100008101E91DEF804101F91DCF808101C68C0
:104F2000D8F800602191002D70D0696800296DD0FB
:104F30006F88002F6AD00968D1ED008A002C62D0FA
:104F4000616800295FD06788002F5CD0096891ED07
:104F5000008A9F699169D8F81830D7F8089090F8BE
:104F600041A0D1F808809F6816B1766806B136680E
:104F70003DB16968002951D06D8815B1496891F932
:104F800000503CB16168002946D0648814B149687A
:104F900091F90040DCE9000105F0E6F9CDE909549A
:104FA000BDF86040209B0E94012408931C9B119037
:104FB00007931D9BF0EE480A06931B9BB0EE680A10
:104FC00005931A9B40460493169BBDF86410CDE9E7
:104FD0000073219BBDF87C701293BDF878301FFAE6
:104FE0008BF20393BDF85C30CDE90B6A0F93159BF0
:104FF000CDF834900297109401F00EF823B0BDEC78
:10500000028BBDE8F08FB7EE008AA2E7F7EE008AC8
:1050100094E700235B68FFDE0C46BBE70D46B0E774
:10502000A8464BE700235B68FFDE002546E724B96E
:10503000A369FFDE00235B68FFDECB68FFDE00BFF5
:10504000826913880BB95B68FFDE5068416801B163
:105050000968012B00F0E280026902B11268022B9C
:1050600000F0D6802DE9F04FC56989B0002D00F021
:10507000A180068B2C68012E40F2B8806D68032B4E
:1050800000F0C980AB69D5689B68866A0693CB68D7
:105090008F69B3F804B0D5E9020300FB03FAAB88CB
:1050A000906907931EB136680EB1B3699E680B68AC
:1050B000A1691568D7F808C080682268D1F808E0AF
:1050C000002B49D0D3F80480B8F1000F3BD05C88A6
:1050D000002C53D1002D38D069688946002900F092
:1050E0008C806F88B7EE000A002F53D1B8F1000F03
:1050F00000F08A805C88002C7AD1F7EE000A002448
:10510000002D7DD08946002975D06F881FB1D9F850
:10511000043093F90070002A00F083805368002B5C
:105120007FD01B68724693ED001A079B6146CDE95C
:1051300002B3CDE904A6069B0197009400F066FC3B
:1051400009B0BDE8F08F002D36D1B7EE000A2C462D
:10515000F0EE400A2746DEE7002DF6D0D5F80490A1
:10516000B9F1000F3BD06C88B7EE000A002CEFD0ED
:105170001C46D9F80030D3ED000AC8E7D8F8001073
:1051800091ED000A1DB3696889460029AED06F8889
:10519000002FABD00C68D4ED000AB8F1000F31D06D
:1051A0005C88002CAED0D8F8043093F90040002D74
:1051B000A8D125E02C4662E769688946002990D18C
:1051C000B7EE000A0C46F0EE400A0F46A3E7D8F807
:1051D0000430F7EE000A2F4693F900409BE7B7EE44
:1051E000000A4C46F0EE400A4F4694E7002546E799
:1051F000F7EE000AD7E70F468DE7B7EE000A7CE727
:105200002F4688E7444681E74446F7EE000A7AE7EE
:1052100000235B68FFDE00235B68FFDE00235B6822
:10522000FFDE00231B68FFDE037F032B0BD8DFE8C4
:1052300003F00806040200F065B800F0F3B800F0CF
:1052400031B900F0A9B870472DE9F041836986B003
:105250001E880EB97368FFDE5F687D6805B12D6832
:10526000012E4AD0D7F810C0BCF1000F01D0DCF8F5
:1052700000C0AB6801221B0A08D0EC6804EB830372
:1052800053F8041D9C4201FB02F2F9D1C369032EBD
:10529000D3F808E031D9BB6A6BB31968B0F9203094
:1052A0008969DCF818008F68E968DEE900C851F800
:1052B00023602969DEF808E0B3EB112F36BF696976
:1052C000002351F82330A9690D4D0C68806824F043
:1052D0007E44AC428968CDE903E7CDE901C8009678
:1052E00004D001F0DFFB06B0BDE8F08101F0D0FB97
:1052F00006B0BDE8F0819B69FFDE00235B68FFDE3E
:1053000040048400826913880BB95B68FFDE2DE9D5
:10531000F043526885B0556805B12D68012B37D030
:1053200013699BB3D0E90962D6E90010D3F800C035
:105330000143EB680CB2D3F804E0D5E90571DB68F2
:1053400088689268DCE90551D6F80C90D5F80C8095
:105350008968D7F80CC07D6844B1CDE902C8CDE9B1
:1053600000E501F0D9FB05B0BDE8F083B6F90840CF
:10537000022CF2D10FFA89F9B9F1020FEDD1CDE982
:1053800002C8CDE900E501F097FBECE79B69FFDE81
:1053900000235B68FFDE00BF826913880BB95B687E
:1053A000FFDE2DE9F041526888B0546804B12468EA
:1053B000012B34D01369002B2FD0456A1968B5F939
:1053C0000C60826AD1E90501D0E902EC0EFB06F619
:1053D000A3696769D3F8008098689268896806961F
:1053E000B5F90460C8F3C6130EFB06F60596B5F9C9
:1053F00008600CFB06F60496B5F900500CFB05F5A9
:105400000395FD6802957D680195E468E468009461
:1054100001F040FC08B0BDE8F0819B69FFDE00238D
:105420005B68FFDE826913880BB95B68FFDE516839
:105430004A6802B11268012B30D00B6963B3F0B532
:10544000456A1B68B5F90860D3E905C1DCF80C4072
:10545000D2F80CE004FB06F6906989B05769B5F9FB
:1054600000308968DEF80C2080680696DCF808C0F9
:10547000B5F9046003940CFB06F603FB04F40596EF
:105480000494BC680294FC680194B5F90C40009443
:1054900001F0A0FC09B0F0BD9B69FFDE00235B6852
:1054A000FFDE00BF826913880BB95B68FFDE2DE960
:1054B000F04F526891B0576807B13F68012B45D053
:1054C0001369002B40D01968FA68D7E9057BD2E947
:1054D00002230E92D1E90242B4F5A06F446AD56866
:1054E000B4F904C0B4F90C60B4F900E0D1E90501E5
:1054F0000F95D0E9025005FB0CF905FB06F600FB01
:105500000EF8D2F808A0896828BF1269DBF808B045
:10551000CDE90B96CDF82880B4F90840CDE9065CBA
:10552000CDE908E40590BC6838BF01220494FC680A
:105530005846CDE902A40F9C01940E9C009401F002
:10554000BBFC11B0BDE8F08FDB68FFDE00235B68B9
:10555000FFDE00BF83691A880AB95368FFDE2DE9B0
:10556000F04F596807464B6893B003B11B68012A96
:1055700000F0C9800A69002A00F0C8801268D3F8D8
:105580000C80D568916914681E689A69B8F80C3067
:10559000D7F830C00C93BB8B90680D933B8CB8F858
:1055A00004E00E93BCF80430B8F808200F93BCF860
:1055B000003089681093BB8CB7F828B0B5F808A004
:1055C000B5F80C8011932EB3D6F804C0BCF1000FCF
:1055D00030D07588002D57D1002C37D06768B94678
:1055E000002F7AD06588B7EE000A002D57D03B68AF
:1055F000D3ED000ABCF1000F7CD07688002E55D187
:10560000B946002F67D0658835B3D9F8044094F9BE
:10561000005021E0D4B1D4F80490B9F1000F6BD060
:105620006488B7EE000A002C5FD12646F0EE400AEF
:10563000254611E054B16768B946002FD2D1B7EEC4
:10564000000A3E46F0EE400A3D4605E0B7EE000A8D
:105650002646F0EE400A2546119CCDE909650594E1
:10566000109CCDE907A804940F9C0C9B03940E9CFE
:10567000CDF818B002940D9CCDF800E0019400F034
:1056800007FA13B0BDE8F08FDCF8005095ED000A82
:10569000A4B16768B94617B16588002DA7D1BCF1E0
:1056A000000F13D07588D5B1F7EE000ADCF804506E
:1056B00095F90060002CA3D12546CDE7DCF8046005
:1056C000F7EE000A254696F90060C5E7F7EE000AF6
:1056D0006646002F97D13D46BEE7B7EE000AF7EECB
:1056E000000A0026002C8BD1E6E7D9F80040D4ED63
:1056F000000A8AE7664687E7B7EE000A4E46F0EEF4
:10570000400A4D46A8E700235B68FFDED368FFDE52
:105710002DE9F04F2DED028B836997B01C880CB9F1
:105720006368FFDE5D686A6802B11268012C00F0F0
:1057300095802B6903B11B68022C00F08F80EE6905
:10574000002E00F098802F8B3168012F40F2958059
:105750007668032C00F08280AC6A456A002C00F069
:105760008E8005B163682568B469D5F818C0A4684F
:10577000DD681494D468AD88A688D4E9024A1194EF
:10578000048D10951294848D15681394DCF80840EC
:105790000F9615940E681C68002D65D06F68002F59
:1057A00062D0B5F802E0BEF1000F5DD03F68D7EDE2
:1057B000008A002C55D06768002F52D0B4F802E060
:1057C000BEF1000F4DD03F6897ED008A9B69976945
:1057D000896990F841B0D3F80890BF68D1F8088083
:1057E00016B1766806B136683DB1696800293ED0C9
:1057F0006D8815B1496891F900503CB16168002984
:1058000037D0648814B1496891F90040DCE900019F
:1058100004F0AAFDCDE906460124159B0B900C93DC
:10582000149BF0EE480A0493109BB0EE680ACDE991
:1058300002830F9B38460193139BCDE908B900936F
:10584000BDF84410129B05951FFA8AF20A9400F0E5
:1058500033FA17B0BDEC028BBDE8F08F00235B6814
:10586000FFDEB7EE008AB1E7F7EE008AA1E70D464A
:10587000C3E70C46CAE731466BE7002669E70DB976
:10588000AB69FFDEE368FFDE83690146188808B96B
:105890004368FFDE2DE9F04F2DED028B5C6897B079
:1058A000626802B11268012800F0A380236903B185
:1058B0001B68022800F09480E569002D00F09780B5
:1058C000268BD5F800C0012E40F296806D68032823
:1058D00000F09780A06A4C6A002800F08F8004B125
:1058E0004368AC690068A46880691494D468DE6871
:1058F000A788D4E9024A11940C8D898D15681391FB
:105900008168D6E9026B129410961C68DCF800607E
:105910000F971591002D60D0696800295DD06F88C0
:10592000002F5AD00968D1ED008A002C52D061684E
:1059300000294FD06788002F4CD0096891ED008A6C
:105940009F699169DCF81830D7F80890D3F808807F
:105950008F6816B1766806B136683DB1696800296E
:1059600043D06D8815B1496891F900503CB1616828
:10597000002938D0648814B1496891F90040D0E911
:10598000000104F0F1FCCDE904540024159B0B90B8
:105990000C93149BF0EE480A0393139BB0EE680A35
:1059A0000293129B3846CDE900831FFA8BF30993CB
:1059B000BDF84030CDE906690893BDF844100F9B4F
:1059C0001FFA8AF20A9400F0C7F817B0BDEC028BF8
:1059D000BDE8F08FB7EE008AB2E7F7EE008AA4E7E1
:1059E00000235B68FFDE0C46C9E70D46BEE7AC4608
:1059F0006DE700235B68FFDE002568E724B9A36933
:105A0000FFDE00235B68FFDEC368FFDE21EE000AD5
:105A10002DE9F04F00248FB005469DF960009DF9F7
:105A200064600DF132090A9080EE200A48460B9618
:105A300093460E46BDF86870BDF86C80DDF870A026
:105A40000993ADF832400D9401F0DEFA0D90BAF1F1
:105A5000000F19D04346B8461F461D9B304606939B
:105A6000099B059504930B9B424603930A9B594659
:105A7000CDE901930DAB009301343B4601F0CEFF1D
:105A8000A2453D444644E8D10FB0BDE8F08F00BFC9
:105A900010B4BDF804400194BDF808400294BDF86C
:105AA0000C400394BDF810400494BDF814400594D4
:105AB000BDF818400694BDF81C400794BDF820407E
:105AC0000894BDF8244009949DF928400A949DF952
:105AD0002C400B945DF8044B01F0DCBD70B402EB7C
