:020000040800F2
:1000000000A60020F54B0108714A0108734A010857
:10001000754A0108774A0108794A01080000000082
:100020000000000000000000000000007B4A010802
:100030007D4A0108000000007F4A0108814A01084A
:10004000914E0108954E0108994E01089D4E0108F8
:10005000A14E0108A54E0108A94E0108AD4E0108A8
:10006000B14E0108B54E0108B94E0108854A010894
:10007000BD4E0108C14E0108C54E0108C94E010818
:10008000CD4E0108D14E0108D54E0108D94E0108C8
:10009000DD4E0108E14E0108E54E0108E94E010878
:1000A000ED4E0108F14E0108F54E0108F94E010828
:1000B000FD4E0108014F0108054F0108094F0108D5
:1000C0000D4F0108114F0108154F0108194F010884
:1000D0001D4F0108214F0108254F0108294F010834
:1000E0002D4F0108314F0108354F0108394F0108E4
:1000F0003D4F0108414F0108454F01080000000035
:10010000494F01084D4F0108514F0108554F010853
:10011000594F01085D4F0108614F0108654F010803
:10012000694F01086D4F0108714F0108754F0108B3
:10013000794F01087D4F0108814F0108854F010863
:10014000894F01088D4F0108914F0108954F010813
:10015000994F01089D4F0108D7A00008A14F010841
:10016000A54F0108A94F01088B4A0108AD4F0108AE
:10017000B14F0108B54F0108000000000000000069
:10018000B94F0108BD4F0108C14F0108C54F010813
:10019000C94F0108D14F0108000000000000000015
:1001A0000000000000000000CD4F0108D54F0108FD
:1001B000D94F0108DD4F0108E14F010800000000A0
:1001C000FA13F5125315D1E77F3BCE2C1DDD1E6EC1
:1001D000D0AB4222BFF20BA4B413F0B4BAFD11119C
:1001E000060C11DF291212D1103B469EE80D79C290
:1001F000CEF47FE3CD8D452EBAE9F337FECFCF2E77
:100200000FF5BC283412A7FB57229B001015BE41E6
:1002100012811F4BBCD9E617D7DEBD53A408F327C4
:10022000F41BE7BCF95E32A0FD49469637353C1019
:10023000F0FB38E22DECF40F100D120A3D1E3F3B8F
:100240002843EBF40325B8BAC50AF99081B1EAC88E
:10025000E7BCEBF914D8E31C3BEE0C7C32082333EB
:10026000DDDBBE04F40DC53AFA0DB84D03C8F00D40
:10027000E39614F1FC81E32E3A3BE72F2340361E30
:10028000F45E54C8FCF445C923EFF3EE3700AE0129
:10029000F312B832FCFE9710CE13BE61E2F0F5699E
:1002A000CFF21D7FD6CEFC72CF341D39F51230133C
:1002B00023EBFFF91EFF140A311DF62320F8D81B8B
:1002C00012070925E7050801A10202FC8103F3CC0E
:1002D000D316E1E523F003FB1825AA6A44EAE8FDFA
:1002E0005F814F13E3B238AD9EEE0CCA903C20E81C
:1002F000C950C85B0A21D821080CFC0E5EFD1DE523
:100300000B11BD30F4430536D9650FEDED463CCDFC
:100310000FF77FC31B994CDCF587CE3322FED91033
:100320002B0EB80B0302E70D817C8B05B439CA3163
:10033000FA65E66AE10C036EFB18D568FB07F278F4
:100340003601084840C00804FFA6F943319BC36743
:1003500005E1DF5025F3C73013F699652209C33D47
:10036000192F003AE93728CF0018258118F1F3C476
:10037000EFE537F2E6EB221B04CF3CF23CF7C5E990
:100380004345A1F5367CB004E53F32F1F5F77F0A2D
:100390008DBD3DDA02D0013010D5000AE2F740DF12
:1003A00029E5E42DE225297FC640462CB900FDBC95
:1003B000FEF8C0CBFFFAD5D625FCDEE60FE5F51A30
:1003C0001D0F182F0503460DFBF8D4EE06FA110B8E
:1003D000FBFA32D0DCE648B0E5E616AE05C90CA95A
:1003E000F6FEDCE30CFEC8383009E97A22EE117F14
:1003F000287FC51E1A0EC901379D1400C997F8EF52
:10040000F7E01734E9E7351FAD443FFA99F10CF1F5
:10041000EF5921A9670CE1B212E73E12E110220E5A
:10042000D9C161E4B6E22E3FC9E70B2729ECF4F409
:10043000F134AAB5411ACD9D263FE7933D7FD8E020
:10044000F7F8E2DC2D30EAFDFB1A2277CAAB33392C
:100450000AE1EE810B24DB9900000E3702FC0A1C36
:10046000F2F1F90F1410FF0ADCF41231040E70F6E9
:100470000D1C400B284F15070A6D15FB3270190C27
:10048000FD13BAAB19BEC7A101CAD28135A793CD5E
:100490000FCFD16E190CD12B032BF5B9FB4A288A4B
:1004A000CE567F8F913047A9DEF04702D1E33FFF60
:1004B00021E4FD0E1ED5D6182905FC2228E82B18AC
:1004C000F5E14BFDDBF25DF322F920B60529D6817B
:1004D0000E4FCAC0D440F6F60EFDD8F9D7FCCFEDCA
:1004E000FC5D392ADD28490CAC2EF9FDC2E7ED127E
:1004F000D020FA05D2F62F0729F30AE734F11FDDE1
:100500007FF405B068F1F4D0AB134481B8025F0406
:10051000D7FC1961DC0D217CF5E4E46D2208F510AF
:1005200040F282044402C4CA50FAB4F42102963F55
:10053000D1E30EE0F40CDEA22709C681070FD2B981
:10054000FE14E4F1B9ED07EFCE023CEBF41A5BECDC
:100550000F302BE5243BE4EFF814FEF0F904EC0334
:100560001A2BD83D19E831500CBE44E6FAD3E58188
:10057000D722B6C9C611FB35111A3535160402014A
:10058000D5FCA447C501021B1B2F51DFF85B73018B
:10059000E46D7109D9155B10070C20A701E59DC515
:1005A000188C81D404A7B7692112C97FFD0BC644FA
:1005B000F108E338CCF70BEFC1FE18DAC0D31AE22A
:1005C000CAD916F9DFF22102D4EC321220F8101643
:1005D000071A4E79003A362DF5340FFB2F4006FCF2
:1005E0004D24038154DE268344B5FD9B20DF17DDB7
:1005F00017D0A7F2DB2B8364141132F6E909F5FD5D
:10060000111BBAF0D7338F29A42CB75CF5A63A1981
:100610002B9E7F08FFCDFCF6093BD51421401CE63C
:10062000F6F9DE21E6F1E10AE604F518CE29DE301E
:10063000F12CCC38CF16CF3F00EA16E825D135CCC7
:100640004DF5398134FE3FC1E21B2681D21C509BFF
:10065000C3051A02D201F413EFFAF60B0DEDFB2DD0
:1006600000FDE2331106F44814FFEC392405E94D8E
:10067000BB12FBCEC6E83145CFCC33FFCFCC08BE92
:100680004DD1D5A673EBEAEA5EF1F8682954027FF2
:10069000D353ED1CA81DFE1F00305062FBE6387BD3
:1006A000C0E17639A7FA1744DCF336C903F7EDB198
:1006B000300EBB810E229D872C33CABFE8C31E0EAD
:1006C00010D458F9F3F21E0FE5EBADC40ADDBF14E8
:1006D0003C00A31B4405BF2413040727E5E9F848A1
:1006E000B823FB40AE1BED7FC64BEC17B9F21405E7
:1006F000E718A16C001BC77FFDE0EE512BD41E4113
:1007000018CB46F70FF56CD31DC73E900DFB02D4F6
:100710003957F8317122C9F331EFDAF531010FE4BD
:100720001FCE181505C11CDDDEF91BECA010EFF97A
:10073000811D1012B42D401425BAC3D208F0FDF06B
:10074000E50DE63AB2240C56E419017FB7FC3635C4
:10075000E6FC2F19FC1A320DCD353DE7C501120E0E
:10076000C201ECB9BA1AC4C09B0F09BBD4FF23F86D
:100770007FDC4BDB60CBEA352A07BA40EC12E91587
:100780001421EF021F1440CF2ED7CABF58F481ABFB
:100790000DDDD4B40CD4B2BCFCDDF60D0CDCD83EBF
:1007A000DB00FE4DF01EDF51EDFC3725F32C47201A
:1007B0002DDE7FB741E17C144B61682F48516E02FA
:1007C000596B50FE34103113F20F1128E6E5EA0997
:1007D0009BE8EF128BFEABE2203BC50E0343C22227
:1007E000DA1BD535D84003FD1CFAF1C303F32FC340
:1007F00026CB0CC504C413E6FCBB0A1EE095337F70
:100800000BE3A5E6D4F8F00FE8F3F64AE6F0347F00
:10081000F1F12961F9021F61CF24410E095E31F621
:10082000EF4B128DF0FFC483F6D9D846A100FE2904
:10083000DD2E4767AC477FE2B83037CE091406C2D9
:100840007FECC2D154DFC9C00A0DCCE806E316E341
:100850001B7250FFDD382ABC054D14870BCC098173
:1008600027F8D8B5F0E8E612E6DCF448F8D7024AF3
:100870000C30DB35F9FB06070308E1A403FCE8F5BF
:100880000CF41C11E301225DFE03355BD7F43C7FC1
:1008900003061D261C12F1F6F5FCE0E3EFF8D290FA
:1008A000D40FEBF8F2E9F325FBF00639FCD8E0BFF2
:1008B000F2F0DE81FE06F8AF1A3320F615191B2F71
:1008C000460614213AF7F329DD223F13F6EB2323E2
:1008D0000AE5DE2C1CE0B0372B128130351CB1F15B
:1008E000F61F10D8E10A36BAEA1236D5EBE739E43A
:1008F00017142C081118281C1C0E20090C32312A40
:10090000FB2AF34DF8C60242F881DCFEFC00B797E3
:10091000DFFCBBA4DC0AE8C83EE4DAE5F10107F33A
:10092000025FD4DF2F70A7F905128B2F34B0145E4D
:10093000D9A63B482A811B1FF2D32FDBF43430DCCD
:10094000F635F703F4183F0306E33C13E5B84521F9
:1009500025C8CC62F5028175054CBC2A083FD5B28A
:1009600026FED996E3E8EBDFFF16E71802EDF31B4E
:10097000DEE70AF107F61D9B091114811F0B0FDA40
:100980000123FC14FCFDEF50E904F04509FCF63BA3
:10099000B8E4234DCAF5D51DF3FBDF05290081E539
:1009A0003206AFE61EFDE3FF252224E5250F61E8B0
:1009B0002C3253EF0509112AFA1E211648260C0A7B
:1009C00020EDEDFFDEC7DC1DD3CCFD31D8DC350AD0
:1009D0000E0C35AC2E1F16D11728D0ECE41E811852
:1009E0001C0DCCC714F6B9E7D8DBEBE4F3F2060C28
:1009F000C8096B2BE91A7FFD02313BF8092B120C59
:100A00002D00E93E16DCC40F8126E1CC9C090BF4D5
:100A1000EF15F631E0DC463BCBF52F62F8161F6789
:100A2000DAC4635A18DC3F13F3A21F28410EFBDB24
:100A30000F211823E62251F8F8FD23AA44F6FEDD23
:100A400035AD12A002CCE9DE030DD555EB09F67FDA
:100A5000BA07E323ECF70552210319E64BEFF6AA98
:100A60002A02E58FFBF4C8D5D9FDE515C700137F31
:100A700009014071EF03282AE90709051FFCEBCFA4
:100A8000F4CC14EAFEEFF8E501DB5ACFFDBC7F059C
:100A90003DB651050BFB18EAD432C92BE63FBAF834
:100AA000CB7CA62EEC33D71F32E6D79F4720379D4D
:100AB000514C45FC5D54594EB335F07FAEBCAF137D
:100AC000CA8A9033EFEFCFCBDC25FFD702EF2202AB
:100AD000F4EF458105033C980DFD44E2EFE9241154
:100AE0000603EB34F921C849022DD0451B1FDF3422
:100AF000FEFD122CEAFC00358D133E66F3C2D84190
:100B00009499E57FA9B6FD38DCCE4D0304D5549BFE
:100B10002E336F855E2D15B77650CEE37323CFBF8E
:100B2000F3F00817D8EBF049C8F6EA52D3DC1654B4
:100B300004EEED22F60ED4EB3C53D2BA2F2CCCAD02
:100B4000330AC1810F08C6B34FB0E61550BE0B394A
:100B500044DE07EF22EC281FBB2C0D44AD1DDF2621
:100B60008117D911A31BBF45A2002114D510143C35
:100B7000EC2713F3120524E1F2010D031C04CD143C
:100B80002FC9B4072DF6811F2207CF4C020FF33E69
:100B90000C08C85AED0BEE4B051DD6B011FFFABD7F
:100BA000134C4BBC3058360C0314797AE3DD4E7F7E
:100BB000C2BB2D60D5A71B25C9D40E1809EBF92699
:100BC0005CFFFFFF5DFEFFFF9100000084FCFFFF64
:100BD000B2FFFFFF2A0000004A000000BAFEFFFF3C
:100BE000C4FEFFFF14000000880000006900000040
:100BF000EBFFFFFF04FEFFFF62FFFFFF55FFFFFF5C
:100C000089FEFFFFEA0000003FFEFFFF1E0000001C
:100C1000370000002A0100005100000027000000FA
:100C20003B01000030FEFFFF9CFFFFFFB9FFFFFF0D
:100C300082FEFFFF91000000CEFFFFFF59FFFFFF84
:100C40004500000003FDFFFFA7FFFFFFFD010000BF
:100C5000FFFFFFFFC2FEFFFF9B0500008AFEFFFFB4
:100C60008AFEFFFF090000009E0100004300000013
:100C7000F9FFFFFFCC00000003FEFFFF6AFEFFFF4D
:100C800071FFFFFF500000003400000055FFFFFF20
:100C90008C0000009EFCFFFF3DFDFFFF1FFFFFFFDC
:100CA00026000000AD0000008CFFFFFF3CFEFFFFB0
:100CB000E800000008010000A2FFFFFFADFEFFFFFB
:100CC0002AFE1EBCDE0F3B81C801A081C6ABD89AAC
:100CD000ED61C120B4D1168ECB1E81D67F0203B048
:100CE00036F8347C23DD7FC9E47ADFE1F7D31B0AD1
:100CF0007FEDDFF024D8F7C97FB7E6D6CCF8EEC198
:100D0000A8F38ABD358125F57FCBA8B9D32BD7624F
:100D10003581704E8A5B00FD4DC4E2E47CBF7FCD1F
:100D2000F9D895CD36BA3CBF0019BC7FB92DD98111
:100D30006ADB3DB52D2DEAB731F281F3F5F3DF1A09
:100D4000D720AFE17FBF3D04B006D879B49D7F22A4
:100D5000D2144D4AC0224A778116128D33E781DEC4
:100D6000E29936E77D25B37F02BC24D3DB1E7FB03A
:100D70007EE8EFD94116F80DEAA91DE781F508EBE9
:100D8000CC23A8CA2E812DF313F1D6DAFD7FE0CB58
:100D9000DF0F7FD8DEE634F9C219E8E31D8100D504
:100DA000B854E7D075BA01D4E6812A2FB413ABAF9B
:100DB000F581C8BF04604B2E4301CD81DB5C39B89F
:100DC000D4D8073E7FDD0A1CCEF0157FEB18F43B2C
:100DD00078BE157FCEBCBD4581D0348BCDE3BEFC43
:100DE000E90AC4E017BD7F1CF2F77F55F9E9FB0063
:100DF000EEEDE61BF7812EFFC26309FCF588EAF2EF
:100E00008144F8BEA6EDE18AEE127FEB21F7F69C55
:100E10002AAF0F7A81F5FBECBB05FE81010C99F638
:100E2000BA16E9DC1EE5017FD42B05D64B0705F881
:100E30008120964419C57FF14EAB7FF1D8CED61FE5
:100E4000F9FE111607A923DD8107E51ABFFB037F11
:100E5000C0E9050C97FDC050E57F94E51187C7B246
:100E60001281B232C603D5BCD6A596C908B1D07FCF
:100E7000D1019A25047F01282E1281D0167693EC99
:100E8000282022C18BFBD486147FBF0411ADF4D37C
:100E90007F020B29B2B125BCEE7F0107C33F9C81C5
:100EA00005FDEF1EF2143843BA7F74E69B92D777A4
:100EB0000A818CDA509B236930FA7F26F60C10CF1A
:100EC000A14882AD504B819D0546F3F9037FDE506A
:100ED000C403D3C9F3F9E6FE9E04F581E020B651C0
:100EE000FB81FCEC9681033D9CCC272DB655B7DDEC
:100EF000E5D1DB7FFDEECFDDDE7FE14D500EF3B8B7
:100F0000D5010000BF06000083020000DAFFFFFFEA
:100F10006501000052FFFFFF1A010000E605000016
:100F2000F4FFFFFF070000005D000000300000003C
:100F30003F000000B5000000F50000008F00000039
:100F40006CFFFFFFBB010000070000002000000055
:100F5000C60000006C03000082FFFFFF49FEFFFF98
:100F6000C00100005A010000D3020000EDFFFFFFA6
:100F7000140000000F0000005C0000008F03000060
:100F800015FFFFFF05FFFFFFA10000006F0200003B
:100F90001B0100007C030000660300004402000007
:100FA000F8FFFFFFB0FFFFFF6BFFFFFF68010000CE
:100FB0002F0000000901000004050000D605000014
:100FC00065FFFFFFA20000002E01000002000000EC
:100FD0006B010000AA000000BAFFFFFF4400000000
:100FE000AE0000005A01000008000000B702000037
:100FF000100200001703000086010000F6FFFFFF4B
:1010000035B10302DE4EE200BFEEFF09F65A17F5D6
:10101000CCD553F21909C49A1831F5D21CCEA012BE
:10102000270DBE53386EFE25DC19E00ED8FBC9DA59
:10103000C4CB9F424AF8281681089C33A1E6EAD522
:10104000F2FAFD2C05D9ABDE24CCEF43F6F0DD5CE3
:10105000011EC504A6471C163FB833C3480B120730
:1010600022E24E4312450D7F22DB4DFE43D6227114
:10107000E5CC09B3D5D224EA37231CEA5F9D3D09AC
:10108000262D26880DD81DA3C21D35DC43D929A9DC
:101090004CFBD93E5CC7FCD7F9C09C0A1DEA450A47
:1010A000D6AF1A5521811CDEDABDDF061A0429FFEE
:1010B000EA5A0958BEA40800FFCC0CF83A01064CC5
:1010C000F6FE3C1422F2037E192B22EBEAAED1AFDE
:1010D000D1C3B7C37FB50794E2329BF42CCD5F5DDB
:1010E000E88A0CE843BEB4040A38030713053261EA
:1010F000F7B5E2D4E543DFF88B95A9DA0F1B7D2E17
:101100007FF231BA1951DD9EBD510AF50EF01BEE8A
:1011100024B3B32DC4EAC714D441FE20E90EF12054
:10112000EC6A9E1F240AE1D7FE9106D5EFCB3BD88F
:10113000FBF826ADE215AFBEF204D92DDAD2B82104
:10114000E337144896F1102B96D49D01F8F3D2168C
:10115000ACCDD5CD22C7F3AEDD08D5C0B5D4A53E04
:101160004BA7B5EB1F79E916F5DBC3FE49972F6056
:10117000FCDB7F94F621EFBBFF97F4C84C1388305B
:1011800016F24DF41C1E00AF4C5E14DB59FD5BF6ED
:1011900050DFFB4BFD05EA621C241E2A0D690B4241
:1011A0005B201201E34B0FE15FB79A142F5E12F13F
:1011B00040160FF21219361DEEB6DEFD7FB9D407C8
:1011C00013AF03AA0E1EFFB005A7101752E101E2EC
:1011D000F38CE2EBCB192EEADC2BB67FF41AE8FE97
:1011E00013BA152F3643C3C8F6C0D02ED341F2CF61
:1011F000EBE9E20B1F4FE70FCFF1D3EDE5FF0E0058
:10120000AB4F08FC30470637D60106874038D8FF79
:10121000D4B2C2FDC681370019A1010F49EBD5DF59
:1012200021D739F61301527415EDA6FFF40F5E15A0
:101230004501582E0CF4B6EF21CD17D0F8E6041274
:101240000C11BE0F1BDAD84C0B2DE000DAD9E50EDD
:101250000C0C31E4210E1139B1E516EBDD4E04CD55
:10126000F00314C637DF1FBED3E54CF7BB0781057B
:10127000092002FB300CD8039823FA40F01F36DF18
:10128000CFAF4E8EFB12F80EFAD92EF5FC0FC033FD
:10129000ACD515F6EFE844CEE1B8C8E632420B8192
:1012A000FA22FCF7BAEC15282F1F2CF4120238DCB6
:1012B000383F2C18AE30D8F500B225E8E1E845DB20
:1012C0003EEC8C1E5EFD337F133A080BF2C3FBDA53
:1012D000D1EC5A3ACB3D0AFFC9EC1826F735E04766
:1012E000F5BD923507F5B8B6D6BBE4C4B732F5EE16
:1012F000B5D3FD2268BB1D07C5E0B61C8238C153BB
:10130000F0DCBB0D19CE3D06FADF0325F7CDC0FE9C
:1013100014F4F83EF3C4F348DDD0EA32F920C8549F
:10132000FC162F0859813298E7EBF321F42BA31F09
:101330003A0319D0E3EFEE2ADCCF0C8E0ED7EA0E7B
:10134000D2BD1B3BFF0F25E0EBFB3F0F3BC1D5158B
:1013500081E21819192C10B712ED35DCEE0F272990
:101360000F9FE2DCF5D0C51E1E27430DC400541D9F
:1013700008DFFA393C000C4414E2D81F00E3D2BD68
:10138000F0FEE3F91EDBF528ECD7D4091581AFE0B8
:10139000EEF90AFE02001BE835E9EF14B5E60F0D81
:1013A000DCEE28CFF5C61FC0F4FCDEFEFCE9D50755
:1013B0001623212DCCFDD90FF7B1F5C31401F2147A
:1013C000900A1193113F0BE42D8D30DDD4C9000735
:1013D000D24B26DA7E01BEFBD423F446FDDFB2CC2D
:1013E000D7F5172640AC290E1E2E7FF123461CEDA3
:1013F0009A1AB4C00F40F6E9C438F5FF21F0A8D816
:10140000A2E9D607B3D8D8C9FD3A441CF2CBC2DB57
:10141000D005272D1C1DF5E61AB013EF611CE2372D
:10142000A1DC631C1D071B31F64A1DD9231422447D
:101430001A1FDFEC044781D149CEE1B311CFF2117D
:10144000DA8EE8C50618346021C330FEB0D7C4E791
:101450009C4639B2145DFCAF9E1230EBDA18E9DC21
:1014600014DA19F7FBAA3E26C8D456191A7FFC4293
:101470000AF330C91F36C60FA40AEFEF4709D40894
:1014800000CCC5C2A1FA0CB93B24DEF3E217320846
:10149000DBCC064AC55AE916E90FF6C2DBC6812F36
:1014A000FD1C3ED904FBD9C2C7FAD4E3F8E4B4FF6B
:1014B000F6EBE70D0B0B22CA00B8E1DBE90715E7F5
:1014C00011ED3DEAF3D026B75DBCE206E3DC11394D
:1014D00015301AB30C00FF4700254B180F1B70ED99
:1014E00056811BC43937A9F12EF7D2D1CDF5AEFF05
:1014F0000BF40713EFF534B9A73FC44FEEBD260335
:1015000019BB9B9300BA238FD0DD1E421BE2DF9EE6
:1015100051F1304DF63EF94EF5CC1DE8C63A814CFE
:10152000050C23FDEEDAB531DA2CFF023A0A9A1ED9
:1015300008F9279C451BD0F555224C9C31C6B314A5
:10154000E61DDA39FBD828FEB7F8E3200FBCD2C27B
:10155000F938A608DF02AED371A80FF2DF8101EBE4
:101560000C04E805D6CE28E087C923F6D5B9C5F81E
:10157000D301B6F8103D1E6A191D04B6F667F79C34
:10158000DFBAFC291AED1B01FAFF00E81AFA3181D3
:10159000F800F9F611BDD2E031EE14F8252A161C38
:1015A000000D001B2B0311DEE7F22D16DAEDDBE850
:1015B0000CF6A3F110D90AE3B901E8F4C5C2193257
:1015C000EB08280831BAD65331D8DE321C14972FD5
:1015D000344D1D12F5E5D9DAFF26411D64FB111EBD
:1015E000F1F139D40876B8E856E8F1AC5FF1E1FDE5
:1015F0002CD3227FEB36072603E5040083354426EF
:10160000D102FD04E71DCFDFC41024DBCF89C5F371
:101610009EEE232E2BD0E4F00C372BDD3E30FB1852
:10162000811DF6E9F2C428FC0D4DF31E99E21B2D35
:10163000C6E6F396FA42F90F23F52DD70DBBFDB69A
:101640002EF9E8CFF31FDBA80ACBF2E611F8450923
:101650002F01E9811424123C1812E846E1E2F7E177
:10166000CFD520DBE8F0251BE3F12050FCD2E8A326
:10167000F0462027EE33F048983ED2CDE33313DE18
:101680003A042992E3052B03EFFBDED426DC570056
:10169000F8D7921D8143EB21C72FCD1340FBEFE418
:1016A000B6C7C35024E6EC30CB8F0021E7F9063EE5
:1016B00006E0F4EDFC09E6DED5B3A0F7BC2044CA91
:1016C0000E015DF45A2CA36B4F1BBE392DD512555C
:1016D000404042B5F1E8F0F433AC3521F3295CE940
:1016E000181B60C8EC253DF35F5B07F4BBEFE0819E
:1016F000CCD30FFC2AEA20349742D711F8E10AE054
:101700004ACED8CD38EC3A1C8109ABF83CE1B49D07
:1017100045004B340AEFEC3AA2ACFEE32A21D50394
:10172000DD45B6F14BD000E7D11EFCD9363150660D
:1017300001B94C36E5BAAB163C34F304F4CDE449B8
:101740001727053B5505C2B21DD7F521D4CE1F2959
:10175000C42DA634E41EC5F06ECCCEE5E7EBE8EA76
:10176000EF070C2FB981CD3F3805124EE9E6037E15
:1017700032CD10E509E2C74B5D315DF234C50CD0C6
:10178000EFE5CDF0322690BC0935BF7FF3B60A52A3
:10179000CA18FCE2EA61D7FF033FFC1B03F84A16B4
:1017A000314418EEF447D6BFFAE6E3D036D2C0D8BB
:1017B000F9B9CFB9F4F2E6032E3219110EE61C3F47
:1017C00010FBE5057FFED9BA08D5F431E35FCBD233
:1017D0001040F6D5FF2A1EEC18DA4727F8DCB93E90
:1017E000131000F2EB2132ED18D15D28FAFAC78907
:1017F000F0BB0DFEDF194E0C4C073014E103F2E193
:10180000020C28BFE4FEEA27BA0ACF0AFB0BD61E59
:10181000A71DD792D6CAEAC0FBB121F1EEB40BB72F
:10182000FC2AE6DDFB31032E1B0022FA12B934ED4F
:10183000D131D511F8BF180A811DE81BFA2C2CE80C
:10184000201A2EE13F6034D4EE5D42D41D93E9327C
:101850008331432924261FDDF7DED6091425BDF880
:10186000E7E7C4F7C4C1770A95D9642E1617228119
:101870004D1E6708BBE2A62B4D33569C31D9960707
:10188000F60ACAF57F1604401CCEC90411E1CDF555
:10189000B7221CE725D032E9C91CFB0FF62A3E2BE4
:1018A000BCE525DFA0BF00D300D0EEF5A1CE162603
:1018B0000F4AD523BB4145FCEDE802EADC1E191BAB
:1018C000E2C007FAF9C2CEAC81FECA8D0621BFCABA
:1018D000EAF2D3FC41D2F6000439BE89DD1EBBE139
:1018E00020E0203333E3EF55ED00D50C0D002277D7
:1018F0001208B828F5CAAF240929EC2AE5CC1FE55F
:101900001915F533E00BF3F7C1DB00F0CB5F11C124
:101910004FE0C5C99DABB63BE60A220BFCE6FBE9EE
:101920001FF0D4032D49C4C5C334B0B0E3BC1FD5E8
:10193000DBD6CC0D73DD4DD30115DC0A81C704D590
:1019400029031124EA18AFF74619141E46F2F3E5ED
:10195000F808F9521501D4F9D5B956F605ED0F5D21
:10196000381A3DBA350FC7CD285226D02CEA0AE1E5
:10197000E1DDD5E5179BE8C7DA0040D60FDE81022E
:101980005AEA2FED5A18FDE5173109294ACE30FAE7
:10199000EFADFC1EB33FA52542F5DDF8ED81C2FD9C
:1019A000D5BCCCCD3900311A16F9E7E30607ABB642
:1019B00008E40D01D908E3ED02DFDE3AF527F6036E
:1019C000302A2C1FFBEC08151A2A44CC186727EE86
:1019D00012E239C4440757EFFB57BEE049E61CF654
:1019E0000220637F091DDAF935473326DA7DD51FDA
:1019F000D9EB20BED56D3AEB0009D735DAFDBD9F96
:101A0000C740EDE307DFCC0005FB1BFAB110F12561
:101A10001D39DB1B104C9010020825DAA8E819FECE
:101A2000DD391B11D7E3E24428F2FD1AF4EE93F1FD
:101A3000E9CF81F1142AE2560C37E750F6A10AEDFE
:101A4000C2FE2AF90811D320DAAE04191A0A0ED1FF
:101A50001B02D5190CAEF8EC6610BD5FBEBFC244C8
:101A6000E1E54CFE1DB7F52DE1B1E87FD312F91F7A
:101A7000E802F96FE73B2D4510102F5E00C843E4E4
:101A80000FE4047FC9251ED00F47DEDBFDBC70C00C
:101A9000D0B8036C0EEDAB180A05AE3D0604F43F5A
:101AA000E348980803C8F4DA91E1F255DFA3ED4169
:101AB00022B7AB614D01C945E12D90CEC9BB07CE20
:101AC000E53A0C14E10503BB33F11430FEC719DA13
:101AD000DF014514E8D01612C6AEEC272C1E230DEC
:101AE000EA01E852F1EC03F0096845150E2D25B224
:101AF000141E0C3B2801FAF315FC4781E6CFEC1FBE
:101B0000E0C7DBF8F9E0E2BA533A4720C1F2118BA3
:101B1000E4D7A4DF1403AB7F1CD918E103EF301E18
:101B2000A1F90726D9ECBF2AA8F9EA2D0726C11486
:101B300038D1FFACD3D60722466EFB6F1530FFE5D8
:101B4000C810DC259AEF2CF11CF4BBF6278EED0DA6
:101B500081E4264FF4E42F0EA6ED47A434D3DF2909
:101B60001BECF1CEB206A25E22D807E24612BC2CD4
:101B7000D59F4DDE5ADFFB6619EBE6157BF646D4A2
:101B8000236847E4FB0519BA8A0DD816B382AE491B
:101B9000B53927FB21E861A5BAD0E8D0C01EF915F8
:101BA000B1EAC8CDE6CDD2C73B46EDEAF2F6EE3E4D
:101BB0003C2F4437E5D681151ECA3C040F0F31FC7B
:101BC00019D055E9EAD72B81562641BFF5D9021322
:101BD000ECED20DD00042F01FD122D1F16012CD18C
:101BE000E299C2C631BC5F574B4433EA1740592BC8
:101BF000DB262713FB2FF9F7B928CFE41BC21917EF
:101C000038C5D14B9BF7EF2BE4333B21EAAADD37F4
:101C1000E1E16DFA1378E30E26E6F0C2AC2D20CB9D
:101C2000AE46E6D27FA895EF212B26903B47D6C340
:101C3000EF9B4DD5DD9E145BC897E94B260D44659F
:101C4000371C01FC2212A01F2284E7FC9BD6C0088F
:101C50000930000435995827EE9E4F23D8663F255A
:101C60002EBD152BD9D157B7E2222BEB42A5B98156
:101C70005848FF04D5DCCEC5E90A5534ACD21DF96D
:101C8000F9E835DBB31DE4E9D31B1129CE0E35038A
:101C9000008FB60C032B1CB8E7EBE2E1080938BE55
:101CA000EAD30307FF27D7DF2A592D81EEC5450761
:101CB0001023DEDFDEACB5DDC3311352EB3733D397
:101CC000CA0C94A0D80007BDD512D2F650FC052846
:101CD0002A99AE30E20AF57F0530FCD55FFF0E8E03
:101CE000F3F3A15CD5B528E0C2E79E3ADC2C3C0EAC
:101CF000D5ED14B4088A903801EEB8F4EDA9EEB829
:101D00006340DEEAA1D09F034D1C12E048CCEDA752
:101D1000E4D69D1283E00FF22EDE0BBAE0B65BB57F
:101D2000E2F034E8D5BA9E0B611E4062D1DC283A5D
:101D3000DBFBE5F2023DF37FD646182E13E7F418DD
:101D4000122202FEE42BFB10812CE8EAF4242E1D63
:101D5000E6052AFAF42923D24045FAC1F0FAF31431
:101D60003D38EA120136FF1503EEEA20D2B0FF1D1E
:101D7000B3EBD5D2FCF61728F7E1EE2117F644F9BC
:101D80001F76BEEA1447208A4DBEFCEE6CD52EB2FB
:101D9000D21AF77FD9F62A07D3212F2368D6C6E7B0
:101DA0000ED50E37B9D2344490F2D2D9C700E71419
:101DB000EE420E3DF1BFEAF049AE5D8B0B950D2270
:101DC000170683743064FDDFA6C8CE3F11E702001A
:101DD000D42818D80881493F0ACF1620EB11D2AC7D
:101DE0000FCD0C3A17FC404093FC091116F322B5B5
:101DF000DC0759193CA1192628DD328F09ECF57949
:101E00008939390681C6A22414F72DEB108F1A3FA9
:101E1000D8FBC094C4DF475B8812A65728302BA29A
:101E20008AE613B21F132B3B3F4732F0DB40204CB6
:101E300033F1F3893ED18D1D8ACC84E848D165C148
:101E4000D30131CE2A3EDCC038DC1238DCF0E83475
:101E5000EBA894EFDDDEF506EFEDB2CBD8C1109A1A
:101E600081DB065ECC35210E12CD58F9C71143F146
:101E70002FFD0EE4B0ED33001D303B37CAAB2EFA18
:101E8000D64AAB35F7FD1FEF7F34FBB531CF0E4897
:101E9000E9D0031AD23AD8EA0B961B9309EDC7F2A0
:101EA0001DFEF80DD6CC0BBAC2E52C48AF2FF59627
:101EB000BAD51AFCFF02EB3EE329F5301522BE53DA
:101EC000012CDFD7B93CADE87BFA3191CDE241D5A9
:101ED0000B0CDA520EECD034B6E8252DFEC2C2311E
:101EE000EAFED858262DB438022D342ADBCA3E002B
:101EF0005DA0BAED1DF728CD7A1CE7CF05DFE081A4
:101F00002AD5C737F524FFC60E1FF6F5E3BF37A85D
:101F100058D2F903031D814421F4E81EE4C324DEF2
:101F20000119BFE8FE09FBE6EC16D9003FEC0A1ADE
:101F30003E220F5C300AFE164134D5F7200B23FBFE
:101F40002522FFBE381608F40961A7927E571B119F
:101F500023D4DE26A426F3051A2E8118308402B479
:101F60000CEDB328EC1DF40CD1B8FA491D183696C7
:101F700029AD360E1F3821587D2958383B13E439D6
:101F80006492383EDC4A3927C1E2E116E23E2FE294
:101F900023B1092201549724451381E2C5AACA63DB
:101FA0002381AC031ADDFE7AC6A2B8352A5FD107B9
:101FB000384B4601CD23E6DE0D9D4348D446011043
:101FC000E3D77F78D013BAF3ECC2073ED42051BDDB
:101FD00029D2FECEA6BBBFD741E892BFCDDCF71514
:101FE00041D0D155D10A395B0BE4980FEC22643E05
:101FF000B7D83F9DD12F3B08360E2C0832D63D1165
:10200000860B0000AEF7FFFF030400004507000049
:102010009F0A0000DB0A000097F5FFFF2E0C00006E
:1020200051FFFFFF3A050000D2050000BD06000089
:10203000ED0A000068010000690E0000270700009B
:102040003A060000A0000000951100005D040000A9
:1020500063070000010D00004008000019F9FFFFB0
:102060008008000067070000C40D000018F8FFFF9B
:102070000D02000087FFFFFF0F0500005AFFFFFF62
:10208000CF0500002D00000034020000D10900003F
:10209000650A000080040000E304000014F3FFFF61
:1020A000150600008EFAFFFF330B0000AE010000A2
:1020B000D304000044070000A90700009EFCFFFFB6
:1020C00063070000FF040000A10A0000540F000095
:1020D00057070000FDFDFFFF6A0200003C01000001
:1020E00079040000160B0000930800006A05000048
:1020F00045020000E3F7FFFF8FFFFFFFB9FFFFFF7F
:1021000058FF267F09F4612F32B7C5D614BDCD40E4
:1021100081C4BD0B7FB8122DE8D5FD3FBB47340EFF
:10212000087FF137CCA57D911C7FFA4001DF0E1CA2
:10213000C4DEE7D8F481FD1DBB203A027F16D776B6
:10214000BE776C139021DC81082B021C0BEF7FE41F
:10215000FE99B80BC4C63981EB584E2A680F3A5421
:10216000BD2B7F3754D73AE8E36C811DE6D97F93C6
:10217000F73EA5171F507FF34A79122342527FD5AD
:1021800004508978CD187EA27FDFCE2CD92412D3BB
:10219000126612C87FDDE753D1601E7F592C3A2C9E
:1021A00024517F28D575D1EC403716CC0BF1B8DA25
:1021B000C38194A96674A9547FCFF7F99AF5DE819B
:1021C000FCE6ECD2F7EF4FE7705B14E96DE181F0CC
:1021D0004DC7E932A381F4CF037F45A35A40835F03
:1021E0004EF5FBDE18FC2557177F4C8DD06ACF814A
:1021F0006C579E0FA61A33486E3A527F6FD0D07F2D
:10220000CC2B560B5CD3E9BB7F0E293F3379AFD182
:10221000D789F77A81EC53EA7FFFDE2FDED50FB640
:102220000934B825410B1F7F2155980439E7C6169C
:102230004F8181718DB735DA920E231DFC31FFDE9F
:102240005DD2CA7F03DC19B8ACC79BC48129C7EB38
:102250007FD4D85EA3F94F7FE4F4399E487DFE7F9A
:102260000222F978C8EE4CC7E4BB91321FEB3C5E0A
:102270007FFC81F2FB34DAED6442BBD1DBE1CDE4DB
:10228000E481DD7240B640FB877FF3BCDCDFB49BAA
:10229000BEA681B8F32C61B9D6471CC8EF7F25AA2A
:1022A0000653FA037FFAA455F5EB7FD70F1610FDFE
:1022B000F942817C22875516C264D4EA6DF0F97F19
:1022C000F4E035F081FFA7E89807580853E9EB26BA
:1022D0002E81F729D685E081BF32E1DEBE0AEDC945
:1022E000C3008195C4A0A4E5E19735ADE02481C485
:1022F000E07FEB232BA6222F2DFCE13438287F64CE
:102300001948E4EF4C039706248181ED15F5DC377D
:1023100048CD6ECCF5F6F5E29AABA8810BEA003B0E
:10232000D0444D247FE4D93C9DB80FF1EB81160ECB
:10233000EBF47FB1EB60C9CE81ABEEB19A470BEC09
:102340000DF8FFFFD1090000D900000082FAFFFF5D
:1023500059FDFFFFF105000028FDFFFF0D00000003
:10236000DBFBFFFF63080000D2F9FFFF92FCFFFFD9
:102370006602000088F5FFFF16FBFFFF3101000039
:10238000BCFCFFFF61F5FFFF44F9FFFFB10C00004B
:102390006BFDFFFF6E050000F9FAFFFF440400002B
:1023A00095F8FFFFDCFBFFFFBB030000A0FBFFFF76
:1023B000ABFAFFFF2AFAFFFF3E090000E7FFFFFF2D
:1023C00097FBFFFF1D0100008704000046FCFFFF94
:1023D000780C00001E000000A6FBFFFFE1FAFFFFE3
:1023E000A4FCFFFF4FFFFFFFE8080000A2FAFFFF79
:1023F000C00C000050FCFFFFB1FEFFFF24FDFFFFFB
:102400007FFCFFFF80FBFFFFA606000081FEFFFFB1
:1024100035090000F50A0000340900000FFEFFFF37
:1024200019FBFFFF58020000FF000000D60B000060
:102430003FFBFFFFD1060000A4FDFFFF770900006E
:10244000C40CFCC529B6E101C2FBDB25E6262DF84C
:10245000B001EB0F541AE4F32E0629D63D1F8183F9
:10246000D638DA2DFD3C33E21801BE4AC92ADCDB3E
:10247000BE1E1D1BF2E4FFE8BDF8E71EABB0F8F886
:102480000212C5F931C9A6C5CF5C4B37EAEFD7FEBA
:102490007FD96F582100981C066025D444E232F29F
:1024A0007F8141BCE5EFF62C3C170D0545303DFD25
:1024B000C1E6040544DBFD3B0A571C63ED053E2ED7
:1024C000C61B60ADD73107AB814469DDEACB2A1466
:1024D0005D1AF915F94FEAFAF9E613BFFFB02A0AB7
:1024E000C92BF8E17EB232A3FAE34F150401F1F8EB
:1024F000207D4E53EE011032D92AD31AF4F93AE076
:10250000B8F6231CFD4CE83D0C489F8949E8E3CC14
:102510003140E61866EDF9FB0101332D420941C552
:10252000F3D6B7B77F0308062F3CEF4E59F764DDAB
:10253000A5160FE7DF3BE1F02B0E3241E14C4016D0
:10254000401BD4EABD191A1E48F70E0EE081C43BA9
:10255000DB9AB30B2CF83CE83419CBF8E83EA229FF
:10256000F6F72AF83CFE31E834F81B2AEA1E29C6A1
:10257000B4F4CD05E414C3D7D336CC04D4BCE63DC3
:10258000F8B7D9FB265EE4FF14D4F82C443DEC00E8
:10259000F2C326A3BB29DF56E623180EA4C50907FC
:1025A000050213D5811E25F1E6FEE0AD1FD5EA44F4
:1025B0004AD934BEEDE3F4E016FEDBB2BF13B7E850
:1025C00058FAF834FDC917BE253565E91B0539F2FF
:1025D000742A23CCDDCE14E0FD140C0E4536DCD578
:1025E000166D040A26C8C5FE4D14E019E8187F01CF
:1025F0001DD30803FD44FC29B7FF4822FCCDF5019B
:102600001D1BC1ADD3E94E5F510965F4E26590E34E
:1026100030DC0C10C7C2D311462C4BDB20022253F6
:10262000F31DB0EA50ACEDEFA769BE812A1A12F68D
:10263000B53704DF28E50DFAA0FB04D7C0E78420F6
:10264000C336EBFA5D1D3BBCFE2EBFFDA539F4F091
:1026500015861C22C8E6C70E4E0C25FA28290A71D9
:102660003F22A435C80AE2C3AC37FAB205161D25CD
:10267000DAC97F43FFD495346BBB13BC15B6BEDDFE
:10268000D4FD7308C79FE4B7CD0B3AF82EEB901A30
:102690004BFBB8F1E7F638DE1459B124ADCC2EF37C
:1026A0002408D9BA4ABA6BED97C822D736EBCB5477
:1026B0000BD21E1C16E820F41B8170D9F03BED05EF
:1026C000EE1BE433E856E62E8102020813EDBEFB52
:1026D00007ACFBEAF7E81AFF33FCEFEB1343D10E2C
:1026E000E0E725ED01E0CB1F1BF30A21C9E3D0D8B9
:1026F000FE05F23DC9E6EF1FC512ED43E90F0609DD
:10270000F3D654F4FB84EB192A3CF2E9E4CDCEBFB6
:10271000C15DFD1AE60DA5CFDBFE1FFCB5B8E805CF
:102720005FDF070EA215AA0A1AF50BCEA0E517ED7A
:10273000DBE1F1D4029301D581B2ECBEC91A28F2D3
:10274000DA0A04EFA9D7FAAD81FF276F4F2875CCBD
:10275000C42EA9D5F1D4FE23158AE52DF646B2B2D2
:10276000B0204EC7D02B39DDFA16FC3B0CBC2CB97F
:10277000220FBAD3CC1C0D050C0609A9B61040D007
:1027800023DE2CB212051EFF4AC5EF422CCDD961C3
:102790000EBA9656E6CAF9001C52D325291FC65315
:1027A000122127390AEA41B7DD010D070B1DD72297
:1027B00025AEC9B0512181FA0A02FEAC1D0CD170C0
:1027C000FC36F9F1DD1029F9DCF3FCCB44FDEEEE2B
:1027D000EBEC08CAE5D7C800F0EF81F81FD504ED8F
:1027E0001E06E118140AD513EEE6EEC82DE4DBF060
:1027F000140508C73AF50D200DEEEADFF2DF0AF402
:102800007D90422A3BF81C1CA4B5102DBCDEFB7F3A
:10281000593BDFB1C98A1C40C868C0A55DD2F2EA45
:102820002512BE50780BBC89EBD89653BA06B6CAAF
:1028300005CD0D220CE9D9B1AFD105B1FBD2EE36F1
:10284000DC37C6EA525FF9C412691ADDE6C4BAE1A0
:10285000250E3ABD312FDB107FE022E51F5ECB0154
:10286000F8FE231ADBFA2106FFC124FFA0EDC331D5
:10287000D25CF033C316ACDE23DA51FB06B1205232
:1028800073BCF75C43C2ADEC2E1EB39F11E407AAE4
:10289000D1FAE16CC6DC300F5203085D81D1F751EB
:1028A000EBD3F9D517CDE1DB3A17FFCE71FD9BD8FD
:1028B000EC4B2DE0D6D41005CB0EFE3DA642B88BD6
:1028C000DA24FDF8C2F42AA9AE011AF20226F607AC
:1028D000F4A030C82215021327143F24120FFC1154
:1028E000F981E6E81A0A22A6E10022D6C9B5DD1B65
:1028F00037F5C913FAF2A4FC91A9A94835DFFFD92D
:10290000AC64D756C1D420906601482E42221813D9
:10291000212912904E81F811C3860329DE23AEC609
:1029200090D84F09E73058E81705C074A401E27C3D
:10293000F01728F7F3DEDD002D56BE07E8D8495220
:1029400023FB1733EFE61A310C07ECCE0C9E7FC742
:102950004D0026D5EBF4F4EA02180A0926DED4C2AB
:10296000270FE9E21BAA2DE91802BDE429EDE912BF
:10297000ED1EF93C460A24123B3D242313B8211CCA
:10298000ECDA0E3CEF4531C8CB17F0E656591DDBAB
:102990007F5091AC06D5DDD5501DE34AE5F1B08DF1
:1029A0003827CA2941BCBA980A052E2B2126F13CAA
:1029B000F3E300520C9DD2BBDC7A41C8D3BFCAD826
:1029C00088D219627125E10C1E4B1AD848167D0376
:1029D0001967DA13AA32F5E907170D1224CEE0DAE7
:1029E0007F5FC642A70C2BF427FB3DD0FEBB78EEE1
:1029F000B48B576449C3C2C667C3EAE930C9D40B74
:102A00002209E81FDC3334F924D13C10CF180D2102
:102A1000E8E8ED281D2B300ED407F5C6EC49F1F897
:102A2000F0D416DB05C4DE2BE0131BE9F3DAF7E97B
:102A3000EC07EDED0F1624813B0B061CF3EE160997
:102A400024EC2401FDBB395D2DE21BEA1C4905285D
:102A5000D84528ED36C6FC18EB1162071DE048DBAF
:102A60000614E65C23DFFF4DDEEA1EE6BF011EBC56
:102A70005E16D404F5A73116167FEA58284D3FD4C8
:102A8000296FC04A0123434598E1F2991A0F41DFAB
:102A900024A7D96D2BFE03E9EA10CAB157A13BFE6A
:102AA0001FE73122A0E5F40EA92817EB16DFF04C42
:102AB00000EB9E12D9034F7FC256BBBB60E51A4F95
:102AC00039DD3D3C2FD61DC26B471FF55B6D6D5840
:102AD000BDE70114EB6B0BBEEDACE5C9948B625204
:102AE00006BFF940EA1B4A81F6143E4EF0B9F932AE
:102AF000E826031C013F661C4BB3B843153BC9C312
:102B0000F6CAD51235C505FA089A66E4FBFCB1FE93
:102B1000BFCD49D24FFDEC1181AA92B8BBE31E286C
:102B2000BA021BFCE0AFF6BD85C8D0FBF8220163FA
:102B300007F2DAFD1AF65D073E4515D7D6A0E69DE9
:102B4000FF4632084876270A523C2A2E0092D4D5F6
:102B500006DCB91981BBBCDCE1D91D17292F56F45D
:102B600002873BD720E3BFDC5DB0B10506DBA90ED1
:102B7000BD1C4D16FC4529BF5211DF57FAD7C1ECD9
:102B8000F253A315D042A1A1DDAB1DF2F2D6E4773A
:102B9000CEF21F18716370A2C8DBEE1D05FB68D072
:102BA000F0BAD6C312FED9B8D3E2812DEA2B063B88
:102BB000D83C6F0EB3C8E8F2B86A38D6ADF9630DE9
:102BC000FF414BF4A9EB24B3B5CD314F497FB39D01
:102BD000157D4A1EBCA36DFE4CE34BDF2F4CA1328A
:102BE00040BE20F1E8301162031909E2D0E921D496
:102BF0001DDBCD93FAB5FF4B119AE122EEE841C9F6
:102C00000F29232142DB4028E9E00FC8E99EEDEAC5
:102C1000FAA94019453F0306D521CFD9230849FB1E
:102C2000F418F0327FDDE8E1E8B6E30B053D6535E9
:102C3000D4FE8842001A2DDDFCE9EEECFADC41BD41
:102C4000120AC615F9540CFE4534C604C7FC26C248
:102C5000F117C0F219DFE59CECF6F515BB1DE2CAD1
:102C60000900311E064114CB0BE5FBEDD6C18133C3
:102C7000C23E6710BD31E6FAFFE816B129F2FBD07B
:102C8000A7C205F92FE126BC16F61BDA0A242F6924
:102C9000E37FD2B32B04D547DCE20C00FB01F51D2A
:102CA000F6C95B19F001F816C6F6F314A9DD4DFB61
:102CB000F612F20F16F0C93E35AD2BF10308F0BB4A
:102CC0001AF60E0623CFBC12BB1752FEFCB2C3C6C7
:102CD00016C4FBDD470BF31C3FF0C90917CAD60227
:102CE00034E65657FBD834D70FC2EC0807493823CF
:102CF0000E0D2A27AE01C210E3E92428BD3081164B
:102D0000E52AE1E7132103AC815A98C6FAEB5BB8D8
:102D1000E8F7470748DEEDF6990438ED5CE9D3148F
:102D20000BE0C35C1EE0E602DD03BEF11B0C0BF101
:102D300023EFFBED5317F51A3F07F71ADA9462CA2F
:102D4000DFFBDD0943248FB1CAD09621190FE0EED5
:102D500026160BFC221794AFBE3106DACD16D10F22
:102D60004BD2F1D4E1F8DED326EA43270F81FDCA26
:102D7000FE0CB04F2C1FEAD0961B4F235CFBF314C4
:102D8000FF23DDED37111D1C22EFB4B8B1BF0BECF2
:102D9000E7F50B16F1DF8E3711EF2E26EC480147D1
:102DA000D420EEEAD4E541E7FD0A1D07A1DC0B942F
:102DB000DF292C36DC57150A7FE623E144FB263158
:102DC000F9F5053705E4EED6FD0F31C0FBEF27819D
:102DD0000EC3BEE346D88F1721CDF0E7E45B0ED6D5
:102DE000D1D12D9D002E2B0AE108190BFB0456EFC3
:102DF000F3A1251AC4FBAD2AE9641114B60B1CAC6F
:102E0000E4EAF13214EBFC35D6F51B22A0D4B92E3E
:102E1000F4DB4AF92A0703E62F10055C187FF82C2B
:102E20000BEAEAEACCFD0F3E0E2E2333FDF7001B22
:102E3000F1F4C611178C441743C82703C9F1FBD21C
:102E4000659602DF2ED31803D262F608314524BE00
:102E5000F4012D2E501E3B25B9272FF2DF0448EC3C
:102E6000E64D002DE1E6FC3CD400EBB556D6BD4363
:102E7000C4DAF34FD3FFC0DB55130E81378A02DD6E
:102E80003FFD3D1F0E48230CBF2181F126E1F6CA0C
:102E90002D581AB2B2C8BA362F0EFE21E0F14329DE
:102EA0001DC5D403D9D82ADD3602F6D416734CC119
:102EB000D2BADEF215F118C911EFE2D9D7B603057F
:102EC000CDED263213E8FAE3EB0DEDFAE5285528AF
:102ED000DC52C822051430DB16B50C1AA0D9CE007E
:102EE000D107D2DB172A39403A0B5626B101C3214C
:102EF000EE04102537082AFFDC01FBF78111CBD93E
:102F00001EC3BFE7DC040F251112AFFF661CF7FDDF
:102F10002C6409E3814E3553F2392039F53B12F523
:102F200043E3BC123B420B26F7F325C1BE0421D478
:102F30004148F8C9FCD01D1D6EBB6AC34A587B9836
:102F4000042F0722214BD723E74AF6B43DFBF5D5E2
:102F5000FE10E7DAF026F39A0D1DD732E51DC4D630
:102F6000BAE8EA03DB1FEF22381FF6490D28472293
:102F7000D27FE80DFE2AB1B1E8C9D528DC0CD9E52D
:102F80002DB39E2D129DDCDE1CFE46E724BAC00B3D
:102F9000E877B9FBE106EB2528E0F45E12E3EE1FCB
:102FA000FF1C4CF91C375CAE01C82F1FFAE687DA0C
:102FB000C640F7D459D1FD1EFEDE3EFFF17F055B12
:102FC000057F0392E72739DBD0E5632621F7F77306
:102FD00022322A066EDF02D7B9D23CEFCB19FF2886
:102FE000FD5FA208A7E1251E232AEB19B81937C6F1
:102FF00023EF5DF0C36BC0F2DACA20442D00C15844
:10300000C41ADF3D383AE6F24969E4CCE3E0FAC796
:1030100052C2DE31BFFAF72628B2D0C9D2E711CBAF
:1030200031F3EC2C6302F5F6E0C4C47FCF11F25FFC
:10303000F2DFCD1BE8F5CA141F0E1BA01CE5E0CE85
:1030400031A3C3333FD21DEE25159F1139FA858474
:10305000FD18C5FEE608E1D7FA4EB21ED6B5D7E494
:10306000EF7F536AE60AC2EAFD191E68E6C8120B32
:10307000843F07F7BD2836B7013F2B9BF80F1D098A
:10308000B9C90D5DB332A34207812742B903FC0AD7
:10309000321C9A4EB43BDC1B0DC624BF05BE1E0A73
:1030A000E73EBFD42BA0051127293F1414E8A5A1A2
:1030B00013081A320246BC1FE24A003F1FD60BFE1D
:1030C000BABEA4133509ACE5654C17CDA01FB1F805
:1030D000FFBE163C1629F6FDFB40FDE646DEE80C79
:1030E00025336E3F57BC46C783ACD95B0EF4E8115D
:1030F000251481D74525EB33231B5BD5B2F05F0A3E
:103100001AE243CA4211C7F934923E5B268138DD88
:10311000CEC906F5D32ACCDD09309B31142AE989C2
:10312000FFA6EAFD1930F1E49CDB20B2290728A1B3
:10313000F823BDDEE21AB2CA501404040F064C2C68
:10314000B9E34F3C0C14FDD518133229B31F02E923
:103150001E3CED4E2F0418D9D30935C7F629DFEAF6
:103160009E3608AC47F2EFD33FDA3FEDE3077FF638
:1031700008D0FE46FC74FDE441A5D057E4EE19F1F9
:10318000A5B7AAFE17BFCDB3CE6C2A0BD407254234
:10319000EDBE3688D6110DACEC01FF17DF57172EA8
:1031A000DC105A1CC7BF2827AFF7F736A0041281DE
:1031B0009F2515D32440CD3202FC27DBCFFC0A1219
:1031C00085F03C3BD30EDFF8CAF5B2D4402431D8A9
:1031D000ADD2381CE337C6E6F383EB2226040FE1B9
:1031E000500B38243C1A4DFCEFD731F9D08104A59F
:1031F000E528070902240A222B13F1D1C03037BE7B
:10320000FD122E1ED0F0AFDC0942272B09116626D5
:10321000E248EBFD353F00CF09D7FCDD3B8120E0E4
:103220002EC3DFB52E4D1A2ED8E910032AB4D00CC8
:103230005E5A9B0901CA331456E9C84301211D197E
:103240000D074E055CE512EF293C9111670538D159
:10325000333B04EF69C9B11E322C353D52BACD2D36
:103260003308E2D5042D00051DADFE09E1E83D7FE0
:1032700036C0F9FBA5CFE610FE5406EC0D09FDEDB6
:10328000CCD1F52ADC4CD746C517CC27AF3B0F1A5B
:10329000461224F0BBDED5DBC37B4EE6401220FE97
:1032A000DF02033221BD2096DA34B74DDEFEFC7F0B
:1032B0000821590C1C34D4F32A24076EF6131B1969
:1032C0006A6FC71C5DE0EEE65FCE7F59BEB4DD3AA3
:1032D000023A1A4AC67E536F65D61F22FC06C509FC
:1032E000DE07D24ED6B64143B209DA03F110FAC96D
:1032F000E9B40EEC16B2ED13295DCC14B1D9A3706C
:1033000047E9FDA13712CBD91DF53DC602ABD03838
:10331000ED164C2307F3F3FA0606BDB85802EF1476
:103320007F2A462C596A2CC344F6E40273D504ED77
:1033300068CDFEE903A0C62CC9E6A2DA9EC3D23549
:103340003E1C02622151DBCDF3B54012F71345EB71
:10335000377FC2EDF102CFC7F3E30A11231ECD8FF1
:1033600009BE3121D8DC97EC6707E8F293E4FDC190
:103370003FD1ECFA05C0DA1454F0233EFB3CBCF319
:10338000321BFED2EC140AF6ED078135CA072C6C0D
:10339000072B17001923D00836C4AEAD35E28E8452
:1033A000F5291A050F095723463F1942F7DFAACE20
:1033B000232CE50412011DA60BFFD20B2532F4EBE2
:1033C000D0FFD0E7451F1B05E887A6010688C66E1B
:1033D0002F32D72721114D6792C358CBCCC6B535B4
:1033E000C136D9E6DC5073FFE113ABC781B2481C8C
:1033F0001EC127D8DE4EDF0E1A01B128B420C1321B
:10340000D3091CD8C801BEC806FF382422D8D70566
:103410003DABB734CC3DEED63565B9D2D29F45F839
:103420002D50212F6AF825C10646D56B3F7FEEFB54
:10343000DA1101D4C23F3E14D6E9471EC992B61331
:10344000EA0B00006CE8FFFF18F5FFFFC8ECFFFF78
:10345000060A0000870E000036F0FFFF3707000065
:10346000D70500003A0600009A0600000D1C000077
:103470004B10000071FEFFFF850D0000D50E00000F
:10348000CAFCFFFFFC0C00001213000070030000D8
:103490000DFBFFFF2604000090F5FFFFD8FCFFFFA7
:1034A0004BE9FFFFE8FDFFFF71F0FFFF461700004B
:1034B0009CF6FFFF5E00000009020000CFFBFFFF4B
:1034C0003B080000B90300007E020000E205000096
:1034D000C20F00003DF9FFFF210B000092FDFFFF2E
:1034E00006010000CB040000700100008BF4FFFF18
:1034F000BA010000F3FBFFFFB5F1FFFFF306000088
:10350000B90E00002D010000F2FEFFFF8909000046
:1035100052F8FFFF120E0000330700003CF3FFFFDC
:10352000ACF2FFFF85F7FFFF58F4FFFFB5FCFFFF8C
:1035300032000000F8FCFFFF880A0000FEF9FFFFE0
:10354000812515181A4D3421073A1A437F11F64B7D
:103550004A37EF7FCDDF1FEDFF0CADD70F53A92DFD
:10356000259DFB7F8137D1D93989DC6D8598DE7F38
:10357000F8EC2831E031A38CE5CC055281C7A0E3FB
:10358000F281DDD1A4A6E8037F3045426D4C1833AB
:103590000767497F22E94AA0E74711C82A2BB55798
:1035A000F5D77FF99ED42FC481279F027228B96175
:1035B0002BC47F62350C5719DC2A4581250FB03E9C
:1035C0003DACF8B4D1DF81F9E981FD85B0B5E745BF
:1035D000B2F081EA2FE9DF4B038DD536F9C213999A
:1035E000DD81DECA8DBCDD81CBC6A2E7F381A31AE3
:1035F000A8C47A1D09E5CB07A1D5B881EB7F1A4F86
:10360000460BEEE8EA5C3E7F2877F15E50F53FD14D
:10361000D637FEC92C7FCD533C190AFB7F57157A4C
:103620002AAE979FC0BBED81D9E161D981D7A2B500
:10363000C93A121B7FAD4D4BEB273E56F07F24D38A
:103640004A0ED66EA84337481A2F653BFB7FAA93D4
:1036500009D5002181A7E3F0ED131E21367F390043
:103660007F23B75924F717E3118581A8ACD2FFD186
:10367000FEEB7F3C745A1C1AD7015D85F7A38115B8
:10368000A9831EAE7FA85A37A81B11F3CE11253A85
:10369000F6FB2C7F57374C43C26A37BC5BF981DBA2
:1036A0000E207D6B38747FB6185281183A07595F27
:1036B000F481A40EC7A2B19000A17F5A4E4A2A5DA0
:1036C000C81EFB79427F404C4B41842A39815D2FD3
:1036D000CDE5730F134847044B39A90F69817F105B
:1036E0003E460249090A4075DE5520DA2D811FA1A8
:1036F000C2A272DCD761A481EC75FCC43BF31C7FD1
:103700001BF33505F53C052653037F7F21271D2C30
:1037100017060EFF7FF8394A011A505D6A70B6220B
:103720005730307F2739B2690B0C29E023358143AC
:1037300023354AE44508813A2CBBA5F331EB81D20D
:10374000FFFAD6F7CEF20381C098604C81145FBABD
:10375000123ED2D7197FEDF052A2A9CE22227FD4F9
:103760004668DEFA05161F813ACCA542A8F6D3FCBE
:10377000EB0DEFF4B5BD81E83B363C2A357F2922BD
:10378000CBFAFFFFDDF1FFFF0FFDFFFFD5FBFFFFD2
:10379000FA09000088FFFFFF3918000086100000BA
:1037A000D2EAFFFF7CF9FFFFC7FCFFFF1D0E000000
:1037B00019F0FFFF97FDFFFFA30D0000CC110000E3
:1037C00003070000D60F0000D81600003B090000D8
:1037D000491400001AF8FFFF99EFFFFF8DFEFFFF6D
:1037E00038EEFFFFBF180000A4090000F1F3FFFF4F
:1037F00038FBFFFF8EF2FFFF9F140000BBF4FFFFBA
:10380000A6F7FFFF59160000C8F0FFFFC61B000017
:1038100052FFFFFF51F9FFFF2BF7FFFF5DF0FFFFA6
:10382000A0F6FFFF8F16000066F0FFFFD0EDFFFF50
:10383000F5FBFFFFD7F9FFFFA6F2FFFFD1FDFFFF6A
:103840007B0B00000AFBFFFF0AF4FFFF37F7FFFFC7
:1038500077EDFFFF8AF4FFFF4BFCFFFFACF7FFFFA4
:103860000B0B0000EA0F00003FFAFFFF830500008A
:1038700099FAFFFF020A00000C0D0000EBF4FFFFB5
:1038800006190E31E326A30FDAB273F23281FDB6C8
:103890000F02FCFB17130AB4F509E3F34C2AF7C037
:1038A000D5A0D0CF4F0B40180C20D704DC51F51514
:1038B000ED34F4B74EB9EFD904C5F9E10C9F0728F0
:1038C0005112A097F9EF1ADA161A111921522B4743
:1038D000D40FEA0C814B3AF8EC160AD4DCD92E1E30
:1038E000EF2761382366110FE5D1B0D5EDCD243C2B
:1038F0004B47127F7A2CC5BB0BF257E72F26CA2FF6
:10390000F8D1D7D83EF99BF5BDF5FBE1D4F3613B87
:103910000442EF42E642C3CC2A227F54532365215E
:1039200040952CD43BFE29BF0D16D4C2CB2DE70603
:10393000C74018F2003D1DFCB908AD34EBDBBDEE0D
:1039400058E6EC033D4FD8EFF0CB2BEB1FF4FF987C
:10395000DDC2DB5B0FBD5A0A1913D706C443CDBBCA
:10396000E1FED0221D7F351708D4F704D218449FFA
:10397000F80F19EAC3C514E7C5D334FE1C06D902F3
:10398000302D7FF4C0BE221FCB0EEC0CEA1FE2A349
:10399000D95A0719D81728CDFE00CFD3F72BEA350F
:1039A000D63B1F12271F0DE9F6D3A4FE3CDC0AE626
:1039B0000EF03D15BEE2DBB617C4C2FCA635352BB2
:1039C000B7E4431DEA32990DFC19EC3BE622B2D96B
:1039D000E0DD2809BADEC222E2DF1C3D81E91EE9F2
:1039E0000104D9BCEE41E332C516AB3A29E5F21227
:1039F000F0236F4226BD2E16DECC292EA565CC41C4
:103A0000331E4CD5E7080C0230A5F2ECB7FA2AE3D6
:103A1000F830A9ED7F2B25AFFA511C1A14E7D81EF8
:103A2000CFAC00E2ECFCBFEFE42CAAC31BD745F7F8
:103A30001E2DA5062B1238E7F6C5B0F5C51CAC52F5
:103A4000EB16AC0BD22F3CB7FA49EECD2EC1F73DA9
:103A50002E5B32C7E2D2813028E204E4F4EF08FDA5
:103A60001D61B4CBC345E5D939F113E5A5DEE41DED
:103A700041F4DC022CCFF91026C3B54FFE1A29BE43
:103A800007B511F6CD01F9BBDD37FBBED121FCD660
:103A90001FCFE9080A31D00CEDBF29DDF4FEE40D9B
:103AA000E03BF6F2ED04D2F1D1ECE5E411FBE0C32A
:103AB000C12D29E122F0E9127F421C010941D549BB
:103AC000A4DBE344C91CA0C24F1468C0B70605BDFF
:103AD00002148BDBD81D550EBFD0C3ECF253262643
:103AE0000C30AF3809D3F4CC3FB1CD3CC2ED3E062B
:103AF000F90437FE679EDB4695E9B1CDCDF91C7F11
:103B0000F205016CEF55D25BE5FC0278E1C27FFE65
:103B1000B59DCB2E221B3AA2A7C2C7DEF12B43E3F1
:103B2000CBA8FDA9C02439D1223A0FC9053F0FF611
:103B3000C2E3BC0E2EE69D129D07EACBBCBD0CB6BF
:103B4000E84ADDF22AF4FC05F9252335480E19D997
:103B500034397F13BF199DCA12F916DC7D13F5DDC8
:103B6000C2041CF62C1612D2450BFFBD2CCB18F349
:103B70002FB1831F0709D3FF11F86C14EAB5E8FED3
:103B8000FF2F5701F020D3B6582021C4F3F9F3EAF0
:103B9000DA0AE1C8100D26B9E60C12BBFDBECED57F
:103BA000E409EE25223715E93E17D3DC381CC01492
:103BB000B92537C2067F48393505DBE22B1CDE18F4
:103BC000BE4A12FDDA51B37FD5B0463961BEDAC7BD
:103BD0006807DA31AE00E0F011D4D5CBEDD7EA3585
:103BE000C96B0CA601FF0C27EF08EDDB380A0C1A95
:103BF000709818D507CD37E65D38AC0C01A53913A0
:103C00002D3444EAF84FFD6FC4F90C273FF50881C5
:103C1000F44218CC5ADB660B042FD76CC8C4305D55
:103C2000CD09D8A4F0EAC8000D47A639B3E3B4C45F
:103C30002706FC2AC002FC2000D5E03B2314DBDB76
:103C40002ACCF0E109FE35FC0BF9B2EBF939403230
:103C5000DA13EB2EF0D80ACBB4D42EC86B1FF0F0D9
:103C6000F14A6DBA51D3F3CA08C3AD4DBC1CB63F7F
:103C70004FFA77948146A553B1CDBC37B8240FE9EC
:103C8000E6C4B31EEAC4C2FF2B1926F3F6CE230105
:103C9000C9E8EC3FE65323CCACF6FA42F81A1365B8
:103CA000DA9CE2E9F22CD2ADCCB67FD00E07360B0F
:103CB0000B2E69F2531DDA2BE08CFF5C1568BC50AB
:103CC0002AE898F4F4A7A627DA5C012EA5C03F3AAB
:103CD0000AEFBA569140080EC8E3B2B50660A6E2F4
:103CE000AE5D3EA62BF0D7EA2409BE89A060A3CE24
:103CF0000C22394FE2194BBF04FB810002FD1C3737
:103D0000061CECC830EBFB13CDE6E2DBECEF16F55E
:103D10002396DCC566FF1BD8FBBDB792B9C47FE014
:103D20000E4234DC7406F595B5C8489AFFBBE93AF3
:103D3000F92764B3DDFC07E5E07D2D30ECFF093A9F
:103D4000D195DD8DF8D4F7FF014DC2E2CB2E133AA9
:103D500071B8890B11B1E413FF2CF14EFFAA109139
:103D6000D2F401C9DD380154FF0FE9817822DFE97F
:103D7000BB360C452742C1CE06026000E101476513
:103D80001DEAD4050DD43522CD3D3A3CBB3618DDB5
:103D9000FF1665CD07CDF64BF3EFB0A2DC2A23E684
:103DA0000DF804F8CADEC70532F50CE0C6C031EDE7
:103DB0001BD6FDEE20D081E5EC3903E1FE03E7518F
:103DC000F55BBE264CC6E0D9D1073C37BB30DF0FD0
:103DD000E5D1D7F18101E1F7ED18D712C948DD48E7
:103DE000BDF8E51ECD1AE424F0081B2BC71FE2DD49
:103DF0001C253EEF9FDF2231E50BE3E933430858F2
:103E000040E3F806120A2BDFD622E9195044FC06DB
:103E100081059F13EAEB3CEEBD07EE0C1AC5B9C055
:103E20002A15FEEAE9690BD3091D00AACD45D40382
:103E30001F242B042AF91401DAC0F4182A21C3DF45
:103E400084DACD0B26F7DB062D3311A8B52A15062B
:103E5000FBF6DC002978144FF24FD504FD39032F0F
:103E6000F42042FD0128190F4F03C047631DF61BC4
:103E70005D0177FC7FD7FAE6351DDC1D102DDE33A2
:103E800007DEF1C7FF3BD4EFDBF03311FEAACFFB17
:103E9000F028F034E4CE0626D5090E12C7D03A0A2F
:103EA00017F7EA1DE82A2C457FF74EAEF7EF3D37AE
:103EB000FEA6A92A44E442ACF1DF1707DB365E3CDC
:103EC000CCE933AF1A06A156FA7307AA7D7F16FE16
:103ED00022D6E8430D0148DFF447FEFB1E35FD60A6
:103EE00068AE2805D70763050A51BEE7230B784063
:103EF000E745432E6C203E2C27E09F02FB10CE6648
:103F0000D4C660DEC6E7322341822E3BE413EA0CBE
:103F1000461F17DAC230189C3D9EDBEBDAD4F55809
:103F200099C8B6791787BA2A81AD272C0B8DE2DAAA
:103F30001111C334EFADFEBDB5291D02EACCC91E77
:103F4000552DD292EB26C9A536E8A4CDE577B9BBAD
:103F5000CD7B300B103DB33981C776321C5DBA0D75
:103F6000D4C418272898C815D621D2053AD0E4ED34
:103F700093372F57B677D2472E93FEF6D8FB1433DC
:103F800001CBD109E5F0F9FEFFD5CFCBFB2826F612
:103F9000D4E6E14524CC1410C1DE271A007F2A4C58
:103FA000CEEDFEBF0551C62F13FB8608FE22013160
:103FB0003D3CAC21EDE4B8B1A0FEE004022BDA0BED
:103FC000E9CC30C304DDC43A1F3A99D9F9DB333563
:103FD0001DF6D5FA00C143F3E418EB5F1281DAD184
:103FE000251882CE0BF9FAE43453F3DCE642C0EA3A
:103FF000055AE1FA791BF4214A161EF3120C34F328
:104000000FFBF6D618CB4A237FE2E447C510B62A49
:104010000E7AFAC8D2FD64EACB3D1DB4CD07BCD000
:10402000F0BDE79826C56F0FD5CDD6B3628C43A1FE
:1040300032A1BD58CE433CF40CCDA1F8EA3B0E07AB
:10404000FF1914F3EC37FACE03AE24024F152EF607
:10405000D3DDE20EFAC912FDF717F31D08470A0176
:104060001413D017F74F1ADA06E67FE8FCF023F0B6
:10407000F5C731FAFF6C241102DAFF2CEE07052F89
:1040800043AC18D603F45FD82C0C1AE15ABAFBB72C
:10409000F5FCD40407CB4152EAAB0F50222E63B794
:1040A000E0D620E8A75202E081F692A1AFC651E324
:1040B00010FCEFC6ABA14051BE26C04E12D0368CCC
:1040C00002BE6C2A7D2FB146261DC212FEF114C716
:1040D000202A40A4D32A53F3050342E4D9C4A4E21E
:1040E0001CFBAC2834AF65BA4BF3C312682E9CB3EB
:1040F000FF28B5C020F324523F1269812DE1ADB2F3
:1041000056D218D711A93BFADEA9E1E2E4D60D4652
:10411000EFF538E9CB117FA9092BB2283B92DE05D8
:10412000F9E8E4FCDEE938432193D6EECEDBE21C6D
:10413000D2B852D00C084400FC2F00DC3BF0E2DE89
:104140002710D5D4143D08EEA1067F12DC011AFE1B
:10415000E8002A1D41A398415EDDF9F82CA93ED85C
:104160000E2BEC47D511170AA4E90E50DFCFDBBDAB
:10417000930CF0A6C0C633F5E54336DCD202AFE1BE
:104180009D094224DF67CC2621F8A0FB43E615A158
:1041900037BB57EE352B09DE146574FD964CB6E639
:1041A00000E6EE05EC3849DF09782FF8B2B7EA21CE
:1041B000DD12BF1EBB5DD84C1C0181CE04B15F2A4D
:1041C0001C4E18D30043FFA30935C1E832C2E8D022
:1041D000F55E4A987F07E529A001FD5A5AEDD4D033
:1041E000260917AAF5090016E9F80B95E2DF221B4C
:1041F0003E28BA1434E73FD5EC0155B53530343597
:1042000029200BF09F47D4F71DAF010350B6FF5193
:10421000E12B7FD561EDFAA8CA09164225F821DD08
:1042200019F8D23733DD2DB40B0FDD2B22DA260B34
:104230000F04DCE3A8F30BF31A66331201C3BEBF0D
:10424000D633A60001C9BA6A8110F4BAC1ABE94BF2
:10425000253203470DCF2C3009DB230C152DD9D483
:1042600020E4B1E2ABB91424FADBE0B9D508DD0BE8
:10427000EA27259C0826E1E7FCE9C2E3DDEAC8D18C
:104280002D04BF7F2931131A0125E3D4080D0EEE4A
:10429000ED19F5CF62CDEB05470021A1FACE4CB860
:1042A0001735C3A2EF31BED4FD04F9E32CFA872100
:1042B000FDBBDAD7A6EA1E14C26F3C5540574EF537
:1042C000D1B7C2FC4B00EE3A1914EB66DCECC5C466
:1042D0003A0C3E04B9D2021E0D1FDFC8F5F6F6F8FF
:1042E000EBD49F2515E7BEBEF59FD7E34EC0C8307F
:1042F0002503014D1D8101AC50BB13D24F0508FDB4
:10430000DB00FB20EB36C2C90DD5F7D6FBF8D4F79E
:10431000F9130410EF590A0EAB101D330D4115B6F9
:10432000E4030306B92E4304F1320FCCC837C80E9C
:10433000C97F39CFEB30EA4DC7A7121D0B2A4016B3
:10434000C10D19A701F604480BECE7CE27A4D0ED68
:1043500055FFFEBCBEE7D5F2028FEE1551CE022707
:1043600097CFE42A5AF8E3D821F1CBFD2833E3BDF7
:10437000537F24EBEBB8B1D4FA53340E2ED30E6F27
:10438000F2F1F2F9F830D0CE21D3E7DB26F14CEF91
:10439000E2E8F88209D82ED19A000903D850D2CF8A
:1043A000D7097FAB1508E222D4C8E72629C8D40371
:1043B00007F9013C07D260110A390ED4F447E32F04
:1043C00029A617F1539C5006520743E33EBB14FF46
:1043D00029EE4A4E431F05022BE6BE1B3CDBDF0ED7
:1043E0007FA0F2D80BF30EEB0F13FCB5E60F1518F8
:1043F000D235DBFC1BDDFA08E0EFC3FAFD19550FDF
:1044000000CF272690DCE9C91147CBF80DE52CD069
:10441000302428FF094A0BEBB70553F8D3EFE72CFC
:10442000F3FDEEAEE1CDC8F7C9FEF33216CEEEC90C
:10443000963B21EB1DE42F0EDD08E03A8150BE13C0
:104440000D2EBC4639EC2E29F1012311B51D2EE7A6
:104450003DF4D8E90AECC30706D98F081F223BEDCB
:10446000B7BAEDC61FE1D6D49E02C4C665380F07A1
:10447000310F2A0381F1A72BEEFF1F05441021E520
:104480005B29E6BDD6D0E4CEBAB8142CDFEFA0BDD0
:10449000C2D7E646049AC6A998177F22BC0CD72F2C
:1044A000C9BC2529C6BE4B449CFF2A19A913CA09B9
:1044B000F3F8322612ED7DFACEB2BF27394BE586EE
:1044C0004CE448BFC24A2B04292581B8B6032321F6
:1044D0009B02D2E5EE1C0ABBB3EF02F2DACB2AC490
:1044E00002FF0CCDA95B511431FE02B90C32C6FF9C
:1044F000D4F640410B03FC34D8DF04A9EEFDEE05F1
:104500002DB214EFD3EBF0CAE7D7DADC100E0A189D
:1045100027E0F31A35352CCCE7FC0CEFBFF002FC9A
:10452000F000D21349FD1F02212F14DFF41610F101
:10453000D7D4D2C9DECE40BAFD0000C47F17EBC18C
:1045400041C399BDEE0BD8FFC72A1A31CDC1EA3756
:104550004E0DCB6C66C5E80BF102DC37CB10D8DA18
:10456000AFF8FEFDBD61ED1158C02FAB917F1B8FE1
:104570000902CE0252A6EF2DDFB1F1EC4938339C8F
:1045800006265709F1935B0FAA2A5BE9D0FAF1D509
:10459000DD913DC000AE5DB734DC31EBDA473F1C46
:1045A000DD323BC4DED207D5BADD813D3B5EE0B5EE
:1045B000EB0C691147FA763A28E838E5BB0CE63A85
:1045C000FFFA66E508490216A043FEF51AE00E223E
:1045D000FAFDBF1E5E0C04C1C0282B56F9DD125C2B
:1045E000BE110011172834DFEF7FEBBEF9CBA4D04A
:1045F0003B0709410DB60EEEDE245AEAB2C1131D87
:10460000F4BA4AC00DCA572635D9D8FF342409DC7C
:10461000C71405120136EFF8D7AB2F0D13F6E312CE
:104620000A97566A2FFF55D39C0B1E190213C7C356
:104630009DB8B0E6A435342AFA8100781C39EAC462
:10464000CFDDC3160FE8EE3CF861CACE02FE0F00C4
:10465000A532B3FCD9CA87CBF6FFB7AC538B405D0C
:10466000E049E53635FCC0F0EFC015122709B01758
:10467000B26720063206D87F5CCF9F2A3A36092ED1
:104680001A9AE2F933B00C339838E63EE7E76B0745
:10469000C4A7282C2610F821E9435B26EE42201CF3
:1046A000C1A04914E4C6D2F5F3EB4588EE072B15FB
:1046B000C5C9F10AB918C2B8BAE4BF61F90CBD8125
:1046C0002A0B53D0D01C2CDF1FDCD86EC4029C2ECA
:1046D000DA0FF1010C300A0D20D1CC0AD2BD047FD3
:1046E00023E614B8E9C8A90798F7E63CEE36ED0BC7
:1046F000DB25E0F916B2328A30BBF6DDE25D9810B8
:10470000E2C881844785220345DA03FD19E1E34BC2
:10471000ECB7FC3DFE47212B21E54CEBF02601EBED
:10472000C603340AFDDBF2DE22F4B3471EDD3A484D
:104730001E19F4E5EFF5EC39BC57F3ECC6B324EFE2
:10474000DAC627F9483ABAEB25FD44C27FEE182BAA
:10475000F91CFE19EE310008E30D0D1207DBF9BA62
:10476000FFF7B6D5B0021EEEFD591D0918F6D906A1
:10477000073C1CC7222E2DF22D121FE32D28205D91
:10478000D0293845130B13643AF7FA289A0837E30F
:104790000DD7AE27111B2B96CEECED18DFB9F1012A
:1047A000DAF7E9AC2FC80BE1C61AD5C0392B37C2EE
:1047B0001204CAED1DD8DC110211B5DF08811CB747
:1047C0009C08106D1868E7FAE5C8333B7527BB985D
:1047D0000EC21450C3CDE3E712B81D2EBA19D7F993
:1047E000E4FF0BA02816E5ADE40AF8BFD21CEC19D3
:1047F00031CB180BE4C372812016F3E840D1FC00E2
:10480000B112FDD333E9BFBE0ED9290527DE4636E6
:10481000B2221925BA1CB8D9087F1297D5CDF7B1A5
:10482000F2C2E83FBFA552DE1DEC1E0EFC33EE6F58
:1048300011A0EB2A552E1C9EF6F786D6B617E4E794
:10484000EAD9311F3816812B232AD5BCCDD8084B85
:10485000B904D41EE5E728B7C167161AD4E544EFBA
:104860003EC2E2D5D626BEA8D8EFBD24BAEAC825F6
:10487000109D16BFFC1BBC59A6E2043B2F53EC59FC
:10488000370E0000C5F3FFFFC7FAFFFFCB0A000099
:1048900088060000A5050000840600000D06000043
:1048A0004DFEFFFF95210000B71400001EFAFFFF28
:1048B0009BF9FFFFFF040000E4F5FFFF350900004E
:1048C0001E0200009F1A000049070000AEFEFFFF15
:1048D000390A0000EE0800006C080000EEDBFFFF64
:1048E000A2F7FFFFCCDAFFFF591E0000FE0A00000E
:1048F0002D0B00004FF9FFFF9B04000055F5FFFF53
:10490000901300005FFDFFFF3605000086090000E0
:1049100013F7FFFF87F0FFFFB8F2FFFF3E1B000019
:10492000DCF6FFFF550E00001BFCFFFF1F0B000015
:10493000620C00001CF4FFFFEF0100007E05000088
:10494000711200001711000070040000A20E000098
:104950000DFBFFFFABF3FFFFC402000013FDFFFFE1
:104960001A0D0000AF1000008307000013ECFFFFDA
:10497000CF160000370B0000CE0000002807000013
:10498000666B7F0A0BD6472F0E7F2C185F276D5C56
:10499000672F763F7B1D0F0D74517F88810AB5BC50
:1049A00031A283F9959681D1F2D4BAB1BB81B93DD8
:1049B000FBDC1DC08A2E63644503F5F17F603E81F8
:1049C0009EBCB3BDE7B79EF17F20C319F7C1752226
:1049D000CFCC94BCCEC5F18199D539545F0800097C
:1049E00056617FE1C4AEC5BED68281929281BC1869
:1049F000F2EFC5ABA6878D92C5D6B881A6E1D78167
:104A000029ACBD5591567E9481A3F1EF05AB918100
:104A1000B3C9810215F6AAAEA181AB8FD5D9F5B481
:104A2000B3D392CEB0CFAFBECD8C81982D5681EB53
:104A300028DD1D40C4F0A5C109A482AB81DBC1F310
:104A4000B2D6DD81B7B75D40314A27287F7B72AB94
:104A500081B42611C591C02231291FE0C5DBAC828B
:104A60008181AA81DC35149DDA8AD89E81D1D2DA7F
:104A70009B9FB097BFB6E9F6F0C9A88132814F1469
:104A8000A83544A5486EE58112E88C42F08D394B7B
:104A90007F10F8ED744D6AD399FBCACA2581B00224
:104AA000D6D3F1D2C9EFA18186CA81DA0215FCC73B
:104AB000B3E97C5B431E1F813A2E17441FF257D186
:104AC000B67F118F676A7F10FA176B5F6F5E7C6E1F
:104AD00008DEFC7F763468665010142F50667F3FE6
:104AE00051592F504F5A647FB3AEC0E3E6998A8183
:104AF00089815FB7D41DD3C546D29AEA81D9E9E14D
:104B00008CFEB49998D31009279793819081B5C7EB
:104B1000D5E790BAD335727F150C0A3573537F549D
:104B2000712112166A4C66FFB5DD11BDCC18C1812A
:104B3000697A7F160FF168727D7F7A512123153CC7
:104B40006367D37FD8F712E8F564BB9FACC0DAC7C0
:104B5000D39981BA4C7F78F8F0E64A364C3AF7C0E0
:104B60001FDADE30DB815B4D65D1DBD17F684F7FA3
:104B700058DB191BCA0835BD574D6010F603627F1C
:104B800054BF96DCDDDBE48197FABBBB81EEF20219
:104B90008797928184CD0E2E0C9FA3BC9C9FDE0E26
:104BA000FEDECC85818D55238119370D6B6E7774B0
:104BB0007FFD08EE6C6865777F481E1617606B3BBB
:104BC00044F6FFFF0EDFFFFF04F0FFFF141A0000A2
:104BD000DD1C000005080000F4F3FFFFBE1C000010
:104BE00021FBFFFF8D2200001EF6FFFFC21C00000C
:104BF000A013000062250000DFFEFFFF121F00006F
:104C000014190000E0180000991400005E00000074
:104C10002D11000019170000BFE3FFFFE00D000099
:104C2000790B000017130000E7190000DB1A0000E1
:104C300014FDFFFF90080000D5F6FFFFA013000051
:104C400094180000660E0000D2F6FFFF86FCFFFFFE
:104C500068F1FFFF8EF2FFFFEBF2FFFF80E5FFFF41
:104C60004E1800006A00000009140000CF1A00006E
:104C70001F1B000062F0FFFF0BFAFFFF4C0B000050
:104C8000ABF6FFFF66EEFFFFE1FBFFFFD320000066
:104C9000EAF2FFFFB70300008AF2FFFFA0FAFFFF6E
:104CA0006CEDFFFF72150000871D0000BB180000AF
:104CB0005714000055F8FFFF0EFBFFFFCCF4FFFF79
:104CC00050E5FF24A9EB6539DB5E24FFEE14F00A02
:104CD000D7051ADAFF52EBFA02F2D7DB200E520D9B
:104CE00024BBB7F2D6EA010FEE1A08EE4708C3401C
:104CF00002110A2E120B7FEAE5D4E6329F09D2DABE
:104D000002E7B8E1F63DDF1814E97F071AFF102229
:104D100099EDE020FE1330CBD40ACB443727DBA635
:104D200001F8CADDC5E4E510E13AD8330BD6DC0D55
:104D3000F964EFF52B3BE5EE3D281BE4F2142BFA6A
:104D400034BD537013E16F3B1823C0CC355BF0B119
:104D5000FB6730DF185AC2D232ED87A905DF797FB1
:104D6000EF04FB10C4FD5AC8320D4FBAA9E2156B0F
:104D7000EF0BF14804FA0FC22CD4811DE3E0D136C9
:104D8000A8F355FB5C2BDF2269EDDD0DC6BAF5FCFF
:104D9000B8DAE717F601E6CDF2D6243ABC05EAF513
:104DA00020E10B0C18F30B1533EA0CC5EEE47F0180
:104DB000F0FDEFF6281BD8FCD90D49EE0225F729A6
:104DC00052F6E6CB06F507EFDDFB011D81FC01E99C
:104DD000DF2FB4164638361709F00F280E18D416F0
:104DE000EDE2FBDBACBFCA058214AA48EA01CFE9B9
:104DF000FF3B38E2C5E05E10BA26CE9B45E10928AC
:104E0000B5FD2AF0E337D4430BD1FA3405B34FE1B3
:104E1000C89DF013E3C70BF8E500FDF9DDF1E2F200
:104E20000B1205DCE60FEFF81DF3ED11CBF632EABD
:104E30007FEE47BBE00F0C3AC714231C5E1C07F73C
:104E4000D5FEB712A51C71172C07EC12BCC955D999
:104E5000CFD7FBD214D0CFA5F1D15302CFC430E0CD
:104E60005100FF13DA06F14FF300451B36362A7561
:104E70007F1D0CF81CFC790B8BB9296CE44ACBBB69
:104E800016DAC3F87F21F3EE089BCC42BE5406EC41
:104E9000C5F4DA22041B3DCAFF173533E805FD08C7
:104EA000EC243D01B5E4E4E40C2430E9D5321FF5EF
:104EB000C94AE1BF08F8D4E70D780A893BE1123B03
:104EC0007FC060FAD6D0FE2EED714A18D80A022AA9
:104ED000FFF7D40E212E15D522F7F638074324F21A
:104EE00031F3CFEFEF9320DBA73E0392C62BC7171A
:104EF00022C51C174A0DF1C6E4FCDBC6AE1E993173
:104F0000F7ECA31678E82981EDEDD6E99723E60AB8
:104F1000C12A24EE322D414AE0DE5DAE0DEDEC1DDE
:104F20009AE427E9122332020906A50BD1C8F8E05A
:104F3000C249DFC0ABD1EF161104EFAD56F10D1C25
:104F4000289CF236E4E27F6527DE4E2E120ADCA3AF
:104F50000424EAEBE935E4D839D6E3F31FEA440444
:104F60006A09EB234B05100AFD2D3D0D2521303537
:104F7000F82A055146FCD1CA0B01E236A505C0044A
:104F8000D3EAFC57551AD9FF1EB2E02CACEBE20E67
:104F9000D4FFEC37E63AF5E1FADF52F9DD31CAED3C
:104FA000CF011811D22801F7FF0921ECC430632387
:104FB000AD7FDBB6F5F0E5E9E7294A91210CC82081
:104FC000CEF8FEDEF222C5D2084349E2B698E92ABD
:104FD000182EFDE0ED061F40C1C4EEE5FA0D04E910
:104FE0001004BEF527E0EC44F220B31C2AF7DAE8FF
:104FF00001F90532240C4828D0E42794F82C7FD3FB
:105000008E10E9010E2DFC0512D0FDF8133353B2BA
:1050100081E531F6ED17F6CDBCDAFCBCD5CD66BA2C
:105020000A2018E8C117CF0C62100A2E3809FC229A
:1050300055E208E12C3E39F36A20556C06EF29C889
:105040005FAED83818DE7FE9071231FFE3E5142898
:10505000B3F91113111AECBD10E349E527210F171D
:10506000F4EAF1F5074A3BF0CDF70EFED80EF40C4A
:105070000437FCF8DA08D0DFE0F8063F092593D2C0
:105080000A2B7F18E5E207E414F2EDEE1702E14D7A
:1050900004D5120FF6EC0FF73FE923E7BF0A11140E
:1050A000CBD612D2FAC8BAE8BA182FBB05304EF1E7
:1050B000E4CAD1FED1CCDCE7EA43A3C723FCBD5E42
:1050C00026DA600FDDFDB865DF279CFFF2E8078177
:1050D0001A2FC8DB1142D2F94CB9CCD5E9C34A0A20
:1050E00029BA1A6441B3E841E712F90A19E8413DC7
:1050F000F2410E37D2B87F0092CDC3C1DD1BDF185D
:10510000F109F81DF9EA51DBFEE8CC1ED231F013AB
:10511000262D0DE2EF133F05050722E1D3CC7FE7F3
:1051200031E72FFCD5F79137355FFD0115F1DDEE45
:10513000BAE6DC51E9F007E1235C99BEF2FD5612B4
:10514000DE2BC6FA011114ECF3EA14EEF256F9DD87
:1051500081F623EE192027F9E715F3C10BDB14DBE9
:10516000D80919F3E10AD90300F6C9304EB0F5EABF
:10517000F90DF5C5D5EC5BF4341CF83016E80F14C6
:105180003081D9E60A2F23383E053910B0A46A01D0
:105190009611C20D1CD9E9BBBBB53745F23D26A817
:1051A0002AEDD6CFD97006F203101BE121141600A8
:1051B000760414CF5959CBF5CCDE7D6DD548E4A7E4
:1051C0007FCD4516FDB699E9056335AEBBB2D21762
:1051D000C869F7F41350D41BF0A831EE2756180114
:1051E000F0D3D5136BFE3B1FD53C1FCBF31BB5078C
:1051F000C934D662F8F8E01AE303DA98EF3C35C315
:10520000EC140AFFE5F2F3CBF31AEACD080E15DA37
:10521000EC1039EDEEFBFA4804FD0989F3F0EF15C7
:10522000C8D802E92D26EF1421E1A62833FB05DAC0
:1052300037CA12D4D4DA7F1DEFD92DFA29F6F0E857
:10524000B8371C12943D814C54130311DD0647D529
:10525000A00AE813CD24BF0BDCC0CE31E3D119F78F
:10526000EA35E60220EA353805033BEDF3FA37610B
:105270006B19E3333A4C6BD9B6D255DD113F29D2C5
:10528000C2FCFEAB0042CD212E05E9189BCC3905AE
:10529000E4F1C6FEF2F70721F0D21018C6CFFCCE1B
:1052A000320DF8FADFCB0322091B18D6F42105E0F2
:1052B00058E9432D26181FEDB3061AD314117FFAAF
:1052C00010E76404D1FE5952011FAD24FF2008A647
:1052D000123BE1DA3F6C07F855E5C4ACD6B376264D
:1052E0000AA60D0CE0B5ED360EF837AEFA212A4FBE
:1052F00026BF3856FAD97FBCCEC2DEF5DF20CC3BC4
:10530000EBDE7F2B0314F9343FF3D64FE4ED16D9CF
:10531000F6E2EC0A120CEDBAF2C9FB0BB8F2D70DAB
:105320005CDA11141AF2FD0D07F93ABE00EB7B317D
:10533000192306083A02F5EEC82A29C8DD24DE182A
:10534000E9D82FF6FDE77F600F04DC21101AFABFC1
:1053500017F9F6FD1508E6D155E101D507C101F4AD
:105360005EE7192236DA0C2835F51EC60BEA32FF45
:10537000EED00E0AF7D9F1B910FBC110D0001165BB
:10538000D1FE7FFC4F04FF2664F5DF2CD013EFBA6B
:10539000E5BDFA0CF60FFAD0FEB21801D2F5B6222E
:1053A0006BEE2B7928F10374170434AE2CDA731CDE
:1053B0009D07E64A21CB07EABCEAD0E8B005E462E3
:1053C000ECF7CE242C177F080D41E3DFD70BFAED65
:1053D000246622C11326F2E80CF611CCF6D93C2E35
:1053E00033D4F5FE2E0778DBFF222AD3CFFDF0F56C
:1053F000F010E44018F4C4D040FEACE9D0FE4BE815
:10540000EE011AF021F6FADDE0D3E2F1E6361BEB0D
:10541000DBA0FF38211521FC20DE32B2F8F9DF2AAB
:10542000BDFB37E8D72205BF14CAC121C2FB1AEF62
:1054300045D73F81BCEA0C32EE1226026708CC3217
:1054400000D8F763ECBDF1B7D3EBDFE8A9F1B47294
:10545000C7C6103BF33BF728DDEF62C917631D4158
:105460008CA7E9E8E36BF7F9F205AD3CEC7F130E8E
:10547000A75BB3C8A1F91530F0BB539B14308ABEAB
:10548000D2EA5E1B1309284055F5DCFCEC11F1D281
:105490000B020606072FB9CA20C8F0EED9C4DF08F0
:1054A00040EE222B03CC0E224DF33EBAFEDB7F0FE3
:1054B000DE11F3171AF9FDCF0910F2DFBFFF165DF9
:1054C000D1182335E0D932051407C121CA23FE03C0
:1054D000F30701E90312F2E11CEA130AECE87FFC8E
:1054E00002DE0C03CB20C5221E1B10EFE2243A245F
:1054F000AC12C430D4D82AEDF440E2D1EC03E41E5F
:1055000056D60E04A3F4312BF65A7FF4D796CE4D1F
:10551000E312D3E2FF2A02F2CEDDE3351D2B5EFB60
:105520004DC19DE0DAEBB342BD48E2162E10A9F45E
:10553000F4021C3D17235B02BCF1F8EAC40A2BC23B
:1055400019263ED1FED30BC908EDB63A0F1A173310
:10555000F5A3DA0C19CDCCF55EE83032A6D60042C0
:1055600027BF5EE69CC7CEFC114706941F6F55AC63
:105570000A9A2408EFC006A5EE7F8FB2F5F26A5CA6
:105580000B0A4B25D8D5BD15D58133325020B7EA4B
:10559000E9C21B5AEF13F6EE13BC22FC602DD90BA7
:1055A000C94A021ECAE0D8DAE403EE6BB4E6201260
:1055B0009449ECBEB1E740BD2550B4A4EE02A83832
:1055C000D63A1FF11503E4F90F10E3E8C0DEF20B41
:1055D0002C0CFFDC0600F72002C822F8DDE70BF9EF
:1055E0000DF5F9FF19D8F42F1721EEF4FAF8F1C9E7
:1055F000E1D50827F1F2EA040910EEB119037F01A1
:105600003DB3B92A5416470C21E5FAFEC8EBF94F11
:10561000AE08E0F3D1181CDCD7F24F18BB207FE0B6
:1056200037F7E4E0A779B4F5196505F6DD3401E74D
:10563000EDF1D40C2C33B60C18182BF0A40318A1E0
:10564000BEFDA0D5032400D90F0075D6CEF60AE121
:10565000D9130CE84F295927CA0A2ED433F2AFC107
:10566000D42DD6E77F162F2FC4EA9D67159CE1F154
:10567000383504CAEA18EB2EC2FF1897240D170319
:105680000105B71202FC38EAECFF7F023815DCEEA8
:10569000AA2C1F081B211ECAD1F1F2CD56190ED615
:1056A0000EF4DCF2120EDA0AD616C8483AB2D4F377
:1056B000C932EAF5FA0026F6562BF713CFF4F4E6D2
:1056C000D2FF3CFF17E2C81BFCD0EE27F127DD9686
:1056D000B1AA21FF0AE8F7BD7FCBCA3D1DBFFAF290
:1056E000B92A344031DFDD3269F71935F3CF32EFB3
:1056F000954100CCA4C83BD4434DC8E037D6E16FF8
:10570000DF18250FEA25F31719B16240F421EADB0F
:10571000E9F51227235AF5EE01C422182F3B81DE4A
:105720000027FC151EE000FAF8F8EFE4F7C10C279B
:10573000BC4E03D23802F5C2AD11FDA6BF18E34539
:10574000EED37929EFE0334D062FE2D025FAFBFAAC
:10575000F2FF28E9F83DB8DD45E61EA812E0B6FAEA
:1057600045E5017F7A056BFFF5E7F1DCD1F03728DD
:10577000E327F603C8C0EFD7D3F0ABF1EC46E65A07
:105780009500C317EB3056592EECF67FA91D1C86E9
:10579000D4D9C60D3C1702BEFDDC5E19F3ABCDC6F5
:1057A00064592F1D01E417450BE5F0DF02EF53307C
:1057B000F62C140724E3CCB8C32FE3B7DBD40E7662
:1057C00056DC2AE80AF0D42401FD25E11BEAE83C76
:1057D000D21AA706D5FDDEEF07F6C1251F4EFC0144
:1057E000EEE5DDDCACD6BAD8ED580520CF05E5F501
:1057F000F0F3F1E12714E9FC5826F8DDEE067F020C
:105800000AC9F217E1F2B5CFFCCFAEDBF3270D18D2
:10581000B5E5F12BFD20300AE1DB4AC9ED31252841
:105820008A15D3D0C077F9FC1302A50CDD2F17160B
:10583000343CDFC0A0371632FEB37FC63E3FDFBB2D
:1058400033104AE502D9B914FED81ECE4DD8FC2833
:10585000AFDFEA26C905EEFDF1EED92209480222A2
:10586000F6E8E7C58136C5B1F435E317D03DFDE66E
:1058700025C504B1E823021E67033114002554E254
:10588000B31D43050C10004D0A81F5E15052DF9E17
:105890000FDD1745EA20D2C60AD2D8EF12D2ECD3D8
:1058A0002C61240BDAF4ECD35BD9211CF1C26E1607
:1058B000DFCA1FA0EF4218CD6A58DA2DFB0A394C17
:1058C000022877E64EFE134EE9D364EF3AD1C3D7F0
:1058D000CACEF20C06E3BFCB4E8DFCE24C0F812604
:1058E0003E2E18153EABD8A442E843E4E8C90704AD
:1058F000DDAF59D5081914AE5E46BD39B1BA147F73
:10590000F7F7093AFF0929E1EB0DF5E40440E4015A
:10591000CB1644E4DB2AEEE5DAF0FBCDE8F77F04B2
:10592000FCE3F5F4EDF6BA023826ED1C1EE7FE1393
:10593000D21AD801F5EC32F25716FA2DF1F1F4E053
:1059400039083C2E5DD648F2182C83EAB2C3FC0617
:10595000030526D00308F51600A976EDC6DA022560
:1059600007D81F047F0103FF0C1304E8DD2AF9E6C2
:10597000DDC3EC11CCD6BDDE1111C0CD420B28FF2A
:10598000CF03F2BD093CF8410DE00FE5142261BEE2
:1059900093BDFB24DA0C06C3DDCCEBC0F1F60FDDC2
:1059A000F235FAE6D11DFCE445EC3D4021E61EF15E
:1059B0007FC32AACFC4F00FF1A0244790FF527FF82
:1059C00002B90B4D5C16990207EA92DD1DD11B400E
:1059D0009105F136F5EDEC0305F641BABA37133B04
:1059E000872923E99E736EC647101301811F792E04
:1059F000223FD4A5DF36CB182CE76CDD3E33F3D63F
:105A0000B8FEEFDFD03BBBFA14DE07D8F6F644C28F
:105A1000ABF80306FBE6FC0CE0C6CDE1FECDE1DB16
:105A2000012A00F4380B1A0A33EE1E3A25D90B0B63
:105A30007F0321DD1D244D0227F53011231427EBB0
:105A4000FB1942FAF2F2EA33E252E3B7172011A24D
:105A50000E1ED5E91826D40F12CEC7A919D7DC2EF1
:105A6000DBADFF1F3FE03100F4DFEECDDCD91504E4
:105A700024FC5047ECBA7FFBC6DCF4CEE90E12459D
:105A800036E1280126EA2646D9CFE459AE2315D5BA
:105A900004F7C40518193D083FF223C81FC919FFB0
:105AA00022142531079FED29B7FA30DD12E11EF1EE
:105AB000E50B5E1FC1C506CDBF32BEB12EE2C97F68
:105AC000C401B6C10B48FCFE071725DF183149C6D3
:105AD0009F04F02B351D2B110DE610A219C9C6E548
