:020000040800F2
:1000000000000C20ED120108A5110108A91101083A
:10001000AD110108B1110108B51101083D13010826
:10002000000000000000000000000000B9110108FD
:10003000BD11010800000000C1110108C51101082F
:100040003D1301083D1301083D1301083D1301084C
:100050003D1301083D1301083D1301083D1301083C
:100060003D1301083D1301083D1301083D1301082C
:100070003D1301083D1301083D1301083D1301081C
:100080003D1301083D1301083D1301083D1301080C
:100090003D1301083D1301083D1301083D130108FC
:1000A0003D1301083D1301083D1301083D130108EC
:1000B000000000003D130108C91101083D130108AB
:1000C0003D1301083D1301083D1301083D130108CC
:1000D0003D1301083D1301083D1301083D130108BC
:1000E0003D1301083D1301083D1301083D130108AC
:1000F0003D1301083D1301083D1301083D1301089C
:100100003D1301083D1301083D1301083D1301088B
:100110003D1301083D1301083D1301083D1301087B
:100120003D1301083D1301083D1301083D1301086B
:100130003D130108156C01083D1301083D1301082A
:100140003D1301083D130108216C01083D1301080E
:100150003D1301083D1301083D1301083D1301083B
:100160003D1301083D1301083D1301083D1301082B
:100170003D1301083D1301083D1301083D1301081B
:100180003D1301083D1301083D1301083D1301080B
:100190003D1301083D1301083D1301083D130108FB
:1001A0003D1301083D130108D51101083D13010855
:1001B0003D130108000000003D1301083D13010834
:1001C0003D130108000000003D1301083D13010824
:1001D0003D1301083D1301083D1301083D130108BB
:1001E0003D1301083D1301083D1301083D130108AB
:1001F00000000000000000003D1301083D1301084D
:100200003D1301083D1301083D1301083D1301088A
:100210003D1301083D1301083D1301083D1301087A
:100220003D1301083D1301083D1301083D1301086A
:080230003D1301083D13010814
:020000040801F1
:1000000010B5054C237833B9044B13B10448AFF352
:1000100000800123237010BDD01C002000000000D0
:10002000F864020808B5034B1BB103490348AFF35A
:10003000008008BD00000000D41C0020F864020805
:1000400010F8012B11F8013B012A28BF9A42F7D082
:10005000D01A7047034613F8012B002AFBD1181A57
:100060000138704781F0004102E000BF83F0004397
:1000700030B54FEA41044FEA430594EA050F08BF43
:1000800090EA020F1FBF54EA000C55EA020C7FEA07
:10009000645C7FEA655C00F0E2804FEA5454D4EB84
:1000A0005555B8BF6D420CDD2C4480EA020281EA4E
:1000B000030382EA000083EA010180EA020281EA86
:1000C0000303362D88BF30BD11F0004F4FEA0131D8
:1000D0004FF4801C4CEA113102D0404261EB4101E7
:1000E00013F0004F4FEA03334CEA133302D052426D
:1000F00063EB430394EA050F00F0A780A4F1010429
:10010000D5F1200E0DDB02FA0EFC22FA05F2801862
:1001100041F1000103FA0EF2801843FA05F3594148
:100120000EE0A5F120050EF1200E012A03FA0EFCC7
:1001300028BF4CF0020C43FA05F3C01851EBE371F1
:1001400001F0004507D54FF0000EDCF1000C7EEB0E
:1001500000006EEB0101B1F5801F1BD3B1F5001F4C
:100160000CD349085FEA30004FEA3C0C04F101046B
:100170004FEA445212F5800F80F09A80BCF1004F94
:1001800008BF5FEA500C50F1000041EB045141EA16
:10019000050130BD5FEA4C0C404141EB0101013CDF
:1001A00028BFB1F5801FE9D291F0000F04BF0146CE
:1001B0000020B1FA81F308BF2033A3F10B03B3F1A0
:1001C00020020CDA0C3208DD02F1140CC2F10C0230
:1001D00001FA0CF021FA02F10CE002F11402D8BF8E
:1001E000C2F1200C01FA02F120FA0CFCDCBF41EA5A
:1001F0000C019040E41AA2BF01EB0451294330BD29
:100200006FEA04041F3C1CDA0C340EDC04F1140405
:10021000C4F1200220FA04F001FA02F340EA0300DC
:1002200021FA04F345EA030130BDC4F10C04C4F122
:10023000200220FA02F001FA04F340EA0300294602
:1002400030BD21FA04F0294630BD94F0000F83F44C
:10025000801306BF81F480110134013D4EE77FEA2F
:10026000645C18BF7FEA655C29D094EA050F08BF7B
:1002700090EA020F05D054EA000C04BF194610465C
:1002800030BD91EA030F1EBF0021002030BD5FEAA0
:10029000545C05D14000494128BF41F0004130BDC8
:1002A00014F580043CBF01F5801130BD01F000451C
:1002B00045F0FE4141F470014FF0000030BD7FEA8F
:1002C000645C1ABF194610467FEA655C1CBF0B468A
:1002D000024650EA013406BF52EA033591EA030FA1
:1002E00041F4002130BD00BF90F0000F04BF002199
:1002F000704730B54FF4806404F132044FF00005CC
:100300004FF0000150E700BF90F0000F04BF002144
:10031000704730B54FF4806404F1320410F00045AA
:1003200048BF40424FF000013EE700BF42004FEAA5
:10033000E2014FEA31014FEA02701FBF12F07F4322
:1003400093F07F4F81F06051704732F07F4208BFD9
:10035000704793F07F4F04BF41F40021704730B5E0
:100360004FF4607401F0004521F000411CE700BF2C
:1003700050EA010208BF704730B54FF000050AE0AF
:1003800050EA010208BF704730B511F0004502D5B0
:10039000404261EB41014FF4806404F132045FEAB2
:1003A000915C3FF4D8AE4FF003025FEADC0C18BF5B
:1003B00003325FEADC0C18BF033202EBDC02C2F14D
:1003C000200300FA03FC20FA02F001FA03FE40EADF
:1003D0000E0021FA02F11444BDE600BF70B54FF0E3
:1003E000FF0C4CF4E06C1CEA11541DBF1CEA1355C1
:1003F00094EA0C0F95EA0C0F00F0DEF82C4481EA29
:10040000030621EA4C5123EA4C5350EA013518BF48
:1004100052EA033541F4801143F4801338D0A0FB35
:1004200002CE4FF00005E1FB02E506F00042E0FBE2
:1004300003E54FF00006E1FB03569CF0000F18BFE8
:100440004EF0010EA4F1FF04B6F5007F64F5407490
:1004500004D25FEA4E0E6D4146EB060642EAC62123
:1004600041EA55514FEAC52040EA5E504FEACE2E90
:10047000B4F1FD0C88BFBCF5E06F1ED8BEF1004F93
:1004800008BF5FEA500E50F1000041EB045170BD0F
:1004900006F0004646EA010140EA020081EA030153
:1004A000B4EB5C04C2BFD4EB0C0541EA045170BD4F
:1004B00041F480114FF0000E013C00F3AB8014F1C9
:1004C000360FDEBF002001F0004170BDC4F1000412
:1004D000203C35DA0C341BDC04F11404C4F1200593
:1004E00000FA05F320FA04F001FA05F240EA0200EE
:1004F00001F0004221F0004110EBD37021FA04F624
:1005000042EB06015EEA430E08BF20EAD37070BDDD
:10051000C4F10C04C4F1200500FA04F320FA05F03C
:1005200001FA04F240EA020001F0004110EBD3703E
:1005300041F100015EEA430E08BF20EAD37070BDAE
:10054000C4F1200500FA05F24EEA020E20FA04F387
:1005500001FA05F243EA020321FA04F001F0004136
:1005600021FA04F220EA020000EBD3705EEA430EA7
:1005700008BF20EAD37070BD94F0000F0FD101F0D6
:100580000046400041EB010111F4801F08BF013C0F
:10059000F7D041EA060195F0000F18BF704703F04D
:1005A0000046520043EB030313F4801F08BF013DD4
:1005B000F7D043EA0603704794EA0C0F0CEA135590
:1005C00018BF95EA0C0F0CD050EA410618BF52EA4A
:1005D0004306D1D181EA030101F000414FF0000050
:1005E00070BD50EA410606BF1046194652EA43065E
:1005F00019D094EA0C0F02D150EA013613D195EAD2
:100600000C0F05D152EA03361CBF104619460AD119
:1006100081EA030101F0004141F0FE4141F4700123
:100620004FF0000070BD41F0FE4141F4780170BD13
:1006300070B54FF0FF0C4CF4E06C1CEA11541DBF78
:100640001CEA135594EA0C0F95EA0C0F00F0A7F87A
:10065000A4EB050481EA030E52EA03354FEA0131A7
:1006600000F088804FEA03334FF0805545EA1313BA
:1006700043EA12634FEA022245EA111545EA106582
:100680004FEA00260EF000419D4208BF964244F119
:10069000FD0404F5407402D25B084FEA3202B61A38
:1006A00065EB03055B084FEA32024FF480104FF40C
:1006B000002CB6EB020E75EB030E22BFB61A754680
:1006C00040EA0C005B084FEA3202B6EB020E75EB13
:1006D000030E22BFB61A754640EA5C005B084FEA7B
:1006E0003202B6EB020E75EB030E22BFB61A754648
:1006F00040EA9C005B084FEA3202B6EB020E75EB53
:10070000030E22BFB61A754640EADC0055EA060E13
:1007100018D04FEA051545EA16754FEA06164FEA56
:10072000C30343EA52734FEAC2025FEA1C1CC0D102
:1007300011F4801F0BD141EA00014FF000004FF08F
:10074000004CB6E711F4801F04BF01430020B4F150
:10075000FD0C88BFBCF5E06F3FF6AFAEB5EB030C08
:1007600004BFB6EB020C5FEA500C50F1000041EB05
:10077000045170BD0EF0004E4EEA113114EB5C04D2
:10078000C2BFD4EB0C0541EA045170BD41F48011A5
:100790004FF0000E013C90E645EA060E8DE60CEAAD
:1007A000135594EA0C0F08BF95EA0C0F3FF43BAFCA
:1007B00094EA0C0F0AD150EA01347FF434AF95EA81
:1007C0000C0F7FF425AF104619462CE795EA0C0F65
:1007D00006D152EA03353FF4FDAE1046194622E732
:1007E00050EA410618BF52EA43067FF4C5AE50EA0C
:1007F00041047FF40DAF52EA43057FF4EBAE12E7FC
:100800004FF0FF3C06E000BF4FF0010C02E000BFDC
:100810004FF0010C4DF804CD4FEA410C7FEA6C5CBF
:100820004FEA430C18BF7FEA6C5C1BD001B050EA62
:10083000410C0CBF52EA430C91EA030F02BF90EA4D
:10084000020F0020704710F1000F91EA030F58BF0C
:10085000994208BF90422CBFD8176FEAE37040F06E
:10086000010070474FEA410C7FEA6C5C02D150EA0C
:10087000013C07D14FEA430C7FEA6C5CD6D152EAC7
:10088000033CD3D05DF8040B704700BF844610468C
:1008900062468C461946634600E000BF01B5FFF78B
:1008A000B7FF002848BF10F1000F01BD4DF808ED5B
:1008B000FFF7F4FF0CBF012000205DF808FB00BF2C
:1008C0004DF808EDFFF7EAFF34BF012000205DF886
:1008D00008FB00BF4DF808EDFFF7E0FF94BF0120D3
:1008E00000205DF808FB00BF4DF808EDFFF7CEFFD4
:1008F00094BF012000205DF808FB00BF4DF808ED13
:10090000FFF7C4FF34BF012000205DF808FB00BFE3
:100910004FEA410C7FEA6C5C02D150EA013C0AD1FB
:100920004FEA430C7FEA6C5C02D152EA033C02D1ED
:100930004FF0000070474FF0010070474FEA41024E
:1009400012F5001215D211D56FF47873B3EB625221
:1009500012D94FEAC12343F0004343EA505311F048
:10096000004F23FA02F018BF404270474FF00000DA
:10097000704750EA013005D111F0004008BF6FF018
:10098000004070474FF00000704700BF53B94AB9AC
:10099000002908BF00281CBF4FF0FF314FF0FF3087
:1009A00000F0E4B9ADF1080C6DE904CE00F03AF8BE
:1009B000DDF804E0DDE9022304B0704707EE900A99
:1009C000F5EEC07AF1EE10FA01D400F00BB8F1EEBA
:1009D000677A08B517EE900A00F004F8404261EB20
:1009E000410108BDD0B5FFF7A1FC00220B4B064624
:1009F0000F46FFF7F3FC00F0BBF90446FFF774FC69
:100A00000022074BFFF7EAFC02460B463046394608
:100A1000FFF72CFB00F0ACF92146D0BD0000F03D03
:100A20000000F0412DE9F04F099D884604468E46AE
:100A3000002B4AD18A4217465FD9B2FA82F64EB1EC
:100A4000C6F1200301FA06FEB740B44020FA03F3D2
:100A500043EA0E0E4FEA17481FFA87FC230CBEFB31
:100A6000F8F108FB11EE01FB0CF243EA0E439A4247
:100A700007D9FB1801F1FF3002D29A4200F25481EB
:100A800001469B1AA2B2B3FBF8F008FB103300FB3F
:100A90000CFC42EA034294450BD9BA1800F1FF332B
:100AA0002CBF01240024944502D9002C00F03F8182
:100AB000184640EA0140A2EB0C0200211DB1F240B1
:100AC0000023C5E90023BDE8F08F8B4205D90DB1A5
:100AD000C5E9000100210846F5E7B3FA83F10029D2
:100AE0004ED14345C0F01281824240F20F81084648
:100AF000002DE8D0C5E9004EE5E7002A00F0AC8003
:100B0000B2FA82F6002E40F0BB808B1A4FEA124EEA
:100B1000BCB20121020C80B2B3FBFEFC0EFB1C3305
:100B200042EA034304FB0CF29A420ED9FB180CF183
:100B3000FF382CBF4FF001094FF000099A4203D94A
:100B4000B9F1000F00F0EC80C4469B1AB3FBFEF82D
:100B50000EFB183304FB08F440EA034294420BD91D
:100B6000BA1808F1FF332CBF01200020944202D9AB
:100B7000002800F0D1809846121B48EA0C409DE7FF
:100B8000C1F120068B4008FA01F400FA01F922FABB
:100B900006F728FA06F88A401F4320FA06F3380CB5
:100BA00023431FFA87FC1C0CB8FBF0FE00FB1E88D9
:100BB00044EA08440EFB0CF8A0450ED93C190EF18E
:100BC000FF3A2CBF4FF0010B4FF0000BA04503D9AB
:100BD000BBF1000F00F0B880D646A4EB08041FFA62
:100BE00083F8B4FBF0F300FB134403FB0CFC48EA6E
:100BF0000444A4450ED93C1903F1FF302CBF4FF03B
:100C000001084FF00008A44503D9B8F1000F00F027
:100C10009F80034643EA0E40A4EB0C04A0FB02ECC9
:100C200064457346E04602D307D1F14505D2BEEBD9
:100C300002036CEB070C0138E0465DB1B9EB03022F
:100C400064EB080404FA06F622FA01F3CC401E43D2
:100C5000C5E90064002136E7B1FBF2FC010C144643
:100C600080B2964641EA08412026904640EA014378
:100C70001046B1FBF2F1A3EB080341EA0C414BE74C
:100C8000B740C6F1200301FA06F221FA03F84FEA51
:100C9000174E20FA03F3BCB2B0401343020C190CF8
:100CA00080B2B8FBFEF90EFB198841EA084109FB46
:100CB00004F8884551D9791809F1FF3C2CBF4FF051
:100CC000010A4FF0000A884502D9BAF1000F31D06D
:100CD000A1EB0801B1FBFEF909FB04F80EFB1911A9
:100CE0009BB243EA0143434535D2FB1809F1FF317A
:100CF0002CBF4FF0010A4FF0000A4345BBD2BAF1B6
:100D0000000FB8D1A9F102013B44B4E7841A68EBA3
:100D1000030201209646EBE63A44A8F102082BE7CD
:100D2000ACF1020C3B4410E702393B44A9E63A44DB
:100D30000238BEE6A7EB0808A9F1020C4144B1FB5A
:100D4000FEF909FB04F8C9E7AEF1020E3C4444E7A2
:100D5000023B3C445EE749468DE7A1EB0801CC46E7
:100D6000B1FBFEF909FB04F8B8E700BF704700BF0C
:100D70004A0011D212F5001211D20DD56FF478731A
:100D8000B3EB62520ED44FEAC12343F0004343EA6F
:100D9000505323FA02F070474FF00000704750EABA
:100DA000013002D14FF0FF3070474FF00000704724
:100DB00070B59EB06022002106A813F049FB002305
:100DC0004FF44030CDE90033CDE90233CDE90433AF
:100DD00000F0CCFE08B172B6FEE7012202234FF408
:100DE000005410219FED167BCDE91432CDE9193363
:100DF00017940A2303240F9006A818938DED1C7BEB
:100E0000CDE90D2106911B92169401F0CDF9034610
:100E100008B172B6FEE71F2670255022CDE90143C6
:100E2000702368460421CDE904230096039501F060
:100E300055F808B172B6FEE71EB070BDAFF3008082
:100E40000C00000000000000002400B58BB000F092
:100E50009DFA00F027FF00F02DFFFFF7A9FFCDE975
:100E60000544CDE90744584B0994D3F88C204FF43E
:100E7000005142F01002C3F88C20D3F88C20534864
:100E800002F010020092009AD3F88C20012542F063
:100E90002002C3F88C20D3F88C2002F020020192AB
:100EA000019AD3F88C2042F04002C3F88C20D3F88A
:100EB0008C2002F040020292029AD3F88C2042F079
:100EC0000102C3F88C20D3F88C2002F001020392B7
:100ED000039AD3F88C2042F00202C3F88C20D3F896
:100EE0008C30224603F002030493049B00F01AFEA8
:100EF00022464FF40071364800F014FE01224FF4F0
:100F00008071344800F00EFE4FF400532F4805A9BD
:100F1000CDE90535CDE9074500F07AFC4FF40073C3
:100F20002B4805A9CDE90535CDE9074500F070FC52
:100F30004FF48073274805A9CDE90535CDE907446D
:100F400000F066FC2448254BC0E9003400F0F4FAB8
:100F500008B172B6FEE700F0EBFD08B172B6FEE72D
:100F600000F0FAFD034608B172B6FEE74FF41651E1
:100F70000C221B4C1B48616020602046C4E90333EF
:100F8000A360A3612362A3626366626104F0ECFE66
:100F9000014608B172B6FEE7204605F01FF801468B
:100FA00008B172B6FEE7204605F05AF808B172B6ED
:100FB000FEE7204604F0F4FF08B172B6FEE705F044
:100FC00053FB00F01FFAFEE7000C02460014024239
:100FD0000010024200040242241F002000140340BB
:100FE000901E00200024004672B6FEE700B50B4BB1
:100FF00083B0D3F8942042F00402C3F89420D3F8CD
:10100000943003F004030193019B00F04BFE042095
:1010100003B05DF804EB00F0FDB900BF000C024620
:101020000A4B02689A4200D07047094B82B0D3F84D
:10103000882042F08042C3F88820D3F8883003F03B
:1010400080430193019B02B0704700BF001403402E
:10105000000C02460000000010B500210446BCB0A0
:10106000C8220AA8CDE90411CDE90611089113F0B0
:10107000EFF9474A2368934204D0464A93423BD053
:101080003CB010BD202200230AA8CDE90A2302F0BB
:1010900015F9002869D19FED386B9FED397B082445
:1010A0003D4B04A9D3F8A8203C4842F04002C3F8C5
:1010B000A820D3F8A82002F040020092009AD3F8AA
:1010C0008C2042F04002C3F88C20D3F88C308DED98
:1010D000046B03F0400301938DED067B019B0894A4
:1010E00000F096FB00224220114600F0A5F94220B4
:1010F00000F0DEF93CB010BD012200230AA8CDE9C2
:101100000A2302F0DBF898BB9FED1F6B9FED1C7B61
:101110000724214B04A9D3F8A420214842F480429B
:10112000C3F8A420D3F8A42002F480420292029AC9
:10113000D3F88C2042F00102C3F88C20D3F88C3015
:101140008DED046B03F0010303938DED067B039B90
:10115000089400F05DFB00223D20114600F06CF980
:101160003D2000F0A5F93CB010BDFFF73DFF92E730
:10117000FFF73AFFC8E700BF80010000020000004F
:101180000000000000000000000600000200000057
:101190000024004600380140000C024600180242BC
:1011A00000000242FEE700BFFEE700BFFEE700BF0F
:1011B000FEE700BFFEE700BF704700BF704700BFFB
:1011C000704700BF00F00CB9014800F057BA00BFEB
:1011D000EC1C0020014803F003BD00BF641D00208B
:1011E0000120704708B513F0FDF9162203464FF0B1
:1011F000FF301A6008BD00BF08B513F0F3F91623DD
:101200000360FEE770B5161E07DD0C468D19AFF3BF
:10121000008004F8010BA542F9D1304670BD00BF33
:1012200070B5161E07DD0C468D1914F8010BAFF3CF
:101230000080A542F9D1304670BD00BF4FF0FF30AD
:10124000704700BF4FF4005300204B60704700BF51
:1012500001207047002070470D49034610B50D4A24
:101260000D4C0868121B20B10344934207D80B6051
:1012700010BD0A4C2046034493420C60F7D913F08A
:10128000B1F90C2203464FF0FF301A6010BD00BFC9
:10129000501F002000000C2000080000A83F012083
:1012A0000022012110B44FF000640E48D0F88830BD
:1012B00043F47003C0F888300B4B1960DA611A628E
:1012C0005A62196821F0A85121F4102119609A621C
:1012D000196821F4802119601A6584605DF8044B57
:1012E000704700BF00ED00E0000C0246DFF834D08C
:1012F000FFF7D6FF002103E00B4B5B58435004314E
:101300000A480B4B42189A42F6D30A4A02E00023DD
:1013100042F8043B084B9A42F9D313F069F9FFF7FE
:1013200093FDFEE700000C2030AD03080000002014
:10133000CC1C0020D01C0020A23F0120FEE70000B2
:1013400038B50F4B1B780BB9012038BD4FF47A72BA
:10135000B2FBF3F30B4905460868B0FBF3F000F06D
:10136000C7F804460028EFD10F2DEDD802462946D4
:101370004FF0FF3000F060F8034B20461D6038BD91
:10138000040000200000002008000020104A10B5D2
:101390001368032043F48073136000F03BF800F0FF
:1013A000FFFC03460B4A0C48126A0C4902F00F027C
:1013B000825C0020D3400B60FFF7C2FF10B1012414
:1013C000204610BD0446FFF711FE204610BD00BFA9
:1013D00000200240000C0246786502080000002050
:1013E000034A044B11681B780B441360704700BF1D
:1013F000541F002004000020014B1868704700BFF4
:10140000541F00204FF0E022136923F00203136100
:10141000704700BF4FF6FF0C06490302CA6803F489
:10142000E06302EA0C02134343F0BF6343F400336A
:10143000CB60704700ED00E01B4B00B5DB68C3F3E9
:101440000223C3F1070EBEF1040F03F1040C28BF01
:101450004FF0040EBCF1060F1CD9A3F1030C4FF0A2
:10146000FF3303FA0CF322EA03024FF0FF3303FACF
:101470000EF321EA030303FA0CF313431B010028C4
:10148000DBB20ADB00F1604000F5614080F8003318
:101490005DF804FB00229446E7E7044A00F00F00E1
:1014A000024413765DF804FB00ED00E0FCEC00E084
:1014B000002807DB012300F01F01034A40098B408D
:1014C00042F82030704700BF00E100E000280CDB4C
:1014D00001220649430900F01F002033824041F8F1
:1014E0002320BFF34F8FBFF36F8F704700E100E001
:1014F0000138B0F1807F01D3012070474FF0E02325
:101500004FF0F00C0022072110B4054C586184F80C
:1015100023C010469A615DF8044B1961704700BF03
:1015200000ED00E0704700BF704700BF704700BF8C
:10153000704700BF704700BF50B310B590F824301B
:1015400004466BB9154A164B1648C4E902231649DE
:10155000164AE369C4E90401A261DBB12046984759
:10156000D4E9002100200123A06284F8243013680C
:1015700023F000430B431360506810F0090005D1BD
:10158000A062136843F00103136010BD022010BD78
:1015900001207047064A1346E261DFE7251501087E
:1015A000291501082D150108351501083115010807
:1015B0002110010838B50446FFF71EFF002C34D077
:1015C00094F85430022B2BD10521236805465A6923
:1015D00042F004025A6184F8541005E0FFF70CFF52
:1015E000431B052B23D823681A699104F6D50425DB
:1015F0004FF4FE4001215A6942F002025A61226D05
:1016000084F854501206D86084F8541003D5002290
:10161000606F01739A64002384F84C30184638BD1B
:1016200020220023A26584F84C30012038BD03211C
:10163000A36D226D43F010031006A36584F85410C7
:1016400002D50122636F1A73002384F84C30ECE753
:10165000034628B190F85420022A03D02022826544
:101660000120704704211A6883F854105369002040
:1016700043F400530B435361704700BF01210368DB
:1016800010B5C3F30B02044623F47F6020F00F0073
:10169000503AC068C2F3C4129140014200F0AB80DE
:1016A0001A69500509D55A69510506D54FF480626B
:1016B000DA60A26D42F00102A2651A69120509D52D
:1016C0005A69100506D54FF40062DA60A26D42F047
:1016D0000202A2651A69D10409D55A69D20406D555
:1016E0004FF48052DA60A26D42F00402A2651A69DA
:1016F000500409D55A69510406D54FF48042DA6086
:10170000A26D42F00802A2651A6992050AD55A69CB
:10171000900507D54FF40071626ED96012B1204672
:10172000904723681A69910411D55A6992040ED51D
:101730004FF40052DA6094F85420042A3ED0052178
:10174000226F84F8541012B12046904723681A691A
:10175000D20518D55A69D00515D5226D11064FD579
:10176000DA6F32B99A6C22B90122616F84F8542081
:101770000A734FF440700021226ED86084F84C1038
:101780000AB120469047A36D002B34D023685A69D4
:1017900042F002025A615B69DA074CBF032301235E
:1017A00084F85430236D1B0626D40022A36E84F8DF
:1017B0004C2003B32046BDE8104018475A6922F474
:1017C00000525A615A6942F002025A615A69D007BE
:1017D0004CBF0322012284F85420226D110604D547
:1017E00001200022616F08739A640022E36E84F87E
:1017F0004C20002BDED110BD0122636F1A73D4E799
:101800009A6C002AB5D1012284F85420B1E700BFB8
:101810002DE9F04FD1F800B085B0BBF1000F00F01A
:10182000B480BB4B8A46984200F0BE80B94B002280
:1018300003EA90234FF00108039329E00668B9F109
:10184000010F05EA060C03F0030606FA07F646EA5E
:101850000C06066001D9112B53D186681B0906EAD4
:10186000050CDAF80C609340BE4046EA0C06866030
:10187000466826EA01010B434360C168DAF8083084
:101880002940BB400B43C36001323BFA02F37CD0DA
:1018900008FA02F11BEA010EF6D00324DAF804304C
:1018A000570023F0100604FA07F5022E6FEA05052B
:1018B00003F1FF39C2D106FA07F4D60800EB860619
:1018C00002943446DAF8106002F0070C4FEA8C0CF0
:1018D00006F00F0606FA0CF601960F2606FA0CFC27
:1018E000266AB9F1010F26EA0C0C019E46EA0C06A5
:1018F00026620668029C06EA050646EA04060660B9
:10190000ABD0122BA9D0032BBED0C1680D40DAF8A2
:101910000810B9402943DD00C160B5D50F2422F07D
:10192000030505F18C4502F0030105F50835C900F2
:101930002E6E04FA01F7039C26EA070604FA01F169
:10194000314329667449DC026FEA0E05096828D420
:101950002940714C9F02216061681FD429406E4C60
:101960009E036160D4F8841015D429406A4CC4F8F1
:101970008410D4F88010DC030AD42940664B01326D
:10198000C3F880103BFA02F382D105B0BDE8F08FB6
:1019900041EA0E01F2E741EA0E01E7E741EA0E01F2
:1019A000DDE74EEA0101D4E7002301275A4E07FA8A
:1019B00003F111EA0B0559D04FF00F090468DAF86A
:1019C000042024EA0104554951F833C002F0010112
:1019D00099402143016052494FEADC0E51F833101F
:1019E0000CF0070401EB8E0EDEF82080A40009FA4B
:1019F00004F928EA09084FF00B0909FA04F444EA4B
:101A000008044FF00308CEF820400C684FEA4C0E53
:101A100008FA0EF824EA0809022404FA0EF444EA4B
:101A200009040C60541E012C6FEA080801D9112A20
:101A300023D18C68120907FA0CF502FA0CF208EAB5
:101A4000040CDAF80C4004FA0EF444EA0C048C603E
:101A50004C6824EA050422434A60CC68DAF808207E
:101A600008EA040402FA0EF22243CA6001333BFA88
:101A700003F29CD105B0BDE8F08F122AD9D0032A19
:101A8000F4D0CC6808EA0408DAF8084004FA0EF446
:101A900044EA0804CC60D100E8D54FF00F084FF4B9
:101AA000803423F0030101F18C4101F5083103F08A
:101AB000030CD1F860E04FEACC0C08FA0CF82EEADF
:101AC000080E04FA0CF444EA0E040C66EC43316888
:101AD00012F4801F0CBF214029433160716812F459
:101AE000001F0CBF214029437160D6F8841012F406
:101AF000003F0CBF21402943C6F88410D6F880105F
:101B0000D20354BF21402943C6F88010AEE700BF7E
:101B1000000002467F7F2F00002002468C650208ED
:101B2000886502080AB1816170478162704700BF11
:101B300008490B6813F001030AD1024610B40C687F
:101B4000184624F0040313435DF8044B0B60704700
:101B50000120704700040340034A0020136843F04B
:101B600001031360704700BF00040340214AD36B98
:101B700003F44033834234D04FF0320CD368B0F5D5
:101B8000803F23F4E02343EA000388BF43F480232B
:101B9000D360194B194A1B681648A2FB03139B0913
:101BA0000CFB03F3A2FB0323C1689B090A0403F1A6
:101BB000010307D41A4600E08AB1C168013A09045A
:101BC000FAD562B10B49CA6B100406D400E033B1F8
:101BD000CA6B013B1204FAD50BB1002070470320F9
:101BE0007047B3F5803FF8D9D368002043F48023D1
:101BF000D36070470008024600000020D34D6210F9
:101C0000024BD86B00F44030704700BF000802461A
:101C10003221194B194A1B68A2FB03C39B0901FB24
:101C200003F3A2FB032316499B098A68013380B999
:101C300022F002028A60CA6B900702D4002070472B
:101C40002BB1CA6B013B9207FAD4002BF6D10320CB
:101C5000704742F002028A60CA6B9007EED4CA6BEA
:101C6000013B9207F1D4002BF1D0CA6B013B9207E4
:101C7000F9D5002BE2D1EAE700000020D34D621035
:101C800000080246024A936843F0040393607047D9
:101C900000080246024A136843F08003136070474D
:101CA00000080246024A136943F00053136170476B
:101CB00000080246024AD36A43F00103D362704728
:101CC00000080246024A136823EA000313607047C3
:101CD00000080246024B1A6810431860704700BFA4
:101CE0000008024630B52C4D0446D5F8943083B038
:101CF0005B072BD5FFF784FF20F48033B3F5003F5B
:101D000007D0B4F1805F17D2B0F5803F33D1032202
:101D100004E0B4F1805F2CBF002201221F490B6850
:101D200023F00F0313430B60086800F00F00801AC4
:101D300018BF012003B030BDB4F1005F1ED910BB45
:101D4000B4F1405F8CBF00220122E7E7D5F8943060
:101D500043F00403C5F89430D5F8943003F004033D
:101D60000193019BFFF74CFFD5F8943023F0040357
:101D7000C5F89430C0E7012003B030BDB4F1805FF6
:101D800003D00122CAE70022C8E7B0F5803F0CBFAC
:101D900001220222C2E700BF000C024600200240DE
:101DA000494AD369916A13F00C0310D19368190260
:101DB00007D4D2F8F430454AC3F3033352F8230072
:101DC00070479368414A1B0F52F8230070470C2B51
:101DD00009D0D2693E4802F00C02042A61D0082BD7
:101DE00018BF0020704701F00301012910B459D039
:101DF0000024D3693449886A8B6A8A6AC3F303234F
:101E0000013307EE103A8B6BC2F3001CC3F3CC0313
:101E10000CFB03F307EE903A00F003000228F8EE03
:101E2000E77A2ED003282CD04B6B05EE904AC3F3F3
:101E3000080306EE103AB8EE655AF7EE006AB8EEFF
:101E4000C66AB8EEC77ADFED235A36EE266AC5EECB
:101E5000076AB0EE467A1C4BA7EEA57A5B6B66EE7E
:101E6000876AC3F30663013307EE903AB8EEE77A68
:101E7000C6EE877AFCEEE77A5DF8044B17EE900A1F
:101E800070474B6BF7EE006AC3F3080306EE103A97
:101E9000DFED105AB8EEC66AB8EEC77A9FED0E5A5B
:101EA000D3E7704793681B0207D4D2F8F430074A8F
:101EB000C3F3033352F823409CE79368034A1B0F94
:101EC00052F8234096E700BF000C02463065020836
:101ED0000024F400000000390024744B002800F0B6
:101EE0000E819F4A2DE9F0411368044603F00F0369
:101EF0008B420D4682B00DD2136823F00F030B43C3
:101F00001360136803F00F038B4203D0012002B06B
:101F1000BDE8F0812368DF060BD5924960694A6A03
:101F200002F07002904204D94A6A22F07002024321
:101F30004A621E070DD58B4920690A6A120902F010
:101F40007002904205D90A6A22F4E06242EA001265
:101F50000A6258070BD58349E0680A6A02F07002EA
:101F6000904204D90A6A22F0700202430A62990779
:101F700003F0010230D57B4EA068316A01F00F01F9
:101F8000884204D9316A21F00F0101433162002AED
:101F900000F081806368032B00F0B380714A022B4C
:101FA000126800F08480002B40F0BE805707ADD54A
:101FB0006C4E41F28838F26922F003021343F36158
:101FC000FFF71AFA63680746032B5BD0022B77D022
:101FD000002B40F08A807EE0002ADBD160490A684D
:101FE00002F00F02AA4209D90A6822F00F022A431E
:101FF0000A600A6802F00F02AA4287D159070BD57E
:102000005849E0680A6A02F07002904204D20A6AF3
:1020100022F0700202430A621A070DD55149206965
:102020000A6A120902F07002904205D20A6A22F48A
:10203000E06242EA00120A62DB060BD5494A616996
:10204000536A03F07003994204D2536A23F0700379
:102050000B435362FFF7A4FE0346424A4249126A09
:10206000424802F00F02895C0068414ACB4013608D
:1020700002B0BDE8F041FFF763B9FFF7BDF9C31B3C
:10208000434538D8F36903F00C030C2BF5D12368D2
:102090009807A3D5A06833490A6A02F00F0282426A
:1020A0009CD90A6A22F00F0202430A6296E7920361
:1020B0003FF57EAF2AE7FFF79FF9C01B40451AD8CE
:1020C000F36903F00C03082BF5D1E0E7FFF794F96F
:1020D000C01B40450FD8F36913F00C0FF6D1D6E7BB
:1020E000FFF78AF9C01B404505D8F36903F00C03DC
:1020F000042BF5D1CBE7032002B0BDE8F08101202D
:102100007047184BD3F89420520711D5FFF774F994
:10211000184B0646DB685B0341D4124B1B689901E0
:102120007FF5F4AE636843E756057FF5EFAE3FE712
:10213000D3F8942042F00402C3F89420D3F89430EA
:1021400003F004030193019BFFF756F9094B064680
:10215000DB685F031BD54FF00108064F11E000BF9D
:1021600000200240000C02467865020808000020AA
:102170000000002000080246FFF73EF9801B0228FD
:10218000B9D8FB685804F7D5B8F1000FC5D0054A97
:10219000D2F8943023F00403C2F89430BDE74FF036
:1021A0000008DAE7000C0246002800F0A4822DE9BE
:1021B000F041AE4A0368D569966ADA06044684B0EF
:1021C00005F00C0506F0030631D5002D00F0B281B4
:1021D0000C2D00F0AC81E369A44F002B00F02B82A2
:1021E0003B6843F001033B60FFF706F9804606E0D9
:1021F000FFF702F9A0EB0800022800F20E823B680C
:102200005A07F5D5BB6843F40003BB60BB68626A3C
:1022100023F070431343BB60B2F1404F216AFB6867
:10222000C0F0678323F01F030B43FB602368DF07C5
:1022300031D5082D626800F0BD810C2D00F0B7810A
:10224000B2F5803F00F05B82B2F5A02F00F03C8336
:10225000B2F5A81F00F0FB82844F3B6823F4803363
:102260003B603B6823F480233B603B6823F480138E
:102270003B60002A40F04882FFF7BEF8804606E047
:10228000FFF7BAF8A0EB0800642800F2C6813B68AB
:102290009903F5D423689A070FD5042D40F0C48123
:1022A000E368002B00F07F81704A2169136923F4F1
:1022B000F81343EA01431361236818074DD56B4BAC
:1022C000D3F89420510700F1B4810125D3F894206C
:1022D00042F00402C3F89420D3F8943003F00403CE
:1022E0000193019B624EB36ADA0740F1868163690C
:1022F000002B00F05D825D4EA269D6F8F03003F04D
:1023000080518A4210D003F04061B1F1006F00F0BB
:102310004A81580100F1B1825449D1F8F03023F0DC
:1023200080531343C1F8F030504ED6F8F03043F0EC
:102330008063C6F8F030FFF75FF8074605E0FFF767
:102340005BF8C01B052800F26881D6F8F0301A014E
:10235000F5D5002D40F0898223685D075ED5434B9B
:10236000D3F89420500700F1C8810125D3F89420B8
:1023700042F00402C3F89420D3F8943003F004032D
:102380000293029B3A4EB36AD90740F18C82A3684C
:10239000DA0740F1D3815E0740F15182334BD3F825
:1023A000F02042F00402C3F8F020D3F8F02042F00D
:1023B0000102C3F8F020FFF71FF841F28838064603
:1023C0002A4F05E0FFF718F8801B404500F22581F1
:1023D000D7F8F0309807F5D5A36813F0800FD7F839
:1023E000F03000F0C78243F08003C7F8F03041F2CC
:1023F00088381E4F05E0FEF7FFFF801B404500F2C6
:102400000C81D7F8F0301905F5D535B1174AD2F857
:10241000943023F00403C2F8943023689A0616D54A
:10242000E36A124D002B00F0DC812B6843F48053EB
:102430002B60FEF7E1FF064605E0FEF7DDFF801B9F
:10244000022800F2EA802B689B04F6D523681D065B
:102450001AD5236B054D002B00F0DF812B6843F468
:1024600080432B60FEF7C8FF064609E0000C0246D9
:1024700000080246FEF7C0FF801B022800F2CD8054
:102480002B681804F6D523685A062BD5636B002BEE
:1024900000F05782A54B9A6842F400029A609A684D
:1024A000A16A22F070620A439A60D4E90812B2F17C
:1024B000404FC0F03582DA6822F01F020A43DA602A
:1024C0009A4D2B6843F010032B60FEF795FF0646EC
:1024D00005E0FEF791FF801B022800F29E802B682A
:1024E0009B06F6D5A36B03B3904DEA6902F00C028C
:1024F0000C2A00F05582022B2B6823F080732B608E
:1025000000F0A682FEF778FF044605E0FEF774FFB0
:10251000001B022800F281802B689901F6D4AB6A77
:1025200023F4E02323F00303AB6200203CE0012E00
:102530007FF451AEE369002B35D07C4B606A9A681A
:10254000170256BFD3F8F4309B681B0403F07043A6
:10255000984240F28380002D00F0C481734BB0F1AB
:10256000404F9A6842F400029A609A6822F07042E2
:1025700042EA00029A60216ADA6880F04981002804
:10258000C0F2F281B0F1804F2BBF22F4F84222F466
:10259000782242EA812242EAC132DA6081E0FFF722
:1025A000A1FB00287DD0012004B0BDE8F081032EFE
:1025B0007FF446AE002AF6D09D077FF57EAEE36835
:1025C0005A4D002B00F085802B6843F480732B60FC
:1025D000FEF712FF064604E0FEF70EFF801B0228FE
:1025E0001BD82B685B05F7D52B69226923F4F813F8
:1025F00043EA02432B6123685FE6B36A43F00103B9
:10260000B362FEF7F9FE0746B36ADB073FF56FAE2C
:10261000FEF7F2FEC01B0228F6D9032004B0BDE885
:10262000F0819A077FF549AE0C2DC8D1022EC6D194
:1026300036E6002556E63B6823F001033B60FEF7D3
:10264000DBFE804605E0FEF7D7FEA0EB080002287F
:10265000E3D83B685B07F6D42368E8E5334BB0F179
:10266000404F9A6842F400029A609A6822F07042E1
:1026700042EA00029A60216ADA6880F0C480002889
:10268000C0F24881B0F1804F2BBF22F4F84222F40F
:10269000782242EA812242EAC132DA60002D3FF418
:1026A0007EAFFFF77DFB0346204A2149126A02F004
:1026B0000F02895C1F4ACB4010681F4A1360FEF767
:1026C0003FFE00287FF470AF2368D907A9D5626860
:1026D000B3E52B6823F480732B60FEF78DFE06466E
:1026E00004E0FEF789FE801B022896D82B685F0560
:1026F000F7D42368E1E501207047002542E60B4A44
:10270000136843F480331360FEF776FEDFF81C8015
:10271000074605E0FEF770FEC01B64283FF67DAF5C
:10272000D8F800309803F5D5B4E500BF000C024698
:10273000786502080800002000000020974ED6F8B7
:10274000F02022F00102C6F8F020D6F8F02022F0A6
:102750000402C6F8F020002B7FF42DAEFEF74CFEED
:1027600041F28838074605E0FEF746FEC01B4045AB
:102770003FF653AFD6F8F0309B07F5D4D6F8F030DB
:1027800018067FF542AED6F8F03041F2883823F0D3
:102790008003C6F8F030814E05E0FEF72DFEC01B29
:1027A00040453FF63AAFD6F8F0301905F5D42CE69F
:1027B0007A4ED6F8F03023F0A053C6F8F030FEF78A
:1027C0001BFE074605E0FEF717FEC01B05283FF677
:1027D00024AFD6F8F0301B01F5D4002D3FF4BCAD8A
:1027E00043E02B6823F480532B60FEF705FE06467A
:1027F00005E0FEF701FE801B02283FF60EAF2B68B6
:102800009F04F6D422E622F01F020A43DA6045E76D
:1028100022F01F020A43DA6043E72B6823F4804367
:102820002B60FEF7E9FD064605E0FEF7E5FD801B9F
:1028300002283FF6F2AE2B681904F6D423E6574A75
:10284000D2F8F03043F00103C2F8F030B3E5534B57
:102850001A6842F480221A601A6842F480121A60E0
:102860001A6842F480321A604EE74C4AD2F894302B
:1028700023F00403C2F894306EE5D6F8F03023F06C
:10288000A053C6F8F030FEF7B7FD074605E0FEF7A7
:10289000B3FDC01B05283FF6C0AED6F8F0301901D5
:1028A000F5D4A26938E5B36A43F00103B362FEF7D9
:1028B000A3FD0746B36ADB073FF569ADFEF79CFD54
:1028C000C01B0228F6D9A8E6344B1A6842F48022CD
:1028D0001A601A6822F480121A601A6842F4803270
:1028E0001A6011E7FFF7FEF900287FF45CAE606A1A
:1028F00034E6002AC0F2A480B2F1804F2BBF23F44B
:10290000F84323F4782343EA812343EAC133FB608D
:1029100023688CE422F4787242EA4112DA60BDE660
:10292000002AC0F21E81B2F1804FDA682BBF22F478
:10293000F84222F4782242EA812242EAC132DA6085
:10294000BEE5164D2B6823F010032B60FEF754FDF7
:10295000064605E0FEF750FD801B02283FF65DAEFF
:102960002B689F06F6D4BDE522F4787242EA411244
:10297000DA6096E623F08003C7F8F03041F2883839
:10298000064F05E0FEF738FD801B40453FF645AE9B
:10299000D7F8F0301A05F5D437E500BF000C024631
:1029A000012BAA6A686B3FF4FEADE36B02F00301F2
:1029B00099427FF4F8AD236CC2F30321013B9942A5
:1029C0007FF4F1AD636C02F470429A427FF4EBAD98
:1029D000A36CC0F30802013B9A427FF4E4ADE36CC0
:1029E000C0F34622013B9A427FF4DDAD236DC0F374
:1029F0000642013B9A427FF4D6AD636DC0F3066098
:102A0000013B98427FF4CFAD594BE16D9A6BC2F315
:102A1000CC028A423FF489AD9A6A22F010029A628F
:102A2000FEF7EAFC0546FEF7E7FCA842FBD0E26DA4
:102A30004F4BD2009A639A6A42F010029A6274E590
:102A400023F4787343EA4113FB602368FFF7EFBB7D
:102A5000FEF7D2FC064605E0FEF7CEFC801B0228FE
:102A60003FF6DBAD2B6813F00073F5D1D5F8942059
:102A700056070CD40123D5F8942042F00402C5F87F
:102A80009420D5F8942002F004020392039A394D61
:102A90003749EE68EA68DFF8E0C022F48022EA6095
:102AA000886A676CE26B20F47F4020F003003A43B1
:102AB0000243206C013842EA00228A62E06CA26C78
:102AC000D1F834E0471E206D013AC2F308027F02BC
:102AD00001380EEA0C0CBFB2000442EA0C0200F40A
:102AE000FE003A430243606D0138000600F0FE40EC
:102AF00002434A638A6A22F010028A62E26DD200BF
:102B00008A638A6A42F010028A628A6AA06D22F0A1
:102B10000C02024374038A621ED433B1144AD2F801
:102B2000943023F00403C2F89430114CA36A43F4A8
:102B30008023A362236843F080732360FEF75CFC6C
:102B4000054605E0FEF758FC401B02283FF665AD40
:102B500023689801F6D5E8E4EA6842F48022EA6046
:102B6000DBE7DA6822F4787242EA4112DA60A7E41D
:102B7000000C024600080246000080804E4A30B435
:102B8000D369916A13F00C0312D1936819021BD513
:102B900093684A4A1B0F52F82300474B48491B6A67
:102BA000484A03F00F03CB5C30BCD840106070473C
:102BB0000C2B11D0D269444802F00C02042AECD04C
:102BC000082B18BF0020E8E7D2F8F4303B4AC3F3E3
:102BD000033352F82300E0E701F00301012959D043
:102BE0000025D3693449886A8A6A8B6A8C6BC3F37F
:102BF0000013C4F3CC0C0CFB03F307EE903A00F087
:102C00000300C2F303220228F8EEE77A02F1010280
:102C10002ED003282CD007EE105A4B6BB8EE475A33
:102C2000C3F3080306EE103A07EE102AF7EE006A27
:102C3000B8EEC66AB8EEC77ADFED245A36EE266AD9
:102C4000C5EE076AB0EE467A1B4BA7EEA57A5B6B22
:102C500066EE876AC3F30663013307EE903AB8EE77
:102C6000E77AC6EE877AFCEEE77A17EE900A94E7E9
:102C70004B6B07EE102AC3F3080306EE103AF7EE8B
:102C8000006AB8EEC66ADFED115AB8EEC77A9FED5A
:102C9000105AD3E793681B0207D4D2F8F430074ADE
:102CA000C3F3033352F823509CE79368034A1B0F86
:102CB00052F8235096E700BF000C02463065020828
:102CC00078650208000000200024F40000000039AC
:102CD0000024744B514A30B4D369916A13F00C0349
:102CE00018D19368190221D593684D4A1B0F52F8E9
:102CF00023004A4A4B4C136A4B4903F00F03E35C31
:102D000030BCD8400860136A484AC3F30213D35C4E
:102D1000D84070470C2B11D0D269454802F00C0204
:102D2000042AE6D0082B18BF0020E2E7D2F8F430DE
:102D30003B4AC3F3033352F82300DAE701F00301FF
:102D4000012959D00025D3693449886A8A6A8B6A77
:102D50008C6BC3F30013C4F3CC0404FB03F307EE42
:102D6000903A00F00300C2F303220228F8EEE77A5B
:102D700002F101022ED003282CD007EE105A4B6B23
:102D8000B8EE475AC3F3080306EE103A07EE102ACE
:102D9000F7EE006AB8EEC66AB8EEC77ADFED255ADC
:102DA00036EE266AC5EE076AB0EE467A1B4BA7EEF2
:102DB000A57A5B6B66EE876AC3F30663013307EEA1
:102DC000903AB8EEE77AC6EE877AFCEEE77A17EE2D
:102DD000900A8EE74B6B07EE102AC3F3080306EE4A
:102DE000103AF7EE006AB8EEC66ADFED125AB8EE96
:102DF000C77A9FED115AD3E793681B0207D4D2F824
:102E0000F430074AC3F3033352F823509CE7936826
:102E1000034A1B0F52F8235096E700BF000C0246EE
:102E2000306502087865020800000020706502081D
:102E30000024F400000000390024744B514A30B4DF
:102E4000D369916A13F00C0318D19368190221D544
:102E500093684D4A1B0F52F823004A4A4B4C136AA1
:102E60004B4903F00F03E35C30BCD8400860136AA1
:102E7000484AC3F30223D35CD84070470C2B11D0CF
:102E8000D269454802F00C02042AE6D0082B18BF8C
:102E90000020E2E7D2F8F4303B4AC3F3033352F8A0
:102EA0002300DAE701F00301012959D00025D36995
:102EB0003449886A8A6A8B6A8C6BC3F30013C4F343
:102EC000CC0404FB03F307EE903A00F00300C2F3D6
:102ED00003220228F8EEE77A02F101022ED003283D
:102EE0002CD007EE105A4B6BB8EE475AC3F30803C9
:102EF00006EE103A07EE102AF7EE006AB8EEC66A40
:102F0000B8EEC77ADFED255A36EE266AC5EE076AB7
:102F1000B0EE467A1B4BA7EEA57A5B6B66EE876A2E
:102F2000C3F30663013307EE903AB8EEE77AC6EED4
:102F3000877AFCEEE77A17EE900A8EE74B6B07EE86
:102F4000102AC3F3080306EE103AF7EE006AB8EE53
:102F5000C66ADFED125AB8EEC77A9FED115AD3E771
:102F600093681B0207D4D2F8F430074AC3F3033343
:102F700052F823509CE79368034A1B0F52F82350E2
:102F800096E700BF000C024630650208786502082B
:102F900000000020706502080024F40000000039E1
:102FA0000024744B514A30B4D369916A13F00C0376
:102FB00018D19368190221D593684D4A1B0F52F816
:102FC00023004A4A4B4C136A4B4903F00F03E35C5E
:102FD00030BCD8400860536A484AC3F30213D35C3C
:102FE000D84070470C2B11D0D269454802F00C0232
:102FF000042AE6D0082B18BF0020E2E7D2F8F4300C
:103000003B4AC3F3033352F82300DAE701F003012C
:10301000012959D00025D3693449886A8A6A8B6AA4
:103020008C6BC3F30013C4F3CC0404FB03F307EE6F
:10303000903A00F00300C2F303220228F8EEE77A88
:1030400002F101022ED003282CD007EE105A4B6B50
:10305000B8EE475AC3F3080306EE103A07EE102AFB
:10306000F7EE006AB8EEC66AB8EEC77ADFED255A09
:1030700036EE266AC5EE076AB0EE467A1B4BA7EE1F
:10308000A57A5B6B66EE876AC3F30663013307EECE
:10309000903AB8EEE77AC6EE877AFCEEE77A17EE5A
:1030A000900A8EE74B6B07EE102AC3F3080306EE77
:1030B000103AF7EE006AB8EEC66ADFED125AB8EEC3
:1030C000C77A9FED115AD3E793681B0207D4D2F851
:1030D000F430074AC3F3033352F823509CE7936854
:1030E000034A1B0F52F8235096E700BF000C02461C
:1030F000306502087865020800000020706502084B
:103100000024F400000000390024744B70B5334CE7
:103110000646236823F080532360FEF76DF90546C9
:1031200004E0FEF769F9401B022854D823689A008E
:10313000F7D4236BD6E9001223F4706323F0030362
:10314000013A0B4343EA02232363606CD6E902325F
:10315000234D511E3269013B0540C3F30803490268
:10316000013A89B22B43120402F4FE020B431343CB
:1031700072691A4D013A120602F0FE42134363646B
:10318000236BB26923F00C0313432363236B326A6E
:1031900013432363236B23F010032363A36CF269AF
:1031A0006FF3CF0343EAC203A364236B43F010031E
:1031B0002363236843F080532360FEF71DF9044620
:1031C00004E0FEF719F9001B022804D82B689B00C5
:1031D000F7D5002070BD032070BD00BF000C024673
:1031E0000000808070B5334C0646236823F080636E
:1031F0002360FEF701F9054604E0FEF7FDF8401BE9
:10320000022854D823681A01F7D4E36AD6E90012D9
:1032100023F4706323F00303013A0B4343EA0223D0
:10322000E362E06BD6E90232234D511E3269013B65
:103230000540C3F308034902013A89B22B43120443
:1032400002F4FE020B43134372691A4D013A12064F
:1032500002F0FE421343E363E36AB26923F00C0316
:103260001343E362E36A326A1343E362E36A23F0DF
:103270001003E362236CF2696FF3CF0343EAC203E6
:103280002364E36A43F01003E362236843F080633E
:103290002360FEF7B1F8044604E0FEF7ADF8001B2A
:1032A000022804D82B681B01F7D5002070BD03202D
:1032B00070BD00BF000C0246000080802DE9F04781
:1032C00003680446DD0782B008D59C49006DD1F83B
:1032D000E02022F003020243C1F8E020980708D55D
:1032E0009649606DD1F8E02022F00C020243C1F84B
:1032F000E020590708D59149A06DD1F8E02022F0CF
:1033000030020243C1F8E0201A0708D58B49E06D6E
:10331000D1F8E02022F0C0020243C1F8E020DF062D
:1033200008D58649206ED1F8E02022F4407202438D
:10333000C1F8E0209E0608D58049606ED1F8E820EB
:1033400022F007020243C1F8E8205D0608D57B4958
:10335000A06ED1F8E02022F440620243C1F8E020E0
:10336000180608D57549E06ED1F8E02022F44052E5
:103370000243C1F8E020D90508D57049206FD1F883
:10338000E82022F0C0020243C1F8E8205A0208D522
:103390006A49606FD1F8E02022F440420243C1F84C
:1033A000E0209F0508D56549A06FD1F8E82022F4F8
:1033B00040620243C1F8E8205E0508D55F49E06F2E
:1033C000D1F8E02022F440220243C1F8E0201D059C
:1033D00009D55A49D4F88000D1F8E82022F4407287
:1033E0000243C1F8E820980403F400561ED5D4F82F
:1033F0009020402A00F03D8200F25982002A00F01D
:103400005082202A40F0598204F12C00FFF77EFE02
:103410000646236856B9D4F8902000264748D0F8CD
:10342000E41021F0E0010A43C0F8E420590438D543
:10343000D4F89420B2F5007F00F0218228D8002A29
:1034400000F02882B2F5807F2AD104F12C00FFF72A
:103450005DFE05462368002D40F01A823749D4F8F6
:103460009400D1F8E42022F4E0620243C1F8E420A1
:103470001A0419D4DF032DD5D4F88820042A00F2C9
:103480003582DFE812F045014001ED0145014501BB
:10349000B2F5407F00F0F881B2F5806F00F0F48162
:1034A000012635461A04E5D5D4F8A820B2F5005F08
:1034B00000F0858140F2958122F48051B1F5804F72
:1034C00000F08381B2F5405F00F07F810126DF03C9
:1034D0003546D1D498031ED5D4F88C20B2F5003FE0
:1034E00000F0AD8100F2EE8142B1B2F5803F40F0D4
:1034F000F18112498A6A42F480328A62002D40F0DA
:1035000042810E49D4F88C00D1F8E82022F4E02260
:103510000243C1F8E82059034FD5084BD3F8942053
:10352000520740F102814FF00008054FBB6A43F09B
:103530000103BB62FDF760FF814609E0000C024613
:1035400000080246FDF758FFA0EB0903022B2DD817
:10355000BB6ADB07F6D5002D40F0C681DFF860A31B
:10356000D4F8C020DAF8F03013F4407300F05C8136
:10357000934200F05981DAF8F010DAF8F030C80719
:1035800043F48033CAF8F030DAF8F03023F48033B3
:10359000CAF8F03021F44073CAF8F03040F14481A9
:1035A000FDF72AFF41F28839074637E10326354601
:1035B0002368B8F1000F40F0EE80DA021FD5D4F88E
:1035C000A020B2F1006F00F01B8100F286814AB1A9
:1035D000B2F1806F40F0858104F10800FFF702FE30
:1035E00005462368002D40F0D080B549D4F8A000EE
:1035F000D1F8E02022F040620243C1F8E0201F032E
:103600000BD5D4F8982032F4805100F0AF80B2F599
:10361000005F00F0AB8001263546D80409D5A849E3
:10362000D4F89C00D1F8E42022F400620243C1F8EF
:10363000E42099020DD5D4F8A400B0F5804F00F035
:10364000B2809F49D1F8E42022F480420243C1F8BD
:10365000E4201A0209D59A49D4F8B400D1F8E02040
:1036600022F440120243C1F8E020DF0109D5944959
:10367000D4F8B800D1F8E02022F440320243C1F877
:10368000E020980109D58E49D4F8BC00D1F8E82093
:1036900022F018020243C1F8E820590115D5D4F8E8
:1036A000B020B2F5001F00F08480B2F5401F00F09A
:1036B000A080002D65D18249D4F8B000D1F8E42073
:1036C00022F440120243C1F8E4201A010BD5D4F8C9
:1036D0008420B2F1807F00F0BB80B2F1007F33D054
:1036E000002A37D00126DB0009D5754AD4F8AC1082
:1036F000D2F8E83023F400430B43C2F8E8303046F8
:1037000002B0BDE8F0876E498A6A42F480328A626C
:10371000002D3ED16A49D4F88800D1F8E42022F087
:1037200007020243C1F8E420D4E6D3F894204FF016
:10373000010842F00402C3F89420D3F8943003F057
:1037400004030193019BF0E604F10800FFF74AFD32
:1037500005462368DDB95A49D4F88400D1F8E02041
:1037600022F040720243C1F8E020BCE7002D64D192
:103770005348D0F8E41021F440510A43C0F8E42043
:103780004BE72E46A1E72E46C5E62E4637E72E46E6
:10379000A9E72E469EE64A49D1F8942022F0040279
:1037A000C1F8942009E746498A6A42F480328A6265
:1037B00047E743498A6A42F400328A6279E704F1B2
:1037C0000800FFF70FFD0546236885B93C49D4F88A
:1037D000A800D1F8E82022F4E0420243C1F8E82032
:1037E00048E632F480527FF471AE002DEED02E46C2
:1037F00040E604F10800FFF7F5FC2368054658E7AA
:103800002F498A6A42F400328A62002DBDD1ECE66B
:10381000FDF7F2FDC01B48453FF6C8AEDAF8F030C0
:103820009907F5D5D4F8C0202549D1F8F03023F414
:1038300040731343C1F8F030BAE62E46EDE604F1CA
:103840002C00FFF763FC05462368002D9BD158E64A
:103850001B498A6A42F400328A62002D97D17AE7C6
:1038600004F12C00FFF752FC05462368002D90D18F
:1038700050E71348816A41F480318162CDE51049F7
:103880008A6A42F480328A623546002D3FF4E6AD02
:103890002E4607E604F10800FFF7A4FC236805465E
:1038A000D9E504F10800FFF79DFC0646B1E5602A62
:1038B0003FF4B3AD802A3FF4B0AD0126B6E500BFBA
:1038C000000C0246B2F5403F3FF418AEB2F5802F2F
:1038D0003FF414AE012635461DE6B2F1406F3FF4C9
:1038E00081AE012635468AE62E4661E6012635463A
:1038F000F0E500BF534910B54C6B8A6A8B6A02F041
:10390000030C8A6AC3F30323C2F3001E8A6BBCF163
:10391000020FC2F3CC020EFB02F207EE902A03F173
:103920000103B8EEE77A2CD0BCF1030F29D0C4F321
:10393000080407EE904A8A68F8EEE76A12024CBF64
:103940008A68D1F8F42040494CBF120FC2F3033209
:1039500007EE903A01EB8203B7EE006AD3ED005A0E
:10396000F8EEE77A76EE866AF8EE655A9FED375AFA
:1039700085EEA76AF0EE667AE7EE057A26EE277AFC
:103980001AE04A6BF7EE006AC2F3080206EE102A4C
:1039900007EE903AB8EEC66AF8EEE77A36EE266A97
:1039A0009FED2B5ADFED295AC5EE276AF0EE467AD5
:1039B000E7EE257A26EEA77A224A936A13F480333B
:1039C00010D0536BF7EE007AC3F3462306EE903A1D
:1039D000F8EEE66A76EEA76AC7EE267AFCEEE77A9C
:1039E00017EE903A174A0360936A13F4003310D02D
:1039F000536BF7EE007AC3F3064306EE903AF8EE07
:103A0000E66A76EEA76AC7EE267AFCEEE77A17EE4C
:103A1000903A0C4A4360936A13F4802310D0536B9E
:103A2000F7EE007AC3F3066306EE903AF8EEE66A24
:103A300076EEA76AC7EE267AFCEEE77A17EE903AA2
:103A4000836010BD000C024630650208000000399A
:103A50000024744B534910B5CC6BCA6ACB6A02F090
:103A6000030CCA6AC3F30323C2F3001E0A6CBCF141
:103A7000020FC2F3CC020EFB02F207EE902A03F112
:103A80000103B8EEE77A2CD0BCF1030F29D0C4F3C0
:103A9000080407EE904A8A68F8EEE76A12024CBF03
:103AA0008A68D1F8F42040494CBF120FC2F30332A8
:103AB00007EE903A01EB8203B7EE006AD3ED005AAD
:103AC000F8EEE77A76EE866AF8EE655A9FED375A99
:103AD00085EEA76AF0EE667AE7EE057A26EE277A9B
:103AE0001AE0CA6BF7EE006AC2F3080206EE102A6B
:103AF00007EE903AB8EEC66AF8EEE77A36EE266A36
:103B00009FED2B5ADFED295AC5EE276AF0EE467A73
:103B1000E7EE257A26EEA77A224AD36A13F4803399
:103B200010D0D36BF7EE007AC3F3462306EE903A3B
:103B3000F8EEE66A76EEA76AC7EE267AFCEEE77A3A
:103B400017EE903A174A0360D36A13F4003310D08B
:103B5000D36BF7EE007AC3F3064306EE903AF8EE25
:103B6000E66A76EEA76AC7EE267AFCEEE77A17EEEB
:103B7000903A0C4A4360D36A13F4802310D0D36B7D
:103B8000F7EE007AC3F3066306EE903AF8EEE66AC3
:103B900076EEA76AC7EE267AFCEEE77A17EE903A41
:103BA000836010BD000C0246306502080000003939
:103BB0000024744B534910B54C6C0A6B0B6B02F02C
:103BC000030C0A6BC3F30323C2F3001E8A6CBCF11F
:103BD000020FC2F3CC020EFB02F207EE902A03F1B1
:103BE0000103B8EEE77A2CD0BCF1030F29D0C4F35F
:103BF000080407EE904A8A68F8EEE76A12024CBFA2
:103C00008A68D1F8F42040494CBF120FC2F3033246
:103C100007EE903A01EB8203B7EE006AD3ED005A4B
:103C2000F8EEE77A76EE866AF8EE655A9FED375A37
:103C300085EEA76AF0EE667AE7EE057A26EE277A39
:103C40001AE04A6CF7EE006AC2F3080206EE102A88
:103C500007EE903AB8EEC66AF8EEE77A36EE266AD4
:103C60009FED2B5ADFED295AC5EE276AF0EE467A12
:103C7000E7EE257A26EEA77A224A136B13F48033F7
:103C800010D0536CF7EE007AC3F3462306EE903A59
:103C9000F8EEE66A76EEA76AC7EE267AFCEEE77AD9
:103CA00017EE903A174A0360136B13F4003310D0E9
:103CB000536CF7EE007AC3F3064306EE903AF8EE43
:103CC000E66A76EEA76AC7EE267AFCEEE77A17EE8A
:103CD000903A0C4A4360136B13F4802310D0536C5A
:103CE000F7EE007AC3F3066306EE903AF8EEE66A62
:103CF00076EEA76AC7EE267AFCEEE77A17EE903AE0
:103D0000836010BD000C02463065020800000039D7
:103D10000024744B00B5A0F580430B4385B000F040
:103D20002F8444F20103984271F100031ED2A0F1E6
:103D300080030B4300F0CE83812871F1000380F0F3
:103D40008680212871F1000380F0668250EA010329
:103D500000F03082013841F1FF31202871F100017B
:103D6000C0F07D82002005B05DF804FBA0F5800363
:103D70000B4300F03784AF4B984271F1000338D207
:103D8000A0F580230B4300F0C383AB4B984271F145
:103D90000003C0F08A80A0F580130B4300F0DA83A3
:103DA000A0F500130B4300F06681A0F50020084346
:103DB00018BF0020D7D1A14AD2F8E430126803F42A
:103DC0004053910402D5002B00F081859B4A126874
:103DD000920403D5B3F5805F00F0F185974A10682F
:103DE00010F48060BFD0B3F5005F954818BF002085
:103DF000B9E700F17C430B4300F0A481914B98425A
:103E000071F1000380F0898000F17F430B4300F0E3
:103E1000F08100F17E430B4300F05881A0F50000D3
:103E2000084318BF00209ED1844BD3F8E03003F440
:103E30004013B3F5001F00F00F8500F2A884002B9B
:103E400000F0098405B05DF804EBFDF7A9BFA0F50B
:103E500000630B4300F0D38040F60103984271F1F8
:103E6000000380F08380A0F500730B4300F0A28371
:103E7000A0F580630B4300F09D80A0F5807008439F
:103E800018BF00207FF46FAF6C4BD3F8E83003F01D
:103E9000C003802B00F0F18400F29A84002BD1D172
:103EA00005B05DF804EBFFF77DB8A0F580330B4358
:103EB00000F0D982A0F500330B4300F06681A0F535
:103EC0000040084318BF00207FF44DAF5B4BD3F890
:103ED000E82002F4E042B2F5805FB3D0B2F5005FB3
:103EE00000F00D85002A00F0D382B2F5A04F00F05B
:103EF0001685524B1B68990303D5B2F5405F00F05D
:103F0000E6854E4B186810F480603FF42CAFB2F594
:103F1000804F4B4818BF002025E700F178430B4342
:103F200000F0948000F17040084318BF00207FF437
:103F30001AAF424BD3F8E800D3F8F02000F4004069
:103F4000920740F18D83002800F0BA84D3F8F00086
:103F500010F000603FF407AF384BD3F8F03013F0A7
:103F6000805F14BFFA204FF4FA40FCE6A0F58053BE
:103F70000B4300F09880A0F50050084318BF0020C4
:103F80007FF4F1AE2D4BD3F8E43003F0E003402B87
:103F900000F0098140F25083602B00F0A884802B50
:103FA00040F01D85254B26481B6813F4806F08BF21
:103FB0000020D8E6214AD2F8E03013F4402300F084
:103FC0002681D2F8F020120103D5B3F5802F00F03E
:103FD000DB841A4A1268510503D5B3F5002F00F0AF
:103FE0004E85164AD2F8F00010F002003FF4BBAE46
:103FF000A3F54023B3FA83F35B09D803B3E60F4973
:10400000D1F8E82012F4407240F03383086810F0D1
:1040100020003FF4A8AE8B681A024CBF8B68D1F821
:10402000F430094A4CBFC3F30363C3F3032352F8CC
:10403000230098E60100400001000400000C024645
:104040000024F4000100000430650208B94AD2F8E7
:10405000E030126803F04073920302D5002B00F0A9
:104060003384B3F1807F00F03884B3F1007F00F037
:104070007584002077E6AF4BD3F8E420520400F1BA
:104080006683D3F8E03003F04063B3F1006F00F0D3
:10409000DC8200F2FB83002B00F0578401A8FFF7BD
:1040A000D9FC02985FE6A34BD3F8E420196802F428
:1040B0000062480540F1FC82002A00F00B841B6876
:1040C0009D4813F4806F08BF00204CE6994BD3F84D
:1040D000E83003F01803182B6AD801A252F823F035
:1040E000A13E0108B1410108B1410108B1410108F7
:1040F000B1410108B1410108B1410108B1410108D4
:10410000453E0108B1410108B1410108B141010832
:10411000B1410108B1410108B1410108B1410108B3
:10412000B9410108B1410108B1410108B14101089B
:10413000B1410108B1410108B1410108B141010893
:10414000C94101087B4AD2F8E43003F44013B3F5C7
:10415000001F00F07A8200F23483002B3FF472AE2D
:10416000106810F020003FF4FEAD9368734A13F41A
:10417000000F704B15BF9B68D3F8F430C3F3036393
:10418000C3F3032352F82300EDE56A4BD3F8E8307C
:1041900003F4E023B3F5003F00F07F8100F2B38227
:1041A000002B00F0758101A8FFF7A4FB0198DAE568
:1041B0000020D8E50020D6E55E4B61481B6813F46B
:1041C000806F08BF0020CEE55A4A106810F020002A
:1041D0003FF4C9AD936819024CBF9368D2F8F4302C
:1041E000564A4CBFC3F30363C3F3032352F82300BF
:1041F000B9E5504AD2F8E03003F44033B3F5003F5C
:1042000000F0338300F2FD82002B7FF41BAE05B07B
:104210005DF804EBFEF75EBD4038084318BF002090
:104220007FF4A1AD4349D1F8E02012F44062EED012
:10423000B2F5806F3FF406AE0B68590503D5B2F5B1
:10424000006F00F031843B49086810F020003FF413
:104250008AADB2F5406F00F0F083002083E51F289F
:104260003FF680AD01A353F820F000BF39440108A8
:10427000C1430108653D0108FD430108653D010892
:10428000653D0108653D010885430108653D01085C
:10429000653D0108653D0108653D0108653D010872
:1042A000653D0108653D010845430108653D01087C
:1042B000653D0108653D0108653D0108653D010852
:1042C000653D0108653D0108653D0108653D010842
:1042D000653D0108653D0108653D0108653D010832
:1042E000653D0108653D0108ED4201081149D1F81D
:1042F000E82012F007023FF4D3AD012A3FF4A2AD4B
:104300000B68580502D5022A00F0C883094BD3F880
:10431000F030990702D5032A00F0CF8305490868D9
:1043200010F020003FF41FAD042A00F09683002017
:1043300019E500BF000C024600127A003065020841
:104340000024F400B749D1F8E02012F440723FF4A1
:104350005EAFB2F5807F3FF475AD0B685B0503D5AA
:10436000B2F5007F00F09D83AE4BD3F8F00010F063
:1043700002003FF4F8ACA2F54073B3FA83F35B0993
:10438000D803F0E4A749D1F8E02012F0C0023FF4CE
:104390003EAF402A3FF456AD0B68590502D5802A3E
:1043A00000F085839F4BD3F8F00010F002003FF43B
:1043B000DAACA2F1C003B3FA83F35B09D803D2E409
:1043C0009849D1F8E02012F00C023FF420AF042A03
:1043D0003FF438AD0B685B0502D5082A00F058831E
:1043E000904BD3F8F00010F002003FF4BCACA2F107
:1043F0000C03B3FA83F35B09D803B4E48949D1F819
:10440000E02012F030023FF402AF102A3FF41AAD60
:104410000B68580502D5202A00F04C83814BD3F855
:10442000F00010F002003FF49EACA2F13003B3FAAA
:1044300083F35B09D80396E47A49D1F8E02012F0BF
:10444000030200F00881012A3FF4FCAC0B68580518
:1044500040F1F181022A00F01883D1F8F000C0F396
:104460004000C0037FE46F4BD3F8E43003F0070350
:10447000042B00F22F8301A252F823F0914401088B
:10448000A74101089B440108A5440108AB44010869
:1044900005B05DF804EBFEF771BB01A8FFF78AFBDE
:1044A000029860E44BF680305DE45E4A106810F0DC
:1044B00020003FF458AC93681B024CBF9368D2F8BD
:1044C000F430594A4CBFC3F30363C3F3032352F8D8
:1044D000230048E45349D1F8E02012F440523FF45D
:1044E00096AEB2F5805F3FF4ADAC0B685B0503D5CB
:1044F000B2F5005F00F0C6824A49086810F020005B
:104500003FF431ACB2F5405F00F0888200202AE42D
:10451000444AD2F8F030D2F8F02003F44073920706
:1045200003D5B3F5807F00F03A823E4AD2F8F0100E
:10453000090103D5B3F5007F00F0E781394A10681F
:1045400010F400303FF40FACB3F5407F374818BF8C
:10455000002008E4334BD3F8E03003F04063B3F1BC
:10456000006F72D000F2F980002B7FF497AD2D4BD5
:104570002F481B6813F4005F08BF0020FFF7F3BB50
:10458000284AD2F8E43003F4E063B3F5007F3FF447
:104590000AAE51D9B3F5407F00F0AD81B3F5806F1D
:1045A00040F020821368234813F4806F08BF002076
:1045B000FFF7D9BB1B49D1F8E82012F4406240F064
:1045C0008280086810F020003FF4CDAB8B681802A1
:1045D00040F1CA818B68C3F30363134A52F8230086
:1045E000FFF7C1BB0F49D1F8E02012F440423FF47D
:1045F0000EAEB2F5804F3FF425AC0B685B0503D5DA
:10460000B2F5004F00F047820649086810F020001C
:104610003FF4A9ABB2F5404F00F0F1810020FFF765
:10462000A2BB00BF000C02463065020820A10700B3
:10463000006CDC020024F400002B00F0828001A852
:10464000FFF7B8FA0198FFF78EBB01A8FFF752F900
:104650000298FFF788BB05B05DF804EBFEF7EEBBF0
:10466000D3F8F0301B0140F1F48000283FF47BAB1D
:1046700072E4D1F8F0301B0103D5B2F5807F00F071
:10468000B481BC4B1B685B0503D5B2F5007F00F01D
:104690001B82B84BD3F8F00010F002003FF463AB7C
:1046A000A2F54073B3FA83F35B09D803FFF75BBB52
:1046B000186810F480603FF456AB002AAE4808BF7B
:1046C0000020FFF750BBD1F8F03013F0006FA94B7A
:1046D00003D0B2F5806F00F078811B68590503D5CF
:1046E000B2F5006F00F0ED81A24BD3F8F00010F0AE
:1046F00002003FF438ABA2F54063B3FA83F35B09E1
:10470000D803FFF730BBB3F5403F00F0EC80B3F5C2
:10471000802F40F05781974A106810F020003FF436
:1047200022AB936818024CBF9368D2F8F430934AD6
:104730004CBFC3F30363C3F3032352F82300FFF713
:1047400012BB01A8FFF786F90198FFF70CBB01A87F
:10475000FFF7D0F80198FFF706BBB3F1406F40F0C8
:104760002281844A106810F020003FF4FCAA93686C
:1047700019024CBF9368D2F8F430804A4CBFC3F39F
:104780000363C3F3032352F82300FFF7ECBAB3F536
:10479000401F40F00E81774A106810F020003FF46F
:1047A000E2AA93681B024CBF9368D2F8F430734AB4
:1047B0004CBFC3F30363C3F3032352F82300FFF793
:1047C000D2BAB3F5401F3FF469AC0020FFF7CBBA73
:1047D000C02B40F0EB80674A106810F020003FF4D7
:1047E000C2AA936819024CBF9368D2F8F430634AA6
:1047F0004CBFC3F30363C3F3032352F82300FFF753
:10480000B2BAB3F5403F40F0D7805A4A106810F072
:1048100020003FF4A8AA936818024CBF9368D2F80E
:10482000F430564A4CBFC3F30363C3F3032352F877
:104830002300FFF798BAD1F8F00010F002003FF41F
:1048400092AAA2F10303B3FA83F35B09D803FFF73B
:104850008ABA0020FFF787BA464B49481B6813F411
:10486000806F08BF0020FFF77EBA1368444813F436
:10487000806F08BF0020FFF776BA3E4B40481B68A8
:1048800013F4806F08BF0020FFF76DBAB3F1406FDB
:1048900040F0F280374A106810F020003FF463AA1D
:1048A00093681B024CBF9368D2F8F430334A4CBF74
:1048B000C3F30363C3F3032352F82300FFF753BA90
:1048C0004FF40040FFF74FBA2D48FFF74CBA2D4880
:1048D000FFF749BA2A48FFF746BA01A8FFF70AF8D6
:1048E0000298FFF740BA4BF68030FFF73CBA4BF620
:1048F0008030FFF738BA4BF68030FFF734BA01A8A2
:10490000FFF7A8F80398FFF72EBAD2F8F03013F0AB
:10491000805F14BFFA204FF4FA40FFF724BA154A1B
:10492000106810F020003FF41EAA936818024CBFD4
:104930009368D2F8F430114A4CBFC3F30363C3F356
:10494000032352F82300FFF70EBA0A4B0D481B68E9
:1049500013F4005F08BF0020FFF705BA01A8FFF7B6
:1049600079F80198FFF7FFB9024BD3F8F430C3F39D
:10497000032332E6000C024600127A00306502087A
:104980000024F400006CDC02544BD3F8F03013F038
:10499000805F14BFFA204FF4FA40FFF7E4B94FF4F8
:1049A0000040FFF7E0B90020FFF7DDB90020FFF776
:1049B000DAB90020FFF7D7B90020FFF7D4B948488B
:1049C000FFF7D1B90020FFF7CEB9D3F8F03013F0DC
:1049D000805F14BFFA204FF4FA40FFF7C4B90020FB
:1049E000FFF7C1B90020FFF7BEB9D1F8F03013F0DE
:1049F000805F14BFFA204FF4FA40FFF7B4B98B6818
:104A0000384A18024BBF8B68D1F8F430C3F3036304
:104A1000C3F3032352F82300FFF7A5B98B68314A8B
:104A200018024BBF8B68D1F8F430C3F30363C3F3B0
:104A3000032352F82300FFF796B98B681A024CBF84
:104A40008B68D1F8F430274A4CBFC3F30363C3F338
:104A5000032352F82300FFF786B98B68214A1B0213
:104A60004BBF8B68D1F8F430C3F30363C3F3032364
:104A700052F82300FFF777B90020FFF774B91A48FE
:104A8000FFF771B91848FFF76EB91748FFF76BB910
:104A90001548FFF768B91448FFF765B91248FFF7E2
:104AA00062B91148FFF75FB90F48FFF75CB90E48CC
:104AB000FFF759B90C48FFF756B94FF40040FFF71C
:104AC00052B90948FFF74FB90748FFF74CB90648F4
:104AD000FFF749B90020FFF746B900BF000C0246B6
:104AE00000366E01306502080024F40070B590F8BD
:104AF0009030012B6AD00126026880F8906015681A
:104B0000044615F400350DD0136823F40033136008
:104B100090F89130122B2ED0002594F89130222B52
:104B20003ED0226800264FF0FF302A4B2A491B68EE
:104B30001661A1FB0313906111681B0B21F48031F6
:104B40009B0011607BB11168013BC903FAD40120BD
:104B50000021536843F00803536084F8910084F8FF
:104B60009010284670BDD4F89430012543F04003DE
:104B7000C4F89430EBE7D0F880000028CCD0FCF7E4
:104B800019FD0028C8D0D4F880309B6D202BC3D0ED
:104B9000D4F89430354643F08003C4F89430BCE731
:104BA000D4F884000028BCD0FCF704FD0028B8D05D
:104BB000D4F8843022689B6D202BB3D0D4F8943085
:104BC000012543F08003C4F89430ABE70225284662
:104BD00070BD00BF000000201BECCB95704700BFEC
:104BE00090F8913003B97047036870B55A6904466C
:104BF000160719691D6806D50E0704D5BDE8704073
:104C0000D0F88C301847D60714D511F0010C11D00C
:104C100001229A6194F89120D4F89430222A18BF86
:104C20004FF0020C43EA0C032046C4F89430FFF71F
:104C3000D5FF70BD90070AD58E0708D50221D4F89C
:104C400088209961002AF4D0BDE870401047900692
:104C500030D58E062ED520229A61D4F89430AD033B
:104C600043F00403C4F8943032D5D4F8800068B11E
:104C7000304BC366FCF7ECFC40B1D4F894302046CE
:104C800043F08003C4F89430FFF7A8FFD4F8840001
:104C90000028CED0274BC366FCF7DAFC0028C8D02A
:104CA000D4F89430204643F08003C4F89430FFF7E2
:104CB00095FF70BD500612D54E0610D540229A6160
:104CC000D4F89430AD0343F00803C4F89430CCD446
:104CD0002046FFF70BFF2046FFF780FF70BD50070F
:104CE00019D54E0717D504229A61D4F8942015F4EB
:104CF000003542F02002C4F89420B6D14FF0FF31C5
:104D000001221D612046996184F89120A4F87E500B
:104D1000FFF764FF70BDD0068BD5CA0689D5102277
:104D20009A61D4F8943020461343C4F89430FFF7C6
:104D300055FF70BD394D010810B54FF0FF3100240B
:104D4000C06D0268136823F400331360146191612D
:104D5000D0F89430202B13D0114B124C1B681168E3
:104D6000A4FB034321F480311B0B11609B0083B132
:104D70001168013BC903FAD4536843F00803536038
:104D80000122002380F89120A0F87E30FFF726FF53
:104D900010BDD0F8943043F04003C0F89430EBE7F6
:104DA000000000201BECCB952DE9F8431646D0F807
:104DB0008820202A40F0A5800D46002940D0002EF2
:104DC0003ED01F46036804469A68120600F19C8094
:104DD00021234FF00008C4F89080C4F88830FCF715
:104DE0000BFBA3688146B3F5805FA4F85460A4F878
:104DF000566000F08E80B4F8563022689BB2002BCB
:104E000000F08E80781C2FD1D3691906FCD5002DB7
:104E100072D015F8013B9362B4F85630013B9BB257
:104E2000A4F85630B4F856309BB2002BECD1D369BD
:104E30005F06FCD520230020C4F88830BDE8F88345
:104E40000120BDE8F883002D00F0AC8015F8013B8F
:104E50009362B4F85630013B9BB2A4F85630B4F8D4
:104E600056309BB2002B5DD0D3691906EBD4FCF70A
:104E7000C3FAA0EB09039F4238D3002F36D0216834
:104E80000B680A465B07EFD5CB691E0700F19880D7
:104E9000CB691805E8D54FF400630B6251E8003F79
:104EA00023F4907341E8003038B151E8003F23F417
:104EB000907341E80032002AF7D1694801F10803F4
:104EC00053E8003F034001F1080545E80032002A9D
:104ED000F4D1E36E012B6AD0002320226367C4F86B
:104EE0008C2084F88430E366C4F8902020230320CB
:104EF000C4F88830BDE8F88338F8023BC3F30803F0
:104F000089E70220BDE8F8839A6822F080029A605F
:104F10005EE72369002B7FF46EAFA8461D466AE763
:104F20007B1C84D0D3695B0684D4FCF765FAA0EBC4
:104F300009039F42DAD3002FD8D021680B680A46B4
:104F40005E07EFD5CB691D0768D4CB691805E9D595
:104F50004FF400630B6251E8003F23F4907341E883
:104F6000003038B151E8003F23F4907341E800323B
:104F7000002AF7D13A4A01F1080353E8003F1340F1
:104F800001F1080545E800300028F4D1E36E012B5B
:104F9000A2D151E8003F23F0100341E80032002A7B
:104FA000F7D199E738F8023BC3F3080350E751E81B
:104FB000003F23F0100341E80032002AF7D18BE7CD
:104FC00008230B6251E8003F23F4907341E800325C
:104FD000002AF7D1224801F1080353E8003F0340BB
:104FE00001F1080545E80032002AF4D1E36E012BF7
:104FF0000BD0002320210822C4F88C106367E366DD
:1050000084F88430C4F8902070E751E8003F23F022
:10501000100341E80032002AF7D1EAE708230B62C7
:1050200051E8003F23F4907341E80032002AF7D1A1
:105030000B4A01F1080353E8003F134001F1080552
:1050400045E800300028F4D1E36E012BD1D151E8BE
:10505000003F23F0100341E80032002AF7D1C8E7EF
:10506000FEFFFFEFD0F88C30202B5DD101B10AB9E3
:105070000120704730B400240368C4669C6865064C
:1050800003D59C6824F040049C60534CA3420ED08E
:1050900004F18054A3420AD05C68240207D553E887
:1050A000004F44F0806443E80045002DF7D1002410
:1050B00081658168A0F85C20B1F5805FA0F85E2072
:1050C000446748D0002964D1016900290CBFFF243E
:1050D0007F2400252221C0F89050A0F86040C0F83D
:1050E0008C1003F1080151E8001F41F0010103F1A8
:1050F000080545E80014002CF3D1416E8568B1F134
:10510000005F04692ED0B5F5805F0FD0334A426747
:1051100084B153E8002F42F4907243E80021002943
:10512000F7D130BC0020704702207047002C4DD1D1
:105130002B4A426753E8002F42F0200243E8002147
:105140000029EED053E8002F42F0200243E800216E
:105150000029EFD1E5E7016940F2FF14002918BFEB
:10516000FF24B6E7B0F868109142CCD8B5F5805F5F
:1051700018D01C4A4267C4B903F1080252E8002F54
:1051800042F0805203F1080040E800210029F3D1E9
:10519000C7E7B1F1805F9CD1016900290CBF7F2472
:1051A0003F2496E7ACB10F4A426753E8002F42F420
:1051B000807243E800210029DED053E8002F42F43A
:1051C000807243E800210029EFD1D5E7034A426706
:1051D0009FE7054A4267CFE7002400463D56010895
:1051E000F5550108815601086D580108704700BF48
:1051F000704700BF704700BF08B50023C06DA0F81E
:105200005E30A0F85630FFF7F5FF08BD704700BFCD
:1052100040F60F0C036870B5DA69044612EA0C0F09
:105220001D68996839D1960607D505F0200C01F064
:1052300080565CEA060C40F00C81E06E012800F01C
:10524000B480100606D501F4000105F08000084383
:1052500040F0F780510612D56E0610D553E8002FA6
:1052600022F0400243E800210029F7D12022002348
:105270002046C4F88820A367FFF7B8FF70BD10026E
:1052800002D5690000F12281D301F7D5002DF5DAAE
:105290002046BDE8704000F07FBEAD48084040F0B9
:1052A0000A81AC4E3542C8D0D6071AD5EE0540F17A
:1052B000E88001261E62D4F8906046F00106C4F82A
:1052C0009060960740F1E080CE070AD502261E6264
:1052D000D4F8906046F00406C4F89060560700F1D8
:1052E000D98016070BD505F02006064307D0082005
:1052F0001862D4F8900040F00800C4F89000160539
:105300000AD5680108D54FF400601862D4F89000FF
:1053100040F02000C4F89000D4F890000028ADD0F0
:10532000960606D505F0200501F080510D4340F0AA
:10533000BA80D4F890109A6801F0280102F0400277
:1053400052EA010500F0C78053E8002F22F4907262
:1053500043E800210029F7D17F4803F1080252E811
:10536000002F024003F1080545E800210029F4D18F
:10537000E26E012A74D000222021C4F88C10E2666B
:105380009B6862675D0640F19D80D4F8800000282C
:1053900000F09880714BC366FCF75AF900283FF47F
:1053A0006DAFD4F88000C36E57E0D0067FF549AFEB
:1053B000EE067FF546AF10221A629A68550640F154
:1053C0009080D4F880000268926C92B2002A3FF478
:1053D00055AFB4F85C1091427FF650AFA4F85E2050
:1053E000026D812A23D053E8002F22F4807243E813
:1053F00000210029F7D103F1080252E8002F22F022
:10540000010203F1080545E800210029F3D120221B
:10541000C4F88C20E16653E8002F22F0100243E824
:1054200000210029F7D1FCF7C5F8B4F85C1002237D
:105430002367B4F85E302046C91A89B2FFF7E6FE4A
:1054400070BDA36F002B3FF419AF2046BDE870403C
:105450001847436F002B3FF411AFBDE87040184769
:1054600053E8002F22F0100243E80021002982D0E7
:1054700053E8002F22F0100243E800210029EFD169
:1054800079E796073FF52DAF56077FF52AAFCE0790
:105490007FF527AF04261E62D4F8906046F002061E
:1054A000C4F890601DE7626F002A3FF442AF2046C7
:1054B000904723683DE7D6077FF503AFEE057FF5FC
:1054C00000AFF6E62046FFF795FE70BD2046BDE82A
:1054D000704000F063BD2046FFF78CFEC4F890508A
:1054E00070BDB4F85E10B4F85E20B4F85C0092B2FF
:1054F00089B2002A3FF4C2AE411A89B200293FF4B2
:10550000BDAE53E8002F22F4907243E8002000283B
:10551000F7D1114D03F1080252E8002F2A4003F1A0
:10552000080646E800200028F4D120226067C4F86D
:105530008C20E06653E8002F22F0100243E80020A0
:105540000028F7D1022320462367FFF75FFE70BDD6
:105550000100001020010004FEFFFFEFF9510108D7
:1055600010B5036853E8002F22F4907243E800213D
:105570000029F7D103F1080252E8002F22F00102BE
:1055800003F1080444E800210029F3D12024184A3B
:10559000C0F88C409342416701670ED002F18052FF
:1055A00093420AD05A68110207D553E8002F22F01F
:1055B000806243E800210029F7D1C26E012A13D18D
:1055C0000022C26653E8002F22F0100243E80021B7
:1055D0000029F7D1DA69B0F85C10D20644BF102276
:1055E0001A62FFF713FE10BDFFF702FE10BD00BFE9
:1055F0000024004610B4D0F88C40B0F86010222C83
:10560000026806D0936943F0080393615DF8044B88
:105610007047526A846D114024F8021BB0F85E2076
:105620008465013A92B2A0F85E20B0F85E309BB279
:10563000002BEBD15DF8044BFFF792BFD0F88C1034
:10564000B0F860C02229026804D0936943F00803CF
:1056500093617047526A816D02EA0C020A70B0F8D9
:105660005E20816D013A92B2A0F85E20B0F85E2013
:10567000013192B28165002AEBD1FFF771BF00BF03
:105680002DE9F84F04460268B0F860B0D069176899
:105690009668D4F88C10222906D01346926942F0FD
:1056A00008029A61BDE8F88FB4F86830002B00F06A
:1056B000D280810640F18580DFF8A4A1DFF8A481C3
:1056C000DFF8A49107F4807706F001065FFA8BFB00
:1056D000526AA36D0BEA02021A70B4F85E102368D6
:1056E000013989B2A26DA4F85E10DD690132A265AC
:1056F0006A071AD0E80708D53FB101221A62D4F828
:10570000902042F00102C4F89020A90715D54EB1AF
:1057100002221A62D4F8902042F00402C4F89020C9
:105720006A070ED4D4F89030BBB9B4F85E309BB29F
:10573000F3B1AB0645D52268CAE76807F2D5002E5B
:10574000F0D004221A62D4F8903043F00203C4F877
:105750009030D4F89030002BE7D02046FFF74AFD78
:105760000023C4F89030B4F85E309BB2002BE0D137
:10577000236853E8002F22F4807243E800210029B7
:10578000F7D103F1080252E8002F02EA0A0203F1FE
:10579000080040E800210029F3D120224345C4F845
:1057A0008C206167216704D04B4502D05A681102F2
:1057B0002AD4E26E012A38D02046FFF719FDAB0645
:1057C000B9D4B4F85E309BB2002B3FF46BAFB4F8A1
:1057D00068209A427FF666AF236803F1080252E818
:1057E000002F22F0805203F1080040E80021002938
:1057F000F3D11A4A626753E8002F42F0200243E8CF
:1058000000210029F7D14DE753E8002F22F08062F4
:1058100043E800210029CCD053E8002F22F0806219
:1058200043E800210029EFD1C3E70022E26653E8F4
:10583000002F22F0100243E800210029F7D1DA6995
:105840002046D20648BF1022B4F85C1048BF1A6246
:10585000FFF7DCFC6DE7B4F85E3023E73D56010846
:10586000FEFFFFEF00240046002400562DE9F84F0C
:105870000368B0F860A0D9691E689D68D0F88C20D4
:10588000222A05D09A6942F008029A61BDE8F88F91
:10589000B0F868208346002A00F0D780890640F1DE
