:020000040800F2
:1000000030440120ADF8020879F602087BF60208B8
:100010007DF602087FF6020881F602080000000063
:1000200000000000000000000000000083F602084D
:1000300085F602080000000087F6020889F602082B
:10004000D5FB0208D9FB0208DDFB0208E1FB020830
:10005000E5FB0208E9FB0208EDFB0208F1FB0208E0
:10006000F5FB0208F9FB0208FDFB02088DF6020809
:1000700001FC020805FC020809FC02080DFC02084C
:1000800011FC020815FC020819FC02081DFC0208FC
:1000900021FC020825FC020829FC02082DFC0208AC
:1000A00031FC020835FC020839FC02083DFC02085C
:1000B00041FC020845FC020849FC02084DFC02080C
:1000C00051FC020855FC020859FC02085DFC0208BC
:1000D00061FC020865FC020869FC02086DFC02086C
:1000E00071FC020875FC020879FC02087DFC02081C
:1000F00081FC020885FC020889FC0208000000005F
:100100008DFC020891FC020895FC020899FC02088B
:100110009DFC0208A1FC0208A5FC0208A9FC02083B
:10012000ADFC0208B1FC0208B5FC0208B9FC0208EB
:10013000BDFC0208C1FC0208C5FC0208C9FC02089B
:10014000CDFC0208D1FC0208D5FC0208D9FC02084B
:10015000DDFC0208E1FC0208F7660208E5FC020883
:10016000E9FC0208EDFC020893F60208F1FC020823
:10017000F5FC0208F9FC0208000000000000000085
:10018000FDFC020801FD020805FD020809FD020848
:100190000DFD020815FD020800000000000000002F
:1001A000000000000000000011FD020819FD020817
:1001B0001DFD020821FD020825FD020800000000C7
:1001C0001921D115F0C44B119AA7F64BF928F4EC7C
:1001D000D7EDAEFF08263A7FA8E82CF318A34AC053
:1001E000F528A5ECE7F1E1A98A9F7FE460BA262B08
:1001F000321FEB61AB4FC4B2243F4320AC2D05301E
:10020000C9F4BCB6EBCFC3A77F05F81936EA07429D
:100210005DBD0407BA3CEB042DD001220FF07F1323
:100220000918D62DFAD7D907DBE01CF7813255AD76
:1002300025DB2702F0970E5CA3F7E20D251B692052
:10024000DB60B9D54EACE94C1710BC81AEF0C9BB30
:10025000B6EEEACF0C09F06526F4FE1D52DE2855F5
:1002600065223EA141E8E962D61819CAC50D00070A
:1002700099657FEE165C40C6C584EB53AB67A2ACB4
:1002800071C2B92128071A4F0EEB1626CF01D29F53
:10029000463A8188FE1B375B2AA21567597F5FF3B8
:1002A000E8F5EE19942366918AEC35C613F5CBC6B2
:1002B000F90FEB4CE51FF4EEE5D0DB047F3061C5B0
:1002C000CCCFF2E80809F91013E12EE523BE64CB88
:1002D000185F0C24F246F04AE1F71B89D038470634
:1002E000DDCAE9F381A81BD3BD02E6545C9A3CCC7D
:1002F000A5C9F40109CD1E457F50D7BE97EFD8ABF5
:10030000DF2828C8A0C1FBC5BF4C177F352AC330E2
:10031000EB2CCE0224FB54BAC841C81E17E2F88D5C
:10032000E0338A2C5AA7F0DEE900EB0F5B7FC21E98
:100330002F0A1CDEE7081F21204624EAFEF5D1170C
:1003400037FB3ADAE9F32E362B342BEAD721E61CB9
:100350002EF7640E8160DC1EFC86CC0AE47FFF1D54
:10036000B90E56F099090A11F9C7065FDEBC043BC5
:10037000B41A0000AC2C0000B4260000250D0000CB
:10038000021A0000ED0C0000DD1A0000D11300007D
:10039000B70D0000A81600009D16000043390000AC
:1003A000C724000051D1FFFFDC76FFFFD3210000FE
:1003B0000F0803FCF01A093FF1FE02070316D3FEF3
:1003C00006EC9E2BBE0713ABEDEED6A916E7EB0BA2
:1003D000CA17FBDA140731291FF402EEC20116E432
:1003E000E7F5274310F01AEEBA12000FEF2EC6E021
:1003F000E1B5F138DF139C0AF324AED2AFF9EC403B
:10040000E63204851A1CEFDDDA1FDFE7F9E8100B8E
:100410000E16F2EC04A1F8D917F4FA0E17FCEC034F
:10042000250222FAF9DEDEDEE106F7FEA7F50981F4
:10043000552F0BB10DFAF6FCF6D3220704DD1CEBA9
:1004400009ECF30B12401818BC1205F04700243ACF
:1004500016C952234839F68EF16C104C1714127CD1
:1004600025013B41345412BB214EF16E01E4F3707F
:1004700025DCF0C3DDB0ED1CE0F22BDCD9E84EEA60
:10048000F3BC6AEC2381C8A3C15542E6030A25D414
:10049000E3CE55111B030083CD481FF20CF0E80E8C
:1004A0001413E223C70A032826CF1BE4E0C627FA69
:1004B0000B11E4FC13D6C12CFB452CF9E0E6060930
:1004C000BFE4E6D700061BDACAF61CDD50D9DB49CB
:1004D000DD45F26AFA2756241ECFE212EF21531EA1
:1004E000FD4FD80C1AEE9EB315E01505253F400BC5
:1004F000EEDEE4E00A1DA30D02F8C226F6045BEF6F
:10050000F623FA4EE9390C09B7CC141ACD3E0B0389
:10051000F435DEEF041381E4F390440DD369167EC5
:1005200009D0F78AED0EFD50ED4938EDE92243DEA2
:1005300013F4F108F40AD6C0AE15F45EC4FAD2E49E
:10054000D12CDDEC09DCD33DF8BF1D130A1FEFCE23
:10055000FCDFCFBBE7120CF5091439F10FF50E11D2
:100560002D0288AE178BAAD7B8F50FF7101A2EFBFD
:10057000ADDB810D0AACC6A63210022A03172EB1DC
:10058000D7E3E85815C4FD594910082317370B1253
:1005900024040EEA0EB6CF3103060202241FFE1316
:1005A000D0D836E1EAC7E0EA54461221D311021747
:1005B000E2122D06344957CF042B3035AF20E31516
:1005C00023231FDFE3E51EF0FCF610E6D7E1FCF382
:1005D000FA06E7F6E30D0C00D5E60713AFEDFC27AE
:1005E0000120D65B25360418E71000F712FCE41F43
:1005F000C917A28C2DE38D11DCD4DFCAFEBA30DD21
:1006000001032FB60A1EC98F0F0200070EA516A7F9
:100610002FA32C620019DBAA4F8107CF0FCB21EA51
:10062000F121C2FF52D6FC1710ACEA0FACED19E570
:10063000D90EF597EA2ED726D97B012321B305D110
:1006400006D954EE0A250FDA16E106E750DD03CE8F
:10065000F13A086633CFDEC332AADBDBBE11DEF728
:100660000C3A0BDE890DFB25EC2B193993E7EB5780
:10067000E801D9CAC0F245F8C91020ECE5E4F51E3E
:10068000ADF020E4041A3A13EAE7E42D1AF420123C
:100690002F1AF623C6D5B9AAF71B11F9F1FAE633DA
:1006A00037DF0721FF10F716E9D2F5CBE3FAFFE9B0
:1006B000E7D3F09308EB7F16A8F3F901F9E723E2FB
:1006C000E2EAE40003F239DC09CFFB0ED8DED438CD
:1006D000FAB412350DE3010210E50B082DFAF114FE
:1006E000DBF5F6CAEAF1EE00CB200922F9FB3C412A
:1006F000E10B12D4181DE5DC0CFFFB29CFEEFFB295
:10070000F1E5FBF60C241EE313C2114A3F0213204D
:100710007F4E1724DB3C62D0CE42F0EE0AFD4458F7
:10072000581FF333FF0867E2072FF008FB2735FE59
:100730005F1CA6D0F7350C05F60EF8E700062D1263
:10074000E40E4126CFF8133E4223D5E8EB00D10F4B
:10075000B6A8F531F6D7085321DFABECA20CD3F0E5
:100760003CBDA0C9F3F5052ED8E9A3DEC609EDE529
:10077000E0F83DF2F80AEB0E1A02CB263AF18E347D
:10078000AEAF03F65C1D0CF82797C23BC9EAAC106C
:10079000ECBEC5BC50EDF7D516CFA529E1E5DCEEE2
:1007A000F9FBD6F208CEFAD410F009F9FE12FDDBFF
:1007B000F10FDDE004FA215C080F1240E2121DB2D5
:1007C000FAF7F60FFD25DF04F8F80B422411270194
:1007D0000FE91FFEFC26811A0E0F03F1F52EEA5CCD
:1007E0000C2539D80DD10E400525FAE52FF4F4E299
:1007F0000C1658CED4ED16EC31D3E617E6F6FEAE65
:1008000011E2E848103719DAF0052F17DA21F3CF93
:10081000D307DF3A1DFCF813C6210BE3EDFC0051B2
:10082000EFF7F70EE2ED05200209E8E015FCFC27E2
:1008300039224BF8EAE2C8F422140E07162ABE4603
:1008400034E2F915D52AE80A0D27E1FBD9EDBFD628
:100850001EBCA992060E5125F2DBD4BEDFE0FC815E
:10086000FB343419FDAEFC100AFD14FAF30DC85A1E
:100870001AF4C530F8021DBEDF1AE62516E4E9F2C7
:10088000FBADB3C1330A25E0C2EAD6F109D72998F6
:100890000031230D0717E63F37D900E9ADFFD11D21
:1008A000E9EBE741F83333E432E5EC4323EE0EAAFB
:1008B000ED8FDFD7F232E0DDB8E5F43604F445AE73
:1008C000E9F82EDEF505D440FD0BED18FBFDFCDD4F
:1008D000180BD0EE2EF51681CBEBFA140EFDE428A2
:1008E000FEF8050B0A07122604D6F9E9E818E8060F
:1008F0001E0AC4EA10450DA2BDFC11F7E1EF071175
:10090000FAF6084F06F5056D0DE2E4E941F7FA2D18
:10091000010A0EDFEDC5E00B183B0D24FF0A11AAFA
:10092000E7F31020FEDC052C24EF07F12612FFFF71
:100930000B0638F6F4F702F02F2D0DEDD3F6EDBDD2
:10094000F7F7C4E9032923D0D6140713F9F5085D96
:100950000F30E70A1E03D9081AFD090807E70C2D16
:100960007F3A19183225041C457EF0210FE62B44EE
:10097000282EE9011702FB172848E529F4A42F19AE
:10098000E227DCFA3311FF0401FAFB2828F4285887
:100990001D1D0FFB753637082B3FFD2543063435EB
:1009A000040FFC1331132CF0FF18E4F82DC91A01C1
:1009B000BBDDEA0014E01729E5FF08F40F13200659
:1009C000E8D8230D2FF8143223170CF320211B3AFB
:1009D000C6F0161FE70F08D8CEB2D9C3C7F3F4E8A4
:1009E000FD1DAAFFEF1DEAED0400F6EB02F2F5BCD7
:1009F000E41FEB96E3DFEE1EFD10194253DF4600C5
:100A0000F7EC1DB8FD32F8151BE1123BE1F31219AA
:100A100010120734EF26B81AF40F9DF0F305F426F0
:100A2000EA17D9BDDFFAC45BB916B6312BE52379D5
:100A3000FF15CDCDE321353CF626D20ABCEDF32BD4
:100A4000E1D51573F72814080716E9FF0A0BDB2117
:100A5000F1ED102600FB3109EBF90723FDE3E7F583
:100A60000BE8252409E517F90ED40EE281CBCF015E
:100A7000EA13411D0506F7080AF3FAD2F710E1154B
:100A800024244AF8001CCB0F00F9F4CBE4FAE93D2A
:100A9000FD383DF515E618C0FEEAFEDEE9F4F2F792
:100AA000361FC205F2EC1BC2E601FC0DE4D70FAF06
:100AB000F4F5812623010FF8C4E6E421D7E324A34B
:100AC00043F59971EA03A260AFFED71145D7221B07
:100AD000DB1B1BCCEEDAFD1DF60A0411250E1841B6
:100AE000E50630CD07A2F8144C2509E65209F907AE
:100AF000ED1718C6F6F838E61E0A310ACB3502E8BB
:100B0000F02DE213F2E32209DBDEF8FC0615082ED5
:100B1000F2FBE438F8EBDBF008FCF6F1F310FD161D
:100B200017F7F31CDCF920F0FB1D06DE0205E4EEEE
:100B3000FB08EE0902E350EF0B0707F607F305E6A3
:100B4000F8E5CB1D0CF9FC111AEC011EC0ED00FDFF
:100B50000CE9E0FCEEFADA06D0F70D1004FCEE1812
:100B6000FE07FDD50908EAFF7F35060C2ECA1515CC
:100B700011051AE434FFFCE54CFF021312D40FDC1C
:100B800015110EC414CC28FFE8E917250EF2030551
:100B9000FDF556E4E220AA1C2B1ECE2F0122E31203
:100BA0000CDC01C1EB2FE337F9EADE53D924EDFE6B
:100BB00043D4FDE3F5EAEE201DF4F65704E1DAD75D
:100BC00007D2EC0DEF1713F61413EC01343C450675
:100BD000DFBEE10F39DE41C42A02080B2D4834CFB5
:100BE0000CDB1BE5180718EF26FF2607081809F08D
:100BF000C8CBBD66D6AB52F7FCC016F8D01511E5D0
:100C0000C2E8102137D35981F6F022C90A16ECEA5E
:100C1000E1FF55E1110720B2B4E20DDA0701DE531E
:100C2000B3F2DBFA25FDB9375AE51D6315F422F45A
:100C300018FCDDD0FFFBA9D026DA0102E217F90982
:100C4000E8C43B1715182A1804D9DDF3E030F4DFA7
:100C5000D22A81C6F4012810A5C2FD2476CA101537
:100C60002225CBE6C719CFE5F69BF1EAED03F92C77
:100C70000AF61B550704F528CFFCFFD82A4FEAFFD8
:100C80000609E6C5E50905259DAC0EF572CB012EDA
:100C9000071634F8F6C1152518C21CF6F4ECC9BEC7
:100CA000290A0A3A15F801EB18D02FDBBD32C8F13A
:100CB000C9470000EECCFFFFD2480000E32200004D
:100CC00040580000B5080000C1EDFFFF43070000D9
:100CD0001C3600002A0000000D90FFFF8AEBFFFF8A
:100CE000C10700008902000045040000121C00003A
:100CF000AA42D50A99185817C02E1ED31B14ECB956
:100D0000D05E5EE122F43D64B4F82D47351C1FE649
:100D1000A07F5A0B5FF2082BF1E0304BDD3EEF3540
:100D20000811F30AECE3F533181300E90DAFC50918
:100D3000202B171716D7237F0BE9074914CAECB3EA
:100D4000E10607EC0EFAF8250FF12031CD0BD2B9F0
:100D5000401EBAA2E81FD9FCF7C7AEA61A82BE1E73
:100D60002FC9C2C619C8DC133EBCB6FB009AFFDD12
:100D700039A11ED7EFD4BC0824F4FC1AD0A9B002C4
:100D80000C34E8E9D2E4B312F6410008CB1D3DC5AE
:100D900036ECE8333E1FC9D60007FE02E2EE079E9E
:100DA000DCF023D6AD1D57D21408F7F508D6F24370
:100DB0007F33DA4A2BDAE02144FB3406B05A36A1FD
:100DC00005EDCFE773FFE6EF07D30A19CAC9FE9115
:100DD000A0C96FB1893D23E74F060EF826FEFB73CD
:100DE0003ED7C749E8C7F3D4F5F20C05B82C11EC8F
:100DF000DDC1F6B83AEE251BE9D6D731F9E0003F60
:100E0000B0022CD9B3FC1414F437D8082F051932CA
:100E1000B1EECB1EDBED0A2300FF1116EF14EDF44B
:100E2000D01529071408E9AEF903251B0AF5EE21B0
:100E3000FC0E2CEF01CE030CC710FBFA0A11F308CD
:100E4000A6DBFDB718EC06F409E8EF00EFF00F128F
:100E500057F76A52245BE581121816060FF51874CD
:100E60003009010822BE29F1F8F9EEEFF5FF34E868
:100E7000E7F0E9B1141813F7310EE500E0F9F9DEF7
:100E80002AE90039FAEBEFD81B10EC2DF6EEF0EA68
:100E90000AF8DC0F01FD17020AD0E20502FEE1C4E8
:100EA000DF0DD516ED22E6E9DC28DFFB01FD01E6CA
:100EB0000F0FF018F1230F11091BEB25FB29020579
:100EC00000FB39D700222216F911F12005F2EF229A
:100ED000FDFCC129EC08D0E40D1A00120703EE074F
:100EE00060092801DF1107E71F06FEF9F631D3E498
:100EF0001BF37FEAF1080CF2FB0BED1B1B0AC40D80
:100F0000FDE3B9F91202E0D60D1A0EDA19FEDF1769
:100F10003D1EF3C41202F5F81B0F03BF0816D6EFEF
:100F20001D0E07DE12EEDB09D109EEF111E6D20A41
:100F30000D1D31F8CEE645F0E3FCE6FFF00419D6CE
:100F400000E9C219FAF8FB0D47FAB51300191BC3E3
:100F50001A0224FCEC10D7F71EE1FF0909F43FF652
:100F60000A267FF6CB010BEAF0E802143A2328E7C1
:100F7000D7F9C40E129EC30629C69BD110DC30A639
:100F8000F1EF5901F929BFEAE2E9F5F2180D0FD99D
:100F9000F532362EE135191BC7DD25062D2AEEF870
:100FA000DCF8C6001EDCDD31F4FAC8971CDD12E661
:100FB00008052AFA0042CB13DA17EDE3182EFFDBFF
:100FC0002730D42DE520BD0F0A171F1E1CEE04028A
:100FD0002A1AFD62AE50C2FDFC180321421B5F14A9
:100FE00022E80B45C8DCFFF7FF02C62228337F4406
:100FF0002312F911FAD7D1F00D1FFB1256F2E114AA
:10100000D22BFB121AFCFB0A1332F22570ADF80545
:10101000E312C8E9FB0F0404FF2FC62A29C71326D1
:10102000DEEC04BF10EBECFEFBF7F9EDF6E1E605B4
:10103000E50210A42F0306EAFC0DF3E537EB06F4F6
:1010400014DFE0DB2CE31EFB1504D801EED026EB09
:10105000CD1FEAF82D13C0E926B1E8FEB61DE8372A
:10106000CD7A091101F4F1E525CA1C1DECE2105BF3
:10107000F746100327093C2845D3143BFF20FC12F8
:10108000F72504DC06F3E52DDE84CED99A24F5118C
:10109000F3635B260028DC26C78104E7B81B0F3802
:1010A000E01C382D3007EE430AA5D5F3CCF54202FB
:1010B0001B1BF2DEEAB4221412C2E1FD021A171F52
:1010C000201A010CFCDEECE4D3A8FF20E332F10689
:1010D000F4B1F32841FEC90FF4B0D016CC5420D19E
:1010E000F8E4D3E7FADF05EF12181831F1260818F3
:1010F000001922F70CF1E7CB1AFEF40B10543DFB5C
:10110000FF0BFFF5EEF901F72E0CE025132413E594
:1011100001DEDD0B0731F99CF1191B07FE4E0DF1C5
:10112000121DF80EF12FE2811D5A09DF3C5B3B03D3
:101130001E00CC37F9F0FF001BF1F3170E360E0C32
:1011400035FB0A4A0CF2E71AD62EE13DFC19D3FA18
:10115000292349470FE503F7DE19CF02E738D2EB21
:10116000E7E70A04EAFCEB3EFCCCCF030006D20220
:10117000F0175AEB0F0B521AFFE8F1433AB8EE0E94
:101180001AF037B5B9066200150DFD66FDE21601CD
:1011900034E8F2C1313B0508E80DF70F041636D3E9
:1011A000A8245ECCAE3B2EABDE0DE5320BA10824AD
:1011B000CA3830BC81CE56B5C602CF151D9A664FCF
:1011C00050FF0ABA3BDAEB4CE835B5D342D643EED2
:1011D000FCAC1214D80225FEF71949CFEFEF2CFA18
:1011E000D435FE22EE105C04D62519A2F2E2710B72
:1011F0004A2F4CFD0B23481EEE2324944ADD141283
:101200002B070EFE17EC0EDB2BE8080EC9D40D05DC
:101210002DF72BD5240307BF39FB0109C4C6B31929
:1012200019F4F0F7E60831DD28F4E80DBB81DB198D
:10123000F906371BCEFC312DFBDC0314A3E3F22DA2
:10124000F2EF4714C2F5F0FAFCE305CC84C1B1FF1C
:101250000F33EE2588F9ECD723D6EDC9AFD7E5F9E2
:10126000EBF7B414E82BFE2A02FF1A3BD425F5361F
:10127000D6B1C83DE12CBDE104052BE3E90DEE2E0E
:10128000FBE5E34DDB0EC3F03A1510F1DB42E60857
:10129000EFB4243215C9E83FD1E920A1F1B5D6D485
:1012A000E0FB374D4BE73DF9EE0300B9F1C010EA22
:1012B000E1FAB12159E2FB08F0F913E4F6BB5481DD
:1012C000FB8DD9F5FDF8CE14EE02E5D3D9EE19EC7D
:1012D00015D91C2A112100C8F407E528D4111F0EC6
:1012E00019DDC40479DF0EF916150713E5E339019A
:1012F00028B604180D1101F9F3F6D1E301EC27DC4F
:10130000B6FC3041C9CE0DDDFB07F064C415E9D849
:10131000E102E913F51110F410301803D5112A2158
:101320002810FD02FAE3F3011207122309CCE6ECC0
:10133000290905FC2EF1F1FE0A09FB05E509F9FB77
:1013400001FBF50610FBE80DE60CD406F11528E3C9
:10135000FA141F31C4D9EDE1430D19F90ADE0DD19C
:1013600039140F0219D2021E220326F2E6F3FFDB24
:101370001E2DD1FE1C000E12F9F102F4F8E4F081EA
:1013800004080A10E8CE0AEF19090EEDEC0221F963
:1013900007091619EBDA14F80D1A19F7F11E10F6F1
:1013A0002C18EB10070B140AFEFFEB13FF03DED023
:1013B0006D4D16F7C70F3D1168E6C6FEF6C09640A4
:1013C000411EF50DB7E56E3574F1C4E1C417D04583
:1013D000410ACD1DDFC678287CECE0F4B4FEF70EA0
:1013E000431EFCE54E49F1F25FA2A6C9EF0CF725BA
:1013F00007FD9437501A49C653E5CFEFDE2B1B1972
:10140000F1E2D459F1B962FC3D14E12CC2F31702A8
:10141000DD2207E07F6F2527129221F223EB08C51A
:10142000B2060E2575FE50F7D7031B33F4F802ED14
:10143000CA0FCC6B91C74FB50C38ED03F7DAF7D96B
:10144000E8100DBE03E5E4D210F60904252FE733BA
:1014500043010B103807F1E814EA0010FD13E32EE6
:10146000EAEDD209EAF10106D8E804050ADB07D85B
:101470008117E8FD09EA00791FFB10FAD9EF02CCC9
:101480002208EBECAF4EF8A9EDE5ED0B3034F34656
:1014900024FC202745FEF4FA09F50E0FEE050BF8A3
:1014A0003706F70FFF23F3F71103F4F6281CF7CAEA
:1014B000E7FDF7FDEED3E434FE0CDD03DAD2D80409
:1014C000050CFCF5F415DCE1252002FA08040812ED
:1014D00021FC2102EED107454B09DBFAD41C1FEC9D
:1014E0002309DF102C03C6E83A4806E7E60F072C6D
:1014F000BF28F5F6420AEBC5FA171AFCE6D7E7252E
:1015000021EE2881DC00F4052D51E2DEEE1A210FD8
:10151000E8DBD6F115DCD6D01C4BEDEFEAD8ED199F
:10152000D6E81E2CED2014D4D3132102F6D3E425E3
:10153000F5E0FD19DEFFE3F71235F1EDF1DBF20125
:10154000FED40910EEDBF4151EFFCE0DFDD5EB43E6
:10155000D9070616E40A0B0F121A26F5F5090A0830
:10156000FA114814FF18D2373A2AE110ECCDEEE810
:101570000B07083F00EF02103347A300030DE0FA0A
:1015800000DCCA12B8A21B2D240CCB03190FE714E0
:10159000F31A5C271FF6CDEEE02CB67FD81EBCF503
:1015A000C733F2FF3E0FEF2627299632EBF6C8F835
:1015B0000E2ACAF0DB16F4141821D8D410CB111A55
:1015C0001E17C900FE280819091FC44BFA09C211C9
:1015D0001429B40B3F5A08361103B1E1DE16CB0CC7
:1015E000FE2DD41F0943EA00D313048306C61B0053
:1015F00060200000E605000014FCFFFFE7EFFFFF9E
:1016000023020000940100008BF7FFFF95E9FFFF24
:1016100088FFFFFFB0190000CC1A0000C4FCFFFFD8
:1016200054F8FFFF12020000330A0000F4E3FFFF4A
:10163000E705F4D2F2BA0ECEB3170B1D042515251B
:10164000D203FCCEEDBF0FBAC928040F0E3C2625ED
:10165000E60C0D27E732F8ECF1EB01FC0F1D0B0B4C
:1016600010EBD9E211B506D8F2DACE04172616F33C
:10167000E9F9CFC221831DADD003C8101733141E62
:10168000CC07F5E210E301C2D6ECEF0414FA023005
:101690004606102128E6C71021D7B81D192D1F0FA7
:1016A0000521EAFF22810FDDF2F1E02A0432234B0B
:1016B000D733ECE40BC014D5C715192D09013849EF
:1016C0000C0FC200450FC905EB10EBDB0BF30B0849
:1016D00002FA3B089B060BF918EF240C02F9EDF611
:1016E00002F6060109F71103FC16EE0B05FAE800F5
:1016F000E03393EA6310CE10EA17C8F102F9161C22
:1017000007E5542181EA47E8FCDE2F04F804EE02E5
:1017100012FD00F518F2F40E0513EE10F904F40EA4
:10172000E916DBF53BF8F213F1ECED0EFAFBF906E6
:1017300000FE110ED4FB1BDFFBEF15F3F9FE06E2F2
:1017400014FD04EC0A06F10913F70CFEF9F00C0580
:10175000000523EDEF20F53C98DAC1F8DAFE20F31E
:10176000CC051E21D218FAED8FF09C1DD8100C2646
:10177000DEF8FD10D902E5DCC8D9CC19EC0EFC2648
:101780001F0700D5F21D0945B6EEE705E90B1EBAA5
:10179000FE110F08C22421318113BE36D52021DB72
:1017A000F119031DBA2D010CBCF1D53AD61903FF6E
:1017B000190F0AA6030D0617ECFA0501272111F9E6
:1017C00006161DDFFF0EFA35C51EE00D161527C3E0
:1017D000D41111FAEE14D122CEFEC613F70104EF94
:1017E0002C20F07F0FC3F63A032946040CE7B7F428
:1017F000FC16101DFC0CE52531382CFB2CFDC532E8
:10180000DB0921E2152803F010E6BFED031807D924
:101810005D201151D7A6E214D2056D07FFD7ED3533
:10182000F51D08FF0AF7DDFF404B2FFB360E0A605F
:10183000D41E10E125311DE127EEC9021E2D1E091F
:10184000583E19DFEBB9BEDDBFF13109E7F50054B1
:10185000E52725D632D6D9ED27350AFF0D062F3ECE
:10186000B4201CC56509F5CD01F7E5110A1923E976
:10187000E80014050DFBCF1F31FFE2FB010AFE0853
:10188000C50101B302E2EAF9C6F6FFD2D21438F775
:10189000F8FBEF9CEFE715EB81DB21EBDF0F2AF77D
:1018A000D81929E2EE19C906E1FCFEE00D023A065C
:1018B000D02D0BE3DF11EF11A10637DBDEF652115D
:1018C000E916F003E3FE1801CD062DF8FC042320F1
:1018D000AB0B19AEBC2AC7F4C9EEFCCFF9F423F761
:1018E000C51506E4B022E607C1F92106C6F2EE1BD3
:1018F000E207F4F7E400FE1416F5F514D1FDBE0579
:1019000002E2C9C5F2C4F7F303012D39B33B34FD3C
:1019100005E6DCF5CC2EF0D3D2FAFF33D756F2CC65
:1019200019F4FA34D243FDDDFDF9F7132322E3F273
:10193000F8DDF3F7ED83261D3EEDFD06F16527FD8D
:10194000F8C7E4D3F1B8ECE91F04210EC47F22D11B
:101950002BD9FDFB1429D9C4F30DF81DEE56EFDC8D
:10196000E0191222F2E0080413D5DBCB3019F72777
:10197000C004EAD6E8C9FD033FDAFC0AE537131FC5
:10198000ECE3E2DBF3E9F3DE0BF91C15A5260BFA19
:101990000F13072C280B10DBF61B0A013C092ACF7A
:1019A00010FDF4572CD416AE4739320C3CF50AED35
:1019B00003FDF10109FA16BE452540FC1AF6062082
:1019C000FE24FF0E21E8F1F4CC06FAEDE713233BE9
:1019D000120B0144209CE9C20933EDFBF4F7FE43EE
:1019E00035FFFF0FEEC2F1BC003103EBE3F4021749
:1019F000BA04DC0E134F2C36E381F1EFF5391CE805
:101A0000B104C1543607DF54FDCA1901462CED114B
:101A1000B20DE92F2BCDBA2A100A10F84504FAFBB3
:101A200001F6F829B5E6A500EF251AD5BED00523A5
:101A3000D7D2D65FB4F1D21E0D02DACE8AC7B8E98A
:101A40000CFAE753CE10CB2A1429D03DB5F5C2FECF
:101A500007DBD1F62315EB3F0323D8DF3FC9F9C7D6
:101A6000CDA4B3DF55F120392E03C2C124B0C68105
:101A7000F4F1E6F5351C134628F5CA183BD9ECC934
:101A8000F41BF4AE3C2AA6FFB4D6FD1649EE29B8E5
:101A90009DF6E2A34EFBF302B4DBDFFD4BD21EE466
:101AA000C41205A72416E01BB3E1F84047F7264906
:101AB000DBF047F811F7295900082404E09EE1B84B
:101AC000E102424CF522F2040206F311B4A5E7014B
:101AD000FBF7182EEF43D7EB1EF1DD03DBE3F81322
:101AE000AF1D3FF2FC12C641C00F19F6EB810E226A
:101AF000B9F75443BA09C4E91609F2FFC796270497
:101B0000FBCC1A1BC9F5E8E215F0F9FCDADC1E097A
:101B1000E40427DBF005B7EDE70C180FFDCD123D0F
:101B2000EBE80910EEDAD6D517E606F211D509EC86
:101B300027F5EAEC010820E703EDF9EB38F90A0E86
:101B4000D5DC19F8E1E50FD556EDA4931AE0514321
:101B5000D7E5FCCFC9FBDDE9ECEFB4CAF5FD202BDE
:101B6000D20303ABC533DDFCF913F6C3EC0307085E
:101B7000FAEF1919ED057FE0571DBA8535EA2E3ABF
:101B8000FEF809F3E1F634E5310A8FB1F8042116C5
:101B9000E9F309C0DD2221E714DEA2A5FD0912E662
:101BA000001EFAEC050B1F0F4AFFABEE0E030F5998
:101BB000DF0C03EFD1E305071704B8DBD1060611EC
:101BC000D0F5F3BCD22509E2F6E7CAAEEA08FAFF7F
:101BD000120C17DD14D41651FA19E90FD8F80BDEE0
:101BE00042F335D2402B0C55DBF0E72BD60EDF301D
:101BF00050EA14D2293417F7DCD120261D15CD6206
:101C00005E123AC52649F214F2F9DD1B1808D36DAD
:101C1000460854A52339F9A5CADBE20B3D0C116136
:101C20000C2D30D2230CE0C5A0C22BD254EC2EF8E0
:101C300033E9F9B7FEF42BBCD1CA81AA32FDDBFE31
:101C40000A192ED705F105B5A7D2B0BC52C801B20A
:101C5000E31112E5E7BEE105ACF245B405AA13DDD8
:101C6000E5C6F005F6FD12C5F604FD0714D9E5DF5B
:101C7000F2CDF3FC1519D0AA05DDD4311222010EE4
:101C8000DCE6FC320AC708D6DFE2D72C0A38E8FFC8
:101C90001EFC05EF13C0600918512D11FCD4E3E8B8
:101CA0001AE115E8061407DD3000F21D093B063580
:101CB00032E9F4072625F2F917DEC4471368E22556
:101CC000F3F403F7D781F0DAB52910D502D0D5CADD
:101CD000D9E500E5BCB106D2F9CC01E123FDFF0155
:101CE00007EC0CEBCCEBE6DD1AB5B912FB27E842AA
:101CF000E30B64CBEA33F327F92EECDD110B03532E
:101D0000252D3F3306ED1404E8FDF02C2D28F82E88
:101D10002604E95821F23008FAADFD32C80B03B1B0
:101D2000D000448E0020E53BD43ACEB80616F657D4
:101D3000150D49DE2103FB1BDA2EA91E2F3EFC13D5
:101D400036EE1D241CF9E9FD03E1D628BC11FDA8DF
:101D5000BCEE07B0230DD72CC41D9CBE2E20074B14
:101D6000E3F13CFE3E0FDC18B93B8129521F12F60D
:101D7000DAF43027F3F2DAFFEF1BBB030705EEA21C
:101D8000B923D316CF2F3FE842EA0FB1CF1E37D683
:101D9000DD08FD11FF3DE1F21043141FF216CB15D3
:101DA000F02401243BD2DF17EF2B3A3BBAE09F42ED
:101DB000E62B41F8D9DE7FF653E7E7A8271F3EA5BB
:101DC000EB0C28F4D8140DE3154C1F2425F9C91E7B
:101DD0003E3F0A2736FD0C1DF34E6951EDEB8D4554
:101DE000DC0236D5DADC1CED24B1A1DC350033C8C9
:101DF000BD3524B0C0FD01EB0F10E00D2CF50B0438
:101E000016EC23F90321FDFE0E152F1F1BF0BA233C
:101E1000DFE5D6D60A120A46169D36E9EC02221CE8
:101E2000BAADCEF6CDDEE71CF8814BDEE3E837F540
:101E3000C392DDE8D2EAEBF3BD9E23C5ECE00EF6DB
:101E400062C1F903DB1DF3284D1845DEB4FD07011F
:101E500059A2E4F4BE0008FC262948B78DDC04FE34
:101E60001DB9F303EE1B18DCF61309B698F5C5E9A6
:101E700046CBEAFE0CF2C5351E25F4BAF1F1C411C9
:101E800013CEF50A0513BAF82812E3F72DEDDD0598
:101E9000EBD913091D36DCEB0BE6D3FE3A08F5C689
:101EA000F70300F7252E02E6CA04EBF83DEEFBD45B
:101EB000FFE807ED11E2F2E0E739020834A0BAC505
:101EC000B4DB10D7041FF0E5EDFFFCC72FC99CE180
:101ED000ED05FA05197DF61319AA040B13F11DDEA1
:101EE00014FE1AF4FD47EBDD1CFDE358FEB1CEE90C
:101EF000BAF812E6F734F1A8DED0E41EC5E6ADF17B
:101F00006127F5091F5BFDFF17BE2FFF040936127D
:101F10007F1116F1F841F00B3608E8510CF7151A4D
:101F2000021215F2E532F6CDD3E2D101CE1CE9174B
:101F30006103C515F10BA3D637E914FCE40FEDF5E9
:101F40000E26BE010CEA2EE5BC97D1DFDA4400CFA5
:101F50008127F1F61FDF6021FFD9EB9A08321F3984
:101F60000BF7FA17BC09C4E9605B3C6404340DDF6D
:101F70005220A60FF821CFB2E7F8E74DEC6BF4E75B
:101F8000303AA3D132EF6E07A3C1C3DDEA6A043E43
:101F9000A2FD1CE3E30F071E242A2CF10417FCDF2B
:101FA000F2F12F25DD1AB4D529381937F039E2C7F7
:101FB00067FCE0DF1CE5ED1AB6EDE23DF54ED5EB32
:101FC000C91CFA14E42B361809F32C1010FB001B63
:101FD000AA1A0267FBD9E4D2D3FD17123AFC24B245
:101FE00092170C352CC7ECECC19E1D1548FEF1A4D0
:101FF0001648E1EDFEFB2FFA2EDE28577FEF3AA5BB
:10200000EF11F34625FEF7EE0DB8376A62EE46850E
:10201000E10FF13E2E0203FDBAB01B406314F5DC64
:10202000551E102CDE18F604CBAB13313E154C9523
:1020300018081D49E8F213FCC5E31348290A59FCA6
:10204000FB081247C112E6F08F131209EB29233760
:102050003FE9E5F8F881C100C63918F1F72A3437AD
:10206000F4F8FA19FEB8DAD9EF361DBB1C0B25249B
:10207000DDF11006F8D6C7DFDE0122B51AE5070745
:102080006FF3D20ADECB1047F5F91C0E342C0EFB91
:102090003506CF36E9DE32551C1039EE110733F123
:1020A000251CE325FEE64000013B36EB00E02A1844
:1020B0004237E1DDD71F2E63E0A1EB002325D0DE00
:1020C0000A10CA2CC4414E7A27DDE80DEAFEF7C992
:1020D00034E5EB54E51850584B18D90998E209E457
:1020E000BC04D54BCBB8BDF921D2DBBDB1F626FA85
:1020F0001F09C83E18FF1E496CDBB3B5DEF237B1CD
:102100002D2B09C3536A2A4A6EA8C6F720FD2EE973
:10211000ECF4E222F0C1D71D01F5E3F6D9C13ADDB6
:102120001F0BF9F80EEDFB6143FDD22216AF78F1DB
:10213000303B0A812151187C66DE076226D8540D97
:10214000EBDE3106EDC2B4EDC2B1F42CA4C84419E3
:10215000200637DBE4CAC01EECF90110E0CA5E4C71
:1021600005FC22BADE2EC94D09FB08EEF0E6164F3B
:10217000021108E8E533420524CAF504F403C86AED
:10218000F2FAF20701FCEFFA3A9508FD1516B62EA1
:10219000E5E6010D13E6C7FA46BDF3331FF2EBC7C0
:1021A0000C3BFF04C31C18C8ECEE3008F8030541D3
:1021B000B526EC09B11731DE02BB02B210119F6BDC
:1021C000C1EEF7EFF90E14F725A2D7C132089E65CC
:1021D000FD201316F004FBF6F6380C65171023ECFF
:1021E0000437ED13C2002EEEB4051317D5EF1C23F0
:1021F000DD11FB08C90F3DE2A7E81DF8FEE8FD7FF1
:10220000CB5BF9C11678D2F0E7BA2E1CD1010438A5
:102210002529CAE1EC65AFECC8F6D053C3E4786475
:102220007411D021D610F9C1C8FEBB620B02606CDC
:10223000D7100D0E1674FABCC020EFC606D8340EA7
:1022400011050C2B0DE8EFAFEE33D5D22CA07FFF9C
:1022500033F8073D0EA727BBFE4DEDE243FA2AF304
:102260002014221EF7DEECD2332DE122E9FF410FCC
:1022700041163C06DC8DF7D81434F01007EE1B1520
:102280001FF42B0AD9B103DFE9F806EE02E4DB5DA7
:102290002212131FF11AB23CFD18D12B312A121D44
:1022A00006C518CD15EAB4350001CA3CCEEBF34F94
:1022B000D3AD06B31CDDDB33E91408FBEAEFF067AE
:1022C000FA1408B919FB9E4F1628E86E1033DF3A4E
:1022D000EBC815C00EE2EA260C2DFA4BCADCEF4F14
:1022E000A3B8230409BFED15FE2A2528CED1F92A6B
:1022F000A22FFDC116F5DE16EFF7067F1217C152A9
:10230000D1F8FAF30CE5FE0BE203EF58CFE8E01E3C
:10231000ABD8111B0BBFFFE4CC121606D4E403F6B6
:10232000CF10E9B30F070B150EF305D7CFF0E3CCB1
:10233000A606E1B80EDE1B19E11C0FC9ACEDE1B237
:10234000ECFCF0FC20CD1BD1E07933FAFF01C2FA9E
:102350000D0A30EC111BD8F017C1D5EE17FF0D2672
:10236000DF051FC2F1F5142FF9CBC2DCD9211FF90B
:10237000BEFFFB04ECCE5114D2110418ED1BF5CABC
:10238000281914131104E4C4EFE1F037530FEC5D86
:10239000534421AD0F25A908F3AACE042836F77FB0
:1023A00054291BC610EBE318C6A7C5040532F62F47
:1023B000BE0AF923E8E4DF9FFEFEF1E01E0F0702EC
:1023C000E9FA0305021D01BE0BFFDBF4E72C031441
:1023D000CD21F8C4F71D1100F0E300FADC25071346
:1023E00001EBDC612AC3FB81014132B649FAEDDE23
:1023F0001704E26820F602A823311BCD2808E9F56E
:10240000061D0C2DF52305F518E60C04211016EC1D
:102410003BFBE40914F2F1DCDF3039BB1807DB02C7
:10242000521AF42B0515E7EE02381DE7F814CEFE1C
:1024300015171306F942DB04FBE4E5090911FCE872
:102440001E1E1207FD0406DAD91CECF502E50EDFAC
:102450001C2105FCE9F012A2E62DD7FECFDFC8E66D
:1024600003280207F60709A7D4340117CEFDC114CB
:10247000A9E4F3070B00EF4828AE360F1D16114DE7
:10248000C4CA0A0D13F8EF7819815B04600B4A4B3C
:10249000CFE0170704EB135829C10E0F6CF9361063
:1024A0002A0C00F709F61DB8EE3ED5FDFDF8F4B68E
:1024B0003219E8FA00EF01BD0B5BC1FCDAF4CDC2C2
:1024C000050EF1DD04DA0CCBF726C3EED1FDE3EA0D
:1024D0003AC1C209F3F7D7B1C9F7DDCC21EB9ECBE6
:1024E000068FAF51E7E80919F90CF3E307BDA1BD69
:1024F00032B6DD0EDB434805DA0405E2F4BCE6F152
:1025000041F8D2DA28EE13BDF6BDFE3D1E39FB239D
:10251000EFB3901114D53DDEFA0BED2FED0EB5EDB6
:10252000F38F9209DA296FEBF7FFF0FEDFD7C4D003
:10253000041A10B109FEF4DEE5C1EE1B025A2B505D
:10254000D9BEC9F300F81EC7C400CA0AF72B122867
:1025500000819CD0EA031DD0FA0CA3D6F3EAC6D5BD
:1025600012F001FEF8FFFDF5FF08081EF40504FE59
:10257000F50FCD0A5B0CCA12ED03DACB0BFA0BFD9B
:102580000FDD41099CF21C001807231905E9DE0440
:1025900000F607E1EFF514FE051B0E22F11002FD17
:1025A000DC3381096817BD19CDF8ADCA0BF82518C1
:1025B00019D8671890E340E723FA2D17FAF4DAFEEA
:1025C00001E814E102FC0C05FCFB1B09EFFEFAF527
:1025D000E711CD084304E713E3DAD2F6FBF609016D
:1025E00010EE1F05D0FE1CEB24F81CFBFC01FFF4D1
:1025F000CD10DD290BE437FB0DB207347FF90DD682
:10260000D02AE0180FE5FF2DB7D3073B23C9F5BB50
:102610000F0D00EBE51FBB0FF115F00AA9DBC84455
:10262000ED4EE20D36D0FE0AE5CB2A424DF709CD3C
:10263000334EE1E31210E32CE81709F1C3D5272A42
:10264000431BFDEABC29F9E31347CF8C9AF0D85C11
:10265000DF21F7EA20EBE7FED2E5FFDEDFF60E0230
:10266000240AFBBFF520F3171520CBC0B7F0183BA9
:102670000B09E7EDE62B19D61E19D6C411FEF8F5A5
:1026800040413E1DF72A24CD1BF6F84CF9EF0E1100
:10269000064936D4B92304EDEAE71349EEC3B7E59A
:1026A00007FB150BBC5FD5FABAB7DB0A01CEC1E94F
:1026B00035543F33F9EB40C4FB5CE92EE40D21F1C6
:1026C0000C6A3FB3C6B618A0B94E130FC7BDCACB2C
:1026D000EA2A11B9C6E314A4A74B1DDBC1A7C3BDE9
:1026E000EF0E0CD3063616290A02C235493BFA040E
:1026F000DAFF1094F4E209FED41ECF1304FDC4E502
:10270000A2DDDDADF3BFF230F11EE8C0ECCD81C13A
:10271000FBEFE5DBF7E2FCF2EEE5DE62132A1A0BD3
:10272000D4FE0681DC52D603F01AAD423255692040
:10273000BF1A3AB1DF55D3F5C716AA2A342974FA5D
:10274000F8E6B2F80E0002F91CDA22163922E3F498
:10275000C2D0DD90F152F6F62DEFED114936223957
:10276000CEF80CB9DE48DDDDCB02C81913232E2BC1
:1027700001F7CD120D04FEEE64083DF6FBE7C9F645
:10278000EDDAB8D7121B240852E90BF91FF8EC0256
:10279000EFE2BD22152F1AFD15F1E326F016E8062B
:1027A000F8FEFE0DF2D2D5E0170FF6E9EBFA2A0E8D
:1027B000F809180615A1F19B184D05F4F3E002E79E
:1027C000FE221D072DBA01C3033501EA08F2F9F410
:1027D000110A1619F188EAE6F8F6F8ECEEFC2C0975
:1027E0000810251F098111E1ED17E7F2EAF214E460
:1027F000F524171F15C810FBF40C02F40CFC06049A
:10280000FA1A0408F087F6EFF01212FCFCF7140035
:10281000E4300E00FDB0E6EFE31F12F01BEC10E316
:10282000F81813E1FD01F51310041C0238EF16022D
:10283000C429000049060000DC3A00009EC4FFFFE6
:10284000AE5100007A2C0000C0E0FFFFC45700002A
:1028500031240000181F0000F9F4FFFFFC260000DF
:1028600059040000EBDFFFFFAB4600002B11000016
:10287000A6160000F3EAFFFFC2C7FFFFCF04000067
:10288000120F0000C7E7FFFFFD0F0000141F00003C
:10289000A00C0000FC02000075670000C8050000E5
:1028A000B8150000212F00008AF9FFFFE11A00008F
:1028B000B8E02CFEEAD60F360505F70504B9251A4F
:1028C000E0E7EEE2DFCBBEE1C33037DFF4EAE7BB9F
:1028D00019ED5513C9D527D7DE04E3010503D9E265
:1028E00017D0E1E3F4CDDA0DDEF43506F1EFE102C5
:1028F0001513244902EFE9ABAE0DEADA1319C7C08C
:10290000FC2FFCE8D9051B14F2EADF0F1D00EB4594
:10291000C9C81EA2F8D7ED7F10D8FBF3F4DE462815
:10292000EDE1F5060909BF01BF2E1BCAFD41F7B550
:102930003CCF3ADCBE1A1FFC0B0A01E9020FEBE5A3
:1029400011B4FB04D70AE50109E32AF2EB4CF510B8
:10295000331B0A27A51305BEFB4CFF101139A2E457
:10296000FF130F0F011B060B5ED201081F33F42764
:10297000DFD8EEDC40CFF634DBC30DECDBE03AFB16
:10298000DDE5FFFF020DC5FBFE0B31C4E021D1DF09
:1029900042CA210634CE08DCD5E11616031FF4DA4C
:1029A00001BEF72BCC18B1EF0A04F1D8E802FD0FF5
:1029B00034E6042FD6ED1CC5F3361325283C8C04D1
:1029C0001B17F01FFA2D0F062AF1FCF7191E30FB1A
:1029D000213C20050DCFFDB4FDD1D6134430D5F3F5
:1029E00019F0EEF9E1FB11E7E2F2E152F4FEDEE963
:1029F000EF2F0F240EA2E4111BFB0DFD1DFB231E68
:102A0000C40AE730D8F82CCDF5211AEF141A29059D
:102A1000EBD4F90D08C2DE201E21EE17E2055106A7
:102A2000D6F805CEF1F61711EF2A19E7C8F7FD4CD5
:102A3000EE3F0C08341619BA00F1EDF94A23B8F844
:102A40002BF9E5FE10110203CC00AF5608ED21C9A9
:102A5000031D1F232CF02424FEF718CA2104182973
:102A6000DDF4FC01EBF3F310222647D40D30FD1FFB
:102A7000AC85F500D1F4003B14FBED13AEEB7FEC1D
:102A80009E12FAD9CCEBF605291161AAD40DC939E9
:102A9000331D160D100114E503040CFE1B1BD3E8B7
:102AA00026D90CFE1D07FD03FB08BE3014F027D30A
:102AB000261E3E17FE313217DCFD03DC29172003EA
:102AC00029C8140327F3D6241623FEF400FB0EE9CD
:102AD000C6B421FCF41625F00E19E2E9D1E037E97D
:102AE000CBF502F3F1CFF8F4FFF673BFEA0DBCF2B9
:102AF0004AD235AE9A652B0C90F5EF1DE7D6AADCCD
:102B000022D42BB128D6D4E3E1AA2BCEA1DD10909C
:102B100054CD32CBE753F2000CEEF92727FA050D1E
:102B20001EF73AFC2BD9D9E818B44AFB8B2AEAECF9
:102B30003F2709FA0321E3BC0AE3FF1826FCEBEC6C
:102B4000F4DF130E15D7052CDCE0F624D326FB04A6
:102B50002A013EEAB94C482CC805E045D8F1F918DD
:102B600038DA35D21EF4BD34EBFE47E5C414F492D6
:102B700033DE3EC8BB712D1BDFF1FB6F11D8041C87
:102B80003BF240AC76D1A81814DB76DE812506D165
:102B90000AE617CDB9610FFACD00EE4509D404D885
:102BA0002CB534D95318D51604DE6CFA9F2D28DACB
:102BB00024F92FCCE14EF1F105FA0EF4E807C20F2B
:102BC000F2B5F7DDDDFDDD06EBEB0914FF08DFC92B
:102BD00016020ED8B141F8FA1D1DF5F009F4CC2605
:102BE0000E20EAE321CCC60B1DE72E06BF1D03E332
:102BF00002EEE2D2912D01D74513F20418F0D6DF90
:102C000023B01D0AFBE8EF220CD956ECF7EE1BB1FE
:102C1000BB164ADDD73E010AEE053ACDE953180549
:102C20002C29EF7F400617198525E60D261612ADD3
:102C3000C21509D502FCFE13DCE006BD024217EF07
:102C40002BD9E4332AEBC9F2DB14F4FD43FB0993DF
:102C5000E2E913DDFF23DB34FEFF0003071FFDED78
:102C600020E1C50BFF1949132DFA03E925CC13CA3E
:102C7000CA1F162BF227CCF4FB01310E40260D02A1
:102C800023370B3E0610F0259821EC2502F722F899
:102C9000EA08E4FE1308EB2DE6D61D1C580522ECCD
:102CA000240AFF1AF5DCCB03F00113020DD5FB1546
:102CB000F40C02DF14F6E62AD2E3F1402F20E0A75D
:102CC0002FC2E8BD05D4153231ED2A1406DEEC081A
:102CD0003124B55B0A1AF804F10513D97114D6DC56
:102CE00004CEFAF5FD28141BBADA1D36DC2C0C1ABA
:102CF0002020B7352709D90BE3C428E359F801DEB2
:102D0000F0C2FCDCF80DDD210AE7020AFAEAF73529
:102D10002A2311252CEBBDFFE214EDF83E24DAB492
:102D200006AEFCC109FDC01127E518261CEBFC2AE4
:102D3000F7091AC2F53733DAB3DBDB4E111001DBCA
:102D40004EF1F40550F2D264F12842FEB7FFFBE6E3
:102D500009D805E828D2581FF23AD3CFD1F24D3620
:102D6000CFFC4B2C0BEB2106122E1DDCE055D816A8
:102D7000D501CE0111E3F62A54CB13C6FB10031282
:102D8000FD079916C8FD4FE1BE13E0FF1DE1C5E543
:102D900019285006F229FFEFB9DAE749022A040898
:102DA0005B2D25D86188E60EBA273CFFD169D8A4EF
:102DB00096B6DBF10603E173F5F71EB8D2F76A7F2A
:102DC000DDB522330BD9D9D7C7311AD6D569D9A5E4
:102DD00017040F4B60C4FD2825E501BB0925F7F357
:102DE000F212E417A83C29CCD40CBB004101E31833
:102DF000141BC32AE9DFE702EB02EE1FF130FF15D7
:102E0000F2D5F3D832E3EEE511FB2E19E10DCDF446
:102E1000E7FCEF1A24D2D317FEF3C9E0FC351517EF
:102E2000DDBDF103082AEEE411EEEEFAED14B10B6C
:102E300024FDE00A05C0FBD3D4F7CD18E521E3D18A
:102E4000F5EEFCC3D626D2EA38F5D10000D1DA433C
:102E50000EDE57E1BDF50C11CCCB5C4BFB183EF6FA
:102E6000E2EC02180CE08113FA34F6D9F0F96FCED7
:102E7000FFFF29E6B119E806E708182C240B0E0C11
:102E800042C1EF2E0FEDED12EC0BBA1115CC3BDD6C
:102E900034280B06CE21D8A5D9FA0B4E0937C8C164
:102EA00060D7DDCB085F1505C0F8CA2604C6E9D196
:102EB000D1DB07D3A22D3B48F0DD57EC05DA56F104
:102EC000CEFD2CDEF3F4C660443826DBEEF102F1D1
:102ED0001506E507F9F11D42230C3BEB33F0292BD6
:102EE00045D505EFEF10DC5EFB1DF10827E1FA1870
:102EF000522D091B00CCF59126EEFAE70C3E97C83F
:102F00003A05C1DA07330AF5B80DC53B38EDE05094
:102F1000B3CEDAADE1492E46F9D053ECB0FB50F711
:102F2000E6DC21F50B0015373112F1CDDE0A050F75
:102F30002DF113DB70F8F805EEFC15C7D70A20D386
:102F40000519F201D9FA4B29E414E5F7272AFB22E7
:102F500017F5F4EC70BA05E437F844B2DC06F2C6B3
:102F6000D133C11FDDF73AE3DD09EBF12140204FFA
:102F7000E600F3DEE6E71EB1D29FE7DFDBD9AC1552
:102F8000BDF809BF99E0F11EBACCFF02ADDEA9E29F
:102F900020E2F7F4B4EA1CB1E1E0ECC8EEA7E7E008
:102FA000A8A0EAD8BBDBE837D9CD28E781F3BB3E40
:102FB0001EDCE9F99FCF088DE4FDE50CFCC0E4FDC3
:102FC00095D9EC1FABFDEF01E6BB07ECAAFBEF0BBD
:102FD000F523F02EF83410E501D3293A2637C1172E
:102FE000240600FCF5F30CFFF2F01C20E9130FACF3
:102FF000001A1C33FB22F0EF18FC3E1D0A0EFDD90F
:10300000F3FFF7CCF9F0E41001FE2011DD49021ABC
:1030100011EEF10E10EE02EE24D62644FCE1F0C0D3
:10302000AB06EE1EB30E08D9F8FF09F5DB40EF0F33
:103030001C05F829E511ECE3E7F00C20280DB8D4C5
:1030400019ED0A071412FA0BE9E7F705EFE517D7B0
:103050001A09133DED1FF7F11F3C1119332DDEEA5C
:10306000FFEE0A053A12F921E8CC0200E80B2A1516
:10307000F6ED0D2914CCEEE013E542E008FFE8027E
:10308000DFFF0212CC3B51F9F5D4F9E7F9F1E14247
:10309000F7EA1EE1E8FC1CE010FA210E03DC150F34
:1030A0001107FD1FF0332122F7362CCD1C251721E7
:1030B000BABB16F90BFBFF03F8113AFDFDEB161432
:1030C00006FDEE32E5352EF1FD34F9A50EEE0D0CC0
:1030D000CFB72FDF0C2503FCD52C22EEEFE214E056
:1030E000020D1516001E15D60C0E13D412E91FF68C
:1030F0000BCE31F9B92B002220F70545D2F0281765
:103100001334FDF3210807102C1DFCA817120FE043
:10311000F89732F8F3F0030311050212BCFA0A0320
:103120001A25D8290B301801141AF38BF9FDED017B
:10313000D08118C509FC0316F737F3FCDDDC110C50
:10314000DE110017F72611E0060E13BAFFF8E11E94
:103150001DCF1F020827092D1019F129D0F91AF7E0
:10316000000B21EC19110AFA120506B4080703EE48
:1031700023BC29F104170EED0F080CF4CB20130922
:10318000301C00FCFA201302FA0EE9BC00E0F8FE45
:10319000F9A81CC0F41CFDDB223B0EDAC1FC0A09B5
:1031A000F028FBF10B130105EDF119C3F902DB1255
:1031B000271F2C3C2010BECCEF59E7C51D41D5D6AA
:1031C00018BED1B9234739E34AD5F912311F3A8ADB
:1031D0001E232AFD0906C3CCEAE4EFDA151FEEF838
:1031E00035C2E31AFC5741E6FDE2C6261B222DA696
:1031F0002A1631CD1EF7BCEEE10616F6232FD7D4E2
:103200000DE5D92CD85D0612C5E2BD0720EF39A91E
:103210002301490CFA24D2EAD5FEC9FAFC0AC5E218
:1032200017E4D0EDDFADBC1821C97FFD0920F5AB57
:10323000C90626EBE80BBFD9CACCBFDAD3FAD72D23
:1032400027B8B50CDCEFEBDBEDEB2D05FE21D5A8A7
:10325000BFE6E4E60CA8E70716EB13C9F30ADCD2D5
:10326000B52DDC2BCD5007CEB8E5C9E720EDFADA55
:10327000F8F3AFF7E15AE00DD30AE702DACCFEC863
:103280001E04DD18FFB7AFF3120853DDD63EF9B7C1
:10329000C7CDC3E3CF1CCD0DDBF9EBFAABE2E619EA
:1032A0000ADED40E11D8DB0B1BE63FDDF525CFD3AC
:1032B0008ACDB1DECDBCE51B161C16AAF8FFF8B10D
:1032C000C218FDDED32104B5E704C6E910101502CB
:1032D0005227033CDAFC01BD03671911C439BEC291
:1032E00011302919A44347D528DBCE403D48E56875
:1032F0005458133042EC9791C8264AF4F902FC98CE
:103300001320FC54B63629CC21FDB931230DDE1A29
:10331000DC041E1EE902F1DCCA1A3EC61010460883
:10332000EF03DD6CF6FEB9FD0F2EE1FEF4EB40A1DC
:103330003E23F840D71B30FB2227D07FDCFBC92D72
:10334000221525DA0FE9FBE01DD935441570116609
:10335000455C154736E0BC8A1329EE5B0E24C9FA9A
:103360000C5BB5FD01F520ED22D4FC422314D160A5
:10337000D51205002825F1EF2700FB0E0CE43D31A6
:10338000FF3BE14834D90140063AF402F90D1F1918
:1033900044F7DB2FEB1BF60BFD8EDC60E9C1D2F8A6
:1033A000EEC1EEF707EFD2D90504210CDF31E44777
:1033B0007B23022DF2E6EFC4EDF405DC2314BC44BC
:1033C00023D7E9E0262FF4300100CE1BF203E016EC
:1033D00017F203D3EA05F1F2FDEDEFA914D8332279
:1033E000FBC9CA0033E6DD24050ACCEEDAD40802B4
:1033F000E2F4F4D90E0400F0F4F300F208D8060861
:10340000D7E7E7E6D9DEFF06250FE7F9D53008262E
:10341000E0CED1D81DDFFC1FCFE6FEF5FCE72D374F
:10342000BBFEF5F3DBF6F2EF3C1114CFCE4122EAFE
:1034300005E5FFF2D402FE10EFBDF1EFDBF10EE780
:10344000E002C9E7E3E7EDF11FFCD3FDCFF8280761
:103450008EB2D13918FCFA1C32D916D6D4BD16D08A
:10346000CE45DA55FD163EECE201158531DFFCF95B
:10347000D783ED1BE3022D1D1C242F33DDC64F2DFA
:10348000E2390A044817130DBD195581F512F0A849
:1034900028BDFFF2AA4549E9F70AE128E3D3F3DFA3
:1034A0002D0CF9AE2EDEEE11C8F955E5E9F4E8EF82
:1034B0001528F01BDF08F9D520440ECC3B09EED7C8
:1034C0002521E0251415E3242104B72D2B31E6FE38
:1034D000403A3621110F16F9EFDD42D721171AE1D4
:1034E00036A4F0341F08CD352F15E138291EC7E466
:1034F0004F311E082F120DEAF8061AEA350EC9C21E
:103500003AEAF11A1AF73AFD41F3ED1928D5F4E138
:10351000E0E901DF2AB6BEFB464705D5DFFFD60E40
:1035200004F2BE64F3E6C2DE94A7D6C50B620404BF
:10353000DFEDB2CDB11EB102F2F4C6EA1E0CE62BED
:10354000FBF2A4F3C11201C2AF86B9D2EF72D84325
:10355000BAD2F0D2DB431226C826FA4C17F00EE995
:103560004424F2CA15D7010F82E7FA022A0FFDEAB6
:10357000090757F85EBFCCC53ED4BA0E0836A69EE2
:10358000051AE63ED7D4DD3EA1C708F50E430F4D20
:103590000F0BFD195719CBC2FB0CB755192F810919
:1035A00057D5B2DAA8D3E13FDCC7F6014A57C5497F
:1035B000E80F0CF6F52AFFCF191A2B1F302AD3DAA1
:1035C00055EBCEE235CBFC41B601261019B2C9E766
:1035D000DBF135F21F2AEFFEF6E4D500F6E5F6BF83
:1035E000190715DB07AEB432D90232DC01541237A9
:1035F0000FD419F1431FF4E5E9EA1EFD30E9030594
:103600002FC6EDD7EC17F1408907D5D4332FF64AF2
:103610001FC7F2E4F507FE0330063606311D0AF532
:10362000FDD2C72739FB1D31A907CDE914D3B0213D
:1036300015F8EA06EEE308F909090118ED09F8DFC3
:103640000013F3FEFC18090E1208FDFF17E0D22943
:10365000122BF00CEB0D0AF7D801FF08231DE1FA3D
:103660001F05071323F713FD0A18D22C3BF403D1CF
:10367000220F0F07FC04191EF713FDC90907F61DD9
:10368000010F1C1205071409DF01EDFC1F1503FDD6
:10369000FC0B09F7EBF7FB00D612F23A12F908FE21
:1036A0002A130CE1F4FE0308F007F200EEF9FAF435
:1036B000C5E3F00AFB1BDF0CEB183616FF040720EE
:1036C0001606F7F91024FA171809E3E6FE1013E4BA
:1036D000ECEEF20C0DF60D00F9092CF0F908020ED3
:1036E000FD231402E907161FFEFCCC01E6F6DE06F8
:1036F000D3DF0ED912CD0C03FCF90CEED0E111F79B
:10370000BC0401E5E6251BE4E702F0D1D21708E985
:10371000E89AEAE71EF4F52B23F6F019AEB32C0B6A
:10372000B3F423E30242F8E910FA7681A43BDB47C5
:10373000DDB1F7E4E3F1D7EF32F8E640B2D3021C93
:10374000D6EFF8DAFEF9F5051EE408E2B8D5E00D8B
:1037500047F9E623010B16150C33DAD8EBE2F0F843
:10376000EBD21FF1F1ED0E040BE33BF9FD23062B29
:1037700038EA2311FAF1E0D4F540F4C9F1EAE7F9A7
:10378000D6F6EBD1E40A1E0EFED12DE2F926E8149E
:10379000FCE14203F7D8E1CCF54FF3DAF9F1ABC71E
:1037A000B62016CAD01924DD0DB4ECEE001CE11CC5
:1037B00047D40C0808EE1B01C0333CD4CDE2E9200D
:1037C000C2D809EE0421231813FB2FCD1714E734B8
:1037D000D5BADA120606E5F90A474AAFDDD3F6157F
:1037E000AA05D01AC6293508F8D7FEB9261FD9254B
:1037F000A8C5EA01120A0A29363D3FBEE2E0E80FF9
:10380000A32BFE0AD95239D5F404DBD520221EDFC2
:10381000A2D828EE07391F49EDF834FDE8E21D7FF4
:10382000EDB70312FBD9F918BDFA18C718D4E7E5AC
:10383000ABDBCBE2BB3723271CF625F5ECE827638F
:10384000FCECEE06160227F8AA14F4EA16EC03C202
:10385000C5F9C2EB062C1A0A09EEFFF302F01D1A95
:10386000F9EA05350BFC21F5DE1DE7FEF2F400DD7B
:10387000E5E3C60246CECD3426FBE240FBD517BFBA
:10388000D1D4E507331CF6A4202000D9044C0E182F
:10389000ABFE0C06FFCD0A3421F8FDE73DF218F629
:1038A000051FD33A3E2AF5B51C29E01119D119DFBD
:1038B000102A2243D45B04D2E2E101006600C55E17
:1038C0003FE8EFF43C15FC0C10FB0221FCF851EB37
:1038D00037D6EDF16EDC2A2903FA0AFBDABB4DCFAD
:1038E000B50E1DE0E6C20DE20C2B56C8E97FF82E9E
:1038F000FBEDD3452B0109022D131005230632E001
:10390000E4000E042F0622D6261EFDF01D09F13E0E
:10391000130E1240DE3EE6BAD6FD21101D1EBA245B
:103920004EC30DE853031C35EDF4000DE9BAEDFC70
:10393000DBF1C5EA140E262516E107F4CBFF2CF5C2
:1039400001C30F0CE81B25162205F7E6030CF0FC5B
:1039500007F1CB41ED05180417061BCDEC0EF7E17E
:10396000FED22317F0293D1401EAFDEE1F2FE228B5
:103970001AF9FB24BF16F6D1EA4C3A100618D63BCA
:10398000F2C5320B21033B1C2CD1FCFFFDF9E608EC
:10399000160EF1CFFA1FCCE7FA06C8DE211CEACAE0
:1039A0000CD50724FFEBBDE5F916E100FA2833E456
:1039B0002217FD1B09FEFE290604D9C54624F6D1AF
:1039C000082020031BF1C7E00F171F0C122C510019
:1039D000330F00F4FCFE161305FFD8F52120E30990
:1039E00017FCFAC1FCE417EFFC01FB0CED2D1EEDFA
:1039F0000B10F80BCF00D9E20219DD06302CCDDA1E
:103A0000FCECDE1D022C07B804D7B9082835F505F3
:103A1000FB0F072DFDFDF9170E0C0B0D3821FACD0C
:103A2000FE4426FFFFDBE3D604EF0D042233EA1B3E
:103A300016010214F6E726011DF4F01E0B0E12F813
:103A40000DDBFCAEEC05F9B4F7FCDF140C3DFB1FFD
:103A5000D909DD09B9D8E7E307F3ED4A4D2CF3277F
:103A6000001FD132E7FAF2AB0C02EE0A23F2083C57
:103A7000BF0DED23FBE2DB0A29F9FB65352D1BE4C5
:103A8000EA5717F6F9DAB9A935175702F721EE56B2
:103A9000E80AF126EFE507F61BE3D965011018DD0A
:103AA000F80323C505D6CF9C1F2E2E0FE828EA7FEA
:103AB000BA0DE11A79DEDEE71C152AF504E736F0C7
:103AC000D11A1DFCB71309CA0108C20CFAEDECF9B2
:103AD000C6F2CA3D39B9FD01020C14D4F1C9180768
:103AE0008120F90689280FBB04040CC405FCE906F3
:103AF000C0C0A915359CE006130007CDE8DD1AD833
:103B00008E22D548BB0D20CDE3E3DDD10ECF040FCF
:103B1000C3E1D81764C5C9F31E0720E5E4AF24B29A
:103B20009432F416B41C619CEBCAB3E4FDF80008AF
:103B3000B8E6B4102CC2DAE8251C12FCE79F1E057B
:103B4000AE4AD91FA52B46AAF6E2D8DA36FEF4040F
:103B5000C7F2CF0B0CBCED241BF22BFDF8F0F30FDA
:103B6000D46DD828D1295FDBF0E8D0F23200F2FD25
:103B7000E0E9DF190DCBD2E920ED1806E5CA1CC239
:103B8000D02CDD18B30240AADBE3DBEA080BFB16FE
:103B900008DECAFCEEF9D9CF1F1E0AFB01D7E403E9
:103BA000BC25DC00BE161EE3DDE6D5FA2A1ADB24AE
:103BB000F109DBECD708EFFF240E2BF406EEB6F587
:103BC000F307DD02FE0F2920EAD8B2F9230CDCCA84
:103BD0002F10D012A500F7F11DEEEA142821DECC3B
:103BE0003BF3E4EF03BB59D94AE9C80F19FDB75EAF
:103BF000E907F1F1FAF51C1306E90D2B121A081961
:103C00002E363CEA400E19E20816E6ED0713CBE724
:103C1000E3CBFDBE0DFF1E2C089BF61BEBE740FC23
:103C2000F7EB24B13DEF13FDE840EBE2D200DAEC14
:103C30001123EE02C7FC00EA063D04082713B9D59C
:103C4000541AC92030DE6DE60416DB08313C28EE3C
:103C5000E6E9FF00ACE0D2F7FAE230F409211E10E9
:103C6000E6181B1522104213DC04FDCDFE3BA1BC5F
:103C7000EAD81ED1C6100A20D7812AF90FD14AF3FB
:103C80000FD133E6FD194E1EF20D12E9000DC3F2FD
:103C9000FF11E321EA1A02081311C43ED6DAE6ED59
:103CA0002FE8E40B42C66E02F62EEC17F031F8FF57
:103CB000EDF00805EA03D3FAEE3C00E0BCF6FF0F96
:103CC0000EE5F7E8F1FB2BF1C4F421F7DE4CBCF76D
:103CD00025FB34D41224DD1CBAE9F6B2FEDB19CB85
:103CE00009A9ED06D00F24F8F1030006C1D8E802B7
:103CF000D823EA2711111C001AD62AF5470C08CC44
:103D00003402EBDD510BF116F51EEB21470202CB1D
:103D1000FA133D0CFDFDF63E54D60A043905FBF9B5
:103D200013F8FADA520FD20B11FAF419111E0BC163
:103D30004D152103E32C140A1D0BFED42B0CE3E8D4
:103D400018ECFB0D0D02DD2CEFF8E312F63110FA42
:103D5000D8180C273409270CF6D613CB2BFC3ADCE9
:103D600023AF05E538D9B9FA0F2915250A07C0018F
:103D7000E61532E00E0103322D81E6EEE8E014FA9A
:103D800003FDE80307F593F53F0B0026151FB80860
:103D9000140C1611E8F91513FF95E5E9FDEAFED2BA
:103DA000EFD5F813CF0CF2FB0F11E90D0029F6ED5A
:103DB000AEFB1EC514F4F314CE9714EAB6DA52F52E
:103DC00004CF104D1BE1BBDBDC263B01CF0BD0C683
:103DD000E10D29FD0D07131AEA9CEBF5B8E8301B3D
:103DE000FE11063CF4FCBBB808152E131109B6DF12
:103DF000AE182515DCFA16F7F6ADE2FBEBD73A0361
:103E0000E1DB042FD5EDC7C11729200DEF24CBC866
:103E1000B9EBB0F84BD3F33D5FE918E9F100441D6D
:103E2000D117FB7C19E540F5E940DAE23DF329FFC3
:103E3000D2DFEB8E073C1E4227CC0936D4EC5A7FEA
:103E4000080C070C75F12302F94CCACBC7F906C65A
:103E50005BEBFFD2AD69062BD1F0E3710623FA0FBD
:103E60004CB302DD5CC3B806E4132405C1E704BD0E
:103E7000010BE82830AFE80B3BF803BF4E32EF1DD3
:103E8000D3F92506B0F229DEC4EA0FFB0BED3605A7
:103E9000F9D1EE9915ACD028EEF3B6F9C711156833
:103EA000DAD535F1EA0117BFEFFA06D5ECDAFA08F0
:103EB0002009F5EADD14D4E902FEDC1CCE1CC9FCA5
:103EC000559417C00CDAC6F6B2F1BF18E4C5360037
:103ED0001701FA0C1CECF60EE1F4B6EBFE28C1E576
:103EE000F3C10A8ED1CCF423EEE21E07CE27F1F007
:103EF0000BE21BFC0CC6BCE7E92FC9F8D800D5269D
:103F0000BDF5DCB8CAE7E910CAC136DBEB00C3F87F
:103F1000FBF3E7462FB8E7033624FAE9D32CE01980
:103F2000E80F021FE702FC16C8E7BE07EF041BF804
:103F3000130B32260408F4EF12E800D02C1F02C63F
:103F4000EEDCE9F2F7FFDFFEFBF2130208E2F0EA33
:103F5000EF05BF30EFE4EC07460112E61A3E15F715
:103F60002CFE1B26193AD1FB2B05CFF12CFACE15CE
:103F700005EFDDF0EFF6FA101CAC06020AF709FABD
:103F800004F9FB11E8EED41EE51634FED7FAD9F594
:103F900037182228E42126F6DC0115141A3B2304E5
:103FA0003D0CF2C142D7C634210F111B39DE051A70
:103FB000FC2EF02207E1281F5514EDDD2822EAF738
:103FC000251312E0112DF4CC0B19C327520ADE3849
:103FD0001417E3E13817E7022EB909111C3C21F54B
:103FE00034D0071FFA3B0809BE01D2133A09E9127F
:103FF00012F71DECB30B32EBCCF12B58FA06E403AD
:1040000049F71AF32DD4DA44D0120CF008FBF3224E
:1040100007ED2A0E12EE330D05DC19F2010107F24D
:10402000250210E31AEA1D15E415FF094BDF3221C2
:10403000EE071FF37FEDFDED0CF239D725F0F4D735
:10404000E106FF35F40F12EF1C00D3FC3CF312E342
:10405000CCF8A02620F5DB5725015B0A00F80823E1
:10406000FC3302085831EFDCBEEE1AEC2608D4E52A
:1040700006D5F2DDE0EAFC2807DA2645D2E222493D
:10408000265334FA4026E820D6F32DFC03E200F351
:104090001B002BCAFCE00D11F4D81E1EC5E7E98DEC
:1040A000F02A2AE9171A360400FAF0FEF51B1CDD87
:1040B000B1FDE12479B0EDD915331ECAF8E904F158
:1040C000D830D619E82F3D91EDA4CA0E55EAFB3B36
:1040D0001E0712B32A04D6A2F822E532CAF6BE069B
:1040E00064FEDBE72640DB270EA01514CCCE0517B7
:1040F00021F720BC0D0BF5CBED3A000FE0DAF0C94B
:10410000F7EA0D051C06FC133AE914FBD0F826AFBC
:10411000211833E453CFE4A60FD4B0C4F8FCBFF5A4
:10412000133DBD11991029FBFED2D9211AA9CA212C
:1041300040365ADF00E1F981183EA80C11028906C9
:104140002EFFE40AF7D1E91A25DE1321D9ECD504B4
:10415000F5F51FBCEE06D7B0370DF2DDDBEBEC0357
:1041600003BCEEE305CBC80724D535FDCC04D7E36B
:1041700045C812E7B7D2EF4D14D8EE42DAD92B1E5C
:10418000E6B71DE2CFBE16ECFFF55DDAC02F04EFF7
:1041900065F7501CE11ADFEE03DFDD22F2FB0DE8CC
:1041A000D6CB1BBBE5AED41848E44028CE1AFF4F4F
:1041B000EA546229E219F3E9D8F1CDFDE02EF7F6D1
:1041C0002E23C1DD01AECF1E22FCD5420503EEAA8F
:1041D00009D005D9E1C8F72634D6BE2AD0B252F3A9
:1041E000E396FBC6EED7E2C71BFA67A5E3F70BCA57
:1041F000CDCD24F5D7F40022F7C5B721D9C119EAEE
:10420000F1E209F5CBE8E7CE79011008DCF6FD0212
:10421000ED5962241902C2EA11D7BEFB1F13CAC9A5
:10422000492AB42311F1EAE90FEE814B3BBD0FAAF5
:10423000D600441DFC091013FDE2BC270CE82C0B32
:104240001B11FCDDB7DADBCD33F4E6130CD435D229
:104250009F190E2A09DB1F170D2ED2BE10FEF5097D
:10426000F82AFC1EAD2C5BE9D604BF2816FB1DC93D
:10427000181B2C1938DB1422090602DA4BFEDAD59A
:10428000074E204CFDDD24EFECF38D0822DE2AC51D
:10429000F003F3F9000A3C1FCC2D25E02A08104C4E
:1042A000FF32207F2CCE3323A12ACCF8201B6DC9EE
:1042B00022F03EF6D33D0CFF1F06FC03E3E7FA07AE
:1042C00013DAFDC817EEF822EE092A03F426EE0BE6
:1042D00024FF07ED0EEAC1C8360BB40BD9DFCEAB15
:1042E00006B9AAA5E10DBE0454E70507EE2FBB539E
:1042F0008C06F4D6C213FB17C71758022DF91E49B6
:104300000B212C3927EB0B4EE531C7F317CF499121
:10431000FA015D06051804E519471D272F1E06D171
:10432000FF07EBA416E7190CDF18E1F40D00EC0A07
:104330000E0410101F0BFAD629FE871BDDE4DBD21A
:10434000F6FBD1B3AAE406C544E74208FD068F4652
:10435000B4EE03F2CB15E10EF6E94CCD20E815DB07
:10436000FA1639C71C3815201ACE29F409223CD573
:10437000D809EE041CD8C92425200A0623F007D941
:10438000D53101DAF32C58EE3FEDAB0A1FE63921A7
:104390003510FB052D1EE5F23CFE922FF8C700E21A
:1043A0000AFEDBABEA06FBD6C1FEE909FDF0C32835
:1043B0003E1ACD092E360128FD3FE1CE431833F6D3
:1043C00009474A0F2AE304E91D30252D0C235CED33
:1043D0006041BB0843F3E8F6CA19B300FF3CE6218D
:1043E000EB28D9092104F9CC2D02FC3617327F04C1
:1043F0002928D80328EBED11E838B0F71214D8E4D7
:10440000EB1E0C03DEF316EB1AE811131B0B630A09
:1044100004FCF70EE9F33B1ED13ABCE0EE0CFEE4DF
:104420000600593B48EF02DFEB3F3B28E8162CDF44
:10443000FF0EBC05DEFF5F038E139B13D3EBF42B43
:10444000EC2D1F3515E20C9B0641331F1C2644E35F
:10445000161EE60BE8DC361FC1FDB6E1F1FDE202F7
:10446000EF2CF403BBBE1BBBF034D7151209469DDD
:10447000FA16EC07F5BD420E9726CCD3F2F701EA07
:1044800006B65E3F2A13FD04C62A3F11E238F9053D
:10449000E7F6CAD9FEDF430CBF2FD6EBBABB10F04C
:1044A000EBD62A1B14E20CC2A21322FB283122E510
:1044B00003090AF224F4430ED1E4CEB0CBD2DAC918
:1044C00011E0EDFAE2C443C8C31DAC1826F212A9EC
:1044D000D2FAF4E3EBF6FCC2ECA3CEF8CEE0CAF2DB
:1044E000DCC6EDE5C3D9B2AEC8DFF4F8E706DF1EDF
:1044F000D80125F71FCA08F90BC2C7CAE0DEF80EBB
:10450000F39D20C605C290CDDAFE3B1AB323A3214A
:10451000040E1100ECD80DBB2CBAC5080FFC1B7F94
:10452000F9DBE1C9C80AD3DD141D1A06C83CA54B46
:10453000F506F907FFD6F203D910E9EAFD2F0723A4
:1045400003FA0F050818F9D63010E4ED1CF221F437
:104550002AF63E1828CEE81CED0DE2E2F9250D4BB7
:1045600002F43EAE22EAB902251F27EF0807D4E283
:104570006BFC320417BDF1CFFFE7D4282327456336
:10458000121706CFF118EFFE4636FF0A0029DA0AA5
:1045900004FFEF26E5D3021A06FEF5E0590FFBF003
:1045A0000803F62F330420F7F80ACAFB14C927BE04
:1045B00028E7F548E1CEE13A1BEFC8D82D0C192EBB
:1045C000050F12F43200E8D5F1FA19DDE9E106B67B
:1045D00046EDF016DE02E2000BF4D21D3E124072F0
:1045E00022EE111413DDFFE7021EE704FD0807B2F7
:1045F0002B1DE30B4F18C9E82BFBF7E03603EB123A
:1046000000DAE943FAFE00EE02C50414CA1E3F06B2
:104610003F04F20B110E000E40F4F10D0ECDF9F136
:1046200000E918C6EE1804D228F1FA0AF5F1012AB9
:104630002113D5FDC9FCE82BE5D7D629F102010CE1
:10464000FC1409DDE91EE6CD2CEF000DFD020E6C19
:10465000B41A2FEADB690BFD0EE8F4022C12F331D9
:1046600008F7D9FF5B0D081314FD0520E72E3D0D5B
:10467000C40553B2D209086326E31002FAF3D949FC
:1046800026072CEA65480A0D35FD3319DF50EDE4A5
:10469000CC1708CD55C1E33321AEF401B7F1D132C7
:1046A000DF171523F456F5FA2DE60F133649F31AE2
:1046B000130556FEFB1ADEA8EC043D22D1161C138E
:1046C000DDF2E73B3E0117E210130602FC1311EE88
:1046D000F6057FA43644D0D9C3C90FEFA0C5F7179C
:1046E0000BDDAC0D38F6CADCE411020803389B97E9
:1046F0001B0C06B6FF0CE2F0FD06021BB9D0FDEC68
:1047000001ECD93737DF100CDDFEBEFB0924D59F45
:104710009D2401F900E82A09EC2FDDCD08F43C5472
:10472000CE010E0A1FC7EC0CCD781E3CBD4313EA28
:10473000F932F9B3EBE33118D624F4CBDBDE1B01FD
:10474000E4FA1403DECD07F2EC4BFA51D44FFC0728
:10475000104EF6E2B8D00DE2B5300CD814EA1616B9
:10476000DCB5EFE4EDE23A01A94DFF36D63210CBCD
:104770001FF3ED15EA22E539124B1512C7AC2D6770
:10478000B75DBCB31F20F9E4F55DDA0EF73CAE056A
:104790002B08A61101EFC42FD541BF2592E7370D95
:1047A000DC2496B2110DF1CA223FFA35C74EE1184A
:1047B000E15FEEFCD6CD0207E960DD24FAD655E3D1
:1047C00009B9CAE6E334E9F1F07F2A39EE1C15E8AD
:1047D00029024617FC303623F62D052A4DF21A41E0
:1047E000D92F1595E725B117122ABC1EEC28C41F36
:1047F000123D01EBD713182EC00C340150E832647F
:10480000B2303CE2BC0B15053616C93BDE31F35421
:10481000F73EFBE61AF8E6E0D0082B0E34DE54E54E
:10482000DE230D2DF1062DE71D10CA22191ED949D0
:10483000E9E70C12B7DC25E61328021D00A0DCFB1B
:10484000B90FE3CDCCF700EA811BE7EFE6E3DE55D5
:10485000FFF20EFEE10029D4ED17D11505A6F3F8FD
:10486000F2E0DBBAF60EF8DF96200C09D20FD23751
:10487000DB1235F4A81E44E3FBFAF0002ABEEC106C
:104880003B3B21F3EA0CC00DE802E00F10DBEEDB4E
:1048900002EE04073002090CFDFAFF29E2C61316E6
:1048A000DDA0FCD7CB1524CCB80EF002E0292A19E4
:1048B0003B0A1703691ADFEE152AF5EED9D00E2B45
:1048C000F281AAC2F90B09F70D17F615C64640D1B9
:1048D0002716FBE91E22F1F3FD07F2F70FEDF4F3C3
:1048E00037E1C0B90BE6DD03FF27FF11CC0DF6D889
:1048F000E0FF4AF40EFAF9000CD3EB3A1ACB16108B
:10490000EACED6F8000619E503FDFD08ABDA26C3AA
:10491000DC0D38ED5C1202E000EDDB29EBD2210466
:10492000F0B8DAEA130A3CDE30F31000B6E01EC13C
:10493000F3020A1228FAF5D0F3C3E93DD5EE0BF6DF
:104940000217E4B602E048E1060FE005E2D5FBFFFE
:1049500067041F1D0CFE2AD90B30D7A8CFFD296391
:1049600018FF22B80AE12917E13054E8F1F9C60826
:1049700020B3F4EE73EA0B15EBC4FBDFB4E82213AB
:10498000D60505FAEA8ED423310BF5BCDAF4C63924
:10499000D9ECBFEA3DE0FEEDFEDA2FF6E4F311417B
:1049A000E4FAD511D5DAF6252608EDF900EAFCFF80
:1049B000F6EB22DE240AE8F933ED1211B3F62F6C80
:1049C0002EC72E102342EFF6111E0CF4E6EE00D097
:1049D000DF0FE1EA23D3EF1A1EEE19D2DF123E55A4
:1049E0006F34FF13192FCBFFF303E701602E119BE8
:1049F00008FFFD07E70C12FF4C5016F5DBFFD9004E
:104A000070E3E0C3153EA415E4FBE7131208F0BF02
:104A1000F423181FABB7CCF335A8091DF2F1ED3B19
:104A2000FCF411F30175EFFE1DE9B43333DEFF2210
:104A3000E9400E4181FCD801240A1A321F06B6EB68
:104A4000235814C70A53F6BFE5F7AE3A4A17DDE11B
:104A500024100E26D430F41E13430AF60FF4E7B6E2
:104A600037DEFCAEF221B1E40DF8F6081ADADD3CCF
:104A70002F04EE0CF25AFDB0C718D2D00B0EE29AFA
:104A800037D601B966411E15FCEF17EDF6DB34E0B1
:104A900009DFFFFC1F29EEC600FEBB070D28EA91C7
:104AA00004EDC6F5102223EADBF81CDCF9D914DF8B
:104AB00007E709091EE70DF033E4E7EF0727F2BB2C
:104AC000C330DA0ACDF77FE3CBFDE1EF15F402FE48
:104AD0000BF9FDE10E1A2CDAE128C4E9D7E0D9D4AC
:104AE000260BCEEC173523F4F20D29DE2403F3CE8A
:104AF00016CAE9DB1D21FDB71510A106C5B501A237
:104B000033E0C0EDF04027FAF03A1BE513E7B4B903
:104B10000BF11FFBE11200D41E0CD216EDF6EDB81E
:104B200023EECF32FE2EE9DF0E17EFFB13E2E4E1B6
:104B300005FE19F6FF2D05F51114D5D0F7EF021B70
:104B40001635982FF9252CD909FEFBFC50040101DC
:104B500028010BCA191802F52506B305D9DD1DFC7D
:104B6000341C9412F60D31EB0F13F6FA11FBE1CC65
:104B700032F21804F43F16EB370FC0EEF7FBD8BD46
:104B80004BC6E0410A01FC02E81CB810CEF53BCA56
:104B9000E1F302E8380F03FD1AD9F2E2D8D42DB5BB
:104BA000FBE0F3FBE81EC8E9E8171FFFD128D0B5EA
:104BB000FF0442CB440BE8FBFCD218CAF9E11AEB24
:104BC00005D8DABDF932F1D909141915DF09D2C6B1
:104BD000131C7FD0181830E7EF182307F2FCEFD72B
:104BE00027E4CAE315081CE912FE160F05D212EDE0
:104BF000081825F230230FEAD21EFEFAEC04178EB5
:104C0000E5B328C0EF0BFC2FEF0C0F04E829D5E02B
:104C1000E61D22E24D01E3ECD60925CDD4E9ECF600
:104C2000DE0122B5F523FB1E1102021FEC3ADF085C
:104C3000EA2E2DFA09050FE8FF4E27F5EE1FC0CA30
:104C4000F91D10E00010290B25EFE11E1D16F82FAD
:104C5000001844F01D1F2905C328DAC8E811F2CD59
:104C6000EFFC3701F1D729299FF8E424F4EA1CF579
:104C7000ED1024F11D053400E62DEFCCE2FA011908
:104C8000DF1830EA15043724ADFFE00DFC030605FC
:104C9000E7142D03C80A3BDE044A26D6170D04FA92
:104CA000FD441B01050D3705B5F3B70108F51605E1
:104CB000152400000BF5FFFF881E0000DFE6FFFF54
:104CC000D50F0000C8F4FFFFF34F0000F0FEFFFF18
:104CD000FE6E0000DBC2FFFFC508000021360000A9
:104CE000AB140000E32A0000ECD2FFFF47E5FFFF12
:104CF000656E0000271500002B08000078460000B4
:104D000081C9FFFF612A0000532C000094030000BA
:104D100085FAFFFFC1190000C1E4FFFF41E6FFFF74
:104D20003449000027F8FFFF2D2E0000ED1A000087
:104D30004BF9D5E52D537F3C1E0428940FABC506D7
:104D4000D5505281FB08B4480EF72BD92E1ED972CC
:104D50007FF017EC090519D11BDEED0C051BF012D5
:104D60007F5909D5CD19EB3670D7062E372E17206F
:104D70000ED8DEE5F07F112B2CDA02C5E402E9C57E
:104D800003083ED1725907E5E8DD2A170E0B46816C
:104D9000082A47D52149E2BE04FF53817AE221CF98
:104DA000E5DC20C32357B9F0D5137F5D180041DD42
:104DB000EA633ECA9145E715F64AB4FC863A7FB5E8
:104DC0003CEB11DE08A12DA18164415B25104C1E36
:104DD000AC88B0D6D4B819E34E86E7B236A281B01B
:104DE00081121FCCDCE84FFEF535E73DB7FE45AD3F
:104DF00018200DE3E531BC0FFC81F7141E1BF206F1
:104E0000D31B0B1837CB7F04C341DB12CECE1DADB5
:104E1000D6F9076DDEF195C4815670E816E5242BAE
:104E2000171B293B1BD73DED1E1524007FFC1300EB
:104E30000D19111A07C13AF4567F5FD0EE0DF457E1
:104E40007FF60A42DAAECC202333F37904F29C38A1
:104E50002705107F1C22111D1B02D209ED0E030F26
:104E60008221AEC1F90C767F42B832CC15F1CAF975
:104E7000BD111E7F0DC6D6055ADBF9BA1223EF45C8
:104E8000E02DE0346E2D7FFE6662903CDAF02B223E
:104E9000D1D7B816E8367F0C0D6D09C3F5E8BCC450
:104EA0004A121651D13CCC390C94B67F2510F3F838
:104EB000192BDDBD3AF87F450C1E3BE45F093F43EB
:104EC0006C4A5F21F31BBBC5E2D024EB7FF5050BD9
:104ED000A8CC304251050DBF814FFAB5F33D11D832
:104EE00035F2F19D29E41D7FADAE083575F066E71A
:104EF00003E51017217FB00423EF13D6D9FF043D3B
:104F00003AFCCEE4A7DAE5E3B04AF40A81F8047A81
:104F10001536DADDCC8F8D347196A44D81705B2D02
:104F2000EF273AECB131E1EF8106FFC71A1A2C08DE
:104F30008BFFFFFF2100000028050000C2FBFFFFE0
:104F400095FEFFFFF9F5FFFF5EFFFFFF91040000F4
:104F5000AA1700003CFBFFFFECFBFFFFB6FEFFFFC4
:104F6000ABFAFFFF90FEFFFF780200006B0100002C
:104F70001201000025FDFFFF75040000230600005C
:104F800050F8FFFFBA060000D2040000D9F8FFFF76
:104F9000A3000000D20100004AF5FFFFB5FFFFFFAC
:104FA0003E030000F2F2FFFF860600003A08000010
:104FB00003C22E2BE106D30227EFE125CFE100F05B
:104FC000DE13EFE5B211D23F2D9F2A07D4CD43C4A3
:104FD0001BA6D43EC902951922F7D3E7F8F119D1DF
:104FE000E2F9E1EDC2E69D2409E51934E7DC123669
:104FF000FDB3C52CE40D9D2706E2E7E01E2D28EA4F
:1050000023DBE40FDEF3BE070DEEFE30F3F00244C7
:1050100027A435F6F5FB13275AF2C8FCD4E90FFB99
:10502000DB36DE0CB9ECD734F4A62012FA0DF9D534
:1050300019A9DF1CE402E83E5A12BFDA0AF7F1BBF5
:10504000EC21F029BCF79B19CAF0052A1600DC36C2
:10505000F9E5DA36FA0BE37F3302E9D52516F7B620
:1050600025F9033AC5E9AA0CECE3DB2B1CEFFE5152
:105070001AB63AA51CF54AFA2E39E7F3F4F9142AC0
:10508000082EB925B706B2FDC8BED4F6041EFFEE41
:1050900029A1EFC307F430184734F6F118FBFEE2FC
:1050A0000A16CF46AB04ACDFBCDDE0E8FA23F328F8
:1050B0000FDAF8F3ECFFD6312E0B2BFEFFF4EAC625
:1050C000232FD637BDF4D1F4FAD8C9EB0417044D19
:1050D00002A5DBF71AE7E1EC340E071BD0FFE69BD5
:1050E0003F27D3021318B6FE27D302B3FCEC3531A9
:1050F0001F84ECC914F1F4087700CF4EC1DCDCDF6B
:10510000E80DCE36F307D1FBF0B8F58824E43A4C2D
:105110000EED6EE71AD8FCF642F9DF2DE0FB0E101B
:10512000D31DD83CF902ECF6F9A6F6AAED00073F2C
:10513000D3CCF6E3FAFD102F2B24D549B1EBEEE8E2
:10514000D20EBB28EC118D24B50719BADF01144427
:105150000981D79F061C14383D1FC76893E6E7EE08
:10516000D6FCD569E4CCB10A8FE60BA1190E174F16
:1051700023A4FFAF10172A091E01CE3FEA24EB3308
:10518000F4DEC15AECE1E3FDC7DFEDB110FFEA3612
:10519000C8E028E706263D4507F6EEF6D5DECDA0A9
:1051A000A1FE302C06ADEA12EA2A0CECE225DE164E
:1051B000D1C0C6C50D351A39F200FB0CB10D068FF2
:1051C00004D51546008BF60D9601E1E8DE25E135A4
:1051D00002F79EE13CFA2330F5D5F3E2193E0EC703
:1051E00039D1FB3701D8160AC219E9D9FB28C8FC06
:1051F000F7F9EF0CF3F70CD3FE310108E30BEBFFEB
:105200002EF9FC1112ECDA0603F2F4FC1D0321E77F
:1052100013CBF57FD51D12C4EC061329DB34D2FE67
:10522000FFFCF801F0F0FDFACEE42FE819EDE9F00B
:1052300013BD0D5C08250BCAF6D31BFFF725E11142
:10524000EC0AF705E7071800BFDE1CD30FF7DB10E9
:10525000ECECE0F7DAEE1DD02723E3F4DFE9EAE92E
:1052600014E3D1F203EE0C10DB093FF3F404F7E290
:10527000D9C9D72AC91315EE1E13E4E3F31AFADBD2
:10528000F8E2B4C8D4B81013E4DE5AE00AF8D2F851
:10529000DDE2E025EF10240817F0D5D403050AF469
:1052A00004E5B0E5D5C11CFFE8E447D5230AEF01CA
:1052B000E1FD0FF8F0E6EF0A460600DE17F402E41F
:1052C000C605AEF1061A01F5C5193EE3CE0DE3E2BF
:1052D000B3F0F7F0CE19ED1741E0E5D41A0426E754
:1052E000D0E1B1CB04E2F430C7FF3CC8F80AEBF9D7
:1052F000D3F7E3F10920FB0F2CD4E6C6FE112201FF
:10530000F2D6C6F0EDA82233E9FC1ED6171AF5FA3C
:1053100007EA03EC0EF4F7C0460AAEF4F7D3E8F25E
:105320000D23EFF62E01E9EA354AFE082132E2FDAF
:10533000F6CAF63903F4ECD822D83CFFC6D30AFBF0
:10534000252606F43C5DE80A1610D7E41A2FDBF890
:1053500010DB290601E40DF82BCD5B06BEFA200A0E
:10536000F62913FD0B2AE50C161DCFC1FC1DEEE23C
:105370001DE612D6301AFABA1E0EB7E523FEFFBAA2
:105380000308CE0F331BDC012F2EF0194E2A06FC2A
:10539000F3CCECD32C28F99D4FFC39E317E103CD76
:1053A0001B1CCBF55773E8000AFBE9FF3F132515DB
:1053B000F7ECFBC81203EECF3D147FEAF6EF14E0E2
:1053C000090DE2F54769DBEEF4180BDF1E251C0F13
:1053D00012EF10B91A05F7DF1326EF054524EDDEAD
:1053E000E0D8F30120ECF1FDEB12ED132A0FE4EA13
:1053F000F1F8E1BA402A19B331FA2FEE2E0AE2FC95
:10540000BE02BA0E6104E211E2CD15083DEE0307BB
:10541000D411BFC22836F5D018FB47D610E5E903F2
:10542000D2E7A11F464C07EDB11821000C1DF90B66
:10543000FB02C7B763EC1AECFBFBDE2D3EFEEA195C
:10544000EA0AD4F0F51803E5022BF5D2E963F50D6D
:105450000B03D5D141EC2BE1FFE8DA4E0AC6B5EFDC
:10546000F509C2EAD0FF08DA151B0FBC0C67EC2067
:1054700029EF22C12A0033E90207FB230ED0B6FC34
:10548000DDE3CEFCDEFC16F6FBF3F4CD213309168A
:1054900019110C1D355316DE080AEBF51DE5ECEE6F
:1054A0000DD90BF6E500F8FDFE621DEAED671DEB78
:1054B000FD0AF2182A3A1CB02122DF2717DBD3D4C9
:1054C00005F5E2F7C1FE29D2FF4F0CB10F6A1701B3
:1054D000F21A0B010C0417CF1B2AEE0E0FD2DECFEF
:1054E000FBFDEB07D4F72ADDD4FDDFD10C5C21FAFC
:1054F000E51D94420B13BBBF060B08DAF6D1F1DCB5
:1055000031CD37DBF50FE7D1ECDA0BFAE95E05D8E0
:10551000E123C131E13DFEAAFF0EF8CCF7BBFDFB54
:10552000D8DE30E6D2060ABAE770E9DD097F05E584
:10553000F9380336EE23FFC80B04F1F5E0BA0FF497
:10554000D0F3350FE8011BEDD2EBDAF6166F16F14A
:10555000D8F5F3F7FB0DCD38DBB30DCCC81BDD3E22
:105560000DB42935D442FA1D4F180D4A1F1AAFFF4A
:10557000E3DD41F4F1E00429F78BD898C82ACF0580
:1055800051F42D53B753CAFD0FEC03502E45CACD2D
:10559000F8DD1316EBE464ECD5E7F2C30132CE1963
:1055A000260C2023D72A9103FC08F643075DB5DEBD
:1055B00098080F012CF1E61BDCCBFBA6160DF8F4C6
:1055C000BBD2F016F53C3F2AE9EFF13E211DE6087B
:1055D00090F20905FEAFF0FBE99BCD8BE70EEBCE19
:1055E000DF00E714EA3A1A26C9C7FB522338080538
:1055F000DDCFE20BD0D2EDE5FBE2DDBF050ED9D168
:10560000CAEFE1D8FF2DD50AD9F116192C460BF2B5
:10561000BEFF0B6200DD06F5EAF81BF004DB21FE9D
:10562000D3240C06FD314E28B9E922F1F6190901FF
:10563000C3F8D77AEF811BFD05C601C9D7EA0F145D
:10564000EE26EBD21C29552DC0E516E805041307FC
:10565000E5F3A669C7C21C022CF7F3F2EBE2170BC5
:10566000FFEAF2C1121D11FBD0CA06D2171B2D078B
:10567000C60309E7FD082EEA149C13FC1124D80D7B
:10568000E5F0FF0ED1CD06E6C2E6EB0B080AAF044B
:10569000B11BEA04FFD538BF188D1AD033F608CBFA
:1056A000E0B4DE23EAEF29BBB4C7FA1E0C03E1F92C
:1056B000E31920F6F5D645EE34E410F71EF7F9E2CB
:1056C000BFC1CDEF12FEEFF8A1F5F2181C0EFF1AC4
:1056D00015EDE20EFB1F2ECF12C913D540CDFAE215
:1056E000D2EDF047E8D735C60B00F103F306B2CC94
:1056F000D37CC543DD08358D43D2E2F175E214C891
:10570000DBD208F6FDE539A31E02FE191A1ECFD81A
:10571000D07FD350E7C515AD2F17D2F539DEE7D6C8
:10572000E5E303D007EDDEE7F5E9F21D1010D21036
:105730002618FCDEE44D13EF2601E2C91AF1132905
:10574000B812DC0EEDDF02E02125F7FDF303A4CF54
:10575000095AD42D083B08A03B08C80C42FB0CE6B4
:10576000FE06D80B03DB01D1111BF7F50327C2E3BB
:105770001034B214E0E3D3A40FFCCFF70D16EA12F5
:105780002BF5E716ECE508FCEEE5F305090BC3285D
:10579000E20B0C44ED13F80D0E081CF4F8CDF11FCC
:1057A000E5D8153BF3FB01C11B0FE6FCEA1FCEF663
:1057B00008E80D20F5211B14290B1E051DF2F8F534
:1057C000D3AB23361D44E5DEFB0FE311D32BE133CE
:1057D000690ED10F0528551468042DF913FC3414F3
:1057E0000896F44E1F21C9030102E21DD4F2E948D4
:1057F0009807233F1A1307F20D18111CE4F5DFD7A1
:10580000E0CA16433AC0D9C939FCB613F8061E5689
:10581000A5F926541A2C24FC103433EE1907BDC800
:105820000DD5602763F0E1C70213AD190620153EC0
:10583000E9FCC62C0A1C42FF382D0ED70916C206F9
:1058400038AB41395205D6EE07FDCF0502010641BE
:105850009EED553A4707E10435FF151BCD10C7EE05
:10586000C3E0102051D2DDD125DEE1EEF4EE194681
:1058700081FD363F3A14310B22F929CF0611B1EFE1
:1058800025E2442252CE06BC0DF1CCFC2A09043795
:10589000A8E7BA1F303D22FD18FA23BDF41DB10F51
:1058A0005FCD2B1939D05AF514C5EBCFFAF2030BA3
:1058B000E11B1BC415F7DF25FEDE530CF72EF44069
:1058C0003BF8ECDBE51134FD9F15EDF8EC37D31414
:1058D00006223AEE01F8E8F606D168020F420824E3
:1058E00014FCBFE5EEE730DBA317EADD0A15041F61
:1058F000121011F90BE1021C19E030FB0E32F922F3
:10590000190DE50202C312E7E3D600F60D00061CEE
:10591000E302DEE6FCFAC5BEF6D24CE3B8021A0E8C
:105920006714DDFDF4D71B21E617DE0CBF03010071
:10593000C8112507F8F1EB94D5D17FE3E91101FAFD
:105940000C03C70CFEECF517E93AEE06E5FB06186A
:10595000D8243AEAFD0320E208E246E2FD08E9E83D
:10596000EA14DD22EFE2EB1AF60BF5FB0DE10BFD7D
:10597000EDD4F1F916E0DCA918DE310AE5E4F8EF20
:1059800000E1E6F310CF140E1C0AE6F40DFC23DB55
:10599000C8DEE53222E0F09E0CFF53E8EDEDCACF01
:1059A000D8EF00F20EC8FF1C5F3500FADDE107F406
:1059B000DE241634102D13DC0F07260214E5CBEA83
:1059C00011090100EFE4051D471AF91209FB011541
:1059D000300AE6E1EAD43915C2C8DC12000502EE4D
:1059E0002EE2EDF5160A37F5FCCDF9E2DDC824DD2F
:1059F0001D2B29B3E5E22C03E7AFD83530F3FAF5D8
:105A000010E7FC0FEE0F332229DFEECAB2BA4822AC
:105A100014364ED401FC31F61BED03243705D601B4
:105A2000EE1D1215FE0D084227CDF8E6CFD82E62E6
:105A30001EEEBC0ADAF9D005DAD4B72032040EEC37
:105A400048F10402FBCB2A0BFEEA1D20FABD24C557
:105A50002D140C0BE2EBC0F700D3B72E59EB10E27C
:105A600017FC0B28E6E4342712F0F813CECC34E20E
:105A700021163113F8FEE2292201D41962E9DCF87B
:105A8000EF0C1A26FB0A1B2211DEF712EEDB0C2AA2
:105A9000EAE9DCD406FFC4F3E7EFE1071B0BF822C9
:105AA000DE0FF9DAD80CF4F4F31C0719ECE7FDFD6E
:105AB00014F7CED407D381E005F1E2FA3001E11BFF
:105AC000C7F6ECF2BAF10B2CEE0A020CC0E3E3ECE1
:105AD00015DED3ED0ADBD20E2A0ED5EE47F8C13E15
