:020000040800F2
:10000000000003208D170008ED150008EF1500080B
:10001000F1150008F3150008F5150008DD170008B4
:10002000000000000000000000000000F7150008BC
:10003000F915000800000000FB150008FD15000878
:10004000DD170008DD170008DD170008DD170008C0
:10005000DD170008DD170008DD170008DD170008B0
:10006000DD170008DD170008DD170008DD170008A0
:10007000DD170008DD170008DD170008DD17000890
:10008000DD170008DD170008DD170008DD17000880
:10009000DD170008DD170008DD170008DD17000870
:1000A000DD170008DD170008DD170008DD17000860
:1000B000DD170008DD17000801160008DD1700082D
:1000C000DD170008DD170008DD170008DD17000840
:1000D000DD170008DD170008DD170008DD17000830
:1000E000DD170008DD170008DD170008DD17000820
:1000F000DD170008DD170008DD170008DD17000810
:1001000000000000DD170008DD17000800000000F7
:1001100000000000DD170008DD170008DD170008EB
:10012000DD170008DD170008DD170008DD170008DF
:10013000DD170008DD17000800000000DD170008CB
:10014000DD170008DD1700082D5D0008DD17000829
:10015000DD170008DD170008DD170008DD170008AF
:10016000DD170008DD170008DD170008000000009B
:10017000DD17000800000000DD1700080000000087
:10018000DD170008DD170008DD170008DD1700087F
:10019000000000000000000000000000000000005F
:1001A000DD170008DD1700080D160008000000002C
:1001B000DD170008DD170008DD170008DD1700084F
:1001C000DD170008DD170008DD170008DD1700083F
:1001D000DD170008DD170008000000000000000027
:1001E000000000000000000000000000DD17000813
:1001F0000000000000000000DD1700080000000003
:10020000DD170008DD1700080000000000000000F6
:1002100000000000000000000000000000000000DE
:10022000000000000000000000000000DD170008D2
:04023000DD170008CE
:1002400010B5054C237833B9044B13B10448AFF310
:1002500000800123237010BD702C002000000000DE
:1002600090DF000808B5034B1BB103490348AFF307
:10027000008008BD00000000742C002090DF000802
:100280004B1C012B98BF70472DE9F003911C9B0874
:10029000B1F80480B1F802900A8831F802CC8044A9
:1002A000814402448444D9F80070D8F8006015688D
:1002B000DCF80040C9F80060C8F80070CCF80050C5
:1002C0001460D9F80470D8F804605568DCF804406C
:1002D000C9F80460C8F80470CCF8045054600831C0
:1002E000013BD5D1BDE8F00370474B1C012B98BFF3
:1002F00070472DE9F003911C9B08B1F80480B1F818
:1003000002900A8831F802CC00EB580800EB59093A
:1003100000EB520200EB5C0CD9F80070D8F80060DA
:100320001568DCF80040C9F80060C8F80070CCF827
:10033000005014600831013BDFD1BDE8F003704785
:1003400010F8012B11F8013B012A28BF9A42F7D07F
:10035000D01A7047034613F8012B002AFBD1181A54
:100360000138704781F0004102E000BF83F0004394
:1003700030B54FEA41044FEA430594EA050F08BF40
:1003800090EA020F1FBF54EA000C55EA020C7FEA04
:10039000645C7FEA655C00F0E2804FEA5454D4EB81
:1003A0005555B8BF6D420CDD2C4480EA020281EA4B
:1003B000030382EA000083EA010180EA020281EA83
:1003C0000303362D88BF30BD11F0004F4FEA0131D5
:1003D0004FF4801C4CEA113102D0404261EB4101E4
:1003E00013F0004F4FEA03334CEA133302D052426A
:1003F00063EB430394EA050F00F0A780A4F1010426
:10040000D5F1200E0DDB02FA0EFC22FA05F280185F
:1004100041F1000103FA0EF2801843FA05F3594145
:100420000EE0A5F120050EF1200E012A03FA0EFCC4
:1004300028BF4CF0020C43FA05F3C01851EBE371EE
:1004400001F0004507D54FF0000EDCF1000C7EEB0B
:1004500000006EEB0101B1F5801F1BD3B1F5001F49
:100460000CD349085FEA30004FEA3C0C04F1010468
:100470004FEA445212F5800F80F09A80BCF1004F91
:1004800008BF5FEA500C50F1000041EB045141EA13
:10049000050130BD5FEA4C0C404141EB0101013CDC
:1004A00028BFB1F5801FE9D291F0000F04BF0146CB
:1004B0000020B1FA81F308BF2033A3F10B03B3F19D
:1004C00020020CDA0C3208DD02F1140CC2F10C022D
:1004D00001FA0CF021FA02F10CE002F11402D8BF8B
:1004E000C2F1200C01FA02F120FA0CFCDCBF41EA57
:1004F0000C019040E41AA2BF01EB0451294330BD26
:100500006FEA04041F3C1CDA0C340EDC04F1140402
:10051000C4F1200220FA04F001FA02F340EA0300D9
:1005200021FA04F345EA030130BDC4F10C04C4F11F
:10053000200220FA02F001FA04F340EA03002946FF
:1005400030BD21FA04F0294630BD94F0000F83F449
:10055000801306BF81F480110134013D4EE77FEA2C
:10056000645C18BF7FEA655C29D094EA050F08BF78
:1005700090EA020F05D054EA000C04BF1946104659
:1005800030BD91EA030F1EBF0021002030BD5FEA9D
:10059000545C05D14000494128BF41F0004130BDC5
:1005A00014F580043CBF01F5801130BD01F0004519
:1005B00045F0FE4141F470014FF0000030BD7FEA8C
:1005C000645C1ABF194610467FEA655C1CBF0B4687
:1005D000024650EA013406BF52EA033591EA030F9E
:1005E00041F4002130BD00BF90F0000F04BF002196
:1005F000704730B54FF4806404F132044FF00005C9
:100600004FF0000150E700BF90F0000F04BF002141
:10061000704730B54FF4806404F1320410F00045A7
:1006200048BF40424FF000013EE700BF42004FEAA2
:10063000E2014FEA31014FEA02701FBF12F07F431F
:1006400093F07F4F81F06051704732F07F4208BFD6
:10065000704793F07F4F04BF41F40021704730B5DD
:100660004FF4607401F0004521F000411CE700BF29
:1006700050EA010208BF704730B54FF000050AE0AC
:1006800050EA010208BF704730B511F0004502D5AD
:10069000404261EB41014FF4806404F132045FEAAF
:1006A000915C3FF4D8AE4FF003025FEADC0C18BF58
:1006B00003325FEADC0C18BF033202EBDC02C2F14A
:1006C000200300FA03FC20FA02F001FA03FE40EADC
:1006D0000E0021FA02F11444BDE600BF70B54FF0E0
:1006E000FF0C4CF4E06C1CEA11541DBF1CEA1355BE
:1006F00094EA0C0F95EA0C0F00F0DEF82C4481EA26
:10070000030621EA4C5123EA4C5350EA013518BF45
:1007100052EA033541F4801143F4801338D0A0FB32
:1007200002CE4FF00005E1FB02E506F00042E0FBDF
:1007300003E54FF00006E1FB03569CF0000F18BFE5
:100740004EF0010EA4F1FF04B6F5007F64F540748D
:1007500004D25FEA4E0E6D4146EB060642EAC62120
:1007600041EA55514FEAC52040EA5E504FEACE2E8D
:10077000B4F1FD0C88BFBCF5E06F1ED8BEF1004F90
:1007800008BF5FEA500E50F1000041EB045170BD0C
:1007900006F0004646EA010140EA020081EA030150
:1007A000B4EB5C04C2BFD4EB0C0541EA045170BD4C
:1007B00041F480114FF0000E013C00F3AB8014F1C6
:1007C000360FDEBF002001F0004170BDC4F100040F
:1007D000203C35DA0C341BDC04F11404C4F1200590
:1007E00000FA05F320FA04F001FA05F240EA0200EB
:1007F00001F0004221F0004110EBD37021FA04F621
:1008000042EB06015EEA430E08BF20EAD37070BDDA
:10081000C4F10C04C4F1200500FA04F320FA05F039
:1008200001FA04F240EA020001F0004110EBD3703B
:1008300041F100015EEA430E08BF20EAD37070BDAB
:10084000C4F1200500FA05F24EEA020E20FA04F384
:1008500001FA05F243EA020321FA04F001F0004133
:1008600021FA04F220EA020000EBD3705EEA430EA4
:1008700008BF20EAD37070BD94F0000F0FD101F0D3
:100880000046400041EB010111F4801F08BF013C0C
:10089000F7D041EA060195F0000F18BF704703F04A
:1008A0000046520043EB030313F4801F08BF013DD1
:1008B000F7D043EA0603704794EA0C0F0CEA13558D
:1008C00018BF95EA0C0F0CD050EA410618BF52EA47
:1008D0004306D1D181EA030101F000414FF000004D
:1008E00070BD50EA410606BF1046194652EA43065B
:1008F00019D094EA0C0F02D150EA013613D195EACF
:100900000C0F05D152EA03361CBF104619460AD116
:1009100081EA030101F0004141F0FE4141F4700120
:100920004FF0000070BD41F0FE4141F4780170BD10
:1009300070B54FF0FF0C4CF4E06C1CEA11541DBF75
:100940001CEA135594EA0C0F95EA0C0F00F0A7F877
:10095000A4EB050481EA030E52EA03354FEA0131A4
:1009600000F088804FEA03334FF0805545EA1313B7
:1009700043EA12634FEA022245EA111545EA10657F
:100980004FEA00260EF000419D4208BF964244F116
:10099000FD0404F5407402D25B084FEA3202B61A35
:1009A00065EB03055B084FEA32024FF480104FF409
:1009B000002CB6EB020E75EB030E22BFB61A75467D
:1009C00040EA0C005B084FEA3202B6EB020E75EB10
:1009D000030E22BFB61A754640EA5C005B084FEA78
:1009E0003202B6EB020E75EB030E22BFB61A754645
:1009F00040EA9C005B084FEA3202B6EB020E75EB50
:100A0000030E22BFB61A754640EADC0055EA060E10
:100A100018D04FEA051545EA16754FEA06164FEA53
:100A2000C30343EA52734FEAC2025FEA1C1CC0D1FF
:100A300011F4801F0BD141EA00014FF000004FF08C
:100A4000004CB6E711F4801F04BF01430020B4F14D
:100A5000FD0C88BFBCF5E06F3FF6AFAEB5EB030C05
:100A600004BFB6EB020C5FEA500C50F1000041EB02
:100A7000045170BD0EF0004E4EEA113114EB5C04CF
:100A8000C2BFD4EB0C0541EA045170BD41F48011A2
:100A90004FF0000E013C90E645EA060E8DE60CEAAA
:100AA000135594EA0C0F08BF95EA0C0F3FF43BAFC7
:100AB00094EA0C0F0AD150EA01347FF434AF95EA7E
:100AC0000C0F7FF425AF104619462CE795EA0C0F62
:100AD00006D152EA03353FF4FDAE1046194622E72F
:100AE00050EA410618BF52EA43067FF4C5AE50EA09
:100AF00041047FF40DAF52EA43057FF4EBAE12E7F9
:100B00004FF0FF3C06E000BF4FF0010C02E000BFD9
:100B10004FF0010C4DF804CD4FEA410C7FEA6C5CBC
:100B20004FEA430C18BF7FEA6C5C1BD001B050EA5F
:100B3000410C0CBF52EA430C91EA030F02BF90EA4A
:100B4000020F0020704710F1000F91EA030F58BF09
:100B5000994208BF90422CBFD8176FEAE37040F06B
:100B6000010070474FEA410C7FEA6C5C02D150EA09
:100B7000013C07D14FEA430C7FEA6C5CD6D152EAC4
:100B8000033CD3D05DF8040B704700BF8446104689
:100B900062468C461946634600E000BF01B5FFF788
:100BA000B7FF002848BF10F1000F01BD4DF808ED58
:100BB000FFF7F4FF0CBF012000205DF808FB00BF29
:100BC0004DF808EDFFF7EAFF34BF012000205DF883
:100BD00008FB00BF4DF808EDFFF7E0FF94BF0120D0
:100BE00000205DF808FB00BF4DF808EDFFF7CEFFD1
:100BF00094BF012000205DF808FB00BF4DF808ED10
:100C0000FFF7C4FF34BF012000205DF808FB00BFE0
:100C10004FEA410C7FEA6C5C02D150EA013C0AD1F8
:100C20004FEA430C7FEA6C5C02D152EA033C02D1EA
:100C30004FF0000070474FF0010070474FEA41024B
:100C400012F5001215D211D56FF47873B3EB62521E
:100C500012D94FEAC12343F0004343EA505311F045
:100C6000004F23FA02F018BF404270474FF00000D7
:100C7000704750EA013005D111F0004008BF6FF015
:100C8000004070474FF00000704700BF53B94AB9A9
:100C9000002908BF00281CBF4FF0FF314FF0FF3084
:100CA00000F0E4B9ADF1080C6DE904CE00F03AF8BB
:100CB000DDF804E0DDE9022304B0704707EE900A96
:100CC000F5EEC07AF1EE10FA01D400F00BB8F1EEB7
:100CD000677A08B517EE900A00F004F8404261EB1D
:100CE000410108BDD0B5FFF7A1FC00220B4B064621
:100CF0000F46FFF7F3FC00F0BBF90446FFF774FC66
:100D00000022074BFFF7EAFC02460B463046394605
:100D1000FFF72CFB00F0ACF92146D0BD0000F03D00
:100D20000000F0412DE9F04F099D884604468E46AB
:100D3000002B4AD18A4217465FD9B2FA82F64EB1E9
:100D4000C6F1200301FA06FEB740B44020FA03F3CF
:100D500043EA0E0E4FEA17481FFA87FC230CBEFB2E
:100D6000F8F108FB11EE01FB0CF243EA0E439A4244
:100D700007D9FB1801F1FF3002D29A4200F25481E8
:100D800001469B1AA2B2B3FBF8F008FB103300FB3C
:100D90000CFC42EA034294450BD9BA1800F1FF3328
:100DA0002CBF01240024944502D9002C00F03F817F
:100DB000184640EA0140A2EB0C0200211DB1F240AE
:100DC0000023C5E90023BDE8F08F8B4205D90DB1A2
:100DD000C5E9000100210846F5E7B3FA83F10029CF
:100DE0004ED14345C0F01281824240F20F81084645
:100DF000002DE8D0C5E9004EE5E7002A00F0AC8000
:100E0000B2FA82F6002E40F0BB808B1A4FEA124EE7
:100E1000BCB20121020C80B2B3FBFEFC0EFB1C3302
:100E200042EA034304FB0CF29A420ED9FB180CF180
:100E3000FF382CBF4FF001094FF000099A4203D947
:100E4000B9F1000F00F0EC80C4469B1AB3FBFEF82A
:100E50000EFB183304FB08F440EA034294420BD91A
:100E6000BA1808F1FF332CBF01200020944202D9A8
:100E7000002800F0D1809846121B48EA0C409DE7FC
:100E8000C1F120068B4008FA01F400FA01F922FAB8
:100E900006F728FA06F88A401F4320FA06F3380CB2
:100EA00023431FFA87FC1C0CB8FBF0FE00FB1E88D6
:100EB00044EA08440EFB0CF8A0450ED93C190EF18B
:100EC000FF3A2CBF4FF0010B4FF0000BA04503D9A8
:100ED000BBF1000F00F0B880D646A4EB08041FFA5F
:100EE00083F8B4FBF0F300FB134403FB0CFC48EA6B
:100EF0000444A4450ED93C1903F1FF302CBF4FF038
:100F000001084FF00008A44503D9B8F1000F00F024
:100F10009F80034643EA0E40A4EB0C04A0FB02ECC6
:100F200064457346E04602D307D1F14505D2BEEBD6
:100F300002036CEB070C0138E0465DB1B9EB03022C
:100F400064EB080404FA06F622FA01F3CC401E43CF
:100F5000C5E90064002136E7B1FBF2FC010C144640
:100F600080B2964641EA08412026904640EA014375
:100F70001046B1FBF2F1A3EB080341EA0C414BE749
:100F8000B740C6F1200301FA06F221FA03F84FEA4E
:100F9000174E20FA03F3BCB2B0401343020C190CF5
:100FA00080B2B8FBFEF90EFB198841EA084109FB43
:100FB00004F8884551D9791809F1FF3C2CBF4FF04E
:100FC000010A4FF0000A884502D9BAF1000F31D06A
:100FD000A1EB0801B1FBFEF909FB04F80EFB1911A6
:100FE0009BB243EA0143434535D2FB1809F1FF3177
:100FF0002CBF4FF0010A4FF0000A4345BBD2BAF1B3
:10100000000FB8D1A9F102013B44B4E7841A68EBA0
:10101000030201209646EBE63A44A8F102082BE7CA
:10102000ACF1020C3B4410E702393B44A9E63A44D8
:101030000238BEE6A7EB0808A9F1020C4144B1FB57
:10104000FEF909FB04F8C9E7AEF1020E3C4444E79F
:10105000023B3C445EE749468DE7A1EB0801CC46E4
:10106000B1FBFEF909FB04F8B8E700BF704700BF09
:101070004A0011D212F5001211D20DD56FF4787317
:10108000B3EB62520ED44FEAC12343F0004343EA6C
:10109000505323FA02F070474FF00000704750EAB7
:1010A000013002D14FF0FF3070474FF00000704721
:1010B0008142F8B5044608D03AB181420CD28B186F
:1010C000984209D202448B4201D82046F8BD13F958
:1010D000010D02F8010DF6E7032A07D8013A11F8CD
:1010E000013B04F8013B013AF9D2EEE704F00305B5
:1010F000684200F0030001F00306121A28B9B54255
:1011000009D1204600F050F9DFE7013811F8013B22
:1011100004F8013BF2E71709CFB9160706D52046B8
:1011200051F8043B51F8044B18C00446550703D549
:1011300051F8043B44F8043B900703D531F8023BD7
:1011400024F8023BD307C0D50B782370BDE72046B7
:1011500051F8043B51F8044B51F8045B51F8046B0F
:1011600078C00446013FD7E710B594B0382200217B
:1011700006A80AF0A1FD0021182268460AF09CFD8D
:101180000021012002F0B8FE08B172B6FEE701F0BE
:10119000C3FF08B172B6FEE7012001F099FF08B164
:1011A00072B6FEE7144A6024136823F00F0343F07D
:1011B000020313600123CDE90E30CDE910034FF097
:1011C000C043129006A80694139302F017F808B1D2
:1011D00072B6FEE71F23CDE9003070230290022192
:1011E0006846CDE90333059402F01CFA08B172B6E3
:1011F000FEE714B010BD00BF0020024000B5624CF5
:1012000089B001F0BBFAFFF7AFFF1422002103A859
:101210000AF052FDD4F88C30002243F00403C4F8E5
:101220008C30D4F88C304FF4826103F004030093C7
:10123000009BD4F88C30554843F00103C4F88C303F
:10124000D4F88C30012603F001030193019BD4F8FC
:101250008C30002543F00203C4F88C30D4F88C3075
:1012600003F002030293029B01F0E0FE01224FF41F
:101270000051464801F0DAFE4FF48263434803A967
:10128000CDE90336CDE9055601F00AFE4FF40053CF
:101290003E4803A9CDE90336CDE9055501F000FE2E
:1012A000D4F888302A463343C4F88830D4F88830DC
:1012B000294633401E200393039B01F0B9FA1E20F8
:1012C00001F0E6FA01F0C8FE08B172B6FEE701F0DF
:1012D000B3FE08B172B6FEE701F0DEFE024608B1C9
:1012E00072B6FEE703232A482A49C0E90522C0E96D
:1012F00000134FF00063114603610223C0E90B2283
:101300008260C261C260426302F032FF08B172B60D
:10131000FEE74FF4E133204C204AC4E90200C4E95F
:1013200000230C23C4E90800C4E905302061A06251
:101330006066204603F0C9FF014608B172B6FEE7B9
:10134000204604F0DEF8014608B172B6FEE72046FA
:1013500004F0F7F808B172B6FEE7204604F0B6F8DC
:10136000044608B172B6FEE704F070FC01F046FADC
:101370000B4D2B68002BFCD02C6004F0C3FD012129
:10138000084601F093FEF4E7000C0340000402421B
:10139000042D0020045401409C2D00200024044012
:1013A000D88A002072B6FEE72DE9F00F32F03F0B2D
:1013B0000AD0B1E8F807A0E8F807B1E8F807BBF1F0
:1013C000400BA0E8F807F4DC12F0200F1CBFB1E8D6
:1013D000F807A0E8F80712F0100F1CBF78C978C012
:1013E00012F0080F1CBFF1E80234E0E8023412F0FA
:1013F000040F1CBF51F8043B40F8043B12F0020FED
:101400001CBF31F8023B20F8023B12F0010F1CBF59
:1014100011F8013B00F8013BBDE8F00F70470000F8
:10142000074B82B0D3F8942042F00402C3F8942012
:10143000D3F8943003F004030193019B02B070478A
:10144000000C034010B50446A6B01422002103A8E6
:101450000AF032FC7822002108A80AF02DFC22684C
:101460001D4B9A4236D14FF4000308A8089302F0AE
:10147000CDF908B1FFF796FF184B0024D3F8A82048
:10148000174842F04002C3F8A820D3F8A82003A9C7
:1014900002F040020192019AD3F88C2042F001023E
:1014A000C3F88C20D3F88C300C2203F00103029394
:1014B000029B0223CDE903230823CDE905440793CA
:1014C00001F0EEFC42202246214601F0B1F9422013
:1014D00001F0DEF926B010BD00240440000C0340EA
:1014E000000002422DE9F0410646A4B07822002116
:1014F00006A80AF0E1FB3268354B9A4264D14FF4FA
:10150000802306A8069302F081F908B1FFF74AFF8D
:10151000304C22689AB9304B5A20D3F8A41041F4C9
:101520000011C3F8A410D3F8A430114603F400133B
:101530000093009B01F07CF95A2001F0A9F923687F
:1015400000250133012723604FF00D0802242348B2
:1015500001A9CDE90144CDE90375CDF8148001F06E
:101560009FFC4FF440731E4801A9CDE90134CDE939
:101570000375CDF8148001F093FC2423194C1A4A0A
:101580004FF48031C4E900234FF40023C4E9053748
:101590004FF480032046C4E90255C4E90713C4E9A7
:1015A0000977C4E90B552561656301F0C9F908B1F4
:1015B000FFF7F8FE10210B48C6F88440E66501F0FD
:1015C000EBFB08B1FFF7EEFE24B0BDE8F08100BFF1
:1015D00004540140302E0020000C03400008024259
:1015E000000002428C2C0020D0000240FEE7FEE703
:1015F000FEE7FEE7FEE770477047704701F0DAB894
:10160000014801F00ABB00BF8C2C0020014802F009
:101610008BBF00BF042D00200120704708B50AF0E1
:1016200009FC162303604FF0FF3008BD08B50AF02F
:1016300001FC16230360FEE770B50D4614460E4606
:10164000731B9C4201DC204670BDAFF3008006F89E
:10165000010BF5E770B50D4614460E46731B9C4210
:1016600001DC204670BD16F8010BAFF30080F5E7F2
:101670004FF0FF3070474FF4005300204B6070472D
:1016800001207047002070470B4A0346116810B5CF
:1016900009B90A491160106809490A4C0344091B39
:1016A0008B4206D90AF0C6FB0C2303604FF0FF30D3
:1016B00010BD1360FCE700BF342E002018C50020C9
:1016C0000000032000080000104A82B0D2F88830E1
:1016D00043F47003C2F888300D4B1A6822F00402FC
:1016E0001A601A6842F001021A60D3F8942803F5D0
:1016F000006342F00402C3F89420D3F8943003F05E
:1017000004030193019B02B0704700BF00ED00E0AD
:10171000000403406FF48871164AD36903F00C0388
:10172000194111F0010F14491FD003BB936818022F
:1017300014D5124A124832EA230228BF0246C3F3E4
:1017400041730A600A6822FA03F30A4A0D48126AD2
:1017500002F00F02825CD3400B607047084B0B60B5
:10176000D2F81431C3F30133ECE7074BEDE74FF048
:10177000FF33EAE7000C03400000002000D8B80562
:1017800000366E01D8DF00080024F400DFF834D002
:10179000FFF79AFF002103E00B4B5B5843500431E5
:1017A0000A480B4B42189A42F6D30A4A02E0002339
:1017B00042F8043B084B9A42F9D30AF041FBFFF789
:1017C0001DFDFEE700000320B08F0308000000208D
:1017D000702C0020702C002018C50020FEE70000AF
:1017E000DFED067A12B9C3ED007A7047F0EC016ABA
:1017F000B1EC017A013AE6EE877AF3E700000000E7
:10180000083002B9704750ED017A10ED027A67EEA8
:10181000A77AE7EE077A013AE1EC017AF0E72DE9E1
:10182000F04780460846B8F80070D8F8042001EB6D
:1018300087092DED028B06464B4694467908FF0832
:1018400000EB810509EB810402EB0717BC4506F1AB
:10185000100605F1100504F1100403F110030FD177
:101860008CB22146022300F037FBBDEC028B2146EF
:101870004846D8F804200223BDE8F04700F02CBB0E
:1018800013ED040A16ED047A53ED030A56ED033AFC
:1018900037EE008A53ED011A14ED044A54ED034A61
:1018A00013ED021A55ED032A15ED023A55ED016AC2
:1018B00054ED025A14ED016A56ED027A15ED042A30
:1018C00006ED048A33EEA08A16ED015A06ED038A6E
:1018D00037EE818A06ED028A35EE218A35EE615AAD
:1018E00072EE041A06ED018A45ED041A72EEA41A8E
:1018F00045ED031A73EE251A45ED021A76EE861AA7
:1019000045ED011A75EEC35A73EEE03A9CED013ACB
:1019100074EEE24A36EE666A37EE407ADCED006A33
:1019200063EE832AE7EE262A23EE477A34EE424A14
:10193000A3EEA67A03ED037A24EE267A66EEE46A35
:10194000A4EE837AE4EE036A43ED042A44ED046ACC
:1019500004ED037A0CF1100C1CED027A5CED016AC7
:1019600077EEC17A65EE264AE7EE874A66EEE77AB9
:10197000E5EE077A43ED024A43ED017A65EE877A98
:1019800027EE467AE6EE267AA5EEA67A44ED017AAF
:1019900004ED027A5AE72DE9F04F8346BBF8003098
:1019A000D1ED007A5B0801EBC30595ED007AD1ED2E
:1019B000015A37EE876A77EEC77A95ED017A01EB27
:1019C000830675EE876A75EEC75A96ED007A05EBC9
:1019D0008304D4ED004A37EE065A2DED048B35EE24
:1019E000245A8BB0D6ED013A94ED014ADBF804207D
:1019F00081ED005A96ED015A94ED013A36EE855A82
:101A000035EE035A81ED015A33EEA75A35EE445AAA
:101A100036EE476A86ED005A76EEE36A35EEC75A2F
:101A200077EEE37A37EE257A35EE245A36EE646A9D
:101A300076EEC46A77EE847A37EE647A03925A08B7
:101A40000992039A86ED015A08320692039A85EDAF
:101A5000006A10320792039AC5ED016A1832C4ED8C
:101A6000007A84ED017AA4F1040808925A08023A37
:101A700008EB830352080093DDE906A30293089B59
:101A800004920193049B084601F1100EA6F104098B
:101A90002F1F06F1100105F1100C04F110021CEDCE
:101AA000027A5CED013A5EED024A1EED016A51EDEB
:101AB000025A11ED012A74EEC77A36EE635A74EEBB
:101AC000874A36EE236A12ED024A52ED012A35EEBC
:101AD000653A72EE276A34EEE57A35EE855A76EE8F
:101AE000423A77EEC27A75EEA45A0593009B76EEE1
:101AF000E26A083B0093029B33EE043A10330293F0
:101B0000019B37EE447A18330193059B73EEE23A5A
:101B100077EEA27A35EE445A75EE845AA9F1080997
:101B2000083FA8F108080AF1080A0EF1080E08316A
:101B30000CF1080C0832002B73D1049B069FDA00CD
:101B400002F1080300EB030ACAED005A06EB030E8C
:101B5000DEED015A05EB0308234436EE256AD3ED8A
:101B6000015A36EE256A17448AED016AB946D9ED65
:101B7000014AD9ED005A24EE836AA5EEA66A66EE04
:101B8000E46AE5EE836A8EED006ACEED016A079F96
:101B9000049A049907EB021CDCED015A9CED006AE3
:101BA00065EEA36AE6EE076A27EE657A1827A6EEC9
:101BB000237A089A88ED017A07FB0127C8ED006AAD
:101BC00097ED016AD7ED006A26EE057AA6EEA77AB0
:101BD00067EEC67AE6EE857ABDF8247083ED007A6A
:101BE000C3ED017A3946039A042300F075F93946AA
:101BF0003046DBF80420042300F06EF9394628460D
:101C0000DBF80420042300F067F90423394620465A
:101C1000DBF804200BB0BDEC048BBDE8F04F00F006
:101C20005BB94EED045A51ED035A36EE256A52ED7A
:101C3000035A36EE256A0EED036A98ED016A99EDB6
:101C4000012AD9ED024A72EE065A32EE462A98ED82
:101C5000026A009B34EE869A93ED028A74EEC64ABD
:101C600097ED026A76EE482A39EE461A36EE096A90
:101C700036EE086A93ED014AD7ED018A89ED026AD2
:101C800097ED016A75EEE81A75EE865A93ED016AD2
:101C900075EE865A74EEE80AC9ED015A70EE840AB0
:101CA0005AED015A71EEC41A34EE684A1AED026A0E
:101CB00034EE644A65EE834AE6EE264A66EEE56A4D
:101CC00032EE820AE6EE036A41ED036A60EE866A4E
:101CD00026EE406AE0EE256AA0EEA56A41ED044AD0
:101CE00087ED026AC7ED016A029B31EE481A53ED97
:101CF000036A13ED046A66EEA35AE6EE075A27EE6E
:101D0000667AA6EE237A0CED037A21EE267A66EE49
:101D1000E16AA1EEC67AE1EE466A4CED045AC8EDDE
:101D2000026A88ED017A019B72EEC22A13ED067AEF
:101D300053ED056A26EE856AA7EE276A67EEE67A16
:101D4000E7EE057A42ED037A64EE077A27EE627ACF
:101D5000E2EEA67AA4EE267A009B02ED046A83EDF9
:101D6000027AC3ED017A059B013B98E6012A2DE931
:101D7000F04106460C461746984605883ED0B5F514
:101D8000807F49D026D8402D31D01CD8102D1CD0B2
:101D9000202D41D0B8F1000F04D02046B268B1899F
:101DA000FEF76EFA012F0CD107EE905AF7EE006A9B
:101DB000F8EE677A002386EEA77AAB4204F10804B6
:101DC0002FD3BDE8F081802DE4D121463046FFF7C6
:101DD00026FDDFE7B5F5006F1ED005D8B5F5007F0D
:101DE00005D0B5F5806FEFE7B5F5805FD2D101235F
:101DF00029462046726800F06FF8CBE700230A1DE1
:101E0000AB4202F10802BAD252ED027AF1EE677AE1
:101E1000013342ED027AF3E721463046FFF7BBFD7E
:101E2000B8E754ED027A67EE877A44ED027A54ED12
:101E3000017A67EEC77A013344ED017ABDE700000D
:101E40000023B1F5807F018043602AD00DD840295E
:101E500029D006D810292AD0202926D04FF0FF30CB
:101E600070478029FAD1134B0FE0B1F5006F14D001
:101E700007D8B1F5007F12D0B1F5806FEED10E4BCF
:101E800003E0B1F5805FE9D10C4B9A8982819A68B1
:101E90005B688260436000207047094BF5E7094B9F
:101EA000F3E7094BF1E7094BEFE7094BEDE7094B86
:101EB000EBE700BF10B40208E0B30208C0B30208A9
:101EC000D0B30208F0B3020800B4020820B402083C
:101ED00030B4020840B402082DE9F04F2DED108B0C
:101EE000DFEDB17A8DB002910B9203930191019BCA
:101EF0004FF0000AD908CA0008926FF0170202FBDF
:101F000001F928224A4307920A010692302200EB87
:101F1000411C4A430CEB090707EB411606EB090588
:101F200005EB4114059204EB0902009238224A4362
:101F30000492009ADB004FEA411B02EB411800F1CA
:101F4000040EDCED006A1EED016AD7ED005A36EE94
:101F5000267A36EE666AD6ED006A009AD8ED003A27
:101F600092ED003A35EEA65A35EEE64AD4ED005A27
:101F7000D5ED006A76EEA54A76EEE56A73EE235A51
:101F800077EE641A35EE652A37EE247A75EE255A17
:101F900037EE255A37EE657A0EED015A8CED007A50
:101FA0009CED017A9EED005AD6ED014A75EE075A76
:101FB00035EE475A97ED017A33EE633A77EE242AED
:101FC000D4ED013A37EE647AD5ED014A98ED011A65
:101FD00074EEA30A74EEE34AD2ED013A33EE810ABD
:101FE00073EEC13A35EEE01A75EEA05A72EEC00AF1
:101FF00072EE802A35EEA20A75EEE25A8EED000AE4
:10200000CCED015A71EEA05A71EEE01AC5ED005AFE
:1020100071EE425A32EE012AC4ED001AC5ED015AA2
:1020200084ED012A74EE035A34EE432AB0EE664A78
:1020300077EE632AA5EEE74A37EE237AE5EEA76A44
:10204000B0EE453AF0EE455AB0EE645AA2EEE73AE9
:10205000E2EEA75AF0EE463AA7EE275AA2EE276A1A
:10206000F0EE642AE2EE673AE7EE672A36EE057A8A
:1020700036EE456A87ED007A33EEA27A88ED006A83
:1020800073EEE23A86ED007A35EEE67AC2ED003A7A
:1020900076EEA56A87ED017A33EE447A34EE034A90
:1020A000C8ED016A86ED017A82ED014A019A9C44ED
:1020B0009244009A1F441A440092029A1E445245C8
:1020C0001D441C4498449E443FF63BAF072940F210
:1020D00074810BEB00020992089A012402440892D1
:1020E000079A02440792069A02440692059A02440D
:1020F0000592A0EB09020A92049A0244049200227B
:102100003026A346039D00EBC40A2A440B9D05EB31
:10211000C20595ED002A05EBC20595ED000A05EB19
:10212000C20595ED005A05EBC205D5ED008A05EB19
:10213000C20595ED004A05EBC20595ED001A05EBC9
:10214000C20506FB125695ED003AD5ED012A099D10
:10215000D6ED011A05EBC409089D06EBC20605EB96
:10216000C408079D96ED018A05EBC40E069D06EB9B
:10217000C20605EBC40C059DD6ED014A06EBC2066E
:1021800096ED019A05EBC40706EBC2060A9DD6ED53
:10219000013A06EBC206D6ED010A05EBC406049D22
:1021A00005EBC405009501E0F304353F99ED006AA5
:1021B000DEED005A9AED007AD8ED009A009DD6ED3A
:1021C00000BAD5ED00AA9CED00AA77EE066A37EEBC
:1021D000467A39EEA56A79EEE59AD7ED005A3AEEDD
:1021E00025BA3AEE65AA7BEEAA5A7BEEEABA76EEFB
:1021F00065DA76EECBAA36EE256A76EE8B6A76EE57
:10220000865ACAED005A76EEC66ADAED015A99EDA1
:10221000016A35EE86EA35EEC6CA98ED016ADEED52
:10222000015AD5ED01EA9CED01BA96ED01DA76EEA0
:1022300065CA76EE25FAD7ED015A3BEE256A3BEEEC
:1022400065BA7DEE2E5A3EEE46FA3DEE6EDA3EEE71
:1022500006EA7FEEE5EA7FEEA55A3AEEAE6A7AEE3E
:10226000EEAA7EEE25EA3EEE65EA69EE0E5ACAED6A
:1022700001EAE8EEA65A7FEE6DEAC9ED005A66EE75
:10228000C95A68EE2E6A7DEE8FDAE0EE066AE8EE55
:102290008E5A26EE486AC9ED015ACCED006A60EE0E
:1022A000AD6AA0EE2E6AE1EE2A6A8CED016AC7EDF6
:1022B000006A6AEEE06A79EEEB5AE1EE2D6A79EE99
:1022C000AB9AF0EE47BAC7ED016A3CEE8D6A7CEE40
:1022D000CD6AE5EEE7BAA5EEA77AF0EE4CCAF0EECD
:1022E0004C5AE6EEE7CAE6EEA75AF0EE4BAAF0EE3D
:1022F0004B6AE6EE67AAE6EE276AB0EE4ADAA9EE86
:10230000A7AA37EE266AA9EEE7DA37EE667A7BEE01
:10231000EA9A7BEEAA6A75EECABA21EEABBAA2EED1
:1023200006BA26EE616A3AEE25AAA2EE2B6A88ED7D
:10233000016A22EE8A6A7CEECDAAA3EE076A88EDD6
:1023400000BA85ED006A27EE626A23EEAA7A7DEE76
:102350002C5AA4EE267AA3EE0A6A66EEE36A85EDAD
:10236000016A8EED007A24EEA57AE4EE2A6AA5EEE3
:10237000297ACEED016A86ED007A29EEE47AA5EE9F
:10238000257A86ED017A019D9A44AB44009D9944DB
:102390001D440095029D98445D459E449C441F4405
:1023A0001E443FF603AF0134A1427FF4A9AE039B64
:1023B0000191DB009BB2039399E50DB0BDEC108B4E
:1023C000BDE8F08FD1ED017A77EEA77AD1ED005A12
:1023D000B0EE006AB0EE677AF6EE006AA5EE867A95
:1023E000D5EE867A27EE267A67EEA67A038810B5B0
:1023F0004469013B04F1100001F1100401EBC30139
:1024000082ED007AC2ED017A0839103291ED034A6B
:1024100091ED027A54ED023A54ED017A50ED025AF0
:1024200050ED014A37EE635A34EE276A37EE237ACD
:1024300077EEC47AA5EE857AE4EE857AA4EE867A04
:10244000E5EEC67A27EE267A67EEA67A013B002BE8
:1024500002ED027A42ED017A00F1080002F1080271
:1024600004F10804A1F10801D0DC10BDD1ED007A1F
:1024700091ED016AF6EE006A37EE867A77EEC67A5B
:1024800027EE267A67EEA67A038810B54469013BE9
:1024900082ED007AC2ED017A04F10800083201F100
:1024A000080401EBC301002B02F1080200F108004F
:1024B00004F10804A1F1080100DC10BD91ED034A0C
:1024C00091ED027A54ED023A54ED017A50ED025A40
:1024D00050ED014A33EEC75A34EE276A37EE237ABD
:1024E00077EEC47AA5EEC57AE4EE857AA4EEC67AD4
:1024F000E5EEC67A27EE267A67EEA67A02ED027A34
:1025000042ED017A013BCEE72DE9F04105460F4649
:1025100016461C464BB1FFF7A9FF22463146284616
:10252000BDE8F0410123FFF721BC22460123FFF75C
:102530001DFC324639462846BDE8F041FFF742BF50
:1025400010B5044640B11021FFF77AFC18B92023DA
:102550002382034B636110BD4FF0FF30FBE700BFE8
:10256000E85E010810B5044640B12021FFF768FC81
:1025700018B940232382034B636110BD4FF0FF3035
:10258000FBE700BFE85D010810B5044640B14021FB
:10259000FFF756FC18B980232382034B636110BDFB
:1025A0004FF0FF30FBE700BFE85B010810B50446C1
:1025B00048B18021FFF744FC20B94FF48073238297
:1025C000024B636110BD4FF0FF30FBE7E857010895
:1025D00010B5044650B14FF48071FFF731FC20B9BB
:1025E0004FF400732382034B636110BD4FF0FF3043
:1025F000FBE700BFE84F010810B5044650B14FF4A7
:102600000071FFF71DFC20B94FF480632382034B58
:10261000636110BD4FF0FF30FBE700BFE83F0108EA
:1026200010B5044650B14FF48061FFF709FC20B9A2
:102630004FF400632382034B636110BD4FF0FF3002
:10264000FBE700BFE81F010810B5044650B14FF486
:102650000061FFF7F5FB20B94FF480532382034B51
:10266000636110BD4FF0FF30FBE700BFE8DF0008FB
:10267000B1F5007F1AD00ED8802919D006D82029AC
:1026800018D0402918D04FF0FF307047B1F5807F47
:10269000F9D10C4B09E0B1F5006F0FD0B1F5805FB7
:1026A0000ED0B1F5806FEED1074B1847074BFCE712
:1026B000074BFAE7074BF8E7074BF6E7074BF4E75A
:1026C000074BF2E7AD250008F9250008D1250008E1
:1026D00089250008412500086525000821260008F5
:1026E0004926000838B5214B05461A780AB9012059
:1026F00038BD4FF0E023186910F0040016D04FF4F5
:102700007A73B3FBF2F21A4B1868B0FBF2F000F0E8
:10271000CDF804460028EAD1024629464FF0FF30A2
:1027200000F086F8134B20461D60E1E7124BD3F80A
:10273000003103F44003B3F5800F07D0B3F5000F69
:102740000DD0002BE3D14FF4FA53DAE74FF47A734C
:10275000B3FBF2F24FF4FA43B3FBF2F0D7E74FF4D6
:102760007A73B3FBF2F24FF40043F5E70400002064
:102770000000002008000020000C03400C4A10B5A7
:102780001368032043F48073136000F03FF8FEF7F2
:10279000C1FF042000F09AF80F20FFF7A3FF0446C2
:1027A00018B9FEF73DFE204610BD0124FBE700BF2F
:1027B00000200240034A044B11681B780B4413604D
:1027C000704700BF382E002004000020014B18681D
:1027D000704700BF382E002038B50446FFF7F6FFDB
:1027E0000546631C1EBF044B1B78E418FFF7EEFF81
:1027F000431BA342FAD338BD040000204FF0E0226F
:10280000136923F0020313617047000007490302B4
:10281000CA6803F4E06322F4E0621204120C13436A
:1028200043F0BF6343F40033CB60704700ED00E03A
:10283000154B30B5DC68C4F30224C4F10703251D31
:10284000042B28BF0423062D4FF0FF3594BF00242E
:10285000033C05FA03F321EA0303A54022EA05023B
:10286000A340002843EA0203ACBF00F16040074ADE
:102870004FEA0313DBB2ABBF00F5614000F00F007D
:1028800080F80033135430BD00ED00E014ED00E09B
:10289000002807DB01234109034A00F01F008340A1
:1028A00042F82130704700BF00E100E00138B0F18C
:1028B000807F3FBF4FF0E02358610020986137BF11
:1028C0001A69012042F003021A617047042818D8DF
:1028D000DFE800F00A18261703004FF0E022136922
:1028E00043F00403136170474FF0E022136923F0B3
:1028F00004031361114AD2F8003123F44003C2F8F3
:10290000003170474FF0E022136923F00403136194
:102910000A4AD2F8003123F4400343F48003EEE77F
:102920004FF0E022136923F004031361034AD2F845
:10293000003123F4400343F40003E0E7000C0340BC
:1029400038B50446FFF742FF0546002C00F0BA8078
:10295000002394F8541084F84C30226801F0FF03EF
:1029600021B9C4E91833C4E91A332367022384F870
:102970005430536943F00603536123685A69D20700
:1029800000F195805A69216A22F443020A435A6190
:10299000E16962694F4D0A432169AB4242EA010293
:1029A000A1694D4842EA010220D04C498B421DD01A
:1029B00080318B421AD080318B4217D080318B42CC
:1029C00014D080318B4211D080318B420ED08031B7
:1029D0008B420BD080318B4208D080318B4205D0A6
:1029E000834203D001F580718B420DD1A16A013978
:1029F000090501F07C711143E26A1143626A013AF0
:102A0000120102F47C720A43196C01F080210A431E
:102A10001A64A168226B1143626802F07F021143BD
:102A2000E268B2F5806F4FD1AB4220D02B4A93427F
:102A30001DD0803293421AD08032934217D0803218
:102A4000934214D08032934211D0803293420ED000
:102A5000803293420BD08032934208D0803293422E
:102A600005D0834203D002F58072934201D141F434
:102A700080615A6C656B22F0434222F47F1222F48B
:102A8000F35222F01F022A430A435A64002283426F
:102A90009A6402D012498B4201D15A659A65DA676D
:102AA0000123A2650020256584F854300BE0FFF770
:102AB0008DFE401B05287FF660AF1023A36503231E
:102AC00084F85430012038BDB2F5007F08BF41F4CE
:102AD0000071CEE75000024050050240D000024095
:102AE000D005024030B5002834D090F84C40012C7D
:102AF00032D0012480F84C4090F85440012C4FF023
:102B0000000423D1022580F8545084650468A56C24
:102B100063F30F054FF4FE43A564E360E1642265AF
:102B2000636943F4BA436361436E1BB1636943F461
:102B300000736361036F1BB1636943F40053636106
:102B40000020636943F00103636130BD402380F8D6
:102B50004C4083650120F8E70220F6E738B50446CB
:102B6000FFF734FE054644B194F85430022B06D0EA
:102B70002023A365002384F84C30012038BD22684F
:102B8000536943F004035361052384F854302368E8
:102B90001A69900419D55A69216D42F002025A61EE
:102BA000042284F854204FF4FE42DA600122090620
:102BB00048BF616F84F854204FF0000042BF0A7391
:102BC00000229A6484F84C00D8E7FFF7FFFD401B11
:102BD0000528DCD9A36D43F01003A365032384F813
:102BE0005430236D1D06C5D50122636F1A73C1E7EA
:102BF00028B190F85430022B03D0202383650120A4
:102C000070470423026880F854305369002043F46D
:102C1000005343F00403536170470121036810B56A
:102C200023F47F6222F00F020446D068C3F30B0244
:102C3000503AC2F3C41201FA02F2024200F0AB8031
:102C40001A69500508D55A69520505D54FF48062B6
:102C5000DA60A26D0A43A2651A69100509D55A699E
:102C6000110506D54FF40062DA60A26D42F002024F
:102C7000A2651A69D20409D55A69D00406D54FF461
:102C80008052DA60A26D42F00402A2651A69510412
:102C900009D55A69520406D54FF48042DA60A26D14
:102CA00042F00802A2651A69900509D55A69910592
:102CB00006D54FF40072DA60636E0BB12046984778
:102CC00023681A6992042ED55A6990042BD54FF4C3
:102CD0000052DA6094F85420042A1DD15A69216DFB
:102CE00022F400525A615A69090642F002025A61FE
:102CF0004FF0010248BF616F84F8542042BF0A734D
:102D000000229A64002384F84C30E36E002B42D0FA
:102D10002046BDE810401847052384F85430236F3F
:102D20000BB12046984723681A69D20518D55A690D
:102D3000D00515D5226D110626D5DA6F32B99A6CF9
:102D400022B90122616F84F854200A734FF4407253
:102D5000DA60002384F84C30236E0BB1204698478C
:102D6000A36DC3B12268536943F002035361012389
:102D7000226D84F85430120644BF626F137300232F
:102D800084F84C30A36EC1E79A6C002ADED1012290
:102D900084F85420DAE710BDD0B1CB0601D400206E
:102DA00070470368012023F47F62C3F30B0322F012
:102DB0000F0201F01101503B1129C3F3C4135168F4
:102DC00000FA03F30CBF0B4321EA03035360E6E769
:102DD00001207047830706D509B1064B0B600AB185
:102DE00007231360704709B1034B0B60002AF9D029
:102DF0000523F6E7000001FE000001F8034637B5A1
:102E000000284BD0426F002A48D090F85410046834
:102E100001296069CDB203D0022D3AD1C10338D562
:102E200093F854100129CDB22CD193F84C10022004
:102E300001292CD0002183F8540083F84C501073E2
:102E400099651161616941F4BA416161596E19B1C5
:102E5000616941F4007161611B6F1BB1636943F4E7
:102E600000536361156801A9286A0022FFF7B2FFC9
:102E70002B0C1B0425F0030523602D04019B2D0C56
:102E80001D43E5670020636943F00103636103B0FC
:102E900030BD40229A65002283F84C200120F6E7DD
:102EA0002DE9F04F00234FF00F0A5E4C0A6832FA0A
:102EB00003F501D1BDE8F08F012505FA03F919EA00
:102EC000020200F0A18003274E684FEA430806F093
:102ED000030507FA08FE6F1E012F6FEA0E0ED1F8E8
:102EE00008C031D8876807EA0E0BCF6807FA08F7E1
:102EF00047EA0B078760476827EA0909C6F3001706
:102F00009F4047EA09074760C7680CFA08FC07EAD0
:102F10000E074CEA0707022DC7601AD14FEAD30CFF
:102F200000EB8C0C03F00709DCF820704FEA8909EC
:102F30000AFA09FB27EA0B0B0F6907FA09F747EAB8
:102F40000B07CCF8207004E0032DDDD1BCF1010F9C
:102F5000DAD1076805FA08F507EA0E073D4316F4CB
:102F6000403F056050D023F0030707F1804707F585
:102F7000483703F0030C3D6E4FEACC0C0AFA0CFE06
:102F800025EA0E0E284DA84240D005F58065A842DE
:102F90003ED005F58065A8423CD005F58065A84285
:102FA0003AD005F58065A84238D005F50065A842FD
:102FB00036D005F58065A84214BF1025072505FA0F
:102FC0000CF545EA0E053D66D743D4F8805016F45B
:102FD000803F0CBF3D401543C4F88050D4F8845066
:102FE00016F4003F0CBF3D401543C4F884502568DB
:102FF00016F4801F0CBF3D40154325606568B6027E
:1030000054BF3D401543656001334FE70025D6E7C7
:103010000125D4E70225D2E70325D0E70425CEE732
:103020000625CCE700200340000002420AB181617E
:1030300070478162704700000146064A106810F030
:10304000010009BF1368012023F004030B4308BFEC
:103050001360704700040340002006220D4B986067
:10306000DA601A6822F001021A6004221A601A68F3
:1030700022F440321A601A6842F440221A601A6838
:1030800022F440221A604FF400721A625A629A6265
:10309000DA62704700040340034A0020136843F0DB
:1030A00001031360704700BF00040340074A012971
:1030B000136923F00403136101D130BF7047032962
:1030C00001D040BF20BF20BF704700BF00ED00E02F
:1030D00032210E4AD36823F003030343D3600C4B21
:1030E00000041B684B430B49B3FBF1F30133D16878
:1030F00030EA010104D00BB903207047013BF6E729
:10310000002B0CBF03200020704700BF00080340C5
:103110000000002040420F0038B50B4CE36843F438
:103120008073E360FFF752FB0546E368DB0101D5DE
:10313000002038BDFFF74AFB401B0128F5D9E368A2
:10314000DA01F2D40320F4E7000803403222114BE5
:103150001B685343104AB3FBF2F3104A01339168E2
:1031600050B921F002019160D16B88070ED50BB9DF
:1031700003207047013BF7E741F002019160D16BFA
:10318000890703D4002BF3D0013BF8E7002BEFD0E5
:10319000002070470000002040420F00000803405C
:1031A000024A136803431360704700BF00080340DE
:1031B0004FF488730D4AD16901F00C01CB40D80758
:1031C00012D49368190209D509480A4A30EA230043
:1031D00028BF1046C3F34173D8407047D2F814316A
:1031E0000448C3F30133F7E703487047000C03407A
:1031F00000D8B80500366E010024F4002DE9F7432D
:10320000044620B39E4D0368EE69DF0706F00C0606
:1032100018D423689D075ED42368D80600F19480F3
:103220002368590700F1B5802368190700F12C8144
:1032300023689A0600F1728123685B0600F1B7816A
:1032400000201BE0082E436803D1002BE1D10120B0
:1032500014E063B3B3F5803F13D12B6843F480339C
:103260002B60FFF7B3FA0546854F3B689803D0D42F
:10327000FFF7ACFA401B6428F7D9032003B0BDE880
:10328000F083B3F5A02F04D12B6843F480232B6087
:10329000E3E7B3F5A81F2B6802D143F4A013F6E7C8
:1032A00023F480332B602B6823F4A013D8E72B681A
:1032B00023F480332B602B6823F4A0132B60FFF7DB
:1032C00085FA07462B689903A3D5FFF77FFAC01B41
:1032D0006428F7D9D1E7042EA3680AD1002BB6D011
:1032E000674AE168136923F4F81343EA0143136161
:1032F00092E7634DBBB12B6843F400632B60FFF78B
:1033000065FA07462B689A0407D52B69E26823F40F
:10331000F81343EA02432B617EE7FFF757FAC01B1D
:103320000228EFD9A9E72B6823F400632B60FFF78D
:103330004DFA07462B689B047FF56EAFFFF746FA00
:10334000C01B0228F6D998E723694D4D83B12B683D
:1033500043F480432B60FFF739FA07462B681A04C1
:103360003FF55EAFFFF732FAC01B0228F6D984E7BB
:103370002B6823F480432B60FFF728FA07462B685D
:103380001B047FF54DAFFFF721FAC01B0228F6D9C9
:1033900073E73B4BD3F8942055073CD44FF001081A
:1033A000D3F8942042F00402C3F89420D3F8943068
:1033B00003F004030193019B324A314D936A43F0B9
:1033C000010393626369002B3FD0D5F8102141F2CD
:1033D000883922F080021343C5F81031FFF7F6F95F
:1033E0000746D5F81031980718D5636941F2883936
:1033F0001906234D24D5D5F810311A0514D5B8F186
:10340000000F3FF411AF1E4AD2F8943023F00403AA
:10341000C2F8943008E74FF00008CDE7FFF7D6F97F
:10342000C01B4845DDD928E7FFF7D0F9C01B484548
:10343000E1D922E7FFF7CAF9C01B48453FF61DAFA7
:10344000D5F810311B05F5D4D9E7D5F8103141F284
:10345000883923F08103C5F81031D5F8103123F0F5
:103460000403C5F81031FFF7B1F90746D5F810315C
:103470009807C4D5FFF7AAF9C01B4845F6D9FCE662
:10348000000C034000080340624FA369D7F81451B1
:1034900093B3E26905F004039A420FD0AB070DD550
:1034A00025F00305C7F81451FFF790F98046D7F8C7
:1034B0001431980719D40120FFF78EF9E36925F03C
:1034C00004051D43534F45F00105C7F81451FFF79C
:1034D0007DF90546D7F8143199073FF5A9AEFFF7F6
:1034E00075F9401B1428F5D9C7E6FFF76FF9A0EB73
:1034F00008001428DBD9C0E625F00105C7F81451EF
:10350000FFF764F90546D7F814319A077FF590AEB6
:10351000FFF75CF9401B1428F5D9AEE6256AE5B93A
:10352000002E3FF494AE3B4A136823F0010313606E
:10353000FFF74CF90646374F3B6803F00403AB42F4
:103540003FF47AAEFFF742F9801B0228F4D93B68BA
:1035500003F00403AB42EFD08FE62E4D2B6803F04F
:103560000503012B3FF473AED4E90931AA680B437C
:1035700022F06042134343F40003AB6096B9FFF7B7
:1035800017FE2B6A244A03F00F03D35CD840234B69
:103590001860234B1868FFF7A5F800287FF457AE92
:1035A0000425C5E72B6843F001032B60F8E7194AAF
:1035B000E56A1368BDB923F008031360FFF706F945
:1035C0000446144E336803F01003AB423FF438AEA8
:1035D000FFF7FCF8001B0228F4D9336803F010034E
:1035E000AB42EFD049E603F01803082B3FF42FAEAF
:1035F000D4E90C109368014323F0E05343EAD1036C
:1036000043F4000393601368102543F0080313602C
:10361000D4E700BF000C0340D8DF00080000002002
:10362000080000202DE9F0410D46044610B90120A4
:10363000BDE8F081414A136803F00F038B4219D3B0
:103640002368DF0721D422683D4B12F002011B6A78
:1036500044D1560741BFE16823F070030B430121B9
:10366000100741D5216923F4E06343EA011334498B
:103670000B623BE0136823F00F030B4313601368E6
:1036800003F00F038B42D2D1DAE761682C4A02299A
:1036900013681BD113F4003FC9D0D36941F28838B5
:1036A00023F003030B43D361FFF790F80646244F42
:1036B000FB69626803F00C03B3EB820FC3D0FFF722
:1036C00085F8801B4045F3D90320B1E7012902D1D9
:1036D00013F4005FE0E713F0040FDDE7A16823F0C7
:1036E0000F030B430121B4E70029C0D1D30642BF29
:1036F0006269134B5A62114A136803F00F03AB421D
:1037000010D8FFF755FDBDE8F0410D4B0D4A1B6A7F
:1037100003F00F03D35CD8400B4B18600B4B1868B9
:10372000FEF7E0BF136823F00F032B431360136809
:1037300003F00F03AB427FF47AAFE2E700200240D0
:10374000000C0340D8DF0008000000200800002023
:1037500008B5FFF72DFD054B054A1B6A03F00F0363
:10376000D35CD840034B186008BD00BF000C034079
:10377000D8DF00080000002008B5FFF7E9FF044B80
:10378000044A1B6AC3F30213D35CD84008BD00BFD0
:10379000000C0340D0DF000808B5FFF7D9FF044B49
:1037A000044A1B6AC3F30223D35CD84008BD00BFA0
:1037B000000C0340D0DF000808B5FFF7C9FF044B39
:1037C000044A5B6AC3F30213D35CD84008BD00BF50
:1037D000000C0340D0DF0008094B9A68110209D59C
:1037E00012F0805FC2F38163064A074818BF104693
:1037F000D8407047D3F814310248C3F30123F7E7E8
:10380000000C034000366E0100D8B8050368F7B518
:10381000DF0708D599494468D1F8002122F0010258
:103820002243C1F800219E0708D594498468D1F845
:10383000002122F004022243C1F800215D0708D5CF
:103840008E49C468D1F8002122F010022243C1F849
:1038500000211C0708D589490469D1F8002122F00C
:1038600040022243C1F80021D90608D583494469A2
:10387000D1F8002122F480722243C1F800219A0677
:1038800008D57E498469D1F8002122F48062224360
:10389000C1F800215F0608D57849C469D1F8002134
:1038A00022F480522243C1F800211E0608D5734934
:1038B000046AD1F8002122F480422243C1F8002199
:1038C000DD0508D56D49446AD1F8002122F4803223
:1038D0002243C1F800219C0508D56849846AD1F8C3
:1038E000002122F440222243C1F80021590508D5C5
:1038F0006249C46AD1F8002122F480122243C1F83F
:1039000000211A0508D55D49046BD1F8002122F485
:1039100040022243C1F80021DF0408D55749446B17
:10392000D1F8002122F080722243C1F800219E04C8
:1039300008D55249846BD1F8002122F0406222431D
:10394000C1F800215D0408D54C49C46BD1F80021B1
:1039500022F080522243C1F800211C0408D54749B7
:10396000046CD1F8002122F060422243C1F800210A
:10397000D90308D54149446CD1F8042122F003024F
:103980002243C1F804219A0308D53C49846CD1F83C
:10399000042122F008022243C1F804215F0308D564
:1039A0003649C46CD1F8042122F060022243C1F8E8
:1039B00004211E0308D53149046DD1F8042122F4F5
:1039C00000622243C1F80421DD0210D52B49446D69
:1039D000D1F8042122F440322243C1F80421D1F865
:1039E0000421846D22F470422243C1F804219C0218
:1039F00008D52249C46DD1F8042122F400222243C3
:103A0000C1F80421590208D51C49046ED1F80421DB
:103A100022F480122243C1F804211A0208D5174962
:103A2000446ED1F8082122F003022243C1F8082194
:103A3000DF0108D51149846ED1F8082122F0400237
:103A40002243C1F808219E0108D50C49C46ED1F863
:103A5000082122F440722243C1F808215D0108D5F3
:103A60000649046FD1F8082122F440622243C1F8CC
:103A70000821002B04DB002003B0F0BD000C034044
:103A80002C4A406FD2F81031D2F8101101F4407175
:103A90008842F0D0D2F89440640734D40126D2F89A
:103AA000944044F00404C2F89440D2F8942002F008
:103AB00004020192019A204CA26A42F00102A26221
:103AC00061B11C4AD2F8101141F48031C2F81011D2
:103AD000D2F8101121F48031C2F8101123F40343FD
:103AE00010B1034343F40043124CD907C4F810311A
:103AF0000BD4002EBFD00F4AD2F8943023F0040329
:103B0000C2F89430B7E70026D5E7FEF75FFE41F232
:103B100088370546D4F810319B07EAD4FEF756FEE5
:103B2000401BB842F6D9D4F810319A07F2D40320DA
:103B3000A2E700BF000C034000080340B0F5005F9F
:103B400010B500F0338142D8402800F0E18015D84C
:103B500008280BD8002800F00D81013807280BD861
:103B6000DFE800F0A7B00ABA0A0A0AC0102800F07D
:103B7000BF80202800F0C6800020FBE0B0F5806FF9
:103B800000F0E98011D8B0F5807F00F0C780B0F573
:103B9000007F00F0C9808028EED1B14BD3F800310E
:103BA00013F4804F00F08A80A8E0B0F5006F00F0B9
:103BB000D880B0F5805FDFD1A94BD3F8003113F086
:103BC000807F40F09B80BDE81040FFF7F1BAB0F570
:103BD000001F00F04D8139D8B0F5802F00F0198119
:103BE00016D8B0F5803F00F0FA80B0F5003F00F045
:103BF0000A81B0F5804FBFD14FF40050FFF79EFF10
:103C0000974BD3F80031DC0040F1B4804008B1E0BC
:103C1000B0F5002F00F00A81B0F5801FACD1904CB8
:103C2000D4F8043113F4403340F00881FFF790FDDD
:103C3000D4F8043113F4704306D0B3F5004F32BF0B
:103C40000123C3F302330233D84093E0B0F1007F85
:103C500000F0318110D8B0F5000F00F01281B0F102
:103C6000807F00F02281B0F5800F85D17C4BD3F8A6
:103C7000043113F4801FA4E7B0F1806F00F02981B4
:103C8000B0F1004F7FF478AF754BD3F8102102F4F8
:103C90004072B2F5807F00F0F180B2F5007F4CD029
:103CA000B2F5407F7FF468AF1B686E4813F4003FA5
:103CB00086E06B4BD3F80021D2074AD4BDE8104010
:103CC000FFF76ABD664BD3F8002112F0040F40D114
:103CD000BDE81040FFF750BD614BD3F8002112F052
:103CE000100FF4E75E4BD3F8002112F0400FEEE71F
:103CF0005B4BD3F8003113F4807FE9D0BDE810406E
:103D0000FFF76ABD564BD3F8003113F4806FF4E728
:103D1000534BD3F8003113F4805FEEE7504BD3F8E8
:103D2000003113F4803FE8E74D4BD3F8002112F443
:103D30004022CDD0B2F5802F07D1D3F8140110F076
:103D4000020017D0D3F8143129E0B2F5002F40F06B
:103D500095801B68A2E0424BD3F8003113F4801F1A
:103D600020E73F4AD2F8003113F4400303D1FFF7B4
:103D7000EFFCC00810BDB3F5000F05D1D2F810015B
:103D8000C0F34000C003F5E7B3F5800F7FF4F4AE55
:103D9000D2F8140110F00200ECD0D2F8143113F074
:103DA000040F14BFFA204FF4FA40E3E72C4AD2F88C
:103DB000003113F0406306D113682B4813F4004F11
:103DC00008BF0020D6E7B3F1806F97D0B3F1006F42
:103DD0007FF4F9AE136813F4003F2448F0E7204B5A
:103DE000D3F8043113F0030303D1BDE81040FFF70B
:103DF000AFBC012B7BD0022B4FF480203FF47EAF71
:103E0000B0F5001FE7E6164BD3F8043113F0080FA6
:103E100073E7134AD2F8043113F060033FF46EAF36
:103E2000202B64D0402B7FF4A7AED3E70C4BD3F804
:103E3000042111053FF562AF1B68BEE7B3F5803F73
:103E400006D12368094813F4003F08BF0020EFE6BD
:103E5000B3F5003F02D1FFF7BFFCE9E60020E7E63B
:103E6000000C034020A10700006CDC020024F400D9
:103E7000204BD3F8042112033FF55FAFD3F81001B4
:103E80007EE71C4AD2F8083113F0030303D1BDE8E2
:103E90001040FFF791BC012B03D1136813F4005FAE
:103EA0009BE7022B3FF46AAF28E7124BD3F80831A7
:103EB0005B06ECD522E70F4BD3F8082112F44072D1
:103EC0003FF41CAFB2F5807F3FF437AFB2F5007F0F
:103ED0003DE7084BD3F8082112F440623FF40EAFDF
:103EE000B2F5806F3FF429AFB2F5006F2FE74BF6C4
:103EF00080303FE7000C03400D4A012813680BD1C6
:103F00005B070FD5936A23F4704323F003030B433D
:103F10001843906200207047022804D113F4005F18
:103F2000F0D1012070470328ECD113F4003FF7E7EC
:103F3000000C03400129416C0CBF0923012308290F
:103F4000426805D122F00201012908BF43F01003A5
:103F5000023A012A94BF43F0600043F00400704726
:103F60000E4B01461A6841F65833B2FBF3F210B516
:103F700004689200236823F4803323603AB9032055
:103F8000D1F8943043F04003C1F8943010BD20685C
:103F9000013A10F48030F1D1F8E700BF00000020B2
:103FA000F8B5044610B901252846F8BD90F8383018
:103FB000012B09D102686B4B9A42F4D14368012B63
:103FC000F1D1436C002BEED194F8913003F0FF0255
:103FD00023B9204684F89020FDF784FA2046FFF7A5
:103FE000BFFF05460028DED10223A66884F8913081
:103FF000711E4E42236A4E41B6021BB34FF480201D
:10400000FFF79CFDA369626CB3F5002F216A40F0B5
:104010009A80042A00F09280082A00F09180636D53
:104020000A274B437843B0FBF3F00A21B0FBF1F3CE
:1040300001FB1300092808BF0133042A636204BF8F
:104040005B0863626368216D33F0020240F0868092
:10405000013918BF012122684348176849023840D6
:10406000676C10603B43A76C10683B43E76C3B43B5
:10407000E76A3B4367693B43A7693B43A76A3B4306
:1040800027693B430343606A43EA005333430B43CE
:1040900013605368206B23F4604323F00F035360D5
:1040A000E36951680343606B03430B4353609168BA
:1040B0002E4BE06D0B409360636E91680343206E5E
:1040C00003430B43616D01390B43A16D013943EA91
:1040D00001239360D36823F47D6323F00F031B0453
:1040E0001B0CD360D168D4E91A3003430B43616FD2
:1040F00043EA0143216F013943EA0123D360194B9D
:104100009A4212D11A6C043B22F001025A6494F8CC
:104110003820012A09D1E26B511E226C42EA0112B9
:104120005A645A6C42F001025A6400230122C4F816
:10413000943084F8903084F8912035E740236FE77D
:104140004FF480736CE7A36A0A27B3F1806F14BF42
:10415000012302234B4378431B0264E74A1E51426A
:10416000514178E70454014010C005F00080F8FF89
:10417000022970B405D9CC1E012C55D970BC012080
:10418000704700244568446435F0020514BF0125DA
:10419000254605654FF48035C5654FF6FF75C46447
:1041A000846613F0010445670367E7D1D9B94FF47A
:1041B000802401664466032AE0D8DFE802F0021892
:1041C0001D2A40245B085D011B0180260229C0E9ED
:1041D00015538664C46603D1012A23D11023836654
:1041E00070BCFFF7DDBE4FF400350566E2E75B0803
:1041F0009D0180245B01E8E7C0225B0882649A018C
:104200005B01836580234265C3660229E8D10823E8
:10421000E5E7E0225B0882649A015B014265836501
:10422000802327E0022AF1E7002445684FF4003696
:1042300035F0020514BF25460125042914BF0D21C0
:1042400001214464C4640565C4654FF48025846617
:104250004FF6FF74C0E91865036744678165032A58
:104260008CD8DFE802F002090F141B01802243659D
:1042700040238264C366B3E780225B0182644365A6
:10428000C266ADE7C0225B0182644365C8E7E022F5
:10429000F9E770B590F890300446012B45D001261F
:1042A00080F89060FFF75CFE2268051E136818BF57
:1042B000012523F40033136094F89130122B11D1AF
:1042C000D4F8800070B1FEF749FC58B1D4F88030C2
:1042D0009B6D202B1FBF3546D4F8943043F08003EC
:1042E000C4F8943094F89130222B11D1D4F8840082
:1042F00070B1FEF733FC58B1D4F884309B6D202B9D
:104300001FBF0125D4F8943043F08003C4F89430E3
:104310002268536843F008035360012384F8913006
:10432000002384F89030284670BD0225FBE770B565
:1043300090F890300446012B4CD0012680F8906014
:10434000FFF70EFE2368051E1A6818BF01259203A9
:104350002FD51A6822F400321A6094F89130122B8B
:1043600011D1D4F8800070B1FEF7F8FB58B1D4F841
:1043700080309B6D202B1FBF3546D4F8943043F01E
:104380008003C4F8943094F89130222B11D1D4F8E2
:10439000840070B1FEF7E2FB58B1D4F884309B6D15
:1043A000202B1FBF0125D4F8943043F08003C4F8BC
:1043B000943000214FF0FF32236819619A615A68E6
:1043C00042F008025A60012384F8901084F891307A
:1043D000284670BD0225FBE738B5154604460A4657
:1043E000002954D0002D52D090F89130012BD9B231
:1043F00055D190F89030012B51D0002380F89010C7
:104400002221C0F89430826780F89110A0F87C5087
:104410002449A0F87E50D0F8840041662249016604
:104420002249C0E91A13A16C2B46402928D1216BDF
:1044300001B16B00016D09062CD5416F21B30968EC
:104440008B6023681C33C1E90332FEF7D7FC0546B5
:10445000D0B901462046FFF76DFD23681A69024373
:104460001A611A6842F400321A601A68D2035EBFF9
:104470001A6842F480321A60002384F8903007E012
:104480008029D6D9AB00D5E7002384F890300125E8
:10449000284638BD21681C31FEF724FBD7E70225EA
:1044A000F6E700BFE9440008B1440008F5440008FD
:1044B00038B5036DC46D812B11D0002125682046CD
:1044C0002B6823F400332B60A4F87E10FFF732FD35
:1044D0002B6923EA00032B61012384F891302046E5
:1044E00001F04CFC38BD704708B5C06DFFF7FBFF0D
:1044F00008BD704710B5C46DD4F89430226843F0FD
:104500008003C4F894301368204623F4003313600A
:10451000FFF726FD012384F8913000232046A4F8FC
:104520007E30FFF7E6FF10BD70B590F8913004467D
:10453000002B5CD0036859691A690E071D6806D5FF
:10454000160704D5BDE87040D0F88C301847C8076E
:104550000FD512F001000CD001229A6194F891302D
:10456000222B18BF0220D4F894300343C4F89430AF
:104570003AE08E0709D5900707D502229A61D4F850
:104580008830A3B3BDE8704018478E0630D590063A
:104590002ED520229A61D4F8943043F00403C4F855
:1045A0009430AB031DD5D4F8800068B1274BC366A7
:1045B000FEF71EFB40B1D4F89430204643F0800350
:1045C000C4F89430FFF795FFD4F8840078B11F4BFE
:1045D000C366FEF70DFB50B1D4F8943043F080036E
:1045E000C4E72046FFF7A3FE2046FFF782FF70BD19
:1045F0004E0608D5500606D540229A61D4F894306C
:1046000043F00803CBE74E0716D5500714D5042214
:104610009A61D4F8942015F4003542F02002C4F8D1
:104620009420C0D14FF0FF321D619A610123A4F89C
:104630007E5084F89130D7E7C906D8D5D206D6D5B2
:1046400010229A61D4F8943013438FE75146000842
:1046500038B5C46D25682B6823F400332B60002324
:104660002B614FF0FF33AB61D4F89430202B06D090
:104670002046FFF775FC6B6843F008036B6001236D
:1046800084F8913000232046A4F87E30FFF731FFF4
:1046900038BD000010B5026852E8003F23F4907363
:1046A00042E8003102680029F5D10F4C02F10803FD
:1046B00053E8003F234002F1080C4CE80031002988
:1046C000F4D1C36E012B07D152E8003F23F0100351
:1046D00042E800310029F7D12023C0F88C300023B4
:1046E000C366436710BD00BFFEFFFFEF7047704712
:1046F000704708B50023C06DA0F85E30FFF7F8FFE3
:1047000008BD70472DE9F04140F60F0603680446E6
:10471000D9691A6831429D6810D18E0640F19780A0
:1047200002F0200605F080573E4300F09080436F72
:10473000002B00F08580BDE8F0411847A74EA8483F
:104740002E401040304300F08280CF0709D5D005BD
:1047500007D501201862D4F8900040F00100C4F899
:1047600090008F0709D5E80707D502201862D4F812
:10477000900040F00400C4F890004F0709D5E80706
:1047800007D504201862D4F8900040F00200C4F865
:1047900090000F070BD502F02000304307D008200F
:1047A0001862D4F8900040F00800C4F890000E059C
:1047B0000AD5500108D54FF400601862D4F8903043
:1047C00043F02003C4F89030D4F89030002B37D059
:1047D000890609D502F0200205F080552A4303D04E
:1047E000636F0BB1204698472668D4F89020B368D1
:1047F00002F0280203F0400353EA0205204621D0CC
:10480000FFF748FFB3685B0617D5226802F108037B
:1048100053E8003F23F04003083242E8003100290A
:10482000F3D1D4F8800040B16E4BC366FEF7E0F9D7
:1048300030B1D4F88000C36E7DE72046FFF758FF03
:10484000BDE8F081FFF754FFC4F89050F8E7E06E40
:10485000012840F08D80CF0640F18A80D60640F1D5
:10486000878010221A629968B4F85C204D0651D5F1
:10487000D4F880000168896C89B2002942D0914245
:1048800040D2026DA4F85E10812A2FD053E8002F89
:1048900022F4807243E800210029F7D103F10802D5
:1048A00052E8002F22F0010203F1080040E8002145
:1048B0000029F3D103F1080252E8002F22F0400250
:1048C00003F1080040E800210029F3D12022C4F8B8
:1048D0008C20E16653E8002F22F0100243E800210B
:1048E0000029F7D1D4F88000FEF738F902232367B6
:1048F000B4F85E30B4F85C10C91A89B22046FFF7EC
:1049000000FF9DE791429BD1036D812B98D102233B
:104910002367F3E7B4F85E10B4F85E0089B280B2A2
:1049200000288DD0521A91B2002989D053E8002F67
:1049300022F4907243E800200028F7D12A4D03F1B9
:10494000080252E8002F2A4003F1080646E800203A
:104950000028F4D120226067C4F88C20E06653E878
:10496000002F22F0100243E800200028F7D1CEE704
:1049700008060BD502F0800005F40005284305D099
:10498000A36F002B3FF45CAF2046D4E64F0611D551
:1049900056060FD553E8002F22F0400243E80021CD
:1049A0000029F7D120232046C4F88830A167FFF7FB
:1049B0009DFE45E70D0206D5500004D52046BDE812
:1049C000F04100F082BDCB017FF53AAF002ABFF67F
:1049D00037AF2046BDE8F04100F076BD0100001081
:1049E00020010004F3460008FEFFFFEFD0F88C2002
:1049F00008B5222AB0F86010036855D15B6A826D51
:104A00000B401370836D01338365B0F85E30013B5A
:104A10009BB2A0F85E30B0F85E309BB2002B42D162
:104A2000026852E8003F23F4907342E800310368C3
:104A30000029F5D103F1080252E8002F22F001020B
:104A400003F1080C4CE800210029F3D12022C0F822
:104A50008C20184A41679342016705D1C26E012A32
:104A60000ED0FFF744FE1EE05A681102F6D553E857
:104A7000002F22F0806243E800210029F7D1EDE702
:104A80000022C26653E8002F22F0100243E8002102
:104A90000029F7D1DA69B0F85C10D20644BF1022C1
:104AA0001A62FFF72EFE08BD9A6942F008029A6169
:104AB000F9E700BF00240440D0F88C2008B5222A72
:104AC000B0F86010036852D15A6A1140826D22F822
:104AD000021B8265B0F85E20013A92B2A0F85E2017
:104AE000B0F85E2092B2002A40D153E8002F22F4A1
:104AF000907243E800210029F7D103F1080252E83F
:104B0000002F22F0010203F1080C4CE800210029DB
:104B1000F3D12022C0F88C20174A416793420167E5
:104B200005D1C26E012A0ED0FFF7E1FD1EE05A68E2
:104B30001102F6D553E8002F22F0806243E80021ED
:104B40000029F7D1EDE70022C26653E8002F22F0DA
:104B5000100243E800210029F7D1DA69B0F85C10AF
:104B6000D20644BF10221A62FFF7CBFD08BD9A6936
:104B700042F008029A61F9E70024044003682DE935
:104B8000F047DD69D3F800809E68D0F88C20044699
:104B9000222AB0F8607040F0B680B0F86830002B80
:104BA00000F08C804FF000094FF0040A06F0010677
:104BB000AB0640F183802368A26D5B6A3B401370B3
:104BC000A36D0133A365B4F85E30013B9BB2A4F83A
:104BD0005E302368DD6968072AD0E9070AD518F432
:104BE000807F07D001221A62D4F8902042F001029F
:104BF000C4F89020AA0708D53EB102221A62D4F860
:104C0000902042F00402C4F89020680708D53EB115
:104C1000C3F820A0D4F8903043F00203C4F89030D9
:104C2000D4F8903023B12046FFF762FDC4F890908D
:104C3000B4F85E309BB2002BBAD1226852E8003F34
:104C400023F4807342E8003123680029F5D130480D
:104C500003F1080252E8002F024003F1080545E87D
:104C600000210029F4D12022C4F88C20294A616750
:104C7000934221670AD05A68110207D553E8002FE2
:104C800022F0806243E800210029F7D1E26E012A78
:104C900035D10022E26653E8002F22F0100243E8EB
:104CA00000210029F7D1DA692046D20648BF102238
:104CB000B4F85C1048BF1A62FFF723FDB4F85E3009
:104CC0009BB2D3B1B4F868209A4216D9226802F197
:104CD000080353E8003F23F08053083242E80031D4
:104CE00022680029F2D10C4B636752E8003F43F081
:104CF000200342E800310029F7D1BDE8F0872046C3
:104D0000FFF7F5FCDAE79A6942F008029A61F4E7E6
:104D1000FEFFFFEF00240440ED49000803682DE981
:104D2000F047DD69D3F800809E68D0F88C200446F7
:104D3000222AB0F8607040F0B480B0F86830002BE0
:104D400000F08A804FF000094FF0040A06F00106D7
:104D5000AB0640F181802368A26D596A394022F880
:104D6000021BA265B4F85E20013A92B2A4F85E205C
:104D7000DD6968072AD0E9070AD518F4807F07D0D3
:104D800001221A62D4F8902042F00102C4F8902067
:104D9000AA0708D53EB102221A62D4F8902042F048
:104DA0000402C4F89020680708D53EB1C3F820A0DB
:104DB000D4F8903043F00203C4F89030D4F8903027
:104DC00023B12046FFF794FCC4F89090B4F85E300D
:104DD0009BB2002BBCD1226852E8003F23F48073C1
:104DE00042E8003123680029F5D1304803F1080278
:104DF00052E8002F024003F1080545E80021002990
:104E0000F4D12022C4F88C20294A6167934221679B
:104E10000AD05A68110207D553E8002F22F08062A9
:104E200043E800210029F7D1E26E012A35D10022A2
:104E3000E26653E8002F22F0100243E80021002927
:104E4000F7D1DA692046D20648BF1022B4F85C10C8
:104E500048BF1A62FFF755FCB4F85E309BB2D3B17D
:104E6000B4F868209A4216D9226802F1080353E880
:104E7000003F23F08053083242E8003122680029C5
:104E8000F2D10C4B636752E8003F43F0200342E845
:104E900000310029F7D1BDE8F0872046FFF727FC55
:104EA000DAE79A6942F008029A61F4E7FEFFFFEF41
:104EB00000240440B94A000838B504460368C169B3
:104EC000826800691D6802436069024353480A43CF
:104ED000284002431A605A68E068514D22F440525B
:104EE0000243AB42A0695A601CBF226A10439A6811
:104EF00022F06E4222F4306202439A60DA6A606AFB
:104F000022F00F020243DA62464A934242D0A2F5EF
:104F10007042934261D002F5806293425FD002F505
:104F2000806293425DD0AB425DD14FF40000FEF74A
:104F300005FE68B3616A3C4A656832F8112005EBEA
:104F40004501B0FBF2F3994207D901204FF001135C
:104F5000A3660023C4E91D3338BDB3EB053FF4D885
:104F600000231946FBF792FE090241EA10616B0823
:104F70000002C0182A464FF0000341F10001FBF780
:104F800085FE2A4BA0F540729A42DED82368D8608D
:104F90000020DBE70120B1F5004F26D1FEF7CEFD62
:104FA0000028F5D0616A204B626833F81130B0FBFD
:104FB000F3F0530803EB4003B3FBF2F34FF6EF7249
:104FC000A3F110019142C0D823F00F02216892B2E0
:104FD000C3F342031343CB60DAE70220DBE704208C
:104FE000D9E70820D7E70020D5E7FEF7A7FD00287E
:104FF000CED0616A0C4B626833F81130B0FBF3F32A
:1050000003EB5203B3FBF2F34FF6EF72A3F110017F
:1050100091429AD82268D360BAE700BFF369FFCF04
:10502000002404400038014050B40208FFFC0F0087
:10503000836A10B51A0706D50168846B4A6822F4A2
:10504000004222434A60DC0706D50168C46A4A6808
:1050500022F4003222434A60990706D50168046BA6
:105060004A6822F4803222434A605A0706D5016812
:10507000446B4A6822F4802222434A60DC0606D54B
:105080000168C46B8A6822F4805222438A609906C0
:1050900006D50168046C8A6822F4005222438A60B3
:1050A0005A0610D50168446C4A68B4F5801F22F492
:1050B000801242EA04024A6005D14A68846C22F4F4
:1050C000C00222434A601B0606D50268C16C5368C1
:1050D00023F400230B43536010BD2DE9F84304462D
:1050E0000D4617469846DDF820902268D36935EAC8
:1050F00003030CBF01230023BB4201D0002022E0A8
:10510000B9F1FF3FF2D0FDF761FBA0EB0800484585
:1051100029D8B9F1000F26D021680B685A07E4D5C9
:10512000802DE2D0402DE0D0CE6916F008060CD0DC
:10513000082520460D62FFF7ADFA00230120C4F8D0
:10514000905084F88430BDE8F883CB691B05CCD53A
:105150004FF4006320460B62FFF79CFA202384F88B
:105160008460C4F890300320EDE72DE9F7439846BA
:10517000D0F888300446202B0E46174646D1002929
:1051800046D0002A44D021230025C0F89050C0F812
:105190008830FDF71BFBA3688146B3F5805FA4F858
:1051A0005470A4F8567003D123690BB935461E46D6
:1051B000B4F856204B4692B2CDF8008042B9402157
:1051C0002046FFF78AFF202348B9C4F8883009E059
:1051D000002280212046FFF780FF30B120230320EA
:1051E000C4F8883003B0BDE8F08322685EB935F8B2
:1051F000023BC3F308039362B4F85620013A92B21B
:10520000A4F85620D4E716F8013BF4E70220E9E7BA
:105210000120E7E773B500260446C0F89060FDF76B
:10522000D5FA236805461B681A071CD56FF07E4324
:10523000324600934FF4001103462046FFF74DFF1E
:1052400088B1226852E8003F23F0800342E8003131
:105250000029F6D12023C4F888300320002384F8E5
:10526000843002B070BD23681B685B0724D56FF0E3
:105270007E43002200934FF480012B462046FFF727
:105280002CFFC8B1226852E8003F23F4907342E833
:10529000003122680029F5D102F1080353E8003FEC
:1052A00023F0010302F1080040E800310029F3D1A6
:1052B0002023C4F88C30D0E720230020C4F88830A5
:1052C000C4F88C30E0662067C8E710B5044650B3D8
:1052D000D0F888301BB980F88430FCF7B3F8242369
:1052E0002268C4F88830136823F001031360A36AAE
:1052F00013B12046FFF79CFE2046FFF7DDFD012895
:1053000011D023682046BDE810405A6822F490422C
:105310005A609A6822F02A029A601A6842F00102E2
:105320001A60FFF777BF012010BD0000002330B5E1
:1053300081658168A0F85C20B1F5805FA0F85E20EF
:10534000436731D10369002B40F2FF1318BFFF23DD
:10535000A0F860300023C0F890302223C0F88C30D1
:10536000016801F1080353E8003F43F001030831ED
:1053700041E800340368002CF2D1456E8468B5F131
:10538000005F016935D1B0F86850954231D8B4F565
:10539000805F29D1C1B1264A426753E8002F42F409
:1053A000807243E8002121E029B90369002B0CBF7A
:1053B000FF237F23CCE7B1F1805FC9D10369002BC4
:1053C0000CBF7F233F23C3E71A4A426703F1080259
:1053D00052E8002F42F0805203F1080040E800211B
:1053E0000029F3D1002030BD114A42670029D4D1F1
:1053F000ECE7B4F5805F16D151B10F4A426753E82C
:10540000002F42F4907243E800210029F7D1E9E728
:105410000A4A426753E8002F42F0200243E8002185
:105420000029F7D1DEE7044A42670029F2D0E6E717
:105430007D4B00081D4D0008ED490008B94A0008E1
:10544000D0F88C3030B4202B15D1B9B1B2B10023D3
:105450000468C3660A4B9C420AD063681B0207D5E6
:1054600054E8003F43F0806344E80035002DF7D155
:1054700030BCFFF75BBF022030BC70470120FBE768
:1054800000240440436E30B52BB90123A0F86A30E4
:10549000A0F8683030BD0368094D9A689968094CD6
:1054A000490F6B5C615CDB00B3FBF1F3C2F342625A
:1054B000A0F86A30AB5CA25CDB00B3FBF2F3E7E779
:1054C00070B4020868B402087047704790F88430DE
:1054D000012B14D024230268C0F8883011681368A7
:1054E00021F0005123F00103136000234366116093
:1054F000202280F88430C0F88820184670470220A7
:10550000704770B590F884300446012B17D02423DF
:105510000568C0F888302E682B6823F001032B60E3
:10552000AB6823F060431943A960FFF7ABFF20236A
:105530002E60C0F88830002084F8840070BD0220FE
:10554000FCE770B590F884300446012B17D0242373
:105550000568C0F888302E682B6823F001032B60A3
:10556000AB6823F060631943A960FFF78BFF20232A
:105570002E60C0F88830002084F8840070BD0220BE
:10558000FCE7000038B501232DED028BC362002338
:10559000044683620F4B0D4683610F4B0F48236215
:1055A0000F4B4FF4805200216362E061B0EE408AFD
:1055B00006F082FB4FF480612046FDF759F8B7EE04
:1055C000007AC7EE087ABDEC028BC4ED0D7A256334
:1055D00038BD00BFB81000203C3E00203C4E0020EB
:1055E0003C2E0020D2ED007ADFED0D5AF6EE0F6A68
:1055F00000F5806330F902CBB0EE676A07EE90CA1F
:10560000F8EEE77A67EEA57AB0EE677AA6EE667AEC
:105610008342A1EC017AEDD1C2ED007A704700BF60
:105620000000003830B5CBB900F6FC73043301F547
:10563000805401F5006592ED007AF0EC017A67EE96
:10564000877AE1EC017A73ED017AB2EC017A67EEC8
:10565000877A8D4264ED017AEDD130BD00F2FC73A2
:1056600000F50060E2E700002DE9F0472DED048B26
:10567000044605469FED228ADFED228A9FED229A9D
:10568000DFF89480214F224E82B000F1A00A57F833
:10569000049B58F8040B31464A4601AB04EB8000EA
:1056A0008DED018AFCF79CF89DED010AB4EEE80A45
:1056B000F1EE10FA06EB89061ED908F045FBDFED86
:1056C000157AE0EE097AF5EEC07AF1EE10FA10D410
:1056D000B7EE007AF4EE477AF1EE10FA77FE277A09
:1056E000E5EC017AAA45D2D102B0BDEC048BBDE84D
:1056F000F087DFED037AF3E7F0EE487AF0E700BFDA
:10570000000000006042A20867F98A3D0C000020FA
:105710004C0100200F2DAF3EAC000020D0ED007AF0
:1057200010B5014667EEA77A2DED028B90ED018A48
:105730000446E1EC017A40F2FF120830FCF760F811
:1057400028EE088A04F5006484ED008ABDEC028B23
:1057500010BD2DE9F0410446E66A0846711E18BFE7
:105760000121D4F81C80154608EBC12104F1280260
:10577000FFF738FF276A334639464046A26986F06C
:105780000106FFF74FFF3946626A00232046E662B2
:10579000FCF7BAFE606AFFF7C1FF606AFFF764FFBB
:1057A00000216A1ED4ED0C7A636A94ED0D7A0B44E5
:1057B000D3ED006AF8EEE77AE6EE877AF8FE677ACC
:1057C000FDEEE77A17EE903A03F307030431A029C0
:1057D00002F8013FE6D1BDE8F081000007B50523DE
:1057E0000022CDE900320123024A00F007FF03B096
:1057F0005DF804FBB818002010B90248024B0360A2
:1058000000F014BEB81800200001C0A110B9024871
:10581000024B036000F080BEB81800200001C0A158
:105820002DE9F04107460E4600F02AFF0446002805
:1058300000F02981DFF8088332460121404600F05C
:105840001FFD0546002800F02081964A136843F0AA
:1058500080431360D8F80030C2E90233924A1168DD
:1058600041F08041116003F17801C2E902118F4AD1
:10587000116841F08041116003F58C71C2E9021199
:105880008B4A116841F08041116003F5A85118312D
:10589000C2E90211874A116841F08041116003F5A5
:1058A000B8511831C2E90211834A116841F08041B0
:1058B000116003F5CC511831C2E902117F4A116819
:1058C00041F08041116003F5DC511831C2E9021149
:1058D0007B4A116841F08041116003F5B7411831EE
:1058E000C2E90211774A116841F08041116003F565
:1058F000BB411831C2E90211734A116841F080417D
:10590000116003F5C5411831C2E902116F4A1168EF
:1059100041F08041116003F5C9411831C2E902111B
:105920006B4A116841F08041116003F524419831C0
:10593000C2E90211674A116841F08041116003F524
:1059400026419831C2E90211634A116841F0804151
:10595000116003F52E411831C2E902115F4A116846
:1059600041F08041116003F530411831C2E9021164
:105970005B4A116841F08041116003F540411831E4
:10598000C2E90211574A116841F08041116003F5E4
:1059900040419831C2E90211534A03F5404311686E
:1059A000F833C2E9023341F080411160DFF894819D
:1059B00032460121404600F0B3FC064600286AD07A
:1059C000D8F80030494903F26472C1E9022248491B
:1059D00003F61440C1E90200464903F54170C1E9EC
:1059E000020045494548C1E90222454A03F60451EF
:1059F000C2E90211434903F18002C1E9022203F521
:105A0000D8510431C0E902113F4903F59C50C1E966
:105A100002223E4903F5F062C1E902223C49C1E994
:105A200002003C49C1E902333B49C1E902223B4A39
:105A300003F50051C2E90211394A3A49C2E9023379
:105A400003F5DC520432C1E90222374A03F55071F2
:105A5000C2E90233354AC2E90211354A03F1400175
:105A6000C2E90233334AC2E90211334A03F1440165
:105A7000C2E90211314AC2E90233384600F098FE09
:105A800030400540E8B2BDE8F081122230212046C6
:105A900000F0C6FC8AE713223021204600F0C0FC4B
:105AA000EBE700BF88290020782900206829002022
:105AB00058290020482900203829002028290020C2
:105AC0001829002008290020F8280020E8280020B4
:105AD000D8280020C8280020B8280020A8280020A6
