:020000040800F2
:10000000106F0020D1AA0408BDA90408BFA90408E4
:10001000C1A90408C3A90408C5A904080000000078
:10002000000000000000000000000000C7A9040854
:10003000C9A9040800000000CBA90408CDA9040840
:10004000DDAC0408E1AC0408E5AC0408E9AC040844
:10005000EDAC0408F1AC0408F5AC0408F9AC0408F4
:10006000FDAC040801AD040805AD0408D1A90408DD
:1000700009AD04080DAD040811AD040815AD040860
:1000800019AD04081DAD040821AD040825AD040810
:1000900029AD04082DAD040831AD040835AD0408C0
:1000A00039AD04083DAD040841AD040845AD040870
:1000B00049AD04084DAD040851AD040855AD040820
:1000C00059AD04085DAD040861AD040865AD0408D0
:1000D00069AD04086DAD040871AD040875AD040880
:1000E00079AD04087DAD040881AD040885AD040830
:1000F00089AD04088DAD040891AD0408000000002E
:1001000095AD040899AD04089DAD0408A1AD04089F
:10011000A5AD0408A9AD0408ADAD0408B1AD04084F
:10012000B5AD0408B9AD0408BDAD0408C1AD0408FF
:10013000C5AD0408C9AD0408CDAD0408D1AD0408AF
:10014000D5AD0408D9AD0408DDAD0408E1AD04085F
:10015000E5AD0408E9AD040841640408EDAD040808
:10016000F1AD0408F5AD0408D7A90408F9AD0408F9
:10017000FDAD040801AE040800000000000000000E
:1001800005AE040809AE04080DAE040811AE04085B
:1001900015AE04081DAE04080000000000000000B9
:1001A000000000000000000019AE040821AE0408A1
:1001B00025AE040829AE04082DAE04080000000096
:1001C0000A0DF4072805F301E911EF0BF4FF111BE9
:1001D0002705F0F80301FF0204FEF3EC081628EBF4
:1001E00007F8FD09FBE00F06FC1923FA0403FF00E2
:1001F000FC1204FE1000EA0A3F1714120AF9E80084
:100200001701EC09FFFF02FF01FBF8FF0A071412B8
:10021000330FFD3E0E09F80D060C0F05010301FD1D
:10022000FD09FEFE0A030BF941072515110401061D
:10023000040406FAFF00FFFEFE01FDFBFD05E90FC9
:100240000FE1D4EB03FB01FDF60DF011FEFFFDFC09
:10025000F70100FD0E1A0501F6EB2214F8090A0059
:100260001009F50EFEFE0101F4EFF0F20FF216F7A1
:10027000F3F81D21040CFDFA12031107FF00000121
:10028000F1FDFFFBEB1012F91AFFFCF404FF0B0762
:10029000E80B08FE0200FF00FDF8FBFA03F6E3EBB3
:1002A0000CFE03120506060100EFE9E5FF0001015F
:1002B00001FC07000C07FEE107DCE3D709DEE90BD0
:1002C000FE04EEF3FFFF00FEF903060316E904FA4D
:1002D000BED0C4BEFDF8010A16EFFFFCFF0000FE11
:1002E0000201030213F607F6AB9BAAD8FDF8F8FB50
:1002F00009EE00F2FBFDFFFD04FFFC0115FDF2FA23
:10030000E80AF5F301030306F5F0FEEEFFFDFEFE3D
:1003100001070802081E0714FB0D0B0C02040E0A4D
:10032000040E020FFEFE00FFFC040CFC0800EC12A1
:10033000FBF60A00FF05FD0602FFF000FE0102FFCA
:1003400001080202F816FAF313161105060D070B41
:10035000F71B0B02FF00000002030608FCFAFC0575
:1003600020FE190909FC060201FA020EFF0000FE38
:1003700001030B09010607FB0EFFE80E04FEF8F867
:10038000080204FCFEFBFBFE04050B07F61810FB3D
:1003900007111406F6010502001010F500FCFCFE22
:1003A00004FF03051401FFDE07DEF20407FEFE076B
:1003B0000F01FDF7FF00FFFF03FA0006F4FFEC0555
:1003C000270FF1FA07040204F1F5E2EF00FF01FF45
:1003D00003FA0E0EF61A2AF306E6F4FB0100F9F111
:1003E000F00719F800FF0102FCFAFD00FC321201CF
:1003F000FDF503E8FF02FB08FB2805F100FF00FF05
:10040000FAFB00FAE800E40AFAF5EA0C080204092B
:10041000E9F6E7E9010000FDFCF9FBF7FFFCDBDD95
:10042000F1D4F0F806FDEDF4E905F9F5FEFE000063
:10043000FD02FA03E61DDDE5F4EFE8040208000D15
:10044000F51CE3E800FFFE01FDF5FEFDECF30708F7
:10045000F5F608030F0B0203EEF908F7000000FEA3
:1004600005FE08FE051342D0F8F9EE04080206FE68
:10047000E9F51308FEFFFDFE1403FE0417CFDE248A
:100480000422071601090C06351F1F1600FEFCFF8B
:1004900008060600131BFDEE0706FAF6FD0204FD32
:1004A000EB07EBD2FDFE00000405FD023107FC0363
:1004B0000100ED11FCEEEDFD0D01F60CFFFDFCFF62
:1004C000090BF40824F3F7070605E5E5EE01111121
:1004D00021FAF5040301000107FDF4ED021728E7F6
:1004E000E8E80934F3D00604FD161FF0030200FF0C
:1004F000FF1204FD14FAE60144261B190CFBEBF66F
:10050000110BF90DFFFE0000FFF8F6FEFDFD0816C9
:1005100033351B3102FDEF0CFE020F04030403FF11
:10052000FB0BFDFE0A070EF5461B1A110C01FE0817
:10053000FE0716F70000FFFE02FFFAF5F70DF405BF
:100540000AF8D0F20B02F5F8FA11EC10FFFEFEFCEF
:10055000F501FE000107FC0B07FB0C19EF0905FD77
:100560000D01F610FFFEFF01F7EEF3F105F30CF5B8
:1005700017140A3A0507FCFF0B031C0500000102D3
:10058000F2FCFAFCEB130BFF2F2A3203FF040503E6
:10059000ED0600100202FFFDFBF5F8F9F7E4E9EFC4
:1005A000000E2723030001FF03F4F3EEFF01000117
:1005B000FEFD08FE0215EBDFFDD2E2EE04DBE704F0
:1005C000FD01EC0100000101F4FB04030EF20CFF3D
:1005D000CECED9CDFAEBFD001F020CF2FF0100FEDA
:1005E000010201FF07F208FEC9B4C0DAF8F9F6F417
:1005F00007FD01F7FDFCFDFDFE00FAFB0D00EFF924
:10060000060A0804F5FE01FEF0F8F0FAFEFEFEFF11
:1006100001090700081AF811E8223413FFFFF90353
:10062000000EFE0CFCFDFEFEFA000AF9FB03EE0DC7
:10063000FE0A17010200FAFF0704EE06FE0203009D
:1006400000050002F90EF2E405101D2CFB03FBF877
:10065000FD140602FF00FE0101FF0804F5ECF90A93
:100660001BF41E1AFBF5070402020A0F0001010029
:100670000104090504F904FA090DF61402FBF8F760
:10068000130A0C04FDFDFBFC02030909F21710FA22
:100690002A180E16F7FDFEF6F7160B0000FDFEFFFA
:1006A0000702FEFE10FD0BDEF4DFF9F1FDF8000796
:1006B000100002EDFEFF00FE00FCFD05F1F3E90273
:1006C0000807EC01FE04FE00F2F6F6F9FEFFFDFE5F
:1006D00001FA0C0BF61029F0FCF1021100FEF6F7FE
:1006E000F7070FF300FE0102FAFAFBFEF81E15F4FD
:1006F000FBEBFEEBFC0900FBFB1B0AFDFDFEFF0014
:10070000F7FDFEF9DE05E109ECF3FBF901FC060655
:10071000F1FCEAEE0100FFFBF9F8F9F6F606DCEA77
:10072000E4F1FC030D02F200EF10FDFFFDFE0100FD
:10073000FAFAF905F51EE2E91F04050F0302090E96
:10074000F61AE7E201FEFFFFFAF4FBFDE6F500F41E
:1007500015F3F3F30E0AF900EDFA01F4FFFEFDFDC7
:1007600000FE0600070B42CB08070F230A07030110
:10077000F3011709FEFEFD000C00FCFE0FD4DA2980
:100780000C0B13E4000208F6301F131801FDFDFDE9
:1007900005FFFEFC0E12F9F30507FADAFD04F6F97F
:1007A000EDFDE4DDFDFEFFFF0301FBFE2F0CF10C70
:1007B000EB01F6FDF8EDEF0308FEF703FDFCFEFE8E
:1007C000090DFA0A2D02F803DA14DEDDED070D1625
:1007D00020FAEC000201000107FCF1F0F40C1EE924
:1007E000E3FA0829F6D901FC001917EF030100FF0D
:1007F000FC1206FF15FCE70945110D110F06F7FE67
:100800001502F116FFFF02FF00F6F7F908020F0BC1
:10081000211A111A06FAF5050C030602000201005E
:10082000FA06FDFD0FFC08F6111E09170403FA0273
:10083000070411F90101FFFFF900FDF5F20DF509BB
:1008400007E8C0E8FC02F9F4F50DE904FF00FDFD3E
:10085000F902FF000C0FF907F6F61017EEFE04027E
:1008600007FCFC06FEFD0001F6EDEEF216F20FFAB3
:10087000FDF5252DFF06FA050901150B0000030201
:10088000F5FBFDFEE11800FC190A18120606030824
:10089000EA10FF0300FF00FFFBF6F8F7FDF3F2E2BA
:1008A000FD0D15F00A000204FBEBF0ECFF0100FF68
:1008B000FEFF06000A18EAE60FDCE8FA05E5F20496
:1008C000010AEC0101000100F7FE030015F40FFF1F
:1008D000E3DBBDB7FBF5F2FB1FF500FC000202FFF6
:1008E000010005FD11FDFC01AF83B7CBF8F2FBF36E
:1008F00008F8FBFAFFFDFFFD0000FBFD0300F4FD1F
:10090000EDF7D4FAF4FEFD09FCF4FAFAFDFEFEFE62
:1009100004070100101DFA10FBF703E80005FF03B0
:10092000FD0AFC14FDFE00FFFA0207F9FD07EC06C4
:10093000F10CFCF0FB0300030502EF10FF020300C3
:10094000FC060301F312F8EEF6200300FA0A03FE98
:10095000FA160809FE00FF0001020506F3FEFC0678
:10096000FFF80902FEF907FC000602090000010079
:1009700003060B09FEFCFEF7F5F4EDFFFBFDF5F4B5
:100980000F080708FFFFFCFC0301080BF31E04F629
:100990000CF10127FFFAF4FE01170FFB00FDFE002A
:1009A0000402060510FF09DFDCD5F601F9FDFF059D
:1009B00015FF06F6000000FF03FE0000F7F5EAFD54
:1009C000F1F500E402FFFEFCF8FBF6F300FFFFFD8B
:1009D000FC010B0BF4132BFAE8DADCE6FCFDFD025C
:1009E000EF0815F900FE0101FCFBFDFDF72915FCE0
:1009F000F0F601F6030AFE01F61E0EFCFDFFFF00F5
:100A0000F503FDF8E802ED10D4FD0D16050702010F
:100A1000EBFFE2EF0000FFFBFBF9FBF90005D7E07D
:100A2000F1E0FCFD0604FCF2E91002F6FCFEFE001B
:100A3000FDFEF504EB19F1F1EBE2F90DF803070601
:100A4000FA26EEE4FFFEFFFFFBF8FCFEF1F1100AD0
:100A50002311FCFA0307FD02F1F907F6FFFFFDFD84
:100A6000FFFE0BFD0F0943D0F00E03040203060046
:100A7000F7FB1007FE01FEFE0C04FEFA19CDD82B81
:100A8000040EFEEFFA060EFD2B1D161D01FDFDFEE8
:100A90000400FEFC1108F8F6F5F9020400FEF4006B
:100AA000F6FEE3D1FEFF00FF00FEFBFD2B0EFEFE77
:100AB000FBFAEFF7FDEFED060607F7FBFFFDFDFF85
:100AC000080DFF0B2CFDFF03FB0AE9E7EC00070E06
:100AD00026F9F0F90302FE0005FBF5F0F30421ED21
:100AE000E0EFFC0AF8D90200001518EA0201FFFE47
:100AF000FF14090214FBE4FB27FEE60C0401E8F7EF
:100B00000E02F406FF00FFFF02F5F3FD08FE1011D0
:100B10003D1FF5320B01FD150AFE04060103FF001F
:100B20000004FCFB080215FB22030C120DFDFF085C
:100B30000A070FF2010000FEFAFCFDF8F00FF00DBD
:100B400012F4DFE7FEFFF2F3F60CE805FDFEFFFF0F
:100B5000FC01FF030D09FD0F00F11305F6FE030272
:100B60000100F10DFFFFFFFFFAF0F4F20EF310F6B3
:100B7000010C2E420200F0FF0801100601010101E4
:100B8000F5FFFDFFE70E0804362C19F408080A0CDF
:100B9000F004FDF80100FFFFFDFAF8F7FEEAE4F2C9
:100BA000FD0E160504FD0407FAEDEAEC0000000056
:100BB00000000600070CF0EBEDFBF0DD0DE8EF02A6
:100BC000F9FEECF2FF0001FFF701090418F50AFF36
:100BD000CAE6BAC5F6F3F90417EFFEF3FF0201FD0A
:100BE000090305000F0608FFAE8DA6D7F9FAF6FA3D
:100BF00001F6FFF2FCFDFEFEFF07FB020308FDFD10
:100C0000E6FCF203FD080602ECEFFBEFFEFEFEFE43
:100C1000080809060921010DFA1813FA050402054E
:100C2000050CF603FDFDFEFF00050BFB07FFEC12B4
:100C3000FAFAF10C07040B0AFEF6EE05FE020200BA
:100C400004090203FB19F1F20703190D0909040451
:100C5000F816FDF9FE00FFFFFC030C0AF4F702147E
:100C6000FBDFF0FAFFFB0601F5FF0111FEFFFF00BD
:100C700005030B0B05050908FF07ED0200FCF6FF55
:100C80000B0305FFFFFCFBFD07070A0A061816F811
:100C90000FEE1906F8FBFDFB0A1711FE00FCFDFF25
:100CA000050308060F0005E6E9CCDAE3FBF6F900D8
:100CB0000D0602F200FDFEFF08060505F2F6EDF452
:100CC00008EBF5F7090AFBF7F3FCE9F800FDFFFF75
:100CD000FF040D0FFB15220010FFEDF8FBFFFB04D6
:100CE000FB0A13FBFFFF0201FF020601072E16039A
:100CF000F5FC0BF907050807F71B09F9FCFFFFFFD7
:100D0000FB010301E70BEA16EC010E0205040505E1
:100D1000E502E2ECFFFF00FBFCFFFCFDFA0ADDDF71
:100D2000F4FCFBDB0E09F3FCE70FFEFBFE00FFFF0C
:100D30000500FD03EE22E0EE01F7FB06FD090805C4
:100D4000F41DE9E500FFFF00FAFC0204EAF10A0ADB
:100D500012FE0D1203050102F0FB00F7FFFEFF007B
:100D600006FF0F0207143AD403F9F60A050503003B
:100D7000EFFB17090100FEFE0E02FDFD11C5DB1E93
:100D8000010A10F90009110239291C1C00FCFEFFA0
:100D9000020302030E0AF0F102F900FCFFF5FFFA6C
:100DA000F4F7DCD1FF0001FF0502FF05300EF8FE6D
:100DB000FD00F3FAF3ECF1F90F02F6FC00FDFEFE84
:100DC0000A12FB1023FAF807FF02D7E4F0080B120F
:100DD00027F8F1FE0301FCFF08FBF5EFFB1626E404
:100DE000E7EEF70CFBCDFF02050F14EF0100FDFC51
:100DF000001307FF0B05F40521EEFE1404FFE3F4D6
:100E00000BFDF20AFEFFFFFEFEF6F4FC05FD0F17D8
:100E10002A32111705F6EC0610030300000301FE49
:100E2000FD01F6F70AF712E9190101010BFBFA04BB
:100E3000FFFB08F10102FFFFFC00FEFBF50FE802DB
:100E400004F8E0ECFE02FBF6F905F10CFFFEFEFDF6
:100E5000F3010102060BFE0CFAF72B17EC0202FA63
:100E600001FEFA05FEFDFF01F6F0F2F308F00B03B8
:100E7000F302232FFF06F7FA0D010B03FEFF01011A
:100E8000F6FDF8FADC110AFC302514150104000403
:100E9000E005FAFD000000FDFCF7F5F5F8E8EAEAE8
:100EA0001104090D06FE0100F9F2F1E9FF00FFFF50
:100EB000FD0205F8090BEADE02EDEDEB02DCE600CF
:100EC000FAFEEDEFFF0101FEF4FB02FC16E4FAFE70
:100ED000EEDAC4BB00F8F8F71CF50EFDFE0001FFCA
:100EE000FFFFFFFD13F504F6B5B49EC6F6F8F8FA59
:100EF00006FF0AF6FDFCFCFEFB00FAFC0B08EEF414
:100F000015F80609FEF7FF0EF8FA00F5FFFFFEFDE3
:100F1000020500FF0D1AFA140E1C2A3306FAFFFF11
:100F20000514F70BFEFDFEFFFA000AF60103E709C0
:100F3000220D0F11F5FE0103FFFEF205FF0102FF76
:100F4000FC07FF02FB1BF1EC132B29290106FE0C09
:100F5000FB1FFFF4FD010000F9010608F7F4FE078E
:100F60002113241C01F1FDFFF7040102FEFF00FF25
:100F700006FD0C04080008F522FBFC05FEF9F1F95A
:100F80000702090BFEFDFCFD05070A0DF11612F91B
:100F900010161E0EF8FA0001061307FD00FFFEFDF5
:100FA000040509041701F9E9F6E3F10008FDFB085F
:100FB00011FC06F5FEFEFDFE05FC0105F7F4FDFE45
:100FC000160DFC090206FF03FA00F3F6FFFEFDFF13
:100FD000FF01110EFB112AF4F7F7FE1AFBFBFEFBD3
:100FE000EC061EFAFEFD0101000003FE012DFBEEE2
:100FF0000DFB010002030403FD260404FCFEFEFFBA
:10100000FA010102E400DE0BFDF81F0700010B03EB
:10101000F003EEFBFDFEFEFAFBFFF9FCF20AD6DB65
:10102000FCFEFCF60602F5FBF61200FDFBFE0100DD
:101030000108FF05F215DEE2FF1E15EAFB07020AB2
:10104000FA21ECE7FFFFFFFEFBF7FD01DBDAFB0413
:1010500006FBF41503FDFE02F6FF0E0DFDFEFEFF7E
:10106000FFFD0E01060A30CD17EB020201FFFE0361
:10107000FA021405FFFF00011102FAFD0EC8D61F87
:101080001B162AEB000304FF3420161B02FBFEFF95
:10109000030303050E0AF6F7E7F501EBF4F001F997
:1010A000FA03DED3FF0003000802FD0D2D03ECFE62
:1010B00007F2DA07FCEAE9050FFEF3FE01FFFF0184
:1010C000FD00FFFD0EF7F8F4FBFE02F7234571600B
:1010D000FA02060100091311FEFBFCFAF2FCFC23E4
:1010E000001604F9341C402E0803FE0E0F0B0709EE
:1010F000FBFCFF001E060F0FF4FD0C093319272D12
:1011000003EFFB010A07090400000000201900FE9C
:1011100009110C0615040C09FBF9F1EF040002019A
:1011200001FF010401EEEFE0FA02040706111811B5
:10113000F7FFF8F6FFFF02FF050300FFECDCE7F521
:1011400014120A0802001215FBFCF9F8FEFAFAFF65
:10115000FCFDFF00010804050D09030112030D1831
:10116000F5E8EBEC050201040202010308FBF6EFCF
:101170000CFFFFF92026141FEDF8132603040706C1
:10118000050101FEF4FE0404F2FCFE0030242118E7
:101190001AF6F4FD06050306FCFBFC00F20401113F
:1011A00009100F051B171903F9F4F905080C0C0CAD
:1011B000010501FF26765F0600F7F5FF0D150B1BF5
:1011C000FC01001A02F70106FEFDFCFE06FA090604
:1011D0000506F9FF221C1B05150D090C0204040469
:1011E000FCFCFD0107FD0803FD06F8F408151613C5
:1011F000FEF4FD0B0200000001010101FF030D0BD5
:10120000FF01FE0216121812FD020004FE01FDFF8E
:101210000002020003090CFAF9FBF7050D110A019F
:101220001B0810020000FBFC00FBFBFE08FDFF0E8C
:10123000FEF300F7090D0F0F10090210FEFFFD006D
:101240000100FEFE0DFD01FDFBFCF2F8080C0FF99C
:101250000CFA150602FE0000FEFDFFFEF902FA067A
:10126000FD00F9F80A06050A090907FF0301010153
:101270000001FF01F7FE1001F80508111D11100E05
:101280000805010003040202FFFEFE00060F02F83B
:101290001BFFF9F412FDFEFDF6FA030F05070B0C18
:1012A000FFFEFDFEF3FE0703F5F2EFF70B0E0F1A3C
:1012B000F4FFFCFA020407060200FE00FFFB0C0923
:1012C000FB08020108071221F5F7F20104090308DF
:1012D00000FDFAFBFBFFFD020004140F1411291F8F
:1012E0000C0AFAFE05040106FEFEFE020A030205D0
:1012F0000B090DFC0D1B040400F8F410020003029E
:10130000010100FF0101070B010304F406021401AF
:10131000FBFF00FC01040300FFFEFEFEFEFA0408D2
:10132000F70708FE0D03020C0B0616180201040055
:10133000FBFB000004FCFC000C0506FE0200FE04A2
:1013400003010D07050001FFFF030001020CFE036E
:1013500005FAFC08FE08FB050103FAFD03FB00FF8C
:101360000402FF00020C07F7060607000202FC0059
:10137000FEFCF70101FE00FFFD020302F4F8FB0C86
:10138000F5F2FCF40403FF07FE0C00FDFDF9F4FE8A
:1013900002FE0103080B0403F804FDFF0D06FF061F
:1013A0000C030A1107070A080100FE0106070F0BCC
:1013B000FDF8FEFB0705FC02080F0A0C08070802EF
:1013C000FD0101FF0C00F9F100FEF7F81B41573851
:1013D000F60505FA00040D0BFCFAFEFBF7030033DB
:1013E000010E01F8210A2A260304FB0A0F0F000749
:1013F000FBFE0000230D130CF6F4FD1330181B1434
:10140000F801FEFB0500FFFF020201001F180A0E93
:1014100004110AFF05020AFDFBF2F2F303FDFBFBD8
:1014200000FEFE0413EFEEE2F801040D05151B109B
:10143000EFFCF7F9FDF8FDFD0503FFFFDEDCEAF93F
:101440001B120E100C11F4FA0203FBF2F8F6FBFC6F
:10145000FEFD00000F07FE06110F0605FF090E1521
:10146000F1E3EDF101FEFEFF02030303F9E9F1F3FD
:101470000F03FAF416171D1DF2FE0F290002FD01DD
:10148000030301FDF9FB03FBEFEDFEFA1E1A1A0B35
:1014900018FCF4F800FF02FFFDFCFCFF0A02F6FB5B
:1014A000F5090B07071B08FD02FDFB0401080A08EC
:1014B000FF0303FE237964090503F7F90A081C1FDB
:1014C0000402031602F8F804FDFEFDFE03F1F80520
:1014D0000705FEF71919180A110C0604FDFBFBFBA2
:1014E000FFFDFBFC09010500F806FC001B0C1510B4
:1014F00003F5FD00F5F801FBFEFF0000FB0907FA0C
:10150000FF01010010090A26FDFC0008FEFCFAFAA2
:10151000FF01020101FD020BF3FBF8FC270A150D88
:1015200013081505FDF8F8F8FFFBFBFF06FFF4F4C0
:10153000F6E9F4041A0C110D09060402F8FAF8FC95
:1015400000FEFEFFFE00F7FA020502F2111F10096D
:1015500007F7000CFCF9FAFBFFFDFEFCFD06FA069E
:10156000FB08FB0405110408070703F2FEFBF7FE66
:10157000FFFEFC01F6F8FBFA010A060613100B0841
:1015800001020006FFFFFFFEFFFEFDFFF9FB03FF68
:1015900013FCF6FB0E0A0D0EF7F609090202080508
:1015A000FFFCFBFDF1FB0203F9F1EAF118100D0558
:1015B000F9F8F6F8FDFD010000FFFD0005FA0A0844
:1015C000F2FF0A0C1402090BFEF7EFF6000400FE0E
:1015D000FEFDFAFB06FEFD01F9FE12060E021112D7
:1015E0000C09F704FEFEFF04FDFDFDFF0BFF0507E0
:1015F000050611010916000A03F2F408FCFBFBFBC7
:1016000000FF00FDFC0B0608FE02FDF9071612F3B1
:101610000A0605F1FAFCFEF8FCFCFAFB030606FDDF
:10162000FD0305FC0D01121801000E0DF8FB04FC72
:10163000FCFCFF0002FD0208FA0002FBFB080904A3
:10164000FFF80202FFFAF9FA0001030205040F0392
:101650000702FB080C09FD0FF8FD04FEFCFAFCF87C
:1016600004020102FBFEFDFF0102FEFB090FFFF772
:101670000003F3FFF8F7F8F7FDFF0300FA0B04038C
:10168000F8F5FFFC10070D09F202FDFCFDFAF7FD6D
:1016900001FEFE01FF010208F8F9FCFF051102013D
:1016A000FE07011403050709FEFF000403020109F8
:1016B0000200F7F806081209070F0D0E07070302CC
:1016C000FD0404010905FCF3FBFEFAF7121207E919
:1016D000F90606FD00000603FDFDFEFCFDFE073ACF
:1016E000010DFCE5E9EBFAF70B07FC130A06FDFE1A
:1016F000FBFE0102290C1E16EFF9080D020402057B
:10170000FD01FC02FCFCFCFD0101020016170A08A9
:101710000F070904F3F70305F9F6F0F9FEFBFAF9F0
:1017200000FFFE020BEEEAE5FAF7FB0807EB0DFB04
:10173000FAFAF3FAFCF7F9F904030000DFDAE9F149
:1017400013131B160901F2E7FDF7F9F1FCF5FAFF97
:10175000FEFE00020D0603FD190D0C02F6F803FE55
:10176000E7E3E9ED0201FDFD01020306F900F7F3ED
:101770000803F9F2060E000EEFF81C30FFFDFCFF27
:10178000030101FFF4F9FDFEEAF0FE0307F80F087C
:101790001DF4EDF7FEFCFCFDFFFCFCFEF701F8FF7D
:1017A000030B120CFD000B10FAFAFE04000A0B05E5
:1017B000010302011E7F5D0DFFFEFBFB03050D0A09
:1017C00001FDF716FCF7F8FD01FFFF00FFF3FF0D29
:1017D000030C05F81C221DFB0F0A0B11FAF9F8F592
:1017E000FFFDFFFF060C07F3FB0BFEFE0D100A08C2
:1017F00002F0F206F5F8F9FB00020202FF0307FB14
:101800000305FDFF140E1411FBFB020EFBFDFAFA9B
:1018100001020100FA070700FF05FD010A181B1964
:101820000D0B0CFFFCFBFEFA00FEFF01FA00F7F4C3
:1018300000E7F40417F8EC0008080206FDFCFAFBC8
:101840000100FE00FDFC01FAFF01FCF9090B070A8B
:1018500005F30302FCFDFEFF000000FEFD02030392
:10186000FEFCFBFF1D1C0E16070D01FEFBFDFDFF20
:101870000002FF0106FCF603FC11131616190E05F3
:1018800004FFFA01FEFAFDFD00FDFE01060705FC5E
:101890002100FCFC17011610F6FA050502080704E2
:1018A000FFFEFDFFF8FFF8FAF3E9EFE90009100188
:1018B000FDFBEFFDFFFAF9FEFFFEFDFFFD0A060648
:1018C000FA010406141B05FAF4F7F1FBFF0200020B
:1018D000FFFCFBFA0505FDFFEBFE10070B100005F2
:1018E0000E0AF7F8FDFAFD01FBFAFBFE0B00F6010C
:1018F0000A010C020E12151000FAF001FDFDFAFCAF
:10190000FCFEFEFBFE01000E040D01F9010304F6CE
:1019100002FEFFF2FEF9F9FBFDFBFBFA04060405EB
:10192000FC0B0806F7011205FEF70F09F7FBFDF99E
:10193000FAF9FEFF0BFC020807FE07000304F50A94
:101940000300FCF9FAF8F5F9020201030B1100019A
:101950000302FB09FD0404F9FBFAF9F9F4F6F6F6C3
:1019600005030001FF02070009080801090D08032B
:10197000FEF7F006F8FAF8FCFDFE02FFF709090889
:10198000F9F7FAFF0CF7F2F7FC01F7F0FFF7F5FAB9
:1019900003FFFF02060BFBFBF6F5F8FE08FCFC0656
:1019A0000805F7110104030700FEFE01FF0002FA1B
:1019B000FDFEFCFC020005F9FF0A0E070406040503
:1019C000FE0406030DFBF6F6FA02F8F1FDE6DAB6C0
:1019D000FE03FEFCFEFDFFFDFEFCFEFE0201FB30F1
:1019E0000A15F7E5B4BBD8D10205FA080406FEF8DB
:1019F000FCFF00021B051A13F7F6070BDFFCEFEAEA
:101A0000F7FAFAFFF9FCFDFC03020201201C1005A5
:101A100004070E00EDF9FFE3FEFFF8F9FD02FEF802
:101A200002FF000405F5EFFA01FAF804E0EBF4F622
:101A3000F8F4F0F5F9F8F8FC05020201E6E2F5F633
:101A400013120E13F8E1CFD2FDF0F7F2F9F8F8FE19
:101A5000FF0002020A0CFDFE16080A08E7F3EFEB8E
:101A6000E2EDECF1000403FD04050508FFF4F1EFDD
:101A70000E0704F2EDF7FEFBF8FA1426FDFBFBFC63
:101A800007050300EAFBFB05E7F201FE06FEF2F99B
:101A90001BFDEDF5FCFDFD0000FFFE00F8F7FE1755
:101AA000060C100FF9F5EBF0F5F9FBFF020608093B
:101AB00002050303286852080DF8ECF9FBFEFAF959
:101AC000F602011200F6F7010302030302F8F9100F
:101AD0000610FDFBFF07F1F205FE070601FEFAFE08
:101AE000000202040D160B0401FFFCF0F9EAEFE717
:101AF000FAF40409FDFBFFFE03050505FB0306FDE3
:101B0000FB03F701F7EFFD06FD00080403FFFFFEEE
:101B1000050403040005FBFBF902F9FD01FAF600D8
:101B20000D050E0A0101060404010206FD01F8F686
:101B3000F9F0F503E3E2E4E61005FD03020201001B
:101B40000503030401FE0402FA01FAF8F7F5FFF7B2
:101B500005F9010600FE0102030101000602FB0374
:101B600000FEF8F20001FBFB0003FF04060405027F
:101B7000010302030A06FBFFFA0C111001F2EDF655
:101B80000BFF06030404040500FF0001F6FAFCFC49
:101B90001E04FCF8010501FCF805030604080A0709
:101BA0000100FDFFF0FF06FAEEEBE8EFF6F7F8FFB5
:101BB000FCF6F0F80302030500FF0000060307002F
:101BC000FC050B0306FEFC09F0F9F3FD040102001D
:101BD00001FEFCF9FAFFFC07F3F90708FCFEF3EF3E
:101BE0000F09FFF80400FF03FBFDFEFFFEFD07F7F2
:101BF00007030704F3F3EAF305FDF502FFFEFB001C
:101C000000FDFFFCFC040E0203050708E8EAF6E904
:101C1000FFF8FCF0FEFCFBFAFCFDFAF9FE04FF0BFA
:101C2000FE010D09FEF70700FBFD0108F8F900FCB5
:101C3000F9F9FF0006F9FC040A060CF6F7ED0110AD
:101C4000FBFBFA00FDFBF6FD02020304010210F9A2
:101C50000008FF05F7FE03F3F8F8FBF8F7F7F9F7CC
:101C6000060400020103FDF9030C07FBF7F7FA0174
:101C700001F6F903F7F9FAFEFDFF0301F800F5FE9E
:101C800002FEF9F1FFEEF7F8F8FDFEFCFEF8F8FDB4
:101C900003000203FE030BF9F701FD00FB01F8F45A
:101CA00001030007030405050100FF02F6030AFB18
:101CB00000F907FAFBFCE907020BFE000603040229
:101CC000FD0304020A00FDFF02FF01FBFBE1C0B9B6
:101CD000F90501FDFAFCFF0000FCFEFFF80E0120F3
:101CE000051203F4B7B8BAA60508FB0C0305FEFA03
:101CF000FFFE010121081613F1050610D2E6DFE40C
:101D0000FCF1FFFBF6FD0001000302000F110312BE
:101D10000E010708DCEADECEF7F5EDF300FFFCFC70
:101D20000101000315FEFEF6FCF8F908D6D7DDDF49
:101D3000FCF6F2F9FDFAFA0005050401E7DBECFD1B
:101D4000191B0B0EE2D9D2D0F5EEF8F7FFFAF8FD29
:101D500000030202170FF203140F0D07E6EBEDEB81
:101D6000F4EAECF205020303030505090AEBF0F2BD
:101D70000A03F5EEE6E4EDF0EFFB152900FDFEFCAD
:101D80000604050205FC0307EFF5F9F7DADADDE4EE
:101D90001CFBFCFA0101FF0200FFFF02FAFDF70F36
:101DA00003070F06CEEBE5EEF6FFFAFF070B0B0D70
:101DB000040506032B7F630DFF01F8F503F6F4E736
:101DC00001FEFF1804F8FA08030202030002F803F8
:101DD000FF02FC01E1E7D1CC090C02040403010479
:101DE0000103020401000307FBFCFDF4CDC9CACEC8
:101DF000FEEFFC0C030002050404040609FFFEFAD2
:101E000000FEFA03DCDBDCCF080A0D020604020048
:101E100006030405030901F6F1F2FAFAD4D2D1D58A
:101E2000101211150408090505030207FCFCEEF564
:101E3000F3EBF4F7D6D7DAD6180E07110504070628
:101E400005020404FC02FF020102FAFBDACED6D539
:101E50000B0007030801050902010101040D0D0B28
:101E6000FAF2F3FAF1FAE8D904160BFF09090702AE
:101E7000030103010504FAEE0007040DE1FBEDD4B4
:101E8000050904FF06080205FFFFFF010705FBF730
:101E90001BF2F8F5E5F5EBE9FAFF051209090D0962
:101EA000FFFFFC00F2000305F7F2EBDCF1E1ECE8E8
:101EB000F8F7EEF705050708FFFEFEFF020205FF33
:101EC000F5000106F1DAEBEAF1F6FAFE08080C0675
:101ED00000FEFBFA06FDF903F7010D06F2E9F6DE56
:101EE0000904F9F208040505FBFDFB00FCF6FF0000
:101EF000080A0002E6EFECF4FCEDF8FE03FF00FE3A
:101F0000FEFBFEFB0B0604010404FCFCE8E3F4E426
:101F1000F5FA07F6030300FCFEFBFCFBF9000205E3
:101F200002000702EEE8FF0CFDFC0D07FF040300B2
:101F3000F8FBFEFD040805030E080205FAF0F2ECBA
:101F400003F602FD05FDFDFF00010102FAFE03FD9F
:101F5000FE070303DDEEF4EAFBFC02FFFCFE0100DA
:101F60000604000101F4FCFB000602FAF3EEFAF6A7
:101F700000FFF108FFFDFBFDFF000303F60AF7FE7B
:101F8000F5F6FDF70802F7F8FBFFF801FEF8F90295
:101F900005010001FA050008F5FD00FAF3F2F5FA73
:101FA0000802FC0404060B0B02020202090FFBFEEE
:101FB000FEF4F8F505EFFAFD0C150E0D0707050503
:101FC000FAFCFFFDF9FAF7F9FEFE0200F9FCFEFD4E
:101FD000FF000300030306030003000AFC030306DB
:101FE0000000FF04FAFBFE01FDFFFEFF05050107EF
:101FF000090205FE07FBFDFF01FE03030001FE00D1
:1020000000FE010105FF05FFFAF4FCFF02FEFD01E1
:10201000FEFCFE00FEFEFCFC0101FEFFFCFCFF01DD
:10202000F8FDFDF903FAFCF7FCFF0001FBF9F8FBF2
:10203000030000FFFF060805F9FAF4FCF9F8FA01BD
:10204000FF00FF00FDFBF9F7FEFBFD02FFFCFC05B6
:1020500000FBFC0105000202FF01FEFEFB00FFFC8D
:102060000300FE0005FFF8FDFAFF0501FE0002FD7A
:102070000000FEFDFDFBFBFF020001FEFF01FEFE76
:10208000FEFAFDFC01050401FFFEFDFCFEFCFAFD6D
:1020900000000001FDFEFDFAF7FC02010104070A41
:1020A000FBFDFEFEFDFBF9FB01030201FDF8F4F769
:1020B000FE0402F802FE02F7FCFFFEFFFCFEFCFA43
:1020C000020203FEFCFAF9FEFAF9FAFEFBFDF9FA48
:1020D000FEFEFF00F8F7F7F800FFFF02FAF9010231
:1020E000FCFBF8F4F7F5F3F2FDFFFFFDFA01FFFB4F
:1020F000FFFE000101010103F4F3F4FBF7FDFCFF17
:10210000FBFAFDFDF7F6FAF6010201FCFEFEFF0404
:10211000FCF9F5FCFE01FBFC00FFFDFFF6F6F8F80C
:10212000000202010B050501FAFDFB03FDF6F4FEBA
:10213000FFFEFEFEF7F8FAFA01FCFE00FD000500C6
:10214000FCFCFD02FFFCFFFBFDFEFF00F5F9FBFCC4
:1021500001000201FEFCF9FDFBFCFFF8FFFBFEFEA7
:102160000102FFFCF8F9F7F803050201FF01FBFA91
:10217000FEF8FAFD01FE0003FDFFFFFCF6F4F6F7A2
:1021800000020002FB00FC00FBFAFAFD030404025B
:10219000FE0000FFF6F6F5F806000101FE0202015E
:1021A000FF00010403FD0205FD000101F8FCF8F742
:1021B00001FE010101FDFFFB040C0702080C0604EF
:1021C00004040405F6F5F8F3030502050201020311
:1021D00003FFFC0003FDFD0006090605F7F4F8F80F
:1021E0000302FE000A0A0D1003FCFBFE070608FCB2
:1021F00007020104F7F5FAFB0102FCFB0E090405D6
:10220000FC00F9FFFE0300070205000100FD01FECE
:10221000FAFF020201070401FAFEFBF903FFFF00C7
:1022200000010000FE0100FE01FCFAFB080C0C0C92
:10223000F9FF04F900000000FCFF01FEFF00FCFFB5
:10224000FF020305090A05FF03FF03FB030405035F
:10225000010000FEFFFEFBFF04040200FEFDFDFF87
:10226000F9FEF8F90001FE01FEFEFFFFFF0000FE8F
:10227000000100FFFF01FFFCEEF1F8F7FF01000293
:10228000FEFBFDFEFC02010000030203050100FA53
:10229000F3F1F8F2FFFFFDF8FFFAFDFC0104010481
:1022A000FBFDFFFEFFFCFEFBF1F1FAF8FCFDFEFF7B
:1022B000FCFCFE0002010101FBFBFDFCFBFD00FE3E
:1022C000FDFA01FCFBFCFBFA00FE0300FAFE020132
:1022D000020102FF03030400020A01080008090EBC
:1022E000FE030204FCFC0203FEFEFBFEFBFE0108F3
:1022F000FFFBFEFE06FFFFFE02FE000303010103DB
:102300000001FF0008FE0403FDF9FBFB05020103C9
:10231000FEFDFD0100FFFF000201FEFFFF00FF03C5
:10232000FCF9FAF705FCFCF800FE00020000FDFFD6
:1023300003FEFE0003020203F2F901FFF5FA0105B4
:10234000FE000101FEFDFBF901FDFC00FFFDFE01A9
:10235000FE0102FC0706060201010000FD02040561
:102360000303FF0101FEF6FEFDFBF9FF0303FC0082
:102370000201FFFF01FE0102010000FEFF00FEF767
:1023800003FCFBFC05090C0501FF00FC02FFFF0636
:10239000FF000100F7FDFDF904070C09090C110C01
:1023A000FE0100FF0300FDFE03040202FAF9F4F54A
:1023B0000603FEFA08FFFD00FDFFFE01000303FF18
:1023C00002010101F8FBFDF7FEFDFDFE02FBFBFC37
:1023D000000001FFFF00FF0301020103F6FA020003
:1023E000FEFBFDFDFBF9F7FC00FF00FF05080607FB
:1023F00002020203FEFEFDFF02FC000304030403CD
:10240000FDFDFFFF0203000104040301F8FEFE01CD
:102410000102FFFFFF05060101FFFFFE00020303AB
:1024200005050504070402FF01FD010600FCF9FF94
:1024300000FDFDFE0505040205010103FCFE03FA93
:10244000030309040101FD01FFFD00010103030471
:1024500005020503F7F6FEFD0606010100FCFE017C
:10246000020400020104040105070404FE01FBFD4F
:10247000FE0206090106030700000101FEFDFDFC46
:1024800004010204F9F7FEFF050205030705060330
:1024900000010402FBFEFDFF04020000F9FF01053C
:1024A00004040A11020107060001050700020000EA
:1024B0000100010504FE00FF090D0B03070C0705D1
:1024C00007050706FCFCFEFB0303020302FFFE03F5
:1024D0000705FF0302000202080D0708FDFDFDFDD0
:1024E0000201FEFF080A0D1302FCFEFD060605FEB2
:1024F00009040205FCFC00040001FEFD0C0302FFC0
:10250000FEFF01FFFF0301040405030506050305A3
:10251000FAFD0104FE060805F7FCFEF7FD0102FEC8
:10252000000000010402000100FBFBFC0209090994
:10253000F600FEFC00000000FEFEFFFF00010000B0
:10254000FE000104090802FF0404FFFB050201FE6E
:1025500003010201FDFCFD00060302FF00FD00FE79
:10256000F3F7F6F8FDFEFD03FDFDFFFF0404030194
:10257000FF010102F9FE0002F0F3F7F700FF02FD90
:10258000FCFEFE00FD020104FF0204020103FEFD49
:10259000F6F7FCF6FDFFFFF8FFFCFC000304050660
:1025A000FDFDFFFEFFFCF9F6F1F3FDF1F9FCFBFA8E
:1025B000FFFE000007050603FDFDFFFDF8FF00001C
:1025C00001000503F9FDFDFBFF020300FAFE000117
:1025D000010201FE020400FF0403030601080E14B9
:1025E000FE000004FBFB0006FDFFFCFDFCFF0104F8
:1025F000FFFE00020FFCFD0200FF000305030203C3
:10260000FEFCFEFF05010402FEFD020005020205BC
:10261000FFFD000305040103FF02FEFEFF020003AD
:10262000FEFE000003FEFCFD0100030301020404A2
:1026300001FFFEFF0205070303FE03FF00FCFF0787
:10264000FFFC0200FFFFFFFD00FDFCFFFCF9FEFFA9
:10265000010603FF030504030002FFFFFF0709084B
:102660000202FE000200F7FA0404FF000404020163
:1026700000FFFF0204030304010100FFFEFDF8FB5D
:1026800005020400050B0C070100FEFD0705050906
:10269000FF020104F8FCFDFE0A0C0905060F1007F5
:1026A00001FFFEFE0803020603040302FFF6F2F335
:1026B000FE01FFFD050200FEFCFEFC010302030219
:1026C00001020001F9FBFBFE0100050803FBFDFE12
:1026D000000003020103020803000104FBFE0202E2
:1026E00003040304FEF7FBFC010002FE080D0D0AC3
:1026F00003020206000102FF0C0909090605010593
:10270000FDFE01000A08080406070403FEFE030696
:1027100009060E100001060600FEFF01060A0A0C5B
:10272000050305050904FFF90E08080F0301FC0263
:10273000FFFEFEFE0A080A0905020304FBFE05FC73
:102740000E0D0E1301040103FFFF0603080808081D
:1027500005040705F9FCFEFE0A0D0D0900FD010048
:10276000020301010B090708050704010003FEFB32
:1027700006050B0B01020405010301FF050300FF21
:1027800003020404FBFBFBFE040C09050708050417
:10279000FE010402FF03010205010100F9FA000332
:1027A0000D0A0411050002050301010403060603D6
:1027B000FFFF00020000FEFD11130F10050B0C06B9
:1027C0000906060A030502FE0201030303FFFEFFDA
:1027D00006070605FFFCFFFD090A080702030102C0
:1027E00002FFFEFE0B0D121304090403010704008F
:1027F00005040303FFFF0406FF00FDFC0D040501B3
:1028000007FB0403FFFD0207020202030908050398
:10281000FAFB0004FF050508F9FAFCF9FDFDFCFDD3
:1028200000FF01000404030400FCFBFB050A08068A
:10283000FA020403FDFE0100FF01FF01050501FF8F
:10284000FD010504090A02020000FEFC0205010068
:10285000FFFF00FF00FFFFFF0403000201FEFDFD7C
:10286000FAFDF7F7FDFFFE00FF00FEFE0200040286
:1028700000020000FCFD01FFF8F3F7FB010200FE7F
:10288000FDFBFCFF00030206FF020402FF00FCF94F
:10289000F8F8FDF8FCFCFDFBFEFBFDFD0407080756
:1028A000FFFD020000FFFFF9F8F7FDFAFCFAFBFE5E
:1028B000FDFFFDFF07070702FEFF01FF0001010109
:1028C000FFFD0001FAFCFFFCFEFEFFFDFAFD020128
:1028D000020101FF02FEFF0100040103FE060C10CD
:1028E000FCFF0004FBF8010AFE00FDFBFBFCFE01FF
:1028F00001FDFEFF0BFCFAFF0100000007040303CB
:10290000FDFCFEFF070102FDFEFE01FD04030005C4
:1029100000FF010103020003FF00FEFF00FEFE03B3
:10292000FFFBFF0103FFFCFE01FE020302030202A4
:1029300003FFFEFF0200070001FFFFFF00FE02058C
:1029400000FE02FF0101FFFCFFFCFD00FBF7FD00A4
:10295000010301FD010304010102FEFFFE02040662
:102960000400FFFF03FFF5FCFE0000040204FF0269
:1029700001010000020102030101FEFFFF01FDFB56
:102980000800FE02050B0902FFFDFDFF050003071D
:10299000FFFF0004F9FDFBFE02030A090409100D04
:1029A000FDFDFF000603000002020201FBF5F3F645
:1029B00005FF02FF010100FDFEFDFD0102FF01FE1A
:1029C000FF0200FFFAF8F8FD0601FE0100FEF80024
:1029D00003FFFF00FDFD00FF01000105FCFC0400FA
:1029E000FBFA0003F8F4F5FA010101FF04090704FA
:1029F00002010104FCFF03030101000100010000CA
:102A0000FDFCFD000203020103050302FBFEFD02C3
:102A100002010807FE02010001FE00000102030599
:102A200003020505060803010400010600FAF7FF8A
:102A3000FFFDFEFD0404010004020204FEFF02FD8E
:102A400004030A0EFEFCFDFFFE0002030203030264
:102A500003010605FBFE01020C0B0B04FEFAFCFC55
:102A6000020404FF0001030307090502FCFFFEFA4C
:102A70000708060301030003020401FFFFFEFDFE39
:102A800003030303FF01FEFD030B080B03FEFF001E
:102A9000FD030302FF000000030101FEF7FF030531
:102AA0000A0B0D1002FD03010103060500020302DB
:102AB00000FFFF0200FBFBFB120D0C0B0805FF01E2
:102AC00007030609000402010200000101000403DB
:102AD000080B020500FFFCFD07090605FDFDFE01D0
:102AE0000303FEFE080B110F03FF0207000202FEA4
:102AF0000402020100000203FD00FCFC0A080801B8
:102B00000600FCFDFB0001010100FFFF07070606B0
:102B1000FCFBFF0103030604F6F7FEFCFCF9FCFBDB
:102B2000FCFCFDFE0704040501FDFBFB020A0A0490
:102B3000FA000004FCFE0000F9FEFF020603030396
:102B4000FD02040409060001070101FC050005025D
:102B5000FEFEFFFF010100000202010102FDFDFF78
:102B6000F2F6F9FA00FBFE05FCFEFDFE030403018C
:102B700001FF0001FB010202F4F6FDFBFF01010170
:102B8000FDFBFCFD00020003FF010402050200FA48
:102B9000FCF6F4F600FDFBFBFEFBFDFD0507080857
:102BA000FD000101020000FFF2F5F9FAFEFEFEFF52
:102BB000FC00FD0005090807FEFF0300FC030503F8
:102BC000FEF5FCFDFCF9FBFDFFFD00FEF9FC030139
:102BD00000FF02FE0001FFFD010400000006080CDA
:102BE000FDFE0101F9F90108FF00FDFCFBFEFF01FC
:102BF000F70000030A00FD02FE000101090201FDC9
:102C0000FBFE00000400FF0000FF00FA0102FF03CA
:102C10000000000000000001FF00FEFE0001FFFCBC
:102C2000F9FC020303FDFAFBFDFE0103000000FFB7
:102C30000200FD0000050404FFFCFAFDFDFAFE029F
:102C400001FEFF00FEFDFDFCFFFDFD00FCF8FDFFA9
:102C50000500FCFD060100010301FEFFFAFCFFFE7A
:102C60000401FF0105FCF5FAFDFEFCFCFFFEFFFC84
:102C70000001FFFE00FFFE0301000000FDFEFDFB62
:102C80000301F9FF050B080700FDFDFE04FDFDFF34
:102C900001010104FFFDFBFAFE050806040A0A0A09
:102CA000FD0002FFFDFAF9FC03030302F9F4F3F659
:102CB0000100FD0104020000FBFDFE02FDFFFFFA22
:102CC00001020002FAFCFDFEFFFEFB0000FDF7FB27
:102CD00000FF0002F5F9FAF90301FF03FE02040008
:102CE00000FBF9FCF8F5F1F402020302FD00FFFA23
:102CF0000102010300FD0000FDFEFBF902FDFDFDE8
:102D0000FEFEFFFFF6F8FAFA03030400FF00FD01E0
:102D1000F7FFFDFBFB010100FF00FEFEF6F6F7F7F3
:102D200005040605050002FCFEF7F901FEF6F6FCB7
:102D3000FDFBFD00F6FBF8F905010102FC0002FFB6
:102D400003FEFF02FCFDFBFCFFFE0001F6F9F8F7B5
:102D500004030706FAFCFEFD020200F8FFFCFEF782
:102D6000010200FFF9FAF9FB08090404FB01FEFF68
:102D7000F9FEFE00FCFCF9FF000100FEF6F8FAF98E
:102D800006040404FFFBFFFFFF040202FFFFFFFC39
:102D9000FE010201F8FAFAF904020200F9FDFF004F
:102DA0000304030600F9010200000102FDFFFDFB20
:102DB00002010105FF00F9000A0B0C0505080200DD
:102DC00006020403FAFCFBFB03040200FFFEFBFF08
:102DD0000302FAFEFEFCFBF804090604F9FBF9FE07
:102DE0000604FFFF080A0F1607FCFCFD01FF00FBAD
:102DF00004000001FEFCFD0000FFFCFF0B050003CA
:102E0000FF00FFFEFBFE02FF0200FCFD05030305C1
:102E1000FDFE010204030303F9FBFCF9FCFEFBFBCE
:102E2000FCFDFEFD0302010302FEFEFE050D0B0884
:102E3000FFFB0201FC0000FBFDFDFEFF02010002A2
:102E4000FD0205030A08FF020306FEF9020503045A
:102E5000FE02030001FEFEFF03030100FFFEFEFE73
:102E6000F3F8F6F202FC0101FF00FDFD0001010193
:102E70000201FF00FDFF01FEF2F5FBF8030205FE73
:102E8000FCFAFEFFFF03FEFE01030603050301FA41
:102E9000F8F4F6F5FBFD00FB01FBFEFE0204020662
:102EA000FE0001FF0404FDFDF4F6F7F4FF00FBFF54
:102EB000FE0103FF02050302FEFD010203050603F6
:102EC0000E07FFFFF8E0DCE3FDFC0003F7E2CDD6E0
:102ED000FA00FE0D01FDFBF9060204FEE9F2F0EB3B
:102EE000070F020FE4EBE7E805F8FFFEFD0003051E
:102EF0000003FF06FEF1EDF308FF01F6F1EEF4F733
:102F0000F804F5030507090403050400FCFCF6F5C5
:102F1000FBF4FF01FEFAF9FAF302061902040304B6
:102F2000FC0505FE00FCFBF5FBFEF7F3FEF803FFD6
:102F3000130AFAFB03040D0FFAFAFD00F8F3F0F0A0
:102F4000F5FEF2FC00FBF6F4F2F3060D0804FDFDBD
:102F5000FFFBF3FBFB00F2FAFCF9F9F9FC01FAFBC9
:102F6000F7FAEFF8FF01010206080804F4F6FBF295
:102F7000F0F8FFF5FBF6F9F8FA10FBF50405030786
:102F800002FE0205F8ECF2F9FAF4F1F5FAF4F6F4BF
:102F90000D1D06F705020303FCFAF7F7F1F9FA0134
:102FA000EDF8FDFAF3FCFEFFFCFAF8010104020360
:102FB000FB000307F8FFF9F6010603F0FD0001FA34
:102FC000F3FBF50B01080704070307FEF9FE03FEF8
:102FD000F4F3EBFCFDFCFFFF0F09ECFB0502010223
:102FE000FCF9FAF9F9F9F6F8FAFEFAF3F9FDFAFC48
:102FF000FBF3FCED04020606F8FAFF00FFFEFAFE02
:10300000F1EFF3FA0101FD03F2102A2E030105048A
:1030100009FD0104F5F8FEF801FCFC00FDFF0204C7
:10302000120904FA02FF01FB01FE01FCFDF7F9FDA4
:103030000302FC0804FFFE0501161C06FCFCFCFE56
:1030400005FDFAFBFAFBFBFC0100050C020602057C
:10305000F7FB0A0801FCFDFEF600F9FDFC01FBF29E
:1030600002030E03010108FD16EEFA090100FDFF3F
:10307000060402FEF3F9F60108000503FEFF01064F
:10308000FBF4F20AFD020001FEFEFEFDFFF3FAFD75
:103090000505080803030204F513262400020501B0
:1030A0000504FBF5F9F8F1F50C12131006FCFEFE11
:1030B000F7F0080700010203F9FB0501F8F3EFF34D
:1030C000191C1913060700FD0AFDFFEEFEFE0102A2
:1030D000FCFEFFFAECEAF6F00B110D0801FFFE0012
:1030E00004F6E0130204050301060307E7F0E6F91E
:1030F00010FEFBFF00FDFE01130D0DF90102FF02A2
:10310000FFFD00FDEAE6EBE6F9F9F2E8FF04020450
:10311000FA090F2B0303040203FD0508E4EAEFEDAF
:10312000EBF9F7F8FE0306FFFB02FFFA04000402C6
:1031300002FB05FCF0E7EAF7F5F5F4E40003FE0511
:1031400003EEF70D00000201FBFDFE03FCF8F8FAA8
:10315000F0E9EFE805070505FE0800F1010201FFAF
:10316000FF0000EFF804F6F9EAF3E8F20401FEFECE
:10317000F5EBFD08000101FFF8EFECF6F7F3FEF4C4
:10318000EEE2EAEDFAFD0600FB03FBE6FFFFFE00C0
:10319000FEF6FB0BEFF6F2F6E4E4E4DBFC040702D8
:1031A000EEECF4F6030100FC07FEF4FEEDFCF1FD8D
:1031B000D1E5E6DF03000303010603FDFE0201FF84
:1031C0000E05FCFCFEEDD6DD05F30204F9E9D6DFC1
:1031D00001060A0E02FEFCFB040A0301EEF7F1EB06
:1031E000060E0805F0F9EDEE06F30A02FF020207EB
:1031F00004FEFF04F4FAFFF900F9F9FEEFF7F8F620
:10320000F101FBFA0505070607090602FFFCF2F3C8
:10321000FF0103FDFEF7F8F603F8EF0502030307CD
:103220000403FFFCFAF2F9FEF5F7FEF5FDF7F9FFEE
:103230000B0B03F404020A0EF9FCFD03FBF6EEF09F
:10324000F7FF04FB00F7F6F9F1FD090D0702FBFC9F
:1032500003FCF8FEF5F9FDF6000403F9FE02FBFE9F
:10326000FFF5F8E900FF010206040808F0ECF2F4AB
:10327000F4F2EAF101FCF9F6FC16F3EA030405089E
:1032800002FDFD00F1F3E9F204FCF4F2F2F7F4F2CE
:10329000021A0BF10402030100FCF4F5FAFD02042A
:1032A000FEFE0808F7FA000200FF09020301FF0111
:1032B000FCFF020BFBFFFBFA0202FBF3FE04FDFF27
:1032C000ECFCFD0A0207080308FF0209F7F8F9F70A
:1032D000F606F3F1FEFEFFFE030B070A0200FF02F3
:1032E00004FD03FD00F5F6F9F2F4FEFD00FCFCF927
:1032F000FCECF3F602040401FBFE0100F7F7FBFE11
:10330000FBF7FD00F900FF00F50E2827000202FF81
:1033100007FC0108FAFE0400FCFDFAF7FF000401B7
:10332000110611FA00FEFEFC06010302F7F8FB018C
:103330000105060AFEFAFF040017100AFCFBFAFA60
:10334000070000FAFFFC00FE06050B080803040452
:10335000FFF9FB06FDFBFDFEF801FA00FFFC01FC96
:10336000060402080201040307F203FF00FFFDFE4A
:10337000070402F705F6FAF903010F140400FF042D
:10338000FFFAFB06FDFFFEFFFCFBFFFC01F3F7F677
:10339000160A0D0E06FD0103F307192EFDFF0101AC
:1033A000040601FAF1F8EFFB0E141C1BFF00FF06E8
:1033B0000CEA09FEFE00FF01FEF9FEFEF9F4EBF552
:1033C0001513190B0608FFFD05F4FE0DFFFE0101A4
:1033D0000003FEFEF0EBF3EF0D1A160EFAFEFFFCF3
:1033E00007E5DF0A0202030101060009EFEFF3FA25
:1033F0000B0205FDFFFDFDFF16FF09F200FFFF01B7
:10340000030001F7FCECECEAF9F3FAF804FFFDFD28
:1034100003090B220002010006FF0409E8F3FBEC9C
:10342000F1FC00F5F8FD03FFFBF803F503020101D1
:1034300003FE0600EDF2EDEEF2F6E9EC0502FCFE0D
:103440000B040B16FEFF0200FC000303F5F6FB0164
:10345000F9F0EBE50004040401F508E800010200BE
:103460000104FFF4FEFFF1FCDDE4E4ED05FEFFFCEA
:10347000FAF0F80700000001FAF1EEFDFCFA02FD97
:10348000EEE7ECECFCFE03FF00FEF9F6FE01FFFFA9
:1034900002FAF808FC00EBF8E2ECE5E5060403FEAE
:1034A00004F2F00A00FEFDFD04FDFC07F2FDF6F556
:1034B000D3DBEEE90108FF0104040A08FD00FEFE6B
:1034C0000C04FFFE08F2EFF306FE080202FFFD0106
:1034D000FDFD0A07FFFFFFFDFF0302FE031004FBD3
:1034E000100B1012061000FAF4F401FE0204030699
:1034F0000203FDFCF7FAFBF506030202FBF3FAFCFC
:10350000F90D0E0E040508070102070300FAFC017D
:10351000FDFF03FC0202FEFCFFE4F00701030406CA
:10352000010504FFFAFE0208FF0100000005000388
:10353000001203F50301080BFC00FAFC0C03F6F47F
:103540000A0708060203FB04EDFC0D0A03FEFDFB5F
:10355000FEFBF3FBF9FC0100090508F30302FC087C
:1035600004F8FBFB01010202050A0600EFF4F7F97B
:10357000FCFCF5F705FFFCFBE5F7FFF2020404088D
:10358000FBF60002FAF6EBFA0405FAF3FDFDFAFC8D
:103590000B1AF9F305030102FEFCF7F7F3FB03F93D
:1035A000FF040600FBFE03F7F0FF04FD00FFFF0130
:1035B000F9FF040AFF0203FBFD0503F6FB0203FA11
:1035C000F709FC00020807030D050907FEFC01F8D6
:1035D000FE050A08FAF6FEF908FE030A0302FE02D7
:1035E000FCFB0304F7F6F0FB09040706F9F7F5F80E
:1035F000F8E8EDF002030200FDFEFE02F9FEFB0218
:10360000040B0C07FA00FC00F20E25190000030160
:103610000FFF020807FDFFFF02060D1106FB00FE6B
:103620000C0E0EF50101FEFB0A0807FE0200FFFF6B
:103630001012120FFCFF020208180C03FCFCFAFC2B
:103640000BFBFEFA01F9FCFA0F0D1E1EFFFEF9003E
:10365000F0F91506FCFDFEFBF9070405FD00FEF878
:103660000D0D0E10FFFC03FE09F6F1E90001FEFE50
:10367000090801FAFC02F9FB10070F0DFA02FC0021
:1036800008FBF51700FFFD01F4FB02FDFDFB05FB48
:1036900011201B1201FBFEFEEF121D24000002038D
:1036A0000508FDFCFE01FE031C1E151A03F9FE01B0
:1036B000F8E90504FF01FF00F8F4F8F5FBF4F7F86A
:1036C000281F161F03FEFE01FCF6FD01FDFF01FF92
:1036D000040301FAF7FBF6FB13181913FBFDFBFAC1
:1036E00003DDDC1D01030202FC04F808FEF402F70E
:1036F000130F0C03FDFDFCF81FED04F80200FE00A3
:1037000002FE00F5F6F6F2F302E8FCF6FCF9F8FA30
:10371000F0121821FE03010207040307F9F703FD65
:10372000F2FD01F8F8FCFFFDF90B0AFB03010202B0
:10373000FFFBFF02FDF6FD00FDF9FDF6FDF8FF05BC
:1037400013F3F012FFFEFEFFFBF7FAF9FCEEF3F8BD
:10375000FCF4FDF80000FAFBFDF7FFF30102FDFFAA
:10376000FE0000F7F5FFF705F6F7E0F7F9FCFCFAC5
:10377000F0F1070FFF000202FBEEF401F8F900FA86
:10378000FCEFEFF2F7FAFFFF110C09F0FF00000069
:103790000702FD0B0100EEFFF5EBE8E40302040372
:1037A000FBF6F403FFFFFFFC09000107F8FEF9FD3B
:1037B000E2ECF3F30102FF02FE121316FE0200FD1B
:1037C0000A07FBFEFE080E0F04040101030F1C1A7A
:1037D000FB04FE0202FEFF0004040201131911178C
:1037E000FE02FF031A1B1A1604F6FC08030605075F
:1037F00002FFF7FB0800050404070CFE0CFFFE089F
:10380000FB04070205050706030706FD07FF0C0179
:10381000FEFAFF0209040601FEF4F6FD06040507A0
:10382000FE0704020B0E181EFBFC00FF0D08030A26
:10383000FA0500F205010709FE00FFFB1515080A4D
:103840000102FFF90905080FE8F4131801FDFBFC5C
:10385000FFFBF1F80BFF08060207FCF81008060D45
:10386000050FF7EF0203010104060600060802092E
:10387000FCFDFB01130F0606E509FFE60205040542
:10388000F8F6FB010604FB0206FCF2000505040144
:10389000FB1004F404030103FCFEFBF6010C12020E
:1038A000FFF7080900040400EFF500F300FFFF0133
:1038B000FB00040AFA02FF0705050BFCFE07FF00E8
:1038C000EDFBEE0C0405050208020B08F7080802E0
:1038D000080BFD03FCFF01FEFF0502040100FF03CE
:1038E000FE010601FE00FD0303050804FAFAF2F7E3
:1038F000F7FCF5EC04050501FBFA0202F8FAFA04FC
:103900000708090AFBFFFC00F10A181B00FF000072
:103910000BFCFF0506F9F6F8FF060606FFFAFAF8B3
:103920000D0E11FD020001FD090904FFFBFC010958
:10393000070B1214F7FDFF05FE19170EFDFEFAFD29
:1039400008FE040303F9F7FE0C070C16FFFBFAFE52
:10395000EEF10406FDFEFF00FA0605FF00FDF4FA95
:103960001712121800FDFDF911F3F3F00100FE002B
:10397000030607FA0C03080116131310FFF8FE01E3
:1039800000EEFE0D0102FF00F4FBFEFD09040D0830
:10399000161D1A1DFEF9FCFBF0160D22FD00020299
:1039A0000405FAFC0A1313051C21212701FE01FD61
:1039B000FAF6FE09FE0200FFFAF4F8F404FCFB003C
:1039C00024171D190002FFFC0C01F8F3FFFF00FF94
:1039D000000101FA0B0C0E16131A100EFDFCF70273
:1039E00008DEEA0C02020202FB02FB0A0A010F09CE
:1039F00013000007FFFDFBFB20F4FDECFF0200FEBF
:103A000001F9FDF4FF0C05FD03F5F9EFFAFBFCF9F4
:103A1000EE11221CFF0101000504050B0D110E0D16
:103A2000EAEBF8F7F7FCFEFAFE0B0D0700010102C6
:103A300001F9FCFE0D0A13FEF600F6FB01FBFCFE8D
:103A40001102FE13FFFEFF00F5FCFDF903F6F90578
:103A500001E6F0EFFDFDFBF900ECFFFDFF0000FECD
:103A6000030000F0FFFC0002EAF4E8F9F7F1FAF9CC
:103A7000F4F20111FF010100F8F2F407020403045B
:103A8000F3EEF2EEF7F9FC01050A08FB0003FF0074
:103A90000D0C080F0D0BF903EEEFDBE90105FF003C
:103AA000FBF3FC0700FF03000D06020D06FFFE02FC
:103AB000D8DFE7DEFFFD0001030B1216FF0302FD56
:103AC0000F0600FF05101716FFF5EFFA0714232164
:103AD000F7000205000102020506040015191E1C6C
:103AE000FF02FCF81E1D232210F70208000606073D
:103AF00005FFFCFC120F0F15F40806071B070D0C41
:103B00000D0C000605040505020100010C0A0E1447
:103B1000FAFA06FB0C0F090C0DFAEB090401010778
:103B200001070603171A2A32FAFA01F7110F0F13C9
:103B30001405F7E9060005080204FDFE1C1A14101E
:103B400001FAF9FC0E0E1415F1020E1303FFFBFE31
:103B500001FAF3F7110C1212070500FF120F090A00
:103B6000FBF1EDE90200FF01030505031413101634
:103B7000FBFBF4F01A160E12E8FFF2F6030204063D
:103B8000FFFA00FE12140E16F8FFF7FA0F11100DCF
:103B9000FA12F9F50600FF01FDFFFAFA10170F0DF2
:103BA000FCFB0B04080B0B03FA04040500FFFDFFEC
:103BB000FE00080D06030C13FE01FB0102070708B7
:103BC000020A0213010707010F0811070E1215164A
:103BD000FAFAF1F906FF080B070AF2F90001FE00F4
:103BE000020203070F0E0C1B02FF040B0508010263
:103BF000FDFAFCF6010202FFFEFC04070B060A15A3
:103C0000FCFBFCF70603050C060D221E00FF00FD61
:103C10000C00FF0B14130A07F903FDFD080404FF51
:103C20000E0D0D0000FEFEFB0E0A080715FF050F26
:103C300006FCFE0202000509030A0A16FBFDFAFC57
:103C40000AFD0A0A070613140707FF060300070602
:103C5000EBF5040AFCFE00FF010605030D05080A4A
:103C600009070403FFFE050204EDEEE9FE00FE0075
:103C7000080906F9161315100107070A09FCFE06C4
:103C8000EEEEF50300FFFDFDFAFD05FF1C19151A08
:103C90000910071107000105F0101C2CFF00FFFFA1
:103CA0000708000013201E190E060712010507075A
:103CB00003F2FD0AFDFF0000FCF2F6FA16130F09ED
:103CC0001B19190C0A0807030B05EEFEFEFCFFFE8C
:103CD000030404FE2221272009090305030502022B
:103CE00004E2DF1302000001FBFFFE0B20221F177E
:103CF0000B01F8F70603FBFF21FBFAEDFDFCFDFFCE
:103D0000010200F40E1F210AF6F4F1E8FDFFFCFBAE
:103D1000F4160C1C000000FF0703030B261F2623CC
:103D2000E3EEF7ED020102FDF9F70F0301010101D6
:103D300000FCFDFD1718230AF3E2EAEDFE0203FC86
:103D40000DF8F90AFEFFFFFFFBFD03FF150804084D
:103D5000F0F4E8E9020802FC0FFD05F3FFFDFEFEAA
:103D6000030500FA050C060DE4EEDEEAFEFCFAFAA5
:103D7000F6F70402FEFFFF00FEF2FC00130C04FE47
:103D8000E0E4F5F6FFFC00FB0800FDFBFF0200FF8E
:103D9000100D080C0D0F0D12EFDEDFDBFD0306002A
:103DA000F6F0F7FC020100010E0D0A0B1119110FBC
:103DB000D7DFE4DA00010203030A04070203030069
:103DC000FDFD0101070401FCFEF0EBF4040802070D
:103DD000FCF3F3EE05080404FF000203F8F801FA0F
:103DE000F6F4F9F4FFFB00FCFD0BFF080101FE00F7
:103DF000000102FFFFFFFC06FAFBF7F7FFFE02FEE1
:103E00000806090600FEFCFDFEFAFC020707010495
:103E1000FCFDFBF8FD01FBF90A07FE000204FEFAB7
:103E200003FF0204FFFC070AFAFEFDFCFD01FCFE95
:103E300003F7FAFCFCFFFDFAFFFDFFFE03FE0C0892
:103E4000F8FDF6F9FE00FE0CFEF4F5FEFBFAF900B3
:103E5000FFFF000108050003F9FCFEFD040805054D
:103E6000080802FFFEFE0405FEFAFDFE0C09050827
:103E7000F6F7FBF8050201F9FEFBF9F7FEFBFBFB89
:103E8000FDFCFEFC050C0D0AF6FEFCFBF9FC000136
:103E9000FCF9FD00FF02FC00FCFEFBFC0B0504022C
:103EA000FAFAFAF9020002FCFE050409010405050C
:103EB000F704FEFFFFFAFB0AFAF1F802F90707FA26
:103EC000000403FD010406F8FEFD02060B0C120AB5
:103ED00001040602FAFE04FAFDF8FE03F8FF00FCF6
:103EE0000502000A0D0B080B03000304FD0805037F
:103EF00002FDFBFCFCFE00FEFDFEFAFA070A0A03C7
:103F000005050201FBFFFDF8FCFCFD00FDFEFDFECA
:103F10000600FFFC0703030201030002F8FA000198
:103F2000FCFF0300FBFDFEFE0601FBFD00FAF9FCB1
:103F3000040405FEFFFFFEF502F8F903FBFE04FD95
:103F4000050102020201FDF902070304F800FCFE6C
:103F50000A040205FFFEFB0007060500FCFAF60056
:103F600001000507FDF8F8FF050604FFFDFCFBFF57
:103F7000020200FEFFFEFAFD05060603FFF5F2F160
:103F8000FDFCFC00FFFAFEFFF9FE0104FD0100FA52
:103F900006070A06F1F7F8F7FEFFFBFD000307012D
:103FA0000307FE02FBFAF7F5010002FEFDFD01FF2B
:103FB00000FE040BFF01FEFEFAF601FCF1E9EEF251
:103FC00000FBFC010504110B0605040201FD02FDC6
:103FD0000D0105F9F6F4F6F3FF0005011C17251491
:103FE00003FDFCF9FDFFFE000200FC05F1010202E9
:103FF0000003020113171124F9FDF9FBFF0005FF6F
:1040000007FDF8F701060E09FEFFFE001E17010A64
:10401000FFFDFBFBFFFF03050504FD090F0A080771
:104020000200FBFE1009F503F8F6F9FDFDFFFFFEA7
:10403000FCF4F5F80A0C050D0102FEFCF2F6ECEDBD
:10404000FBF5FEFCFD00FF05FAFCF6FF0A15091161
:10405000FDFD0201F0F6F2FF020202010205050475
:104060000502F904100913130201030403F902FB0A
:104070000203FBFD03050501F7FF0405171E1410DD
:1040800009020101FFFCFE0FF6FBFD030101FD002B
:10409000070BFF0513130B0F0300FDFE03FD0801C3
:1040A000FEFF07050300FDFC01060AFC190E090BC3
:1040B0000301FF0209060F0B020206FDFFFD0003CC
:1040C000FDFE00FE000903FEFEEDECF5000805FF15
:1040D000FCF6F1ED04050503FB010003FCF8FEF915
:1040E000FAF8F9F7010201F8010F000D00FFFCFDDD
:1040F00002030401FE02FD00F9FDF7F50001FC01D9
:104100000A06080AFEFDFBFCFDF90003010003009E
:10411000FBFDFEFF08FAFA040A060004010403FF8F
:104120000201010401010206FEFEFBFB02FEFBFB95
:1041300006F7F7FB00FDFAF3FDFCFCFE00030104AB
:10414000F8FAF8F700FDFD09FBF2FAFDF7F9FBFDBF
:10415000FBFE00010302FF04F9F8FEFD01FF030668
:10416000090A03FDFFFDFFFE00FEFDFE0B09100C1A
:10417000F5F7FAF802FCFFFAFDFCF6F8FEFCFAFD92
:10418000FFFEFCFCFC010707F7FEFEFEF6FAFAFA5A
:10419000FAF7FCFE02010103FCFE00FFFEFFF7FB45
:1041A000FDFAF8F9FF02F9FB040407090203040011
:1041B000FA00040204030408FBF1F90304040402F6
:1041C000020500FC030405FDFFFF050A0B020C10AD
:1041D00001020506F8FD0502FEFBFD04F8FBFAFAF4
:1041E000080208130E0E0304030304020000010377
:1041F000060301FCF90000FF0505FEFDFFFFFC05BD
:104200000505FFFFFD00FFFCFE03020100FEFCFCB4
:10421000070200FB080503090103FF00FDF8F3FC9A
:1042200001010506FCFDFEFB0D04FDFF01F3EEF4AC
:10423000020203FDFCFD04FA04FAF704FAFEFEFC98
:10424000FFFD0704FDFBF5F600040203F7FAFAFB95
:104250000C080505FFFEF7FD05090604F9FFFEF64B
:1042600000FD0607F8FCFC03080B0508FAF9FDFF42
:10427000010503FE00FEF9F307070503F9F8FCF357
:104280000301FFFFFDFDFEFEFF040103EFFAFDF851
:1042900008060805F4FD02F9FFFDF900FD0005021E
:1042A00002080004FFF6F0F00101FFFFFF0403061F
:1042B0000202050FFCFFFFFEF9F8FFFCF4F1F0F33A
:1042C00001FEFE0009010E0B09080804FFFDFF02B4
:1042D0000D020AFBF0F0EDF2FE0003021917281799
:1042E0000502FEF5FCFBFE0002FFFE09F503FE03DE
:1042F000000202FF0C130F19FC00FC020001040372
:104300000901FAF903070C04FB00FFFF1A12FE056E
:1043100001FEFEFC00FF00030408FD090D07060E68
:104320000100FCFE0DF8EEF9FCFDFFFF010000FBB3
:10433000FCFAFCF90508100AFE02FCFDEFF2F0F5AC
:10434000F8F7FD0100010506FCFDF5FD090F141548
:10435000FCFE0202F7F8FB02020A06030403030351
:104360000701FC051B1213150100030202FEFEFEED
:104370000204F80101040302FA000305151A1411DE
:104380000501FF01F9FCF80BFB010504030000FE29
:104390000C100905110B06090000FD0203F700FED1
:1043A00000FE0A0500FDFCFD05090DFC160C0206C9
:1043B00002FEFDFD060303F9010202FBFDFBF9FE0F
:1043C000FBFB00FE0800FE00FEF2EFF9FC0301FB20
:1043D000FCF8F8F302020103FD03FD01FAFEF7F316
:1043E000FEFDFFF9FCF8F8F70711010C0201FDFCD6
:1043F00003010100F8F8F8FAFBFDF9F9FE02F804F0
:1044000008040A0B03FEF9FA02FBFBFF020200FF9D
:10441000FBFCFEFB02FDFFFA09060002010100FDA4
:10442000FDFC0606FBFE0001FD01FEFDFAFEFC00A0
:1044300002F7F801FDFEF8F4FEFCFEFCF4F7FE00C6
:10444000F9F7F6F8FFFE0203FEF5F7FDF8F9F7FCC1
:10445000FEFA0206FDFFFB0BF9F9FFFF0409FE005F
:10446000070802FDFEFD020100FDFBFA070B0A042E
:10447000F5F8F9F90200F8FDFBFEF5F7FCFDFBFC91
:10448000FDFB0101FB010302F8FEFDFDF8FDFBFD54
:10449000FAFAFA000101FF040002FBFDFCF9FEFF3D
:1044A000FAF9FAF9F9FFFBFFFE030502040605001D
:1044B000FE000201FCFDFC04FAF2F906FF0705FE0E
:1044C000FF0301FD030706FAFC02050806FDFAFCDE
:1044D00004020202FC0108FFFBF7FAFEF8FB00FDF4
:1044E0000F05060EFE0402FA03030303060306FF8C
:1044F0000204FEF7FB0100FD0305FF01FBF5F6FCDE
:104500000403FFFFF9FDFFFDF9FCFAFDFFFEFBF8D8
:104510000902FFFD01FFF7F20004FF0101F9FDFCB4
:10452000FFFE0200FAFE00FE0800FB00F1E9E9F3DD
:1045300003040501F8FBFCFB01F7F700F9FCFEFCA6
:1045400000FA0100F5F4E9EC00050202FAFBFEF9BD
:1045500004030302FFFEF9FA02060504F8F8F7F275
:1045600000FC0105F9FD07FD020704FDFBFCFDFB56
:10457000010503F7F7FAF5F506050506F5F2FAF277
:1045800000FEFE01FEFBFBFD00FE0004EEF0F3F278
:1045900007060806F1F0F6FAFEFFFB010003070428
:1045A00005080403F2F2F0EB02000102FE0800FF2E
:1045B00002030109FC0203FDF9F802FDE8EAEEED51
:1045C000FFFE000008FD0F0906050705010200FCBB
:1045D0000D000AFDF3F4F3EEFDFE0403151D2A158C
:1045E0000501FCF6FBFAFD0300FF0410EFF7F2FCF7
:1045F000FE0202FE0A15111BFDFFFE03FFFF020271
:104600000B02FEFBFE080503FB01FE02191201115D
:104610000400FC01010004040906FA0A0809060D59
:1046200001FEFCFF1302F3FA01FEFE01FEFFFDFE98
:10463000FBFFFBF8040902040002FAFCF0F3F0F6B9
:10464000FEF80101FEFF0104FF00F5FD070F070959
:10465000FDFFFF00F600FDF8030B0002060607054C
:104660000801F701090112090200020209FDFFFB1E
:104670000405FD00040401FFF501030A0E120C09F4
:1046800003020001FBFCF609F600030601FF00FD32
:104690000B0B07060907040B01FFFCFB02F80BFFDD
:1046A00001FE0703FCFAF9FD050C0FF80D08FF04E5
:1046B00000FEFCFA050C0E03020105FDFCF6FCFDF4
:1046C000FEFE030204030203FFF6F7FE05060402E2
:1046D000FCFBF9F5010201000105FE0300FC01FBF2
:1046E000FFFF00FA00F3FEFF0916040A0300FDFDB8
:1046F000030102FFF9F7F900FFFEFAF90700FB05D5
:1047000008000808FDFBFBFEFCF9FBFFFF0504FAAF
:10471000FD0000FE03FBFAF6070605FF03FFFDFBA5
:10472000FCFE0507FEFBFDFF0003FFFBFDFBFAF8A7
:1047300003F6FA03FBFFF9F6FBFFFCFBFCFAFF02B2
:10474000F9F8F9FB01030304FDF5FAFEFDFCFBFD9E
:10475000FE01060200FF0003FAFD02FF040200044E
:10476000080702F900010403FFFEFEFF070800FB33
:10477000F7FBFDF705F90302FBFEF5F6FFFDFBFD78
:10478000FDFD02FFF9FF05FDF500FFFEF6F3FD0359
:10479000FAF9FAFD01030205FF0201F90206FCFE27
:1047A000FCFBFBF9FD0001FDFAFE03060307090807
:1047B000FE05060002FDF7FCFCF2F602FF04FDF622
:1047C0000300FBFB030608FCFBFE0408FDF6FDFCF2
:1047D00002020605FD0006FDFAF8F502FC03FDFFE6
:1047E000090502100107FEFC04020503FF02020492
:1047F00000FDFAF8FF010604020501FDF9F8F8F9D9
:104800000404FEFEF9FDF8F9F4F5F7F8010000FFE5
:104810000401FFF704FFFBFB00040102F9F7F8F9BC
:10482000FDF8F7F7FD0003020400FF01F8F3E7F1DC
:104830000105050200FCF7FEF8F3F4FC0102030198
:1048400000FA0300FAFDF7F1FF020101FAFBFEFD99
:1048500001FCFEFF0101FEFE040703FCF4F7F7F381
:10486000FFFC0304F6FC03F70100FDFBFEFEFF0066
:10487000000101F8F0F2F5FA05060503FDFAFAF772
:1048800000FCFCFB01000202FF000002F1F1F2F269
:1048900004070701ECF7FDFEF7FAF8FD04FF050534
:1048A0000507FC02F4F6F2EAFFFFFEFF020A080326
:1048B000FF020404FF010403F8F902FCE8F2ECEF44
:1048C000FDF8FBFE09081604060001FF0404FFFFC3
:1048D0000B0009FFEDF0F6EFFCFD0400181C271695
:1048E0000703FAF8FCFDFE0300010307EE00FEFDDE
:1048F000FB0200FE111B1417F8FBFB02020204036B
:104900000C09FDFBFC03090AFDFCFAFC2210FD0565
:104910000200FDFD000307040A03FB04100F0A0F49
:10492000FEFDF8FB0B00F1FA02FFFD0501FE00FBA6
:10493000FAFCF7F60A040803FD00FAFDF0F6F3F0BE
:10494000FEFB0402010002030201F3FE01140C0944
:10495000FBFDFE00FAF8F2FA020403030304090661
:1049600007FDF5010B010D0AFFFE0101FDF5F8F44D
:104970000100F901060602FEF7FE020913180F0BEB
:104980000602FF00FCFAF607FB04FD0803FFFC012A
:104990000A0602FF0A080D0B00FEFCFA02FC02FBED
:1049A000FFFB0706FEFBFBFB04070AF8110E0712CC
:1049B000FEFAFAF804060D0FFE0104FBFAF9FBFDFE
:1049C000FCFB03FB02080BFEFFFAF802FD010001ED
:1049D000FCFAFDFB0601FD03FF02FE00FFFC0101E6
:1049E00000FF02FFFEF903FC0611030C0202FCFAB1
:1049F0000004020400F7F8FC03FEFAF8FC01FB03D4
:104A00000705070CFF01FDFF00FBFF020206010086
:104A1000FDFEFE010201FFFC0B050107FF0001FF87
:104A2000FEFC0705FEFFFF000202FDFEF9FFF7FD99
:104A300005FAFC03FF00FBF5FDFDFE00FE04020489
:104A4000FDFBF9FCFDFD070402F8FBFEFBFBFDFF8F
:104A500001FE060301040201FBFD00FF0305FB0547
:104A60000A0903000102020302FCFE000E0B090A00
:104A7000F9FBFCF609FD03F900FBF5F400FBFAFC79
:104A800001FFFEFA06030D05F7FEFCFFFCFD020226
:104A9000FEFDFDFF01010103FC00FFFF0004FCFC23
:104AA000FFFBFBF9000001FD0206040804070605F0
:104AB000FB01020004FEFE03FAF5F901FD0200FC11
:104AC000030902FD060804FBFD03040704010C09A9
:104AD00000010502FC0003FEFEFEFD02FAFEFFFAE5
:104AE0000A05020F060B08FB020003010301050182
:104AF0000304FBFEFAFF0101040304FFFF010106AA
:104B00000306FFFAFCFD00FC00FCFFFC02FFFEFDBB
:104B10000300FFFE05FF0301FE02FE01F9F6FAFDA8
:104B2000FEFF02FBFD0102020502FE02FEFEF8FD91
:104B3000010304FEFB0403F9FEF7F902FFFF01FD88
:104B400001F90301FCFFFDF8FE030201F1FBF6F49D
:104B500005010706FF01FFFF04060500F7FDFE0241
:104B6000FEFF0504F5F603FE0508070001FF02013C
:104B7000FEFF01F804FEFAFA07030501FEF4FBF755
:104B80000200FAFB0000FCFDFE00FF05FAF5FFF84D
:104B900007070601F6FDFC0000FCFAFB0403040114
:104BA000040601FB010600F2FDFFFEFF0103010602
:104BB0000102050B01010401FCFDFEFCF4F4EFF918
:104BC000FCFAFBFF0E021009060506030302FF00B4
:104BD0000B020906F7FCFCF3FBFF04001A1A261D62
:104BE0000A07FDF7FEFCFF0204010209F2000508B6
:104BF000FBFFFDFD0D1A1110FAFDFC060200040179
:104C0000060603FD03040709FBFEFCFD1018F80867
:104C1000080501FC010203040D06FF0E100C090D2E
:104C2000FEF9F7F90E01EFF60204FF01FEFFFEFCAC
:104C300000FFFFFE070F0905FCFFF8FBE8F7EEF6A3
:104C4000FDFC0402FE010201FE01F3FC080D10113F
:104C5000FBFAFC00F5FEFBF8010907020404050756
:104C600009FDFC080F0A1014FDFCFEFD01FDFCF817
:104C70000500FDFC060504FFF801030919170A06E3
:104C8000060000FFFBF7FD03F70102000001FEFE36
:104C9000080C03010710090CFEFEFCF703FB0602DB
:104CA000FDFD0804FDFAFDFC010309FC100D0B0DD0
:104CB000FDFBFBF905010706FD0002FBFBF7F5FB19
:104CC00000FFFEFCFF000102FBFBFDF9F2FD100BF3
:104CD00003FDFCFA08060019FBFFFFFA0404FF02BB
:104CE000F7F902040E0C06F9FD07FFFB1908FCF4A6
:104CF000FBFAFCFD010103FF0402FFFE00FDF904C5
:104D0000FF020405010C0708FFFE0001FDFCFCFB8F
:104D1000FF00F9F90E05040F07040200080A090D47
:104D2000FF000003FEFF01FDFCFAF4F907FFFA059E
:104D300001FCFF03FF0301FD01020303FEFCFDFE76
:104D4000FBFB000003FB0A1302020202FFFDF9FC59
:104D50000202020100FDFDFCFE04FCF7040708034B
:104D600004FF00FF0307EEE600FDFCFBFDFE030071
:104D7000FBFAF5F80501F4EF03FDFCFDF0F3F8F59F
:104D8000FDFFFEFEFFFBFE01F5F8FB00F403FEF560
:104D9000FF000307EEFBFBF703040400010104031B
:104DA000FE0201030C1613FF08151209F7F8FAF9B1
:104DB000FFFAF9FAFF02040102070706F6C8D4FE5B
:104DC00006080902FEFAFFFFF7F6F7FA020300FEF3
:104DD000070909080201F9F803020201FD0A10FFA0
:104DE000FBFBFAF8FCFDF9FC0B0A0A0D0105FDF1CD
:104DF000FDFF02FE05050609F8F8F8F9FCFDFCFDCB
:104E0000070B07020208F80102FDFF00120D02095C
:104E1000FC00FD00FDFBFCFBFB0106000208FE049C
:104E2000FEFDF9F7FC02FE00FDFAF8FAFE00FF01B4
:104E3000070405080402FAFAFDFCF8F8080E11014F
:104E4000FDFEF9FAFDFE01020103050004FEF0017A
:104E5000FE0100FCF8070301FEFE00FCFFFF00FF5F
:104E6000000505020CFD01F3FCFEFE01FDFD000145
:104E7000FBFBF6F803FDFFFFFDFCFDFEF7FFF5FC75
:104E800000060704FFF7FEFDF7FBFDFAFFFAF8FE48
:104E900002FBF7F9FBF602F706FFFFFD05FB05FD38
:104EA000FFFAFDFFFEFE00FFF7FD0000FBEEF2FD46
:104EB000F9FBFDFDF9FEFEFD0502FEFEFDFFFFFD17
:104EC000FBFAFEFF0209FF00FDFBFFFEFDF9FEF904
:104ED000FF00FEFEFEFCFEFFFAF9FD010B0D00FBDC
:104EE000FCFDFEFDFEF30D0C010102FAFDFBFDFDD4
:104EF000060403050301080AFFFEFFF90604020386
:104F0000FE000103FCFDFCFE030409050D080A0375
:104F1000FD000302FE000107FDFEFBFCFEFFFE009C
:104F2000010302FF0105F0FBFEFE01000902F9F892
:104F3000FDFE010202FEFF0102010307F706FC0568
:104F400005000000FE0BFAFB03040504FF02030248
:104F50000708030102FEFBF70100FCFC0100100939
:104F6000030001030101FE0101020702FFFB01082A
:104F7000FFFC000008040AFE020304010000000018
:104F8000FE05070006FDFE0001FFFAFD120E0F02EE
:104F9000FDFDFAFCFEFE0301FDFEFDFFFBFD05FB32
:104FA000FDFF00FF06090504FFFCFF02FE0102FFF2
:104FB000FE0302FDFCFDFDFE030105FE0202FB05F2
:104FC00001FF00FFFCFEFFFEF8FE02FEF0FD00FB0D
:104FD00001FAF9FB0B04FF16FD00FFFC0104FE02C1
:104FE000FAFCFF030606FEF20206FDFD170400F5BB
:104FF000FAFBFDFEFF0202FD04030200F4FB010EBA
:10500000FE020305FF0B0008FE000100FBFBFEFB98
:10501000FDFCF6FB0608040B0402000003060D0766
:10502000FE020304FCFEFFFEFBF6F4FF0300F6FEA7
:1050300001FF0502FF05FEFA03010405FBFCFEFC6F
:10504000FDFBFEFF0A07030C06030206FC03F8FB48
:1050500003030103FDFDFDFBFEFEFAFA080F051038
:1050600004FF00FE0006EEEC0200FCFAFF00FF0267
:10507000F6F6FCF81004FEF000FFFFFCF4F1F3F08C
:10508000FDFEFFFF01FDFF02F7F3F4FEECF302F873
:1050900000000409EBF8F9F7020506050303040311
:1050A000FDFDFDFEF90207050B121208F2F7F8FBF1
:1050B00000FAF8FA02030202FF0604FFF7D4D2FC5A
:1050C0000608050602F900FDF7F7F8FA030200FCEE
:1050D00003090707F6E6F3010601FC0302050800D1
:1050E000F9FBF9FAFDF9FAFB09080504F7010100DB
:1050F000FFFF020009050A13F8F9FBF9FCFBFEFEAD
:105100000104FFF9F003FEFC020100001D14040677
:10511000F900FEFDFDF9FCFAFAFAFDFF01FBF603CA
:1051200000FCFAFCF80503FCFBF7F7FDFA00FFFCB6
:1051300003FFFDFE01F9EEFAFEFBF4FC060A12FE87
:10514000FDFFFDFCFCFEFCFFFFFFFDFCFC0404F981
:10515000000200FBF906FB01FFFCFFFFFCFCFCFE6C
:10516000FC0301F8FFFE030802020202F9F9020340
:10517000FDFBF7F9FDFFFCFDFBF6F6FCFEF6F8EF94
:1051800004070202FCF5FEFBFBFDFBFD00F7FAFE47
:10519000FAF7F5F6FAFCFCFC0A0101FF08FB04FA39
:1051A000FFFDFEFDFEFF0100F6F6F3F5FDF2E8FA65
:1051B000FBFEFFFEFAFEFAF7FE010002FEFFFCFB1B
:1051C000FCFBFCF9FC000400FDFF02FDF4F2F8F921
:1051D000FE0100FFFCFBFEFFFCF8FAFEFA0002FDF8
:1051E000FCFD02FEF9F20D08000204FEFEFDFCFDCE
:1051F0000604FE03FA05060003FD00010101010398
:10520000FEFE0004FEFEFFFC05060506FAFD0A048C
:10521000FEFFFF01FEFAFC08FF00FDFCFB0001FEA3
:10522000FF01FFFF0402FAFA0102060205FFF3F78D
:10523000FE02030302FEFB01FE040406FFF8FE0269
:1052400006000300FE06F7F903030103FF0102FE57
:1052500000050705080BF90102FEFFFEFDFB08FF34
:1052600001000503FF00FC00020501FEFCF8FD063D
:10527000000000FB05FB03FC03020401FEFEFFFD32
:10528000FD0A0900070402060104FEFE0A090AFBE2
:10529000FFFCFCFCFD000200FAFEFC0000FA03F932
:1052A000FF0003020408FE08FFFEFCFDFDFDFFFEFB
:1052B00002FEFEFAFDFBF4FB05040000FF05F8000A
:1052C00001FFFFFFFCFEFDFCF8FC05FEEFFF0507FC
:1052D00002FCFCFB0A01F811FD0202FC0004FF00C5
:1052E000FCFE020B0406F8DE0306FCF916FFF5F2DD
:1052F000FEFBFE01FF00FFFB040500FEEEF40308C9
:10530000FEFD0307F70A030701000302FCFCFFFC94
:1053100000FDF4FC0BFE08120502FF0006040D0957
:1053200001060908FCFFFFFD00F7F5FE0701F6F88E
:1053300003FD0002FD0705FB04060609FFFDFCFE58
:10534000FEFC00FE0002080C07040004FB07FBFC47
:1053500007040605FCFCFBFFFCFCF9F71716120A14
:1053600005FEFEFF000BF0EC0402FCFA00FF030355
:10537000F7FCFAF90A08F9EB000102FEF0F0EEEC96
:10538000FD00020402000304FBF4F4FCE8F903FE50
:10539000FDFE0109F1FCFDF70709080403050702FA
:1053A000FAFB0004040609030913140AF9F9F9F7D2
:1053B00002FDFCFD01030402FF040203FDCDD5F252
:1053C0000607070700FF00FFFAFCFCFA030002FFD4
:1053D00002040606EFF900FC0604FEFE03090A02B9
:1053E000FEFCFCFBFEFCFEFF030D0305FE02FEF7C8
:1053F000FF00010108080D09FAFCFBFBFEFFFFFF9F
:10540000040300FBFBFEF000FFFFFE001715030680
:105410000101FE00FEFB01FDF9FEFEFD0202FAFFA6
:10542000FEFFFCFF0008000300FBFAFF000301FE83
:1054300004FFFFFE03F5F300FBF9FAFC0710120668
:10544000FF02FFFFFF010105FCFB00FC050BFFFB5A
:10545000FE0301FCFD0E000501FE0001FFFE01FF41
:10546000FF01FFFF01FA0910FEFE0106FFFD020128
:10547000FDFDFEFA00FFFDFF00F8F8FFFAF9F7F76F
:1054800004060706FDFDFEFCFE00FEFF00FCFBFE21
:10549000FDF6F5F504F8F3FA0C04020001FFFEF83E
:1054A00001FD02FF03030203F5F9F8F8F8F1F6F83D
:1054B000FEFA02FDF6FDFAFC02020103030301FFFE
:1054C000FDFEFFFEFBFF01FEFEFFFEFFF7F7F9F713
:1054D000FEFF0002FDFDFF00FCFDFD01F80603FCE0
:1054E000FDFB0100F3F20A0A020106FF000100FFC2
:1054F000060301010501030602FD00FEFD00FD019A
:105500000102040702FF010103070208000B080E55
:10551000FD000101FDFDFC07FF00FCFEFEFF00FF9A
:10552000050504020104FEFE010506040300F3F272
:10553000FD00030302FE010105070303FAFDFE0B54
:1055400005FFFFFFF909F4FB05040503FD00FFFF5C
:10555000050406000A0500FFFFFF010101FC060625
:1055600002030402FEFEFCFF00FE0301FD0201FE39
:1055700001040200030209F803010201FF01FEFE1B
:10558000FD080A00F7FC05020002FE010D0708FBFA
:10559000FCF9FCFAFF000103FFFFFBFEF6F504FB3C
:1055A000FDFF0002FE0401FEFFFCFBFFFEFC00FF0E
:1055B000FEFEFEFDFEFFF90902020200FDFCF5FA07
:1055C000000002FDFDFDFAFCFCFC0400EF000405F8
:1055D0000101FDFB05F8F511FC0003FF0103FDFDD2
:1055E000FBFE050E0A1102ED050600FC0CFEF2E8BA
:1055F00001FD0003FCFF00FD08060805FB03061083
:10560000FCFE0508F40C030802010202F9FF01FA8E
:10561000FDFCFBFA0500000D050404010A070C0C53
:1056200004080C0AFC010304FDF8F6FD0DFFFCF76D
:1056300001030402060B00FF06080709010001FF31
:10564000FEFE00FD0307061603020204FB06FCFA39
:1056500009050807FF000000FD00FEFC160A090707
:10566000030001000107EFEB060700FF0100020441
:10567000F4F5F5F60B07F9ED0000FFFDF2F5F7F193
:105680000004060404030607F5F4F5FCEAF5020835
:10569000FEFF0507F1FDFDFD0A0C0B0806060706D7
:1056A000FD0000020D0805010A17120BFFFAFEFAB1
:1056B00004FEFD01010505040005030204C5D40430
:1056C0000606030503FCFF04FF00000104060201B7
:1056D00002040D0B0304000C0605FFFC050F12036A
:1056E00001FEFEFD00FEFD010B110B0A0704FEF09A
:1056F00001FFFFFC0C0A0D0AFF00FEFF020205037A
:1057000008040500FEFCF709FEFF010318190A0E44
:105710000105020301010301FEFB00010609FF016F
:10572000FFFAF8FA020D09070200FE060407050257
:1057300006050101FBFFFE05FCFBFBFE0B14130736
:1057400002030200030205050102FFFE0306FBF748
:105750000100FFFD000A0404040203000403050421
:10576000FF04040307FF07030000F902FFFE04041F
:105770000000FDFE06030103FDF8F8FFFEFBF6FC4A
:105780000306080500FBFFFE0001030103FDFD0207
:10579000FFFAF9F8FDF5F60108FE00FD06FC02FB34
:1057A00002FE010205050805F8FBFCFAFBE9E9F435
:1057B000FDFAFDFDF6FBFEFC0404030204060303F0
:1057C000FC020201FF0209FEFFFFFD00FCF9FCF8EC
:1057D0000002000202020103FEFE000000FDF6FED0
:1057E000FDFAFA02FBF30B070202020105010302B4
:1057F000070504050709010102FFFFFE0108030771
:1058000002040206030304000806080A040A0D1233
:10581000FA000100FEFCFD0700FFFCFA0102020491
:105820000704020406000300030604020500F4F75F
:10583000FD010200030002010307050402FA02FD54
:1058400005000300FD07F6FC04030002010001014E
:10585000010707FE0309010800FD00FF01010A0618
:10586000FF01030300FDFB0103020504FB0406FE28
:10587000FDFFFEFE070006FA02020300FE02FFFF24
:10588000FE060604FE090F02FF00FAFC0D060DF8E5
:10589000FCFAF8F7FF01FE03FCFFFFFFFA00FFFE32
:1058A000FCFFFF020003FCFCFAF9FDFB01FDFE0119
:1058B00001030102FCFE0303020000FFFDF9F4FCFA
:1058C000020000FBFDFAF9FBF5FC0600F20406FD00
:1058D0000202020109FDEE11FCFF03FF0301FCFDC2
:1058E000F9FC0209FDFC06F60308010011F9F4E8D1
:1058F000FF000002FDFF01FF090003FEF509FE1491
:10590000FF040307F60E040301020402FB0000FC7F
:10591000FAF9F7FF1702FC060803040708090B0A47
:1059200004080C0CFD000503FDF6F6FB05F6F30775
:1059300004FF01020309070108090607FFFF00FE33
:10594000FCF9FDFC100C050409070403FC04F8FD38
:105950000705080601FF0001F8FCF9F80214120718
:1059600004030104FE00EEEC0606FFFE0201030242
:10597000FAF6F2F90C10FAEB03000300F0F2F3EE82
:10598000FE04030604050609F7F1F5F8F6FAF8F740
:1059900001010507F5FEF7F70B0E0E0707070607CF
:1059A000F9FC00FFFF090E050B15150BF8F8F8FAC6
:1059B00005FDFDFF02050306FD0206FBF5C5D6FB4E
:1059C000040B070503FCFDFEFEFD0001080701FFB7
:1059D000FC060404F9F1F5FF050302FF000907F7CF
:1059E0000001FF000000FD0006080A07FF05FEFD9C
:1059F000FF00010006010000FFFF00000402040395
:105A0000020501FAF6F1F801FF000102140CFDFE97
:105A10000101050301030302F6FCFFF901FBFBFC96
:105A2000FEFEFCFBF5FFFAFC02FD0001040404038A
:105A3000FF00FC01F8F1F3FCFAFBFFFD020B0F0184
:105A4000020201FE03030405FAFCFDFA0203FC0452
:105A500000030200F905F80002FF0201030305023A
:105A6000F9FEFFFEFEF0FC03FEFF0002F5F1FDFC77
:105A700002FEFC0003010001FAF9FBFB00FAF6FF4D
:105A800002070505FAF2FAF7000101FF02FFFE0125
:105A9000FEF6FBF807FAFEFF09FD02FE02F701FB26
:105AA000FFFE02FF05030607F4FBF8F9F8FBFBFB1A
:105AB000FEFE03FDF700FDF40303010103070705E4
:105AC000F5F9FCFA03FDF7FE01000201F7F5FCF31E
:105AD000FE02020201FFFE02FBFAFDFE000504FECB
