:020000040800F2
:1000000000000C20ED180008A5170008A91700082B
:10001000AD170008B1170008B51700083D19000812
:10002000000000000000000000000000B9170008F8
:10003000BD17000800000000C1170008C517000820
:100040003D1900083D1900083D1900083D19000838
:100050003D1900083D1900083D1900083D19000828
:100060003D1900083D1900083D1900083D19000818
:100070003D1900083D1900083D1900083D19000808
:100080003D1900083D1900083D1900083D190008F8
:100090003D1900083D1900083D1900083D190008E8
:1000A0003D1900083D1900083D1900083D190008D8
:1000B000000000003D190008C91700083D1900089C
:1000C0003D1900083D1900083D1900083D190008B8
:1000D0003D1900083D1900083D1900083D190008A8
:1000E0003D1900083D1900083D1900083D19000898
:1000F0003D1900083D1900083D1900083D19000888
:100100003D1900083D1900083D1900083D19000877
:100110003D1900083D1900083D1900083D19000867
:100120003D1900083D1900083D1900083D19000857
:100130003D190008518A00083D1900083D190008C2
:100140003D1900083D190008798A00083D1900088A
:100150003D1900083D1900083D1900083D19000827
:100160003D1900083D1900083D1900083D19000817
:100170003D1900083D1900083D1900083D19000807
:100180003D1900083D1900083D1900083D190008F7
:100190003D1900083D1900083D1900083D190008E7
:1001A0003D1900083D190008D51700083D19000841
:1001B0003D190008000000003D1900083D19000825
:1001C0003D190008000000003D1900083D19000815
:1001D0003D1900083D1900083D1900083D190008A7
:1001E0003D1900083D1900083D1900083D19000897
:1001F00000000000000000003D1900083D19000843
:100200003D1900083D1900083D1900083D19000876
:100210003D1900083D1900083D1900083D19000866
:100220003D1900083D1900083D1900083D19000856
:080230003D1900083D1900080A
:1002400010B5054C237833B9044B13B10448AFF310
:1002500000800123237010BD702C002000000000DE
:10026000A00D010808B5034B1BB103490348AFF3C8
:10027000008008BD00000000742C0020A00D0108C3
:100280004B1C012B98BF70472DE9F003911C9B0874
:10029000B1F80480B1F802900A8831F802CC8044A9
:1002A000814402448444D9F80070D8F8006015688D
:1002B000DCF80040C9F80060C8F80070CCF80050C5
:1002C0001460D9F80470D8F804605568DCF804406C
:1002D000C9F80460C8F80470CCF8045054600831C0
:1002E000013BD5D1BDE8F00370474B1C012B98BFF3
:1002F00070472DE9F003911C9B08B1F80480B1F818
:1003000002900A8831F802CC00EB580800EB59093A
:1003100000EB520200EB5C0CD9F80070D8F80060DA
:100320001568DCF80040C9F80060C8F80070CCF827
:10033000005014600831013BDFD1BDE8F003704785
:1003400010F8012B11F8013B012A28BF9A42F7D07F
:10035000D01A7047034613F8012B002AFBD1181A54
:100360000138704781F0004102E000BF83F0004394
:1003700030B54FEA41044FEA430594EA050F08BF40
:1003800090EA020F1FBF54EA000C55EA020C7FEA04
:10039000645C7FEA655C00F0E2804FEA5454D4EB81
:1003A0005555B8BF6D420CDD2C4480EA020281EA4B
:1003B000030382EA000083EA010180EA020281EA83
:1003C0000303362D88BF30BD11F0004F4FEA0131D5
:1003D0004FF4801C4CEA113102D0404261EB4101E4
:1003E00013F0004F4FEA03334CEA133302D052426A
:1003F00063EB430394EA050F00F0A780A4F1010426
:10040000D5F1200E0DDB02FA0EFC22FA05F280185F
:1004100041F1000103FA0EF2801843FA05F3594145
:100420000EE0A5F120050EF1200E012A03FA0EFCC4
:1004300028BF4CF0020C43FA05F3C01851EBE371EE
:1004400001F0004507D54FF0000EDCF1000C7EEB0B
:1004500000006EEB0101B1F5801F1BD3B1F5001F49
:100460000CD349085FEA30004FEA3C0C04F1010468
:100470004FEA445212F5800F80F09A80BCF1004F91
:1004800008BF5FEA500C50F1000041EB045141EA13
:10049000050130BD5FEA4C0C404141EB0101013CDC
:1004A00028BFB1F5801FE9D291F0000F04BF0146CB
:1004B0000020B1FA81F308BF2033A3F10B03B3F19D
:1004C00020020CDA0C3208DD02F1140CC2F10C022D
:1004D00001FA0CF021FA02F10CE002F11402D8BF8B
:1004E000C2F1200C01FA02F120FA0CFCDCBF41EA57
:1004F0000C019040E41AA2BF01EB0451294330BD26
:100500006FEA04041F3C1CDA0C340EDC04F1140402
:10051000C4F1200220FA04F001FA02F340EA0300D9
:1005200021FA04F345EA030130BDC4F10C04C4F11F
:10053000200220FA02F001FA04F340EA03002946FF
:1005400030BD21FA04F0294630BD94F0000F83F449
:10055000801306BF81F480110134013D4EE77FEA2C
:10056000645C18BF7FEA655C29D094EA050F08BF78
:1005700090EA020F05D054EA000C04BF1946104659
:1005800030BD91EA030F1EBF0021002030BD5FEA9D
:10059000545C05D14000494128BF41F0004130BDC5
:1005A00014F580043CBF01F5801130BD01F0004519
:1005B00045F0FE4141F470014FF0000030BD7FEA8C
:1005C000645C1ABF194610467FEA655C1CBF0B4687
:1005D000024650EA013406BF52EA033591EA030F9E
:1005E00041F4002130BD00BF90F0000F04BF002196
:1005F000704730B54FF4806404F132044FF00005C9
:100600004FF0000150E700BF90F0000F04BF002141
:10061000704730B54FF4806404F1320410F00045A7
:1006200048BF40424FF000013EE700BF42004FEAA2
:10063000E2014FEA31014FEA02701FBF12F07F431F
:1006400093F07F4F81F06051704732F07F4208BFD6
:10065000704793F07F4F04BF41F40021704730B5DD
:100660004FF4607401F0004521F000411CE700BF29
:1006700050EA010208BF704730B54FF000050AE0AC
:1006800050EA010208BF704730B511F0004502D5AD
:10069000404261EB41014FF4806404F132045FEAAF
:1006A000915C3FF4D8AE4FF003025FEADC0C18BF58
:1006B00003325FEADC0C18BF033202EBDC02C2F14A
:1006C000200300FA03FC20FA02F001FA03FE40EADC
:1006D0000E0021FA02F11444BDE600BF70B54FF0E0
:1006E000FF0C4CF4E06C1CEA11541DBF1CEA1355BE
:1006F00094EA0C0F95EA0C0F00F0DEF82C4481EA26
:10070000030621EA4C5123EA4C5350EA013518BF45
:1007100052EA033541F4801143F4801338D0A0FB32
:1007200002CE4FF00005E1FB02E506F00042E0FBDF
:1007300003E54FF00006E1FB03569CF0000F18BFE5
:100740004EF0010EA4F1FF04B6F5007F64F540748D
:1007500004D25FEA4E0E6D4146EB060642EAC62120
:1007600041EA55514FEAC52040EA5E504FEACE2E8D
:10077000B4F1FD0C88BFBCF5E06F1ED8BEF1004F90
:1007800008BF5FEA500E50F1000041EB045170BD0C
:1007900006F0004646EA010140EA020081EA030150
:1007A000B4EB5C04C2BFD4EB0C0541EA045170BD4C
:1007B00041F480114FF0000E013C00F3AB8014F1C6
:1007C000360FDEBF002001F0004170BDC4F100040F
:1007D000203C35DA0C341BDC04F11404C4F1200590
:1007E00000FA05F320FA04F001FA05F240EA0200EB
:1007F00001F0004221F0004110EBD37021FA04F621
:1008000042EB06015EEA430E08BF20EAD37070BDDA
:10081000C4F10C04C4F1200500FA04F320FA05F039
:1008200001FA04F240EA020001F0004110EBD3703B
:1008300041F100015EEA430E08BF20EAD37070BDAB
:10084000C4F1200500FA05F24EEA020E20FA04F384
:1008500001FA05F243EA020321FA04F001F0004133
:1008600021FA04F220EA020000EBD3705EEA430EA4
:1008700008BF20EAD37070BD94F0000F0FD101F0D3
:100880000046400041EB010111F4801F08BF013C0C
:10089000F7D041EA060195F0000F18BF704703F04A
:1008A0000046520043EB030313F4801F08BF013DD1
:1008B000F7D043EA0603704794EA0C0F0CEA13558D
:1008C00018BF95EA0C0F0CD050EA410618BF52EA47
:1008D0004306D1D181EA030101F000414FF000004D
:1008E00070BD50EA410606BF1046194652EA43065B
:1008F00019D094EA0C0F02D150EA013613D195EACF
:100900000C0F05D152EA03361CBF104619460AD116
:1009100081EA030101F0004141F0FE4141F4700120
:100920004FF0000070BD41F0FE4141F4780170BD10
:1009300070B54FF0FF0C4CF4E06C1CEA11541DBF75
:100940001CEA135594EA0C0F95EA0C0F00F0A7F877
:10095000A4EB050481EA030E52EA03354FEA0131A4
:1009600000F088804FEA03334FF0805545EA1313B7
:1009700043EA12634FEA022245EA111545EA10657F
:100980004FEA00260EF000419D4208BF964244F116
:10099000FD0404F5407402D25B084FEA3202B61A35
:1009A00065EB03055B084FEA32024FF480104FF409
:1009B000002CB6EB020E75EB030E22BFB61A75467D
:1009C00040EA0C005B084FEA3202B6EB020E75EB10
:1009D000030E22BFB61A754640EA5C005B084FEA78
:1009E0003202B6EB020E75EB030E22BFB61A754645
:1009F00040EA9C005B084FEA3202B6EB020E75EB50
:100A0000030E22BFB61A754640EADC0055EA060E10
:100A100018D04FEA051545EA16754FEA06164FEA53
:100A2000C30343EA52734FEAC2025FEA1C1CC0D1FF
:100A300011F4801F0BD141EA00014FF000004FF08C
:100A4000004CB6E711F4801F04BF01430020B4F14D
:100A5000FD0C88BFBCF5E06F3FF6AFAEB5EB030C05
:100A600004BFB6EB020C5FEA500C50F1000041EB02
:100A7000045170BD0EF0004E4EEA113114EB5C04CF
:100A8000C2BFD4EB0C0541EA045170BD41F48011A2
:100A90004FF0000E013C90E645EA060E8DE60CEAAA
:100AA000135594EA0C0F08BF95EA0C0F3FF43BAFC7
:100AB00094EA0C0F0AD150EA01347FF434AF95EA7E
:100AC0000C0F7FF425AF104619462CE795EA0C0F62
:100AD00006D152EA03353FF4FDAE1046194622E72F
:100AE00050EA410618BF52EA43067FF4C5AE50EA09
:100AF00041047FF40DAF52EA43057FF4EBAE12E7F9
:100B00004FF0FF3C06E000BF4FF0010C02E000BFD9
:100B10004FF0010C4DF804CD4FEA410C7FEA6C5CBC
:100B20004FEA430C18BF7FEA6C5C1BD001B050EA5F
:100B3000410C0CBF52EA430C91EA030F02BF90EA4A
:100B4000020F0020704710F1000F91EA030F58BF09
:100B5000994208BF90422CBFD8176FEAE37040F06B
:100B6000010070474FEA410C7FEA6C5C02D150EA09
:100B7000013C07D14FEA430C7FEA6C5CD6D152EAC4
:100B8000033CD3D05DF8040B704700BF8446104689
:100B900062468C461946634600E000BF01B5FFF788
:100BA000B7FF002848BF10F1000F01BD4DF808ED58
:100BB000FFF7F4FF0CBF012000205DF808FB00BF29
:100BC0004DF808EDFFF7EAFF34BF012000205DF883
:100BD00008FB00BF4DF808EDFFF7E0FF94BF0120D0
:100BE00000205DF808FB00BF4DF808EDFFF7CEFFD1
:100BF00094BF012000205DF808FB00BF4DF808ED10
:100C0000FFF7C4FF34BF012000205DF808FB00BFE0
:100C10004FEA410C7FEA6C5C02D150EA013C0AD1F8
:100C20004FEA430C7FEA6C5C02D152EA033C02D1EA
:100C30004FF0000070474FF0010070474FEA41024B
:100C400012F5001215D211D56FF47873B3EB62521E
:100C500012D94FEAC12343F0004343EA505311F045
:100C6000004F23FA02F018BF404270474FF00000D7
:100C7000704750EA013005D111F0004008BF6FF015
:100C8000004070474FF00000704700BF53B94AB9A9
:100C9000002908BF00281CBF4FF0FF314FF0FF3084
:100CA00000F0E4B9ADF1080C6DE904CE00F03AF8BB
:100CB000DDF804E0DDE9022304B0704707EE900A96
:100CC000F5EEC07AF1EE10FA01D400F00BB8F1EEB7
:100CD000677A08B517EE900A00F004F8404261EB1D
:100CE000410108BDD0B5FFF7A1FC00220B4B064621
:100CF0000F46FFF7F3FC00F0BBF90446FFF774FC66
:100D00000022074BFFF7EAFC02460B463046394605
:100D1000FFF72CFB00F0ACF92146D0BD0000F03D00
:100D20000000F0412DE9F04F099D884604468E46AB
:100D3000002B4AD18A4217465FD9B2FA82F64EB1E9
:100D4000C6F1200301FA06FEB740B44020FA03F3CF
:100D500043EA0E0E4FEA17481FFA87FC230CBEFB2E
:100D6000F8F108FB11EE01FB0CF243EA0E439A4244
:100D700007D9FB1801F1FF3002D29A4200F25481E8
:100D800001469B1AA2B2B3FBF8F008FB103300FB3C
:100D90000CFC42EA034294450BD9BA1800F1FF3328
:100DA0002CBF01240024944502D9002C00F03F817F
:100DB000184640EA0140A2EB0C0200211DB1F240AE
:100DC0000023C5E90023BDE8F08F8B4205D90DB1A2
:100DD000C5E9000100210846F5E7B3FA83F10029CF
:100DE0004ED14345C0F01281824240F20F81084645
:100DF000002DE8D0C5E9004EE5E7002A00F0AC8000
:100E0000B2FA82F6002E40F0BB808B1A4FEA124EE7
:100E1000BCB20121020C80B2B3FBFEFC0EFB1C3302
:100E200042EA034304FB0CF29A420ED9FB180CF180
:100E3000FF382CBF4FF001094FF000099A4203D947
:100E4000B9F1000F00F0EC80C4469B1AB3FBFEF82A
:100E50000EFB183304FB08F440EA034294420BD91A
:100E6000BA1808F1FF332CBF01200020944202D9A8
:100E7000002800F0D1809846121B48EA0C409DE7FC
:100E8000C1F120068B4008FA01F400FA01F922FAB8
:100E900006F728FA06F88A401F4320FA06F3380CB2
:100EA00023431FFA87FC1C0CB8FBF0FE00FB1E88D6
:100EB00044EA08440EFB0CF8A0450ED93C190EF18B
:100EC000FF3A2CBF4FF0010B4FF0000BA04503D9A8
:100ED000BBF1000F00F0B880D646A4EB08041FFA5F
:100EE00083F8B4FBF0F300FB134403FB0CFC48EA6B
:100EF0000444A4450ED93C1903F1FF302CBF4FF038
:100F000001084FF00008A44503D9B8F1000F00F024
:100F10009F80034643EA0E40A4EB0C04A0FB02ECC6
:100F200064457346E04602D307D1F14505D2BEEBD6
:100F300002036CEB070C0138E0465DB1B9EB03022C
:100F400064EB080404FA06F622FA01F3CC401E43CF
:100F5000C5E90064002136E7B1FBF2FC010C144640
:100F600080B2964641EA08412026904640EA014375
:100F70001046B1FBF2F1A3EB080341EA0C414BE749
:100F8000B740C6F1200301FA06F221FA03F84FEA4E
:100F9000174E20FA03F3BCB2B0401343020C190CF5
:100FA00080B2B8FBFEF90EFB198841EA084109FB43
:100FB00004F8884551D9791809F1FF3C2CBF4FF04E
:100FC000010A4FF0000A884502D9BAF1000F31D06A
:100FD000A1EB0801B1FBFEF909FB04F80EFB1911A6
:100FE0009BB243EA0143434535D2FB1809F1FF3177
:100FF0002CBF4FF0010A4FF0000A4345BBD2BAF1B3
:10100000000FB8D1A9F102013B44B4E7841A68EBA0
:10101000030201209646EBE63A44A8F102082BE7CA
:10102000ACF1020C3B4410E702393B44A9E63A44D8
:101030000238BEE6A7EB0808A9F1020C4144B1FB57
:10104000FEF909FB04F8C9E7AEF1020E3C4444E79F
:10105000023B3C445EE749468DE7A1EB0801CC46E4
:10106000B1FBFEF909FB04F8B8E700BF704700BF09
:101070004A0011D212F5001211D20DD56FF4787317
:10108000B3EB62520ED44FEAC12343F0004343EA6C
:10109000505323FA02F070474FF00000704750EAB7
:1010A000013002D14FF0FF3070474FF00000704721
:1010B000814262D0002A5FD070B5814282B045D3B0
:1010C000032A5CD900F0030CCCF1000303F0030306
:1010D00001F0030ED21A7BB15C1E11F8013B00F83F
:1010E000013B4CB111F8013B00F8013B012C03D04E
:1010F00011F8013B00F8013BF44552D05FEA121CA5
:101100000BD051F8043B51F8044B51F8045B51F8F3
:10111000046B78C0BCF1010CF3D1160704D551F86B
:10112000043B51F8044B18C0550703D551F8043B54
:1011300040F8043B940703D531F8023B20F8023B0A
:10114000D30701D50B78037002B070BD01EB020E1E
:101150008645B5D910440446734613F901CD99422A
:1011600004F801CDF9D352420EF1FF3E714588BF1C
:101170004FF0FF321044E7E7704708467047013AE6
:1011800011F8013B00F8013B002ADDD011F8013BCA
:1011900000F8013B012AD7D011F8013B00F8013BD0
:1011A000D2E7019000F05CF90198CDE70000000063
:1011B00070B59EB06022002106A80DF085FC0023CA
:1011C0004FF44030CDE90033CDE90233CDE90433AB
:1011D00002F03AFA08B172B6FEE7012202234FF498
:1011E000005410219FED167BCDE91432CDE919335F
:1011F00017940A2303240F9006A818938DED1C7BE7
:10120000CDE90D2106911B92169402F02BFD0346A9
:1012100008B172B6FEE71F2670255022CDE90143C2
:10122000702368460421CDE904230096039502F05B
:10123000B3FB08B172B6FEE71EB070BDAFF300801D
:101240000C00000000000000002400B58BB001F08D
:101250001DFC02F095FA02F09BFAFFF7A9FFCDE919
:101260000544CDE90744724D0994D5F88C304FF40C
:10127000005143F01003C5F88C30D5F88C3022466D
:1012800003F010030093009BD5F88C30694843F0BD
:101290002003C5F88C30D5F88C30012603F02003EC
:1012A0000193019BD5F88C3043F04003C5F88C3096
:1012B000D5F88C3003F040030293029BD5F88C30B4
:1012C00043F00103C5F88C30D5F88C3003F00103EE
:1012D0000393039BD5F88C3043F00203C5F88C30A0
:1012E000D5F88C3003F002030493049B02F088F9D4
:1012F00022464FF40071504802F082F901224FF467
:1013000080714E4802F07CF94FF40053494805A91A
:101310000593CDE90664089601F0E8FF4FF40073E9
:10132000454805A9CDE90536CDE9074601F0DEFFC0
:101330004FF48073414805A9CDE90536CDE907444E
:1013400001F0D4FFD5F8883022463343C5F8883001
:10135000D5F88830214633401E200593059B01F0C7
:10136000EBFB1E2001F024FC03214FF00062344807
:10137000344BC0E90114C0E9034203602246022352
:101380002146C0E90544C0E90B44C461446305F04B
:101390006DFA08B172B6FEE703462B4A2B48C0E946
:1013A000002301F037FC08B172B6FEE702F02EF917
:1013B00008B172B6FEE702F03DF90346B0B94FF44A
:1013C000E1310C22224C2348616020602046C4E9B0
:1013D0000333C4E90633C4E90833A360A36262613E
:1013E00006F076FD014618B172B6FEE772B6FEE76A
:1013F000204606F0A7FE014608B172B6FEE7204679
:1014000006F0E2FE08B172B6FEE7204606F07CFE6A
:10141000054608B172B6FEE707F0A2FA01F072FBCA
:101420000D4C2368002BFCD0256007F063FCF8E727
:10143000000C024600140242001002420004024264
:10144000082D00200454014000140340C82E002041
:10145000A02D0020003801409C8B002072B6FEE7D2
:101460002DE9F00F32F03F0B0AD0B1E8F807A0E801
:10147000F807B1E8F807BBF1400BA0E8F807F4DC87
:1014800012F0200F1CBFB1E8F807A0E8F80712F02F
:10149000100F1CBF78C978C012F0080F1CBFF1E80C
:1014A0000234E0E8023412F0040F1CBF51F8043B90
:1014B00040F8043B12F0020F1CBF31F8023B20F849
:1014C000023B12F0010F1CBF11F8013B00F8013B79
:1014D000BDE8F00F7047000000B50B4B83B0D3F8A8
:1014E000942042F00402C3F89420D3F8943003F01F
:1014F00004030193019B02F043F9042003B05DF85B
:1015000004EB01F007BB00BF000C02460A4B026867
:101510009A4200D07047094B82B0D3F8882042F03D
:101520008042C3F88820D3F8883003F080430193C9
:10153000019B02B0704700BF00140340000C02463C
:1015400010B500210446BCB0C8220AA8CDE9041198
:10155000CDE9061108910DF0B7FA474A2368934286
:1015600004D0464A93423BD03CB010BD2022002319
:101570000AA8CDE90A2303F0FFFB002869D19FEDFB
:10158000386B9FED397B08243D4B04A9D3F8A82084
:101590003C4842F04002C3F8A820D3F8A82002F04B
:1015A00040020092009AD3F88C2042F04002C3F827
:1015B0008C20D3F88C308DED046B03F04003019345
:1015C0008DED067B019B089401F090FE00224220E5
:1015D000114601F0B1FA422001F0EAFA3CB010BD28
:1015E000012200230AA8CDE90A2303F0C5FB98BB1A
:1015F0009FED1F6B9FED1C7B0724214B04A9D3F8A3
:10160000A420214842F48042C3F8A420D3F8A420A7
:1016100002F480420292029AD3F88C2042F0010236
:10162000C3F88C20D3F88C308DED046B03F00103EC
:1016300003938DED067B039B089401F057FE002277
:101640003D20114601F078FA3D2001F0B1FA3CB09E
:1016500010BDFFF703FF92E7FFF700FFC8E700BFE9
:1016600080010000020000000000000000000000F7
:10167000000600000200000000240046003801407F
:10168000000C02460018024200000242F0B5044677
:10169000B9B0C822002106A80DF016FA3B4B22680B
:1016A0009A4201D039B0F0BD08234FF4005600270C
:1016B0000122CDE90A330C23CDE906670892022600
:1016C000032202270E934FF4803306A8CDE90C675E
:1016D0000992109303F050FB00283AD12C4D2A6850
:1016E000002A3CD0022370210132002601272A6003
:1016F0000D22CDE90113274801A9274D0592CDE917
:10170000037601F0F3FD254B4FF400222B602423D8
:101710006A61C5E901364FF480324FF480032846F0
:10172000C5E90366C5E90977C5E90B66C5E907237D
:10173000AF616E6301F0ACFA70B910211648C4F8BD
:101740008450EC6501F054FD0028ABD0FFF786FE15
:10175000A8E7FFF783FEC1E7FFF780FEEDE7104B38
:101760005A20D3F8A41041F40011C3F8A410D3F800
:10177000A430114603F400130093009B01F0DCF940
:101780005A2001F015FA2A68ACE700BF0454014062
:10179000F42E0020001002428C2C0020D0000240C9
:1017A000000C0246FEE700BFFEE700BFFEE700BFF9
:1017B000FEE700BFFEE700BF704700BF704700BFF5
:1017C000704700BF01F08CB9014801F047BC00BF71
:1017D0008C2C0020014805F0B7BA00BF082D00206E
:1017E0000120704708B50DF02DFA162203464FF080
:1017F000FF301A6008BD00BF08B50DF023FA1623AC
:101800000360FEE770B5161E07DD0C468D19AFF3B9
:10181000008004F8010BA542F9D1304670BD00BF2D
:1018200070B5161E07DD0C468D1914F8010BAFF3C9
:101830000080A542F9D1304670BD00BF4FF0FF30A7
:10184000704700BF4FF4005300204B60704700BF4B
:1018500001207047002070470D49034610B50D4A1E
:101860000D4C0868121B20B10344934207D80B604B
:1018700010BD0A4C2046034493420C60F7D90DF08A
:10188000E1F90C2203464FF0FF301A6010BD00BF93
:10189000F82E002000000C2000080000E0C5002009
:1018A0000022012110B44FF000640E48D0F88830B7
:1018B00043F47003C0F888300B4B1960DA611A6288
:1018C0005A62196821F0A85121F4102119609A6216
:1018D000196821F4802119601A6584605DF8044B51
:1018E000704700BF00ED00E0000C0246DFF834D086
:1018F000FFF7D6FF002103E00B4B5B584350043148
:101900000A480B4B42189A42F6D30A4A02E00023D7
:1019100042F8043B084B9A42F9D30DF099F9FFF7CE
:1019200093FCFEE700000C20A8BE03080000002086
:10193000702C0020702C0020DAC50020FEE700008B
:10194000DFED067A3AB1F0EC016AB1EC017A013AC6
:10195000E6EE877AF7D1C3ED007A70470000000009
:1019600072B1083050ED017A10ED027A67EEA77A75
:10197000E7EE077A013AE1EC017A00F10800F1D1D3
:10198000704700BF2DE9F04105460846B5F80080D4
:101990002DED088B4FEA580100EB88065FEAD80866
:1019A0006A6800F0A5804FEA810C0CF1100C00F180
:1019B000100300EB0C0403EB0818B44402F1100709
:1019C00006F1100E1CED043A5CED036A5EED024A6E
:1019D0001EED015A5CED027A1CED017A1EED040A3F
:1019E0001EED031A53ED040A53ED031A13ED022AF8
:1019F00053ED012A54ED043A14ED034A54ED025A12
:101A000014ED016A72EE24AA32EE85AA73EE839A6F
:101A100034EE269A75EEA78A36EE078A70EE80BA03
:101A200031EE81BA103443ED04BA03ED03BA43ED4D
:101A300002AA03ED01AA103744ED089A04ED079AB3
:101A400044ED068A04ED058A76EEC46A33EE633A05
:101A500077EEE57A57ED085A37EE467A32EE642A89
:101A600017ED076A72EEC52A65EEE64A70EEC00A07
:101A700071EEC11A23EE255A61EE863AA6EE865A19
:101A800026EE604AF0EE646AA1EEA54AE3EE066A2D
:101A9000E0EEA53A0CF1100C0EED034A4EED043ABF
:101AA0000CED075A4CED086A17ED066A57ED056A0A
:101AB00067EE865A26EE475AE7EE265A22EEA64AE7
:101AC00066EEC24AB0EE457AA2EE064AE2EE864AD9
:101AD000A7EEA67A103343450EF1100E0EED064A1E
:101AE0004EED054A0CED067A4CED055A7FF46AAFCF
:101AF0008CB22146022300F035FBBDEC088B214659
:101B000030466A680223BDE8F04100F02BBB00BFFD
:101B10002DE9F04F2DED068B03468FB00C90084653
:101B20001A8890ED007A520800EBC20595ED006A24
:101B300005EB8207D7ED005A77EE066AD5ED014A2C
:101B4000D0ED017A00EB820494ED005A35EEA63A0E
:101B500037EE467A37EEA46A77EEE47A194633EE2A
:101B6000053A35EEA74A97ED012AD4ED012A53082C
:101B70004FEA82094A6880ED003A76EEC56A75EE52
:101B8000277A34EE455A97ED014A01920B939A1E3B
:101B9000019B72EE873A03F1080E019BCDF818E025
:101BA00003F1100E019B76EE624A76EEE56A77EE5F
:101BB000E57ACDF810E0D4ED015A03F1180E36EEB7
:101BC000046A034632EE077A214608332E4673EE46
:101BD000C23A36EE256A059374EEC24A3B4637EEAA
:101BE000627A0831039780ED016A09940A95CDF86D
:101BF0001CE00836C4ED003A0891510884ED015A02
:101C00000296C5ED006AC5ED014A07F1080783EDAC
:101C1000007AC3ED017A0D9100F031811E46019AE0
:101C2000A9F10C03334404F1100EA4F10C0602F1E7
:101C3000200A039C02F13009039ADDF810B0A5F1E7
:101C40000C0C00F1100810350C3C103212ED026A39
:101C50005EED026A15ED024A18ED027A55ED013A81
:101C600058ED017A77EE041A76EE864A52ED015A63
:101C700037EE447A74EEA14A37EEA34A77EEE37A60
:101C800008F108081EED015A77EE652A48ED044A6E
:101C900037EEE63A77EEC67A0EF1080E083272EEAB
:101CA000852A74EE450A71EEE61A37EE457A37EE6C
:101CB000A65A52ED036A5EED037A77EEA67A77EEC6
:101CC000847A48ED037A37EE257AD4ED029AD6ED80
:101CD000027A33EE063A71EEC61A70EEE50A9CED12
:101CE000026AD3ED025A93ED018A77EEA93A36EEF5
:101CF000254ADCED018A73EE84AA39EE881A94ED48
:101D0000010A76EE654AC6ED02AA33EEC66A31EEE6
:101D1000681A96ED019A77EE886A76EE655A31EE8A
:101D2000671A9CED016AD3ED017A39EE00AA36EE0E
:101D3000276A36EE0A6A76EEE96A86ED016A76EE81
:101D4000E86A1BED026A5BED017A34EEC02A74EE9C
:101D5000C94A32EE092A74EE804A34EE634A26EE0E
:101D6000860A23EE279A7AEE683AA2EE270A73EEE5
:101D7000C83A67EEE28A26EE428AB0EE492AA2EE1F
:101D8000862AF0EE682AE3EE062AB0EE486AA6EE4E
:101D9000A76A4EED032A0EED042A8CED026A8CED43
:101DA000010A5AED037A27EEE13A1AED046A65EE6C
:101DB000A76A60EEA72AF0EE435A67EEE37AE3EEF5
:101DC000C66AE4EE067AE0EE865AE1EE862A45ED32
:101DD000022A45ED015AC4ED016AC4ED027A59EDBB
:101DE000066A59ED057A66EEE45A27EEC74A21EEF7
:101DF000266A65EE273AA4EEA76AE7EE263AF0EEE9
:101E0000444AB0EE657AE5EE264AA1EE277A01391A
:101E1000ACF1080CA3F10803A6F10806A4F108042C
:101E200042ED043A42ED034A0BF1080B0AF1100AA5
:101E300005F1080509F1180983ED047A83ED036AB9
:101E40007FF404AF0D9B059A07EBC30702EBC302B7
:101E50000592069A02EBC3020692089A02EBC302AD
:101E60000892049A02EB03120492029A02EBC30254
:101E70000292079A03EB430302EBC3030793089D07
:101E8000059E029B97ED004AD5ED006AD3ED005AFE
:101E900096ED007A93ED016AD6ED017A77EE251A78
:101EA00076EE843A37EE862A73EEA13A77EEC67A5A
:101EB000D5ED012A97ED013A37EE657AC6ED003A85
:101EC00071EEE65A37EEE65A77EEC47A75EEC45AEA
:101ED00077EEA67A35EE045AD5ED016A97ED014A00
:101EE00076EE846A76EE826A77EE434AC6ED016A40
:101EF000069E74EEA24AD6ED016AD6ED003A25EEB2
:101F0000264A66EEE46AA4EEA34AE5EE236A85ED6E
:101F1000004AC5ED016A32EE626A049E36EE436AFB
:101F2000D6ED016AD6ED004A26EE265A66EEE56A3F
:101F3000E6EE246AA5EEA45A029D37EE627AC5ED5C
:101F4000016A85ED005A079D37EE037AD5ED016AE7
:101F5000D5ED005A27EEA66A66EEC76AA7EE256A97
:101F6000E7EEA56ABDF82C40019A2146042387EDCF
:101F7000006AC7ED016A00F0F5F80C9D214609984A
:101F80006A68042300F0EEF821460A986A68042380
:101F900000F0E8F80423214603986A680FB0BDEC0E
:101FA000068BBDE8F04F00F0DDB800BF012A2DE937
:101FB000F041064617460C46984605885FD0B5F5B1
:101FC000807F6DD02FD8402D45D071D8102D34D0C2
:101FD000202D65D0B8F1000F04D02046B268B18939
:101FE000FEF74EF9012F31D107EE905AB7EE007A85
:101FF000F8EE677AC7EE276A45B3002304F10801BB
:1020000011ED027A51ED017A27EE267A67EEE67A33
:1020100001339D4201F1080101ED047A41ED037A9B
:10202000EED1BDE8F081B5F5006F39D010D8B5F527
:10203000007F10D0B5F5806F3CD121463046FFF7C8
:10204000A1FCB8F1000FC8D1012F0FD0BDE8F0817D
:10205000B5F5805F2ED1012329462046726800F035
:1020600081F8B8F1000FB8D1012FEFD107EE905AE7
:10207000B7EE007AF8EE677AC7EE276ABDE7EDB1F2
:102080004FF0000C0C3151ED027AF1EE677A0CF151
:10209000010C654501F1080141ED047AF3D18EE7A9
:1020A00021463046FFF734FDB8F1000FCCD094E75D
:1020B000802DC2D0B8F1000FC6D08EE7002BC5D05E
:1020C000826881892046FEF7DBF88DE70023B1F5B1
:1020D000807F436001802DD00BD9B1F5006F25D0F2
:1020E0001BD8B1F5007F16D0B1F5806F24D1144B09
:1020F00007E040291CD015D810290AD020291BD16F
:10210000104B9989D3E901328181C0E90132002065
:1021100070470D4BF5E70D4BF3E7B1F5805F0BD141
:102120000B4BEEE7802907D10A4BEAE70A4BE8E7B9
:102130000A4BE6E70A4BE4E74FF0FF30704700BF79
:1021400020E2020870E2020880E2020830E202089F
:1021500000E2020850E2020810E2020860E202080F
:1021600040E202082DE9F04F2DED108B93B00E9355
:102170000346DFEDC5BA8A468B46CDE90F2004330E
:1021800011934FF0000E4FEADB0707EB87014FEA90
:10219000CB000090C800C7EBC701109B4FEAC709EE
:1021A0004FEA07180290C800059008F1040109F1F0
:1021B000040007EB470603EB4712184419447B0160
:1021C00002EB07150D9701933301A5EBC6040393AA
:1021D000F3000D9E0493DDF844C0009B02EBC7079B
:1021E00004EB4616D5ED006AD4ED004A96ED004AA0
:1021F00011ED016AD2ED003A97ED005A1CED017A1B
:1022000050ED017A34EE840A37EE858A76EE265A4E
:1022100076EE662A36EEC66A77EE236A77EEC57AE0
:1022200037EE637A36EEA55A78EE003A76EEE56A36
:1022300035EE233A77EEE45A35EE635A77EEC47AF8
:102240000CED013A77EEA47A82ED005A75EE845ACD
:10225000B0EE471AD0ED004AA5EEEB1AA5EEAB7A28
:10226000A7EEAB6AD7ED015AD2ED013AD4ED018A5F
:1022700091ED005A96ED01AA9CED004A95ED019A68
:10228000B0EE462A34EEE56A74EEA54A75EE09AA68
:1022900074EE235A76EE680A34EE634A76EEE49AD8
:1022A00078EE8A3A35EE493A70EE8A0A39EE459A66
:1022B00036EE4A6A35EEEA5A76EEE36A75EEAA5AC7
:1022C00079EEA39A74EEA3AAF0EE443A36EE286AA9
:1022D00076EEA46A75EE488AE0EEEB3A35EE405AA7
:1022E000F0EE444A35EE085AE0EEAB4AB0EE638AAF
:1022F000F0EE430AF0EE621AB0EE41AAB0EE494A9F
:10230000E7EEAB1AE6EE2B0A35EEAABAA6EE6BAAFA
:1023100075EEEA5AA6EE2B4AA7EEEB8A8CED00BAD0
:1023200038EE806AC2ED015A37EE200A41ED016AAB
:1023300037EE607A74EEE16A33EE0A3A31EE044A1F
:1023400071EEA45A73EE823A72EE887ADE44F24558
:10235000C5ED009A9C4481ED006A1A4485ED015A4E
:10236000194400ED010A1D4486ED007A87ED003A1C
:1023700084ED004AC0ED006AC6ED015A1844C7ED6D
:10238000013A1E44C4ED017A1F441C443FF62AAFB3
:102390001F460D9B072B40F2B381019D109E029CAE
:1023A000083509F1080973190398049908340C9346
:1023B00006EB0903059A08300B93331908310A9389
:1023C000331808320993731808F10C080893B318EE
:1023D000079306EB0803059306F10C0306934FF0F1
:1023E00001094FF000083B46DDE905C7DDE9076557
:1023F000DDE909400E9ACE4690440F9A08EB480159
:1024000002EBC802D2ED00EA02EBC80292ED00EA4C
:1024100002EBC802D2ED00DA02EBC80292ED00DA5C
:1024200002EBC802D2ED00CA02EBC80292ED00CA6C
:1024300002EBC80292ED00BAD2ED01AAA2EB0112A2
:1024400092ED01AA02EBC802D2ED017A02EBC802BA
:10245000CDED017AD2ED017A02EBC802CDED027A20
:10246000D2ED017A02EBC802CDED007AD2ED017A0D
:1024700002EBC802CDED037AD2ED017ADDE90B1251
:10248000CDED047A02E000BFF304353F95ED006A1C
:1024900096ED007A5CED017A90ED003AD4ED003AC9
:1024A000D2ED002A57ED014A91ED005A76EE070A67
:1024B00035EE030A37EEA34A74EEA26A35EE435AAC
:1024C00036EE843A76EEC46A30EE204A77EEE38A3E
:1024D00074EEE24A73EEE73A73EE042A75EE467A3A
:1024E00047ED012A77EE877A35EE475AF0EE649A87
:1024F000D0ED012A35EE065A33EE443A91ED016AE9
:10250000E7EEEB9AE7EEAB4ADDED007A96ED01FAE5
:10251000DCED001AD7ED005A94ED017A92ED019AA4
:1025200036EE624A23EE671AD5ED017A36EE226A5C
:1025300031EE872A77EE8FFA75EE892A75EEC95A41
:1025400031EEC79A37EE617A74EE671A34EE4F4A6D
:1025500071EE8F1A36EEEFFA76EEC66A34EE274A3F
:102560007FEEA66A72EEC27A3FEE06FA72EE822A19
:1025700036EE2F2AF0EE65FAB0EE656AE1EEEBFA80
:10258000A1EEAB6AF0EE495AF0EE691AE4EE2B5A6E
:10259000B0EE688AA4EE2B7AE4EE6B1AB0EE6F4AC6
:1025A000A5EE2B8AE5EE2B3AA5EE6B4A37EEE05A04
:1025B00037EE297A30EE055ADDED049A7FEEA3FA64
:1025C00077EEC07A34EEA50A74EEE55ADDED034AE3
:1025D00071EE891A38EE844A64EEAF3A76EE488A94
:1025E00038EE066A26EEE98A9DED019A77EEA07A2A
:1025F00061EEE44A72EEC20AECEEA13AACEE058A54
:10260000DDED001A29EE855A32EE822AADEE201A4F
:102610006FEE492A61EEA01AACEE265ADDED026A91
:1026200087ED002AEEEE272A82ED011A69EE277A5D
:10263000EDEE031A2AEE282A26EE843A20EE4A9A74
:102640006AEE860A25EEEA1A67EE666AECEEAF4A93
:10265000EEEE0F7AADEE873AEDEE846AAEEE802AAA
:10266000AEEEA89AEBEE250AABEE061ADE44F24572
:10267000C2ED001A1F444CED017ACCED002A1A4439
:1026800084ED005A84ED018A9C4481ED002A81ED9D
:10269000019A1C44C6ED000A194486ED011AC0EDEA
:1026A000003AC0ED014A1E4485ED003AC5ED016ACD
:1026B00018441D443FF6EAAE0C9A09F101090832AC
:1026C0000C920B9A08320B920A9A08320A92099AD3
:1026D00008320992089A08320892079A083207923B
:1026E000069A08320692059A083205920D9A4A45D2
:1026F0007FF47AAE0E9B9346DB009BB20E9340E5CF
:1027000013B0BDEC108BBDE8F08F00BFD1ED017AA6
:1027100077EEA77A91ED006AF0EE006AB0EE677A84
:10272000B6EE004AA6EE267AD6EE267A27EE047A90
:1027300067EE847A436900B5B0F800E082ED007A74
:10274000C2ED017A0EF1FF3E03F1100001EBCE0362
:10275000083B103102F1100C11ED027AD3ED036A3F
:10276000D3ED027A51ED014A10ED026A50ED015AA3
:1027700037EEC75A77EE877A34EEE67AE6EE057AD8
:1027800076EEA46AA5EE857AE5EEA67AA6EE667ADE
:1027900067EE847A27EE047A0EF1FF3EBEF1000F59
:1027A0000CF1080C00F1080001F10801A3F1080385
:1027B0004CED047A0CED037ACEDC5DF804FB00BF2F
:1027C000D1ED007AD1ED016AB6EE004A37EEA67A75
:1027D00077EEE67A27EE047A67EE847AB0F800C0E6
:1027E00000B50CF1FF3EBEF1000F406901EBCE03D6
:1027F00082ED007AC2ED017A32DDA3EBCC0C103011
:1028000010321031083BD3ED036AD3ED027A11ED9B
:10281000027A51ED014A10ED026A50ED015A37EE8D
:10282000675A77EE877A34EEE67AE6EE457A76EE08
:10283000A46AA5EE857AE5EEE67AA6EE667A67EEFC
:10284000847A27EE047A083B9C4502F1080200F1E5
:10285000080001F1080142ED047A02ED037AD2D1B9
:102860005DF804FB2DE9F041054616461C464BB1C8
:10287000FFF7A6FF224631462846BDE8F041012376
:10288000FFF794BB0F461A460123FFF78FFB324632
:1028900039462846BDE8F041FFF738BF50B110B5C2
:1028A00010210446FFF712FC18B92023034A2382A3
:1028B000626110BD4FF0FF30704700BF288D0108E6
:1028C00050B110B520210446FFF700FC18B9402391
:1028D000034A2382626110BD4FF0FF30704700BF92
:1028E000288C010850B110B540210446FFF7EEFBDB
:1028F00018B98023034A2382626110BD4FF0FF3074
:10290000704700BF288A010858B110B580210446DD
:10291000FFF7DCFB20B94FF48073034A2382626126
:1029200010BD4FF0FF3070472886010860B110B528
:102930004FF480710446FFF7C9FB20B94FF40073D0
:10294000034A2382626110BD4FF0FF30704700BF21
:10295000287E010860B110B54FF400710446FFF7FE
:10296000B5FB20B94FF48063034A2382626110BD36
:102970004FF0FF30704700BF286E010860B110B5FE
:102980004FF480610446FFF7A1FB20B94FF40063C8
:10299000034A2382626110BD4FF0FF30704700BFD1
:1029A000284E010860B110B54FF400610446FFF7EE
:1029B0008DFB20B94FF48053034A2382626110BD1E
:1029C0004FF0FF30704700BF280E0108B1F5007FBF
:1029D0001DD008D880291CD014D820290ED0402919
:1029E0001BD10F4B1847B1F5006F14D0B1F5805FC4
:1029F00006D0B1F5806F10D10A4B18470A4B184723
:102A00000A4B1847B1F5807F07D1094B1847094B8E
:102A10001847094B1847094B18474FF0FF307047CC
:102A2000C1280008552900089D280008A52900088C
:102A3000092900082D290008E52800087D2900083B
:102A400038B50F4B1B780BB9012038BD4FF47A72A3
:102A5000B2FBF3F30B4905460868B0FBF3F000F056
:102A6000B5F804460028EFD10F2DEDD802462946CF
:102A70004FF0FF3000F060F8034B20461D6038BD7A
:102A8000040000200000002008000020104A10B5BB
:102A90001368032043F48073136000F03BF800F0E8
:102AA000DDFE03460B4A0C48126A0C4902F00F0285
:102AB000825C0020D3400B60FFF7C2FF10B10124FD
:102AC000204610BD0446FEF707FD204610BD00BF9E
:102AD00000200240000C0246180E010800000020F1
:102AE000034A044B11681B780B441360704700BF06
:102AF000FC2E002004000020014B1868704700BF26
:102B0000FC2E00204FF0E022136923F00203136132
:102B1000704700BF4FF6FF0C06490302CA6803F472
:102B2000E06302EA0C02134343F0BF6343F4003353
:102B3000CB60704700ED00E01B4B00B5DB68C3F3D2
:102B40000223C3F1070EBEF1040F03F1040C28BFEA
:102B50004FF0040EBCF1060F1CD9A3F1030C4FF08B
:102B6000FF3303FA0CF322EA03024FF0FF3303FAB8
:102B70000EF321EA030303FA0CF313431B010028AD
:102B8000DBB20ADB00F1604000F5614080F8003301
:102B90005DF804FB00229446E7E7044A00F00F00CA
:102BA000024413765DF804FB00ED00E0FCEC00E06D
:102BB000002807DB012300F01F01034A40098B4076
:102BC00042F82030704700BF00E100E00138B0F16A
:102BD000807F01D3012070474FF0E0234FF0F00CCD
:102BE0000022072110B4054C586184F823C0104618
:102BF0009A615DF8044B1961704700BF00ED00E079
:102C0000704700BF704700BF704700BF704700BFEC
:102C1000704700BF50B310B590F8243004466BB92C
:102C2000154A164B1648C4E902231649164AE369A9
:102C3000C4E90401A261DBB120469847D4E9002130
:102C400000200123A06284F82430136823F000439D
:102C50000B431360506810F0090005D1A06213689F
:102C600043F00103136010BD022010BD0120704726
:102C7000064A1346E261DFE7012C0008052C000834
:102C8000092C0008112C00080D2C00080D15000857
:102C900070B50446FFF730FF002C00F02A810222B5
:102CA0000021236884F84C1084F854205A690546A2
:102CB00042F006025A6106E0FFF71EFF431B052B98
:102CC00000F2128123685A69D207F5D45A69606903
:102CD00022F44302D4E907152A43256901435A61C6
:102CE000A2692943A0681143226BE568104362681A
:102CF00002F07F021043834A934200F0A58002F164
:102D00008052934200F0A08002F1704280329342E0
:102D100000F09A8002F18052934200F0958002F117
:102D200070428032934200F08F8002F180529342D1
:102D300000F08A8002F170428032934200F0848079
:102D400002F1805293427FD002F17042803293426E
:102D50007AD002F18052934276D002F170428032F2
:102D6000934271D002F1805293426DD002F17042D1
:102D70008032934268D002F18052934264D002F1D3
:102D80007042803293425FD002F1805293425BD016
:102D900002F170428032934256D002F18052934247
:102DA00052D002F17042803293424DD002F18052F3
:102DB000934249D002F170428032934244D002F1F2
:102DC0008052934240D002F17042803293423BD015
:102DD00002F18052934237D002F170428032934226
:102DE00032D002F1805293422ED002F170428032F2
:102DF000934229D002F18052934225D002F17042D1
:102E00008032934220D002F1805293421CD002F1D2
:102E100070428032934217D002F18052934213D015
:102E20001A6CB5F5806F02F0802242EA01021A6442
:102E300002D0B5F5007F5ED05A6C33490A400021BC
:102E400002435A64996445E0A26AE66A013A1205AF
:102E500002F07C720A43616A32430139090101F4CC
:102E60007C710A43196CB5F5806F01F0802142EA4C
:102E700001021A6442D0B5F5007F3CD05A6C224959
:102E80000A40002102435A64204A996493421ED0AA
:102E900002F1805293421AD002F170428032934282
:102EA00015D002F18052934211D002F1704280326B
:102EB00093420CD002F18052934208D002F170424A
:102EC0008032934203D002F18052934202D1002219
:102ED0005A659A6500220121656BDA67A26584F85C
:102EE00054101046256570BD10220323A26584F896
:102EF0005430012070BD40F40070BFE740F48060A2
:102F0000BCE700BF500002408031C03C5006024088
:102F100000283DD0F0B490F84C40012C35D001256C
:102F200090F8544080F84C50AC4226D100254FF028
:102F3000020C4FF4FE47046880F854C08565A56C08
:102F4000466E63F30F05A564E760E164226563697B
:102F500043F4BA4363611EB1636943F40073636170
:102F6000036F1BB1636943F400536361636900201D
:102F700043F001036361F0BC70470023402280F8F6
:102F80004C308265F0BC012070470220F0BC7047D5
:102F90000120704738B50446FFF7AEFD002C34D051
:102FA00094F85430022B2BD10521236805465A6929
:102FB00042F004025A6184F8541005E0FFF79CFDCA
:102FC000431B052B23D823681A699104F6D50425E1
:102FD0004FF4FE4001215A6942F002025A61226D0B
:102FE00084F854501206D86084F8541003D5002297
:102FF000606F01739A64002384F84C30184638BD22
:1030000020220023A26584F84C30012038BD032122
:10301000A36D226D43F010031006A36584F85410CD
:1030200002D50122636F1A73002384F84C30ECE759
:10303000034628B190F85420022A03D0202282654A
:103040000120704704211A6883F854105369002046
:1030500043F400530B435361704700BF01210368E1
:1030600010B5C3F30B02044623F47F6020F00F0079
:10307000503AC068C2F3C4129140014200F0AB80E4
:103080001A69500509D55A69510506D54FF4806271
:10309000DA60A26D42F00102A2651A69120509D533
:1030A0005A69100506D54FF40062DA60A26D42F04D
:1030B0000202A2651A69D10409D55A69D20406D55B
:1030C0004FF48052DA60A26D42F00402A2651A69E0
:1030D000500409D55A69510406D54FF48042DA608C
:1030E000A26D42F00802A2651A6992050AD55A69D2
:1030F000900507D54FF40071626ED96012B1204679
:10310000904723681A69910411D55A6992040ED523
:103110004FF40052DA6094F85420042A3ED005217E
:10312000226F84F8541012B12046904723681A6920
:10313000D20518D55A69D00515D5226D11064FD57F
:10314000DA6F32B99A6C22B90122616F84F8542087
:103150000A734FF440700021226ED86084F84C103E
:103160000AB120469047A36D002B34D023685A69DA
:1031700042F002025A615B69DA074CBF0323012364
:1031800084F85430236D1B0626D40022A36E84F8E5
:103190004C2003B32046BDE8104018475A6922F47A
:1031A00000525A615A6942F002025A615A69D007C4
:1031B0004CBF0322012284F85420226D110604D54D
:1031C00001200022616F08739A640022E36E84F884
:1031D0004C20002BDED110BD0122636F1A73D4E79F
:1031E0009A6C002AB5D1012284F85420B1E700BFBF
:1031F000C0B1CB0614D54FF0010C036801F01101EA
:10320000C3F30B02503A6FF30B031129C2F3C4123C
:1032100059680CFA02F20CBF0A4321EA02025A6012
:103220000020704701207047002856D0416F0029C8
:1032300053D010B490F854300268012B54695FFAEF
:1032400083FC04D0BCF1020F0ED1E3030CD590F83F
:103250005430012BDCB210D00020536943F001033D
:1032600053615DF8044B70470023402280F84C30D6
:1032700082655DF8044B0120704790F84C30012BBB
:103280002DD000234FF0020C80F84C4080F854C041
:1032900081F80CC083650B615369446E43F4BA43F3
:1032A00053611CB1536943F400735361036F1BB145
:1032B000536943F4005353610B680A4C186A0A4976
:1032C00010F0020F4FF6FC7018BF21461C0C034093
:1032D00024040B431460D367BEE70120704702202B
:1032E000BFE700BF000001FE000001F82DE9F04F2C
:1032F000D1F800B085B0BBF1000F00F0B480BB4B3B
:103300008A46984200F0BE80B94B002203EA90231F
:103310004FF00108039329E00668B9F1010F05EAAF
:10332000060C03F0030606FA07F646EA0C060660EA
:1033300001D9112B53D186681B0906EA050CDAF86E
:103340000C609340BE4046EA0C068660466826EA5A
:1033500001010B434360C168DAF808302940BB40E3
:103360000B43C36001323BFA02F37CD008FA02F14E
:103370001BEA010EF6D00324DAF80430570023F0DC
:10338000100604FA07F5022E6FEA050503F1FF396E
:10339000C2D106FA07F4D60800EB8606029434463A
:1033A000DAF8106002F0070C4FEA8C0C06F00F06FA
:1033B00006FA0CF601960F2606FA0CFC266AB9F1FD
:1033C000010F26EA0C0C019E46EA0C0626620668EE
:1033D000029C06EA050646EA04060660ABD0122BFC
:1033E000A9D0032BBED0C1680D40DAF80810B9404F
:1033F0002943DD00C160B5D50F2422F0030505F196
:103400008C4502F0030105F50835C9002E6E04FA5B
:1034100001F7039C26EA070604FA01F13143296605
:103420007449DC026FEA0E05096828D42940714C02
:103430009F02216061681FD429406E4C9E03616029
:10344000D4F8841015D429406A4CC4F88410D4F8F8
:103450008010DC030AD42940664B0132C3F8801087
:103460003BFA02F382D105B0BDE8F08F41EA0E01CC
:10347000F2E741EA0E01E7E741EA0E01DDE74EEA35
:103480000101D4E7002301275A4E07FA03F111EA9C
:103490000B0559D04FF00F090468DAF8042024EA2C
:1034A0000104554951F833C002F00101994021430C
:1034B000016052494FEADC0E51F833100CF007045A
:1034C00001EB8E0EDEF82080A40009FA04F928EA48
:1034D00009084FF00B0909FA04F444EA08044FF014
:1034E0000308CEF820400C684FEA4C0E08FA0EF89C
:1034F00024EA0809022404FA0EF444EA09040C60E0
:10350000541E012C6FEA080801D9112A23D18C68B6
:10351000120907FA0CF502FA0CF208EA040CDAF8C0
:103520000C4004FA0EF444EA0C048C604C6824EA63
:10353000050422434A60CC68DAF8082008EA04044B
:1035400002FA0EF22243CA6001333BFA03F29CD125
:1035500005B0BDE8F08F122AD9D0032AF4D0CC6888
:1035600008EA0408DAF8084004FA0EF444EA080409
:10357000CC60D100E8D54FF00F084FF4803423F031
:10358000030101F18C4101F5083103F0030CD1F87E
:1035900060E04FEACC0C08FA0CF82EEA080E04FAA8
:1035A0000CF444EA0E040C66EC43316812F4801FFC
:1035B0000CBF214029433160716812F4001F0CBF19
:1035C000214029437160D6F8841012F4003F0CBFEB
:1035D00021402943C6F88410D6F88010D20354BF86
:1035E00021402943C6F88010AEE700BF0000024624
:1035F0007F7F2F000020024694E2020890E202083A
:103600000AB1816170478162704700BF08490B6849
:1036100013F001030AD1024610B40C68184624F0D6
:10362000040313435DF8044B0B607047012070479F
:1036300000040340034A0020136843F001031360B1
:10364000704700BF00040340214AD36B03F44033AA
:10365000834234D04FF0320CD368B0F5803F23F46E
:10366000E02343EA000388BF43F48023D360194B6F
:10367000194A1B681648A2FB03139B090CFB03F3B2
:10368000A2FB0323C1689B090A0403F1010307D4C9
:103690001A4600E08AB1C168013A0904FAD562B15C
:1036A0000B49CA6B100406D400E033B1CA6B013B6E
:1036B0001204FAD50BB10020704703207047B3F510
:1036C000803FF8D9D368002043F48023D36070474B
:1036D0000008024600000020D34D6210024BD86B58
:1036E00000F44030704700BF000802463221194BF9
:1036F000194A1B68A2FB03C39B0901FB03F3A2FB4E
:10370000032316499B098A68013380B922F002021B
:103710008A60CA6B900702D4002070472BB1CA6B35
:10372000013B9207FAD4002BF6D10320704742F0F8
:1037300002028A60CA6B9007EED4CA6B013B920703
:10374000F1D4002BF1D0CA6B013B9207F9D5002BC5
:10375000E2D1EAE700000020D34D621000080246E3
:10376000024A936843F004039360704700080246DE
:10377000024A136843F08003136070470008024652
:10378000024A136943F00053136170470008024670
:10379000024AD36A43F00103D3627047000802462D
:1037A00030B52C4D0446D5F8943083B05B072BD54B
:1037B000FFF794FF20F48033B3F5003F07D0B4F156
:1037C000805F17D2B0F5803F33D1032204E0B4F11B
:1037D000805F2CBF002201221F490B6823F00F03DA
:1037E00013430B60086800F00F00801A18BF012017
:1037F00003B030BDB4F1005F1ED910BBB4F1405F1F
:103800008CBF00220122E7E7D5F8943043F004038F
:10381000C5F89430D5F8943003F004030193019B6C
:10382000FFF75CFFD5F8943023F00403C5F894301B
:10383000C0E7012003B030BDB4F1805F03D00122A6
:10384000CAE70022C8E7B0F5803F0CBF0122022280
:10385000C2E700BF000C024600200240494AD3697B
:10386000916A13F00C0310D19368190207D4D2F8AF
:10387000F430454AC3F3033352F82300704793688A
:10388000414A1B0F52F8230070470C2B09D0D26914
:103890003E4802F00C02042A61D0082B18BF002019
:1038A000704701F00301012910B459D00024D369F5
:1038B0003449886A8B6A8A6AC3F30323013307EEAB
:1038C000103A8B6BC2F3001CC3F3CC030CFB03F365
:1038D00007EE903A00F003000228F8EEE77A2ED0C7
:1038E00003282CD04B6B05EE904AC3F3080306EE79
:1038F000103AB8EE655AF7EE006AB8EEC66AB8EE4E
:10390000C77ADFED235A36EE266AC5EE076AB0EEB7
:10391000467A1C4BA7EEA57A5B6B66EE876AC3F30B
:103920000663013307EE903AB8EEE77AC6EE877A7F
:10393000FCEEE77A5DF8044B17EE900A70474B6B8C
:10394000F7EE006AC3F3080306EE103ADFED105AF3
:10395000B8EEC66AB8EEC77A9FED0E5AD3E7704745
:1039600093681B0207D4D2F8F430074AC3F3033339
:1039700052F823409CE79368034A1B0F52F82340F8
:1039800096E700BF000C0246D00D01080024F400A9
:10399000000000390024744B002800F00E819F4A7B
:1039A0002DE9F0411368044603F00F038B420D46E6
:1039B00082B00DD2136823F00F030B43136013681A
:1039C00003F00F038B4203D0012002B0BDE8F08169
:1039D0002368DF060BD5924960694A6A02F07002DB
:1039E000904204D94A6A22F0700202434A621E07DA
:1039F0000DD58B4920690A6A120902F070029042C3
:103A000005D90A6A22F4E06242EA00120A62580703
:103A10000BD58349E0680A6A02F07002904204D92B
:103A20000A6A22F0700202430A62990703F0010257
:103A300030D57B4EA068316A01F00F01884204D96D
:103A4000316A21F00F0101433162002A00F08180C8
:103A50006368032B00F0B380714A022B126800F0F8
:103A60008480002B40F0BE805707ADD56C4E41F2EC
:103A70008838F26922F003021343F361FFF73CF840
:103A800063680746032B5BD0022B77D0002B40F0F6
:103A90008A807EE0002ADBD160490A6802F00F02CA
:103AA000AA4209D90A6822F00F022A430A600A686A
:103AB00002F00F02AA4287D159070BD55849E06896
:103AC0000A6A02F07002904204D20A6A22F070027E
:103AD00002430A621A070DD5514920690A6A120980
:103AE00002F07002904205D20A6A22F4E06242EAD1
:103AF00000120A62DB060BD5494A6169536A03F07A
:103B00007003994204D2536A23F070030B4353624B
:103B1000FFF7A4FE0346424A4249126A424802F0B5
:103B20000F02895C0068414ACB40136002B0BDE8D7
:103B3000F041FEF785BFFEF7DFFFC31B434538D8D2
:103B4000F36903F00C030C2BF5D123689807A3D578
:103B5000A06833490A6A02F00F0282429CD90A6ABD
:103B600022F00F0202430A6296E792033FF57EAF0E
:103B70002AE7FEF7C1FFC01B40451AD8F36903F0DE
:103B80000C03082BF5D1E0E7FEF7B6FFC01B40455C
:103B90000FD8F36913F00C0FF6D1D6E7FEF7ACFFA0
:103BA000C01B404505D8F36903F00C03042BF5D185
:103BB000CBE7032002B0BDE8F08101207047184B2D
:103BC000D3F89420520711D5FEF796FF184B0646FE
:103BD000DB685B0341D4124B1B6899017FF5F4AE9F
:103BE000636843E756057FF5EFAE3FE7D3F89420CF
:103BF00042F00402C3F89420D3F8943003F0040395
:103C00000193019BFEF778FF094B0646DB685F03D3
:103C10001BD54FF00108064F11E000BF0020024005
:103C2000000C0246180E01080800002000000020C9
:103C300000080246FEF760FF801B0228B9D8FB6827
:103C40005804F7D5B8F1000FC5D0054AD2F8943022
:103C500023F00403C2F89430BDE74FF00008DAE720
:103C6000000C0246002800F0A4822DE9F041AE4A83
:103C70000368D569966ADA06044684B005F00C0537
:103C800006F0030631D5002D00F0B2810C2D00F0B6
:103C9000AC81E369A44F002B00F02B823B6843F01A
:103CA00001033B60FEF728FF804606E0FEF724FF95
:103CB000A0EB0800022800F20E823B685A07F5D5F7
:103CC000BB6843F40003BB60BB68626A23F07043C7
:103CD0001343BB60B2F1404F216AFB68C0F06783B9
:103CE00023F01F030B43FB602368DF0731D5082D4A
:103CF000626800F0BD810C2D00F0B781B2F5803F05
:103D000000F05B82B2F5A02F00F03C83B2F5A81F53
:103D100000F0FB82844F3B6823F480333B603B68B8
:103D200023F480233B603B6823F480133B60002A2C
:103D300040F04882FEF7E0FE804606E0FEF7DCFE3B
:103D4000A0EB0800642800F2C6813B689903F5D413
:103D500023689A070FD5042D40F0C481E368002B37
:103D600000F07F81704A2169136923F4F81343EA54
:103D700001431361236818074DD56B4BD3F894208A
:103D8000510700F1B4810125D3F8942042F00402D8
:103D9000C3F89420D3F8943003F004030193019BFB
:103DA000624EB36ADA0740F186816369002B00F046
:103DB0005D825D4EA269D6F8F03003F080518A42F0
:103DC00010D003F04061B1F1006F00F04A8158015A
:103DD00000F1B1825449D1F8F03023F080531343FD
:103DE000C1F8F030504ED6F8F03043F08063C6F89A
:103DF000F030FEF781FE074605E0FEF77DFEC01BB2
:103E0000052800F26881D6F8F0301A01F5D5002DAA
:103E100040F0898223685D075ED5434BD3F8942038
:103E2000500700F1C8810125D3F8942042F0040224
:103E3000C3F89420D3F8943003F004030293029B58
:103E40003A4EB36AD90740F18C82A368DA0740F191
:103E5000D3815E0740F15182334BD3F8F02042F01A
:103E60000402C3F8F020D3F8F02042F00102C3F8B6
:103E7000F020FEF741FE41F2883806462A4F05E061
:103E8000FEF73AFE801B404500F22581D7F8F0305E
:103E90009807F5D5A36813F0800FD7F8F03000F03D
:103EA000C78243F08003C7F8F03041F288381E4FD4
:103EB00005E0FEF721FE801B404500F20C81D7F89B
:103EC000F0301905F5D535B1174AD2F8943023F002
:103ED0000403C2F8943023689A0616D5E36A124D9B
:103EE000002B00F0DC812B6843F480532B60FEF73D
:103EF00003FE064605E0FEF7FFFD801B022800F2E8
:103F0000EA802B689B04F6D523681D061AD5236B1F
:103F1000054D002B00F0DF812B6843F480432B60BC
:103F2000FEF7EAFD064609E0000C024600080246DC
:103F3000FEF7E2FD801B022800F2CD802B681804FA
:103F4000F6D523685A062BD5636B002B00F05782F9
:103F5000A54B9A6842F400029A609A68A16A22F01E
:103F600070620A439A60D4E90812B2F1404FC0F07F
:103F70003582DA6822F01F020A43DA609A4D2B6814
:103F800043F010032B60FEF7B7FD064605E0FEF791
:103F9000B3FD801B022800F29E802B689B06F6D59D
:103FA000A36B03B3904DEA6902F00C020C2A00F0F7
:103FB0005582022B2B6823F080732B6000F0A682C1
:103FC000FEF79AFD044605E0FEF796FD001B022869
:103FD00000F281802B689901F6D4AB6A23F4E023C8
:103FE00023F00303AB6200203CE0012E7FF451AECE
:103FF000E369002B35D07C4B606A9A68170256BF84
:10400000D3F8F4309B681B0403F07043984240F2ED
:104010008380002D00F0C481734BB0F1404F9A684B
:1040200042F400029A609A6822F0704242EA00026A
:104030009A60216ADA6880F049810028C0F2F28132
:10404000B0F1804F2BBF22F4F84222F4782242EAEA
:10405000812242EAC132DA6081E0FFF7A1FB002849
:104060007DD0012004B0BDE8F081032E7FF446AE80
:10407000002AF6D09D077FF57EAEE3685A4D002BEF
:1040800000F085802B6843F480732B60FEF734FDCD
:10409000064604E0FEF730FD801B02281BD82B6883
:1040A0005B05F7D52B69226923F4F81343EA024331
:1040B0002B6123685FE6B36A43F00103B362FEF746
:1040C0001BFD0746B36ADB073FF56FAEFEF714FD35
:1040D000C01B0228F6D9032004B0BDE8F0819A077E
:1040E0007FF549AE0C2DC8D1022EC6D136E600258B
:1040F00056E63B6823F001033B60FEF7FDFC80467B
:1041000005E0FEF7F9FCA0EB08000228E3D83B68C5
:104110005B07F6D42368E8E5334BB0F1404F9A686B
:1041200042F400029A609A6822F0704242EA000269
:104130009A60216ADA6880F0C4800028C0F2488161
:10414000B0F1804F2BBF22F4F84222F4782242EAE9
:10415000812242EAC132DA60002D3FF47EAFFFF7E0
:104160007DFB0346204A2149126A02F00F02895C56
:104170001F4ACB4010681F4A1360FEF761FC0028FD
:104180007FF470AF2368D907A9D56268B3E52B68BF
:1041900023F480732B60FEF7AFFC064604E0FEF7C5
:1041A000ABFC801B022896D82B685F05F7D42368E8
:1041B000E1E501207047002542E60B4A136843F40D
:1041C00080331360FEF798FCDFF81C80074605E09B
:1041D000FEF792FCC01B64283FF67DAFD8F8003094
:1041E0009803F5D5B4E500BF000C0246180E01088F
:1041F0000800002000000020974ED6F8F02022F0A2
:104200000102C6F8F020D6F8F02022F00402C6F829
:10421000F020002B7FF42DAEFEF76EFC41F28838C3
:10422000074605E0FEF768FCC01B40453FF653AF6C
:10423000D6F8F0309B07F5D4D6F8F03018067FF5A5
:1042400042AED6F8F03041F2883823F08003C6F849
:10425000F030814E05E0FEF74FFCC01B40453FF6B5
:104260003AAFD6F8F0301905F5D42CE67A4ED6F8E8
:10427000F03023F0A053C6F8F030FEF73DFC0746BF
:1042800005E0FEF739FCC01B05283FF624AFD6F841
:10429000F0301B01F5D4002D3FF4BCAD43E02B689A
:1042A00023F480532B60FEF727FC064605E0FEF75B
:1042B00023FC801B02283FF60EAF2B689F04F6D428
:1042C00022E622F01F020A43DA6045E722F01F02CD
:1042D0000A43DA6043E72B6823F480432B60FEF740
:1042E0000BFC064605E0FEF707FC801B02283FF6A4
:1042F000F2AE2B681904F6D423E6574AD2F8F03010
:1043000043F00103C2F8F030B3E5534B1A6842F4AE
:1043100080221A601A6842F480121A601A6842F405
:1043200080321A604EE74C4AD2F8943023F00403EE
:10433000C2F894306EE5D6F8F03023F0A053C6F8FA
:10434000F030FEF7D9FB074605E0FEF7D5FBC01BB2
:1043500005283FF6C0AED6F8F0301901F5D4A269B1
:1043600038E5B36A43F00103B362FEF7C5FB0746C5
:10437000B36ADB073FF569ADFEF7BEFBC01B022841
:10438000F6D9A8E6344B1A6842F480221A601A68FB
:1043900022F480121A601A6842F480321A6011E71F
:1043A000FFF7FEF900287FF45CAE606A34E6002A6D
:1043B000C0F2A480B2F1804F2BBF23F4F84323F462
:1043C000782343EA812343EAC133FB6023688CE40A
:1043D00022F4787242EA4112DA60BDE6002AC0F2A5
:1043E0001E81B2F1804FDA682BBF22F4F84222F42A
:1043F000782242EA812242EAC132DA60BEE5164DF5
:104400002B6823F010032B60FEF776FB064605E0D1
:10441000FEF772FB801B02283FF65DAE2B689F06FD
:10442000F6D4BDE522F4787242EA4112DA6096E6EB
:1044300023F08003C7F8F03041F28838064F05E0DA
:10444000FEF75AFB801B40453FF645AED7F8F030EB
:104450001A05F5D437E500BF000C0246012BAA6A05
:10446000686B3FF4FEADE36B02F0030199427FF409
:10447000F8AD236CC2F30321013B99427FF4F1AD07
:10448000636C02F470429A427FF4EBADA36CC0F30C
:104490000802013B9A427FF4E4ADE36CC0F346228C
:1044A000013B9A427FF4DDAD236DC0F30642013B30
:1044B0009A427FF4D6AD636DC0F30660013B98422B
:1044C0007FF4CFAD594BE16D9A6BC2F3CC028A42B7
:1044D0003FF489AD9A6A22F010029A62FEF70CFB53
:1044E0000546FEF709FBA842FBD0E26D4F4BD20018
:1044F0009A639A6A42F010029A6274E523F4787320
:1045000043EA4113FB602368FFF7EFBBFEF7F4FAC1
:10451000064605E0FEF7F0FA801B02283FF6DBAD09
:104520002B6813F00073F5D1D5F8942056070CD4FE
:104530000123D5F8942042F00402C5F89420D5F860
:10454000942002F004020392039A394D3749EE6831
:10455000EA68DFF8E0C022F48022EA60886A676CCB
:10456000E26B20F47F4020F003003A430243206CCA
:10457000013842EA00228A62E06CA26CD1F834E091
:10458000471E206D013AC2F308027F0201380EEA8D
:104590000C0CBFB2000442EA0C0200F4FE003A43E5
:1045A0000243606D0138000600F0FE4002434A639A
:1045B0008A6A22F010028A62E26DD2008A638A6AF5
:1045C00042F010028A628A6AA06D22F00C02024355
:1045D00074038A621ED433B1144AD2F8943023F0A3
:1045E0000403C2F89430114CA36A43F48023A362FD
:1045F000236843F080732360FEF77EFA054605E0EA
:10460000FEF77AFA401B02283FF665AD2368980151
:10461000F6D5E8E4EA6842F48022EA60DBE7DA688B
:1046200022F4787242EA4112DA60A7E4000C0246F2
:1046300000080246000080804E4A30B4D369916A77
:1046400013F00C0312D1936819021BD593684A4AE0
:104650001B0F52F82300474B48491B6A484A03F096
:104660000F03CB5C30BCD840106070470C2B11D0CE
:10467000D269444802F00C02042AECD0082B18BF7F
:104680000020E8E7D2F8F4303B4AC3F3033352F892
:104690002300E0E701F00301012959D00025D36987
:1046A0003449886A8A6A8B6A8C6BC3F30013C4F33B
:1046B000CC0C0CFB03F307EE903A00F00300C2F3BE
:1046C00003220228F8EEE77A02F101022ED0032835
:1046D0002CD007EE105A4B6BB8EE475AC3F30803C1
:1046E00006EE103A07EE102AF7EE006AB8EEC66A38
:1046F000B8EEC77ADFED245A36EE266AC5EE076AB1
:10470000B0EE467A1B4BA7EEA57A5B6B66EE876A26
:10471000C3F30663013307EE903AB8EEE77AC6EECC
:10472000877AFCEEE77A17EE900A94E74B6B07EE78
:10473000102AC3F3080306EE103AF7EE006AB8EE4B
:10474000C66ADFED115AB8EEC77A9FED105AD3E76B
:1047500093681B0207D4D2F8F430074AC3F303333B
:1047600052F823509CE79368034A1B0F52F82350DA
:1047700096E700BF000C0246D00D0108180E010894
:10478000000000200024F400000000390024744BD5
:10479000514A30B4D369916A13F00C0318D193686D
:1047A000190221D593684D4A1B0F52F823004A4A3B
:1047B0004B4C136A4B4903F00F03E35C30BCD84009
:1047C0000860136A484AC3F30213D35CD8407047A9
:1047D0000C2B11D0D269454802F00C02042AE6D015
:1047E000082B18BF0020E2E7D2F8F4303B4AC3F3AD
:1047F000033352F82300DAE701F00301012959D00D
:104800000025D3693449886A8A6A8B6A8C6BC3F342
:104810000013C4F3CC0404FB03F307EE903A00F05A
:104820000300C2F303220228F8EEE77A02F1010244
:104830002ED003282CD007EE105A4B6BB8EE475AF7
:10484000C3F3080306EE103A07EE102AF7EE006AEB
:10485000B8EEC66AB8EEC77ADFED255A36EE266A9C
:10486000C5EE076AB0EE467A1B4BA7EEA57A5B6BE6
:1048700066EE876AC3F30663013307EE903AB8EE3B
:10488000E77AC6EE877AFCEEE77A17EE900A8EE7B3
:104890004B6B07EE102AC3F3080306EE103AF7EE4F
:1048A000006AB8EEC66ADFED125AB8EEC77A9FED1D
:1048B000115AD3E793681B0207D4D2F8F430074AA1
:1048C000C3F3033352F823509CE79368034A1B0F4A
:1048D00052F8235096E700BF000C0246D00D0108A5
:1048E000180E010800000020100E01080024F4003A
:1048F000000000390024744B514A30B4D369916AE6
:1049000013F00C0318D19368190221D593684D4A0E
:104910001B0F52F823004A4A4B4C136A4B4903F0D1
:104920000F03E35C30BCD8400860136A484AC3F305
:104930000223D35CD84070470C2B11D0D269454874
:1049400002F00C02042AE6D0082B18BF0020E2E790
:10495000D2F8F4303B4AC3F3033352F82300DAE7CA
:1049600001F00301012959D00025D3693449886A2F
:104970008A6A8B6A8C6BC3F30013C4F3CC0404FB08
:1049800003F307EE903A00F00300C2F3032202287B
:10499000F8EEE77A02F101022ED003282CD007EEC0
:1049A000105A4B6BB8EE475AC3F3080306EE103AA1
:1049B00007EE102AF7EE006AB8EEC66AB8EEC77ABC
:1049C000DFED255A36EE266AC5EE076AB0EE467A66
:1049D0001B4BA7EEA57A5B6B66EE876AC3F3066393
:1049E000013307EE903AB8EEE77AC6EE877AFCEE2E
:1049F000E77A17EE900A8EE74B6B07EE102AC3F3A7
:104A0000080306EE103AF7EE006AB8EEC66ADFED6C
:104A1000125AB8EEC77A9FED115AD3E793681B027A
:104A200007D4D2F8F430074AC3F3033352F82350C3
:104A30009CE79368034A1B0F52F8235096E700BF88
:104A4000000C0246D00D0108180E010800000020DD
:104A5000100E01080024F400000000390024744BFB
:104A6000514A30B4D369916A13F00C0318D193689A
:104A7000190221D593684D4A1B0F52F823004A4A68
:104A80004B4C136A4B4903F00F03E35C30BCD84036
:104A90000860536A484AC3F30213D35CD840704796
:104AA0000C2B11D0D269454802F00C02042AE6D042
:104AB000082B18BF0020E2E7D2F8F4303B4AC3F3DA
:104AC000033352F82300DAE701F00301012959D03A
:104AD0000025D3693449886A8A6A8B6A8C6BC3F370
:104AE0000013C4F3CC0404FB03F307EE903A00F088
:104AF0000300C2F303220228F8EEE77A02F1010272
:104B00002ED003282CD007EE105A4B6BB8EE475A24
:104B1000C3F3080306EE103A07EE102AF7EE006A18
:104B2000B8EEC66AB8EEC77ADFED255A36EE266AC9
:104B3000C5EE076AB0EE467A1B4BA7EEA57A5B6B13
:104B400066EE876AC3F30663013307EE903AB8EE68
:104B5000E77AC6EE877AFCEEE77A17EE900A8EE7E0
:104B60004B6B07EE102AC3F3080306EE103AF7EE7C
:104B7000006AB8EEC66ADFED125AB8EEC77A9FED4A
:104B8000115AD3E793681B0207D4D2F8F430074ACE
:104B9000C3F3033352F823509CE79368034A1B0F77
:104BA00052F8235096E700BF000C0246D00D0108D2
:104BB000180E010800000020100E01080024F40067
:104BC000000000390024744B70B5334C064623684E
:104BD00023F080532360FDF78FFF054604E0FDF7C7
:104BE0008BFF401B022854D823689A00F7D4236B0C
:104BF000D6E9001223F4706323F00303013A0B4358
:104C000043EA02232363606CD6E90232234D511E2E
:104C10003269013B0540C3F308034902013A89B2F6
:104C20002B43120402F4FE020B43134372691A4D24
:104C3000013A120602F0FE4213436364236BB26929
:104C400023F00C0313432363236B326A1343236360
:104C5000236B23F010032363A36CF2696FF3CF037C
:104C600043EAC203A364236B43F010032363236866
:104C700043F080532360FDF73FFF044604E0FDF757
:104C80003BFF001B022804D82B689B00F7D50020AF
:104C900070BD032070BD00BF000C02460000808084
:104CA00070B5334C0646236823F080632360FDF71C
:104CB00023FF054604E0FDF71FFF401B022854D8E0
:104CC00023681A01F7D4E36AD6E9001223F470636B
:104CD00023F00303013A0B4343EA0223E362E06B50
:104CE000D6E90232234D511E3269013B0540C3F320
:104CF00008034902013A89B22B43120402F4FE026E
:104D00000B43134372691A4D013A120602F0FE4238
:104D10001343E363E36AB26923F00C031343E362D2
:104D2000E36A326A1343E362E36A23F01003E36247
:104D3000236CF2696FF3CF0343EAC2032364E36A8F
:104D400043F01003E362236843F080632360FDF7C0
:104D5000D3FE044604E0FDF7CFFE001B022804D872
:104D60002B681B01F7D5002070BD032070BD00BF6C
:104D7000000C0246000080802DE9F04703680446DD
:104D8000DD0782B008D59C49006DD1F8E02022F003
:104D900003020243C1F8E020980708D59649606DE8
:104DA000D1F8E02022F00C020243C1F8E0205907BC
:104DB00008D59149A06DD1F8E02022F030020243DD
:104DC000C1F8E0201A0708D58B49E06DD1F8E02042
:104DD00022F0C0020243C1F8E020DF0608D5864970
:104DE000206ED1F8E02022F440720243C1F8E020A6
:104DF0009E0608D58049606ED1F8E82022F00702AF
:104E00000243C1F8E8205D0608D57B49A06ED1F8C1
:104E1000E02022F440620243C1F8E020180608D5E1
:104E20007549E06ED1F8E02022F440520243C1F807
:104E3000E020D90508D57049206FD1F8E82022F08C
:104E4000C0020243C1F8E8205A0208D56A49606FDF
:104E5000D1F8E02022F440420243C1F8E0209F054F
:104E600008D56549A06FD1F8E82022F440620243DA
:104E7000C1F8E8205E0508D55F49E06FD1F8E02071
:104E800022F440220243C1F8E0201D0509D55A4909
:104E9000D4F88000D1F8E82022F440720243C1F82F
:104EA000E820980403F400561ED5D4F89020402A38
:104EB00000F03D8200F25982002A00F05082202A40
:104EC00040F0598204F12C00FFF77EFE064623686D
:104ED00056B9D4F8902000264748D0F8E41021F0C5
:104EE000E0010A43C0F8E420590438D5D4F89420EE
:104EF000B2F5007F00F0218228D8002A00F0288235
:104F0000B2F5807F2AD104F12C00FFF75DFE054643
:104F10002368002D40F01A823749D4F89400D1F864
:104F2000E42022F4E0620243C1F8E4201A0419D418
:104F3000DF032DD5D4F88820042A00F23582DFE87B
:104F400012F045014001ED0145014501B2F5407FF8
:104F500000F0F881B2F5806F00F0F481012635464B
:104F60001A04E5D5D4F8A820B2F5005F00F08581D9
:104F700040F2958122F48051B1F5804F00F0838199
:104F8000B2F5405F00F07F810126DF033546D1D4C2
:104F900098031ED5D4F88C20B2F5003F00F0AD8107
:104FA00000F2EE8142B1B2F5803F40F0F18112494A
:104FB0008A6A42F480328A62002D40F042810E49B2
:104FC000D4F88C00D1F8E82022F4E0220243C1F8A2
:104FD000E82059034FD5084BD3F89420520740F1ED
:104FE00002814FF00008054FBB6A43F00103BB622A
:104FF000FDF782FD814609E0000C024600080246EA
:10500000FDF77AFDA0EB0903022B2DD8BB6ADB0765
:10501000F6D5002D40F0C681DFF860A3D4F8C0209B
:10502000DAF8F03013F4407300F05C81934200F042
:105030005981DAF8F010DAF8F030C80743F4803319
:10504000CAF8F030DAF8F03023F48033CAF8F030E0
:1050500021F44073CAF8F03040F14481FDF74CFD73
:1050600041F28839074637E1032635462368B8F10F
:10507000000F40F0EE80DA021FD5D4F8A020B2F184
:10508000006F00F01B8100F286814AB1B2F1806F9F
:1050900040F0858104F10800FFF702FE0546236811
:1050A000002D40F0D080B549D4F8A000D1F8E02020
:1050B00022F040620243C1F8E0201F030BD5D4F870
:1050C000982032F4805100F0AF80B2F5005F00F01C
:1050D000AB8001263546D80409D5A849D4F89C00F0
:1050E000D1F8E42022F400620243C1F8E4209902DE
:1050F0000DD5D4F8A400B0F5804F00F0B2809F49E0
:10510000D1F8E42022F480420243C1F8E4201A02DC
:1051100009D59A49D4F8B400D1F8E02022F440121D
:105120000243C1F8E020DF0109D59449D4F8B80062
:10513000D1F8E02022F440320243C1F8E020980187
:1051400009D58E49D4F8BC00D1F8E82022F0180225
:105150000243C1F8E820590115D5D4F8B020B2F5C2
:10516000001F00F08480B2F5401F00F0A080002DE9
:1051700065D18249D4F8B000D1F8E42022F440127D
:105180000243C1F8E4201A010BD5D4F88420B2F10F
:10519000807F00F0BB80B2F1007F33D0002A37D08F
:1051A0000126DB0009D5754AD4F8AC10D2F8E830F6
:1051B00023F400430B43C2F8E830304602B0BDE8A8
:1051C000F0876E498A6A42F480328A62002D3ED1AD
:1051D0006A49D4F88800D1F8E42022F0070202439B
:1051E000C1F8E420D4E6D3F894204FF0010842F04F
:1051F0000402C3F89420D3F8943003F0040301931D
:10520000019BF0E604F10800FFF74AFD054623681C
:10521000DDB95A49D4F88400D1F8E02022F0407278
:105220000243C1F8E020BCE7002D64D15348D0F818
:10523000E41021F440510A43C0F8E4204BE72E4625
:10524000A1E72E46C5E62E4637E72E46A9E72E46AD
:105250009EE64A49D1F8942022F00402C1F8942035
:1052600009E746498A6A42F480328A6247E743493D
:105270008A6A42F400328A6279E704F10800FFF793
:105280000FFD0546236885B93C49D4F8A800D1F83C
:10529000E82022F4E0420243C1F8E82048E632F474
:1052A00080527FF471AE002DEED02E4640E604F120
:1052B0000800FFF7F5FC2368054658E72F498A6A7E
:1052C00042F400328A62002DBDD1ECE6FDF714FCF9
:1052D000C01B48453FF6C8AEDAF8F0309907F5D55F
:1052E000D4F8C0202549D1F8F03023F4407313439B
:1052F000C1F8F030BAE62E46EDE604F12C00FFF7D7
:1053000063FC05462368002D9BD158E61B498A6A39
:1053100042F400328A62002D97D17AE704F12C0022
:10532000FFF752FC05462368002D90D150E7134843
:10533000816A41F480318162CDE510498A6A42F484
:1053400080328A623546002D3FF4E6AD2E4607E6F0
:1053500004F10800FFF7A4FC23680546D9E504F131
:105360000800FFF79DFC0646B1E5602A3FF4B3ADA7
:10537000802A3FF4B0AD0126B6E500BF000C02461E
:10538000B2F5403F3FF418AEB2F5802F3FF414AEB3
:10539000012635461DE6B2F1406F3FF481AE01268D
:1053A00035468AE62E4661E601263546F0E500BF21
:1053B000534910B54C6B8A6A8B6A02F0030C8A6AF7
:1053C000C3F30323C2F3001E8A6BBCF1020FC2F3C6
:1053D000CC020EFB02F207EE902A03F10103B8EEB5
:1053E000E77A2CD0BCF1030F29D0C4F3080407EEF0
:1053F000904A8A68F8EEE76A12024CBF8A68D1F8D0
:10540000F42040494CBF120FC2F3033207EE903A2A
:1054100001EB8203B7EE006AD3ED005AF8EEE77AAB
:1054200076EE866AF8EE655A9FED375A85EEA76AE2
:10543000F0EE667AE7EE057A26EE277A1AE04A6BF6
:10544000F7EE006AC2F3080206EE102A07EE903A61
:10545000B8EEC66AF8EEE77A36EE266A9FED2B5A6A
:10546000DFED295AC5EE276AF0EE467AE7EE257A97
:1054700026EEA77A224A936A13F4803310D0536B36
:10548000F7EE007AC3F3462306EE903AF8EEE66AAA
:1054900076EEA76AC7EE267AFCEEE77A17EE903A28
:1054A000174A0360936A13F4003310D0536BF7EE7E
:1054B000007AC3F3064306EE903AF8EEE66A76EE1B
:1054C000A76AC7EE267AFCEEE77A17EE903A0C4A06
:1054D0004360936A13F4802310D0536BF7EE007A85
:1054E000C3F3066306EE903AF8EEE66A76EEA76A34
:1054F000C7EE267AFCEEE77A17EE903A836010BD8D
:10550000000C0246D00D0108000000390024744B45
:10551000534910B5CC6BCA6ACB6A02F0030CCA6A55
:10552000C3F30323C2F3001E0A6CBCF1020FC2F3E3
:10553000CC020EFB02F207EE902A03F10103B8EE53
:10554000E77A2CD0BCF1030F29D0C4F3080407EE8E
:10555000904A8A68F8EEE76A12024CBF8A68D1F86E
:10556000F42040494CBF120FC2F3033207EE903AC9
:1055700001EB8203B7EE006AD3ED005AF8EEE77A4A
:1055800076EE866AF8EE655A9FED375A85EEA76A81
:10559000F0EE667AE7EE057A26EE277A1AE0CA6B15
:1055A000F7EE006AC2F3080206EE102A07EE903A00
:1055B000B8EEC66AF8EEE77A36EE266A9FED2B5A09
:1055C000DFED295AC5EE276AF0EE467AE7EE257A36
:1055D00026EEA77A224AD36A13F4803310D0D36B15
:1055E000F7EE007AC3F3462306EE903AF8EEE66A49
:1055F00076EEA76AC7EE267AFCEEE77A17EE903AC7
:10560000174A0360D36A13F4003310D0D36BF7EE5C
:10561000007AC3F3064306EE903AF8EEE66A76EEB9
:10562000A76AC7EE267AFCEEE77A17EE903A0C4AA4
:105630004360D36A13F4802310D0D36BF7EE007A63
:10564000C3F3066306EE903AF8EEE66A76EEA76AD2
:10565000C7EE267AFCEEE77A17EE903A836010BD2B
:10566000000C0246D00D0108000000390024744BE4
:10567000534910B54C6C0A6B0B6B02F0030C0A6BB0
:10568000C3F30323C2F3001E8A6CBCF1020FC2F302
:10569000CC020EFB02F207EE902A03F10103B8EEF2
:1056A000E77A2CD0BCF1030F29D0C4F3080407EE2D
:1056B000904A8A68F8EEE76A12024CBF8A68D1F80D
:1056C000F42040494CBF120FC2F3033207EE903A68
:1056D00001EB8203B7EE006AD3ED005AF8EEE77AE9
:1056E00076EE866AF8EE655A9FED375A85EEA76A20
:1056F000F0EE667AE7EE057A26EE277A1AE04A6C33
:10570000F7EE006AC2F3080206EE102A07EE903A9E
:10571000B8EEC66AF8EEE77A36EE266A9FED2B5AA7
:10572000DFED295AC5EE276AF0EE467AE7EE257AD4
:1057300026EEA77A224A136B13F4803310D0536CF1
:10574000F7EE007AC3F3462306EE903AF8EEE66AE7
:1057500076EEA76AC7EE267AFCEEE77A17EE903A65
:10576000174A0360136B13F4003310D0536CF7EE39
:10577000007AC3F3064306EE903AF8EEE66A76EE58
:10578000A76AC7EE267AFCEEE77A17EE903A0C4A43
:105790004360136B13F4802310D0536CF7EE007A40
:1057A000C3F3066306EE903AF8EEE66A76EEA76A71
:1057B000C7EE267AFCEEE77A17EE903A836010BDCA
:1057C000000C0246D00D0108000000390024744B83
:1057D00000B5A0F580430B4385B000F02F8444F260
:1057E0000103984271F100031ED2A0F180030B4324
:1057F00000F0CE83812871F1000380F0868021289B
:1058000071F1000380F0668250EA010300F03082FB
:10581000013841F1FF31202871F10001C0F07D8293
:10582000002005B05DF804FBA0F580030B4300F0F9
:105830003784AF4B984271F1000338D2A0F5802332
:105840000B4300F0C383AB4B984271F10003C0F0EF
:105850008A80A0F580130B4300F0DA83A0F50013D3
:105860000B4300F06681A0F50020084318BF00201C
:10587000D7D1A14AD2F8E430126803F4405391041E
:1058800002D5002B00F081859B4A1268920403D553
:10589000B3F5805F00F0F185974A106810F48060DE
:1058A000BFD0B3F5005F954818BF0020B9E700F1FD
:1058B0007C430B4300F0A481914B984271F10003AB
:1058C00080F0898000F17F430B4300F0F08100F10C
:1058D0007E430B4300F05881A0F50000084318BF39
:1058E00000209ED1844BD3F8E03003F44013B3F58D
:1058F000001F00F00F8500F2A884002B00F009843F
:1059000005B05DF804EBFDF7A9BFA0F500630B43FC
:1059100000F0D38040F60103984271F1000380F05B
:105920008380A0F500730B4300F0A283A0F5806391
:105930000B4300F09D80A0F58070084318BF002045
:105940007FF46FAF6C4BD3F8E83003F0C003802BCB
:1059500000F0F18400F29A84002BD1D105B05DF8FB
:1059600004EBFFF77DB8A0F580330B4300F0D9823C
:10597000A0F500330B4300F06681A0F5004008431A
:1059800018BF00207FF44DAF5B4BD3F8E82002F442
:10599000E042B2F5805FB3D0B2F5005F00F00D8554
:1059A000002A00F0D382B2F5A04F00F01685524BCA
:1059B0001B68990303D5B2F5405F00F0E6854E4BB6
:1059C000186810F480603FF42CAFB2F5804F4B485C
:1059D00018BF002025E700F178430B4300F09480C6
:1059E00000F17040084318BF00207FF41AAF424B0B
:1059F000D3F8E800D3F8F02000F40040920740F11B
:105A00008D83002800F0BA84D3F8F00010F0006015
:105A10003FF407AF384BD3F8F03013F0805F14BF7A
:105A2000FA204FF4FA40FCE6A0F580530B4300F057
:105A30009880A0F50050084318BF00207FF4F1AE15
:105A40002D4BD3F8E43003F0E003402B00F0098144
:105A500040F25083602B00F0A884802B40F01D851D
:105A6000254B26481B6813F4806F08BF0020D8E63A
:105A7000214AD2F8E03013F4402300F02681D2F816
:105A8000F020120103D5B3F5802F00F0DB841A4A11
:105A90001268510503D5B3F5002F00F04E85164A64
:105AA000D2F8F00010F002003FF4BBAEA3F54023A3
:105AB000B3FA83F35B09D803B3E60F49D1F8E820C2
:105AC00012F4407240F03383086810F020003FF475
:105AD000A8AE8B681A024CBF8B68D1F8F430094A23
