:020000040800F2
:1000000000001024DD0F0008950E0008970E000870
:10001000990E00089B0E00089D0E000800000000CD
:100020000000000000000000000000009F0E00081B
:10003000A10E000800000000A30E0008A50E000895
:10004000311000083110000831100008311000088C
:10005000311000083110000831100008311000087C
:10006000311000083110000831100008A90E0008F6
:10007000311000083110000831100008311000085C
:10008000311000083110000831100008311000084C
:10009000311000083110000831100008311000083C
:1000A000311000083110000831100008311000082C
:1000B000311000083110000831100008311000081C
:1000C000311000083110000831100008311000080C
:1000D00031100008A96F0008311000083110000825
:1000E00031100008311000083110000831100008EC
:1000F00031100008311000083110000831100008DC
:1001000031100008311000083110000831100008CB
:1001100031100008311000083110000831100008BB
:1001200031100008311000083110000831100008AB
:10013000311000080000000000000000311000082D
:10014000311000083110000831100008311000088B
:10015000311000083110000831100008311000087B
:10016000311000083110000831100008311000086B
:1001700031100008311000083110000800000000A4
:10018000311000083110000831100008311000084B
:10019000311000083110000831100008B50E0008B9
:1001A000311000083110000831100008311000082B
:1001B000311000083110000831100008311000081B
:1001C000311000083110000800000000000000009D
:1001D00000000000000000003110000800000000D6
:1001E000000000000000000000000000000000000F
:1001F000000000000000000031100008311000086D
:100200003110000831100008000000003110000813
:1002100031100008311000083110000831100008BA
:1002200031100008311000083110000800000000F3
:1002300031100008311000080000000031100008E3
:10024000311000083110000831100008311000088A
:10025000311000083110000831100008311000087A
:10026000311000083110000831100008311000086A
:1002700031100008311000083110000800000000A3
:100280003110000831100008000000003110000893
:1002900000000000311000083110000800000000CC
:0C02A000000000003110000831100008C0
:1002B00010B5054C237833B9044B13B10448AFF3A0
:1002C00000800123237010BD742C00240000000066
:1002D00064F1000808B5034B1BB103490348AFF3B1
:1002E000008008BD00000000782C002464F10008A4
:1002F0004B1C012B98BF70472DE9F003911C9B0804
:10030000B1F80480B1F802900A8831F802CC804438
:10031000814402448444D9F80070D8F8006015681C
:10032000DCF80040C9F80060C8F80070CCF8005054
:100330001460D9F80470D8F804605568DCF80440FB
:10034000C9F80460C8F80470CCF80450546008314F
:10035000013BD5D1BDE8F00370474B1C012B98BF82
:1003600070472DE9F003911C9B08B1F80480B1F8A7
:1003700002900A8831F802CC00EB580800EB5909CA
:1003800000EB520200EB5C0CD9F80070D8F800606A
:100390001568DCF80040C9F80060C8F80070CCF8B7
:1003A000005014600831013BDFD1BDE8F003704715
:1003B00010F8012B11F8013B012A28BF9A42F7D00F
:1003C000D01A70470000000000000000000000008C
:1003D00001F0FF01102A2BDB10F0070F08D010F8F6
:1003E000013B013A8B422DD010F0070F42B3F6D1FA
:1003F000F0B441EA012141EA014122F007047FF013
:1004000000070023F0E80256083C85EA010586EA69
:10041000010685FA47F5A3FA87F586FA47F6A5FAA5
:1004200087F68EB9EED1F0BC01F0FF0102F00702B1
:1004300032B110F8013B013A83EA010313B1F8D15C
:100440000020704701387047002D06BF354603383D
:10045000073815F0010F07D1013015F4807F02BF76
:10046000013015F4C03F0130F0BC0138704700BFC7
:10047000034613F8012B002AFBD1181A01387047E4
:1004800053B94AB9002908BF00281CBF4FF0FF31FB
:100490004FF0FF3000F0BCB9ADF1080C6DE904CEAF
:1004A00000F03AF8DDF804E0DDE9022304B070471B
:1004B00007EE900AF5EEC07AF1EE10FA01D400F0E2
:1004C0000BB8F1EE677A08B517EE900A00F004F861
:1004D000404261EB410108BD9FED0B6B07EE100A36
:1004E0009FED0B5BB7EEC77A27EE066BBCEEC66BD3
:1004F000B8EE464BA4EE457BFCEEC77B16EE101A19
:1005000017EE900A704700BF000000000000F03DA9
:10051000000000000000F0412DE9F047089D8E46E4
:1005200004468846002B4AD18A42174662D9B2FA5D
:1005300082F64EB1C6F1200301FA06F820FA03F361
:10054000B74043EA0808B4404FEA174E1FFA87FC49
:10055000B8FBFEF1230C0EFB118843EA084301FBB4
:100560000CF29A4209D9FB1801F1FF3080F0EA80C1
:100570009A4240F2E78002393B449A1AA3B2B2FB96
:10058000FEF00EFB102243EA024300FB0CFC9C45EC
:1005900009D9FB1800F1FF3280F0D6809C4540F26B
:1005A000D3803B44023840EA0140A3EB0C03002116
:1005B0001DB1F3400022C5E90032BDE8F0878B424F
:1005C00005D90DB1C5E9000100210846F5E7B3FAE8
:1005D00083F1002946D1734502D3824200F205819E
:1005E000841A6EEB030201209046002DE5D0C5E988
:1005F0000048E2E7002A00F09080B2FA82F6002E6E
:1006000040F0A4808A1A030C4FEA174E80B2BCB2A5
:100610000121B2FBFEFC0EFB1C2243EA024304FB59
:100620000CF29A4207D9FB180CF1FF3802D29A4219
:1006300000F2E080C4469B1AB3FBFEF20EFB1233BD
:1006400040EA034302FB04F49C4207D9FB1802F181
:10065000FF3002D29C4200F2CA8002461B1B42EAD3
:100660000C40A5E7C1F120068B4022FA06F71F4394
:100670000EFA01F420FA06F32EFA06FE4FEA1749A5
:10068000234300FA01F81FFA87FCBEFBF9F01C0CAB
:1006900009FB10EE44EA0E4400FB0CFEA64502FAEC
:1006A00001F209D93C1900F1FF3A80F09C80A6457F
:1006B00040F2998002383C44A4EB0E041FFA83FEFA
:1006C000B4FBF9F309FB13444EEA044403FB0CFCAE
:1006D000A44508D93C1903F1FF3E80F08280A4456F
:1006E0007FD9023B3C4443EA0040A4EB0C04A0FB4E
:1006F00002EC64457346E14662D35FD05DB1B8EB6E
:10070000030264EB090404FA06F622FA01F31E431D
:10071000CC40C5E9006400214FE7B1FBF2FC010CBD
:1007200041EA0E4180B240EA01423B4638463C462F
:10073000B846BE462026B1FBF7F1A2EB080241EA1B
:100740000C4166E7014618E710462CE7C6F1200287
:100750002EFA02F3B740B14020FA02F24FEA174EE8
:100760000A43B3FBFEF8BCB20EFB1833110C41EA8E
:10077000034108FB04F9B04089454FEA104380B2B9
:100780003ED9791808F1FF3C01D289451FD8A1EB69
:100790000901B1FBFEF909FB04F80EFB191192B235
:1007A00042EA0142424529D2BA1809F1FF31C4D2C6
:1007B0004245C2D2A9F102013A44BEE7F0459DD2BA
:1007C000BEEB02036CEB070C0138E14696E7A7EBA2
:1007D00009094944A8F1020CB1FBFEF909FB04F830
:1007E000DBE773467FE7504666E70846FDE63B4495
:1007F000023A33E7ACF1020C3B441CE749469CE764
:10080000A1EB0901C446B1FBFEF909FB04F8C4E7FA
:10081000704700BF8142F8B5044608D03AB1814222
:100820000CD28B18984209D202448B4201D8204640
:10083000F8BD13F9010D02F8010DF6E7032A07D8F8
:10084000013A11F8013B04F8013B013AF9D2EEE715
:1008500004F0030501F00306684200F00300121AD9
:1008600028B9B54209D1204600F0C6F9DFE70138C2
:1008700011F8013B04F8013BF2E71709CFB916075D
:1008800006D5204651F8043B51F8044B18C00446E5
:10089000550703D551F8043B44F8043B900703D5B2
:1008A00031F8023B24F8023BD307C0D50B78237004
:1008B000BDE7204651F8043B51F8044B51F8045B66
:1008C00051F8046B78C00446013FD7E700B59DB0EE
:1008D0004C22002109A80CF0F5FB2022002101A8E0
:1008E0000CF0F0FB244B4FF0FF320420C3F8B02093
:1008F00002F0D6FC00230093204B9A6922F4404278
:100900009A619A6902F440420092009A9A699004AE
:10091000FCD50121402302220820CDE90C1300233D
:100920000421099212921B93CDE913311421CDE9D0
:1009300017120C22CDE9151009A8CDE9192302F0F0
:10094000EBFC08B172B6FEE73F2203230621CDE996
:10095000012370234FF4E062CDE9030001A8CDE943
:100960000533CDE9072303F01DF808B172B6FEE7A1
:100970001DB05DF804FB00BF004402580048025857
:10098000924B5A6912F4003280B58CB011D1BFF38A
:100990004F8FBFF36F8FC3F85022BFF34F8FBFF35A
:1009A0006F8F5A6942F400325A61BFF34F8FBFF321
:1009B0006F8F864A536913F4803323D1C2F8843091
:1009C000BFF34F8FD2F8803043F6E074C3F3C90011
:1009D000C3F34E335B0103EA0406014646EA817520
:1009E0000139C2F86052F9D2203B13F1200FF2D145
:1009F000BFF34F8F536943F480335361BFF34F8F7D
:100A0000BFF36F8F724C01F0BDFAFFF75FFF002557
:100A100001F0F8FA1422002107A80CF053FBD4F8D7
:100A2000403100224FF4807143F0100369480126E1
:100A30004FF48077C4F84031D4F8403103F010030C
:100A40000193019BD4F8403143F08003C4F8403156
:100A5000D4F8403103F080030293029BD4F8403174
:100A600043F00803C4F84031D4F8403103F00803E0
:100A70000393039BD4F8403143F00103C4F84031A1
:100A8000D4F8403103F001030493049BD4F84031BF
:100A900043F04003C4F84031D4F8403103F0400340
:100AA0000593059BD4F8403143F00203C4F840316C
:100AB000D4F8403103F002030693069B02F0DCFBFE
:100AC00000224FF48051444802F0D6FB01224FF43B
:100AD0008071424802F0D0FB07A93E48CDE9077675
:100AE000CDE9095602F0E0FA4FF4805307A93A48DD
:100AF000CDE90736CDE9095602F0D6FA07A93748FD
:100B0000CDE90776CDE9095502F0CEFAD4F83831AF
:100B10002A46294633430B20C4F83831D4F83831FB
:100B200033400793079B01F087FA0B2001F0B6FAD8
:100B30002B482C4903232A4685604561C561C56061
:100B40004563C0E9001302232946C0E90B5504F0B0
:100B50002DFB08B172B6FEE7234C4FF41653234A1F
:100B60002061C4E900230C23C4E90200C4E9053074
:100B7000C4E90700C4E90900204605F0B4FC0146B9
:100B800008B172B6FEE7204605F0CAFD014608B17D
:100B900072B6FEE7204605F0E3FD08B172B6FEE747
:100BA000204605F0A2FD044608B172B6FEE7104DDE
:100BB00006F05CF92B681BB12C6006F0CBFBF9E763
:100BC0000121084602F05EFBF4E700BF00ED00E003
:100BD000004402580000025800180258000402584D
:100BE0009C2D002404580140902C0024001001404A
:100BF000DC8A002472B6FEE72DE9F00F32F03F0BDD
:100C00000AD0B1E8F807A0E8F807B1E8F807BBF1A7
:100C1000400BA0E8F807F4DC12F0200F1CBFB1E88D
:100C2000F807A0E8F80712F0100F1CBF78C978C0C9
:100C300012F0080F1CBFF1E80234E0E8023412F0B1
:100C4000040F1CBF51F8043B40F8043B12F0020FA4
:100C50001CBF31F8023B20F8023B12F0010F1CBF11
:100C600011F8013B00F8013BBDE8F00F70470000B0
:100C7000074B82B0D3F8542142F00202C3F854214A
:100C8000D3F8543103F002030193019B02B0704783
:100C90000044025810B51422BAB0044600210DEBEE
:100CA00002000CF00FFAC02200210AA80CF00AFA88
:100CB00023683C4A934239D1012200230AA8CDE996
:100CC0000A2303F0C7F808B1FFF794FF364BC021A1
:100CD00000243648D3F8502142F01002C3F85021C6
:100CE000D3F8502102F010020192019AD3F840216A
:100CF00042F00202C3F84021D3F8403103F002036E
:100D00000293029B0223CDE90513072305A909934A
:100D1000CDE9074402F0C8F925202246214601F01A
:100D20008BF9252001F0BAF93AB010BD204A934260
:100D3000FAD1022200230AA8CDE90A2303F08AF897
:100D400008B1FFF757FF184B002405A91948D3F83D
:100D5000482142F48022C3F84821D3F8482102F404
:100D600080220392039AD3F8402142F00802C3F88C
:100D700040214FF44072D3F8403103F0080304934C
:100D8000049B0223CDE905230723CDE907440993FA
:100D900002F08AF927202246214601F04DF927204A
:100DA000C0E700BF00100140004402580004025890
:100DB00000480040000C025870B5B6B00546C0228D
:100DC000002106A80CF07EF92A682C4B9A4252D1D9
:100DD0004FF48072002306A8CDE9062303F03AF809
:100DE00008B1FFF707FF264C22689AB9254B572018
:100DF000D3F8501141F48001C3F850111146D3F8D3
:100E0000503103F480030093009B01F015F9572043
:100E100001F044F923687022002601A901331A4821
:100E200023600223194CCDE901230123CDE90336C8
:100E30000623059302F038F9572315494FF48060D3
:100E4000C4E900134FF40063C4E904034FF40053F2
:100E50002046C4E906364FF48033C4E90266C4E98B
:100E6000083601F0E9FA08B1FFF7C4FEC5F884407E
:100E7000A563C5F8804036B070BD00BF045801407E
:100E8000342E00240044025800100258242D00245F
:100E900010000240FEE7FEE7FEE7FEE7FEE77047D0
:100EA0007047704701F09CB8014801F007BF00BFD0
:100EB000242D0024014804F043BB00BF9C2D0024D6
:100EC0000B4A0346116810B509B90A491160106848
:100ED00009490A4C0344091B8B4206D90CF0B0F9AE
:100EE0000C2303604FF0FF3010BD1360FCE700BF20
:100EF000382E00240000002000001024000800000C
:100F0000284AD2F8883043F47003C2F88830264A61
:100F1000136803F00F03022B05D8136823F00F03A7
:100F200043F003031360214B1A6842F001021A6078
:100F300000221A611E4A19680A401B491A600A6891
:100F400012F00C0F05D00A6822F00F0242F00302E3
:100F50000A60002217499A61DA611A629962164999
:100F6000D962164919635A639963DA6319645A643A
:100F7000196821F4802119601A66D3F83421D2044B
:100F80000FD4D3F8342143F2D20142F48052C3F893
:100F900034210B4A1160D3F8342122F48052C3F873
:100FA0003421704700ED00E0002000520044025858
:100FB0007FEDF6EA000202020000FF01800201015B
:100FC00000400052044BDA6822F00202DA605A68EC
:100FD0009204FCD5704700BF00480258DFF838D0B3
:100FE000FFF7F0FFFFF78CFF0C480D490D4A002377
:100FF00002E0D458C4500433C4188C42F9D30A4ACE
:101000000A4C002301E013600432A242FBD30CF02F
:101010001DF9FFF7B5FC7047000010240000002404
:10102000742C002480A20308742C00241CC5002406
:10103000FEE70000DFED067A12B9C3ED007A7047D3
:10104000F0EC016A013AB1EC017AE6EE877AF3E757
:1010500000000000083002B9704750ED017A013AF3
:1010600010ED027A67EEA77AE7EE077AE1EC017AF3
:10107000F0E72DE9F04780460846B8F800700646CC
:10108000D8F8042001EB870979089446FF084B46FD
:1010900000EB810509EB810402EB07172DED028BB4
:1010A000BC4506F1100605F1100504F1100403F12A
:1010B00010030FD18CB20223214600F037FBD8F881
:1010C0000420214648460223BDEC028BBDE8F047D0
:1010D00000F02CBB13ED040A0CF1100C16ED047A91
:1010E00053ED030A37EE008A56ED033A53ED011A29
:1010F00037EE407A14ED044A54ED034A13ED021A18
:1011000055ED032A15ED023A55ED016A54ED025AE8
:1011100014ED016A15ED042A06ED048A33EEA08A67
:1011200056ED027A73EEE03A16ED015A06ED038AA7
:1011300037EE818A77EEC17A06ED028A35EE218A92
:1011400035EE615A72EE041A06ED018A34EE424A17
:1011500045ED041A72EEA41A74EEE24A45ED031A44
:1011600073EE251A75EEC35A45ED021A76EE861A0D
:1011700036EE666A45ED011A1CED033A5CED046A31
:1011800063EE832AE7EE262A23EE477AA3EEA67AB9
:1011900043ED042A03ED037A24EE267A66EEE46A30
:1011A000A4EE837AE4EE036A04ED037A44ED046A64
:1011B0001CED027A5CED016A65EE264AE7EE874A8D
:1011C00066EEE77AE5EE077A43ED024A43ED017AEF
:1011D00065EE877A27EE467AE6EE267AA5EEA67ABF
:1011E00044ED017A04ED027A5AE72DE9F04F834687
:1011F000D1ED007AD1ED015A0846BBF8003001F17B
:10120000100EDBF804205B0801EBC30501EB83063D
:1012100095ED007A05EB8304D6ED013AA6F10409B9
:1012200037EE876AD4ED004A77EEC77A95ED017AFA
:1012300094ED014AA4F1040875EE876A2F1F75EE3C
:10124000C75A96ED007A05F1100C37EE065A36EEC5
:10125000476A35EE245A36EE646A2DED048B8BB066
:1012600081ED005A96ED015A94ED013A36EE855A19
:1012700003925A0876EEE36A35EE035A0992039A0E
:1012800076EEC46A81ED015A33EEA75A083277EE42
:10129000E37A06F1100135EE445A0692039A77EE8E
:1012A000847A86ED005A103235EEC75A37EE257A29
:1012B0000792039A35EE245A37EE647A183286ED97
:1012C000015A85ED006AC5ED016AC4ED007A84ED2E
:1012D000017A08925A0808EB8303023A00935208F5
:1012E000DDE906A3049204F110020293089B019326
:1012F000049B0593A9F10809009B083F1CED027AA5
:10130000A8F10808083B5CED013A5EED024A0AF1DB
:10131000080A00930EF1080E029B74EEC77A1EEDC8
:10132000036A74EE874A103351ED025A36EE635A5F
:1013300011ED012A36EE236A0293019B72EE276AB1
:1013400035EE653A12ED024A183334EEE57A35EEA1
:10135000855A52ED012A76EE423A019377EEC27A2F
:10136000059B75EEA45A083176EEE26A0CF1080C82
:1013700033EE043A083237EE447A73EEE23A77EE0F
:10138000A27A35EE445A75EE845A002B73D1049B31
:10139000069FDA00049902F108031744049A06EB49
:1013A000030E00EB030A05EB03082344CAED005AC1
:1013B000B946DEED015A079F36EE256AD3ED015A94
:1013C00007EB021C089A182736EE256A07FB01274F
:1013D000039A8AED016AD9ED014AD9ED005A24EE4B
:1013E000836AA5EEA66A66EEE46AE5EE836A8EED90
:1013F000006ACEED016ADCED015A9CED006A65EEF3
:10140000A36AE6EE076A27EE657AA6EE237AC8EDB0
:10141000006A88ED017A97ED016AD7ED006A26EE41
:10142000057ABDF824703946A6EEA77A67EEC67A2B
:10143000E6EE857A83ED007AC3ED017A042300F0AD
:1014400075F9DBF8042039463046042300F06EF9C4
:10145000DBF8042039462846042300F067F904230A
:10146000DBF80420394620460BB0BDEC048BBDE808
:10147000F04F00F05BB94EED045A51ED035A009B5A
:1014800036EE256A52ED035A36EE256A0EED036AF2
:1014900098ED016A99ED012AD9ED024A72EE065AD9
:1014A00093ED028A32EE462A98ED026A93ED014AE4
:1014B00034EE869AD7ED018A74EEC64A97ED026A39
:1014C00075EEE81A76EE482A39EE461A36EE096AC3
:1014D00074EEE80A71EEC41A36EE086A70EE840AF9
:1014E00034EE684A89ED026A32EE820A97ED016AAB
:1014F00031EE481A34EE644A75EE865A93ED016A6D
:10150000029B72EEC22A75EE865AC9ED015A5AED57
:10151000015A1AED026A65EE834AE6EE264A66EE45
:10152000E56AE6EE036A41ED044A41ED036A60EEC6
:10153000866A26EE406AE0EE256AA0EEA56AC7ED4F
:10154000016A87ED026A53ED036A13ED046A66EEE1
:10155000A35A019BE6EE075A27EE667AA6EE237A97
:101560004CED045A0CED037A21EE267A66EEE16A20
:10157000A1EEC67AE1EE466A88ED017AC8ED026A0C
:1015800013ED067A53ED056A009B26EE856AA7EEF9
:10159000276A67EEE67AE7EE057A02ED046A42ED25
:1015A000037A64EE077A27EE627AE2EEA67AA4EE78
:1015B000267AC3ED017A83ED027A059B013B98E61A
:1015C000012A2DE9F04106460C4617469846058843
:1015D0003ED0B5F5807F49D026D8402D31D01CD8DB
:1015E000102D1CD0202D41D0B8F1000F04D0B268CE
:1015F0002046B189FEF77CFE012F0CD107EE905AF0
:10160000F7EE006A0023F8EE677A86EEA77AAB421F
:1016100004F108042FD3BDE8F081802DE4D12146E8
:101620003046FFF726FDDFE7B5F5006F1ED005D881
:10163000B5F5007F05D0B5F5806FEFE7B5F5805FB4
:10164000D2D1012372682946204600F06FF8CBE71B
:101650000A1D0023AB4202F10802BAD252ED027A0F
:101660000133F1EE677A42ED027AF3E72146304624
:10167000FFF7BBFDB8E754ED027A013367EE877AD6
:1016800044ED027A54ED017A67EEC77A44ED017AAF
:10169000BDE700000023B1F5807F018043602AD0C0
:1016A0000DD8402929D006D810292AD0202926D0A3
:1016B0004FF0FF3070478029FAD1134B0FE0B1F59E
:1016C000006F14D007D8B1F5007F12D0B1F5806F4C
:1016D000EED10E4B03E0B1F5805FE9D10C4B9A8956
:1016E00082819A685B688260436000207047094B82
:1016F000F5E7094BF3E7094BF1E7094BEFE7094B36
:10170000EDE7094BEBE700BFC8C5020898C5020822
:1017100078C5020888C50208A8C50208B8C502082D
:10172000D8C50208E8C50208F8C502082DE9F04F3F
:10173000DFEDB27A2DED108B8DB002910B920393F9
:101740000191019B00F1040E4FF0000AD908DB0063
:10175000CA0000EB411C08926FF017024FEA411BD0
:1017600002FB01F928220CEB09074A4307EB41165B
:1017700007920A0106EB09050692302205EB411497
:101780004A43059204EB0902009238224A4304922C
:10179000009A02EB4118DCED006A1EED016AD7EDFC
:1017A000005A009A36EE267A36EE666AD6ED006A60
:1017B00092ED003AD8ED003A35EEA65A35EEE64AFB
:1017C000D4ED005AD5ED006A76EEA54A76EEE56ACC
:1017D00073EE235A77EE641A37EE247A35EE652AD3
:1017E00075EE255A33EE633A37EE255A37EE657AB1
:1017F0000EED015A8CED007A9CED017A9EED005AB7
:10180000D6ED014A75EE075AD4ED013A35EE475A46
:1018100097ED017A98ED011A77EE242A37EE647A73
:10182000D5ED014A74EEA30A74EEE34AD2ED013A13
:1018300033EE810A73EEC13A35EEE01A75EEA05A26
:1018400072EEC00A72EE802A35EEA20A75EEE25AF6
:1018500077EE632A8EED000A37EE237ACCED015A3B
:1018600071EEA05A71EEE01A9C44F0EE463A9E44A6
:10187000C5ED005A71EE425A32EE012AC4ED001A4B
:10188000C5ED015A74EE035A84ED012A34EE432A61
:10189000B0EE664A1D44E5EEA76A1C44B0EE453A38
:1018A000A5EEE74AF0EE455AB0EE645AA2EEE73AEA
:1018B000E2EEA75AA2EE276AA7EE275AF0EE642AB4
:1018C000E2EE673AE7EE672A36EE057A36EE456ACB
:1018D00087ED007A33EEA27A88ED006A73EEE23A81
:1018E00086ED007A35EEE67AC2ED003A76EEA56A2C
:1018F00087ED017A33EE447A34EE034AC8ED016A8B
:101900001F44984486ED017A1E4482ED014A019AF3
:101910009244009A1A440092029A52453FF63BAF15
:10192000072940F274810BEB000201240992089A06
:1019300002440892079A02440792069A02440692C9
:10194000059A02440592A0EB09020A92049A024405
:1019500004920022039D302600EBC40AA3462A44C9
:101960000B9D05EBC20595ED002A05EBC20595ED33
:10197000000A05EBC20595ED005A05EBC205D5ED51
:10198000008A05EBC20595ED004A05EBC20595ED11
:10199000001A05EBC20506FB125695ED003AD5ED8F
:1019A000012A099DD6ED011A06EBC20605EBC40912
:1019B000089D96ED018A06EBC20605EBC408079D5B
:1019C000D6ED014A06EBC20605EBC40E069D96ED68
:1019D000019A06EBC20605EBC40C059DD6ED013A53
:1019E00006EBC20605EBC4070A9DD6ED010A05EB1E
:1019F000C406049D05EBC405009501E0F304353FE2
:101A000099ED006ADEED005A9AED007AD8ED009A61
:101A1000009D77EE066AD6ED00BA37EE467AD5ED30
:101A200000AA39EEA56A9CED00AA79EEE59AD7EDF9
:101A3000005A3AEE25BA3AEE65AA7BEEAA5A7BEE38
:101A4000EABA76EECBAA76EE65DA76EE8B6A36EEF9
:101A5000256A76EE865A76EEC66ACAED005ADAED47
:101A6000015A99ED016AD5ED01EA35EE86EA9CED61
:101A700001BA35EEC6CA98ED016ADEED015A96ED5F
:101A800001DA76EE65CA76EE25FAD7ED015A3BEE1D
:101A9000256A3BEE65BA7DEE2E5A3EEE46FA3DEEE5
:101AA0006EDA3EEE06EA7FEEE5EA7FEEA55A3AEE02
:101AB000AE6A7AEEEEAA7EEE25EA3EEE65EACAED61
:101AC00001EA7FEE6DEA69EE0E5A9A447DEE8FDAF6
:101AD000E8EEA65AC9ED005A66EEC95A68EE2E6ABB
:101AE000E8EE8E5AE0EE066A26EE486AA0EE2E6A0E
:101AF000C9ED015A79EEEB5ACCED006A60EEAD6AA1
:101B000079EEAB9A9944F0EE47BAE1EE2A6A8CED91
:101B1000016AA5EEA77A3CEE8D6A9C44E5EEE7BA31
:101B2000F0EE4C5AC7ED006A6AEEE06AF0EE4BAA9E
:101B3000E1EE2D6AE6EE67AAC7ED016A7CEECD6A9A
:101B4000F0EE4CCA1F44B0EE4ADAE6EEA75AE6EED3
:101B5000E7CAF0EE4B6AA9EEA7AAA9EEE7DAE6EE2D
:101B6000276A7BEEEA9A37EE266A37EE667A7BEED4
:101B7000AA6A75EECABA3AEE25AA7CEECDAA21EE83
:101B8000ABBA7DEE2C5AA2EE06BA26EE616AA2EE40
:101B90002B6A88ED00BA88ED016A22EE8A6A9844C1
:101BA000A3EE076A85ED006A27EE626A23EEAA7A41
:101BB000A3EE0A6AA4EE267A66EEE36AE4EE2A6AE7
:101BC00085ED016A8EED007A24EEA57AA5EE297ADC
:101BD000CEED016A9E4486ED007A29EEE47AA5EE08
:101BE000257A86ED017A1E44019DAB44009D1D447B
:101BF0000095029D5D453FF603AF0134A1427FF49D
:101C0000A9AE039B0191DB009BB2039399E50DB054
:101C1000BDEC108BBDE8F08FD1ED017AB0EE006A1B
:101C2000D1ED005AF6EE006A77EEA77A03881032FB
:101C3000013BB0EE677AD5EE867AA5EE867A10B5CE
:101C4000446967EEA67A27EE267A04F1100001F1C6
:101C5000100401EBC30142ED037A083902ED047A66
:101C600091ED034A013B91ED027A083054ED023ABE
:101C7000002B54ED017A02F1080237EE635A50ED61
:101C8000045A34EE276A50ED034A37EE237A04F102
:101C9000080477EEC47AA1F10801A5EE857AE4EE96
:101CA000857AA4EE867AE5EEC67A27EE267A67EE86
:101CB000A67A02ED047A42ED037AD1DC10BDD1EDB3
:101CC000007AF6EE006A91ED016A0832038837EE79
:101CD000867A77EEC67A013B27EE267A67EEA67AF9
:101CE00010B5446902ED027A04F1080001F108041C
:101CF00001EBC30142ED017A002B02F1080200F171
:101D0000080004F10804A1F1080100DC10BD91ED08
:101D1000034A013B91ED027A54ED023A54ED017A07
:101D200033EEC75A50ED025A34EE276A50ED014A9D
:101D300037EE237A77EEC47AA5EEC57AE4EE857A9B
:101D4000A4EEC67AE5EEC67A27EE267A67EEA67A84
:101D500002ED027A42ED017ACEE72DE9F041054627
:101D60000F4616461C464BB1FFF7A9FF22463146E7
:101D700028460123BDE8F041FFF722BC224601239B
:101D8000FFF71EFC324639462846BDE8F041FFF712
:101D900043BF000010B5044640B11021FFF77AFCA4
:101DA00018B920232382034B636110BD4FF0FF302D
:101DB000FBE700BFA070010810B5044640B1202128
:101DC000FFF768FC18B940232382034B636110BD01
:101DD0004FF0FF30FBE700BFA06F010810B50446CD
:101DE00040B14021FFF756FC18B980232382034BF2
:101DF000636110BD4FF0FF30FBE700BFA06D01082D
:101E000010B5044648B18021FFF744FC20B94FF4D7
:101E100080732382024B636110BD4FF0FF30FBE7FC
:101E2000A069010810B5044650B14FF48071FFF766
:101E300031FC20B94FF400732382034B636110BD62
:101E40004FF0FF30FBE700BFA061010810B504466A
:101E500050B14FF40071FFF71DFC20B94FF48063BF
:101E60002382034B636110BD4FF0FF30FBE700BFDF
:101E7000A051010810B5044650B14FF48061FFF73E
:101E800009FC20B94FF400632382034B636110BD4A
:101E90004FF0FF30FBE700BFA031010810B504464A
:101EA00050B14FF40061FFF7F5FB20B94FF48053B8
:101EB0002382034B636110BD4FF0FF30FBE700BF8F
:101EC000A0F10008B1F5007F1AD00ED8802919D0F2
:101ED00006D8202918D0402918D04FF0FF3070477D
:101EE000B1F5807FF9D10C4B09E0B1F5006F0FD04F
:101EF000B1F5805F0ED0B1F5806FEED1074B18477A
:101F0000074BFCE7074BFAE7074BF8E7074BF6E709
:101F1000074BF4E7074BF2E7011E00084D1E0008CF
:101F2000251E0008DD1D0008951D0008B91D0008CC
:101F3000751E00089D1E000838B50F4B05461A781F
:101F40000AB9012038BD4FF47A73B3FBF2F30B4AA0
:101F50001068B0FBF3F000F0AFF804460028F0D1B1
:101F60000F2DEED8024629464FF0FF3000F064F8FE
:101F7000034B20461D60E5E7080000240400002410
:101F80000C00002410B5032000F044F801F068FCB8
:101F90000F49104A8B69C3F30323D35C03F01F037B
:101FA000D8408B6903F00F03D35C0B4A03F01F0387
:101FB00020FA03F31360094B18600020FFF7BCFF01
:101FC000044618B9FEF754FE204610BD0124FBE775
:101FD0000044025890F1000800000024040000248E
:101FE000034A044B11681B780B441360704700BF11
:101FF0003C2E002408000024014B1868704700BFE5
:102000003C2E00244FF0E022136923F002031361F9
:102010007047000007490302CA6803F4E06322F432
:10202000E0621204120C134343F0BF6343F4003325
:10203000CB60704700ED00E0164B30B5DC68C4F3B0
:102040000224C4F10703251D042B28BF0423062DF9
:102050004FF0FF358CBF033C002405FA03F3002842
:1020600005FA04F521EA030322EA050203FA04F360
:1020700043EA02034FEA0313DBB206DB00F16040E0
:1020800000F5614080F8003330BD00F00F00024AD7
:102090001354F9E700ED00E014ED00E0002807DB41
:1020A0000123410900F01F00024A834042F8213019
:1020B000704700BF00E100E00138B0F1807F0BD233
:1020C0004FF0E023054AF0215861002082F82310E8
:1020D000072298611A6170470120704700ED00E007
:1020E000F0B5DFF8B0C10468876D64454FD0644D2A
:1020F000AC424CD01835AC4249D01835AC4246D031
:102100001835AC4243D01835AC4240D01835AC42FB
:102110003DD01835AC423AD005F55675AC4236D0B4
:102120001835AC4233D01835AC4230D01835AC42FB
:102130002DD01835AC422AD01835AC4227D01835EE
:10214000AC4224D01835AC4221D04E4DAC421ED00A
:102150001435AC421BD01435AC4218D01435AC4207
:1021600015D01435AC4212D01435AC420FD0143512
:10217000AC420CD01435AC4209D0434DAC424FD1E7
:10218000C56D05F01F060125B5407D6041E0D0E931
:1021900019566E60C56E15B1D0E91C566E60644567
:1021A0002DD0374DAC422AD01835AC4227D0183547
:1021B000AC4224D01835AC4221D01835AC421ED0E8
:1021C0001835AC421BD01835AC4218D005F5567501
:1021D000AC4214D01835AC4211D01835AC420ED0F8
:1021E0001835AC420BD01835AC4208D01835AC428B
:1021F00005D01835AC4202D01835AC423ED1C56D81
:1022000005F01F063F25B540BD60256825F48025F3
:10221000256063608368402B2DD1A260E16029E0D6
:102220001A4DAC42ACD01435AC42A9D01435AC42F6
:10223000A6D01435AC42A3D01435AC42A0D014358E
:10224000AC429DD01435AC429AD0114DAC4297D0DF
:102250001435AC4294D01435AC4291D01435AC4214
:102260008ED01435AC428BD01435AC4288D01435A6
:10227000AC4285D0F0BDA160E260FBE7014DE2E732
:102280002800024008540258082C02481C2C02481E
:102290001C540258100002400368024623498B4236
:1022A00010B531D018318B422ED018318B422BD043
:1022B00018318B4228D018318B4225D018318B42EF
:1022C00022D018318B421FD018318B421CD001F51F
:1022D00056718B4218D018318B4215D018318B4271
:1022E00012D018318B420FD018318B420CD01831DC
:1022F0008B4209D018318B4206D018318B4203D063
:1023000023F0FF00906510BDDCB218210848103C96
:10231000B4FBF1F101F007015F2C415C23F47F7005
:1023200020F00300D16588BF0430EBE710000240C5
:1023300008C6020802682049D3B28A4228D0143164
:102340008A4225D014318A4222D014318A421FD0C9
:1023500014318A421CD014318A4219D014318A4275
:1023600016D014318A4213D01821103BB3FBF1F37D
:1023700012491144A8291CD903F18052012103F00C
:102380001F0302F5024201FA03F30D4992000CE02B
:102390001422083B0121B3FBF2F303F1B05201FA1E
:1023A00003F3084902F5164292008366C0E918213A
:1023B00070470833E0E700BF08540258F0FBFDBF48
:1023C00080080240805802580279511E072910B532
:1023D00021D80368134CA3421ED01434A3421BD04F
:1023E0001434A34218D01434A34215D01434A34299
:1023F00012D01434A3420FD01434A3420CD014349E
:10240000A34209D0084B1344084A9B00C0E91B3281
:1024100001238B40436710BD054B1344054A9B00C5
:10242000F4E700BF085402583F8200104009024000
:102430003F96001640590258F8B50446FFF7DCFDF8
:102440000646002C00F0A58023686E4DAB4264D098
:102450006D4A934261D0183293425ED01832934253
:102460005BD01832934258D01832934255D018326C
:10247000934252D0183293424FD002F55672934293
:102480004BD01832934248D01832934245D018327C
:10249000934242D0183293423FD0183293423CD0FC
:1024A0001832934239D01832934236D0574A934269
:1024B00040F02B81022284F83520002284F8342059
:1024C000A2681868402A6FF3101000F05C81A2F136
:1024D00080014A424A419203D4E9031631436669B6
:1024E0003143A6693143E6693143266A40EA161052
:1024F00040EAD10120460A431A60454A1A4414238F
:10250000B2FBF3F29200E265FFF7C6FEE36D03F063
:102510001F020123934043608EE0022284F835209D
:10252000002284F834201A6822F001021A6021681F
:102530000B68DB0723D40B68364AA0691A40D4E93C
:10254000023633432669334366693343E6690343FE
:102550003343266A3343666A042E43EA020302BF0A
:10256000D4E90B273A4313436268522A2ED83E2AF5
:1025700011D8293A052A14D843F4801311E0FFF743
:102580003BFD801B0528D2D920236365032384F8F3
:1025900035300120F8BD204F3F3A27FA02F2D70725
:1025A000EAD40B60042E4B6923F0070343EA0603C9
:1025B00038D1A26AE66A1343A6B350B9012A19D0EA
:1025C00032F002022ED1F0012CD516E0743A032A23
:1025D000D1E7B0F5005F21D1032A23D801A050F83C
:1025E00022F000BFFB250008C7250008FB250008D6
:1025F000F5250008B6F1C07F14D14023636501239F
:10260000C5E700BF1000024028000240082C024825
:10261000F8ABFDA73F8010FE0F030F00022AECD994
:10262000032AD0D04B612046FFF736FEE36D03F05E
:102630001F023F23934083602368AB4245D0554A35
:10264000934242D0183293423FD0183293423CD04A
:102650001832934239D01832934236D0183293420E
:1026600033D01832934230D002F5567293422CD0B8
:102670001832934229D01832934226D0183293420E
:1026800023D01832934220D0183293421DD01832F2
:1026900093421AD01832934217D03F4A934214D033
:1026A0001432934211D0143293420ED0143293421A
:1026B0000BD01432934208D01432934205D0143216
:1026C000934202D01432934219D120460025FFF7DD
:1026D00031FEA368226E802B04BF00236360636811
:1026E000D9B2013B1160072BD4E9192151604CD8B4
:1026F000FFF76AFEE36E1D60D4E91C325A600020C9
:102700000123606584F8353044E7244A93423FF45E
:10271000D1AE143293423FF4CDAE143293423FF423
:10272000C9AE143293423FF4C5AE143293423FF423
:10273000C1AE143293423FF4BDAE143293423FF423
:10274000B9AE154A93423FF4B5AE143293423FF40A
:10275000B1AE143293423FF4ADAE143293423FF423
:10276000A9AE143293423FF4A5AE143293423FF423
:10277000A1AE143293423FF49DAE143293423FF423
:1027800099AE402301E71022A6E6C4E91B55656710
:10279000B5E700BF28000240085402581C2C02482C
:1027A00070B5002800F0D98090F83440012C00F07A
:1027B000D680012480F8344090F83540012C4FF049
:1027C000000440F0C580022580F83550654D446511
:1027D0000468AC421ED0644EB4421BD01836B442DA
:1027E00018D01836B44215D01836B44212D0183664
:1027F000B4420FD01836B4420CD01836B44209D0C7
:1028000006F55676B44205D01836B44202D01836D2
:10281000B442FFD0266826F001062660FFF760FC70
:10282000AC42026C53D0504B9C4250D018339C4267
:102830004DD018339C424AD018339C4247D01833AD
:102840009C4244D018339C4241D018339C423ED025
:1028500003F556739C423AD018339C4237D0183354
:102860009C4234D018339C4231D018339C422ED035
:1028700018339C422BD018339C4228D018339C42EA
:1028800025D0236823F00E0343F00A032360002AB7
:1028900054D1364B9C4225D0354B9C4222D0143328
:1028A0009C421FD014339C421CD014339C4219D03C
:1028B00014339C4216D014339C4213D014339C42E0
:1028C00010D02368002043F00103236070BD23680B
:1028D00023F01E0343F0160323601AB1236843F06C
:1028E00008032360036E1A68D2032CD4C36E1BB195
:1028F0001A6842F480721A60AC42E2D01A4B9C42D1
:10290000DFD018339C42DCD018339C42D9D0183326
:102910009C42D6D018339C42D3D018339C42D0D09E
:1029200018339C42CDD003F556739C42C9D018335E
:102930009C42C6D018339C42C3D0C2E7236843F000
:1029400004032360A5E71A6842F480721A60CDE799
:102950004FF4006380F8344043650120B6E702205D
:10296000B4E700BF1000024028000240085402589B
:102970001C540258F8B50546FFF73EFB074645B123
:1029800095F83530022B06D080236B65002385F83F
:1029900034300120F8BD2C687C4EB4425BD07C4BB7
:1029A0009C4258D018339C4255D018339C4252D088
:1029B00018339C424FD018339C424CD018339C4261
:1029C00049D018339C4246D003F556739C4242D0FE
:1029D00018339C423FD018339C423CD018339C4261
:1029E00039D018339C4236D018339C4233D0183338
:1029F0009C4230D018339C422DD0236823F00E0324
:102A00002360644B9C422FD12A6EB442136823F496
:102A1000807313603DD05E4B9C423AD018339C4289
:102A200037D018339C4234D018339C4231D01833FD
:102A30009C422ED018339C422BD018339C4228D075
:102A400003F556739C4224D018339C4221D018338E
:102A50009C421ED01DE0236823F01E03236063699F
:102A600023F080036361CFE74B4B9C42CCD01433FF
:102A70009C42C9D014339C42C6D014339C42C3D06C
:102A800014339C42C0D014339C42BDD014339C42BA
:102A9000BAD0236823F0010323602368DB0747D4FF
:102AA0002B68EA6DB342A86D02F01F024BD0384983
:102AB0008B4248D018318B4245D018318B4242D0DE
:102AC00018318B423FD018318B423CD018318B42A9
:102AD00039D018318B4236D001F556718B4232D045
:102AE00018318B422FD018318B422CD018318B42A9
:102AF00029D018318B4226D018318B4223D018317F
:102B00008B4220D018318B421DD0012101FA02F2F4
:102B10004260204A93421AD1D5E919325A60EB6ECD
:102B20005BBB0123002085F8353085F8340031E7A0
:102B3000FFF762FAC01B0528AFD920236B6503237A
:102B400085F8353022E73F2393408360E4E7124A5B
:102B50009342E1D014329342DED014329342DBD060
:102B600014329342D8D014329342D5D014329342C7
:102B7000D2D014329342D4D1CEE71A6822F48072B4
:102B80001A60D5E91C325A60CBE700BF1000024042
:102B900028000240085402581C54025808B528B1B5
:102BA00090F83530022B03D08023436501205DE08F
:102BB00003683F4A934251D0183293424ED01832A4
:102BC00093424BD01832934248D01832934245D0AA
:102BD0001832934242D0183293423FD01832934277
:102BE0003CD002F55672934238D01832934235D019
:102BF0001832934232D0183293422FD01832934277
:102C00002CD01832934229D01832934226D0183251
:102C1000934223D01A6822F00E021A601A6822F03A
:102C200001021A60234A934221D1026E136823F4F1
:102C300080731360D0E9161303F01F020123934041
:102C40004B60D0E919325A60C36E2BB31A6822F474
:102C500080721A60D0E91C325A601DE0042280F8AC
:102C600035201A6822F001021A60002008BD124ABD
:102C70009342DAD014329342D7D014329342D4D054
:102C800014329342D1D014329342CED014329342B4
:102C9000CBD014329342C8D0012380F835300023C2
:102CA00080F83430036D002BDFD09847DDE700BF9C
:102CB00010000240085402581C54025800232DE909
:102CC000F34101930446844B844F1E680368856D6D
:102CD000BB42D5F80080D5F800C047D0804A934267
:102CE00044D01832934241D0183293423ED0183229
:102CF00093423BD01832934238D01832934235D0A9
:102D00001832934232D002F5567293422ED01832C6
:102D100093422BD01832934228D01832934225D0B8
:102D20001832934222D0183293421FD01832934265
:102D30001CD01832934219D06A4A934240F037812E
:102D4000E16D04201A6801F01F01884010EA0C0FA1
:102D500000F07481560740F171811104686040F100
:102D60006581D30300F16881A36CA0E0E26D0821C6
:102D700002F01F02914011EA080F0BD018684007BB
:102D800008D5186820F004001860A960616D41F052
:102D90000101616528FA02F1C80709D559690906D8
:102DA00006D501219140A960616D41F00201616584
:102DB0000421914011EA080F07D01868800704D554
:102DC000A960616D41F004016165102101FA02F210
:102DD00012EA080F0FD0196809070CD5AA601A6803
:102DE00050036CD51B68190301D4236C00E0A36C5D
:102DF0000BB120469847E26D202102F01F0291405E
:102E000011EA080F7AD02368BB422DD034488342A0
:102E10002AD01830834227D01830834224D018306B
:102E2000834221D0183083421ED0183083421BD0F9
:102E30001830834218D000F55670834214D01830F1
:102E4000834211D0183083420ED0183083420BD009
:102E50001830834208D01830834205D0183083429E
:102E600002D01830834232D1186810F0100F45D0CC
:102E7000A96094F83510042936D1196821F016019B
:102E80001960596921F080015961216C09B9A16C5F
:102E900019B1196821F0080119603F239340AB6014
:102EA000012384F83530002384F83430236D002B5F
:102EB00000F0B980204602B0BDE8F04118471A681A
:102EC000D20592D41A6822F008021A608DE71868B9
:102ED00010F0020FCBE700BF0400002410000240F6
:102EE00028000240082C02481A68500344D51B6889
:102EF00019034ED4636C0BB120469847636D002BC9
:102F000000F09180636DDA074FD5042384F83530E3
:102F10002368BB421ED0604A93421BD018329342B2
:102F200018D01832934215D01832934212D018326A
:102F300093420FD0183293420CD01832934209D0EA
:102F400002F55672934205D01832934202D01832DD
:102F50009342FFD01A6822F001021A604FF4165211
:102F6000B6FBF2F6019A0132B242019213D91B6804
:102F7000DB0714D4012313E01A6812F4807208D11D
:102F8000196821F010011960012384F8342084F8B5
:102F90003530E36BAFE71A68D707E3D4E7E70323DD
:102FA00084F83530002384F83430E36C7FE73B4A03
:102FB00093423FF4C5AE143293423FF4C1AE143293
:102FC00093423FF4BDAE143293423FF4B9AE143293
:102FD00093423FF4B5AE143293423FF4B1AE143293
:102FE00093423FF4ADAE2E4A93423FF4A9AE143261
:102FF00093423FF4A5AE143293423FF4A1AE143293
:1030000093423FF49DAE143293423FF499AE143292
:1030100093423FF495AE143293423FF491AE143292
:1030200093423FF48DAE02B0BDE8F081970603D421
:103030001A6822F004021A60236C38E702208840E4
:1030400010EA0C0F16D0960714D56860100403D54B
:10305000D1030DD4636C2AE712F0200208D119685D
:1030600021F00A011960012384F8342084F83530F6
:10307000E36B1CE70820884010EA0C0FD3D012073E
:10308000D1D51A6822F00E021A60012303FA01F169
:103090006960636584E700BF280002401C2C024879
:1030A00008540258406D70472DE9F74F0023DFF8B0
:1030B000C4914FF0B0440A6832FA03F502D103B06C
:1030C000BDE8F08F012505FA03F818EA020200F0C6
:1030D000BB804E6803274FEA430E06F0030507FA4C
:1030E0000EFC6F1E6FEA0C0C012F34D8876807EABC
:1030F0000C0ACF6807FA0EF747EA0A0787604768A5
:1031000027EA0808C6F300179F4047EA0807476008
:10311000C768022D07EA0C088F6807FA0EF747EA1E
:103120000807C76019D14FEAD30803F0070A4FF028
:103130000F0B00EB88084FEA8A0AD8F820700BFAC8
:103140000AFB27EA0B0B0F6907FA0AF747EA0B0796
:10315000C8F8207001E0032DDAD1076805FA0EF5F2
:1031600016F4403F07EA0C0745EA070505606BD0F7
:10317000D9F8545123F0030703F0030C4FF00F0E5E
:1031800045F0020507F1B0474FEA8C0CC9F85451DD
:1031900007F58067D9F854510EFA0CFE05F00205C8
:1031A0000195019DBD6825EA0E0E314DA8424DD016
:1031B00005F58065A8424BD005F58065A84249D049
:1031C00005F58065A84247D005F58065A84245D041
:1031D00005F58065A84243D005F58065A84241D039
:1031E00005F58065A8423FD005F58065A8423DD031
:1031F00005F58065A84214BF0A25092505FA0CF5D6
:1032000016F4801F45EA0E05BD606FEA02072568C7
:103210000CBF3D40154316F4001F256065680CBFC8
:103220003D40154316F4003F6560D4F884500CBF50
:103230003D401543F603C4F88450D4F8805054BF81
:103240003D401543C4F88050013334E70025D5E7ED
:103250000125D3E70225D1E70325CFE70425CDE7F4
:103260000525CBE70625C9E70725C7E70825C5E7F4
:1032700000000258004402580AB1816170470904F5
:10328000FBE70000054A0129136923F004031361D9
:1032900001D130BF704720BF704700BF00ED00E094
:1032A00070B51C4D0446EB6803F00703062B06D0EF
:1032B000E86800F03F00001B18BF012070BDEB68FC
:1032C00023F03F030343EB60FEF796FE06466B6870
:1032D0009A0408D5A4F11D03012B0CD92D3C012C17
:1032E00009D90020EAE7FEF787FE801BB0F57A7F58
:1032F000EDD90120E2E7FEF77FFE064D0446EB68BC
:10330000DB03EED4FEF778FE001BB0F57A7FF6D92A
:10331000EFE700BF00480258F8B50446002869D01E
:103320000368D80753D42368990700F1B88023684D
:10333000DA061CD5964A1369916A03F03803082B04
:1033400007D0182B40F0F88001F00303012B40F068
:10335000F3801368DB0502D5E369802B4AD18C4AE0
:10336000216AD36823F07C5343EA0163D360236866
:10337000190700F1118123689A0600F13281236850
:103380005D071ED5834D2B6843F480732B60FEF7D9
:1033900033FE06462B68DA0540F14881A3687C4D70
:1033A000012B40F04A812B6F43F001032B6741F260
:1033B0008837FEF721FE764E0546336F9B0740F1B6
:1033C0007881616A002940F07B8100202AE0704A00
:1033D0001369916A03F03803102B05D0182B0BD119
:1033E00001F00303022B07D113689A039BD563688E
:1033F000002B98D1012015E06368654DB3F5803F3F
:1034000011D12B6843F480332B60FEF7F5FD604E3D
:10341000054633689B0386D4FEF7EEFD401B642807
:10342000F7D90320F8BDC3B92B6823F480332B6090
:103430002B6823F480132B602B6823F480232B60EC
:10344000FEF7DAFD06462B689F037FF56CAFFEF7AB
:10345000D3FD801B6428F6D9E3E7B3F5A02F08D18C
:103460002B6843F480232B602B6823F480132B609C
:10347000C7E7B3F5A81F2B6806D143F480232B6060
:103480002B6843F48013F2E723F480332B602B681E
:1034900023F480232B602B6823F48013B4E73C498A
:1034A000E2680B69886A13F0380303D0182B20D127
:1034B00080071ED10B685B0701D5002A9AD0344DD6
:1034C0002B6823F0190313432B60FEF795FD064686
:1034D0002B685F0707D56B68226923F0FE4343EA38
:1034E00002636B6023E7FEF787FD801B0228EFD99C
:1034F00097E7274D2B687AB123F0190313432B600C
:10350000FEF77AFD06462B685807E4D4FEF774FDF3
:10351000801B0228F7D984E723F001032B60FEF714
:103520006BFD06462B6859077FF501AFFEF764FD7A
:10353000801B0228F6D974E7E369154DBBB12B68EF
:1035400043F080032B60FEF757FD06462B68DF052E
:1035500007D5EB68226A23F07C5343EA0263EB60F1
:1035600005E7FEF749FD801B0228EFD959E72B68D4
:1035700023F080032B60FEF73FFD06462B68D8053D
:103580007FF5F5AEFEF738FD801B0228F6D948E737
:1035900000440258004802586369894D83B16B6F3B
:1035A00043F001036B67FEF727FD06466B6F9B0731
:1035B0003FF5E1AEFEF720FD801B0228F6D930E78B
:1035C0006B6F23F001036B67FEF716FD06466B6F0A
:1035D0009F077FF5D0AEFEF70FFD801B0228F6D9BE
:1035E0001FE7A369764D83B12B6843F480532B60AA
:1035F000FEF702FD06462B6898043FF5C0AEFEF7C5
:10360000FBFC801B0228F6D90BE72B6823F48053C0
:103610002B60FEF7F1FC06462B6899047FF5AFAEF0
:10362000FEF7EAFC801B0228F6D9FAE6FEF7E4FC76
:10363000801B64287FF6AEAEF3E6D3B92B6F41F260
:10364000883723F001032B672B6F23F080032B6750
:103650002B6F23F004032B67FEF7CEFC06462B6F7F
:1036600098077FF5AEAEFEF7C7FC801BB842F6D9CF
:10367000D7E6052B08D12B6F43F004032B672B6F84
:1036800023F080032B678EE6852B2B6F06D143F04A
:1036900004032B672B6F43F08003F3E723F0010350
:1036A0002B672B6F23F004032B672B6F23F0800312
:1036B0007CE6FEF7A1FC401BB8427FF67EAEB0E68A
:1036C0003F4D2B6903F03803182B7BD02B68022960
:1036D00023F080732B6065D1FEF78EFC06462B68C5
:1036E000990159D4AB6AA26A23F47C7323F00303D3
:1036F0001343E26A43EA0213AB62636BA26B013BC2
:10370000013A5B0212049BB202F4FE021343226BE5
:10371000013AC2F308021343E26B013A120602F0C7
:10372000FE4213432B63EB6A23F00103EB626B6BE6
:10373000A26C6FF3CF0343EAC2036B63EB6A226CA4
:1037400023F00C031343EB62EB6A626C23F0020379
:103750001343EB62EB6A43F48033EB62EB6A43F4AE
:103760000033EB62EB6A43F48023EB62EB6A43F0D5
:103770000103EB622B6843F080732B60FEF73CFC87
:103780000F4D04462B689A013FF51FAEFEF734FC3F
:10379000001B0228F6D944E6FEF72EFC801B022807
:1037A0009DD93EE6FEF728FC04462B689B017FF579
:1037B0000CAEFEF721FC001B0228F6D931E600BF53
:1037C000004402580129AA6A2B6B3FF413AE02F0A1
:1037D0000301A06A81427FF40DAEC2F30512E16AD3
:1037E0008A427FF407AE226BC3F30801013A91428B
:1037F0007FF400AE626BC3F34621013A91427FF43D
:10380000F9ADA26BC3F30641013A91427FF4F2ADE8
:10381000E26BC3F30663013A93427FF4EBAD6B6B4B
:10382000A26CC3F3CC039A423FF4CFAD0B4DEB6ACD
:1038300023F00103EB62FEF7DFFB0646FEF7DCFB3D
:10384000B042FBD06B6BA26C6FF3CF0343EAC203B1
:103850006B63EB6A43F00103EB62B6E50044025888
:10386000494B1A6902F03802102A30B500F08880FE
:10387000182A0CD0002A40F085801A68434812F0BC
:10388000200F03D01B68C3F3C103D84030BD996A31
:103890009D6ADC6A15F47C7FC5F305105A6BF5D080
:1038A000C2F3CC0204F0010401F0030107EE900A18
:1038B0006243B7EE006A0129B8EEE77A06EE902A75
:1038C000FAEEE96A4ED002293ED000294AD11A68A0
:1038D000920627D519682D4AC1F3C1011B6BCA4056
:1038E000C3F3080307EE902AF8EEE75AC5EE877A8D
:1038F00007EE103AB8EEC77A37EE267A37EE067A38
:1039000067EE877A204B1B6BC3F34623013307EE28
:10391000103AF8EEC76A87EEA67AFCEEC77A17EE81
:10392000900AB3E71B6BC3F3080307EE903AF8EE77
:10393000E77A77EEA67A77EE867A9FED156AC6EE7D
:10394000076A67EEA67ADDE71B6BC3F3080307EE91
:10395000903AF8EEE77A77EEA67A77EE867A9FEDE0
:103960000D6AECE71B6BC3F3080307EE903AF8EE21
:10397000E77A77EEA67A77EE867A9FED076ADEE73A
:10398000064883E7064881E7004402580090D003C8
:103990000024744C0024F44A0024744A00127A0073
:1039A00000093D002DE9F0410D46044610B9012003
:1039B000BDE8F081884A136803F00F038B42C0F022
:1039C000938023685F0700F19B801E070BD5834916
:1039D0006069CA6902F07002904204D9CA6922F093
:1039E00070020243CA61D8060BD57C49A069CA6936
:1039F00002F4E062904204D9CA6922F4E062024310
:103A0000CA6199060BD57549E0690A6A02F070022D
:103A1000904204D90A6A22F0700202430A629A07AD
:103A20000BD56E49E0688A6902F00F02904204D912
:103A30008A6922F00F0202438A61DF076ED423688D
:103A40009E0700F1A18064490A6802F00F02AA42B1
:103A500000F2A880580700F1B18019070BD55F4923
:103A60006069CA6902F07002904204D2CA6922F009
:103A700070020243CA61DA060BD55849A069CA69C7
:103A800002F4E062904204D2CA6922F4E062024386
:103A9000CA619B060BD5514AE169136A03F07003B2
:103AA000994204D2136A23F070030B431362FFF7A9
:103AB000D7FE4A494A4A8B69C3F30323D35C03F018
:103AC0001F03D8408B6903F00F03D35C454A03F012
:103AD0001F0320FA03F31360434B1860434BBDE808
:103AE000F0411868FEF728BA136823F00F030B4360
:103AF0001360136803F00F038B427FF458AF60E745
:103B0000364920698A6902F0700290427FF65DAF03
:103B10008A6922F0700202438A6156E72F4BA1683E
:103B20009A6922F470620A439A6161681A680229EC
:103B30001DD112F4003F3FF43AAF1A6941F28838C0
:103B4000264F22F007020A431A61FEF755FA06468D
:103B50003B69626803F03803B3EBC20F3FF46FAF09
:103B6000FEF74AFA801B4045F2D9032020E70329DB
:103B700002D112F0007FDEE7012902D112F4807F2A
:103B8000D9E712F0040FD6E71449E0688A6902F019
:103B90000F029042BFF457AF8A6922F00F0202432E
:103BA0008A6150E70A6822F00F022A430A600A6815
:103BB00002F00F02AA427FF4FAAE4BE707492069F0
:103BC0008A6902F070029042BFF447AF8A6922F01E
:103BD000700202438A6140E700200052004402580C
:103BE00090F1000800000024040000240C000024D0
:103BF00008B5FFF735FE0B4A0B4993699269C3F389
:103C0000032302F00F02CB5C03F01F0320FA03F33F
:103C1000885C064A00F01F0023FA00F01060044A96
:103C2000136008BD0044025890F100080000002411
:103C30000400002408B5FFF7DBFF054B054ADB69EC
:103C4000C3F30213D35C03F01F03D84008BD00BFC9
:103C50000044025890F1000808B5FFF7C9FF054B72
:103C6000054ADB69C3F30223D35C03F01F03D8408A
:103C700008BD00BF0044025890F10008F8B5394C67
:103C800006460D46A36A03F00303032B67D023689F
:103C900023F080632360FEF7AFF9074623681A011B
:103CA00049D4A36A326823F47C3343EA0233A36223
:103CB000B368F268013B013A5B0212049BB202F462
:103CC000FE0213437268013AC2F3080213433269D9
:103CD000013A120602F0FE421343A363E36A7269DB
:103CE00023F0C0031343E362E36AB26923F02003C5
:103CF0001343E362E36A23F01003E362E36BF269C8
:103D00006FF3CF0343EAC203E363E36A43F01003B4
:103D1000E362E36AB5B943F40023E362114C23681C
:103D200043F080632360FEF767F9054623681B01B3
:103D30000FD5002005E0FEF75FF9C01B0228ADD9C2
:103D40000320F8BD012D0CBF43F4801343F400138E
:103D5000E3E7FEF751F9401B0228E7D9F0E701201D
:103D6000EFE700BF00440258F8B5394C06460D464F
:103D7000A36A03F00303032B67D0236823F0805367
:103D80002360FEF739F9074623689A0049D4A36AED
:103D9000326823F07C7343EA0253A362B368F2688B
:103DA000013B013A5B0212049BB202F4FE02134390
:103DB0007268013AC2F3080213433269013A1206EB
:103DC00002F0FE4213432364E36A726923F4406302
:103DD0001343E362E36AB26923F400731343E362BB
:103DE000E36A23F48073E362636CF2696FF3CF03D9
:103DF00043EAC2036364E36A43F48073E362E36A01
:103E0000B5B943F48003E362114C236843F0805357
:103E10002360FEF7F1F8054623689B000FD50020CC
:103E200005E0FEF7E9F8C01B0228ADD90320F8BD74
:103E3000012D0CBF43F4000343F08073E3E7FEF76A
:103E4000DBF8401B0228E7D9F0E70120EFE700BFCD
:103E5000004402582DE9F8430368054619011ED5B0
:103E6000C36EB3F5001F2AD00FD8D3B1B3F5801FAE
:103E70001DD001262B68DA054FD5AB6D042B4BD82E
:103E8000DFE803F0223D44272700B3F5401FF0D1BF
:103E9000964AE96E136D23F440130B431365002615
:103EA000E8E7924AD36A43F40033D362F0E7022191
:103EB0000830FFF7E3FE06460028DBD1E8E70221E1
:103EC0002830FFF751FFF6E7884AD36A43F40033FE
:103ED000D36234461CBB854AA96D136D23F00703DA
:103EE0000B4313652B689B052AD5EB6D802B44D0C3
:103EF00017D8ABB3402B39D00126344620E000213F
:103F000005F10800FFF7BAFE0446E3E7002105F1DA
:103F10002800FFF729FFF7E701263446E2E72646A7
:103F2000E0E723F04002B2F5807F01D0C02BE3D15F
:103F30004CBB6E4AE96D136D23F4E0730B431365BC
:103F40002B685F0531D52B6EB3F5806F47D01CD839
:103F5000002B37D0B3F5007F3AD00126344624E059
:103F6000624AD36A43F40033D362E1E7002105F1EA
:103F70000800FFF783FE0446DAE7002105F1280078
:103F8000FFF7F2FEF7E72646DAE723F40072B2F510
:103F9000006F02D0B3F5C06FDFD134BB534A296E36
:103FA000136D23F460630B4313652B68980128D5C8
:103FB000EB6C202B3BD01AD8DBB1102B31D0012673
:103FC00034461EE0494AD36A43F40033D362E4E73F
:103FD000002105F10800FFF751FE0446DDE700214E
:103FE00005F12800FFF7C0FEF7E72646DDE7302B96
:103FF000E5D11CBB3D4AE96CD36C23F030030B4385
:10400000D3642B68D9042AD56B6EB3F5005F76D0E4
:1040100016D8002B64D0B3F5805F69D001263446F2
:104020001DE0324AD36A43F40033D362E1E7022150
:1040300005F10800FFF722FE0446DAE72646E0E72E
:10404000B3F5405F02D0B3F5804FE7D1002C5CD1CF
:10405000264A696E136D23F4E0430B4313652B6806
:104060009A040BD5AB6EB3F5003F68D04FD8002B48
:1040700055D0B3F5803F5BD0012634462B685B04F6
:104080000CD5D5F8B030B3F1005F7ED05FD8002BEF
:1040900067D0B3F1805F71D0012634462B681F04CE
:1040A00012D5AB6FB3F1805F77D0B3F1005F7AD0F8
:1040B000002B7FD1002C40F080800C4AA96F136D3B
:1040C00023F040530B4313652B68D80140F18580E2
:1040D000AB6C032B00F2C680DFE803F07671BD768F
:1040E000024AD36A43F40033D362AFE70044025874
:1040F000002105F10800FFF7C1FD0446A6E70021F5
:1041000005F12800FFF730FEF7E72646A7E723F47E
:104110008032B2F5802F02D0B3F5403FACD1A4B9C4
:10412000934AA96E136D23F4E0230B431365A5E7AF
:10413000012105F10800FFF7A1FD0446EFE7012189
:1041400005F12800FFF710FEF7E7264696E7B3F1E2
:10415000A04F06D00FD8B3F1405F02D0B3F1804F2B
:104160009AD1C4B9824AD5F8B010936D23F0E043D8
:104170000B43936592E7B3F1C04FF1E7012105F1DD
:104180000800FFF77BFD0446EBE7012105F128005D
:10419000FFF7EAFDF7E7264680E7754AD36A43F45E
:1041A0000033D36286E7012105F10800FFF766FDC1
:1041B00004467FE70126344686E7264684E76C4AB4
:1041C000D36A43F40033D362002C4ED1684AA96C01
:1041D000D36C23F003030B43D3642B6859024ED5F1
:1041E000644F3B6843F480733B60FDF705FF8046F6
:1041F0003B68DA053BD5002C6FD15D4BD5F8B40098
:104200001A6F424012F4407F0BD01A6F196F22F4DC
:10421000407241F480311967196F21F480311967B8
:104220001A67B0F5807F43D0D5F8B430504903F415
:104230004072B2F5407F4CD108694F4A20F47C505F
:1042400002EA131202430A61C3F30B03484A116FD7
:104250000B43136713E0022105F10800FFF70EFD81
:104260000446B1E701263446B7E72646B5E7FDF731
:10427000C3FEA0EB08006428BAD9032634462B6895
:10428000D80709D5D5F88430102B3FD027D863B391
:10429000082B34D0012634462B6899074DD5D5F824
:1042A0008030052B5FD8DFE803F03F39583F3F3FB0
:1042B000FDF7A2FEDFF8B880074641F28839D8F84A
:1042C00070309B07B0D4FDF797FEC01B4845F6D968
:1042D000D3E70A6922F47C52B5E72646CFE723F0FC
:1042E0000802202A01D0182BD4D1ACB9204AD5F825
:1042F0008410536D23F038030B435365CCE7012141
:1043000005F10800FFF7BAFC0446EEE7012105F1CC
:104310002800FFF729FDF7E72646BDE7012105F153
:104320000800FFF7ABFC044604BB114AD5F8801027
:10433000536D23F007030B4353652B685A072ED5A3
:10434000D5F89C30052B00F27081DFE813F01D00DA
:10435000170068011D001D001D00012105F1280046
:10436000FFF702FDDFE701263446E6E72646E4E7ED
:104370000044025800480258CFFFFF00012105F118
:104380000800FFF77BFC0446002C40F05181A94A4D
:10439000D5F89C10936D23F007030B4393652B68AE
:1043A0009B0610D5D5F89830B3F1005F00F05E8120
:1043B00000F24281002B00F04881B3F1805F00F0F1
:1043C0004E81012634462B685F0610D5D5F8A430FF
:1043D000B3F5006F00F06C8100F25081002B00F00B
:1043E0005681B3F5806F00F05C81012634462B685E
:1043F000180610D5D5F8A830B3F5804F00F07A81B3
:1044000000F25E81002B00F06481B3F5005F00F0E4
:104410006A81012634462B68190714D5D5F88C30EB
:10442000B3F5805F07D1022105F12800FFF79CFC5E
:10443000002818BF01267F4AD5F88C10536D23F44D
:1044400040530B4353652B68DA0614D5D5F8A030DA
:10445000B3F5807F07D1022105F12800FFF784FC26
:10446000002818BF0126734AD5F8A010936D23F4D5
:1044700040730B4393652B681B031BD5D5F8AC1019
:10448000B1F5803F00F03E81B1F5003F07D0002933
:1044900040F03E8105F10800FFF7F0FB0446002CD8
:1044A00040F03981634AD5F8AC10936D23F4403362
:1044B0000B4393652B685F030FD5D5F89030B3F5A8
:1044C000001F00F03981B3F5401F00F02B81B3F5D8
:1044D000801F00F02281012634462B68D80309D5BD
:1044E0002B6D002B00F03181B3F5803F00F03B8154
:1044F000012634462B68990007D5022105F12800D2
:10450000FFF732FC002818BF0126D5E900319A03D5
:1045100040F14181D5F88800B0F5807F00F03D8101
:1045200000F22A81002800F02D810124DF0206D547
:104530004048EE6F026D22F00042324302659E0257
:1045400006D53C482E6F026D22F080723243026520
:10455000180506D537486E6F826D22F0006232432F
:1045600082655A0009D5334A106920F40040106171
:104570001069D5F8B86030431061002B06DA2D4879
:104580006E6DC26C22F040523243C2641F0207D5E6
:10459000284AD5F89400536D23F440030343536530
:1045A000CE0706D5002105F10800FFF767FB074697
:1045B00000B927466B689C0706D5012105F1080064
:1045C000FFF75CFB064600B93E466B68580706D508
:1045D000022105F10800FFF751FB044600B93446FB
:1045E0006B68190706D5002105F12800FFF7BCFB11
:1045F000064600B926466B68DA0606D5012105F1A4
:104600002800FFF7B1FB044600B934466B689B06EF
:1046100000F1C980201E18BF0120BDE8F8830121E8
:1046200005F12800FFF7A0FBADE601263446B6E60B
:104630002646B4E60044025823F08052B2F1804F7F
:1046400003D0B3F1405F7FF4BCAEACB95B4AD5F8A0
:104650009810536D23F0E0430B435365B3E60021FC
:1046600005F10800FFF70AFB0446EEE7022105F119
:104670002800FFF779FBF7E72646A4E623F48062DB
:10468000B2F5805F03D0B3F5406F7FF4AEAEACB946
:104690004A4AD5F8A410936D23F4E0530B43936575
:1046A000A5E6002105F10800FFF7E8FA0446EEE769
:1046B000022105F12800FFF757FBF7E7264696E6AB
:1046C00023F40052B2F5004F03D0B3F5C04F7FF48E
:1046D000A0AEACB9394AD5F8A810936D23F4604365
:1046E0000B43936597E6002105F10800FFF7C6FA32
:1046F0000446EEE7022105F12800FFF735FBF7E756
:10470000264688E6022105F12800FFF72DFBC5E6C5
:1047100001263446CEE62646CCE6284AD36A43F440
:104720000033D3627CB9254AD5F89010536D23F439
:1047300040130B435365D0E6012105F12800FFF734
:1047400013FB0446EEE72646C7E61C4AD36A43F449
:104750000033D36274B9194A296DD36C23F48033C2
:104760000B43D364C6E6022105F10800FFF786FA81
:104770000446EFE72646BDE620F48072B2F5007FDE
:104780007FF4D3AE002C7FF4D1AE0C4C626D22F4DA
:104790004072024362653446C8E6084FFA6A42F442
:1047A0000032FA62EEE7022105F12800FFF7DCFA99
:1047B00000283FF42FAF01202FE700BF004402582C
:1047C00008B5FFF715FA054B054A1B6AC3F3021338
:1047D000D35C03F01F03D84008BD00BF004402585B
:1047E00090F100084F4970B58C6A8E6ACD6A16F454
:1047F0007C3FC6F30533CA6B00F0908007EE903A19
:10480000C2F3CC03C5F3001204F00304B8EEE77A58
:104810005343012CB7EE006A06EE903AFAEEE96ACD
:104820006ED0022C5ED0002C6AD10B689B0647D557
:104830000A688B6BC2F3C1013B4AC3F30803CA4049
:1048400007EE902AF8EEE75AC5EE877A07EE103A9F
:10485000B8EEC77A37EE267A37EE067A67EE877AB1
:10486000304A936BC3F3462307EE103AB8EEC77A8B
:1048700037EE067AC7EE876AFCEEE66AC0ED006A9C
:10488000936BC3F3064307EE103AB8EEC77A37EEE0
:10489000067AC7EE876AFCEEE66AC0ED016A936BA2
:1048A000C3F3066306EE903AF8EEE66A76EE866AA1
:1048B00087EEA67AFCEEC77A17EE903A836070BD59
:1048C0008B6BDFED1A5AC3F3080307EE903AF8EE4C
:1048D000E77A77EEA67A77EE867AC5EE876A67EE94
:1048E000A67ABDE78B6BDFED125AC3F3080307EE20
:1048F000903AF8EEE77A77EEA67A77EE867AECE7EA
:104900008B6BDFED0C5AC3F3080307EE903AF8EE19
:10491000E77A77EEA67A77EE867ADEE7C0E90033AB
:10492000CCE700BF004402580090D0030024744C30
:104930000024F44A0024744A4F4970B58C6A8E6A88
:10494000CD6A16F07C7FC6F305534A6C00F0908068
:1049500007EE903AC2F3CC03C5F3002204F003043F
:10496000B8EEE77A5343012CB7EE006A06EE903AB0
:10497000FAEEE96A6ED0022C5ED0002C6AD10B6888
:104980009B0647D50A680B6CC2F3C1013B4AC3F3CF
:104990000803CA4007EE902AF8EEE75AC5EE877A78
:1049A00007EE103AB8EEC77A37EE267A37EE067A77
:1049B00067EE877A304A136CC3F3462307EE103A4A
:1049C000B8EEC77A37EE067AC7EE876AFCEEE66A7B
:1049D000C0ED006A136CC3F3064307EE103AB8EE5D
:1049E000C77A37EE067AC7EE876AFCEEE66AC0ED54
:1049F000016A136CC3F3066306EE903AF8EEE66ABA
:104A000076EE866A87EEA67AFCEEC77A17EE903AC3
:104A1000836070BD0B6CDFED1A5AC3F3080307EE19
:104A2000903AF8EEE77A77EEA67A77EE867AC5EED8
:104A3000876A67EEA67ABDE70B6CDFED125AC3F307
:104A4000080307EE903AF8EEE77A77EEA67A77EE6B
:104A5000867AECE70B6CDFED0C5AC3F3080307EE24
:104A6000903AF8EEE77A77EEA67A77EE867ADEE786
:104A7000C0E90033CCE700BF004402580090D003E7
:104A80000024744C0024F44A0024744A4F4970B541
:104A90008C6A8E6ACD6A16F47C7FC6F305134A6B66
:104AA00000F0908007EE903AC2F3CC0305F00102CB
:104AB00004F00304B8EEE77A5343012CB7EE006A22
:104AC00006EE903AFAEEE96A4ED0022C5ED0002C47
:104AD0006AD10B689B0667D50A680B6BC2F3C101EC
:104AE0003B4AC3F30803CA4007EE902AF8EEE75AA0
:104AF000C5EE877A07EE103AB8EEC77A37EE267A17
:104B000037EE067A67EE877A304A136BC3F3462393
:104B100007EE103AB8EEC77A37EE067AC7EE876A24
:104B2000FCEEE66AC0ED006A136BC3F3064307EEC2
:104B3000103AB8EEC77A37EE067AC7EE876AFCEE0F
:104B4000E66AC0ED016A136BC3F3066306EE903AA2
:104B5000F8EEE66A76EE866A87EEA67AFCEEC77A0B
:104B600017EE903A836070BD0B6BDFED1A5AC3F3FA
:104B7000080307EE903AF8EEE77A77EEA67A77EE3A
:104B8000867AC5EE876A67EEA67ABDE70B6BDFED26
:104B9000125AC3F3080307EE903AF8EEE77A77EE7D
:104BA000A67A77EE867AECE70B6BDFED0C5AC3F34F
:104BB000080307EE903AF8EEE77A77EEA67A77EEFA
:104BC000867ADEE7C0E90033CCE700BF0044025834
:104BD0000090D0030024744A0024F44A0024744C4A
:104BE0001FB5A0F580730B4315D19E4B1A6D02F0D3
:104BF0000702042A2DD8DFE812F01C00CA000500C5
:104C000041014100186810F0005000F0C88001A870
:104C1000FFF792FEC2E0A0F500730B431BD1914B4E
:104C20001A6D02F4E072802AECD00CD8002A40F011
:104C3000AE80186810F0007000F0B18001A8FFF796
:104C400025FF0298ABE0C02A00F01881B2F5807F02
:104C500014D00020A3E0A0F580630B432DD1814B3D
:104C60001A6D02F46062B2F5806FCBD0DED9B2F576
:104C7000C06F00F00381B2F5006FE9E7DA6C1968E4
:104C800002F04052480706D52AB91B68C3F3C10396
:104C90007548D84083E0734B1968C90503D5B2F154
:104CA000805F00F0E980186810F4003077D0B2F12E
:104CB000005F6E4818BF002071E0A0F580530B43E1
:104CC0001FD1684B1A6D02F4E042B2F5005F99D033
:104CD000ACD9B2F5405F00F0D180B2F5804FB8D1C9
:104CE000DA6C196802F040521B68480701D5002AA7
:104CF000CCD0D90503D5B2F1805F00F0BD80594B0F
:104D0000D1E7A0F500530B4330D1564A136D03F49D
:104D1000E023B3F5403F00F08A800CD8B3F5803F24
:104D200014D0B3F5003F19D0002B92D105B05DF837
:104D300004EBFEF77FBFB3F5802F71D0B3F5A02F42
:104D400087D11068494B10F400306DE0106810F006
:104D5000006024D001A8FFF745FD72E7106810F04D
:104D600000501CD001A8FFF7E7FD6AE7A0F500237B
:104D70000B4320D13B4B9A6D02F44032B2F5803F99
:104D800010D0B2F5003FABD0002A7FF462AF1868B4
:104D900010F0006003D001A8FFF724FD019805B0D2
:104DA0005DF804FB186810F00050F8D001A8FFF778
:104DB000C3FD0398F3E7A0F580330B430CD1294BD7
:104DC000DA6CD2037FF535AF186810F00060E6D0DA
:104DD00001A8FFF707FDECE7A0F580430B432CD1BA
:104DE000204A936D03F0E043B3F1405F1FD00DD82C
:104DF000B3F1805FAAD0B3F1005FAFD0002B7FF496
:104E000028AF05B05DF804EBFFF7DABCB3F1A04FB3
:104E100097D0B3F1C04F31D0B3F1804F7FF419AFC9
:104E20001068134B10F4807018BF1846B7E710686D
:104E300010F00400B3D0136828E7A0F50040084341
:104E40007FF407AF074A136D03F04053B3F1805F5F
:104E500010D0B3F1005F3FF479AF002B7FF4F9AECF
:104E60006FE700BF004402580090D00300127A00A0
:104E700000093D001068DDE6014890E701488EE733
:104E800000093D000080BB000129416C42680CBF55
:104E900009230123082905D122F00201012908BFB5
:104EA00043F01003023A012A94BF43F0600043F03C
:104EB000040070470E4B01461A6841F6583310B58E
:104EC000B2FBF3F204689200236823F4803323607A
:104ED0003AB9D1F89430032043F04003C1F894303C
:104EE00010BD2068013A10F48030F1D1F8E700BF1E
:104EF000040000242DE9F041044618B90127384682
:104F0000BDE8F08190F838200368012ADFF8988224
:104F100040F009814345F1D14368012BEED1436C48
:104F2000002BEBD1994D94F8913003F0FF0223B997
:104F3000204684F89020FBF73FFF2046FFF7BAFF9A
:104F400007460028DAD1022384F89130E368012B68
:104F500000F0FA80991E4B424B415B01A668022E7D
:104F600000F0F680032E00F0F180721E564256418A
:104F7000B602226A2B602368002A3ED0434503D044
:104F8000834A934240F0E7804FF480700021FFF79E
:104F900027FE22687F4B9A4204D14FF40070002113
:104FA000FFF71EFE22687C4B9A4204D14FF48060CA
:104FB0000021FFF715FEA369626CB3F5002FD4F84A
:104FC00020C040F0CF80042A00F0C780082A00F0FB
:104FD000C680636D0A210CFB03F34143B1FBF3F080
:104FE0000A21B0FBF1F301FB1300092808BF0133CC
:104FF000042A636204BF5B086362D4F804C0226DB4
:105000003CF0020340F0BD80013A18BF0122236842
:10501000520262491868434501EA00011960616C57
:1050200018684CEA010CA16C4CEA010CE16C4CEAEA
:10503000010CE16A4CEA010C61694CEA010CA169BE
:105040004CEA010CA16A4CEA010C21694CEA01010D
:1050500041EA0001606A41EA0051206B41EA060121
:1050600042EA01021A605A6822F4604222F00F02FA
:105070005A60E269596842EA0002606B42EA000243
:10508000E06D42EA01025A60454A996802EA01026B
:105090009A60626E996842EA0002206E42EA00025B
:1050A00042EA0102616D01F1FF3142EA0102A16DA4
:1050B00001F1FF3142EA01229A60DA6822F47D624E
:1050C00022F00F024FEA02424FEA1242DA60D96838
:1050D000D4E91A2042EA000242EA0102616F42EA80
:1050E0000142216F01F1FF3142EA0122DA6011D160
:1050F0006B6C23F001036B6494F83830012B09D1F9
:10510000E36B5A1E236C43EA02136B646B6C43F02F
:1051100001036B6400230122C4F8943084F89030BA
:1051200084F89120EBE643453FF4FCAE184A9342E5
:105130003FF4F8AE02F57872934203D020329342E6
:105140007FF4DCAE174DEEE6102307E743F00103D2
:105150004FF400660DE700201BE740233AE74FF4C9
:10516000807337E7A36A0A21B3F1806F01FB00F077
:1051700014BF012302230CFB03F31B02B0FBF3F06B
:105180002EE7531E5A425A4141E700BF00580140E2
:1051900024580140045C0140245C014010C005F02B
:1051A0000080F8FF005C014004580140022970B4FF
:1051B00005D9CC1E012C58D9012070BC7047456818
:1051C0000024036735F002054464C46414BF01255C
:1051D0002546846613F0010405654FF48035C565E6
:1051E0004FF6FF754567E7D1D9B94FF480240166C2
:1051F0004466032AE0D8DFE802F002181D2D5B08A0
:1052000040245D011B0180260229C4668664C0E932
:10521000155303D1012A26D11023836670BCFFF7F2
:1052200069BE4FF400350566E2E75B0880249D0106
:105230005B01E8E7C0225B08022982644FEA83121F
:105240004FEA4313426583654FF08003C366E5D19F
:105250000823E2E7E0225B0882649A015B01426571
:105260008365802327E0022AF1E7456800244FF494
:105270000036036735F002054464C46414BF254654
:1052800001250429C46505654FF4802514BF0D214F
:10529000012184664FF6FF7481654467C0E9186593
:1052A000032A89D8DFE802F002090F141B018022CB
:1052B000436540238264C366B0E780225B01826459
:1052C0004365C266AAE7C0225B0182644365C8E702
:1052D000E022F9E770B590F890300446012B45D0F4
:1052E000012680F89060FFF7E5FD2268051E13682F
:1052F00018BF012523F40033136094F89130122B6A
:1053000011D1D4F8800070B1FDF734FB58B1D4F856
:1053100080305B6D802B06D0D4F89430354643F056
:105320008003C4F8943094F89130222B11D1D4F832
:10533000840070B1FDF71EFB58B1D4F884305B6D6A
:10534000802B06D0D4F89430012543F08003C4F8B4
:1053500094302268536843F008035360012384F8B3
:105360009130002384F89030284670BD0225FBE779
:1053700070B590F890300446012B4CD0012680F88F
:105380009060FFF797FD2368051E1A6818BF012576
:1053900092032FD51A6822F400321A6094F89130E3
:1053A000122B11D1D4F8800070B1FDF7E3FA58B197
:1053B000D4F880305B6D802B06D0D4F8943035461D
:1053C00043F08003C4F8943094F89130222B11D12B
:1053D000D4F8840070B1FDF7CDFA58B1D4F8843018
:1053E0005B6D802B06D0D4F89430012543F0800308
:1053F000C4F89430236800214FF0FF3219619A619C
:105400005A6842F008025A60012384F8901084F828
:105410009130284670BD0225FBE7000013460A467E
:1054200070B5044639B333B390F891100129C8B26E
:105430003BD194F89010012937D00026222184F81E
:105440009000C4F89460D4F8840084F8911018494E
:10545000A267A4F87C30A4F87E3001641549C163CA
:105460001549C0E9131621681C31FDF799F9054665
:1054700020B184F890600125284670BD0146204681
:10548000FFF702FD23681A6902431A611A6842F4A1
:1054900000321A601A68D20303D41A6842F48032C8
:1054A0001A60002384F89030E6E70225E4E700BFA5
:1054B000F7540008BD5400080355000838B5C36907
:1054C000846BB3F5807F11D02568002120462B68BE
:1054D00023F400332B60A4F87E10FFF7D5FC2B6972
:1054E00023EA00032B61012384F89130204601F068
:1054F00083FD38BD7047806B08B5FFF7FBFF08BD23
:10550000704710B5846BFDF7CDFD022816D0D4F896
:1055100094302046226843F08003C4F89430136826
:1055200023F400331360FFF7C5FC0123204684F801
:1055300091300023A4F87E30FFF7E2FF10BD000099
:1055400070B590F891300446002B5CD0036859691F
:105550001A690E071D6806D5160704D5D0F88C30D9
:10556000BDE870401847C8070FD512F001000CD0F5
:1055700001229A6194F89130222BD4F8943018BF0C
:1055800002200343C4F894303AE08E0709D590070F
:1055900007D502229A61D4F88830A3B3BDE87040E1
:1055A00018478E0630D590062ED520229A61D4F861
:1055B000943043F00403C4F89430AB031DD5D4F801
:1055C000800068B1274B0365FDF7E8FA40B1D4F8D5
:1055D0009430204643F08003C4F89430FFF790FFE6
:1055E000D4F8840078B11F4B0365FDF7D7FA50B1AA
:1055F000D4F8943043F08003C4E72046FFF7B8FEA8
:105600002046FFF77DFF70BD4E0608D5500606D533
:1056100040229A61D4F8943043F00803CBE74E0758
:1056200016D5500714D5042215F400359A61D4F824
:10563000942042F02002C4F89420C0D14FF0FF32F1
:105640001D619A610123A4F87E5084F89130D7E758
:10565000C906D8D5D206D6D510229A61D4F894308E
:1056600013438FE76956000838B5846B25682B68AB
:1056700023F400332B6000232B614FF0FF33AB6129
:10568000D4F89430202B06D02046FFF713FC6B682B
:1056900043F008036B600123204684F89130002317
:1056A000A4F87E30FFF72CFF38BD000010B502686B
:1056B00052E8003F23F4907342E800310268002969
:1056C000F5D10F4C02F1080353E8003F234002F1EB
:1056D000080C4CE800310029F4D1C36E012B07D12E
:1056E00052E8003F23F0100342E800310029F7D1CF
:1056F0002023C0F88C300023C366436710BD00BF71
:10570000FEFFFFEF70477047704708B5806B0023BE
:10571000A0F85E30FFF7F8FF08BD704703682DE979
:10572000F041D96940F60F061A68044631429D6877
:1057300010D18E0640F1978002F0200605F08057C8
:105740003E4300F09080436F002B00F08580BDE861
:10575000F0411847A64EA7482E401040304300F0B5
:105760008280CF0709D5D00507D501201862D4F86B
:10577000900040F00100C4F890008F0709D5E807B9
:1057800007D502201862D4F8900040F00400C4F855
:1057900090004F0709D5E80707D504201862D4F810
:1057A000900040F00200C4F890000F070BD502F003
:1057B0002000304307D008201862D4F8900040F051
:1057C0000800C4F890000E050AD5500108D54FF422
:1057D00000601862D4F8903043F02003C4F8903091
:1057E000D4F89030002B37D08B0609D502F0200278
:1057F00005F080552A4303D0636F0BB120469847CC
:1058000026682046D4F89020B36802F0280203F0FE
:10581000400353EA020521D0FFF748FFB3685F0653
:1058200017D5226802F1080353E8003F23F0400334
:10583000083242E800310029F3D1D4F8800040B1A9
:105840006D4B0365FDF7AAF930B1D4F88000036D04
:105850007DE72046FFF758FFBDE8F081FFF754FFD2
:10586000C4F89050F8E7E06E012840F0B580CE060D
:1058700040F1B280D00640F1AF801022B4F85C0055
:105880001A629A68520677D5D4F880505B492A6824
:105890008A421ED018318A421BD018318A4218D051
:1058A00018318A4215D018318A4212D018318A42F2
:1058B0000FD018318A420CD018318A4209D001F534
:1058C00056718A4205D018318A4202D018318A4274
:1058D000FFD0516889B2002943D0814241D2EA69A0
:1058E000A4F85E10B2F5807F2FD053E8002F22F489
:1058F000807243E800210029F7D103F1080252E841
:10590000002F22F0010203F1080040E800210029E5
:10591000F3D103F1080252E8002F22F0400203F114
:10592000080040E800210029F3D12022C4F88C208F
:10593000E16653E8002F22F0100243E8002100291D
:10594000F7D1D4F88000FDF715F80223B4F85C1005
:105950002367B4F85E30C91A89B22046FFF7DDFE2E
:105960007AE781427FF478AFEB69B3F5807F7FF40B
:1059700073AF02232367F0E7B4F85E20B4F85E103B
:1059800092B289B200293FF467AF801A81B2002930
:105990003FF462AF53E8002F22F4907243E80020F6
:1059A0000028F7D1164D03F1080252E8002F2A40D3
:1059B00003F1080646E800200028F4D120226067A1
:1059C000C4F88C20E06653E8002F22F0100243E870
:1059D00000200028F7D1CCE7CF0213D56E0211D5F5
:1059E0004FF4801220461A62BDE8F04100F07ABE02
:1059F00001000010200100040B57000810000240B5
:105A0000FEFFFFEF08060BD502F0800005F400054D
:105A1000284305D0A36F002B3FF41EAF204696E627
:105A20004F0611D556060FD553E8002F22F040023D
:105A300043E800210029F7D120232046A167C4F8BC
:105A40008830FFF75FFE07E70D0206D5500004D54A
:105A50002046BDE8F04100F047BECB017FF5FCAE2B
:105A6000002ABFF6F9AE2046BDE8F04100F03BBE8B
:105A7000D0F88C20B0F86010222A08B5036855D100
:105A80005B6A826D0B401370836D01338365B0F8E0
:105A90005E30013B9BB2A0F85E30B0F85E309BB246
:105AA000002B42D1026852E8003F23F4907342E891
:105AB000003103680029F5D103F1080252E8002FF4
:105AC00022F0010203F1080C4CE800210029F3D177
:105AD00020224167C0F88C20174A0167934205D104
